{
  "_format": "hh-sol-artifact-1",
  "contractName": "IPCWrapper",
  "sourceName": "contracts/IPCWrapper.sol",
  "abi": [
    {
      "inputs": [],
      "stateMutability": "nonpayable",
      "type": "constructor"
    },
    {
      "inputs": [],
      "name": "ApprovalCallerNotOwnerNorApproved",
      "type": "error"
    },
    {
      "inputs": [],
      "name": "ApprovalQueryForNonexistentToken",
      "type": "error"
    },
    {
      "inputs": [],
      "name": "ApproveToCaller",
      "type": "error"
    },
    {
      "inputs": [],
      "name": "BalanceQueryForZeroAddress",
      "type": "error"
    },
    {
      "inputs": [],
      "name": "MintERC2309QuantityExceedsLimit",
      "type": "error"
    },
    {
      "inputs": [],
      "name": "MintToZeroAddress",
      "type": "error"
    },
    {
      "inputs": [],
      "name": "MintZeroQuantity",
      "type": "error"
    },
    {
      "inputs": [],
      "name": "OwnerQueryForNonexistentToken",
      "type": "error"
    },
    {
      "inputs": [],
      "name": "OwnershipNotInitializedForExtraData",
      "type": "error"
    },
    {
      "inputs": [],
      "name": "TokenDoesntExist",
      "type": "error"
    },
    {
      "inputs": [],
      "name": "TokenLimitReached",
      "type": "error"
    },
    {
      "inputs": [],
      "name": "TokenNotOwner",
      "type": "error"
    },
    {
      "inputs": [],
      "name": "TransferCallerNotOwnerNorApproved",
      "type": "error"
    },
    {
      "inputs": [],
      "name": "TransferFromIncorrectOwner",
      "type": "error"
    },
    {
      "inputs": [],
      "name": "TransferToNonERC721ReceiverImplementer",
      "type": "error"
    },
    {
      "inputs": [],
      "name": "TransferToZeroAddress",
      "type": "error"
    },
    {
      "inputs": [],
      "name": "URIQueryForNonexistentToken",
      "type": "error"
    },
    {
      "anonymous": false,
      "inputs": [
        {
          "indexed": true,
          "internalType": "address",
          "name": "owner",
          "type": "address"
        },
        {
          "indexed": true,
          "internalType": "address",
          "name": "approved",
          "type": "address"
        },
        {
          "indexed": true,
          "internalType": "uint256",
          "name": "tokenId",
          "type": "uint256"
        }
      ],
      "name": "Approval",
      "type": "event"
    },
    {
      "anonymous": false,
      "inputs": [
        {
          "indexed": true,
          "internalType": "address",
          "name": "owner",
          "type": "address"
        },
        {
          "indexed": true,
          "internalType": "address",
          "name": "operator",
          "type": "address"
        },
        {
          "indexed": false,
          "internalType": "bool",
          "name": "approved",
          "type": "bool"
        }
      ],
      "name": "ApprovalForAll",
      "type": "event"
    },
    {
      "anonymous": false,
      "inputs": [
        {
          "indexed": true,
          "internalType": "uint256",
          "name": "fromTokenId",
          "type": "uint256"
        },
        {
          "indexed": false,
          "internalType": "uint256",
          "name": "toTokenId",
          "type": "uint256"
        },
        {
          "indexed": true,
          "internalType": "address",
          "name": "from",
          "type": "address"
        },
        {
          "indexed": true,
          "internalType": "address",
          "name": "to",
          "type": "address"
        }
      ],
      "name": "ConsecutiveTransfer",
      "type": "event"
    },
    {
      "anonymous": false,
      "inputs": [
        {
          "indexed": true,
          "internalType": "address",
          "name": "previousOwner",
          "type": "address"
        },
        {
          "indexed": true,
          "internalType": "address",
          "name": "newOwner",
          "type": "address"
        }
      ],
      "name": "OwnershipTransferred",
      "type": "event"
    },
    {
      "anonymous": false,
      "inputs": [
        {
          "indexed": true,
          "internalType": "address",
          "name": "from",
          "type": "address"
        },
        {
          "indexed": true,
          "internalType": "address",
          "name": "to",
          "type": "address"
        },
        {
          "indexed": true,
          "internalType": "uint256",
          "name": "tokenId",
          "type": "uint256"
        }
      ],
      "name": "Transfer",
      "type": "event"
    },
    {
      "anonymous": false,
      "inputs": [
        {
          "indexed": false,
          "internalType": "uint256",
          "name": "",
          "type": "uint256"
        },
        {
          "indexed": false,
          "internalType": "uint256",
          "name": "",
          "type": "uint256"
        },
        {
          "indexed": false,
          "internalType": "address",
          "name": "",
          "type": "address"
        }
      ],
      "name": "Unwrapped",
      "type": "event"
    },
    {
      "anonymous": false,
      "inputs": [
        {
          "indexed": false,
          "internalType": "uint256",
          "name": "",
          "type": "uint256"
        },
        {
          "indexed": false,
          "internalType": "uint256",
          "name": "",
          "type": "uint256"
        },
        {
          "indexed": false,
          "internalType": "address",
          "name": "",
          "type": "address"
        }
      ],
      "name": "Wrapped",
      "type": "event"
    },
    {
      "inputs": [
        {
          "internalType": "address",
          "name": "to",
          "type": "address"
        },
        {
          "internalType": "uint256",
          "name": "tokenId",
          "type": "uint256"
        }
      ],
      "name": "approve",
      "outputs": [],
      "stateMutability": "nonpayable",
      "type": "function"
    },
    {
      "inputs": [
        {
          "internalType": "address",
          "name": "owner",
          "type": "address"
        }
      ],
      "name": "balanceOf",
      "outputs": [
        {
          "internalType": "uint256",
          "name": "",
          "type": "uint256"
        }
      ],
      "stateMutability": "view",
      "type": "function"
    },
    {
      "inputs": [
        {
          "internalType": "uint256",
          "name": "tokenId",
          "type": "uint256"
        },
        {
          "internalType": "string",
          "name": "newName",
          "type": "string"
        }
      ],
      "name": "changeIpcName",
      "outputs": [],
      "stateMutability": "payable",
      "type": "function"
    },
    {
      "inputs": [],
      "name": "contractURI",
      "outputs": [
        {
          "internalType": "string",
          "name": "",
          "type": "string"
        }
      ],
      "stateMutability": "view",
      "type": "function"
    },
    {
      "inputs": [
        {
          "internalType": "uint256",
          "name": "startIndex",
          "type": "uint256"
        },
        {
          "internalType": "uint256",
          "name": "total",
          "type": "uint256"
        }
      ],
      "name": "getAllTokens",
      "outputs": [
        {
          "components": [
            {
              "internalType": "uint256",
              "name": "tokenId",
              "type": "uint256"
            },
            {
              "internalType": "string",
              "name": "name",
              "type": "string"
            },
            {
              "internalType": "bytes32",
              "name": "attributeSeed",
              "type": "bytes32"
            },
            {
              "internalType": "bytes32",
              "name": "dna",
              "type": "bytes32"
            },
            {
              "internalType": "uint128",
              "name": "experience",
              "type": "uint128"
            },
            {
              "internalType": "uint128",
              "name": "timeOfBirth",
              "type": "uint128"
            },
            {
              "internalType": "address",
              "name": "owner",
              "type": "address"
            }
          ],
          "internalType": "struct IPCWrapper.t_raw_ipc[]",
          "name": "",
          "type": "tuple[]"
        }
      ],
      "stateMutability": "view",
      "type": "function"
    },
    {
      "inputs": [
        {
          "internalType": "uint256",
          "name": "tokenId",
          "type": "uint256"
        }
      ],
      "name": "getApproved",
      "outputs": [
        {
          "internalType": "address",
          "name": "",
          "type": "address"
        }
      ],
      "stateMutability": "view",
      "type": "function"
    },
    {
      "inputs": [
        {
          "internalType": "uint256",
          "name": "tokenId",
          "type": "uint256"
        }
      ],
      "name": "getIpc",
      "outputs": [
        {
          "components": [
            {
              "internalType": "uint256",
              "name": "tokenId",
              "type": "uint256"
            },
            {
              "internalType": "string",
              "name": "name",
              "type": "string"
            },
            {
              "internalType": "bytes32",
              "name": "attributeSeed",
              "type": "bytes32"
            },
            {
              "internalType": "bytes32",
              "name": "dna",
              "type": "bytes32"
            },
            {
              "internalType": "uint128",
              "name": "experience",
              "type": "uint128"
            },
            {
              "internalType": "uint128",
              "name": "timeOfBirth",
              "type": "uint128"
            },
            {
              "internalType": "address",
              "name": "owner",
              "type": "address"
            }
          ],
          "internalType": "struct IPCWrapper.t_raw_ipc",
          "name": "",
          "type": "tuple"
        }
      ],
      "stateMutability": "view",
      "type": "function"
    },
    {
      "inputs": [],
      "name": "getProperties",
      "outputs": [
        {
          "components": [
            {
              "internalType": "address",
              "name": "contractAdress",
              "type": "address"
            },
            {
              "internalType": "string",
              "name": "tokenURI",
              "type": "string"
            },
            {
              "internalType": "string",
              "name": "contractURI",
              "type": "string"
            },
            {
              "internalType": "uint256",
              "name": "maxPrice",
              "type": "uint256"
            },
            {
              "internalType": "uint256",
              "name": "tokenLimit",
              "type": "uint256"
            }
          ],
          "internalType": "struct IPCWrapper.t_properties",
          "name": "",
          "type": "tuple"
        }
      ],
      "stateMutability": "view",
      "type": "function"
    },
    {
      "inputs": [
        {
          "internalType": "uint256",
          "name": "tokenId",
          "type": "uint256"
        }
      ],
      "name": "getTokenIndex",
      "outputs": [
        {
          "internalType": "uint256",
          "name": "",
          "type": "uint256"
        }
      ],
      "stateMutability": "view",
      "type": "function"
    },
    {
      "inputs": [
        {
          "internalType": "uint256",
          "name": "tokenId",
          "type": "uint256"
        }
      ],
      "name": "getTokenOwnership",
      "outputs": [
        {
          "internalType": "address",
          "name": "",
          "type": "address"
        }
      ],
      "stateMutability": "view",
      "type": "function"
    },
    {
      "inputs": [
        {
          "internalType": "address",
          "name": "owner",
          "type": "address"
        },
        {
          "internalType": "uint256",
          "name": "startIndex",
          "type": "uint256"
        },
        {
          "internalType": "uint256",
          "name": "total",
          "type": "uint256"
        }
      ],
      "name": "getTokensOfOwner",
      "outputs": [
        {
          "components": [
            {
              "internalType": "uint256",
              "name": "tokenId",
              "type": "uint256"
            },
            {
              "internalType": "string",
              "name": "name",
              "type": "string"
            },
            {
              "internalType": "bytes32",
              "name": "attributeSeed",
              "type": "bytes32"
            },
            {
              "internalType": "bytes32",
              "name": "dna",
              "type": "bytes32"
            },
            {
              "internalType": "uint128",
              "name": "experience",
              "type": "uint128"
            },
            {
              "internalType": "uint128",
              "name": "timeOfBirth",
              "type": "uint128"
            },
            {
              "internalType": "address",
              "name": "owner",
              "type": "address"
            }
          ],
          "internalType": "struct IPCWrapper.t_raw_ipc[]",
          "name": "",
          "type": "tuple[]"
        }
      ],
      "stateMutability": "view",
      "type": "function"
    },
    {
      "inputs": [
        {
          "internalType": "address",
          "name": "owner",
          "type": "address"
        },
        {
          "internalType": "address",
          "name": "operator",
          "type": "address"
        }
      ],
      "name": "isApprovedForAll",
      "outputs": [
        {
          "internalType": "bool",
          "name": "",
          "type": "bool"
        }
      ],
      "stateMutability": "view",
      "type": "function"
    },
    {
      "inputs": [],
      "name": "name",
      "outputs": [
        {
          "internalType": "string",
          "name": "",
          "type": "string"
        }
      ],
      "stateMutability": "view",
      "type": "function"
    },
    {
      "inputs": [
        {
          "internalType": "address",
          "name": "",
          "type": "address"
        },
        {
          "internalType": "address",
          "name": "",
          "type": "address"
        },
        {
          "internalType": "uint256",
          "name": "",
          "type": "uint256"
        },
        {
          "internalType": "bytes",
          "name": "",
          "type": "bytes"
        }
      ],
      "name": "onERC721Received",
      "outputs": [
        {
          "internalType": "bytes4",
          "name": "",
          "type": "bytes4"
        }
      ],
      "stateMutability": "pure",
      "type": "function"
    },
    {
      "inputs": [
        {
          "internalType": "address",
          "name": "",
          "type": "address"
        },
        {
          "internalType": "uint256",
          "name": "",
          "type": "uint256"
        },
        {
          "internalType": "bytes",
          "name": "",
          "type": "bytes"
        }
      ],
      "name": "onERC721Received",
      "outputs": [
        {
          "internalType": "bytes4",
          "name": "",
          "type": "bytes4"
        }
      ],
      "stateMutability": "pure",
      "type": "function"
    },
    {
      "inputs": [],
      "name": "owner",
      "outputs": [
        {
          "internalType": "address",
          "name": "",
          "type": "address"
        }
      ],
      "stateMutability": "view",
      "type": "function"
    },
    {
      "inputs": [
        {
          "internalType": "uint256",
          "name": "tokenId",
          "type": "uint256"
        }
      ],
      "name": "ownerOf",
      "outputs": [
        {
          "internalType": "address",
          "name": "",
          "type": "address"
        }
      ],
      "stateMutability": "view",
      "type": "function"
    },
    {
      "inputs": [],
      "name": "renounceOwnership",
      "outputs": [],
      "stateMutability": "nonpayable",
      "type": "function"
    },
    {
      "inputs": [
        {
          "internalType": "address",
          "name": "from",
          "type": "address"
        },
        {
          "internalType": "address",
          "name": "to",
          "type": "address"
        },
        {
          "internalType": "uint256",
          "name": "tokenId",
          "type": "uint256"
        }
      ],
      "name": "safeTransferFrom",
      "outputs": [],
      "stateMutability": "nonpayable",
      "type": "function"
    },
    {
      "inputs": [
        {
          "internalType": "address",
          "name": "from",
          "type": "address"
        },
        {
          "internalType": "address",
          "name": "to",
          "type": "address"
        },
        {
          "internalType": "uint256",
          "name": "tokenId",
          "type": "uint256"
        },
        {
          "internalType": "bytes",
          "name": "_data",
          "type": "bytes"
        }
      ],
      "name": "safeTransferFrom",
      "outputs": [],
      "stateMutability": "nonpayable",
      "type": "function"
    },
    {
      "inputs": [
        {
          "internalType": "address",
          "name": "operator",
          "type": "address"
        },
        {
          "internalType": "bool",
          "name": "approved",
          "type": "bool"
        }
      ],
      "name": "setApprovalForAll",
      "outputs": [],
      "stateMutability": "nonpayable",
      "type": "function"
    },
    {
      "inputs": [
        {
          "internalType": "address",
          "name": "_contractAddress",
          "type": "address"
        }
      ],
      "name": "setContractAddress",
      "outputs": [],
      "stateMutability": "nonpayable",
      "type": "function"
    },
    {
      "inputs": [
        {
          "internalType": "uint256",
          "name": "_maxPrice",
          "type": "uint256"
        },
        {
          "internalType": "uint256",
          "name": "_tokenLimit",
          "type": "uint256"
        },
        {
          "internalType": "string",
          "name": "__tokenURI",
          "type": "string"
        },
        {
          "internalType": "string",
          "name": "__contractURI",
          "type": "string"
        }
      ],
      "name": "setProperties",
      "outputs": [],
      "stateMutability": "nonpayable",
      "type": "function"
    },
    {
      "inputs": [
        {
          "internalType": "bytes4",
          "name": "interfaceId",
          "type": "bytes4"
        }
      ],
      "name": "supportsInterface",
      "outputs": [
        {
          "internalType": "bool",
          "name": "",
          "type": "bool"
        }
      ],
      "stateMutability": "view",
      "type": "function"
    },
    {
      "inputs": [],
      "name": "symbol",
      "outputs": [
        {
          "internalType": "string",
          "name": "",
          "type": "string"
        }
      ],
      "stateMutability": "view",
      "type": "function"
    },
    {
      "inputs": [
        {
          "internalType": "uint256",
          "name": "tokenId",
          "type": "uint256"
        }
      ],
      "name": "tokenURI",
      "outputs": [
        {
          "internalType": "string",
          "name": "",
          "type": "string"
        }
      ],
      "stateMutability": "view",
      "type": "function"
    },
    {
      "inputs": [],
      "name": "totalSupply",
      "outputs": [
        {
          "internalType": "uint256",
          "name": "",
          "type": "uint256"
        }
      ],
      "stateMutability": "view",
      "type": "function"
    },
    {
      "inputs": [
        {
          "internalType": "address",
          "name": "from",
          "type": "address"
        },
        {
          "internalType": "address",
          "name": "to",
          "type": "address"
        },
        {
          "internalType": "uint256",
          "name": "tokenId",
          "type": "uint256"
        }
      ],
      "name": "transferFrom",
      "outputs": [],
      "stateMutability": "nonpayable",
      "type": "function"
    },
    {
      "inputs": [
        {
          "internalType": "address",
          "name": "newOwner",
          "type": "address"
        }
      ],
      "name": "transferOwnership",
      "outputs": [],
      "stateMutability": "nonpayable",
      "type": "function"
    },
    {
      "inputs": [
        {
          "internalType": "uint256",
          "name": "tokenId",
          "type": "uint256"
        }
      ],
      "name": "unwrap",
      "outputs": [],
      "stateMutability": "nonpayable",
      "type": "function"
    },
    {
      "inputs": [],
      "name": "withdrawVault",
      "outputs": [],
      "stateMutability": "nonpayable",
      "type": "function"
    },
    {
      "inputs": [
        {
          "internalType": "uint256",
          "name": "tokenId",
          "type": "uint256"
        }
      ],
      "name": "wrap",
      "outputs": [],
      "stateMutability": "nonpayable",
      "type": "function"
    }
  ],
  "bytecode": "0x60806040523480156200001157600080fd5b506040518060400160405280601d81526020017f496d6d6f7274616c20506c6179657220436861726163746572732076300000008152506040518060400160405280600581526020017f49504356300000000000000000000000000000000000000000000000000000008152506200009e62000092620001f360201b60201c565b620001fb60201b60201c565b8160039080519060200190620000b6929190620002c8565b508060049080519060200190620000cf929190620002c8565b50620000e0620002bf60201b60201c565b6001819055505050736a62dafa4560357b35a3c70fc81868ce7da3a062600960006101000a81548173ffffffffffffffffffffffffffffffffffffffff021916908373ffffffffffffffffffffffffffffffffffffffff1602179055506040518060400160405280601a81526020017f68747470733a2f2f776562736974652e636f6d2f746f6b656e2f000000000000815250600a90805190602001906200018a929190620002c8565b506040518060400160405280601d81526020017f68747470733a2f2f776562736974652e636f6d2f636f6e74726163742f000000815250600b9080519060200190620001d8929190620002c8565b506305f5e100600c819055506103e8600d81905550620003dd565b600033905090565b60008060009054906101000a900473ffffffffffffffffffffffffffffffffffffffff169050816000806101000a81548173ffffffffffffffffffffffffffffffffffffffff021916908373ffffffffffffffffffffffffffffffffffffffff1602179055508173ffffffffffffffffffffffffffffffffffffffff168173ffffffffffffffffffffffffffffffffffffffff167f8be0079c531659141344cd1fd0a4f28419497f9722a3daafe3b4186f6b6457e060405160405180910390a35050565b60006001905090565b828054620002d690620003a7565b90600052602060002090601f016020900481019282620002fa576000855562000346565b82601f106200031557805160ff191683800117855562000346565b8280016001018555821562000346579182015b828111156200034557825182559160200191906001019062000328565b5b50905062000355919062000359565b5090565b5b80821115620003745760008160009055506001016200035a565b5090565b7f4e487b7100000000000000000000000000000000000000000000000000000000600052602260045260246000fd5b60006002820490506001821680620003c057607f821691505b60208210811415620003d757620003d662000378565b5b50919050565b61475380620003ed6000396000f3fe6080604052600436106101e35760003560e01c80638da5cb5b11610102578063de0e9a3e11610095578063ea598cb011610064578063ea598cb01461072d578063ec0cfd0b14610756578063f0b9e5ba14610781578063f2fde38b146107be576101e3565b8063de0e9a3e14610680578063dfb31a7c146106a9578063e8a3d485146106c5578063e985e9c5146106f0576101e3565b8063b88d4fde116100d1578063b88d4fde146105c6578063c87b56dd146105ef578063d0d0ed051461062c578063d850030614610643576101e3565b80638da5cb5b1461050a57806395d89b41146105355780639a04383214610560578063a22cb4651461059d576101e3565b80633a663c801161017a57806370a082311161014957806370a082311461043c578063715018a6146104795780637fff1e2f1461049057806389edc438146104cd576101e3565b80633a663c801461037057806342842e0e146103ad578063477bddaa146103d65780636352211e146103ff576101e3565b8063150b7a02116101b6578063150b7a02146102b657806318160ddd146102f357806320f95f621461031e57806323b872dd14610347576101e3565b806301ffc9a7146101e857806306fdde0314610225578063081812fc14610250578063095ea7b31461028d575b600080fd5b3480156101f457600080fd5b5061020f600480360381019061020a919061322c565b6107e7565b60405161021c9190613274565b60405180910390f35b34801561023157600080fd5b5061023a610879565b6040516102479190613328565b60405180910390f35b34801561025c57600080fd5b5061027760048036038101906102729190613380565b61090b565b60405161028491906133ee565b60405180910390f35b34801561029957600080fd5b506102b460048036038101906102af9190613435565b61098a565b005b3480156102c257600080fd5b506102dd60048036038101906102d891906134da565b610ace565b6040516102ea9190613571565b60405180910390f35b3480156102ff57600080fd5b50610308610ae3565b604051610315919061359b565b60405180910390f35b34801561032a57600080fd5b506103456004803603810190610340919061360c565b610b8a565b005b34801561035357600080fd5b5061036e600480360381019061036991906136b3565b610bcc565b005b34801561037c57600080fd5b5061039760048036038101906103929190613380565b610ef1565b6040516103a4919061359b565b60405180910390f35b3480156103b957600080fd5b506103d460048036038101906103cf91906136b3565b610f0e565b005b3480156103e257600080fd5b506103fd60048036038101906103f89190613706565b610f2e565b005b34801561040b57600080fd5b5061042660048036038101906104219190613380565b610f7a565b60405161043391906133ee565b60405180910390f35b34801561044857600080fd5b50610463600480360381019061045e9190613706565b611095565b604051610470919061359b565b60405180910390f35b34801561048557600080fd5b5061048e61114e565b005b34801561049c57600080fd5b506104b760048036038101906104b29190613380565b611162565b6040516104c4919061387b565b60405180910390f35b3480156104d957600080fd5b506104f460048036038101906104ef919061389d565b61135b565b6040516105019190613a4e565b60405180910390f35b34801561051657600080fd5b5061051f611563565b60405161052c91906133ee565b60405180910390f35b34801561054157600080fd5b5061054a61158c565b6040516105579190613328565b60405180910390f35b34801561056c57600080fd5b5061058760048036038101906105829190613a70565b61161e565b6040516105949190613a4e565b60405180910390f35b3480156105a957600080fd5b506105c460048036038101906105bf9190613adc565b611745565b005b3480156105d257600080fd5b506105ed60048036038101906105e89190613c4c565b6118bd565b005b3480156105fb57600080fd5b5061061660048036038101906106119190613380565b611930565b6040516106239190613328565b60405180910390f35b34801561063857600080fd5b506106416119d7565b005b34801561064f57600080fd5b5061066a60048036038101906106659190613380565b611a8e565b60405161067791906133ee565b60405180910390f35b34801561068c57600080fd5b506106a760048036038101906106a29190613380565b611b42565b005b6106c360048036038101906106be9190613ccf565b611ed2565b005b3480156106d157600080fd5b506106da611f69565b6040516106e79190613328565b60405180910390f35b3480156106fc57600080fd5b5061071760048036038101906107129190613d2f565b611ffb565b6040516107249190613274565b60405180910390f35b34801561073957600080fd5b50610754600480360381019061074f9190613380565b61208f565b005b34801561076257600080fd5b5061076b612385565b6040516107789190613dec565b60405180910390f35b34801561078d57600080fd5b506107a860048036038101906107a39190613e0e565b612517565b6040516107b59190613571565b60405180910390f35b3480156107ca57600080fd5b506107e560048036038101906107e09190613706565b612544565b005b60006301ffc9a760e01b827bffffffffffffffffffffffffffffffffffffffffffffffffffffffff1916148061084257506380ac58cd60e01b827bffffffffffffffffffffffffffffffffffffffffffffffffffffffff1916145b806108725750635b5e139f60e01b827bffffffffffffffffffffffffffffffffffffffffffffffffffffffff1916145b9050919050565b60606003805461088890613eb1565b80601f01602080910402602001604051908101604052809291908181526020018280546108b490613eb1565b80156109015780601f106108d657610100808354040283529160200191610901565b820191906000526020600020905b8154815290600101906020018083116108e457829003601f168201915b5050505050905090565b6000610916826125c8565b61094c576040517fcf4700e400000000000000000000000000000000000000000000000000000000815260040160405180910390fd5b6007600083815260200190815260200160002060000160009054906101000a900473ffffffffffffffffffffffffffffffffffffffff169050919050565b600061099582610f7a565b90508073ffffffffffffffffffffffffffffffffffffffff166109b6612627565b73ffffffffffffffffffffffffffffffffffffffff1614610a19576109e2816109dd612627565b611ffb565b610a18576040517fcfb3b94200000000000000000000000000000000000000000000000000000000815260040160405180910390fd5b5b826007600084815260200190815260200160002060000160006101000a81548173ffffffffffffffffffffffffffffffffffffffff021916908373ffffffffffffffffffffffffffffffffffffffff160217905550818373ffffffffffffffffffffffffffffffffffffffff168273ffffffffffffffffffffffffffffffffffffffff167f8c5be1e5ebec7d5bd14f71427d1e84f3dd0314c0f7b2291e5b200ac8c7c3b92560405160405180910390a4505050565b600063150b7a0260e01b905095945050505050565b6000600960009054906101000a900473ffffffffffffffffffffffffffffffffffffffff1673ffffffffffffffffffffffffffffffffffffffff166318160ddd6040518163ffffffff1660e01b815260040160206040518083038186803b158015610b4d57600080fd5b505afa158015610b61573d6000803e3d6000fd5b505050506040513d601f19601f82011682018060405250810190610b859190613ef8565b905090565b610b9261262f565b85600c8190555084600d819055508383600a9190610bb192919061305b565b508181600b9190610bc392919061305b565b50505050505050565b6000610bd7826126ad565b90508373ffffffffffffffffffffffffffffffffffffffff168173ffffffffffffffffffffffffffffffffffffffff1614610c3e576040517fa114810000000000000000000000000000000000000000000000000000000000815260040160405180910390fd5b600080610c4a8461277b565b91509150610c608187610c5b612627565b6127a2565b610cac57610c7586610c70612627565b611ffb565b610cab576040517f59c896be00000000000000000000000000000000000000000000000000000000815260040160405180910390fd5b5b600073ffffffffffffffffffffffffffffffffffffffff168573ffffffffffffffffffffffffffffffffffffffff161415610d13576040517fea553b3400000000000000000000000000000000000000000000000000000000815260040160405180910390fd5b610d2086868660016127e6565b8015610d2b57600082555b600660008773ffffffffffffffffffffffffffffffffffffffff1673ffffffffffffffffffffffffffffffffffffffff168152602001908152602001600020600081546001900391905081905550600660008673ffffffffffffffffffffffffffffffffffffffff1673ffffffffffffffffffffffffffffffffffffffff1681526020019081526020016000206000815460010191905081905550610df985610dd58888876127ec565b7c020000000000000000000000000000000000000000000000000000000017612814565b600560008681526020019081526020016000208190555060007c020000000000000000000000000000000000000000000000000000000084161415610e81576000600185019050600060056000838152602001908152602001600020541415610e7f576001548114610e7e578360056000838152602001908152602001600020819055505b5b505b838573ffffffffffffffffffffffffffffffffffffffff168773ffffffffffffffffffffffffffffffffffffffff167fddf252ad1be2c89b69c2b068fc378daa952ba7f163c4a11628f55a4df523b3ef60405160405180910390a4610ee9868686600161283f565b505050505050565b6000600f6000838152602001908152602001600020549050919050565b610f29838383604051806020016040528060008152506118bd565b505050565b610f3661262f565b80600960006101000a81548173ffffffffffffffffffffffffffffffffffffffff021916908373ffffffffffffffffffffffffffffffffffffffff16021790555050565b600080600f6000848152602001908152602001600020549050600081141561104f57600960009054906101000a900473ffffffffffffffffffffffffffffffffffffffff1673ffffffffffffffffffffffffffffffffffffffff16636352211e846040518263ffffffff1660e01b8152600401610ff7919061359b565b60206040518083038186803b15801561100f57600080fd5b505afa158015611023573d6000803e3d6000fd5b505050506040513d601f19601f820116820180604052508101906110479190613f3a565b915050611090565b6000600e600083815260200190815260200160002060010160009054906101000a900473ffffffffffffffffffffffffffffffffffffffff16905080925050505b919050565b60008073ffffffffffffffffffffffffffffffffffffffff168273ffffffffffffffffffffffffffffffffffffffff1614156110fd576040517f8f4eb60400000000000000000000000000000000000000000000000000000000815260040160405180910390fd5b67ffffffffffffffff600660008473ffffffffffffffffffffffffffffffffffffffff1673ffffffffffffffffffffffffffffffffffffffff16815260200190815260200160002054169050919050565b61115661262f565b6111606000612845565b565b61116a6130e1565b6000806000806000600960009054906101000a900473ffffffffffffffffffffffffffffffffffffffff1673ffffffffffffffffffffffffffffffffffffffff16637fff1e2f886040518263ffffffff1660e01b81526004016111cd919061359b565b60006040518083038186803b1580156111e557600080fd5b505afa1580156111f9573d6000803e3d6000fd5b505050506040513d6000823e3d601f19601f820116820180604052508101906112229190614060565b945094509450945094506000600960009054906101000a900473ffffffffffffffffffffffffffffffffffffffff1673ffffffffffffffffffffffffffffffffffffffff16636352211e896040518263ffffffff1660e01b8152600401611289919061359b565b60206040518083038186803b1580156112a157600080fd5b505afa1580156112b5573d6000803e3d6000fd5b505050506040513d601f19601f820116820180604052508101906112d99190613f3a565b905060006040518060e001604052808a8152602001888152602001878152602001868152602001856fffffffffffffffffffffffffffffffff168152602001846fffffffffffffffffffffffffffffffff1681526020018373ffffffffffffffffffffffffffffffffffffffff16815250905080975050505050505050919050565b60606000600960009054906101000a900473ffffffffffffffffffffffffffffffffffffffff1673ffffffffffffffffffffffffffffffffffffffff16638462151c866040518263ffffffff1660e01b81526004016113ba91906133ee565b60006040518083038186803b1580156113d257600080fd5b505afa1580156113e6573d6000803e3d6000fd5b505050506040513d6000823e3d601f19601f8201168201806040525081019061140f91906141ba565b90506000815190508085111561142457600094505b600084148061143d5750848161143a9190614232565b84115b1561145d57846001826114509190614232565b61145a9190614232565b93505b600060018561146c9190614266565b67ffffffffffffffff81111561148557611484613b21565b5b6040519080825280602002602001820160405280156114be57816020015b6114ab6130e1565b8152602001906001900390816114a35790505b50905060008214156114d55780935050505061155c565b6000806114e06130e1565b600092505b878310156115525785838a6114fa9190614266565b8151811061150b5761150a6142bc565b5b6020026020010151915061151e82611162565b905080848481518110611534576115336142bc565b5b6020026020010181905250828061154a906142eb565b9350506114e5565b8396505050505050505b9392505050565b60008060009054906101000a900473ffffffffffffffffffffffffffffffffffffffff16905090565b60606004805461159b90613eb1565b80601f01602080910402602001604051908101604052809291908181526020018280546115c790613eb1565b80156116145780601f106115e957610100808354040283529160200191611614565b820191906000526020600020905b8154815290600101906020018083116115f757829003601f168201915b5050505050905090565b6060600061162a610ae3565b9050600084148061163a57508084115b1561164457600193505b600083148061165d5750838161165a9190614232565b83115b1561167157838161166e9190614232565b92505b60008367ffffffffffffffff81111561168d5761168c613b21565b5b6040519080825280602002602001820160405280156116c657816020015b6116b36130e1565b8152602001906001900390816116ab5790505b50905060008214156116dc57809250505061173f565b60005b8481101561173857600081876116f59190614266565b9050600061170282611162565b905080848481518110611718576117176142bc565b5b602002602001018190525050508080611730906142eb565b9150506116df565b8193505050505b92915050565b61174d612627565b73ffffffffffffffffffffffffffffffffffffffff168273ffffffffffffffffffffffffffffffffffffffff1614156117b2576040517fb06307db00000000000000000000000000000000000000000000000000000000815260040160405180910390fd5b80600860006117bf612627565b73ffffffffffffffffffffffffffffffffffffffff1673ffffffffffffffffffffffffffffffffffffffff16815260200190815260200160002060008473ffffffffffffffffffffffffffffffffffffffff1673ffffffffffffffffffffffffffffffffffffffff16815260200190815260200160002060006101000a81548160ff0219169083151502179055508173ffffffffffffffffffffffffffffffffffffffff1661186c612627565b73ffffffffffffffffffffffffffffffffffffffff167f17307eab39ab6107e8899845ad3d59bd9653f200f220920489ca2b5937696c31836040516118b19190613274565b60405180910390a35050565b6118c8848484610bcc565b60008373ffffffffffffffffffffffffffffffffffffffff163b1461192a576118f384848484612909565b611929576040517fd1a57ed600000000000000000000000000000000000000000000000000000000815260040160405180910390fd5b5b50505050565b6060600d548211806119425750600082145b15611979576040517fa14c4b5000000000000000000000000000000000000000000000000000000000815260040160405180910390fd5b6000611983612a69565b90506000815114156119a457604051806020016040528060008152506119cf565b806119ae84612afb565b6040516020016119bf929190614370565b6040516020818303038152906040525b915050919050565b6119df61262f565b60003373ffffffffffffffffffffffffffffffffffffffff1647604051611a05906143c5565b60006040518083038185875af1925050503d8060008114611a42576040519150601f19603f3d011682016040523d82523d6000602084013e611a47565b606091505b5050905080611a8b576040517f08c379a0000000000000000000000000000000000000000000000000000000008152600401611a8290614426565b60405180910390fd5b50565b6000600960009054906101000a900473ffffffffffffffffffffffffffffffffffffffff1673ffffffffffffffffffffffffffffffffffffffff16636352211e836040518263ffffffff1660e01b8152600401611aeb919061359b565b60206040518083038186803b158015611b0357600080fd5b505afa158015611b17573d6000803e3d6000fd5b505050506040513d601f19601f82011682018060405250810190611b3b9190613f3a565b9050919050565b6000600f60008381526020019081526020016000205490506000811415611b95576040517feb7d192800000000000000000000000000000000000000000000000000000000815260040160405180910390fd5b60003390508073ffffffffffffffffffffffffffffffffffffffff16600e600084815260200190815260200160002060010160009054906101000a900473ffffffffffffffffffffffffffffffffffffffff1673ffffffffffffffffffffffffffffffffffffffff1614611c35576040517ff637a3e300000000000000000000000000000000000000000000000000000000815260040160405180910390fd5b600f600084815260200190815260200160002060009055600e60008381526020019081526020016000206000808201600090556001820160006101000a81549073ffffffffffffffffffffffffffffffffffffffff0219169055505060005b601060008373ffffffffffffffffffffffffffffffffffffffff1673ffffffffffffffffffffffffffffffffffffffff16815260200190815260200160002080549050811015611db45783601060008473ffffffffffffffffffffffffffffffffffffffff1673ffffffffffffffffffffffffffffffffffffffff1681526020019081526020016000208281548110611d3057611d2f6142bc565b5b90600052602060002001541415611da157601060008373ffffffffffffffffffffffffffffffffffffffff1673ffffffffffffffffffffffffffffffffffffffff1681526020019081526020016000208181548110611d9257611d916142bc565b5b90600052602060002001600090555b8080611dac906142eb565b915050611c94565b506000611dc084610f7a565b9050611dcb83612b4b565b3073ffffffffffffffffffffffffffffffffffffffff168173ffffffffffffffffffffffffffffffffffffffff161415611e9157600960009054906101000a900473ffffffffffffffffffffffffffffffffffffffff1673ffffffffffffffffffffffffffffffffffffffff166342842e0e3084876040518463ffffffff1660e01b8152600401611e5e93929190614446565b600060405180830381600087803b158015611e7857600080fd5b505af1158015611e8c573d6000803e3d6000fd5b505050505b7f175e3dad2e6c10f120d3216de54ebe7abeee5b7f33c8941af43e73a0315e4a80838584604051611ec49392919061447d565b60405180910390a150505050565b600960009054906101000a900473ffffffffffffffffffffffffffffffffffffffff1673ffffffffffffffffffffffffffffffffffffffff1663dfb31a7c348585856040518563ffffffff1660e01b8152600401611f32939291906144e1565b6000604051808303818588803b158015611f4b57600080fd5b505af1158015611f5f573d6000803e3d6000fd5b5050505050505050565b6060600b8054611f7890613eb1565b80601f0160208091040260200160405190810160405280929190818152602001828054611fa490613eb1565b8015611ff15780601f10611fc657610100808354040283529160200191611ff1565b820191906000526020600020905b815481529060010190602001808311611fd457829003601f168201915b5050505050905090565b6000600860008473ffffffffffffffffffffffffffffffffffffffff1673ffffffffffffffffffffffffffffffffffffffff16815260200190815260200160002060008373ffffffffffffffffffffffffffffffffffffffff1673ffffffffffffffffffffffffffffffffffffffff16815260200190815260200160002060009054906101000a900460ff16905092915050565b6000600f6000838152602001908152602001600020549050600d54821180156120b85750600081145b156120ef576040517f53bb24f900000000000000000000000000000000000000000000000000000000815260040160405180910390fd5b6000339050600960009054906101000a900473ffffffffffffffffffffffffffffffffffffffff1673ffffffffffffffffffffffffffffffffffffffff166342842e0e8230866040518463ffffffff1660e01b815260040161215393929190614446565b600060405180830381600087803b15801561216d57600080fd5b505af1158015612181573d6000803e3d6000fd5b50505050600960009054906101000a900473ffffffffffffffffffffffffffffffffffffffff1673ffffffffffffffffffffffffffffffffffffffff16633d4cfe2184600c546040518363ffffffff1660e01b81526004016121e4929190614513565b600060405180830381600087803b1580156121fe57600080fd5b505af1158015612212573d6000803e3d6000fd5b50505050600082141561222a57612227612b59565b91505b60405180604001604052808481526020018273ffffffffffffffffffffffffffffffffffffffff16815250600e60008481526020019081526020016000206000820151816000015560208201518160010160006101000a81548173ffffffffffffffffffffffffffffffffffffffff021916908373ffffffffffffffffffffffffffffffffffffffff16021790555090505081600f600085815260200190815260200160002081905550601060008273ffffffffffffffffffffffffffffffffffffffff1673ffffffffffffffffffffffffffffffffffffffff168152602001908152602001600020829080600181540180825580915050600190039060005260206000200160009091909190915055612345816001612b63565b7ff90572efd1ab4fb9c6b9dabfd24d103ce15482a9ec0c50e0e32618708783b15b8284836040516123789392919061447d565b60405180910390a1505050565b61238d61315e565b61239561262f565b60006040518060a00160405280600960009054906101000a900473ffffffffffffffffffffffffffffffffffffffff1673ffffffffffffffffffffffffffffffffffffffff168152602001600a80546123ed90613eb1565b80601f016020809104026020016040519081016040528092919081815260200182805461241990613eb1565b80156124665780601f1061243b57610100808354040283529160200191612466565b820191906000526020600020905b81548152906001019060200180831161244957829003601f168201915b50505050508152602001600b805461247d90613eb1565b80601f01602080910402602001604051908101604052809291908181526020018280546124a990613eb1565b80156124f65780601f106124cb576101008083540402835291602001916124f6565b820191906000526020600020905b8154815290600101906020018083116124d957829003601f168201915b50505050508152602001600c548152602001600d5481525090508091505090565b60007ff0b9e5baf647f945565b0ac04522b519449041bdd44f952626b9ead9ff3692419050949350505050565b61254c61262f565b600073ffffffffffffffffffffffffffffffffffffffff168173ffffffffffffffffffffffffffffffffffffffff1614156125bc576040517f08c379a00000000000000000000000000000000000000000000000000000000081526004016125b3906145ae565b60405180910390fd5b6125c581612845565b50565b6000816125d3612b81565b111580156125e2575060015482105b8015612620575060007c0100000000000000000000000000000000000000000000000000000000600560008581526020019081526020016000205416145b9050919050565b600033905090565b612637612b8a565b73ffffffffffffffffffffffffffffffffffffffff16612655611563565b73ffffffffffffffffffffffffffffffffffffffff16146126ab576040517f08c379a00000000000000000000000000000000000000000000000000000000081526004016126a29061461a565b60405180910390fd5b565b600080829050806126bc612b81565b11612744576001548110156127435760006005600083815260200190815260200160002054905060007c010000000000000000000000000000000000000000000000000000000082161415612741575b600081141561273757600560008360019003935083815260200190815260200160002054905061270c565b8092505050612776565b505b5b6040517fdf2d9b4200000000000000000000000000000000000000000000000000000000815260040160405180910390fd5b919050565b60008060006007600085815260200190815260200160002090508092508254915050915091565b600073ffffffffffffffffffffffffffffffffffffffff8316925073ffffffffffffffffffffffffffffffffffffffff821691508382148383141790509392505050565b50505050565b60008060e883901c905060e8612803868684612b92565b62ffffff16901b9150509392505050565b600073ffffffffffffffffffffffffffffffffffffffff83169250814260a01b178317905092915050565b50505050565b60008060009054906101000a900473ffffffffffffffffffffffffffffffffffffffff169050816000806101000a81548173ffffffffffffffffffffffffffffffffffffffff021916908373ffffffffffffffffffffffffffffffffffffffff1602179055508173ffffffffffffffffffffffffffffffffffffffff168173ffffffffffffffffffffffffffffffffffffffff167f8be0079c531659141344cd1fd0a4f28419497f9722a3daafe3b4186f6b6457e060405160405180910390a35050565b60008373ffffffffffffffffffffffffffffffffffffffff1663150b7a0261292f612627565b8786866040518563ffffffff1660e01b8152600401612951949392919061468f565b602060405180830381600087803b15801561296b57600080fd5b505af192505050801561299c57506040513d601f19601f8201168201806040525081019061299991906146f0565b60015b612a16573d80600081146129cc576040519150601f19603f3d011682016040523d82523d6000602084013e6129d1565b606091505b50600081511415612a0e576040517fd1a57ed600000000000000000000000000000000000000000000000000000000815260040160405180910390fd5b805181602001fd5b63150b7a0260e01b7bffffffffffffffffffffffffffffffffffffffffffffffffffffffff1916817bffffffffffffffffffffffffffffffffffffffffffffffffffffffff191614915050949350505050565b6060600a8054612a7890613eb1565b80601f0160208091040260200160405190810160405280929190818152602001828054612aa490613eb1565b8015612af15780601f10612ac657610100808354040283529160200191612af1565b820191906000526020600020905b815481529060010190602001808311612ad457829003601f168201915b5050505050905090565b606060806040510190508060405280825b600115612b3757600183039250600a81066030018353600a8104905080612b3257612b37565b612b0c565b508181036020830392508083525050919050565b612b56816000612b9b565b50565b6000600154905090565b612b7d828260405180602001604052806000815250612def565b5050565b60006001905090565b600033905090565b60009392505050565b6000612ba6836126ad565b90506000819050600080612bb98661277b565b915091508415612c2257612bd58184612bd0612627565b6127a2565b612c2157612bea83612be5612627565b611ffb565b612c20576040517f59c896be00000000000000000000000000000000000000000000000000000000815260040160405180910390fd5b5b5b612c308360008860016127e6565b8015612c3b57600082555b600160806001901b03600660008573ffffffffffffffffffffffffffffffffffffffff1673ffffffffffffffffffffffffffffffffffffffff16815260200190815260200160002060008282540192505081905550612ce383612ca0856000886127ec565b7c02000000000000000000000000000000000000000000000000000000007c01000000000000000000000000000000000000000000000000000000001717612814565b600560008881526020019081526020016000208190555060007c020000000000000000000000000000000000000000000000000000000085161415612d6b576000600187019050600060056000838152602001908152602001600020541415612d69576001548114612d68578460056000838152602001908152602001600020819055505b5b505b85600073ffffffffffffffffffffffffffffffffffffffff168473ffffffffffffffffffffffffffffffffffffffff167fddf252ad1be2c89b69c2b068fc378daa952ba7f163c4a11628f55a4df523b3ef60405160405180910390a4612dd583600088600161283f565b600260008154809291906001019190505550505050505050565b612df98383612e8d565b60008373ffffffffffffffffffffffffffffffffffffffff163b14612e885760006001549050600083820390505b612e3a6000868380600101945086612909565b612e70576040517fd1a57ed600000000000000000000000000000000000000000000000000000000815260040160405180910390fd5b818110612e27578160015414612e8557600080fd5b50505b505050565b600060015490506000821415612ecf576040517fb562e8dd00000000000000000000000000000000000000000000000000000000815260040160405180910390fd5b612edc60008483856127e6565b600160406001901b178202600660008573ffffffffffffffffffffffffffffffffffffffff1673ffffffffffffffffffffffffffffffffffffffff16815260200190815260200160002060008282540192505081905550612f5383612f4460008660006127ec565b612f4d8561304b565b17612814565b6005600083815260200190815260200160002081905550600080838301905073ffffffffffffffffffffffffffffffffffffffff85169150828260007fddf252ad1be2c89b69c2b068fc378daa952ba7f163c4a11628f55a4df523b3ef600080a4600183015b818114612ff457808360007fddf252ad1be2c89b69c2b068fc378daa952ba7f163c4a11628f55a4df523b3ef600080a4600181019050612fb9565b506000821415613030576040517f2e07630000000000000000000000000000000000000000000000000000000000815260040160405180910390fd5b806001819055505050613046600084838561283f565b505050565b60006001821460e11b9050919050565b82805461306790613eb1565b90600052602060002090601f01602090048101928261308957600085556130d0565b82601f106130a257803560ff19168380011785556130d0565b828001600101855582156130d0579182015b828111156130cf5782358255916020019190600101906130b4565b5b5090506130dd91906131a3565b5090565b6040518060e001604052806000815260200160608152602001600080191681526020016000801916815260200160006fffffffffffffffffffffffffffffffff16815260200160006fffffffffffffffffffffffffffffffff168152602001600073ffffffffffffffffffffffffffffffffffffffff1681525090565b6040518060a00160405280600073ffffffffffffffffffffffffffffffffffffffff168152602001606081526020016060815260200160008152602001600081525090565b5b808211156131bc5760008160009055506001016131a4565b5090565b6000604051905090565b600080fd5b600080fd5b60007fffffffff0000000000000000000000000000000000000000000000000000000082169050919050565b613209816131d4565b811461321457600080fd5b50565b60008135905061322681613200565b92915050565b600060208284031215613242576132416131ca565b5b600061325084828501613217565b91505092915050565b60008115159050919050565b61326e81613259565b82525050565b60006020820190506132896000830184613265565b92915050565b600081519050919050565b600082825260208201905092915050565b60005b838110156132c95780820151818401526020810190506132ae565b838111156132d8576000848401525b50505050565b6000601f19601f8301169050919050565b60006132fa8261328f565b613304818561329a565b93506133148185602086016132ab565b61331d816132de565b840191505092915050565b6000602082019050818103600083015261334281846132ef565b905092915050565b6000819050919050565b61335d8161334a565b811461336857600080fd5b50565b60008135905061337a81613354565b92915050565b600060208284031215613396576133956131ca565b5b60006133a48482850161336b565b91505092915050565b600073ffffffffffffffffffffffffffffffffffffffff82169050919050565b60006133d8826133ad565b9050919050565b6133e8816133cd565b82525050565b600060208201905061340360008301846133df565b92915050565b613412816133cd565b811461341d57600080fd5b50565b60008135905061342f81613409565b92915050565b6000806040838503121561344c5761344b6131ca565b5b600061345a85828601613420565b925050602061346b8582860161336b565b9150509250929050565b600080fd5b600080fd5b600080fd5b60008083601f84011261349a57613499613475565b5b8235905067ffffffffffffffff8111156134b7576134b661347a565b5b6020830191508360018202830111156134d3576134d261347f565b5b9250929050565b6000806000806000608086880312156134f6576134f56131ca565b5b600061350488828901613420565b955050602061351588828901613420565b94505060406135268882890161336b565b935050606086013567ffffffffffffffff811115613547576135466131cf565b5b61355388828901613484565b92509250509295509295909350565b61356b816131d4565b82525050565b60006020820190506135866000830184613562565b92915050565b6135958161334a565b82525050565b60006020820190506135b0600083018461358c565b92915050565b60008083601f8401126135cc576135cb613475565b5b8235905067ffffffffffffffff8111156135e9576135e861347a565b5b6020830191508360018202830111156136055761360461347f565b5b9250929050565b60008060008060008060808789031215613629576136286131ca565b5b600061363789828a0161336b565b965050602061364889828a0161336b565b955050604087013567ffffffffffffffff811115613669576136686131cf565b5b61367589828a016135b6565b9450945050606087013567ffffffffffffffff811115613698576136976131cf565b5b6136a489828a016135b6565b92509250509295509295509295565b6000806000606084860312156136cc576136cb6131ca565b5b60006136da86828701613420565b93505060206136eb86828701613420565b92505060406136fc8682870161336b565b9150509250925092565b60006020828403121561371c5761371b6131ca565b5b600061372a84828501613420565b91505092915050565b61373c8161334a565b82525050565b600082825260208201905092915050565b600061375e8261328f565b6137688185613742565b93506137788185602086016132ab565b613781816132de565b840191505092915050565b6000819050919050565b61379f8161378c565b82525050565b60006fffffffffffffffffffffffffffffffff82169050919050565b6137ca816137a5565b82525050565b6137d9816133cd565b82525050565b600060e0830160008301516137f76000860182613733565b506020830151848203602086015261380f8282613753565b91505060408301516138246040860182613796565b5060608301516138376060860182613796565b50608083015161384a60808601826137c1565b5060a083015161385d60a08601826137c1565b5060c083015161387060c08601826137d0565b508091505092915050565b6000602082019050818103600083015261389581846137df565b905092915050565b6000806000606084860312156138b6576138b56131ca565b5b60006138c486828701613420565b93505060206138d58682870161336b565b92505060406138e68682870161336b565b9150509250925092565b600081519050919050565b600082825260208201905092915050565b6000819050602082019050919050565b600060e0830160008301516139346000860182613733565b506020830151848203602086015261394c8282613753565b91505060408301516139616040860182613796565b5060608301516139746060860182613796565b50608083015161398760808601826137c1565b5060a083015161399a60a08601826137c1565b5060c08301516139ad60c08601826137d0565b508091505092915050565b60006139c4838361391c565b905092915050565b6000602082019050919050565b60006139e4826138f0565b6139ee81856138fb565b935083602082028501613a008561390c565b8060005b85811015613a3c5784840389528151613a1d85826139b8565b9450613a28836139cc565b925060208a01995050600181019050613a04565b50829750879550505050505092915050565b60006020820190508181036000830152613a6881846139d9565b905092915050565b60008060408385031215613a8757613a866131ca565b5b6000613a958582860161336b565b9250506020613aa68582860161336b565b9150509250929050565b613ab981613259565b8114613ac457600080fd5b50565b600081359050613ad681613ab0565b92915050565b60008060408385031215613af357613af26131ca565b5b6000613b0185828601613420565b9250506020613b1285828601613ac7565b9150509250929050565b600080fd5b7f4e487b7100000000000000000000000000000000000000000000000000000000600052604160045260246000fd5b613b59826132de565b810181811067ffffffffffffffff82111715613b7857613b77613b21565b5b80604052505050565b6000613b8b6131c0565b9050613b978282613b50565b919050565b600067ffffffffffffffff821115613bb757613bb6613b21565b5b613bc0826132de565b9050602081019050919050565b82818337600083830152505050565b6000613bef613bea84613b9c565b613b81565b905082815260208101848484011115613c0b57613c0a613b1c565b5b613c16848285613bcd565b509392505050565b600082601f830112613c3357613c32613475565b5b8135613c43848260208601613bdc565b91505092915050565b60008060008060808587031215613c6657613c656131ca565b5b6000613c7487828801613420565b9450506020613c8587828801613420565b9350506040613c968782880161336b565b925050606085013567ffffffffffffffff811115613cb757613cb66131cf565b5b613cc387828801613c1e565b91505092959194509250565b600080600060408486031215613ce857613ce76131ca565b5b6000613cf68682870161336b565b935050602084013567ffffffffffffffff811115613d1757613d166131cf565b5b613d23868287016135b6565b92509250509250925092565b60008060408385031215613d4657613d456131ca565b5b6000613d5485828601613420565b9250506020613d6585828601613420565b9150509250929050565b600060a083016000830151613d8760008601826137d0565b5060208301518482036020860152613d9f8282613753565b91505060408301518482036040860152613db98282613753565b9150506060830151613dce6060860182613733565b506080830151613de16080860182613733565b508091505092915050565b60006020820190508181036000830152613e068184613d6f565b905092915050565b60008060008060608587031215613e2857613e276131ca565b5b6000613e3687828801613420565b9450506020613e478782880161336b565b935050604085013567ffffffffffffffff811115613e6857613e676131cf565b5b613e7487828801613484565b925092505092959194509250565b7f4e487b7100000000000000000000000000000000000000000000000000000000600052602260045260246000fd5b60006002820490506001821680613ec957607f821691505b60208210811415613edd57613edc613e82565b5b50919050565b600081519050613ef281613354565b92915050565b600060208284031215613f0e57613f0d6131ca565b5b6000613f1c84828501613ee3565b91505092915050565b600081519050613f3481613409565b92915050565b600060208284031215613f5057613f4f6131ca565b5b6000613f5e84828501613f25565b91505092915050565b600067ffffffffffffffff821115613f8257613f81613b21565b5b613f8b826132de565b9050602081019050919050565b6000613fab613fa684613f67565b613b81565b905082815260208101848484011115613fc757613fc6613b1c565b5b613fd28482856132ab565b509392505050565b600082601f830112613fef57613fee613475565b5b8151613fff848260208601613f98565b91505092915050565b6140118161378c565b811461401c57600080fd5b50565b60008151905061402e81614008565b92915050565b61403d816137a5565b811461404857600080fd5b50565b60008151905061405a81614034565b92915050565b600080600080600060a0868803121561407c5761407b6131ca565b5b600086015167ffffffffffffffff81111561409a576140996131cf565b5b6140a688828901613fda565b95505060206140b78882890161401f565b94505060406140c88882890161401f565b93505060606140d98882890161404b565b92505060806140ea8882890161404b565b9150509295509295909350565b600067ffffffffffffffff82111561411257614111613b21565b5b602082029050602081019050919050565b6000614136614131846140f7565b613b81565b905080838252602082019050602084028301858111156141595761415861347f565b5b835b81811015614182578061416e8882613ee3565b84526020840193505060208101905061415b565b5050509392505050565b600082601f8301126141a1576141a0613475565b5b81516141b1848260208601614123565b91505092915050565b6000602082840312156141d0576141cf6131ca565b5b600082015167ffffffffffffffff8111156141ee576141ed6131cf565b5b6141fa8482850161418c565b91505092915050565b7f4e487b7100000000000000000000000000000000000000000000000000000000600052601160045260246000fd5b600061423d8261334a565b91506142488361334a565b92508282101561425b5761425a614203565b5b828203905092915050565b60006142718261334a565b915061427c8361334a565b9250827fffffffffffffffffffffffffffffffffffffffffffffffffffffffffffffffff038211156142b1576142b0614203565b5b828201905092915050565b7f4e487b7100000000000000000000000000000000000000000000000000000000600052603260045260246000fd5b60006142f68261334a565b91507fffffffffffffffffffffffffffffffffffffffffffffffffffffffffffffffff82141561432957614328614203565b5b600182019050919050565b600081905092915050565b600061434a8261328f565b6143548185614334565b93506143648185602086016132ab565b80840191505092915050565b600061437c828561433f565b9150614388828461433f565b91508190509392505050565b600081905092915050565b50565b60006143af600083614394565b91506143ba8261439f565b600082019050919050565b60006143d0826143a2565b9150819050919050565b7f5641554c545f5452414e534645525f4641494c45440000000000000000000000600082015250565b600061441060158361329a565b915061441b826143da565b602082019050919050565b6000602082019050818103600083015261443f81614403565b9050919050565b600060608201905061445b60008301866133df565b61446860208301856133df565b614475604083018461358c565b949350505050565b6000606082019050614492600083018661358c565b61449f602083018561358c565b6144ac60408301846133df565b949350505050565b60006144c0838561329a565b93506144cd838584613bcd565b6144d6836132de565b840190509392505050565b60006040820190506144f6600083018661358c565b81810360208301526145098184866144b4565b9050949350505050565b6000604082019050614528600083018561358c565b614535602083018461358c565b9392505050565b7f4f776e61626c653a206e6577206f776e657220697320746865207a65726f206160008201527f6464726573730000000000000000000000000000000000000000000000000000602082015250565b600061459860268361329a565b91506145a38261453c565b604082019050919050565b600060208201905081810360008301526145c78161458b565b9050919050565b7f4f776e61626c653a2063616c6c6572206973206e6f7420746865206f776e6572600082015250565b600061460460208361329a565b915061460f826145ce565b602082019050919050565b60006020820190508181036000830152614633816145f7565b9050919050565b600081519050919050565b600082825260208201905092915050565b60006146618261463a565b61466b8185614645565b935061467b8185602086016132ab565b614684816132de565b840191505092915050565b60006080820190506146a460008301876133df565b6146b160208301866133df565b6146be604083018561358c565b81810360608301526146d08184614656565b905095945050505050565b6000815190506146ea81613200565b92915050565b600060208284031215614706576147056131ca565b5b6000614714848285016146db565b9150509291505056fea264697066735822122061fe6a9adee1353dfb7ea5f10401fb7be0cf34563f97e33ff85da649de91bc2764736f6c63430008090033",
  "linkReferences": {},
  "deployedLinkReferences": {}
}