{
  "_format": "hh-sol-artifact-1",
  "contractName": "IPCWrapper",
  "sourceName": "contracts/IPCWrapper.sol",
  "abi": [
    {
      "inputs": [],
      "stateMutability": "nonpayable",
      "type": "constructor"
    },
    {
      "inputs": [],
      "name": "ApprovalCallerNotOwnerNorApproved",
      "type": "error"
    },
    {
      "inputs": [],
      "name": "ApprovalQueryForNonexistentToken",
      "type": "error"
    },
    {
      "inputs": [],
      "name": "ApproveToCaller",
      "type": "error"
    },
    {
      "inputs": [],
      "name": "BalanceQueryForZeroAddress",
      "type": "error"
    },
    {
      "inputs": [],
      "name": "MintERC2309QuantityExceedsLimit",
      "type": "error"
    },
    {
      "inputs": [],
      "name": "MintToZeroAddress",
      "type": "error"
    },
    {
      "inputs": [],
      "name": "MintZeroQuantity",
      "type": "error"
    },
    {
      "inputs": [],
      "name": "OwnerQueryForNonexistentToken",
      "type": "error"
    },
    {
      "inputs": [],
      "name": "OwnershipNotInitializedForExtraData",
      "type": "error"
    },
    {
      "inputs": [],
      "name": "TransferCallerNotOwnerNorApproved",
      "type": "error"
    },
    {
      "inputs": [],
      "name": "TransferFromIncorrectOwner",
      "type": "error"
    },
    {
      "inputs": [],
      "name": "TransferToNonERC721ReceiverImplementer",
      "type": "error"
    },
    {
      "inputs": [],
      "name": "TransferToZeroAddress",
      "type": "error"
    },
    {
      "inputs": [],
      "name": "URIQueryForNonexistentToken",
      "type": "error"
    },
    {
      "anonymous": false,
      "inputs": [
        {
          "indexed": true,
          "internalType": "address",
          "name": "owner",
          "type": "address"
        },
        {
          "indexed": true,
          "internalType": "address",
          "name": "approved",
          "type": "address"
        },
        {
          "indexed": true,
          "internalType": "uint256",
          "name": "tokenId",
          "type": "uint256"
        }
      ],
      "name": "Approval",
      "type": "event"
    },
    {
      "anonymous": false,
      "inputs": [
        {
          "indexed": true,
          "internalType": "address",
          "name": "owner",
          "type": "address"
        },
        {
          "indexed": true,
          "internalType": "address",
          "name": "operator",
          "type": "address"
        },
        {
          "indexed": false,
          "internalType": "bool",
          "name": "approved",
          "type": "bool"
        }
      ],
      "name": "ApprovalForAll",
      "type": "event"
    },
    {
      "anonymous": false,
      "inputs": [
        {
          "indexed": true,
          "internalType": "uint256",
          "name": "fromTokenId",
          "type": "uint256"
        },
        {
          "indexed": false,
          "internalType": "uint256",
          "name": "toTokenId",
          "type": "uint256"
        },
        {
          "indexed": true,
          "internalType": "address",
          "name": "from",
          "type": "address"
        },
        {
          "indexed": true,
          "internalType": "address",
          "name": "to",
          "type": "address"
        }
      ],
      "name": "ConsecutiveTransfer",
      "type": "event"
    },
    {
      "anonymous": false,
      "inputs": [
        {
          "indexed": true,
          "internalType": "address",
          "name": "previousOwner",
          "type": "address"
        },
        {
          "indexed": true,
          "internalType": "address",
          "name": "newOwner",
          "type": "address"
        }
      ],
      "name": "OwnershipTransferred",
      "type": "event"
    },
    {
      "anonymous": false,
      "inputs": [
        {
          "indexed": true,
          "internalType": "address",
          "name": "from",
          "type": "address"
        },
        {
          "indexed": true,
          "internalType": "address",
          "name": "to",
          "type": "address"
        },
        {
          "indexed": true,
          "internalType": "uint256",
          "name": "tokenId",
          "type": "uint256"
        }
      ],
      "name": "Transfer",
      "type": "event"
    },
    {
      "anonymous": false,
      "inputs": [
        {
          "indexed": false,
          "internalType": "uint256",
          "name": "",
          "type": "uint256"
        },
        {
          "indexed": false,
          "internalType": "uint256",
          "name": "",
          "type": "uint256"
        },
        {
          "indexed": false,
          "internalType": "address",
          "name": "",
          "type": "address"
        }
      ],
      "name": "Unwrapped",
      "type": "event"
    },
    {
      "anonymous": false,
      "inputs": [
        {
          "indexed": false,
          "internalType": "uint256",
          "name": "",
          "type": "uint256"
        },
        {
          "indexed": false,
          "internalType": "uint256",
          "name": "",
          "type": "uint256"
        },
        {
          "indexed": false,
          "internalType": "address",
          "name": "",
          "type": "address"
        }
      ],
      "name": "Wrapped",
      "type": "event"
    },
    {
      "anonymous": false,
      "inputs": [
        {
          "indexed": false,
          "internalType": "uint256",
          "name": "",
          "type": "uint256"
        },
        {
          "indexed": false,
          "internalType": "string",
          "name": "",
          "type": "string"
        }
      ],
      "name": "nameChangeOK",
      "type": "event"
    },
    {
      "inputs": [
        {
          "internalType": "address",
          "name": "to",
          "type": "address"
        },
        {
          "internalType": "uint256",
          "name": "tokenId",
          "type": "uint256"
        }
      ],
      "name": "approve",
      "outputs": [],
      "stateMutability": "nonpayable",
      "type": "function"
    },
    {
      "inputs": [
        {
          "internalType": "address",
          "name": "owner",
          "type": "address"
        }
      ],
      "name": "balanceOf",
      "outputs": [
        {
          "internalType": "uint256",
          "name": "",
          "type": "uint256"
        }
      ],
      "stateMutability": "view",
      "type": "function"
    },
    {
      "inputs": [
        {
          "internalType": "uint256",
          "name": "tokenId",
          "type": "uint256"
        },
        {
          "internalType": "string",
          "name": "newName",
          "type": "string"
        }
      ],
      "name": "changeIpcName",
      "outputs": [],
      "stateMutability": "payable",
      "type": "function"
    },
    {
      "inputs": [],
      "name": "contractURI",
      "outputs": [
        {
          "internalType": "string",
          "name": "",
          "type": "string"
        }
      ],
      "stateMutability": "view",
      "type": "function"
    },
    {
      "inputs": [
        {
          "internalType": "uint256",
          "name": "tokenId",
          "type": "uint256"
        }
      ],
      "name": "getApproved",
      "outputs": [
        {
          "internalType": "address",
          "name": "",
          "type": "address"
        }
      ],
      "stateMutability": "view",
      "type": "function"
    },
    {
      "inputs": [],
      "name": "getDebugger",
      "outputs": [
        {
          "internalType": "uint256",
          "name": "d1",
          "type": "uint256"
        },
        {
          "internalType": "uint256",
          "name": "d2",
          "type": "uint256"
        },
        {
          "internalType": "uint256",
          "name": "d3",
          "type": "uint256"
        },
        {
          "internalType": "uint256",
          "name": "d4",
          "type": "uint256"
        },
        {
          "internalType": "address",
          "name": "a1",
          "type": "address"
        },
        {
          "internalType": "address",
          "name": "a2",
          "type": "address"
        },
        {
          "internalType": "string",
          "name": "buffer",
          "type": "string"
        }
      ],
      "stateMutability": "view",
      "type": "function"
    },
    {
      "inputs": [
        {
          "internalType": "uint256",
          "name": "tokenId",
          "type": "uint256"
        }
      ],
      "name": "getIpc",
      "outputs": [
        {
          "components": [
            {
              "internalType": "uint256",
              "name": "tokenId",
              "type": "uint256"
            },
            {
              "internalType": "string",
              "name": "name",
              "type": "string"
            },
            {
              "internalType": "bytes32",
              "name": "attributeSeed",
              "type": "bytes32"
            },
            {
              "internalType": "bytes32",
              "name": "dna",
              "type": "bytes32"
            },
            {
              "internalType": "uint128",
              "name": "experience",
              "type": "uint128"
            },
            {
              "internalType": "uint128",
              "name": "timeOfBirth",
              "type": "uint128"
            },
            {
              "internalType": "address",
              "name": "owner",
              "type": "address"
            }
          ],
          "internalType": "struct IPCWrapper.t_raw_ipc",
          "name": "",
          "type": "tuple"
        }
      ],
      "stateMutability": "view",
      "type": "function"
    },
    {
      "inputs": [],
      "name": "getProperties",
      "outputs": [
        {
          "components": [
            {
              "internalType": "address",
              "name": "contractAdress",
              "type": "address"
            },
            {
              "internalType": "string",
              "name": "tokenURI",
              "type": "string"
            },
            {
              "internalType": "string",
              "name": "contractURI",
              "type": "string"
            },
            {
              "internalType": "uint256",
              "name": "maxPrice",
              "type": "uint256"
            },
            {
              "internalType": "uint256",
              "name": "tokenLimit",
              "type": "uint256"
            }
          ],
          "internalType": "struct IPCWrapper.t_properties",
          "name": "",
          "type": "tuple"
        }
      ],
      "stateMutability": "view",
      "type": "function"
    },
    {
      "inputs": [
        {
          "internalType": "uint256",
          "name": "tokenId",
          "type": "uint256"
        }
      ],
      "name": "getTokenIndex",
      "outputs": [
        {
          "internalType": "uint256",
          "name": "",
          "type": "uint256"
        }
      ],
      "stateMutability": "view",
      "type": "function"
    },
    {
      "inputs": [
        {
          "internalType": "address",
          "name": "owner",
          "type": "address"
        },
        {
          "internalType": "uint256",
          "name": "startIndex",
          "type": "uint256"
        },
        {
          "internalType": "uint256",
          "name": "total",
          "type": "uint256"
        }
      ],
      "name": "getTokensOfOwner",
      "outputs": [
        {
          "components": [
            {
              "internalType": "uint256",
              "name": "tokenId",
              "type": "uint256"
            },
            {
              "internalType": "string",
              "name": "name",
              "type": "string"
            },
            {
              "internalType": "bytes32",
              "name": "attributeSeed",
              "type": "bytes32"
            },
            {
              "internalType": "bytes32",
              "name": "dna",
              "type": "bytes32"
            },
            {
              "internalType": "uint128",
              "name": "experience",
              "type": "uint128"
            },
            {
              "internalType": "uint128",
              "name": "timeOfBirth",
              "type": "uint128"
            },
            {
              "internalType": "address",
              "name": "owner",
              "type": "address"
            }
          ],
          "internalType": "struct IPCWrapper.t_raw_ipc[]",
          "name": "",
          "type": "tuple[]"
        }
      ],
      "stateMutability": "view",
      "type": "function"
    },
    {
      "inputs": [
        {
          "internalType": "address",
          "name": "owner",
          "type": "address"
        },
        {
          "internalType": "address",
          "name": "operator",
          "type": "address"
        }
      ],
      "name": "isApprovedForAll",
      "outputs": [
        {
          "internalType": "bool",
          "name": "",
          "type": "bool"
        }
      ],
      "stateMutability": "view",
      "type": "function"
    },
    {
      "inputs": [],
      "name": "name",
      "outputs": [
        {
          "internalType": "string",
          "name": "",
          "type": "string"
        }
      ],
      "stateMutability": "view",
      "type": "function"
    },
    {
      "inputs": [
        {
          "internalType": "address",
          "name": "",
          "type": "address"
        },
        {
          "internalType": "address",
          "name": "",
          "type": "address"
        },
        {
          "internalType": "uint256",
          "name": "",
          "type": "uint256"
        },
        {
          "internalType": "bytes",
          "name": "",
          "type": "bytes"
        }
      ],
      "name": "onERC721Received",
      "outputs": [
        {
          "internalType": "bytes4",
          "name": "",
          "type": "bytes4"
        }
      ],
      "stateMutability": "pure",
      "type": "function"
    },
    {
      "inputs": [
        {
          "internalType": "address",
          "name": "",
          "type": "address"
        },
        {
          "internalType": "uint256",
          "name": "",
          "type": "uint256"
        },
        {
          "internalType": "bytes",
          "name": "",
          "type": "bytes"
        }
      ],
      "name": "onERC721Received",
      "outputs": [
        {
          "internalType": "bytes4",
          "name": "",
          "type": "bytes4"
        }
      ],
      "stateMutability": "pure",
      "type": "function"
    },
    {
      "inputs": [],
      "name": "owner",
      "outputs": [
        {
          "internalType": "address",
          "name": "",
          "type": "address"
        }
      ],
      "stateMutability": "view",
      "type": "function"
    },
    {
      "inputs": [
        {
          "internalType": "uint256",
          "name": "tokenId",
          "type": "uint256"
        }
      ],
      "name": "ownerOf",
      "outputs": [
        {
          "internalType": "address",
          "name": "",
          "type": "address"
        }
      ],
      "stateMutability": "view",
      "type": "function"
    },
    {
      "inputs": [],
      "name": "renounceOwnership",
      "outputs": [],
      "stateMutability": "nonpayable",
      "type": "function"
    },
    {
      "inputs": [
        {
          "internalType": "address",
          "name": "from",
          "type": "address"
        },
        {
          "internalType": "address",
          "name": "to",
          "type": "address"
        },
        {
          "internalType": "uint256",
          "name": "tokenId",
          "type": "uint256"
        }
      ],
      "name": "safeTransferFrom",
      "outputs": [],
      "stateMutability": "nonpayable",
      "type": "function"
    },
    {
      "inputs": [
        {
          "internalType": "address",
          "name": "from",
          "type": "address"
        },
        {
          "internalType": "address",
          "name": "to",
          "type": "address"
        },
        {
          "internalType": "uint256",
          "name": "tokenId",
          "type": "uint256"
        },
        {
          "internalType": "bytes",
          "name": "_data",
          "type": "bytes"
        }
      ],
      "name": "safeTransferFrom",
      "outputs": [],
      "stateMutability": "nonpayable",
      "type": "function"
    },
    {
      "inputs": [
        {
          "internalType": "address",
          "name": "operator",
          "type": "address"
        },
        {
          "internalType": "bool",
          "name": "approved",
          "type": "bool"
        }
      ],
      "name": "setApprovalForAll",
      "outputs": [],
      "stateMutability": "nonpayable",
      "type": "function"
    },
    {
      "inputs": [
        {
          "internalType": "address",
          "name": "_contractAddress",
          "type": "address"
        }
      ],
      "name": "setContractAddress",
      "outputs": [],
      "stateMutability": "nonpayable",
      "type": "function"
    },
    {
      "inputs": [
        {
          "internalType": "uint256",
          "name": "_maxPrice",
          "type": "uint256"
        },
        {
          "internalType": "uint256",
          "name": "_tokenLimit",
          "type": "uint256"
        },
        {
          "internalType": "string",
          "name": "__tokenURI",
          "type": "string"
        },
        {
          "internalType": "string",
          "name": "__contractURI",
          "type": "string"
        }
      ],
      "name": "setProperties",
      "outputs": [],
      "stateMutability": "nonpayable",
      "type": "function"
    },
    {
      "inputs": [
        {
          "internalType": "bytes4",
          "name": "interfaceId",
          "type": "bytes4"
        }
      ],
      "name": "supportsInterface",
      "outputs": [
        {
          "internalType": "bool",
          "name": "",
          "type": "bool"
        }
      ],
      "stateMutability": "view",
      "type": "function"
    },
    {
      "inputs": [],
      "name": "symbol",
      "outputs": [
        {
          "internalType": "string",
          "name": "",
          "type": "string"
        }
      ],
      "stateMutability": "view",
      "type": "function"
    },
    {
      "inputs": [
        {
          "internalType": "uint256",
          "name": "tokenId",
          "type": "uint256"
        }
      ],
      "name": "tokenURI",
      "outputs": [
        {
          "internalType": "string",
          "name": "",
          "type": "string"
        }
      ],
      "stateMutability": "view",
      "type": "function"
    },
    {
      "inputs": [],
      "name": "totalSupply",
      "outputs": [
        {
          "internalType": "uint256",
          "name": "",
          "type": "uint256"
        }
      ],
      "stateMutability": "view",
      "type": "function"
    },
    {
      "inputs": [
        {
          "internalType": "address",
          "name": "from",
          "type": "address"
        },
        {
          "internalType": "address",
          "name": "to",
          "type": "address"
        },
        {
          "internalType": "uint256",
          "name": "tokenId",
          "type": "uint256"
        }
      ],
      "name": "transferFrom",
      "outputs": [],
      "stateMutability": "nonpayable",
      "type": "function"
    },
    {
      "inputs": [
        {
          "internalType": "address",
          "name": "newOwner",
          "type": "address"
        }
      ],
      "name": "transferOwnership",
      "outputs": [],
      "stateMutability": "nonpayable",
      "type": "function"
    },
    {
      "inputs": [
        {
          "internalType": "uint256",
          "name": "tokenId",
          "type": "uint256"
        }
      ],
      "name": "unwrap",
      "outputs": [],
      "stateMutability": "nonpayable",
      "type": "function"
    },
    {
      "inputs": [
        {
          "internalType": "address",
          "name": "owner",
          "type": "address"
        }
      ],
      "name": "uwBalanceOf",
      "outputs": [
        {
          "internalType": "uint256",
          "name": "",
          "type": "uint256"
        }
      ],
      "stateMutability": "view",
      "type": "function"
    },
    {
      "inputs": [
        {
          "internalType": "uint256",
          "name": "startIndex",
          "type": "uint256"
        },
        {
          "internalType": "uint256",
          "name": "total",
          "type": "uint256"
        }
      ],
      "name": "uwGetAllTokens",
      "outputs": [
        {
          "components": [
            {
              "internalType": "uint256",
              "name": "tokenId",
              "type": "uint256"
            },
            {
              "internalType": "string",
              "name": "name",
              "type": "string"
            },
            {
              "internalType": "bytes32",
              "name": "attributeSeed",
              "type": "bytes32"
            },
            {
              "internalType": "bytes32",
              "name": "dna",
              "type": "bytes32"
            },
            {
              "internalType": "uint128",
              "name": "experience",
              "type": "uint128"
            },
            {
              "internalType": "uint128",
              "name": "timeOfBirth",
              "type": "uint128"
            },
            {
              "internalType": "address",
              "name": "owner",
              "type": "address"
            }
          ],
          "internalType": "struct IPCWrapper.t_raw_ipc[]",
          "name": "",
          "type": "tuple[]"
        }
      ],
      "stateMutability": "view",
      "type": "function"
    },
    {
      "inputs": [
        {
          "internalType": "address",
          "name": "owner",
          "type": "address"
        },
        {
          "internalType": "uint256",
          "name": "startIndex",
          "type": "uint256"
        },
        {
          "internalType": "uint256",
          "name": "total",
          "type": "uint256"
        }
      ],
      "name": "uwGetTokensOfOwner",
      "outputs": [
        {
          "components": [
            {
              "internalType": "uint256",
              "name": "tokenId",
              "type": "uint256"
            },
            {
              "internalType": "string",
              "name": "name",
              "type": "string"
            },
            {
              "internalType": "bytes32",
              "name": "attributeSeed",
              "type": "bytes32"
            },
            {
              "internalType": "bytes32",
              "name": "dna",
              "type": "bytes32"
            },
            {
              "internalType": "uint128",
              "name": "experience",
              "type": "uint128"
            },
            {
              "internalType": "uint128",
              "name": "timeOfBirth",
              "type": "uint128"
            },
            {
              "internalType": "address",
              "name": "owner",
              "type": "address"
            }
          ],
          "internalType": "struct IPCWrapper.t_raw_ipc[]",
          "name": "",
          "type": "tuple[]"
        }
      ],
      "stateMutability": "view",
      "type": "function"
    },
    {
      "inputs": [
        {
          "internalType": "uint256",
          "name": "tokenId",
          "type": "uint256"
        }
      ],
      "name": "uwOwnerOf",
      "outputs": [
        {
          "internalType": "address",
          "name": "",
          "type": "address"
        }
      ],
      "stateMutability": "view",
      "type": "function"
    },
    {
      "inputs": [],
      "name": "withdrawalVault",
      "outputs": [],
      "stateMutability": "nonpayable",
      "type": "function"
    },
    {
      "inputs": [
        {
          "internalType": "uint256",
          "name": "tokenId",
          "type": "uint256"
        }
      ],
      "name": "wrap",
      "outputs": [],
      "stateMutability": "nonpayable",
      "type": "function"
    }
  ],
  "bytecode": "0x60806040523480156200001157600080fd5b506040518060400160405280601d81526020017f496d6d6f7274616c20506c6179657220436861726163746572732076300000008152506040518060400160405280600581526020017f49504356300000000000000000000000000000000000000000000000000000008152506200009e62000092620001f060201b60201c565b620001f860201b60201c565b8160039080519060200190620000b6929190620002c5565b508060049080519060200190620000cf929190620002c5565b50620000e0620002bc60201b60201c565b60018190555050507369af343852e04f7b5a6fcae87be1472a43c63db8601060006101000a81548173ffffffffffffffffffffffffffffffffffffffff021916908373ffffffffffffffffffffffffffffffffffffffff1602179055506040518060400160405280601a81526020017f68747470733a2f2f776562736974652e636f6d2f746f6b656e2f000000000000815250601190805190602001906200018a929190620002c5565b506040518060400160405280601d81526020017f68747470733a2f2f776562736974652e636f6d2f636f6e74726163742f00000081525060129080519060200190620001d8929190620002c5565b5060006013819055506103e8601481905550620003da565b600033905090565b60008060009054906101000a900473ffffffffffffffffffffffffffffffffffffffff169050816000806101000a81548173ffffffffffffffffffffffffffffffffffffffff021916908373ffffffffffffffffffffffffffffffffffffffff1602179055508173ffffffffffffffffffffffffffffffffffffffff168173ffffffffffffffffffffffffffffffffffffffff167f8be0079c531659141344cd1fd0a4f28419497f9722a3daafe3b4186f6b6457e060405160405180910390a35050565b60006001905090565b828054620002d390620003a4565b90600052602060002090601f016020900481019282620002f7576000855562000343565b82601f106200031257805160ff191683800117855562000343565b8280016001018555821562000343579182015b828111156200034257825182559160200191906001019062000325565b5b50905062000352919062000356565b5090565b5b808211156200037157600081600090555060010162000357565b5090565b7f4e487b7100000000000000000000000000000000000000000000000000000000600052602260045260246000fd5b60006002820490506001821680620003bd57607f821691505b60208210811415620003d457620003d362000375565b5b50919050565b6152d780620003ea6000396000f3fe6080604052600436106102045760003560e01c80637fff1e2f11610118578063d764600d116100a0578063e985e9c51161006f578063e985e9c5146107bc578063ea598cb0146107f9578063ec0cfd0b14610822578063f0b9e5ba1461084d578063f2fde38b1461088a57610204565b8063d764600d1461070f578063de0e9a3e1461074c578063dfb31a7c14610775578063e8a3d4851461079157610204565b8063a22cb465116100e7578063a22cb46514610606578063b4f01a021461062f578063b88d4fde1461066c578063c2619d1314610695578063c87b56dd146106d257610204565b80637fff1e2f1461053657806389edc438146105735780638da5cb5b146105b057806395d89b41146105db57610204565b806320f95f621161019b578063477bddaa1161016a578063477bddaa146104655780636352211e1461048e57806369d42148146104cb57806370a08231146104e2578063715018a61461051f57610204565b806320f95f62146103ad57806323b872dd146103d65780633a663c80146103ff57806342842e0e1461043c57610204565b8063095ea7b3116101d7578063095ea7b3146102eb57806312ca702e14610314578063150b7a021461034557806318160ddd1461038257610204565b8063013abd6c1461020957806301ffc9a71461024657806306fdde0314610283578063081812fc146102ae575b600080fd5b34801561021557600080fd5b50610230600480360381019061022b9190613af5565b6108b3565b60405161023d9190613b3b565b60405180910390f35b34801561025257600080fd5b5061026d60048036038101906102689190613bae565b610972565b60405161027a9190613bf6565b60405180910390f35b34801561028f57600080fd5b50610298610a04565b6040516102a59190613caa565b60405180910390f35b3480156102ba57600080fd5b506102d560048036038101906102d09190613cf8565b610a96565b6040516102e29190613d34565b60405180910390f35b3480156102f757600080fd5b50610312600480360381019061030d9190613d4f565b610ab5565b005b34801561032057600080fd5b50610329610c00565b60405161033c9796959493929190613d8f565b60405180910390f35b34801561035157600080fd5b5061036c60048036038101906103679190613e6a565b610d17565b6040516103799190613f01565b60405180910390f35b34801561038e57600080fd5b50610397610d2c565b6040516103a49190613b3b565b60405180910390f35b3480156103b957600080fd5b506103d460048036038101906103cf9190613f72565b610dd3565b005b3480156103e257600080fd5b506103fd60048036038101906103f89190614019565b610e15565b005b34801561040b57600080fd5b5061042660048036038101906104219190613cf8565b610e8e565b6040516104339190613b3b565b60405180910390f35b34801561044857600080fd5b50610463600480360381019061045e9190614019565b610eab565b005b34801561047157600080fd5b5061048c60048036038101906104879190613af5565b610ecb565b005b34801561049a57600080fd5b506104b560048036038101906104b09190613cf8565b610f17565b6040516104c29190613d34565b60405180910390f35b3480156104d757600080fd5b506104e0611027565b005b3480156104ee57600080fd5b5061050960048036038101906105049190613af5565b6110de565b6040516105169190613b3b565b60405180910390f35b34801561052b57600080fd5b50610534611190565b005b34801561054257600080fd5b5061055d60048036038101906105589190613cf8565b6111a4565b60405161056a91906141b4565b60405180910390f35b34801561057f57600080fd5b5061059a600480360381019061059591906141d6565b6112fb565b6040516105a79190614387565b60405180910390f35b3480156105bc57600080fd5b506105c56114d3565b6040516105d29190613d34565b60405180910390f35b3480156105e757600080fd5b506105f06114fc565b6040516105fd9190613caa565b60405180910390f35b34801561061257600080fd5b5061062d600480360381019061062891906143d5565b61158e565b005b34801561063b57600080fd5b5061065660048036038101906106519190613cf8565b611706565b6040516106639190613d34565b60405180910390f35b34801561067857600080fd5b50610693600480360381019061068e9190614545565b6117ba565b005b3480156106a157600080fd5b506106bc60048036038101906106b791906145c8565b61182d565b6040516106c99190614387565b60405180910390f35b3480156106de57600080fd5b506106f960048036038101906106f49190613cf8565b611960565b6040516107069190613caa565b60405180910390f35b34801561071b57600080fd5b50610736600480360381019061073191906141d6565b6119ff565b6040516107439190614387565b60405180910390f35b34801561075857600080fd5b50610773600480360381019061076e9190613cf8565b611bef565b005b61078f600480360381019061078a9190614608565b611e73565b005b34801561079d57600080fd5b506107a6611ff7565b6040516107b39190613caa565b60405180910390f35b3480156107c857600080fd5b506107e360048036038101906107de9190614668565b612089565b6040516107f09190613bf6565b60405180910390f35b34801561080557600080fd5b50610820600480360381019061081b9190613cf8565b61211d565b005b34801561082e57600080fd5b50610837612571565b6040516108449190614725565b60405180910390f35b34801561085957600080fd5b50610874600480360381019061086f9190614747565b612703565b6040516108819190613f01565b60405180910390f35b34801561089657600080fd5b506108b160048036038101906108ac9190613af5565b612730565b005b600080601060009054906101000a900473ffffffffffffffffffffffffffffffffffffffff1673ffffffffffffffffffffffffffffffffffffffff16638462151c846040518263ffffffff1660e01b81526004016109119190613d34565b60006040518083038186803b15801561092957600080fd5b505afa15801561093d573d6000803e3d6000fd5b505050506040513d6000823e3d601f19601f820116820180604052508101906109669190614893565b90508051915050919050565b60006301ffc9a760e01b827bffffffffffffffffffffffffffffffffffffffffffffffffffffffff191614806109cd57506380ac58cd60e01b827bffffffffffffffffffffffffffffffffffffffffffffffffffffffff1916145b806109fd5750635b5e139f60e01b827bffffffffffffffffffffffffffffffffffffffffffffffffffffffff1916145b9050919050565b606060038054610a139061490b565b80601f0160208091040260200160405190810160405280929190818152602001828054610a3f9061490b565b8015610a8c5780601f10610a6157610100808354040283529160200191610a8c565b820191906000526020600020905b815481529060010190602001808311610a6f57829003601f168201915b5050505050905090565b600080610aa283610e8e565b9050610aad816127b4565b915050919050565b6000610ac082610e8e565b90506000811415610b06576040517f08c379a0000000000000000000000000000000000000000000000000000000008152600401610afd90614989565b60405180910390fd5b6000610b1183610f17565b90508073ffffffffffffffffffffffffffffffffffffffff16610b32612833565b73ffffffffffffffffffffffffffffffffffffffff1614610b9557610b5e81610b59612833565b612089565b610b94576040517fcfb3b94200000000000000000000000000000000000000000000000000000000815260040160405180910390fd5b5b610b9f848361283b565b828473ffffffffffffffffffffffffffffffffffffffff168273ffffffffffffffffffffffffffffffffffffffff167f8c5be1e5ebec7d5bd14f71427d1e84f3dd0314c0f7b2291e5b200ac8c7c3b92560405160405180910390a450505050565b6000806000806000806060600960000154600960010154600960020154600960030154600960040160009054906101000a900473ffffffffffffffffffffffffffffffffffffffff16600960050160009054906101000a900473ffffffffffffffffffffffffffffffffffffffff166009600601808054610c809061490b565b80601f0160208091040260200160405190810160405280929190818152602001828054610cac9061490b565b8015610cf95780601f10610cce57610100808354040283529160200191610cf9565b820191906000526020600020905b815481529060010190602001808311610cdc57829003601f168201915b50505050509050965096509650965096509650965090919293949596565b600063150b7a0260e01b905095945050505050565b6000601060009054906101000a900473ffffffffffffffffffffffffffffffffffffffff1673ffffffffffffffffffffffffffffffffffffffff166318160ddd6040518163ffffffff1660e01b815260040160206040518083038186803b158015610d9657600080fd5b505afa158015610daa573d6000803e3d6000fd5b505050506040513d601f19601f82011682018060405250810190610dce91906149a9565b905090565b610ddb612894565b8560138190555084601481905550838360119190610dfa92919061391e565b50818160129190610e0c92919061391e565b50505050505050565b6000610e2082610e8e565b9050610e2d848483612912565b818373ffffffffffffffffffffffffffffffffffffffff168573ffffffffffffffffffffffffffffffffffffffff167fddf252ad1be2c89b69c2b068fc378daa952ba7f163c4a11628f55a4df523b3ef60405160405180910390a450505050565b600060166000838152602001908152602001600020549050919050565b610ec6838383604051806020016040528060008152506117ba565b505050565b610ed3612894565b80601060006101000a81548173ffffffffffffffffffffffffffffffffffffffff021916908373ffffffffffffffffffffffffffffffffffffffff16021790555050565b600080610f2383610e8e565b90506000811415610fe157601060009054906101000a900473ffffffffffffffffffffffffffffffffffffffff1673ffffffffffffffffffffffffffffffffffffffff16636352211e846040518263ffffffff1660e01b8152600401610f899190613b3b565b60206040518083038186803b158015610fa157600080fd5b505afa158015610fb5573d6000803e3d6000fd5b505050506040513d601f19601f82011682018060405250810190610fd991906149eb565b915050611022565b60006015600083815260200190815260200160002060010160009054906101000a900473ffffffffffffffffffffffffffffffffffffffff16905080925050505b919050565b61102f612894565b60003373ffffffffffffffffffffffffffffffffffffffff164760405161105590614a49565b60006040518083038185875af1925050503d8060008114611092576040519150601f19603f3d011682016040523d82523d6000602084013e611097565b606091505b50509050806110db576040517f08c379a00000000000000000000000000000000000000000000000000000000081526004016110d290614aaa565b60405180910390fd5b50565b60008073ffffffffffffffffffffffffffffffffffffffff168273ffffffffffffffffffffffffffffffffffffffff161415611146576040517f8f4eb60400000000000000000000000000000000000000000000000000000000815260040160405180910390fd5b601760008373ffffffffffffffffffffffffffffffffffffffff1673ffffffffffffffffffffffffffffffffffffffff168152602001908152602001600020805490509050919050565b611198612894565b6111a26000612bdc565b565b6111ac6139a4565b6000806000806000601060009054906101000a900473ffffffffffffffffffffffffffffffffffffffff1673ffffffffffffffffffffffffffffffffffffffff16637fff1e2f886040518263ffffffff1660e01b815260040161120f9190613b3b565b60006040518083038186803b15801561122757600080fd5b505afa15801561123b573d6000803e3d6000fd5b505050506040513d6000823e3d601f19601f820116820180604052508101906112649190614bc3565b94509450945094509450600061127988610f17565b905060006040518060e001604052808a8152602001888152602001878152602001868152602001856fffffffffffffffffffffffffffffffff168152602001846fffffffffffffffffffffffffffffffff1681526020018373ffffffffffffffffffffffffffffffffffffffff16815250905080975050505050505050919050565b60606000601760008673ffffffffffffffffffffffffffffffffffffffff1673ffffffffffffffffffffffffffffffffffffffff16815260200190815260200160002080548060200260200160405190810160405280929190818152602001828054801561138857602002820191906000526020600020905b815481526020019060010190808311611374575b50505050509050600081519050808511156113a257600094505b60008414806113bb575084816113b89190614c89565b84115b156113cf5784816113cc9190614c89565b93505b60008467ffffffffffffffff8111156113eb576113ea61441a565b5b60405190808252806020026020018201604052801561142457816020015b6114116139a4565b8152602001906001900390816114095790505b509050600082141561143b578093505050506114cc565b60008060006114486139a4565b600093505b888410156114c157611469848b6114649190614cbd565b610e8e565b92506015600084815260200190815260200160002060000154915061148d826111a4565b9050808585815181106114a3576114a2614d13565b5b602002602001018190525083806114b990614d42565b94505061144d565b849750505050505050505b9392505050565b60008060009054906101000a900473ffffffffffffffffffffffffffffffffffffffff16905090565b60606004805461150b9061490b565b80601f01602080910402602001604051908101604052809291908181526020018280546115379061490b565b80156115845780601f1061155957610100808354040283529160200191611584565b820191906000526020600020905b81548152906001019060200180831161156757829003601f168201915b5050505050905090565b611596612833565b73ffffffffffffffffffffffffffffffffffffffff168273ffffffffffffffffffffffffffffffffffffffff1614156115fb576040517fb06307db00000000000000000000000000000000000000000000000000000000815260040160405180910390fd5b8060086000611608612833565b73ffffffffffffffffffffffffffffffffffffffff1673ffffffffffffffffffffffffffffffffffffffff16815260200190815260200160002060008473ffffffffffffffffffffffffffffffffffffffff1673ffffffffffffffffffffffffffffffffffffffff16815260200190815260200160002060006101000a81548160ff0219169083151502179055508173ffffffffffffffffffffffffffffffffffffffff166116b5612833565b73ffffffffffffffffffffffffffffffffffffffff167f17307eab39ab6107e8899845ad3d59bd9653f200f220920489ca2b5937696c31836040516116fa9190613bf6565b60405180910390a35050565b6000601060009054906101000a900473ffffffffffffffffffffffffffffffffffffffff1673ffffffffffffffffffffffffffffffffffffffff16636352211e836040518263ffffffff1660e01b81526004016117639190613b3b565b60206040518083038186803b15801561177b57600080fd5b505afa15801561178f573d6000803e3d6000fd5b505050506040513d601f19601f820116820180604052508101906117b391906149eb565b9050919050565b6117c5848484610e15565b60008373ffffffffffffffffffffffffffffffffffffffff163b14611827576117f084848484612ca0565b611826576040517fd1a57ed600000000000000000000000000000000000000000000000000000000815260040160405180910390fd5b5b50505050565b60606000611839610d2c565b9050600084148061184957508084115b1561185357600193505b600083148061187857508360018261186b9190614cbd565b6118759190614c89565b83115b1561188c5783816118899190614c89565b92505b60008367ffffffffffffffff8111156118a8576118a761441a565b5b6040519080825280602002602001820160405280156118e157816020015b6118ce6139a4565b8152602001906001900390816118c65790505b50905060008214156118f757809250505061195a565b60005b8481101561195357600081876119109190614cbd565b9050600061191d826111a4565b90508084848151811061193357611932614d13565b5b60200260200101819052505050808061194b90614d42565b9150506118fa565b8193505050505b92915050565b606061196b82612e00565b6119a1576040517fa14c4b5000000000000000000000000000000000000000000000000000000000815260040160405180910390fd5b60006119ab612e5f565b90506000815114156119cc57604051806020016040528060008152506119f7565b806119d684612ef1565b6040516020016119e7929190614dc7565b6040516020818303038152906040525b915050919050565b60606000601060009054906101000a900473ffffffffffffffffffffffffffffffffffffffff1673ffffffffffffffffffffffffffffffffffffffff16638462151c866040518263ffffffff1660e01b8152600401611a5e9190613d34565b60006040518083038186803b158015611a7657600080fd5b505afa158015611a8a573d6000803e3d6000fd5b505050506040513d6000823e3d601f19601f82011682018060405250810190611ab39190614893565b905060008151905080851115611ac857600094505b6000841480611ae157508481611ade9190614c89565b84115b15611af5578481611af29190614c89565b93505b60008467ffffffffffffffff811115611b1157611b1061441a565b5b604051908082528060200260200182016040528015611b4a57816020015b611b376139a4565b815260200190600190039081611b2f5790505b5090506000821415611b6157809350505050611be8565b600080611b6c6139a4565b600092505b87831015611bde5785838a611b869190614cbd565b81518110611b9757611b96614d13565b5b60200260200101519150611baa826111a4565b905080848481518110611bc057611bbf614d13565b5b60200260200101819052508280611bd690614d42565b935050611b71565b8396505050505050505b9392505050565b6000611bfa82610e8e565b90506000811415611c40576040517f08c379a0000000000000000000000000000000000000000000000000000000008152600401611c3790614989565b60405180910390fd5b6000611c4a612833565b90508073ffffffffffffffffffffffffffffffffffffffff166015600084815260200190815260200160002060010160009054906101000a900473ffffffffffffffffffffffffffffffffffffffff1673ffffffffffffffffffffffffffffffffffffffff1614611cf0576040517f08c379a0000000000000000000000000000000000000000000000000000000008152600401611ce790614e37565b60405180910390fd5b6016600084815260200190815260200160002060009055601560008381526020019081526020016000206000808201600090556001820160006101000a81549073ffffffffffffffffffffffffffffffffffffffff021916905550506000611d5784610f17565b9050611d638285612f41565b611d6c8361313c565b3073ffffffffffffffffffffffffffffffffffffffff168173ffffffffffffffffffffffffffffffffffffffff161415611e3257601060009054906101000a900473ffffffffffffffffffffffffffffffffffffffff1673ffffffffffffffffffffffffffffffffffffffff166342842e0e3084876040518463ffffffff1660e01b8152600401611dff93929190614e57565b600060405180830381600087803b158015611e1957600080fd5b505af1158015611e2d573d6000803e3d6000fd5b505050505b7f175e3dad2e6c10f120d3216de54ebe7abeee5b7f33c8941af43e73a0315e4a80838584604051611e6593929190614e8e565b60405180910390a150505050565b6000611e7e84610e8e565b90503373ffffffffffffffffffffffffffffffffffffffff166015600083815260200190815260200160002060010160009054906101000a900473ffffffffffffffffffffffffffffffffffffffff1673ffffffffffffffffffffffffffffffffffffffff1614611f24576040517f08c379a0000000000000000000000000000000000000000000000000000000008152600401611f1b90614f11565b60405180910390fd5b601060009054906101000a900473ffffffffffffffffffffffffffffffffffffffff1673ffffffffffffffffffffffffffffffffffffffff1663dfb31a7c348686866040518563ffffffff1660e01b8152600401611f8493929190614f5e565b6000604051808303818588803b158015611f9d57600080fd5b505af1158015611fb1573d6000803e3d6000fd5b50505050507f60319c6511f3c90c2a37bcd711c518923ef5dd5528be697b9b4a23a1aace6c9c848484604051611fe993929190614f5e565b60405180910390a150505050565b6060601280546120069061490b565b80601f01602080910402602001604051908101604052809291908181526020018280546120329061490b565b801561207f5780601f106120545761010080835404028352916020019161207f565b820191906000526020600020905b81548152906001019060200180831161206257829003601f168201915b5050505050905090565b6000600860008473ffffffffffffffffffffffffffffffffffffffff1673ffffffffffffffffffffffffffffffffffffffff16815260200190815260200160002060008373ffffffffffffffffffffffffffffffffffffffff1673ffffffffffffffffffffffffffffffffffffffff16815260200190815260200160002060009054906101000a900460ff16905092915050565b600061212882610e8e565b90506014548211801561213b5750600081145b1561217b576040517f08c379a000000000000000000000000000000000000000000000000000000000815260040161217290614fdc565b60405180910390fd5b6000612185612833565b90506000821461226e578073ffffffffffffffffffffffffffffffffffffffff166015600084815260200190815260200160002060010160009054906101000a900473ffffffffffffffffffffffffffffffffffffffff1673ffffffffffffffffffffffffffffffffffffffff1614612233576040517f08c379a000000000000000000000000000000000000000000000000000000000815260040161222a90614e37565b60405180910390fd5b6040517f08c379a000000000000000000000000000000000000000000000000000000000815260040161226590615048565b60405180910390fd5b61227661314a565b9150600061228384610f17565b90508173ffffffffffffffffffffffffffffffffffffffff168173ffffffffffffffffffffffffffffffffffffffff16146122f3576040517f08c379a00000000000000000000000000000000000000000000000000000000081526004016122ea90614e37565b60405180910390fd5b601060009054906101000a900473ffffffffffffffffffffffffffffffffffffffff1673ffffffffffffffffffffffffffffffffffffffff166342842e0e8330876040518463ffffffff1660e01b815260040161235293929190614e57565b600060405180830381600087803b15801561236c57600080fd5b505af1158015612380573d6000803e3d6000fd5b50505050601060009054906101000a900473ffffffffffffffffffffffffffffffffffffffff1673ffffffffffffffffffffffffffffffffffffffff16633d4cfe21856013546040518363ffffffff1660e01b81526004016123e3929190615068565b600060405180830381600087803b1580156123fd57600080fd5b505af1158015612411573d6000803e3d6000fd5b5050505060405180604001604052808581526020018373ffffffffffffffffffffffffffffffffffffffff16815250601560008581526020019081526020016000206000820151816000015560208201518160010160006101000a81548173ffffffffffffffffffffffffffffffffffffffff021916908373ffffffffffffffffffffffffffffffffffffffff160217905550905050826016600086815260200190815260200160002081905550601760008373ffffffffffffffffffffffffffffffffffffffff1673ffffffffffffffffffffffffffffffffffffffff168152602001908152602001600020839080600181540180825580915050600190039060005260206000200160009091909190915055612530826001613154565b7ff90572efd1ab4fb9c6b9dabfd24d103ce15482a9ec0c50e0e32618708783b15b83858460405161256393929190614e8e565b60405180910390a150505050565b612579613a21565b612581612894565b60006040518060a00160405280601060009054906101000a900473ffffffffffffffffffffffffffffffffffffffff1673ffffffffffffffffffffffffffffffffffffffff168152602001601180546125d99061490b565b80601f01602080910402602001604051908101604052809291908181526020018280546126059061490b565b80156126525780601f1061262757610100808354040283529160200191612652565b820191906000526020600020905b81548152906001019060200180831161263557829003601f168201915b50505050508152602001601280546126699061490b565b80601f01602080910402602001604051908101604052809291908181526020018280546126959061490b565b80156126e25780601f106126b7576101008083540402835291602001916126e2565b820191906000526020600020905b8154815290600101906020018083116126c557829003601f168201915b50505050508152602001601354815260200160145481525090508091505090565b60007ff0b9e5baf647f945565b0ac04522b519449041bdd44f952626b9ead9ff3692419050949350505050565b612738612894565b600073ffffffffffffffffffffffffffffffffffffffff168173ffffffffffffffffffffffffffffffffffffffff1614156127a8576040517f08c379a000000000000000000000000000000000000000000000000000000000815260040161279f90615103565b60405180910390fd5b6127b181612bdc565b50565b60006127bf82612e00565b6127f5576040517fcf4700e400000000000000000000000000000000000000000000000000000000815260040160405180910390fd5b6007600083815260200190815260200160002060000160009054906101000a900473ffffffffffffffffffffffffffffffffffffffff169050919050565b600033905090565b816007600083815260200190815260200160002060000160006101000a81548173ffffffffffffffffffffffffffffffffffffffff021916908373ffffffffffffffffffffffffffffffffffffffff1602179055505050565b61289c613172565b73ffffffffffffffffffffffffffffffffffffffff166128ba6114d3565b73ffffffffffffffffffffffffffffffffffffffff1614612910576040517f08c379a00000000000000000000000000000000000000000000000000000000081526004016129079061516f565b60405180910390fd5b565b600061291d8261317a565b90508373ffffffffffffffffffffffffffffffffffffffff168173ffffffffffffffffffffffffffffffffffffffff1614612984576040517fa114810000000000000000000000000000000000000000000000000000000000815260040160405180910390fd5b60008061299084613248565b915091506129a681876129a1612833565b61326f565b6129f2576129bb866129b6612833565b612089565b6129f1576040517f59c896be00000000000000000000000000000000000000000000000000000000815260040160405180910390fd5b5b600073ffffffffffffffffffffffffffffffffffffffff168573ffffffffffffffffffffffffffffffffffffffff161415612a59576040517fea553b3400000000000000000000000000000000000000000000000000000000815260040160405180910390fd5b612a6686868660016132b3565b8015612a7157600082555b600660008773ffffffffffffffffffffffffffffffffffffffff1673ffffffffffffffffffffffffffffffffffffffff168152602001908152602001600020600081546001900391905081905550600660008673ffffffffffffffffffffffffffffffffffffffff1673ffffffffffffffffffffffffffffffffffffffff1681526020019081526020016000206000815460010191905081905550612b3f85612b1b8888876132b9565b7c0200000000000000000000000000000000000000000000000000000000176132e1565b600560008681526020019081526020016000208190555060007c020000000000000000000000000000000000000000000000000000000084161415612bc7576000600185019050600060056000838152602001908152602001600020541415612bc5576001548114612bc4578360056000838152602001908152602001600020819055505b5b505b612bd4868686600161330c565b505050505050565b60008060009054906101000a900473ffffffffffffffffffffffffffffffffffffffff169050816000806101000a81548173ffffffffffffffffffffffffffffffffffffffff021916908373ffffffffffffffffffffffffffffffffffffffff1602179055508173ffffffffffffffffffffffffffffffffffffffff168173ffffffffffffffffffffffffffffffffffffffff167f8be0079c531659141344cd1fd0a4f28419497f9722a3daafe3b4186f6b6457e060405160405180910390a35050565b60008373ffffffffffffffffffffffffffffffffffffffff1663150b7a02612cc6612833565b8786866040518563ffffffff1660e01b8152600401612ce894939291906151e4565b602060405180830381600087803b158015612d0257600080fd5b505af1925050508015612d3357506040513d601f19601f82011682018060405250810190612d309190615245565b60015b612dad573d8060008114612d63576040519150601f19603f3d011682016040523d82523d6000602084013e612d68565b606091505b50600081511415612da5576040517fd1a57ed600000000000000000000000000000000000000000000000000000000815260040160405180910390fd5b805181602001fd5b63150b7a0260e01b7bffffffffffffffffffffffffffffffffffffffffffffffffffffffff1916817bffffffffffffffffffffffffffffffffffffffffffffffffffffffff191614915050949350505050565b600081612e0b613339565b11158015612e1a575060015482105b8015612e58575060007c0100000000000000000000000000000000000000000000000000000000600560008581526020019081526020016000205416145b9050919050565b606060118054612e6e9061490b565b80601f0160208091040260200160405190810160405280929190818152602001828054612e9a9061490b565b8015612ee75780601f10612ebc57610100808354040283529160200191612ee7565b820191906000526020600020905b815481529060010190602001808311612eca57829003601f168201915b5050505050905090565b606060806040510190508060405280825b600115612f2d57600183039250600a81066030018353600a8104905080612f2857612f2d565b612f02565b508181036020830392508083525050919050565b6000601760008473ffffffffffffffffffffffffffffffffffffffff1673ffffffffffffffffffffffffffffffffffffffff16815260200190815260200160002080549050905060005b818110156131365782601760008673ffffffffffffffffffffffffffffffffffffffff1673ffffffffffffffffffffffffffffffffffffffff1681526020019081526020016000208281548110612fe557612fe4614d13565b5b9060005260206000200154141561312357601760008573ffffffffffffffffffffffffffffffffffffffff1673ffffffffffffffffffffffffffffffffffffffff1681526020019081526020016000206001836130429190614c89565b8154811061305357613052614d13565b5b9060005260206000200154601760008673ffffffffffffffffffffffffffffffffffffffff1673ffffffffffffffffffffffffffffffffffffffff16815260200190815260200160002082815481106130af576130ae614d13565b5b9060005260206000200181905550601760008573ffffffffffffffffffffffffffffffffffffffff1673ffffffffffffffffffffffffffffffffffffffff16815260200190815260200160002080548061310c5761310b615272565b5b600190038181906000526020600020016000905590555b808061312e90614d42565b915050612f8b565b50505050565b613147816000613342565b50565b6000600154905090565b61316e828260405180602001604052806000815250613596565b5050565b600033905090565b60008082905080613189613339565b11613211576001548110156132105760006005600083815260200190815260200160002054905060007c01000000000000000000000000000000000000000000000000000000008216141561320e575b60008114156132045760056000836001900393508381526020019081526020016000205490506131d9565b8092505050613243565b505b5b6040517fdf2d9b4200000000000000000000000000000000000000000000000000000000815260040160405180910390fd5b919050565b60008060006007600085815260200190815260200160002090508092508254915050915091565b600073ffffffffffffffffffffffffffffffffffffffff8316925073ffffffffffffffffffffffffffffffffffffffff821691508382148383141790509392505050565b50505050565b60008060e883901c905060e86132d0868684613634565b62ffffff16901b9150509392505050565b600073ffffffffffffffffffffffffffffffffffffffff83169250814260a01b178317905092915050565b60006015600084815260200190815260200160002060000154905061333285858361363d565b5050505050565b60006001905090565b600061334d8361317a565b9050600081905060008061336086613248565b9150915084156133c95761337c8184613377612833565b61326f565b6133c8576133918361338c612833565b612089565b6133c7576040517f59c896be00000000000000000000000000000000000000000000000000000000815260040160405180910390fd5b5b5b6133d78360008860016132b3565b80156133e257600082555b600160806001901b03600660008573ffffffffffffffffffffffffffffffffffffffff1673ffffffffffffffffffffffffffffffffffffffff1681526020019081526020016000206000828254019250508190555061348a83613447856000886132b9565b7c02000000000000000000000000000000000000000000000000000000007c010000000000000000000000000000000000000000000000000000000017176132e1565b600560008881526020019081526020016000208190555060007c02000000000000000000000000000000000000000000000000000000008516141561351257600060018701905060006005600083815260200190815260200160002054141561351057600154811461350f578460056000838152602001908152602001600020819055505b5b505b85600073ffffffffffffffffffffffffffffffffffffffff168473ffffffffffffffffffffffffffffffffffffffff167fddf252ad1be2c89b69c2b068fc378daa952ba7f163c4a11628f55a4df523b3ef60405160405180910390a461357c83600088600161330c565b600260008154809291906001019190505550505050505050565b6135a08383613750565b60008373ffffffffffffffffffffffffffffffffffffffff163b1461362f5760006001549050600083820390505b6135e16000868380600101945086612ca0565b613617576040517fd1a57ed600000000000000000000000000000000000000000000000000000000815260040160405180910390fd5b8181106135ce57816001541461362c57600080fd5b50505b505050565b60009392505050565b600073ffffffffffffffffffffffffffffffffffffffff168373ffffffffffffffffffffffffffffffffffffffff1614156136775761374b565b600061368282610e8e565b9050826015600083815260200190815260200160002060010160006101000a81548173ffffffffffffffffffffffffffffffffffffffff021916908373ffffffffffffffffffffffffffffffffffffffff1602179055506136e38483612f41565b601760008473ffffffffffffffffffffffffffffffffffffffff1673ffffffffffffffffffffffffffffffffffffffff168152602001908152602001600020829080600181540180825580915050600190039060005260206000200160009091909190915055505b505050565b600060015490506000821415613792576040517fb562e8dd00000000000000000000000000000000000000000000000000000000815260040160405180910390fd5b61379f60008483856132b3565b600160406001901b178202600660008573ffffffffffffffffffffffffffffffffffffffff1673ffffffffffffffffffffffffffffffffffffffff168152602001908152602001600020600082825401925050819055506138168361380760008660006132b9565b6138108561390e565b176132e1565b6005600083815260200190815260200160002081905550600080838301905073ffffffffffffffffffffffffffffffffffffffff85169150828260007fddf252ad1be2c89b69c2b068fc378daa952ba7f163c4a11628f55a4df523b3ef600080a4600183015b8181146138b757808360007fddf252ad1be2c89b69c2b068fc378daa952ba7f163c4a11628f55a4df523b3ef600080a460018101905061387c565b5060008214156138f3576040517f2e07630000000000000000000000000000000000000000000000000000000000815260040160405180910390fd5b806001819055505050613909600084838561330c565b505050565b60006001821460e11b9050919050565b82805461392a9061490b565b90600052602060002090601f01602090048101928261394c5760008555613993565b82601f1061396557803560ff1916838001178555613993565b82800160010185558215613993579182015b82811115613992578235825591602001919060010190613977565b5b5090506139a09190613a66565b5090565b6040518060e001604052806000815260200160608152602001600080191681526020016000801916815260200160006fffffffffffffffffffffffffffffffff16815260200160006fffffffffffffffffffffffffffffffff168152602001600073ffffffffffffffffffffffffffffffffffffffff1681525090565b6040518060a00160405280600073ffffffffffffffffffffffffffffffffffffffff168152602001606081526020016060815260200160008152602001600081525090565b5b80821115613a7f576000816000905550600101613a67565b5090565b6000604051905090565b600080fd5b600080fd5b600073ffffffffffffffffffffffffffffffffffffffff82169050919050565b6000613ac282613a97565b9050919050565b613ad281613ab7565b8114613add57600080fd5b50565b600081359050613aef81613ac9565b92915050565b600060208284031215613b0b57613b0a613a8d565b5b6000613b1984828501613ae0565b91505092915050565b6000819050919050565b613b3581613b22565b82525050565b6000602082019050613b506000830184613b2c565b92915050565b60007fffffffff0000000000000000000000000000000000000000000000000000000082169050919050565b613b8b81613b56565b8114613b9657600080fd5b50565b600081359050613ba881613b82565b92915050565b600060208284031215613bc457613bc3613a8d565b5b6000613bd284828501613b99565b91505092915050565b60008115159050919050565b613bf081613bdb565b82525050565b6000602082019050613c0b6000830184613be7565b92915050565b600081519050919050565b600082825260208201905092915050565b60005b83811015613c4b578082015181840152602081019050613c30565b83811115613c5a576000848401525b50505050565b6000601f19601f8301169050919050565b6000613c7c82613c11565b613c868185613c1c565b9350613c96818560208601613c2d565b613c9f81613c60565b840191505092915050565b60006020820190508181036000830152613cc48184613c71565b905092915050565b613cd581613b22565b8114613ce057600080fd5b50565b600081359050613cf281613ccc565b92915050565b600060208284031215613d0e57613d0d613a8d565b5b6000613d1c84828501613ce3565b91505092915050565b613d2e81613ab7565b82525050565b6000602082019050613d496000830184613d25565b92915050565b60008060408385031215613d6657613d65613a8d565b5b6000613d7485828601613ae0565b9250506020613d8585828601613ce3565b9150509250929050565b600060e082019050613da4600083018a613b2c565b613db16020830189613b2c565b613dbe6040830188613b2c565b613dcb6060830187613b2c565b613dd86080830186613d25565b613de560a0830185613d25565b81810360c0830152613df78184613c71565b905098975050505050505050565b600080fd5b600080fd5b600080fd5b60008083601f840112613e2a57613e29613e05565b5b8235905067ffffffffffffffff811115613e4757613e46613e0a565b5b602083019150836001820283011115613e6357613e62613e0f565b5b9250929050565b600080600080600060808688031215613e8657613e85613a8d565b5b6000613e9488828901613ae0565b9550506020613ea588828901613ae0565b9450506040613eb688828901613ce3565b935050606086013567ffffffffffffffff811115613ed757613ed6613a92565b5b613ee388828901613e14565b92509250509295509295909350565b613efb81613b56565b82525050565b6000602082019050613f166000830184613ef2565b92915050565b60008083601f840112613f3257613f31613e05565b5b8235905067ffffffffffffffff811115613f4f57613f4e613e0a565b5b602083019150836001820283011115613f6b57613f6a613e0f565b5b9250929050565b60008060008060008060808789031215613f8f57613f8e613a8d565b5b6000613f9d89828a01613ce3565b9650506020613fae89828a01613ce3565b955050604087013567ffffffffffffffff811115613fcf57613fce613a92565b5b613fdb89828a01613f1c565b9450945050606087013567ffffffffffffffff811115613ffe57613ffd613a92565b5b61400a89828a01613f1c565b92509250509295509295509295565b60008060006060848603121561403257614031613a8d565b5b600061404086828701613ae0565b935050602061405186828701613ae0565b925050604061406286828701613ce3565b9150509250925092565b61407581613b22565b82525050565b600082825260208201905092915050565b600061409782613c11565b6140a1818561407b565b93506140b1818560208601613c2d565b6140ba81613c60565b840191505092915050565b6000819050919050565b6140d8816140c5565b82525050565b60006fffffffffffffffffffffffffffffffff82169050919050565b614103816140de565b82525050565b61411281613ab7565b82525050565b600060e083016000830151614130600086018261406c565b5060208301518482036020860152614148828261408c565b915050604083015161415d60408601826140cf565b50606083015161417060608601826140cf565b50608083015161418360808601826140fa565b5060a083015161419660a08601826140fa565b5060c08301516141a960c0860182614109565b508091505092915050565b600060208201905081810360008301526141ce8184614118565b905092915050565b6000806000606084860312156141ef576141ee613a8d565b5b60006141fd86828701613ae0565b935050602061420e86828701613ce3565b925050604061421f86828701613ce3565b9150509250925092565b600081519050919050565b600082825260208201905092915050565b6000819050602082019050919050565b600060e08301600083015161426d600086018261406c565b5060208301518482036020860152614285828261408c565b915050604083015161429a60408601826140cf565b5060608301516142ad60608601826140cf565b5060808301516142c060808601826140fa565b5060a08301516142d360a08601826140fa565b5060c08301516142e660c0860182614109565b508091505092915050565b60006142fd8383614255565b905092915050565b6000602082019050919050565b600061431d82614229565b6143278185614234565b93508360208202850161433985614245565b8060005b85811015614375578484038952815161435685826142f1565b945061436183614305565b925060208a0199505060018101905061433d565b50829750879550505050505092915050565b600060208201905081810360008301526143a18184614312565b905092915050565b6143b281613bdb565b81146143bd57600080fd5b50565b6000813590506143cf816143a9565b92915050565b600080604083850312156143ec576143eb613a8d565b5b60006143fa85828601613ae0565b925050602061440b858286016143c0565b9150509250929050565b600080fd5b7f4e487b7100000000000000000000000000000000000000000000000000000000600052604160045260246000fd5b61445282613c60565b810181811067ffffffffffffffff821117156144715761447061441a565b5b80604052505050565b6000614484613a83565b90506144908282614449565b919050565b600067ffffffffffffffff8211156144b0576144af61441a565b5b6144b982613c60565b9050602081019050919050565b82818337600083830152505050565b60006144e86144e384614495565b61447a565b90508281526020810184848401111561450457614503614415565b5b61450f8482856144c6565b509392505050565b600082601f83011261452c5761452b613e05565b5b813561453c8482602086016144d5565b91505092915050565b6000806000806080858703121561455f5761455e613a8d565b5b600061456d87828801613ae0565b945050602061457e87828801613ae0565b935050604061458f87828801613ce3565b925050606085013567ffffffffffffffff8111156145b0576145af613a92565b5b6145bc87828801614517565b91505092959194509250565b600080604083850312156145df576145de613a8d565b5b60006145ed85828601613ce3565b92505060206145fe85828601613ce3565b9150509250929050565b60008060006040848603121561462157614620613a8d565b5b600061462f86828701613ce3565b935050602084013567ffffffffffffffff8111156146505761464f613a92565b5b61465c86828701613f1c565b92509250509250925092565b6000806040838503121561467f5761467e613a8d565b5b600061468d85828601613ae0565b925050602061469e85828601613ae0565b9150509250929050565b600060a0830160008301516146c06000860182614109565b50602083015184820360208601526146d8828261408c565b915050604083015184820360408601526146f2828261408c565b9150506060830151614707606086018261406c565b50608083015161471a608086018261406c565b508091505092915050565b6000602082019050818103600083015261473f81846146a8565b905092915050565b6000806000806060858703121561476157614760613a8d565b5b600061476f87828801613ae0565b945050602061478087828801613ce3565b935050604085013567ffffffffffffffff8111156147a1576147a0613a92565b5b6147ad87828801613e14565b925092505092959194509250565b600067ffffffffffffffff8211156147d6576147d561441a565b5b602082029050602081019050919050565b6000815190506147f681613ccc565b92915050565b600061480f61480a846147bb565b61447a565b9050808382526020820190506020840283018581111561483257614831613e0f565b5b835b8181101561485b578061484788826147e7565b845260208401935050602081019050614834565b5050509392505050565b600082601f83011261487a57614879613e05565b5b815161488a8482602086016147fc565b91505092915050565b6000602082840312156148a9576148a8613a8d565b5b600082015167ffffffffffffffff8111156148c7576148c6613a92565b5b6148d384828501614865565b91505092915050565b7f4e487b7100000000000000000000000000000000000000000000000000000000600052602260045260246000fd5b6000600282049050600182168061492357607f821691505b60208210811415614937576149366148dc565b5b50919050565b7f544f4b454e5f4e4f545f57524150504544000000000000000000000000000000600082015250565b6000614973601183613c1c565b915061497e8261493d565b602082019050919050565b600060208201905081810360008301526149a281614966565b9050919050565b6000602082840312156149bf576149be613a8d565b5b60006149cd848285016147e7565b91505092915050565b6000815190506149e581613ac9565b92915050565b600060208284031215614a0157614a00613a8d565b5b6000614a0f848285016149d6565b91505092915050565b600081905092915050565b50565b6000614a33600083614a18565b9150614a3e82614a23565b600082019050919050565b6000614a5482614a26565b9150819050919050565b7f5641554c545f5452414e534645525f4641494c45440000000000000000000000600082015250565b6000614a94601583613c1c565b9150614a9f82614a5e565b602082019050919050565b60006020820190508181036000830152614ac381614a87565b9050919050565b600067ffffffffffffffff821115614ae557614ae461441a565b5b614aee82613c60565b9050602081019050919050565b6000614b0e614b0984614aca565b61447a565b905082815260208101848484011115614b2a57614b29614415565b5b614b35848285613c2d565b509392505050565b600082601f830112614b5257614b51613e05565b5b8151614b62848260208601614afb565b91505092915050565b614b74816140c5565b8114614b7f57600080fd5b50565b600081519050614b9181614b6b565b92915050565b614ba0816140de565b8114614bab57600080fd5b50565b600081519050614bbd81614b97565b92915050565b600080600080600060a08688031215614bdf57614bde613a8d565b5b600086015167ffffffffffffffff811115614bfd57614bfc613a92565b5b614c0988828901614b3d565b9550506020614c1a88828901614b82565b9450506040614c2b88828901614b82565b9350506060614c3c88828901614bae565b9250506080614c4d88828901614bae565b9150509295509295909350565b7f4e487b7100000000000000000000000000000000000000000000000000000000600052601160045260246000fd5b6000614c9482613b22565b9150614c9f83613b22565b925082821015614cb257614cb1614c5a565b5b828203905092915050565b6000614cc882613b22565b9150614cd383613b22565b9250827fffffffffffffffffffffffffffffffffffffffffffffffffffffffffffffffff03821115614d0857614d07614c5a565b5b828201905092915050565b7f4e487b7100000000000000000000000000000000000000000000000000000000600052603260045260246000fd5b6000614d4d82613b22565b91507fffffffffffffffffffffffffffffffffffffffffffffffffffffffffffffffff821415614d8057614d7f614c5a565b5b600182019050919050565b600081905092915050565b6000614da182613c11565b614dab8185614d8b565b9350614dbb818560208601613c2d565b80840191505092915050565b6000614dd38285614d96565b9150614ddf8284614d96565b91508190509392505050565b7f4e4f545f4f574e4552535f544f4b454e00000000000000000000000000000000600082015250565b6000614e21601083613c1c565b9150614e2c82614deb565b602082019050919050565b60006020820190508181036000830152614e5081614e14565b9050919050565b6000606082019050614e6c6000830186613d25565b614e796020830185613d25565b614e866040830184613b2c565b949350505050565b6000606082019050614ea36000830186613b2c565b614eb06020830185613b2c565b614ebd6040830184613d25565b949350505050565b7f544f4b454e5f4e4f545f4f574e45520000000000000000000000000000000000600082015250565b6000614efb600f83613c1c565b9150614f0682614ec5565b602082019050919050565b60006020820190508181036000830152614f2a81614eee565b9050919050565b6000614f3d8385613c1c565b9350614f4a8385846144c6565b614f5383613c60565b840190509392505050565b6000604082019050614f736000830186613b2c565b8181036020830152614f86818486614f31565b9050949350505050565b7f544f4b454e5f4c494d49545f5245414348454400000000000000000000000000600082015250565b6000614fc6601383613c1c565b9150614fd182614f90565b602082019050919050565b60006020820190508181036000830152614ff581614fb9565b9050919050565b7f544f4b454e5f414c52454144595f575241505045440000000000000000000000600082015250565b6000615032601583613c1c565b915061503d82614ffc565b602082019050919050565b6000602082019050818103600083015261506181615025565b9050919050565b600060408201905061507d6000830185613b2c565b61508a6020830184613b2c565b9392505050565b7f4f776e61626c653a206e6577206f776e657220697320746865207a65726f206160008201527f6464726573730000000000000000000000000000000000000000000000000000602082015250565b60006150ed602683613c1c565b91506150f882615091565b604082019050919050565b6000602082019050818103600083015261511c816150e0565b9050919050565b7f4f776e61626c653a2063616c6c6572206973206e6f7420746865206f776e6572600082015250565b6000615159602083613c1c565b915061516482615123565b602082019050919050565b600060208201905081810360008301526151888161514c565b9050919050565b600081519050919050565b600082825260208201905092915050565b60006151b68261518f565b6151c0818561519a565b93506151d0818560208601613c2d565b6151d981613c60565b840191505092915050565b60006080820190506151f96000830187613d25565b6152066020830186613d25565b6152136040830185613b2c565b818103606083015261522581846151ab565b905095945050505050565b60008151905061523f81613b82565b92915050565b60006020828403121561525b5761525a613a8d565b5b600061526984828501615230565b91505092915050565b7f4e487b7100000000000000000000000000000000000000000000000000000000600052603160045260246000fdfea2646970667358221220a8ce1ca0015f73ea212775bf2a15a0a4a7a1df3f0c075813f6fc8010b9ff258264736f6c63430008090033",
  "linkReferences": {},
  "deployedLinkReferences": {}
}