{
  "_format": "hh-sol-artifact-1",
  "contractName": "IPCWrapper",
  "sourceName": "contracts/IPCWrapper.sol",
  "abi": [
    {
      "inputs": [],
      "stateMutability": "nonpayable",
      "type": "constructor"
    },
    {
      "inputs": [],
      "name": "ApprovalCallerNotOwnerNorApproved",
      "type": "error"
    },
    {
      "inputs": [],
      "name": "ApprovalQueryForNonexistentToken",
      "type": "error"
    },
    {
      "inputs": [],
      "name": "ApproveToCaller",
      "type": "error"
    },
    {
      "inputs": [],
      "name": "BalanceQueryForZeroAddress",
      "type": "error"
    },
    {
      "inputs": [],
      "name": "MintERC2309QuantityExceedsLimit",
      "type": "error"
    },
    {
      "inputs": [],
      "name": "MintToZeroAddress",
      "type": "error"
    },
    {
      "inputs": [],
      "name": "MintZeroQuantity",
      "type": "error"
    },
    {
      "inputs": [],
      "name": "OwnerQueryForNonexistentToken",
      "type": "error"
    },
    {
      "inputs": [],
      "name": "OwnershipNotInitializedForExtraData",
      "type": "error"
    },
    {
      "inputs": [],
      "name": "TransferCallerNotOwnerNorApproved",
      "type": "error"
    },
    {
      "inputs": [],
      "name": "TransferFromIncorrectOwner",
      "type": "error"
    },
    {
      "inputs": [],
      "name": "TransferToNonERC721ReceiverImplementer",
      "type": "error"
    },
    {
      "inputs": [],
      "name": "TransferToZeroAddress",
      "type": "error"
    },
    {
      "inputs": [],
      "name": "URIQueryForNonexistentToken",
      "type": "error"
    },
    {
      "anonymous": false,
      "inputs": [
        {
          "indexed": true,
          "internalType": "address",
          "name": "owner",
          "type": "address"
        },
        {
          "indexed": true,
          "internalType": "address",
          "name": "approved",
          "type": "address"
        },
        {
          "indexed": true,
          "internalType": "uint256",
          "name": "tokenId",
          "type": "uint256"
        }
      ],
      "name": "Approval",
      "type": "event"
    },
    {
      "anonymous": false,
      "inputs": [
        {
          "indexed": true,
          "internalType": "address",
          "name": "owner",
          "type": "address"
        },
        {
          "indexed": true,
          "internalType": "address",
          "name": "operator",
          "type": "address"
        },
        {
          "indexed": false,
          "internalType": "bool",
          "name": "approved",
          "type": "bool"
        }
      ],
      "name": "ApprovalForAll",
      "type": "event"
    },
    {
      "anonymous": false,
      "inputs": [
        {
          "indexed": true,
          "internalType": "uint256",
          "name": "fromTokenId",
          "type": "uint256"
        },
        {
          "indexed": false,
          "internalType": "uint256",
          "name": "toTokenId",
          "type": "uint256"
        },
        {
          "indexed": true,
          "internalType": "address",
          "name": "from",
          "type": "address"
        },
        {
          "indexed": true,
          "internalType": "address",
          "name": "to",
          "type": "address"
        }
      ],
      "name": "ConsecutiveTransfer",
      "type": "event"
    },
    {
      "anonymous": false,
      "inputs": [
        {
          "indexed": true,
          "internalType": "address",
          "name": "previousOwner",
          "type": "address"
        },
        {
          "indexed": true,
          "internalType": "address",
          "name": "newOwner",
          "type": "address"
        }
      ],
      "name": "OwnershipTransferred",
      "type": "event"
    },
    {
      "anonymous": false,
      "inputs": [
        {
          "indexed": true,
          "internalType": "address",
          "name": "from",
          "type": "address"
        },
        {
          "indexed": true,
          "internalType": "address",
          "name": "to",
          "type": "address"
        },
        {
          "indexed": true,
          "internalType": "uint256",
          "name": "tokenId",
          "type": "uint256"
        }
      ],
      "name": "Transfer",
      "type": "event"
    },
    {
      "anonymous": false,
      "inputs": [
        {
          "indexed": false,
          "internalType": "uint256",
          "name": "",
          "type": "uint256"
        },
        {
          "indexed": false,
          "internalType": "uint256",
          "name": "",
          "type": "uint256"
        },
        {
          "indexed": false,
          "internalType": "address",
          "name": "",
          "type": "address"
        }
      ],
      "name": "Unwrapped",
      "type": "event"
    },
    {
      "anonymous": false,
      "inputs": [
        {
          "indexed": false,
          "internalType": "uint256",
          "name": "",
          "type": "uint256"
        },
        {
          "indexed": false,
          "internalType": "uint256",
          "name": "",
          "type": "uint256"
        },
        {
          "indexed": false,
          "internalType": "address",
          "name": "",
          "type": "address"
        }
      ],
      "name": "Wrapped",
      "type": "event"
    },
    {
      "anonymous": false,
      "inputs": [
        {
          "indexed": false,
          "internalType": "uint256",
          "name": "",
          "type": "uint256"
        },
        {
          "indexed": false,
          "internalType": "string",
          "name": "",
          "type": "string"
        }
      ],
      "name": "nameChangeOK",
      "type": "event"
    },
    {
      "inputs": [
        {
          "internalType": "address",
          "name": "to",
          "type": "address"
        },
        {
          "internalType": "uint256",
          "name": "tokenId",
          "type": "uint256"
        }
      ],
      "name": "approve",
      "outputs": [],
      "stateMutability": "nonpayable",
      "type": "function"
    },
    {
      "inputs": [
        {
          "internalType": "address",
          "name": "owner",
          "type": "address"
        }
      ],
      "name": "balanceOf",
      "outputs": [
        {
          "internalType": "uint256",
          "name": "",
          "type": "uint256"
        }
      ],
      "stateMutability": "view",
      "type": "function"
    },
    {
      "inputs": [
        {
          "internalType": "uint256",
          "name": "tokenId",
          "type": "uint256"
        },
        {
          "internalType": "string",
          "name": "newName",
          "type": "string"
        }
      ],
      "name": "changeIpcName",
      "outputs": [],
      "stateMutability": "payable",
      "type": "function"
    },
    {
      "inputs": [],
      "name": "contractURI",
      "outputs": [
        {
          "internalType": "string",
          "name": "",
          "type": "string"
        }
      ],
      "stateMutability": "view",
      "type": "function"
    },
    {
      "inputs": [
        {
          "internalType": "uint256",
          "name": "tokenId",
          "type": "uint256"
        }
      ],
      "name": "getApproved",
      "outputs": [
        {
          "internalType": "address",
          "name": "",
          "type": "address"
        }
      ],
      "stateMutability": "view",
      "type": "function"
    },
    {
      "inputs": [],
      "name": "getDebugger",
      "outputs": [
        {
          "internalType": "uint256",
          "name": "d1",
          "type": "uint256"
        },
        {
          "internalType": "uint256",
          "name": "d2",
          "type": "uint256"
        },
        {
          "internalType": "uint256",
          "name": "d3",
          "type": "uint256"
        },
        {
          "internalType": "uint256",
          "name": "d4",
          "type": "uint256"
        },
        {
          "internalType": "address",
          "name": "a1",
          "type": "address"
        },
        {
          "internalType": "string",
          "name": "buffer",
          "type": "string"
        }
      ],
      "stateMutability": "view",
      "type": "function"
    },
    {
      "inputs": [
        {
          "internalType": "uint256",
          "name": "tokenId",
          "type": "uint256"
        }
      ],
      "name": "getIpc",
      "outputs": [
        {
          "components": [
            {
              "internalType": "uint256",
              "name": "tokenId",
              "type": "uint256"
            },
            {
              "internalType": "string",
              "name": "name",
              "type": "string"
            },
            {
              "internalType": "bytes32",
              "name": "attributeSeed",
              "type": "bytes32"
            },
            {
              "internalType": "bytes32",
              "name": "dna",
              "type": "bytes32"
            },
            {
              "internalType": "uint128",
              "name": "experience",
              "type": "uint128"
            },
            {
              "internalType": "uint128",
              "name": "timeOfBirth",
              "type": "uint128"
            },
            {
              "internalType": "address",
              "name": "owner",
              "type": "address"
            }
          ],
          "internalType": "struct IPCWrapper.t_raw_ipc",
          "name": "",
          "type": "tuple"
        }
      ],
      "stateMutability": "view",
      "type": "function"
    },
    {
      "inputs": [
        {
          "internalType": "address",
          "name": "owner",
          "type": "address"
        }
      ],
      "name": "getOwnerTokenTotals",
      "outputs": [
        {
          "internalType": "uint256",
          "name": "",
          "type": "uint256"
        }
      ],
      "stateMutability": "view",
      "type": "function"
    },
    {
      "inputs": [],
      "name": "getProperties",
      "outputs": [
        {
          "components": [
            {
              "internalType": "address",
              "name": "contractAdress",
              "type": "address"
            },
            {
              "internalType": "string",
              "name": "tokenURI",
              "type": "string"
            },
            {
              "internalType": "string",
              "name": "contractURI",
              "type": "string"
            },
            {
              "internalType": "uint256",
              "name": "maxPrice",
              "type": "uint256"
            },
            {
              "internalType": "uint256",
              "name": "tokenLimit",
              "type": "uint256"
            }
          ],
          "internalType": "struct IPCWrapper.t_properties",
          "name": "",
          "type": "tuple"
        }
      ],
      "stateMutability": "view",
      "type": "function"
    },
    {
      "inputs": [
        {
          "internalType": "uint256",
          "name": "tokenId",
          "type": "uint256"
        }
      ],
      "name": "getTokenIndex",
      "outputs": [
        {
          "internalType": "uint256",
          "name": "",
          "type": "uint256"
        }
      ],
      "stateMutability": "view",
      "type": "function"
    },
    {
      "inputs": [
        {
          "internalType": "address",
          "name": "owner",
          "type": "address"
        },
        {
          "internalType": "uint256",
          "name": "startIndex",
          "type": "uint256"
        },
        {
          "internalType": "uint256",
          "name": "total",
          "type": "uint256"
        }
      ],
      "name": "getTokensOfOwner",
      "outputs": [
        {
          "components": [
            {
              "internalType": "uint256",
              "name": "tokenId",
              "type": "uint256"
            },
            {
              "internalType": "string",
              "name": "name",
              "type": "string"
            },
            {
              "internalType": "bytes32",
              "name": "attributeSeed",
              "type": "bytes32"
            },
            {
              "internalType": "bytes32",
              "name": "dna",
              "type": "bytes32"
            },
            {
              "internalType": "uint128",
              "name": "experience",
              "type": "uint128"
            },
            {
              "internalType": "uint128",
              "name": "timeOfBirth",
              "type": "uint128"
            },
            {
              "internalType": "address",
              "name": "owner",
              "type": "address"
            }
          ],
          "internalType": "struct IPCWrapper.t_raw_ipc[]",
          "name": "",
          "type": "tuple[]"
        }
      ],
      "stateMutability": "view",
      "type": "function"
    },
    {
      "inputs": [
        {
          "internalType": "address",
          "name": "owner",
          "type": "address"
        },
        {
          "internalType": "address",
          "name": "operator",
          "type": "address"
        }
      ],
      "name": "isApprovedForAll",
      "outputs": [
        {
          "internalType": "bool",
          "name": "",
          "type": "bool"
        }
      ],
      "stateMutability": "view",
      "type": "function"
    },
    {
      "inputs": [],
      "name": "name",
      "outputs": [
        {
          "internalType": "string",
          "name": "",
          "type": "string"
        }
      ],
      "stateMutability": "view",
      "type": "function"
    },
    {
      "inputs": [
        {
          "internalType": "address",
          "name": "",
          "type": "address"
        },
        {
          "internalType": "address",
          "name": "",
          "type": "address"
        },
        {
          "internalType": "uint256",
          "name": "",
          "type": "uint256"
        },
        {
          "internalType": "bytes",
          "name": "",
          "type": "bytes"
        }
      ],
      "name": "onERC721Received",
      "outputs": [
        {
          "internalType": "bytes4",
          "name": "",
          "type": "bytes4"
        }
      ],
      "stateMutability": "pure",
      "type": "function"
    },
    {
      "inputs": [
        {
          "internalType": "address",
          "name": "",
          "type": "address"
        },
        {
          "internalType": "uint256",
          "name": "",
          "type": "uint256"
        },
        {
          "internalType": "bytes",
          "name": "",
          "type": "bytes"
        }
      ],
      "name": "onERC721Received",
      "outputs": [
        {
          "internalType": "bytes4",
          "name": "",
          "type": "bytes4"
        }
      ],
      "stateMutability": "pure",
      "type": "function"
    },
    {
      "inputs": [],
      "name": "owner",
      "outputs": [
        {
          "internalType": "address",
          "name": "",
          "type": "address"
        }
      ],
      "stateMutability": "view",
      "type": "function"
    },
    {
      "inputs": [
        {
          "internalType": "uint256",
          "name": "tokenId",
          "type": "uint256"
        }
      ],
      "name": "ownerOf",
      "outputs": [
        {
          "internalType": "address",
          "name": "",
          "type": "address"
        }
      ],
      "stateMutability": "view",
      "type": "function"
    },
    {
      "inputs": [],
      "name": "renounceOwnership",
      "outputs": [],
      "stateMutability": "nonpayable",
      "type": "function"
    },
    {
      "inputs": [
        {
          "internalType": "address",
          "name": "from",
          "type": "address"
        },
        {
          "internalType": "address",
          "name": "to",
          "type": "address"
        },
        {
          "internalType": "uint256",
          "name": "tokenId",
          "type": "uint256"
        }
      ],
      "name": "safeTransferFrom",
      "outputs": [],
      "stateMutability": "nonpayable",
      "type": "function"
    },
    {
      "inputs": [
        {
          "internalType": "address",
          "name": "from",
          "type": "address"
        },
        {
          "internalType": "address",
          "name": "to",
          "type": "address"
        },
        {
          "internalType": "uint256",
          "name": "tokenId",
          "type": "uint256"
        },
        {
          "internalType": "bytes",
          "name": "_data",
          "type": "bytes"
        }
      ],
      "name": "safeTransferFrom",
      "outputs": [],
      "stateMutability": "nonpayable",
      "type": "function"
    },
    {
      "inputs": [
        {
          "internalType": "address",
          "name": "operator",
          "type": "address"
        },
        {
          "internalType": "bool",
          "name": "approved",
          "type": "bool"
        }
      ],
      "name": "setApprovalForAll",
      "outputs": [],
      "stateMutability": "nonpayable",
      "type": "function"
    },
    {
      "inputs": [
        {
          "internalType": "address",
          "name": "_contractAddress",
          "type": "address"
        }
      ],
      "name": "setContractAddress",
      "outputs": [],
      "stateMutability": "nonpayable",
      "type": "function"
    },
    {
      "inputs": [
        {
          "internalType": "uint256",
          "name": "_maxPrice",
          "type": "uint256"
        },
        {
          "internalType": "uint256",
          "name": "_tokenLimit",
          "type": "uint256"
        },
        {
          "internalType": "string",
          "name": "__tokenURI",
          "type": "string"
        },
        {
          "internalType": "string",
          "name": "__contractURI",
          "type": "string"
        }
      ],
      "name": "setProperties",
      "outputs": [],
      "stateMutability": "nonpayable",
      "type": "function"
    },
    {
      "inputs": [
        {
          "internalType": "bytes4",
          "name": "interfaceId",
          "type": "bytes4"
        }
      ],
      "name": "supportsInterface",
      "outputs": [
        {
          "internalType": "bool",
          "name": "",
          "type": "bool"
        }
      ],
      "stateMutability": "view",
      "type": "function"
    },
    {
      "inputs": [],
      "name": "symbol",
      "outputs": [
        {
          "internalType": "string",
          "name": "",
          "type": "string"
        }
      ],
      "stateMutability": "view",
      "type": "function"
    },
    {
      "inputs": [
        {
          "internalType": "uint256",
          "name": "tokenId",
          "type": "uint256"
        }
      ],
      "name": "tokenURI",
      "outputs": [
        {
          "internalType": "string",
          "name": "",
          "type": "string"
        }
      ],
      "stateMutability": "view",
      "type": "function"
    },
    {
      "inputs": [],
      "name": "totalSupply",
      "outputs": [
        {
          "internalType": "uint256",
          "name": "",
          "type": "uint256"
        }
      ],
      "stateMutability": "view",
      "type": "function"
    },
    {
      "inputs": [
        {
          "internalType": "address",
          "name": "from",
          "type": "address"
        },
        {
          "internalType": "address",
          "name": "to",
          "type": "address"
        },
        {
          "internalType": "uint256",
          "name": "tokenId",
          "type": "uint256"
        }
      ],
      "name": "transferFrom",
      "outputs": [],
      "stateMutability": "nonpayable",
      "type": "function"
    },
    {
      "inputs": [
        {
          "internalType": "address",
          "name": "newOwner",
          "type": "address"
        }
      ],
      "name": "transferOwnership",
      "outputs": [],
      "stateMutability": "nonpayable",
      "type": "function"
    },
    {
      "inputs": [
        {
          "internalType": "uint256",
          "name": "tokenId",
          "type": "uint256"
        }
      ],
      "name": "unwrap",
      "outputs": [],
      "stateMutability": "nonpayable",
      "type": "function"
    },
    {
      "inputs": [
        {
          "internalType": "uint256",
          "name": "startIndex",
          "type": "uint256"
        },
        {
          "internalType": "uint256",
          "name": "total",
          "type": "uint256"
        }
      ],
      "name": "uwGetAllTokens",
      "outputs": [
        {
          "components": [
            {
              "internalType": "uint256",
              "name": "tokenId",
              "type": "uint256"
            },
            {
              "internalType": "string",
              "name": "name",
              "type": "string"
            },
            {
              "internalType": "bytes32",
              "name": "attributeSeed",
              "type": "bytes32"
            },
            {
              "internalType": "bytes32",
              "name": "dna",
              "type": "bytes32"
            },
            {
              "internalType": "uint128",
              "name": "experience",
              "type": "uint128"
            },
            {
              "internalType": "uint128",
              "name": "timeOfBirth",
              "type": "uint128"
            },
            {
              "internalType": "address",
              "name": "owner",
              "type": "address"
            }
          ],
          "internalType": "struct IPCWrapper.t_raw_ipc[]",
          "name": "",
          "type": "tuple[]"
        }
      ],
      "stateMutability": "view",
      "type": "function"
    },
    {
      "inputs": [
        {
          "internalType": "address",
          "name": "owner",
          "type": "address"
        }
      ],
      "name": "uwGetOwnerTokenTotals",
      "outputs": [
        {
          "internalType": "uint256",
          "name": "",
          "type": "uint256"
        }
      ],
      "stateMutability": "view",
      "type": "function"
    },
    {
      "inputs": [
        {
          "internalType": "address",
          "name": "owner",
          "type": "address"
        },
        {
          "internalType": "uint256",
          "name": "startIndex",
          "type": "uint256"
        },
        {
          "internalType": "uint256",
          "name": "total",
          "type": "uint256"
        }
      ],
      "name": "uwGetTokensOfOwner",
      "outputs": [
        {
          "components": [
            {
              "internalType": "uint256",
              "name": "tokenId",
              "type": "uint256"
            },
            {
              "internalType": "string",
              "name": "name",
              "type": "string"
            },
            {
              "internalType": "bytes32",
              "name": "attributeSeed",
              "type": "bytes32"
            },
            {
              "internalType": "bytes32",
              "name": "dna",
              "type": "bytes32"
            },
            {
              "internalType": "uint128",
              "name": "experience",
              "type": "uint128"
            },
            {
              "internalType": "uint128",
              "name": "timeOfBirth",
              "type": "uint128"
            },
            {
              "internalType": "address",
              "name": "owner",
              "type": "address"
            }
          ],
          "internalType": "struct IPCWrapper.t_raw_ipc[]",
          "name": "",
          "type": "tuple[]"
        }
      ],
      "stateMutability": "view",
      "type": "function"
    },
    {
      "inputs": [
        {
          "internalType": "uint256",
          "name": "tokenId",
          "type": "uint256"
        }
      ],
      "name": "uwOwnerOf",
      "outputs": [
        {
          "internalType": "address",
          "name": "",
          "type": "address"
        }
      ],
      "stateMutability": "view",
      "type": "function"
    },
    {
      "inputs": [],
      "name": "withdrawalVault",
      "outputs": [],
      "stateMutability": "nonpayable",
      "type": "function"
    },
    {
      "inputs": [
        {
          "internalType": "uint256",
          "name": "tokenId",
          "type": "uint256"
        }
      ],
      "name": "wrap",
      "outputs": [],
      "stateMutability": "nonpayable",
      "type": "function"
    }
  ],
  "bytecode": "0x60806040523480156200001157600080fd5b506040518060400160405280601d81526020017f496d6d6f7274616c20506c6179657220436861726163746572732076300000008152506040518060400160405280600581526020017f49504356300000000000000000000000000000000000000000000000000000008152506200009e62000092620001f060201b60201c565b620001f860201b60201c565b8160039080519060200190620000b6929190620002c5565b508060049080519060200190620000cf929190620002c5565b50620000e0620002bc60201b60201c565b600181905550505073f3a8bb61d607c5fa0a9fbd995c16d412f639731f600f60006101000a81548173ffffffffffffffffffffffffffffffffffffffff021916908373ffffffffffffffffffffffffffffffffffffffff1602179055506040518060400160405280601a81526020017f68747470733a2f2f776562736974652e636f6d2f746f6b656e2f000000000000815250601090805190602001906200018a929190620002c5565b506040518060400160405280601d81526020017f68747470733a2f2f776562736974652e636f6d2f636f6e74726163742f00000081525060119080519060200190620001d8929190620002c5565b5060006012819055506103e8601381905550620003da565b600033905090565b60008060009054906101000a900473ffffffffffffffffffffffffffffffffffffffff169050816000806101000a81548173ffffffffffffffffffffffffffffffffffffffff021916908373ffffffffffffffffffffffffffffffffffffffff1602179055508173ffffffffffffffffffffffffffffffffffffffff168173ffffffffffffffffffffffffffffffffffffffff167f8be0079c531659141344cd1fd0a4f28419497f9722a3daafe3b4186f6b6457e060405160405180910390a35050565b60006001905090565b828054620002d390620003a4565b90600052602060002090601f016020900481019282620002f7576000855562000343565b82601f106200031257805160ff191683800117855562000343565b8280016001018555821562000343579182015b828111156200034257825182559160200191906001019062000325565b5b50905062000352919062000356565b5090565b5b808211156200037157600081600090555060010162000357565b5090565b7f4e487b7100000000000000000000000000000000000000000000000000000000600052602260045260246000fd5b60006002820490506001821680620003bd57607f821691505b60208210811415620003d457620003d362000375565b5b50919050565b61531f80620003ea6000396000f3fe60806040526004361061020f5760003560e01c806389edc43811610118578063d764600d116100a0578063e985e9c51161006f578063e985e9c514610803578063ea598cb014610840578063ec0cfd0b14610869578063f0b9e5ba14610894578063f2fde38b146108d15761020f565b8063d764600d14610756578063de0e9a3e14610793578063dfb31a7c146107bc578063e8a3d485146107d85761020f565b8063ad0c1750116100e7578063ad0c175014610639578063b4f01a0214610676578063b88d4fde146106b3578063c2619d13146106dc578063c87b56dd146107195761020f565b806389edc4381461057d5780638da5cb5b146105ba57806395d89b41146105e5578063a22cb465146106105761020f565b80632b321d271161019b5780636352211e1161016a5780636352211e1461049857806369d42148146104d557806370a08231146104ec578063715018a6146105295780637fff1e2f146105405761020f565b80632b321d27146103cc5780633a663c801461040957806342842e0e14610446578063477bddaa1461046f5761020f565b806312ca702e116101e257806312ca702e146102e2578063150b7a021461031257806318160ddd1461034f57806320f95f621461037a57806323b872dd146103a35761020f565b806301ffc9a71461021457806306fdde0314610251578063081812fc1461027c578063095ea7b3146102b9575b600080fd5b34801561022057600080fd5b5061023b60048036038101906102369190613b45565b6108fa565b6040516102489190613b8d565b60405180910390f35b34801561025d57600080fd5b5061026661098c565b6040516102739190613c41565b60405180910390f35b34801561028857600080fd5b506102a3600480360381019061029e9190613c99565b610a1e565b6040516102b09190613d07565b60405180910390f35b3480156102c557600080fd5b506102e060048036038101906102db9190613d4e565b610a9d565b005b3480156102ee57600080fd5b506102f7610be1565b60405161030996959493929190613d9d565b60405180910390f35b34801561031e57600080fd5b5061033960048036038101906103349190613e6a565b610cce565b6040516103469190613f01565b60405180910390f35b34801561035b57600080fd5b50610364610ce3565b6040516103719190613f1c565b60405180910390f35b34801561038657600080fd5b506103a1600480360381019061039c9190613f8d565b610d8a565b005b3480156103af57600080fd5b506103ca60048036038101906103c59190614034565b610dcc565b005b3480156103d857600080fd5b506103f360048036038101906103ee9190614087565b6110f1565b6040516104009190613f1c565b60405180910390f35b34801561041557600080fd5b50610430600480360381019061042b9190613c99565b6111b0565b60405161043d9190613f1c565b60405180910390f35b34801561045257600080fd5b5061046d60048036038101906104689190614034565b6111cd565b005b34801561047b57600080fd5b5061049660048036038101906104919190614087565b6111ed565b005b3480156104a457600080fd5b506104bf60048036038101906104ba9190613c99565b611239565b6040516104cc9190613d07565b60405180910390f35b3480156104e157600080fd5b506104ea611354565b005b3480156104f857600080fd5b50610513600480360381019061050e9190614087565b61140b565b6040516105209190613f1c565b60405180910390f35b34801561053557600080fd5b5061053e6114c4565b005b34801561054c57600080fd5b5061056760048036038101906105629190613c99565b6114d8565b60405161057491906141fc565b60405180910390f35b34801561058957600080fd5b506105a4600480360381019061059f919061421e565b61162f565b6040516105b191906143cf565b60405180910390f35b3480156105c657600080fd5b506105cf6117fd565b6040516105dc9190613d07565b60405180910390f35b3480156105f157600080fd5b506105fa611826565b6040516106079190613c41565b60405180910390f35b34801561061c57600080fd5b506106376004803603810190610632919061441d565b6118b8565b005b34801561064557600080fd5b50610660600480360381019061065b9190614087565b611a30565b60405161066d9190613f1c565b60405180910390f35b34801561068257600080fd5b5061069d60048036038101906106989190613c99565b611a7c565b6040516106aa9190613d07565b60405180910390f35b3480156106bf57600080fd5b506106da60048036038101906106d5919061458d565b611b30565b005b3480156106e857600080fd5b5061070360048036038101906106fe9190614610565b611ba3565b60405161071091906143cf565b60405180910390f35b34801561072557600080fd5b50610740600480360381019061073b9190613c99565b611cd5565b60405161074d9190613c41565b60405180910390f35b34801561076257600080fd5b5061077d6004803603810190610778919061421e565b611d74565b60405161078a91906143cf565b60405180910390f35b34801561079f57600080fd5b506107ba60048036038101906107b59190613c99565b611f64565b005b6107d660048036038101906107d19190614650565b612306565b005b3480156107e457600080fd5b506107ed612495565b6040516107fa9190613c41565b60405180910390f35b34801561080f57600080fd5b5061082a600480360381019061082591906146b0565b612527565b6040516108379190613b8d565b60405180910390f35b34801561084c57600080fd5b5061086760048036038101906108629190613c99565b6125bb565b005b34801561087557600080fd5b5061087e612997565b60405161088b919061476d565b60405180910390f35b3480156108a057600080fd5b506108bb60048036038101906108b6919061478f565b612b29565b6040516108c89190613f01565b60405180910390f35b3480156108dd57600080fd5b506108f860048036038101906108f39190614087565b612b56565b005b60006301ffc9a760e01b827bffffffffffffffffffffffffffffffffffffffffffffffffffffffff1916148061095557506380ac58cd60e01b827bffffffffffffffffffffffffffffffffffffffffffffffffffffffff1916145b806109855750635b5e139f60e01b827bffffffffffffffffffffffffffffffffffffffffffffffffffffffff1916145b9050919050565b60606003805461099b90614832565b80601f01602080910402602001604051908101604052809291908181526020018280546109c790614832565b8015610a145780601f106109e957610100808354040283529160200191610a14565b820191906000526020600020905b8154815290600101906020018083116109f757829003601f168201915b5050505050905090565b6000610a2982612bda565b610a5f576040517fcf4700e400000000000000000000000000000000000000000000000000000000815260040160405180910390fd5b6007600083815260200190815260200160002060000160009054906101000a900473ffffffffffffffffffffffffffffffffffffffff169050919050565b6000610aa882611239565b90508073ffffffffffffffffffffffffffffffffffffffff16610ac9612c39565b73ffffffffffffffffffffffffffffffffffffffff1614610b2c57610af581610af0612c39565b612527565b610b2b576040517fcfb3b94200000000000000000000000000000000000000000000000000000000815260040160405180910390fd5b5b826007600084815260200190815260200160002060000160006101000a81548173ffffffffffffffffffffffffffffffffffffffff021916908373ffffffffffffffffffffffffffffffffffffffff160217905550818373ffffffffffffffffffffffffffffffffffffffff168273ffffffffffffffffffffffffffffffffffffffff167f8c5be1e5ebec7d5bd14f71427d1e84f3dd0314c0f7b2291e5b200ac8c7c3b92560405160405180910390a4505050565b60008060008060006060600960000154600960010154600960020154600960030154600960040160009054906101000a900473ffffffffffffffffffffffffffffffffffffffff166009600501808054610c3a90614832565b80601f0160208091040260200160405190810160405280929190818152602001828054610c6690614832565b8015610cb35780601f10610c8857610100808354040283529160200191610cb3565b820191906000526020600020905b815481529060010190602001808311610c9657829003601f168201915b50505050509050955095509550955095509550909192939495565b600063150b7a0260e01b905095945050505050565b6000600f60009054906101000a900473ffffffffffffffffffffffffffffffffffffffff1673ffffffffffffffffffffffffffffffffffffffff166318160ddd6040518163ffffffff1660e01b815260040160206040518083038186803b158015610d4d57600080fd5b505afa158015610d61573d6000803e3d6000fd5b505050506040513d601f19601f82011682018060405250810190610d859190614879565b905090565b610d92612c41565b8560128190555084601381905550838360109190610db1929190613974565b50818160119190610dc3929190613974565b50505050505050565b6000610dd782612cbf565b90508373ffffffffffffffffffffffffffffffffffffffff168173ffffffffffffffffffffffffffffffffffffffff1614610e3e576040517fa114810000000000000000000000000000000000000000000000000000000000815260040160405180910390fd5b600080610e4a84612d8d565b91509150610e608187610e5b612c39565b612db4565b610eac57610e7586610e70612c39565b612527565b610eab576040517f59c896be00000000000000000000000000000000000000000000000000000000815260040160405180910390fd5b5b600073ffffffffffffffffffffffffffffffffffffffff168573ffffffffffffffffffffffffffffffffffffffff161415610f13576040517fea553b3400000000000000000000000000000000000000000000000000000000815260040160405180910390fd5b610f208686866001612df8565b8015610f2b57600082555b600660008773ffffffffffffffffffffffffffffffffffffffff1673ffffffffffffffffffffffffffffffffffffffff168152602001908152602001600020600081546001900391905081905550600660008673ffffffffffffffffffffffffffffffffffffffff1673ffffffffffffffffffffffffffffffffffffffff1681526020019081526020016000206000815460010191905081905550610ff985610fd5888887612dfe565b7c020000000000000000000000000000000000000000000000000000000017612e26565b600560008681526020019081526020016000208190555060007c02000000000000000000000000000000000000000000000000000000008416141561108157600060018501905060006005600083815260200190815260200160002054141561107f57600154811461107e578360056000838152602001908152602001600020819055505b5b505b838573ffffffffffffffffffffffffffffffffffffffff168773ffffffffffffffffffffffffffffffffffffffff167fddf252ad1be2c89b69c2b068fc378daa952ba7f163c4a11628f55a4df523b3ef60405160405180910390a46110e98686866001612e51565b505050505050565b600080600f60009054906101000a900473ffffffffffffffffffffffffffffffffffffffff1673ffffffffffffffffffffffffffffffffffffffff16638462151c846040518263ffffffff1660e01b815260040161114f9190613d07565b60006040518083038186803b15801561116757600080fd5b505afa15801561117b573d6000803e3d6000fd5b505050506040513d6000823e3d601f19601f820116820180604052508101906111a49190614969565b90508051915050919050565b600060156000838152602001908152602001600020549050919050565b6111e883838360405180602001604052806000815250611b30565b505050565b6111f5612c41565b80600f60006101000a81548173ffffffffffffffffffffffffffffffffffffffff021916908373ffffffffffffffffffffffffffffffffffffffff16021790555050565b60008060156000848152602001908152602001600020549050600081141561130e57600f60009054906101000a900473ffffffffffffffffffffffffffffffffffffffff1673ffffffffffffffffffffffffffffffffffffffff16636352211e846040518263ffffffff1660e01b81526004016112b69190613f1c565b60206040518083038186803b1580156112ce57600080fd5b505afa1580156112e2573d6000803e3d6000fd5b505050506040513d601f19601f8201168201806040525081019061130691906149c7565b91505061134f565b60006014600083815260200190815260200160002060010160009054906101000a900473ffffffffffffffffffffffffffffffffffffffff16905080925050505b919050565b61135c612c41565b60003373ffffffffffffffffffffffffffffffffffffffff164760405161138290614a25565b60006040518083038185875af1925050503d80600081146113bf576040519150601f19603f3d011682016040523d82523d6000602084013e6113c4565b606091505b5050905080611408576040517f08c379a00000000000000000000000000000000000000000000000000000000081526004016113ff90614a86565b60405180910390fd5b50565b60008073ffffffffffffffffffffffffffffffffffffffff168273ffffffffffffffffffffffffffffffffffffffff161415611473576040517f8f4eb60400000000000000000000000000000000000000000000000000000000815260040160405180910390fd5b67ffffffffffffffff600660008473ffffffffffffffffffffffffffffffffffffffff1673ffffffffffffffffffffffffffffffffffffffff16815260200190815260200160002054169050919050565b6114cc612c41565b6114d6600061315e565b565b6114e06139fa565b6000806000806000600f60009054906101000a900473ffffffffffffffffffffffffffffffffffffffff1673ffffffffffffffffffffffffffffffffffffffff16637fff1e2f886040518263ffffffff1660e01b81526004016115439190613f1c565b60006040518083038186803b15801561155b57600080fd5b505afa15801561156f573d6000803e3d6000fd5b505050506040513d6000823e3d601f19601f820116820180604052508101906115989190614b9f565b9450945094509450945060006115ad88611239565b905060006040518060e001604052808a8152602001888152602001878152602001868152602001856fffffffffffffffffffffffffffffffff168152602001846fffffffffffffffffffffffffffffffff1681526020018373ffffffffffffffffffffffffffffffffffffffff16815250905080975050505050505050919050565b60606000601660008673ffffffffffffffffffffffffffffffffffffffff1673ffffffffffffffffffffffffffffffffffffffff1681526020019081526020016000208054806020026020016040519081016040528092919081815260200182805480156116bc57602002820191906000526020600020905b8154815260200190600101908083116116a8575b50505050509050600081519050808511156116d657600094505b60008414806116ef575084816116ec9190614c65565b84115b156117035784816117009190614c65565b93505b60008467ffffffffffffffff81111561171f5761171e614462565b5b60405190808252806020026020018201604052801561175857816020015b6117456139fa565b81526020019060019003908161173d5790505b509050600082141561176f578093505050506117f6565b60008061177a6139fa565b600092505b878310156117ec5785838a6117949190614c99565b815181106117a5576117a4614cef565b5b602002602001015191506117b8826114d8565b9050808484815181106117ce576117cd614cef565b5b602002602001018190525082806117e490614d1e565b93505061177f565b8396505050505050505b9392505050565b60008060009054906101000a900473ffffffffffffffffffffffffffffffffffffffff16905090565b60606004805461183590614832565b80601f016020809104026020016040519081016040528092919081815260200182805461186190614832565b80156118ae5780601f10611883576101008083540402835291602001916118ae565b820191906000526020600020905b81548152906001019060200180831161189157829003601f168201915b5050505050905090565b6118c0612c39565b73ffffffffffffffffffffffffffffffffffffffff168273ffffffffffffffffffffffffffffffffffffffff161415611925576040517fb06307db00000000000000000000000000000000000000000000000000000000815260040160405180910390fd5b8060086000611932612c39565b73ffffffffffffffffffffffffffffffffffffffff1673ffffffffffffffffffffffffffffffffffffffff16815260200190815260200160002060008473ffffffffffffffffffffffffffffffffffffffff1673ffffffffffffffffffffffffffffffffffffffff16815260200190815260200160002060006101000a81548160ff0219169083151502179055508173ffffffffffffffffffffffffffffffffffffffff166119df612c39565b73ffffffffffffffffffffffffffffffffffffffff167f17307eab39ab6107e8899845ad3d59bd9653f200f220920489ca2b5937696c3183604051611a249190613b8d565b60405180910390a35050565b6000601660008373ffffffffffffffffffffffffffffffffffffffff1673ffffffffffffffffffffffffffffffffffffffff168152602001908152602001600020805490509050919050565b6000600f60009054906101000a900473ffffffffffffffffffffffffffffffffffffffff1673ffffffffffffffffffffffffffffffffffffffff16636352211e836040518263ffffffff1660e01b8152600401611ad99190613f1c565b60206040518083038186803b158015611af157600080fd5b505afa158015611b05573d6000803e3d6000fd5b505050506040513d601f19601f82011682018060405250810190611b2991906149c7565b9050919050565b611b3b848484610dcc565b60008373ffffffffffffffffffffffffffffffffffffffff163b14611b9d57611b6684848484613222565b611b9c576040517fd1a57ed600000000000000000000000000000000000000000000000000000000815260040160405180910390fd5b5b50505050565b60606000611baf610ce3565b90506000841480611bbf57508084115b15611bc957600193505b6000831480611bee575083600182611be19190614c99565b611beb9190614c65565b83115b15611c02578381611bff9190614c65565b92505b60008367ffffffffffffffff811115611c1e57611c1d614462565b5b604051908082528060200260200182016040528015611c5757816020015b611c446139fa565b815260200190600190039081611c3c5790505b5090506000821415611c6d578092505050611ccf565b60005b848111611cc85760008187611c859190614c99565b90506000611c92826114d8565b905080848481518110611ca857611ca7614cef565b5b602002602001018190525050508080611cc090614d1e565b915050611c70565b8193505050505b92915050565b6060611ce082612bda565b611d16576040517fa14c4b5000000000000000000000000000000000000000000000000000000000815260040160405180910390fd5b6000611d20613382565b9050600081511415611d415760405180602001604052806000815250611d6c565b80611d4b84613414565b604051602001611d5c929190614da3565b6040516020818303038152906040525b915050919050565b60606000600f60009054906101000a900473ffffffffffffffffffffffffffffffffffffffff1673ffffffffffffffffffffffffffffffffffffffff16638462151c866040518263ffffffff1660e01b8152600401611dd39190613d07565b60006040518083038186803b158015611deb57600080fd5b505afa158015611dff573d6000803e3d6000fd5b505050506040513d6000823e3d601f19601f82011682018060405250810190611e289190614969565b905060008151905080851115611e3d57600094505b6000841480611e5657508481611e539190614c65565b84115b15611e6a578481611e679190614c65565b93505b60008467ffffffffffffffff811115611e8657611e85614462565b5b604051908082528060200260200182016040528015611ebf57816020015b611eac6139fa565b815260200190600190039081611ea45790505b5090506000821415611ed657809350505050611f5d565b600080611ee16139fa565b600092505b87831015611f535785838a611efb9190614c99565b81518110611f0c57611f0b614cef565b5b60200260200101519150611f1f826114d8565b905080848481518110611f3557611f34614cef565b5b60200260200101819052508280611f4b90614d1e565b935050611ee6565b8396505050505050505b9392505050565b6000601560008381526020019081526020016000205490506000811415611fc0576040517f08c379a0000000000000000000000000000000000000000000000000000000008152600401611fb790614e13565b60405180910390fd5b60003390508073ffffffffffffffffffffffffffffffffffffffff166014600084815260200190815260200160002060010160009054906101000a900473ffffffffffffffffffffffffffffffffffffffff1673ffffffffffffffffffffffffffffffffffffffff1614612069576040517f08c379a000000000000000000000000000000000000000000000000000000000815260040161206090614e7f565b60405180910390fd5b6015600084815260200190815260200160002060009055601460008381526020019081526020016000206000808201600090556001820160006101000a81549073ffffffffffffffffffffffffffffffffffffffff0219169055505060005b601660008373ffffffffffffffffffffffffffffffffffffffff1673ffffffffffffffffffffffffffffffffffffffff168152602001908152602001600020805490508110156121e85783601660008473ffffffffffffffffffffffffffffffffffffffff1673ffffffffffffffffffffffffffffffffffffffff168152602001908152602001600020828154811061216457612163614cef565b5b906000526020600020015414156121d557601660008373ffffffffffffffffffffffffffffffffffffffff1673ffffffffffffffffffffffffffffffffffffffff16815260200190815260200160002081815481106121c6576121c5614cef565b5b90600052602060002001600090555b80806121e090614d1e565b9150506120c8565b5060006121f484611239565b90506121ff83613464565b3073ffffffffffffffffffffffffffffffffffffffff168173ffffffffffffffffffffffffffffffffffffffff1614156122c557600f60009054906101000a900473ffffffffffffffffffffffffffffffffffffffff1673ffffffffffffffffffffffffffffffffffffffff166342842e0e3084876040518463ffffffff1660e01b815260040161229293929190614e9f565b600060405180830381600087803b1580156122ac57600080fd5b505af11580156122c0573d6000803e3d6000fd5b505050505b7f175e3dad2e6c10f120d3216de54ebe7abeee5b7f33c8941af43e73a0315e4a808385846040516122f893929190614ed6565b60405180910390a150505050565b6000601560008581526020019081526020016000205490503373ffffffffffffffffffffffffffffffffffffffff166014600083815260200190815260200160002060010160009054906101000a900473ffffffffffffffffffffffffffffffffffffffff1673ffffffffffffffffffffffffffffffffffffffff16146123c2576040517f08c379a00000000000000000000000000000000000000000000000000000000081526004016123b990614f59565b60405180910390fd5b600f60009054906101000a900473ffffffffffffffffffffffffffffffffffffffff1673ffffffffffffffffffffffffffffffffffffffff1663dfb31a7c348686866040518563ffffffff1660e01b815260040161242293929190614fa6565b6000604051808303818588803b15801561243b57600080fd5b505af115801561244f573d6000803e3d6000fd5b50505050507f60319c6511f3c90c2a37bcd711c518923ef5dd5528be697b9b4a23a1aace6c9c84848460405161248793929190614fa6565b60405180910390a150505050565b6060601180546124a490614832565b80601f01602080910402602001604051908101604052809291908181526020018280546124d090614832565b801561251d5780601f106124f25761010080835404028352916020019161251d565b820191906000526020600020905b81548152906001019060200180831161250057829003601f168201915b5050505050905090565b6000600860008473ffffffffffffffffffffffffffffffffffffffff1673ffffffffffffffffffffffffffffffffffffffff16815260200190815260200160002060008373ffffffffffffffffffffffffffffffffffffffff1673ffffffffffffffffffffffffffffffffffffffff16815260200190815260200160002060009054906101000a900460ff16905092915050565b600060156000838152602001908152602001600020549050601354821180156125e45750600081145b15612624576040517f08c379a000000000000000000000000000000000000000000000000000000000815260040161261b90615024565b60405180910390fd5b600033905060008214612710578073ffffffffffffffffffffffffffffffffffffffff166014600084815260200190815260200160002060010160009054906101000a900473ffffffffffffffffffffffffffffffffffffffff1673ffffffffffffffffffffffffffffffffffffffff16146126d5576040517f08c379a00000000000000000000000000000000000000000000000000000000081526004016126cc90614e7f565b60405180910390fd5b6040517f08c379a000000000000000000000000000000000000000000000000000000000815260040161270790615090565b60405180910390fd5b612718613472565b9150600f60009054906101000a900473ffffffffffffffffffffffffffffffffffffffff1673ffffffffffffffffffffffffffffffffffffffff166342842e0e8230866040518463ffffffff1660e01b815260040161277993929190614e9f565b600060405180830381600087803b15801561279357600080fd5b505af11580156127a7573d6000803e3d6000fd5b50505050600f60009054906101000a900473ffffffffffffffffffffffffffffffffffffffff1673ffffffffffffffffffffffffffffffffffffffff16633d4cfe21846012546040518363ffffffff1660e01b815260040161280a9291906150b0565b600060405180830381600087803b15801561282457600080fd5b505af1158015612838573d6000803e3d6000fd5b5050505060405180604001604052808481526020018273ffffffffffffffffffffffffffffffffffffffff16815250601460008481526020019081526020016000206000820151816000015560208201518160010160006101000a81548173ffffffffffffffffffffffffffffffffffffffff021916908373ffffffffffffffffffffffffffffffffffffffff160217905550905050816015600085815260200190815260200160002081905550601660008273ffffffffffffffffffffffffffffffffffffffff1673ffffffffffffffffffffffffffffffffffffffff16815260200190815260200160002082908060018154018082558091505060019003906000526020600020016000909190919091505561295781600161347c565b7ff90572efd1ab4fb9c6b9dabfd24d103ce15482a9ec0c50e0e32618708783b15b82848360405161298a93929190614ed6565b60405180910390a1505050565b61299f613a77565b6129a7612c41565b60006040518060a00160405280600f60009054906101000a900473ffffffffffffffffffffffffffffffffffffffff1673ffffffffffffffffffffffffffffffffffffffff168152602001601080546129ff90614832565b80601f0160208091040260200160405190810160405280929190818152602001828054612a2b90614832565b8015612a785780601f10612a4d57610100808354040283529160200191612a78565b820191906000526020600020905b815481529060010190602001808311612a5b57829003601f168201915b5050505050815260200160118054612a8f90614832565b80601f0160208091040260200160405190810160405280929190818152602001828054612abb90614832565b8015612b085780601f10612add57610100808354040283529160200191612b08565b820191906000526020600020905b815481529060010190602001808311612aeb57829003601f168201915b50505050508152602001601254815260200160135481525090508091505090565b60007ff0b9e5baf647f945565b0ac04522b519449041bdd44f952626b9ead9ff3692419050949350505050565b612b5e612c41565b600073ffffffffffffffffffffffffffffffffffffffff168173ffffffffffffffffffffffffffffffffffffffff161415612bce576040517f08c379a0000000000000000000000000000000000000000000000000000000008152600401612bc59061514b565b60405180910390fd5b612bd78161315e565b50565b600081612be561349a565b11158015612bf4575060015482105b8015612c32575060007c0100000000000000000000000000000000000000000000000000000000600560008581526020019081526020016000205416145b9050919050565b600033905090565b612c496134a3565b73ffffffffffffffffffffffffffffffffffffffff16612c676117fd565b73ffffffffffffffffffffffffffffffffffffffff1614612cbd576040517f08c379a0000000000000000000000000000000000000000000000000000000008152600401612cb4906151b7565b60405180910390fd5b565b60008082905080612cce61349a565b11612d5657600154811015612d555760006005600083815260200190815260200160002054905060007c010000000000000000000000000000000000000000000000000000000082161415612d53575b6000811415612d49576005600083600190039350838152602001908152602001600020549050612d1e565b8092505050612d88565b505b5b6040517fdf2d9b4200000000000000000000000000000000000000000000000000000000815260040160405180910390fd5b919050565b60008060006007600085815260200190815260200160002090508092508254915050915091565b600073ffffffffffffffffffffffffffffffffffffffff8316925073ffffffffffffffffffffffffffffffffffffffff821691508382148383141790509392505050565b50505050565b60008060e883901c905060e8612e158686846134ab565b62ffffff16901b9150509392505050565b600073ffffffffffffffffffffffffffffffffffffffff83169250814260a01b178317905092915050565b600060156000848152602001908152602001600020549050836014600083815260200190815260200160002060010160006101000a81548173ffffffffffffffffffffffffffffffffffffffff021916908373ffffffffffffffffffffffffffffffffffffffff16021790555060005b601660008773ffffffffffffffffffffffffffffffffffffffff1673ffffffffffffffffffffffffffffffffffffffff168152602001908152602001600020805490508110156130f05783601660008873ffffffffffffffffffffffffffffffffffffffff1673ffffffffffffffffffffffffffffffffffffffff1681526020019081526020016000208281548110612f5d57612f5c614cef565b5b906000526020600020015414156130dd57601660008773ffffffffffffffffffffffffffffffffffffffff1673ffffffffffffffffffffffffffffffffffffffff1681526020019081526020016000206001601660008973ffffffffffffffffffffffffffffffffffffffff1673ffffffffffffffffffffffffffffffffffffffff16815260200190815260200160002080549050612ffc9190614c65565b8154811061300d5761300c614cef565b5b9060005260206000200154601660008873ffffffffffffffffffffffffffffffffffffffff1673ffffffffffffffffffffffffffffffffffffffff168152602001908152602001600020838154811061306957613068614cef565b5b9060005260206000200181905550601660008773ffffffffffffffffffffffffffffffffffffffff1673ffffffffffffffffffffffffffffffffffffffff1681526020019081526020016000208054806130c6576130c56151d7565b5b600190038181906000526020600020016000905590555b80806130e890614d1e565b915050612ec1565b50601660008573ffffffffffffffffffffffffffffffffffffffff1673ffffffffffffffffffffffffffffffffffffffff1681526020019081526020016000208390806001815401808255809150506001900390600052602060002001600090919091909150555050505050565b60008060009054906101000a900473ffffffffffffffffffffffffffffffffffffffff169050816000806101000a81548173ffffffffffffffffffffffffffffffffffffffff021916908373ffffffffffffffffffffffffffffffffffffffff1602179055508173ffffffffffffffffffffffffffffffffffffffff168173ffffffffffffffffffffffffffffffffffffffff167f8be0079c531659141344cd1fd0a4f28419497f9722a3daafe3b4186f6b6457e060405160405180910390a35050565b60008373ffffffffffffffffffffffffffffffffffffffff1663150b7a02613248612c39565b8786866040518563ffffffff1660e01b815260040161326a949392919061525b565b602060405180830381600087803b15801561328457600080fd5b505af19250505080156132b557506040513d601f19601f820116820180604052508101906132b291906152bc565b60015b61332f573d80600081146132e5576040519150601f19603f3d011682016040523d82523d6000602084013e6132ea565b606091505b50600081511415613327576040517fd1a57ed600000000000000000000000000000000000000000000000000000000815260040160405180910390fd5b805181602001fd5b63150b7a0260e01b7bffffffffffffffffffffffffffffffffffffffffffffffffffffffff1916817bffffffffffffffffffffffffffffffffffffffffffffffffffffffff191614915050949350505050565b60606010805461339190614832565b80601f01602080910402602001604051908101604052809291908181526020018280546133bd90614832565b801561340a5780601f106133df5761010080835404028352916020019161340a565b820191906000526020600020905b8154815290600101906020018083116133ed57829003601f168201915b5050505050905090565b606060806040510190508060405280825b60011561345057600183039250600a81066030018353600a810490508061344b57613450565b613425565b508181036020830392508083525050919050565b61346f8160006134b4565b50565b6000600154905090565b613496828260405180602001604052806000815250613708565b5050565b60006001905090565b600033905090565b60009392505050565b60006134bf83612cbf565b905060008190506000806134d286612d8d565b91509150841561353b576134ee81846134e9612c39565b612db4565b61353a57613503836134fe612c39565b612527565b613539576040517f59c896be00000000000000000000000000000000000000000000000000000000815260040160405180910390fd5b5b5b613549836000886001612df8565b801561355457600082555b600160806001901b03600660008573ffffffffffffffffffffffffffffffffffffffff1673ffffffffffffffffffffffffffffffffffffffff168152602001908152602001600020600082825401925050819055506135fc836135b985600088612dfe565b7c02000000000000000000000000000000000000000000000000000000007c01000000000000000000000000000000000000000000000000000000001717612e26565b600560008881526020019081526020016000208190555060007c020000000000000000000000000000000000000000000000000000000085161415613684576000600187019050600060056000838152602001908152602001600020541415613682576001548114613681578460056000838152602001908152602001600020819055505b5b505b85600073ffffffffffffffffffffffffffffffffffffffff168473ffffffffffffffffffffffffffffffffffffffff167fddf252ad1be2c89b69c2b068fc378daa952ba7f163c4a11628f55a4df523b3ef60405160405180910390a46136ee836000886001612e51565b600260008154809291906001019190505550505050505050565b61371283836137a6565b60008373ffffffffffffffffffffffffffffffffffffffff163b146137a15760006001549050600083820390505b6137536000868380600101945086613222565b613789576040517fd1a57ed600000000000000000000000000000000000000000000000000000000815260040160405180910390fd5b81811061374057816001541461379e57600080fd5b50505b505050565b6000600154905060008214156137e8576040517fb562e8dd00000000000000000000000000000000000000000000000000000000815260040160405180910390fd5b6137f56000848385612df8565b600160406001901b178202600660008573ffffffffffffffffffffffffffffffffffffffff1673ffffffffffffffffffffffffffffffffffffffff1681526020019081526020016000206000828254019250508190555061386c8361385d6000866000612dfe565b61386685613964565b17612e26565b6005600083815260200190815260200160002081905550600080838301905073ffffffffffffffffffffffffffffffffffffffff85169150828260007fddf252ad1be2c89b69c2b068fc378daa952ba7f163c4a11628f55a4df523b3ef600080a4600183015b81811461390d57808360007fddf252ad1be2c89b69c2b068fc378daa952ba7f163c4a11628f55a4df523b3ef600080a46001810190506138d2565b506000821415613949576040517f2e07630000000000000000000000000000000000000000000000000000000000815260040160405180910390fd5b80600181905550505061395f6000848385612e51565b505050565b60006001821460e11b9050919050565b82805461398090614832565b90600052602060002090601f0160209004810192826139a257600085556139e9565b82601f106139bb57803560ff19168380011785556139e9565b828001600101855582156139e9579182015b828111156139e85782358255916020019190600101906139cd565b5b5090506139f69190613abc565b5090565b6040518060e001604052806000815260200160608152602001600080191681526020016000801916815260200160006fffffffffffffffffffffffffffffffff16815260200160006fffffffffffffffffffffffffffffffff168152602001600073ffffffffffffffffffffffffffffffffffffffff1681525090565b6040518060a00160405280600073ffffffffffffffffffffffffffffffffffffffff168152602001606081526020016060815260200160008152602001600081525090565b5b80821115613ad5576000816000905550600101613abd565b5090565b6000604051905090565b600080fd5b600080fd5b60007fffffffff0000000000000000000000000000000000000000000000000000000082169050919050565b613b2281613aed565b8114613b2d57600080fd5b50565b600081359050613b3f81613b19565b92915050565b600060208284031215613b5b57613b5a613ae3565b5b6000613b6984828501613b30565b91505092915050565b60008115159050919050565b613b8781613b72565b82525050565b6000602082019050613ba26000830184613b7e565b92915050565b600081519050919050565b600082825260208201905092915050565b60005b83811015613be2578082015181840152602081019050613bc7565b83811115613bf1576000848401525b50505050565b6000601f19601f8301169050919050565b6000613c1382613ba8565b613c1d8185613bb3565b9350613c2d818560208601613bc4565b613c3681613bf7565b840191505092915050565b60006020820190508181036000830152613c5b8184613c08565b905092915050565b6000819050919050565b613c7681613c63565b8114613c8157600080fd5b50565b600081359050613c9381613c6d565b92915050565b600060208284031215613caf57613cae613ae3565b5b6000613cbd84828501613c84565b91505092915050565b600073ffffffffffffffffffffffffffffffffffffffff82169050919050565b6000613cf182613cc6565b9050919050565b613d0181613ce6565b82525050565b6000602082019050613d1c6000830184613cf8565b92915050565b613d2b81613ce6565b8114613d3657600080fd5b50565b600081359050613d4881613d22565b92915050565b60008060408385031215613d6557613d64613ae3565b5b6000613d7385828601613d39565b9250506020613d8485828601613c84565b9150509250929050565b613d9781613c63565b82525050565b600060c082019050613db26000830189613d8e565b613dbf6020830188613d8e565b613dcc6040830187613d8e565b613dd96060830186613d8e565b613de66080830185613cf8565b81810360a0830152613df88184613c08565b9050979650505050505050565b600080fd5b600080fd5b600080fd5b60008083601f840112613e2a57613e29613e05565b5b8235905067ffffffffffffffff811115613e4757613e46613e0a565b5b602083019150836001820283011115613e6357613e62613e0f565b5b9250929050565b600080600080600060808688031215613e8657613e85613ae3565b5b6000613e9488828901613d39565b9550506020613ea588828901613d39565b9450506040613eb688828901613c84565b935050606086013567ffffffffffffffff811115613ed757613ed6613ae8565b5b613ee388828901613e14565b92509250509295509295909350565b613efb81613aed565b82525050565b6000602082019050613f166000830184613ef2565b92915050565b6000602082019050613f316000830184613d8e565b92915050565b60008083601f840112613f4d57613f4c613e05565b5b8235905067ffffffffffffffff811115613f6a57613f69613e0a565b5b602083019150836001820283011115613f8657613f85613e0f565b5b9250929050565b60008060008060008060808789031215613faa57613fa9613ae3565b5b6000613fb889828a01613c84565b9650506020613fc989828a01613c84565b955050604087013567ffffffffffffffff811115613fea57613fe9613ae8565b5b613ff689828a01613f37565b9450945050606087013567ffffffffffffffff81111561401957614018613ae8565b5b61402589828a01613f37565b92509250509295509295509295565b60008060006060848603121561404d5761404c613ae3565b5b600061405b86828701613d39565b935050602061406c86828701613d39565b925050604061407d86828701613c84565b9150509250925092565b60006020828403121561409d5761409c613ae3565b5b60006140ab84828501613d39565b91505092915050565b6140bd81613c63565b82525050565b600082825260208201905092915050565b60006140df82613ba8565b6140e981856140c3565b93506140f9818560208601613bc4565b61410281613bf7565b840191505092915050565b6000819050919050565b6141208161410d565b82525050565b60006fffffffffffffffffffffffffffffffff82169050919050565b61414b81614126565b82525050565b61415a81613ce6565b82525050565b600060e08301600083015161417860008601826140b4565b506020830151848203602086015261419082826140d4565b91505060408301516141a56040860182614117565b5060608301516141b86060860182614117565b5060808301516141cb6080860182614142565b5060a08301516141de60a0860182614142565b5060c08301516141f160c0860182614151565b508091505092915050565b600060208201905081810360008301526142168184614160565b905092915050565b60008060006060848603121561423757614236613ae3565b5b600061424586828701613d39565b935050602061425686828701613c84565b925050604061426786828701613c84565b9150509250925092565b600081519050919050565b600082825260208201905092915050565b6000819050602082019050919050565b600060e0830160008301516142b560008601826140b4565b50602083015184820360208601526142cd82826140d4565b91505060408301516142e26040860182614117565b5060608301516142f56060860182614117565b5060808301516143086080860182614142565b5060a083015161431b60a0860182614142565b5060c083015161432e60c0860182614151565b508091505092915050565b6000614345838361429d565b905092915050565b6000602082019050919050565b600061436582614271565b61436f818561427c565b9350836020820285016143818561428d565b8060005b858110156143bd578484038952815161439e8582614339565b94506143a98361434d565b925060208a01995050600181019050614385565b50829750879550505050505092915050565b600060208201905081810360008301526143e9818461435a565b905092915050565b6143fa81613b72565b811461440557600080fd5b50565b600081359050614417816143f1565b92915050565b6000806040838503121561443457614433613ae3565b5b600061444285828601613d39565b925050602061445385828601614408565b9150509250929050565b600080fd5b7f4e487b7100000000000000000000000000000000000000000000000000000000600052604160045260246000fd5b61449a82613bf7565b810181811067ffffffffffffffff821117156144b9576144b8614462565b5b80604052505050565b60006144cc613ad9565b90506144d88282614491565b919050565b600067ffffffffffffffff8211156144f8576144f7614462565b5b61450182613bf7565b9050602081019050919050565b82818337600083830152505050565b600061453061452b846144dd565b6144c2565b90508281526020810184848401111561454c5761454b61445d565b5b61455784828561450e565b509392505050565b600082601f83011261457457614573613e05565b5b813561458484826020860161451d565b91505092915050565b600080600080608085870312156145a7576145a6613ae3565b5b60006145b587828801613d39565b94505060206145c687828801613d39565b93505060406145d787828801613c84565b925050606085013567ffffffffffffffff8111156145f8576145f7613ae8565b5b6146048782880161455f565b91505092959194509250565b6000806040838503121561462757614626613ae3565b5b600061463585828601613c84565b925050602061464685828601613c84565b9150509250929050565b60008060006040848603121561466957614668613ae3565b5b600061467786828701613c84565b935050602084013567ffffffffffffffff81111561469857614697613ae8565b5b6146a486828701613f37565b92509250509250925092565b600080604083850312156146c7576146c6613ae3565b5b60006146d585828601613d39565b92505060206146e685828601613d39565b9150509250929050565b600060a0830160008301516147086000860182614151565b506020830151848203602086015261472082826140d4565b9150506040830151848203604086015261473a82826140d4565b915050606083015161474f60608601826140b4565b50608083015161476260808601826140b4565b508091505092915050565b6000602082019050818103600083015261478781846146f0565b905092915050565b600080600080606085870312156147a9576147a8613ae3565b5b60006147b787828801613d39565b94505060206147c887828801613c84565b935050604085013567ffffffffffffffff8111156147e9576147e8613ae8565b5b6147f587828801613e14565b925092505092959194509250565b7f4e487b7100000000000000000000000000000000000000000000000000000000600052602260045260246000fd5b6000600282049050600182168061484a57607f821691505b6020821081141561485e5761485d614803565b5b50919050565b60008151905061487381613c6d565b92915050565b60006020828403121561488f5761488e613ae3565b5b600061489d84828501614864565b91505092915050565b600067ffffffffffffffff8211156148c1576148c0614462565b5b602082029050602081019050919050565b60006148e56148e0846148a6565b6144c2565b9050808382526020820190506020840283018581111561490857614907613e0f565b5b835b81811015614931578061491d8882614864565b84526020840193505060208101905061490a565b5050509392505050565b600082601f8301126149505761494f613e05565b5b81516149608482602086016148d2565b91505092915050565b60006020828403121561497f5761497e613ae3565b5b600082015167ffffffffffffffff81111561499d5761499c613ae8565b5b6149a98482850161493b565b91505092915050565b6000815190506149c181613d22565b92915050565b6000602082840312156149dd576149dc613ae3565b5b60006149eb848285016149b2565b91505092915050565b600081905092915050565b50565b6000614a0f6000836149f4565b9150614a1a826149ff565b600082019050919050565b6000614a3082614a02565b9150819050919050565b7f5641554c545f5452414e534645525f4641494c45440000000000000000000000600082015250565b6000614a70601583613bb3565b9150614a7b82614a3a565b602082019050919050565b60006020820190508181036000830152614a9f81614a63565b9050919050565b600067ffffffffffffffff821115614ac157614ac0614462565b5b614aca82613bf7565b9050602081019050919050565b6000614aea614ae584614aa6565b6144c2565b905082815260208101848484011115614b0657614b0561445d565b5b614b11848285613bc4565b509392505050565b600082601f830112614b2e57614b2d613e05565b5b8151614b3e848260208601614ad7565b91505092915050565b614b508161410d565b8114614b5b57600080fd5b50565b600081519050614b6d81614b47565b92915050565b614b7c81614126565b8114614b8757600080fd5b50565b600081519050614b9981614b73565b92915050565b600080600080600060a08688031215614bbb57614bba613ae3565b5b600086015167ffffffffffffffff811115614bd957614bd8613ae8565b5b614be588828901614b19565b9550506020614bf688828901614b5e565b9450506040614c0788828901614b5e565b9350506060614c1888828901614b8a565b9250506080614c2988828901614b8a565b9150509295509295909350565b7f4e487b7100000000000000000000000000000000000000000000000000000000600052601160045260246000fd5b6000614c7082613c63565b9150614c7b83613c63565b925082821015614c8e57614c8d614c36565b5b828203905092915050565b6000614ca482613c63565b9150614caf83613c63565b9250827fffffffffffffffffffffffffffffffffffffffffffffffffffffffffffffffff03821115614ce457614ce3614c36565b5b828201905092915050565b7f4e487b7100000000000000000000000000000000000000000000000000000000600052603260045260246000fd5b6000614d2982613c63565b91507fffffffffffffffffffffffffffffffffffffffffffffffffffffffffffffffff821415614d5c57614d5b614c36565b5b600182019050919050565b600081905092915050565b6000614d7d82613ba8565b614d878185614d67565b9350614d97818560208601613bc4565b80840191505092915050565b6000614daf8285614d72565b9150614dbb8284614d72565b91508190509392505050565b7f544f4b454e5f444f45535f4e4f545f4558495354000000000000000000000000600082015250565b6000614dfd601483613bb3565b9150614e0882614dc7565b602082019050919050565b60006020820190508181036000830152614e2c81614df0565b9050919050565b7f4e4f545f4f574e4552535f544f4b454e00000000000000000000000000000000600082015250565b6000614e69601083613bb3565b9150614e7482614e33565b602082019050919050565b60006020820190508181036000830152614e9881614e5c565b9050919050565b6000606082019050614eb46000830186613cf8565b614ec16020830185613cf8565b614ece6040830184613d8e565b949350505050565b6000606082019050614eeb6000830186613d8e565b614ef86020830185613d8e565b614f056040830184613cf8565b949350505050565b7f544f4b454e5f4e4f545f4f574e45520000000000000000000000000000000000600082015250565b6000614f43600f83613bb3565b9150614f4e82614f0d565b602082019050919050565b60006020820190508181036000830152614f7281614f36565b9050919050565b6000614f858385613bb3565b9350614f9283858461450e565b614f9b83613bf7565b840190509392505050565b6000604082019050614fbb6000830186613d8e565b8181036020830152614fce818486614f79565b9050949350505050565b7f544f4b454e5f4c494d49545f5245414348454400000000000000000000000000600082015250565b600061500e601383613bb3565b915061501982614fd8565b602082019050919050565b6000602082019050818103600083015261503d81615001565b9050919050565b7f544f4b454e5f414c52454144595f575241505045440000000000000000000000600082015250565b600061507a601583613bb3565b915061508582615044565b602082019050919050565b600060208201905081810360008301526150a98161506d565b9050919050565b60006040820190506150c56000830185613d8e565b6150d26020830184613d8e565b9392505050565b7f4f776e61626c653a206e6577206f776e657220697320746865207a65726f206160008201527f6464726573730000000000000000000000000000000000000000000000000000602082015250565b6000615135602683613bb3565b9150615140826150d9565b604082019050919050565b6000602082019050818103600083015261516481615128565b9050919050565b7f4f776e61626c653a2063616c6c6572206973206e6f7420746865206f776e6572600082015250565b60006151a1602083613bb3565b91506151ac8261516b565b602082019050919050565b600060208201905081810360008301526151d081615194565b9050919050565b7f4e487b7100000000000000000000000000000000000000000000000000000000600052603160045260246000fd5b600081519050919050565b600082825260208201905092915050565b600061522d82615206565b6152378185615211565b9350615247818560208601613bc4565b61525081613bf7565b840191505092915050565b60006080820190506152706000830187613cf8565b61527d6020830186613cf8565b61528a6040830185613d8e565b818103606083015261529c8184615222565b905095945050505050565b6000815190506152b681613b19565b92915050565b6000602082840312156152d2576152d1613ae3565b5b60006152e0848285016152a7565b9150509291505056fea26469706673582212200297462f39f6e224d9a8a49ecff427c75e220340f6f51aafe9bcedbe8f7782a064736f6c63430008090033",
  "linkReferences": {},
  "deployedLinkReferences": {}
}