{
  "_format": "hh-sol-artifact-1",
  "contractName": "IPCWrapper",
  "sourceName": "contracts/IPCWrapper.sol",
  "abi": [
    {
      "inputs": [],
      "stateMutability": "nonpayable",
      "type": "constructor"
    },
    {
      "inputs": [],
      "name": "ApprovalCallerNotOwnerNorApproved",
      "type": "error"
    },
    {
      "inputs": [],
      "name": "ApprovalQueryForNonexistentToken",
      "type": "error"
    },
    {
      "inputs": [],
      "name": "ApproveToCaller",
      "type": "error"
    },
    {
      "inputs": [],
      "name": "BalanceQueryForZeroAddress",
      "type": "error"
    },
    {
      "inputs": [],
      "name": "MintERC2309QuantityExceedsLimit",
      "type": "error"
    },
    {
      "inputs": [],
      "name": "MintToZeroAddress",
      "type": "error"
    },
    {
      "inputs": [],
      "name": "MintZeroQuantity",
      "type": "error"
    },
    {
      "inputs": [],
      "name": "OwnerQueryForNonexistentToken",
      "type": "error"
    },
    {
      "inputs": [],
      "name": "OwnershipNotInitializedForExtraData",
      "type": "error"
    },
    {
      "inputs": [],
      "name": "TokenDoesntExist",
      "type": "error"
    },
    {
      "inputs": [],
      "name": "TokenLimitReached",
      "type": "error"
    },
    {
      "inputs": [],
      "name": "TokenNotOwner",
      "type": "error"
    },
    {
      "inputs": [],
      "name": "TransferCallerNotOwnerNorApproved",
      "type": "error"
    },
    {
      "inputs": [],
      "name": "TransferFromIncorrectOwner",
      "type": "error"
    },
    {
      "inputs": [],
      "name": "TransferToNonERC721ReceiverImplementer",
      "type": "error"
    },
    {
      "inputs": [],
      "name": "TransferToZeroAddress",
      "type": "error"
    },
    {
      "inputs": [],
      "name": "URIQueryForNonexistentToken",
      "type": "error"
    },
    {
      "anonymous": false,
      "inputs": [
        {
          "indexed": true,
          "internalType": "address",
          "name": "owner",
          "type": "address"
        },
        {
          "indexed": true,
          "internalType": "address",
          "name": "approved",
          "type": "address"
        },
        {
          "indexed": true,
          "internalType": "uint256",
          "name": "tokenId",
          "type": "uint256"
        }
      ],
      "name": "Approval",
      "type": "event"
    },
    {
      "anonymous": false,
      "inputs": [
        {
          "indexed": true,
          "internalType": "address",
          "name": "owner",
          "type": "address"
        },
        {
          "indexed": true,
          "internalType": "address",
          "name": "operator",
          "type": "address"
        },
        {
          "indexed": false,
          "internalType": "bool",
          "name": "approved",
          "type": "bool"
        }
      ],
      "name": "ApprovalForAll",
      "type": "event"
    },
    {
      "anonymous": false,
      "inputs": [
        {
          "indexed": true,
          "internalType": "uint256",
          "name": "fromTokenId",
          "type": "uint256"
        },
        {
          "indexed": false,
          "internalType": "uint256",
          "name": "toTokenId",
          "type": "uint256"
        },
        {
          "indexed": true,
          "internalType": "address",
          "name": "from",
          "type": "address"
        },
        {
          "indexed": true,
          "internalType": "address",
          "name": "to",
          "type": "address"
        }
      ],
      "name": "ConsecutiveTransfer",
      "type": "event"
    },
    {
      "anonymous": false,
      "inputs": [
        {
          "indexed": true,
          "internalType": "address",
          "name": "previousOwner",
          "type": "address"
        },
        {
          "indexed": true,
          "internalType": "address",
          "name": "newOwner",
          "type": "address"
        }
      ],
      "name": "OwnershipTransferred",
      "type": "event"
    },
    {
      "anonymous": false,
      "inputs": [
        {
          "indexed": true,
          "internalType": "address",
          "name": "from",
          "type": "address"
        },
        {
          "indexed": true,
          "internalType": "address",
          "name": "to",
          "type": "address"
        },
        {
          "indexed": true,
          "internalType": "uint256",
          "name": "tokenId",
          "type": "uint256"
        }
      ],
      "name": "Transfer",
      "type": "event"
    },
    {
      "anonymous": false,
      "inputs": [
        {
          "indexed": false,
          "internalType": "uint256",
          "name": "",
          "type": "uint256"
        },
        {
          "indexed": false,
          "internalType": "uint256",
          "name": "",
          "type": "uint256"
        },
        {
          "indexed": false,
          "internalType": "address",
          "name": "",
          "type": "address"
        }
      ],
      "name": "Unwrapped",
      "type": "event"
    },
    {
      "anonymous": false,
      "inputs": [
        {
          "indexed": false,
          "internalType": "uint256",
          "name": "",
          "type": "uint256"
        },
        {
          "indexed": false,
          "internalType": "uint256",
          "name": "",
          "type": "uint256"
        },
        {
          "indexed": false,
          "internalType": "address",
          "name": "",
          "type": "address"
        }
      ],
      "name": "Wrapped",
      "type": "event"
    },
    {
      "inputs": [
        {
          "internalType": "address",
          "name": "to",
          "type": "address"
        },
        {
          "internalType": "uint256",
          "name": "tokenId",
          "type": "uint256"
        }
      ],
      "name": "approve",
      "outputs": [],
      "stateMutability": "nonpayable",
      "type": "function"
    },
    {
      "inputs": [
        {
          "internalType": "address",
          "name": "owner",
          "type": "address"
        }
      ],
      "name": "balanceOf",
      "outputs": [
        {
          "internalType": "uint256",
          "name": "",
          "type": "uint256"
        }
      ],
      "stateMutability": "view",
      "type": "function"
    },
    {
      "inputs": [
        {
          "internalType": "uint256",
          "name": "tokenId",
          "type": "uint256"
        },
        {
          "internalType": "string",
          "name": "newName",
          "type": "string"
        }
      ],
      "name": "changeIpcName",
      "outputs": [],
      "stateMutability": "payable",
      "type": "function"
    },
    {
      "inputs": [],
      "name": "contractURI",
      "outputs": [
        {
          "internalType": "string",
          "name": "",
          "type": "string"
        }
      ],
      "stateMutability": "view",
      "type": "function"
    },
    {
      "inputs": [
        {
          "internalType": "uint256",
          "name": "startIndex",
          "type": "uint256"
        },
        {
          "internalType": "uint256",
          "name": "total",
          "type": "uint256"
        }
      ],
      "name": "getAllTokens",
      "outputs": [
        {
          "components": [
            {
              "internalType": "uint256",
              "name": "tokenId",
              "type": "uint256"
            },
            {
              "internalType": "string",
              "name": "name",
              "type": "string"
            },
            {
              "internalType": "bytes32",
              "name": "attributeSeed",
              "type": "bytes32"
            },
            {
              "internalType": "bytes32",
              "name": "dna",
              "type": "bytes32"
            },
            {
              "internalType": "uint128",
              "name": "experience",
              "type": "uint128"
            },
            {
              "internalType": "uint128",
              "name": "timeOfBirth",
              "type": "uint128"
            },
            {
              "internalType": "address",
              "name": "owner",
              "type": "address"
            }
          ],
          "internalType": "struct IPCWrapper.t_raw_ipc[]",
          "name": "",
          "type": "tuple[]"
        }
      ],
      "stateMutability": "view",
      "type": "function"
    },
    {
      "inputs": [
        {
          "internalType": "uint256",
          "name": "tokenId",
          "type": "uint256"
        }
      ],
      "name": "getApproved",
      "outputs": [
        {
          "internalType": "address",
          "name": "",
          "type": "address"
        }
      ],
      "stateMutability": "view",
      "type": "function"
    },
    {
      "inputs": [
        {
          "internalType": "uint256",
          "name": "tokenId",
          "type": "uint256"
        }
      ],
      "name": "getIpc",
      "outputs": [
        {
          "components": [
            {
              "internalType": "uint256",
              "name": "tokenId",
              "type": "uint256"
            },
            {
              "internalType": "string",
              "name": "name",
              "type": "string"
            },
            {
              "internalType": "bytes32",
              "name": "attributeSeed",
              "type": "bytes32"
            },
            {
              "internalType": "bytes32",
              "name": "dna",
              "type": "bytes32"
            },
            {
              "internalType": "uint128",
              "name": "experience",
              "type": "uint128"
            },
            {
              "internalType": "uint128",
              "name": "timeOfBirth",
              "type": "uint128"
            },
            {
              "internalType": "address",
              "name": "owner",
              "type": "address"
            }
          ],
          "internalType": "struct IPCWrapper.t_raw_ipc",
          "name": "",
          "type": "tuple"
        }
      ],
      "stateMutability": "view",
      "type": "function"
    },
    {
      "inputs": [],
      "name": "getProperties",
      "outputs": [
        {
          "components": [
            {
              "internalType": "address",
              "name": "contractAdress",
              "type": "address"
            },
            {
              "internalType": "string",
              "name": "tokenURI",
              "type": "string"
            },
            {
              "internalType": "string",
              "name": "contractURI",
              "type": "string"
            },
            {
              "internalType": "uint256",
              "name": "maxPrice",
              "type": "uint256"
            },
            {
              "internalType": "uint256",
              "name": "tokenLimit",
              "type": "uint256"
            }
          ],
          "internalType": "struct IPCWrapper.t_properties",
          "name": "",
          "type": "tuple"
        }
      ],
      "stateMutability": "view",
      "type": "function"
    },
    {
      "inputs": [
        {
          "internalType": "uint256",
          "name": "tokenId",
          "type": "uint256"
        }
      ],
      "name": "getTokenIndex",
      "outputs": [
        {
          "internalType": "uint256",
          "name": "",
          "type": "uint256"
        }
      ],
      "stateMutability": "view",
      "type": "function"
    },
    {
      "inputs": [
        {
          "internalType": "uint256",
          "name": "tokenId",
          "type": "uint256"
        }
      ],
      "name": "getTokenOwnership",
      "outputs": [
        {
          "internalType": "address",
          "name": "",
          "type": "address"
        }
      ],
      "stateMutability": "view",
      "type": "function"
    },
    {
      "inputs": [
        {
          "internalType": "address",
          "name": "owner",
          "type": "address"
        },
        {
          "internalType": "uint256",
          "name": "startIndex",
          "type": "uint256"
        },
        {
          "internalType": "uint256",
          "name": "total",
          "type": "uint256"
        }
      ],
      "name": "getTokensOfOwner",
      "outputs": [
        {
          "components": [
            {
              "internalType": "uint256",
              "name": "tokenId",
              "type": "uint256"
            },
            {
              "internalType": "string",
              "name": "name",
              "type": "string"
            },
            {
              "internalType": "bytes32",
              "name": "attributeSeed",
              "type": "bytes32"
            },
            {
              "internalType": "bytes32",
              "name": "dna",
              "type": "bytes32"
            },
            {
              "internalType": "uint128",
              "name": "experience",
              "type": "uint128"
            },
            {
              "internalType": "uint128",
              "name": "timeOfBirth",
              "type": "uint128"
            },
            {
              "internalType": "address",
              "name": "owner",
              "type": "address"
            }
          ],
          "internalType": "struct IPCWrapper.t_raw_ipc[]",
          "name": "",
          "type": "tuple[]"
        }
      ],
      "stateMutability": "view",
      "type": "function"
    },
    {
      "inputs": [
        {
          "internalType": "address",
          "name": "owner",
          "type": "address"
        },
        {
          "internalType": "address",
          "name": "operator",
          "type": "address"
        }
      ],
      "name": "isApprovedForAll",
      "outputs": [
        {
          "internalType": "bool",
          "name": "",
          "type": "bool"
        }
      ],
      "stateMutability": "view",
      "type": "function"
    },
    {
      "inputs": [],
      "name": "name",
      "outputs": [
        {
          "internalType": "string",
          "name": "",
          "type": "string"
        }
      ],
      "stateMutability": "view",
      "type": "function"
    },
    {
      "inputs": [
        {
          "internalType": "address",
          "name": "",
          "type": "address"
        },
        {
          "internalType": "address",
          "name": "",
          "type": "address"
        },
        {
          "internalType": "uint256",
          "name": "",
          "type": "uint256"
        },
        {
          "internalType": "bytes",
          "name": "",
          "type": "bytes"
        }
      ],
      "name": "onERC721Received",
      "outputs": [
        {
          "internalType": "bytes4",
          "name": "",
          "type": "bytes4"
        }
      ],
      "stateMutability": "pure",
      "type": "function"
    },
    {
      "inputs": [
        {
          "internalType": "address",
          "name": "",
          "type": "address"
        },
        {
          "internalType": "uint256",
          "name": "",
          "type": "uint256"
        },
        {
          "internalType": "bytes",
          "name": "",
          "type": "bytes"
        }
      ],
      "name": "onERC721Received",
      "outputs": [
        {
          "internalType": "bytes4",
          "name": "",
          "type": "bytes4"
        }
      ],
      "stateMutability": "pure",
      "type": "function"
    },
    {
      "inputs": [],
      "name": "owner",
      "outputs": [
        {
          "internalType": "address",
          "name": "",
          "type": "address"
        }
      ],
      "stateMutability": "view",
      "type": "function"
    },
    {
      "inputs": [
        {
          "internalType": "uint256",
          "name": "tokenId",
          "type": "uint256"
        }
      ],
      "name": "ownerOf",
      "outputs": [
        {
          "internalType": "address",
          "name": "",
          "type": "address"
        }
      ],
      "stateMutability": "view",
      "type": "function"
    },
    {
      "inputs": [],
      "name": "renounceOwnership",
      "outputs": [],
      "stateMutability": "nonpayable",
      "type": "function"
    },
    {
      "inputs": [
        {
          "internalType": "address",
          "name": "from",
          "type": "address"
        },
        {
          "internalType": "address",
          "name": "to",
          "type": "address"
        },
        {
          "internalType": "uint256",
          "name": "tokenId",
          "type": "uint256"
        }
      ],
      "name": "safeTransferFrom",
      "outputs": [],
      "stateMutability": "nonpayable",
      "type": "function"
    },
    {
      "inputs": [
        {
          "internalType": "address",
          "name": "from",
          "type": "address"
        },
        {
          "internalType": "address",
          "name": "to",
          "type": "address"
        },
        {
          "internalType": "uint256",
          "name": "tokenId",
          "type": "uint256"
        },
        {
          "internalType": "bytes",
          "name": "_data",
          "type": "bytes"
        }
      ],
      "name": "safeTransferFrom",
      "outputs": [],
      "stateMutability": "nonpayable",
      "type": "function"
    },
    {
      "inputs": [
        {
          "internalType": "address",
          "name": "operator",
          "type": "address"
        },
        {
          "internalType": "bool",
          "name": "approved",
          "type": "bool"
        }
      ],
      "name": "setApprovalForAll",
      "outputs": [],
      "stateMutability": "nonpayable",
      "type": "function"
    },
    {
      "inputs": [
        {
          "internalType": "address",
          "name": "_contractAddress",
          "type": "address"
        }
      ],
      "name": "setContractAddress",
      "outputs": [],
      "stateMutability": "nonpayable",
      "type": "function"
    },
    {
      "inputs": [
        {
          "internalType": "uint256",
          "name": "_maxPrice",
          "type": "uint256"
        },
        {
          "internalType": "uint256",
          "name": "_tokenLimit",
          "type": "uint256"
        },
        {
          "internalType": "string",
          "name": "__tokenURI",
          "type": "string"
        },
        {
          "internalType": "string",
          "name": "__contractURI",
          "type": "string"
        }
      ],
      "name": "setProperties",
      "outputs": [],
      "stateMutability": "nonpayable",
      "type": "function"
    },
    {
      "inputs": [
        {
          "internalType": "bytes4",
          "name": "interfaceId",
          "type": "bytes4"
        }
      ],
      "name": "supportsInterface",
      "outputs": [
        {
          "internalType": "bool",
          "name": "",
          "type": "bool"
        }
      ],
      "stateMutability": "view",
      "type": "function"
    },
    {
      "inputs": [],
      "name": "symbol",
      "outputs": [
        {
          "internalType": "string",
          "name": "",
          "type": "string"
        }
      ],
      "stateMutability": "view",
      "type": "function"
    },
    {
      "inputs": [
        {
          "internalType": "uint256",
          "name": "tokenId",
          "type": "uint256"
        }
      ],
      "name": "tokenURI",
      "outputs": [
        {
          "internalType": "string",
          "name": "",
          "type": "string"
        }
      ],
      "stateMutability": "view",
      "type": "function"
    },
    {
      "inputs": [],
      "name": "totalSupply",
      "outputs": [
        {
          "internalType": "uint256",
          "name": "",
          "type": "uint256"
        }
      ],
      "stateMutability": "view",
      "type": "function"
    },
    {
      "inputs": [
        {
          "internalType": "address",
          "name": "from",
          "type": "address"
        },
        {
          "internalType": "address",
          "name": "to",
          "type": "address"
        },
        {
          "internalType": "uint256",
          "name": "tokenId",
          "type": "uint256"
        }
      ],
      "name": "transferFrom",
      "outputs": [],
      "stateMutability": "nonpayable",
      "type": "function"
    },
    {
      "inputs": [
        {
          "internalType": "address",
          "name": "newOwner",
          "type": "address"
        }
      ],
      "name": "transferOwnership",
      "outputs": [],
      "stateMutability": "nonpayable",
      "type": "function"
    },
    {
      "inputs": [
        {
          "internalType": "uint256",
          "name": "tokenId",
          "type": "uint256"
        }
      ],
      "name": "unwrap",
      "outputs": [],
      "stateMutability": "nonpayable",
      "type": "function"
    },
    {
      "inputs": [],
      "name": "withdrawalVault",
      "outputs": [],
      "stateMutability": "nonpayable",
      "type": "function"
    },
    {
      "inputs": [
        {
          "internalType": "uint256",
          "name": "tokenId",
          "type": "uint256"
        }
      ],
      "name": "wrap",
      "outputs": [],
      "stateMutability": "nonpayable",
      "type": "function"
    }
  ],
  "bytecode": "0x60806040523480156200001157600080fd5b506040518060400160405280601d81526020017f496d6d6f7274616c20506c6179657220436861726163746572732076300000008152506040518060400160405280600581526020017f49504356300000000000000000000000000000000000000000000000000000008152506200009e62000092620001f260201b60201c565b620001fa60201b60201c565b8160039080519060200190620000b6929190620002c7565b508060049080519060200190620000cf929190620002c7565b50620000e0620002be60201b60201c565b600181905550505073ed0bc1f0a364e4e4fd275d663397268ce88610ff600960006101000a81548173ffffffffffffffffffffffffffffffffffffffff021916908373ffffffffffffffffffffffffffffffffffffffff1602179055506040518060400160405280601a81526020017f68747470733a2f2f776562736974652e636f6d2f746f6b656e2f000000000000815250600a90805190602001906200018a929190620002c7565b506040518060400160405280601d81526020017f68747470733a2f2f776562736974652e636f6d2f636f6e74726163742f000000815250600b9080519060200190620001d8929190620002c7565b50620f4240600c819055506103e8600d81905550620003dc565b600033905090565b60008060009054906101000a900473ffffffffffffffffffffffffffffffffffffffff169050816000806101000a81548173ffffffffffffffffffffffffffffffffffffffff021916908373ffffffffffffffffffffffffffffffffffffffff1602179055508173ffffffffffffffffffffffffffffffffffffffff168173ffffffffffffffffffffffffffffffffffffffff167f8be0079c531659141344cd1fd0a4f28419497f9722a3daafe3b4186f6b6457e060405160405180910390a35050565b60006001905090565b828054620002d590620003a6565b90600052602060002090601f016020900481019282620002f9576000855562000345565b82601f106200031457805160ff191683800117855562000345565b8280016001018555821562000345579182015b828111156200034457825182559160200191906001019062000327565b5b50905062000354919062000358565b5090565b5b808211156200037357600081600090555060010162000359565b5090565b7f4e487b7100000000000000000000000000000000000000000000000000000000600052602260045260246000fd5b60006002820490506001821680620003bf57607f821691505b60208210811415620003d657620003d562000377565b5b50919050565b61476480620003ec6000396000f3fe6080604052600436106101e35760003560e01c806389edc43811610102578063de0e9a3e11610095578063ea598cb011610064578063ea598cb01461072d578063ec0cfd0b14610756578063f0b9e5ba14610781578063f2fde38b146107be576101e3565b8063de0e9a3e14610680578063dfb31a7c146106a9578063e8a3d485146106c5578063e985e9c5146106f0576101e3565b8063a22cb465116100d1578063a22cb465146105b4578063b88d4fde146105dd578063c87b56dd14610606578063d850030614610643576101e3565b806389edc438146104e45780638da5cb5b1461052157806395d89b411461054c5780639a04383214610577576101e3565b80633a663c801161017a57806369d421481161014957806369d421481461043c57806370a0823114610453578063715018a6146104905780637fff1e2f146104a7576101e3565b80633a663c801461037057806342842e0e146103ad578063477bddaa146103d65780636352211e146103ff576101e3565b8063150b7a02116101b6578063150b7a02146102b657806318160ddd146102f357806320f95f621461031e57806323b872dd14610347576101e3565b806301ffc9a7146101e857806306fdde0314610225578063081812fc14610250578063095ea7b31461028d575b600080fd5b3480156101f457600080fd5b5061020f600480360381019061020a919061323d565b6107e7565b60405161021c9190613285565b60405180910390f35b34801561023157600080fd5b5061023a610879565b6040516102479190613339565b60405180910390f35b34801561025c57600080fd5b5061027760048036038101906102729190613391565b61090b565b60405161028491906133ff565b60405180910390f35b34801561029957600080fd5b506102b460048036038101906102af9190613446565b61098a565b005b3480156102c257600080fd5b506102dd60048036038101906102d891906134eb565b610ace565b6040516102ea9190613582565b60405180910390f35b3480156102ff57600080fd5b50610308610ae3565b60405161031591906135ac565b60405180910390f35b34801561032a57600080fd5b506103456004803603810190610340919061361d565b610b8a565b005b34801561035357600080fd5b5061036e600480360381019061036991906136c4565b610bcc565b005b34801561037c57600080fd5b5061039760048036038101906103929190613391565b610ef1565b6040516103a491906135ac565b60405180910390f35b3480156103b957600080fd5b506103d460048036038101906103cf91906136c4565b610f0e565b005b3480156103e257600080fd5b506103fd60048036038101906103f89190613717565b610f2e565b005b34801561040b57600080fd5b5061042660048036038101906104219190613391565b610f7a565b60405161043391906133ff565b60405180910390f35b34801561044857600080fd5b50610451611095565b005b34801561045f57600080fd5b5061047a60048036038101906104759190613717565b61114c565b60405161048791906135ac565b60405180910390f35b34801561049c57600080fd5b506104a5611205565b005b3480156104b357600080fd5b506104ce60048036038101906104c99190613391565b611219565b6040516104db919061388c565b60405180910390f35b3480156104f057600080fd5b5061050b600480360381019061050691906138ae565b611370565b6040516105189190613a5f565b60405180910390f35b34801561052d57600080fd5b50610536611578565b60405161054391906133ff565b60405180910390f35b34801561055857600080fd5b506105616115a1565b60405161056e9190613339565b60405180910390f35b34801561058357600080fd5b5061059e60048036038101906105999190613a81565b611633565b6040516105ab9190613a5f565b60405180910390f35b3480156105c057600080fd5b506105db60048036038101906105d69190613aed565b611759565b005b3480156105e957600080fd5b5061060460048036038101906105ff9190613c5d565b6118d1565b005b34801561061257600080fd5b5061062d60048036038101906106289190613391565b611944565b60405161063a9190613339565b60405180910390f35b34801561064f57600080fd5b5061066a60048036038101906106659190613391565b6119eb565b60405161067791906133ff565b60405180910390f35b34801561068c57600080fd5b506106a760048036038101906106a29190613391565b611a9f565b005b6106c360048036038101906106be9190613ce0565b611e2f565b005b3480156106d157600080fd5b506106da611f7a565b6040516106e79190613339565b60405180910390f35b3480156106fc57600080fd5b5061071760048036038101906107129190613d40565b61200c565b6040516107249190613285565b60405180910390f35b34801561073957600080fd5b50610754600480360381019061074f9190613391565b6120a0565b005b34801561076257600080fd5b5061076b612396565b6040516107789190613dfd565b60405180910390f35b34801561078d57600080fd5b506107a860048036038101906107a39190613e1f565b612528565b6040516107b59190613582565b60405180910390f35b3480156107ca57600080fd5b506107e560048036038101906107e09190613717565b612555565b005b60006301ffc9a760e01b827bffffffffffffffffffffffffffffffffffffffffffffffffffffffff1916148061084257506380ac58cd60e01b827bffffffffffffffffffffffffffffffffffffffffffffffffffffffff1916145b806108725750635b5e139f60e01b827bffffffffffffffffffffffffffffffffffffffffffffffffffffffff1916145b9050919050565b60606003805461088890613ec2565b80601f01602080910402602001604051908101604052809291908181526020018280546108b490613ec2565b80156109015780601f106108d657610100808354040283529160200191610901565b820191906000526020600020905b8154815290600101906020018083116108e457829003601f168201915b5050505050905090565b6000610916826125d9565b61094c576040517fcf4700e400000000000000000000000000000000000000000000000000000000815260040160405180910390fd5b6007600083815260200190815260200160002060000160009054906101000a900473ffffffffffffffffffffffffffffffffffffffff169050919050565b600061099582610f7a565b90508073ffffffffffffffffffffffffffffffffffffffff166109b6612638565b73ffffffffffffffffffffffffffffffffffffffff1614610a19576109e2816109dd612638565b61200c565b610a18576040517fcfb3b94200000000000000000000000000000000000000000000000000000000815260040160405180910390fd5b5b826007600084815260200190815260200160002060000160006101000a81548173ffffffffffffffffffffffffffffffffffffffff021916908373ffffffffffffffffffffffffffffffffffffffff160217905550818373ffffffffffffffffffffffffffffffffffffffff168273ffffffffffffffffffffffffffffffffffffffff167f8c5be1e5ebec7d5bd14f71427d1e84f3dd0314c0f7b2291e5b200ac8c7c3b92560405160405180910390a4505050565b600063150b7a0260e01b905095945050505050565b6000600960009054906101000a900473ffffffffffffffffffffffffffffffffffffffff1673ffffffffffffffffffffffffffffffffffffffff166318160ddd6040518163ffffffff1660e01b815260040160206040518083038186803b158015610b4d57600080fd5b505afa158015610b61573d6000803e3d6000fd5b505050506040513d601f19601f82011682018060405250810190610b859190613f09565b905090565b610b92612640565b85600c8190555084600d819055508383600a9190610bb192919061306c565b508181600b9190610bc392919061306c565b50505050505050565b6000610bd7826126be565b90508373ffffffffffffffffffffffffffffffffffffffff168173ffffffffffffffffffffffffffffffffffffffff1614610c3e576040517fa114810000000000000000000000000000000000000000000000000000000000815260040160405180910390fd5b600080610c4a8461278c565b91509150610c608187610c5b612638565b6127b3565b610cac57610c7586610c70612638565b61200c565b610cab576040517f59c896be00000000000000000000000000000000000000000000000000000000815260040160405180910390fd5b5b600073ffffffffffffffffffffffffffffffffffffffff168573ffffffffffffffffffffffffffffffffffffffff161415610d13576040517fea553b3400000000000000000000000000000000000000000000000000000000815260040160405180910390fd5b610d2086868660016127f7565b8015610d2b57600082555b600660008773ffffffffffffffffffffffffffffffffffffffff1673ffffffffffffffffffffffffffffffffffffffff168152602001908152602001600020600081546001900391905081905550600660008673ffffffffffffffffffffffffffffffffffffffff1673ffffffffffffffffffffffffffffffffffffffff1681526020019081526020016000206000815460010191905081905550610df985610dd58888876127fd565b7c020000000000000000000000000000000000000000000000000000000017612825565b600560008681526020019081526020016000208190555060007c020000000000000000000000000000000000000000000000000000000084161415610e81576000600185019050600060056000838152602001908152602001600020541415610e7f576001548114610e7e578360056000838152602001908152602001600020819055505b5b505b838573ffffffffffffffffffffffffffffffffffffffff168773ffffffffffffffffffffffffffffffffffffffff167fddf252ad1be2c89b69c2b068fc378daa952ba7f163c4a11628f55a4df523b3ef60405160405180910390a4610ee98686866001612850565b505050505050565b6000600f6000838152602001908152602001600020549050919050565b610f29838383604051806020016040528060008152506118d1565b505050565b610f36612640565b80600960006101000a81548173ffffffffffffffffffffffffffffffffffffffff021916908373ffffffffffffffffffffffffffffffffffffffff16021790555050565b600080600f6000848152602001908152602001600020549050600081141561104f57600960009054906101000a900473ffffffffffffffffffffffffffffffffffffffff1673ffffffffffffffffffffffffffffffffffffffff16636352211e846040518263ffffffff1660e01b8152600401610ff791906135ac565b60206040518083038186803b15801561100f57600080fd5b505afa158015611023573d6000803e3d6000fd5b505050506040513d601f19601f820116820180604052508101906110479190613f4b565b915050611090565b6000600e600083815260200190815260200160002060010160009054906101000a900473ffffffffffffffffffffffffffffffffffffffff16905080925050505b919050565b61109d612640565b60003373ffffffffffffffffffffffffffffffffffffffff16476040516110c390613fa9565b60006040518083038185875af1925050503d8060008114611100576040519150601f19603f3d011682016040523d82523d6000602084013e611105565b606091505b5050905080611149576040517f08c379a00000000000000000000000000000000000000000000000000000000081526004016111409061400a565b60405180910390fd5b50565b60008073ffffffffffffffffffffffffffffffffffffffff168273ffffffffffffffffffffffffffffffffffffffff1614156111b4576040517f8f4eb60400000000000000000000000000000000000000000000000000000000815260040160405180910390fd5b67ffffffffffffffff600660008473ffffffffffffffffffffffffffffffffffffffff1673ffffffffffffffffffffffffffffffffffffffff16815260200190815260200160002054169050919050565b61120d612640565b6112176000612856565b565b6112216130f2565b6000806000806000600960009054906101000a900473ffffffffffffffffffffffffffffffffffffffff1673ffffffffffffffffffffffffffffffffffffffff16637fff1e2f886040518263ffffffff1660e01b815260040161128491906135ac565b60006040518083038186803b15801561129c57600080fd5b505afa1580156112b0573d6000803e3d6000fd5b505050506040513d6000823e3d601f19601f820116820180604052508101906112d99190614123565b9450945094509450945060006112ee88610f7a565b905060006040518060e001604052808a8152602001888152602001878152602001868152602001856fffffffffffffffffffffffffffffffff168152602001846fffffffffffffffffffffffffffffffff1681526020018373ffffffffffffffffffffffffffffffffffffffff16815250905080975050505050505050919050565b60606000600960009054906101000a900473ffffffffffffffffffffffffffffffffffffffff1673ffffffffffffffffffffffffffffffffffffffff16638462151c866040518263ffffffff1660e01b81526004016113cf91906133ff565b60006040518083038186803b1580156113e757600080fd5b505afa1580156113fb573d6000803e3d6000fd5b505050506040513d6000823e3d601f19601f82011682018060405250810190611424919061427d565b90506000815190508085111561143957600094505b60008414806114525750848161144f91906142f5565b84115b15611472578460018261146591906142f5565b61146f91906142f5565b93505b60006001856114819190614329565b67ffffffffffffffff81111561149a57611499613b32565b5b6040519080825280602002602001820160405280156114d357816020015b6114c06130f2565b8152602001906001900390816114b85790505b50905060008214156114ea57809350505050611571565b6000806114f56130f2565b600092505b878310156115675785838a61150f9190614329565b815181106115205761151f61437f565b5b6020026020010151915061153382611219565b9050808484815181106115495761154861437f565b5b6020026020010181905250828061155f906143ae565b9350506114fa565b8396505050505050505b9392505050565b60008060009054906101000a900473ffffffffffffffffffffffffffffffffffffffff16905090565b6060600480546115b090613ec2565b80601f01602080910402602001604051908101604052809291908181526020018280546115dc90613ec2565b80156116295780601f106115fe57610100808354040283529160200191611629565b820191906000526020600020905b81548152906001019060200180831161160c57829003601f168201915b5050505050905090565b6060600061163f610ae3565b9050600084148061164f57508084115b1561165957600193505b60008314806116725750838161166f91906142f5565b83115b1561168657838161168391906142f5565b92505b60008367ffffffffffffffff8111156116a2576116a1613b32565b5b6040519080825280602002602001820160405280156116db57816020015b6116c86130f2565b8152602001906001900390816116c05790505b50905060008214156116f1578092505050611753565b60005b84811161174c57600081876117099190614329565b9050600061171682611219565b90508084848151811061172c5761172b61437f565b5b602002602001018190525050508080611744906143ae565b9150506116f4565b8193505050505b92915050565b611761612638565b73ffffffffffffffffffffffffffffffffffffffff168273ffffffffffffffffffffffffffffffffffffffff1614156117c6576040517fb06307db00000000000000000000000000000000000000000000000000000000815260040160405180910390fd5b80600860006117d3612638565b73ffffffffffffffffffffffffffffffffffffffff1673ffffffffffffffffffffffffffffffffffffffff16815260200190815260200160002060008473ffffffffffffffffffffffffffffffffffffffff1673ffffffffffffffffffffffffffffffffffffffff16815260200190815260200160002060006101000a81548160ff0219169083151502179055508173ffffffffffffffffffffffffffffffffffffffff16611880612638565b73ffffffffffffffffffffffffffffffffffffffff167f17307eab39ab6107e8899845ad3d59bd9653f200f220920489ca2b5937696c31836040516118c59190613285565b60405180910390a35050565b6118dc848484610bcc565b60008373ffffffffffffffffffffffffffffffffffffffff163b1461193e576119078484848461291a565b61193d576040517fd1a57ed600000000000000000000000000000000000000000000000000000000815260040160405180910390fd5b5b50505050565b6060600d548211806119565750600082145b1561198d576040517fa14c4b5000000000000000000000000000000000000000000000000000000000815260040160405180910390fd5b6000611997612a7a565b90506000815114156119b857604051806020016040528060008152506119e3565b806119c284612b0c565b6040516020016119d3929190614433565b6040516020818303038152906040525b915050919050565b6000600960009054906101000a900473ffffffffffffffffffffffffffffffffffffffff1673ffffffffffffffffffffffffffffffffffffffff16636352211e836040518263ffffffff1660e01b8152600401611a4891906135ac565b60206040518083038186803b158015611a6057600080fd5b505afa158015611a74573d6000803e3d6000fd5b505050506040513d601f19601f82011682018060405250810190611a989190613f4b565b9050919050565b6000600f60008381526020019081526020016000205490506000811415611af2576040517feb7d192800000000000000000000000000000000000000000000000000000000815260040160405180910390fd5b60003390508073ffffffffffffffffffffffffffffffffffffffff16600e600084815260200190815260200160002060010160009054906101000a900473ffffffffffffffffffffffffffffffffffffffff1673ffffffffffffffffffffffffffffffffffffffff1614611b92576040517ff637a3e300000000000000000000000000000000000000000000000000000000815260040160405180910390fd5b600f600084815260200190815260200160002060009055600e60008381526020019081526020016000206000808201600090556001820160006101000a81549073ffffffffffffffffffffffffffffffffffffffff0219169055505060005b601060008373ffffffffffffffffffffffffffffffffffffffff1673ffffffffffffffffffffffffffffffffffffffff16815260200190815260200160002080549050811015611d115783601060008473ffffffffffffffffffffffffffffffffffffffff1673ffffffffffffffffffffffffffffffffffffffff1681526020019081526020016000208281548110611c8d57611c8c61437f565b5b90600052602060002001541415611cfe57601060008373ffffffffffffffffffffffffffffffffffffffff1673ffffffffffffffffffffffffffffffffffffffff1681526020019081526020016000208181548110611cef57611cee61437f565b5b90600052602060002001600090555b8080611d09906143ae565b915050611bf1565b506000611d1d84610f7a565b9050611d2883612b5c565b3073ffffffffffffffffffffffffffffffffffffffff168173ffffffffffffffffffffffffffffffffffffffff161415611dee57600960009054906101000a900473ffffffffffffffffffffffffffffffffffffffff1673ffffffffffffffffffffffffffffffffffffffff166342842e0e3084876040518463ffffffff1660e01b8152600401611dbb93929190614457565b600060405180830381600087803b158015611dd557600080fd5b505af1158015611de9573d6000803e3d6000fd5b505050505b7f175e3dad2e6c10f120d3216de54ebe7abeee5b7f33c8941af43e73a0315e4a80838584604051611e219392919061448e565b60405180910390a150505050565b6000600f60008581526020019081526020016000205490503373ffffffffffffffffffffffffffffffffffffffff16600e600083815260200190815260200160002060010160009054906101000a900473ffffffffffffffffffffffffffffffffffffffff1673ffffffffffffffffffffffffffffffffffffffff1614611ee2576040517ff637a3e300000000000000000000000000000000000000000000000000000000815260040160405180910390fd5b600960009054906101000a900473ffffffffffffffffffffffffffffffffffffffff1673ffffffffffffffffffffffffffffffffffffffff1663dfb31a7c348686866040518563ffffffff1660e01b8152600401611f42939291906144f2565b6000604051808303818588803b158015611f5b57600080fd5b505af1158015611f6f573d6000803e3d6000fd5b505050505050505050565b6060600b8054611f8990613ec2565b80601f0160208091040260200160405190810160405280929190818152602001828054611fb590613ec2565b80156120025780601f10611fd757610100808354040283529160200191612002565b820191906000526020600020905b815481529060010190602001808311611fe557829003601f168201915b5050505050905090565b6000600860008473ffffffffffffffffffffffffffffffffffffffff1673ffffffffffffffffffffffffffffffffffffffff16815260200190815260200160002060008373ffffffffffffffffffffffffffffffffffffffff1673ffffffffffffffffffffffffffffffffffffffff16815260200190815260200160002060009054906101000a900460ff16905092915050565b6000600f6000838152602001908152602001600020549050600d54821180156120c95750600081145b15612100576040517f53bb24f900000000000000000000000000000000000000000000000000000000815260040160405180910390fd5b6000339050600960009054906101000a900473ffffffffffffffffffffffffffffffffffffffff1673ffffffffffffffffffffffffffffffffffffffff166342842e0e8230866040518463ffffffff1660e01b815260040161216493929190614457565b600060405180830381600087803b15801561217e57600080fd5b505af1158015612192573d6000803e3d6000fd5b50505050600960009054906101000a900473ffffffffffffffffffffffffffffffffffffffff1673ffffffffffffffffffffffffffffffffffffffff16633d4cfe2184600c546040518363ffffffff1660e01b81526004016121f5929190614524565b600060405180830381600087803b15801561220f57600080fd5b505af1158015612223573d6000803e3d6000fd5b50505050600082141561223b57612238612b6a565b91505b60405180604001604052808481526020018273ffffffffffffffffffffffffffffffffffffffff16815250600e60008481526020019081526020016000206000820151816000015560208201518160010160006101000a81548173ffffffffffffffffffffffffffffffffffffffff021916908373ffffffffffffffffffffffffffffffffffffffff16021790555090505081600f600085815260200190815260200160002081905550601060008273ffffffffffffffffffffffffffffffffffffffff1673ffffffffffffffffffffffffffffffffffffffff168152602001908152602001600020829080600181540180825580915050600190039060005260206000200160009091909190915055612356816001612b74565b7ff90572efd1ab4fb9c6b9dabfd24d103ce15482a9ec0c50e0e32618708783b15b8284836040516123899392919061448e565b60405180910390a1505050565b61239e61316f565b6123a6612640565b60006040518060a00160405280600960009054906101000a900473ffffffffffffffffffffffffffffffffffffffff1673ffffffffffffffffffffffffffffffffffffffff168152602001600a80546123fe90613ec2565b80601f016020809104026020016040519081016040528092919081815260200182805461242a90613ec2565b80156124775780601f1061244c57610100808354040283529160200191612477565b820191906000526020600020905b81548152906001019060200180831161245a57829003601f168201915b50505050508152602001600b805461248e90613ec2565b80601f01602080910402602001604051908101604052809291908181526020018280546124ba90613ec2565b80156125075780601f106124dc57610100808354040283529160200191612507565b820191906000526020600020905b8154815290600101906020018083116124ea57829003601f168201915b50505050508152602001600c548152602001600d5481525090508091505090565b60007ff0b9e5baf647f945565b0ac04522b519449041bdd44f952626b9ead9ff3692419050949350505050565b61255d612640565b600073ffffffffffffffffffffffffffffffffffffffff168173ffffffffffffffffffffffffffffffffffffffff1614156125cd576040517f08c379a00000000000000000000000000000000000000000000000000000000081526004016125c4906145bf565b60405180910390fd5b6125d681612856565b50565b6000816125e4612b92565b111580156125f3575060015482105b8015612631575060007c0100000000000000000000000000000000000000000000000000000000600560008581526020019081526020016000205416145b9050919050565b600033905090565b612648612b9b565b73ffffffffffffffffffffffffffffffffffffffff16612666611578565b73ffffffffffffffffffffffffffffffffffffffff16146126bc576040517f08c379a00000000000000000000000000000000000000000000000000000000081526004016126b39061462b565b60405180910390fd5b565b600080829050806126cd612b92565b11612755576001548110156127545760006005600083815260200190815260200160002054905060007c010000000000000000000000000000000000000000000000000000000082161415612752575b600081141561274857600560008360019003935083815260200190815260200160002054905061271d565b8092505050612787565b505b5b6040517fdf2d9b4200000000000000000000000000000000000000000000000000000000815260040160405180910390fd5b919050565b60008060006007600085815260200190815260200160002090508092508254915050915091565b600073ffffffffffffffffffffffffffffffffffffffff8316925073ffffffffffffffffffffffffffffffffffffffff821691508382148383141790509392505050565b50505050565b60008060e883901c905060e8612814868684612ba3565b62ffffff16901b9150509392505050565b600073ffffffffffffffffffffffffffffffffffffffff83169250814260a01b178317905092915050565b50505050565b60008060009054906101000a900473ffffffffffffffffffffffffffffffffffffffff169050816000806101000a81548173ffffffffffffffffffffffffffffffffffffffff021916908373ffffffffffffffffffffffffffffffffffffffff1602179055508173ffffffffffffffffffffffffffffffffffffffff168173ffffffffffffffffffffffffffffffffffffffff167f8be0079c531659141344cd1fd0a4f28419497f9722a3daafe3b4186f6b6457e060405160405180910390a35050565b60008373ffffffffffffffffffffffffffffffffffffffff1663150b7a02612940612638565b8786866040518563ffffffff1660e01b815260040161296294939291906146a0565b602060405180830381600087803b15801561297c57600080fd5b505af19250505080156129ad57506040513d601f19601f820116820180604052508101906129aa9190614701565b60015b612a27573d80600081146129dd576040519150601f19603f3d011682016040523d82523d6000602084013e6129e2565b606091505b50600081511415612a1f576040517fd1a57ed600000000000000000000000000000000000000000000000000000000815260040160405180910390fd5b805181602001fd5b63150b7a0260e01b7bffffffffffffffffffffffffffffffffffffffffffffffffffffffff1916817bffffffffffffffffffffffffffffffffffffffffffffffffffffffff191614915050949350505050565b6060600a8054612a8990613ec2565b80601f0160208091040260200160405190810160405280929190818152602001828054612ab590613ec2565b8015612b025780601f10612ad757610100808354040283529160200191612b02565b820191906000526020600020905b815481529060010190602001808311612ae557829003601f168201915b5050505050905090565b606060806040510190508060405280825b600115612b4857600183039250600a81066030018353600a8104905080612b4357612b48565b612b1d565b508181036020830392508083525050919050565b612b67816000612bac565b50565b6000600154905090565b612b8e828260405180602001604052806000815250612e00565b5050565b60006001905090565b600033905090565b60009392505050565b6000612bb7836126be565b90506000819050600080612bca8661278c565b915091508415612c3357612be68184612be1612638565b6127b3565b612c3257612bfb83612bf6612638565b61200c565b612c31576040517f59c896be00000000000000000000000000000000000000000000000000000000815260040160405180910390fd5b5b5b612c418360008860016127f7565b8015612c4c57600082555b600160806001901b03600660008573ffffffffffffffffffffffffffffffffffffffff1673ffffffffffffffffffffffffffffffffffffffff16815260200190815260200160002060008282540192505081905550612cf483612cb1856000886127fd565b7c02000000000000000000000000000000000000000000000000000000007c01000000000000000000000000000000000000000000000000000000001717612825565b600560008881526020019081526020016000208190555060007c020000000000000000000000000000000000000000000000000000000085161415612d7c576000600187019050600060056000838152602001908152602001600020541415612d7a576001548114612d79578460056000838152602001908152602001600020819055505b5b505b85600073ffffffffffffffffffffffffffffffffffffffff168473ffffffffffffffffffffffffffffffffffffffff167fddf252ad1be2c89b69c2b068fc378daa952ba7f163c4a11628f55a4df523b3ef60405160405180910390a4612de6836000886001612850565b600260008154809291906001019190505550505050505050565b612e0a8383612e9e565b60008373ffffffffffffffffffffffffffffffffffffffff163b14612e995760006001549050600083820390505b612e4b600086838060010194508661291a565b612e81576040517fd1a57ed600000000000000000000000000000000000000000000000000000000815260040160405180910390fd5b818110612e38578160015414612e9657600080fd5b50505b505050565b600060015490506000821415612ee0576040517fb562e8dd00000000000000000000000000000000000000000000000000000000815260040160405180910390fd5b612eed60008483856127f7565b600160406001901b178202600660008573ffffffffffffffffffffffffffffffffffffffff1673ffffffffffffffffffffffffffffffffffffffff16815260200190815260200160002060008282540192505081905550612f6483612f5560008660006127fd565b612f5e8561305c565b17612825565b6005600083815260200190815260200160002081905550600080838301905073ffffffffffffffffffffffffffffffffffffffff85169150828260007fddf252ad1be2c89b69c2b068fc378daa952ba7f163c4a11628f55a4df523b3ef600080a4600183015b81811461300557808360007fddf252ad1be2c89b69c2b068fc378daa952ba7f163c4a11628f55a4df523b3ef600080a4600181019050612fca565b506000821415613041576040517f2e07630000000000000000000000000000000000000000000000000000000000815260040160405180910390fd5b8060018190555050506130576000848385612850565b505050565b60006001821460e11b9050919050565b82805461307890613ec2565b90600052602060002090601f01602090048101928261309a57600085556130e1565b82601f106130b357803560ff19168380011785556130e1565b828001600101855582156130e1579182015b828111156130e05782358255916020019190600101906130c5565b5b5090506130ee91906131b4565b5090565b6040518060e001604052806000815260200160608152602001600080191681526020016000801916815260200160006fffffffffffffffffffffffffffffffff16815260200160006fffffffffffffffffffffffffffffffff168152602001600073ffffffffffffffffffffffffffffffffffffffff1681525090565b6040518060a00160405280600073ffffffffffffffffffffffffffffffffffffffff168152602001606081526020016060815260200160008152602001600081525090565b5b808211156131cd5760008160009055506001016131b5565b5090565b6000604051905090565b600080fd5b600080fd5b60007fffffffff0000000000000000000000000000000000000000000000000000000082169050919050565b61321a816131e5565b811461322557600080fd5b50565b60008135905061323781613211565b92915050565b600060208284031215613253576132526131db565b5b600061326184828501613228565b91505092915050565b60008115159050919050565b61327f8161326a565b82525050565b600060208201905061329a6000830184613276565b92915050565b600081519050919050565b600082825260208201905092915050565b60005b838110156132da5780820151818401526020810190506132bf565b838111156132e9576000848401525b50505050565b6000601f19601f8301169050919050565b600061330b826132a0565b61331581856132ab565b93506133258185602086016132bc565b61332e816132ef565b840191505092915050565b600060208201905081810360008301526133538184613300565b905092915050565b6000819050919050565b61336e8161335b565b811461337957600080fd5b50565b60008135905061338b81613365565b92915050565b6000602082840312156133a7576133a66131db565b5b60006133b58482850161337c565b91505092915050565b600073ffffffffffffffffffffffffffffffffffffffff82169050919050565b60006133e9826133be565b9050919050565b6133f9816133de565b82525050565b600060208201905061341460008301846133f0565b92915050565b613423816133de565b811461342e57600080fd5b50565b6000813590506134408161341a565b92915050565b6000806040838503121561345d5761345c6131db565b5b600061346b85828601613431565b925050602061347c8582860161337c565b9150509250929050565b600080fd5b600080fd5b600080fd5b60008083601f8401126134ab576134aa613486565b5b8235905067ffffffffffffffff8111156134c8576134c761348b565b5b6020830191508360018202830111156134e4576134e3613490565b5b9250929050565b600080600080600060808688031215613507576135066131db565b5b600061351588828901613431565b955050602061352688828901613431565b94505060406135378882890161337c565b935050606086013567ffffffffffffffff811115613558576135576131e0565b5b61356488828901613495565b92509250509295509295909350565b61357c816131e5565b82525050565b60006020820190506135976000830184613573565b92915050565b6135a68161335b565b82525050565b60006020820190506135c1600083018461359d565b92915050565b60008083601f8401126135dd576135dc613486565b5b8235905067ffffffffffffffff8111156135fa576135f961348b565b5b60208301915083600182028301111561361657613615613490565b5b9250929050565b6000806000806000806080878903121561363a576136396131db565b5b600061364889828a0161337c565b965050602061365989828a0161337c565b955050604087013567ffffffffffffffff81111561367a576136796131e0565b5b61368689828a016135c7565b9450945050606087013567ffffffffffffffff8111156136a9576136a86131e0565b5b6136b589828a016135c7565b92509250509295509295509295565b6000806000606084860312156136dd576136dc6131db565b5b60006136eb86828701613431565b93505060206136fc86828701613431565b925050604061370d8682870161337c565b9150509250925092565b60006020828403121561372d5761372c6131db565b5b600061373b84828501613431565b91505092915050565b61374d8161335b565b82525050565b600082825260208201905092915050565b600061376f826132a0565b6137798185613753565b93506137898185602086016132bc565b613792816132ef565b840191505092915050565b6000819050919050565b6137b08161379d565b82525050565b60006fffffffffffffffffffffffffffffffff82169050919050565b6137db816137b6565b82525050565b6137ea816133de565b82525050565b600060e0830160008301516138086000860182613744565b50602083015184820360208601526138208282613764565b915050604083015161383560408601826137a7565b50606083015161384860608601826137a7565b50608083015161385b60808601826137d2565b5060a083015161386e60a08601826137d2565b5060c083015161388160c08601826137e1565b508091505092915050565b600060208201905081810360008301526138a681846137f0565b905092915050565b6000806000606084860312156138c7576138c66131db565b5b60006138d586828701613431565b93505060206138e68682870161337c565b92505060406138f78682870161337c565b9150509250925092565b600081519050919050565b600082825260208201905092915050565b6000819050602082019050919050565b600060e0830160008301516139456000860182613744565b506020830151848203602086015261395d8282613764565b915050604083015161397260408601826137a7565b50606083015161398560608601826137a7565b50608083015161399860808601826137d2565b5060a08301516139ab60a08601826137d2565b5060c08301516139be60c08601826137e1565b508091505092915050565b60006139d5838361392d565b905092915050565b6000602082019050919050565b60006139f582613901565b6139ff818561390c565b935083602082028501613a118561391d565b8060005b85811015613a4d5784840389528151613a2e85826139c9565b9450613a39836139dd565b925060208a01995050600181019050613a15565b50829750879550505050505092915050565b60006020820190508181036000830152613a7981846139ea565b905092915050565b60008060408385031215613a9857613a976131db565b5b6000613aa68582860161337c565b9250506020613ab78582860161337c565b9150509250929050565b613aca8161326a565b8114613ad557600080fd5b50565b600081359050613ae781613ac1565b92915050565b60008060408385031215613b0457613b036131db565b5b6000613b1285828601613431565b9250506020613b2385828601613ad8565b9150509250929050565b600080fd5b7f4e487b7100000000000000000000000000000000000000000000000000000000600052604160045260246000fd5b613b6a826132ef565b810181811067ffffffffffffffff82111715613b8957613b88613b32565b5b80604052505050565b6000613b9c6131d1565b9050613ba88282613b61565b919050565b600067ffffffffffffffff821115613bc857613bc7613b32565b5b613bd1826132ef565b9050602081019050919050565b82818337600083830152505050565b6000613c00613bfb84613bad565b613b92565b905082815260208101848484011115613c1c57613c1b613b2d565b5b613c27848285613bde565b509392505050565b600082601f830112613c4457613c43613486565b5b8135613c54848260208601613bed565b91505092915050565b60008060008060808587031215613c7757613c766131db565b5b6000613c8587828801613431565b9450506020613c9687828801613431565b9350506040613ca78782880161337c565b925050606085013567ffffffffffffffff811115613cc857613cc76131e0565b5b613cd487828801613c2f565b91505092959194509250565b600080600060408486031215613cf957613cf86131db565b5b6000613d078682870161337c565b935050602084013567ffffffffffffffff811115613d2857613d276131e0565b5b613d34868287016135c7565b92509250509250925092565b60008060408385031215613d5757613d566131db565b5b6000613d6585828601613431565b9250506020613d7685828601613431565b9150509250929050565b600060a083016000830151613d9860008601826137e1565b5060208301518482036020860152613db08282613764565b91505060408301518482036040860152613dca8282613764565b9150506060830151613ddf6060860182613744565b506080830151613df26080860182613744565b508091505092915050565b60006020820190508181036000830152613e178184613d80565b905092915050565b60008060008060608587031215613e3957613e386131db565b5b6000613e4787828801613431565b9450506020613e588782880161337c565b935050604085013567ffffffffffffffff811115613e7957613e786131e0565b5b613e8587828801613495565b925092505092959194509250565b7f4e487b7100000000000000000000000000000000000000000000000000000000600052602260045260246000fd5b60006002820490506001821680613eda57607f821691505b60208210811415613eee57613eed613e93565b5b50919050565b600081519050613f0381613365565b92915050565b600060208284031215613f1f57613f1e6131db565b5b6000613f2d84828501613ef4565b91505092915050565b600081519050613f458161341a565b92915050565b600060208284031215613f6157613f606131db565b5b6000613f6f84828501613f36565b91505092915050565b600081905092915050565b50565b6000613f93600083613f78565b9150613f9e82613f83565b600082019050919050565b6000613fb482613f86565b9150819050919050565b7f5641554c545f5452414e534645525f4641494c45440000000000000000000000600082015250565b6000613ff46015836132ab565b9150613fff82613fbe565b602082019050919050565b6000602082019050818103600083015261402381613fe7565b9050919050565b600067ffffffffffffffff82111561404557614044613b32565b5b61404e826132ef565b9050602081019050919050565b600061406e6140698461402a565b613b92565b90508281526020810184848401111561408a57614089613b2d565b5b6140958482856132bc565b509392505050565b600082601f8301126140b2576140b1613486565b5b81516140c284826020860161405b565b91505092915050565b6140d48161379d565b81146140df57600080fd5b50565b6000815190506140f1816140cb565b92915050565b614100816137b6565b811461410b57600080fd5b50565b60008151905061411d816140f7565b92915050565b600080600080600060a0868803121561413f5761413e6131db565b5b600086015167ffffffffffffffff81111561415d5761415c6131e0565b5b6141698882890161409d565b955050602061417a888289016140e2565b945050604061418b888289016140e2565b935050606061419c8882890161410e565b92505060806141ad8882890161410e565b9150509295509295909350565b600067ffffffffffffffff8211156141d5576141d4613b32565b5b602082029050602081019050919050565b60006141f96141f4846141ba565b613b92565b9050808382526020820190506020840283018581111561421c5761421b613490565b5b835b8181101561424557806142318882613ef4565b84526020840193505060208101905061421e565b5050509392505050565b600082601f83011261426457614263613486565b5b81516142748482602086016141e6565b91505092915050565b600060208284031215614293576142926131db565b5b600082015167ffffffffffffffff8111156142b1576142b06131e0565b5b6142bd8482850161424f565b91505092915050565b7f4e487b7100000000000000000000000000000000000000000000000000000000600052601160045260246000fd5b60006143008261335b565b915061430b8361335b565b92508282101561431e5761431d6142c6565b5b828203905092915050565b60006143348261335b565b915061433f8361335b565b9250827fffffffffffffffffffffffffffffffffffffffffffffffffffffffffffffffff03821115614374576143736142c6565b5b828201905092915050565b7f4e487b7100000000000000000000000000000000000000000000000000000000600052603260045260246000fd5b60006143b98261335b565b91507fffffffffffffffffffffffffffffffffffffffffffffffffffffffffffffffff8214156143ec576143eb6142c6565b5b600182019050919050565b600081905092915050565b600061440d826132a0565b61441781856143f7565b93506144278185602086016132bc565b80840191505092915050565b600061443f8285614402565b915061444b8284614402565b91508190509392505050565b600060608201905061446c60008301866133f0565b61447960208301856133f0565b614486604083018461359d565b949350505050565b60006060820190506144a3600083018661359d565b6144b0602083018561359d565b6144bd60408301846133f0565b949350505050565b60006144d183856132ab565b93506144de838584613bde565b6144e7836132ef565b840190509392505050565b6000604082019050614507600083018661359d565b818103602083015261451a8184866144c5565b9050949350505050565b6000604082019050614539600083018561359d565b614546602083018461359d565b9392505050565b7f4f776e61626c653a206e6577206f776e657220697320746865207a65726f206160008201527f6464726573730000000000000000000000000000000000000000000000000000602082015250565b60006145a96026836132ab565b91506145b48261454d565b604082019050919050565b600060208201905081810360008301526145d88161459c565b9050919050565b7f4f776e61626c653a2063616c6c6572206973206e6f7420746865206f776e6572600082015250565b60006146156020836132ab565b9150614620826145df565b602082019050919050565b6000602082019050818103600083015261464481614608565b9050919050565b600081519050919050565b600082825260208201905092915050565b60006146728261464b565b61467c8185614656565b935061468c8185602086016132bc565b614695816132ef565b840191505092915050565b60006080820190506146b560008301876133f0565b6146c260208301866133f0565b6146cf604083018561359d565b81810360608301526146e18184614667565b905095945050505050565b6000815190506146fb81613211565b92915050565b600060208284031215614717576147166131db565b5b6000614725848285016146ec565b9150509291505056fea26469706673582212204ec9c5bd545bca4891c183b7171d7696543b4665a360804b1742786963e36c5364736f6c63430008090033",
  "linkReferences": {},
  "deployedLinkReferences": {}
}