{
  "_format": "hh-sol-artifact-1",
  "contractName": "IPCWrapper",
  "sourceName": "contracts/IPCWrapper.sol",
  "abi": [
    {
      "inputs": [
        {
          "internalType": "address",
          "name": "_contractAddress",
          "type": "address"
        }
      ],
      "stateMutability": "nonpayable",
      "type": "constructor"
    },
    {
      "anonymous": false,
      "inputs": [
        {
          "indexed": true,
          "internalType": "address",
          "name": "owner",
          "type": "address"
        },
        {
          "indexed": true,
          "internalType": "address",
          "name": "approved",
          "type": "address"
        },
        {
          "indexed": true,
          "internalType": "uint256",
          "name": "tokenId",
          "type": "uint256"
        }
      ],
      "name": "Approval",
      "type": "event"
    },
    {
      "anonymous": false,
      "inputs": [
        {
          "indexed": true,
          "internalType": "address",
          "name": "owner",
          "type": "address"
        },
        {
          "indexed": true,
          "internalType": "address",
          "name": "operator",
          "type": "address"
        },
        {
          "indexed": false,
          "internalType": "bool",
          "name": "approved",
          "type": "bool"
        }
      ],
      "name": "ApprovalForAll",
      "type": "event"
    },
    {
      "anonymous": false,
      "inputs": [
        {
          "indexed": true,
          "internalType": "address",
          "name": "previousOwner",
          "type": "address"
        },
        {
          "indexed": true,
          "internalType": "address",
          "name": "newOwner",
          "type": "address"
        }
      ],
      "name": "OwnershipTransferred",
      "type": "event"
    },
    {
      "anonymous": false,
      "inputs": [
        {
          "indexed": true,
          "internalType": "address",
          "name": "from",
          "type": "address"
        },
        {
          "indexed": true,
          "internalType": "address",
          "name": "to",
          "type": "address"
        },
        {
          "indexed": true,
          "internalType": "uint256",
          "name": "tokenId",
          "type": "uint256"
        }
      ],
      "name": "Transfer",
      "type": "event"
    },
    {
      "anonymous": false,
      "inputs": [
        {
          "indexed": false,
          "internalType": "uint256",
          "name": "tokenId",
          "type": "uint256"
        },
        {
          "indexed": false,
          "internalType": "address",
          "name": "owner",
          "type": "address"
        }
      ],
      "name": "Unwrapped",
      "type": "event"
    },
    {
      "anonymous": false,
      "inputs": [
        {
          "indexed": false,
          "internalType": "address",
          "name": "owner",
          "type": "address"
        },
        {
          "indexed": false,
          "internalType": "bool",
          "name": "wrapTokens",
          "type": "bool"
        },
        {
          "indexed": false,
          "internalType": "uint256",
          "name": "totalTokens",
          "type": "uint256"
        }
      ],
      "name": "WrapX",
      "type": "event"
    },
    {
      "anonymous": false,
      "inputs": [
        {
          "indexed": false,
          "internalType": "uint256",
          "name": "tokenId",
          "type": "uint256"
        },
        {
          "indexed": false,
          "internalType": "address",
          "name": "owner",
          "type": "address"
        }
      ],
      "name": "Wrapped",
      "type": "event"
    },
    {
      "inputs": [
        {
          "internalType": "address",
          "name": "to",
          "type": "address"
        },
        {
          "internalType": "uint256",
          "name": "tokenId",
          "type": "uint256"
        }
      ],
      "name": "approve",
      "outputs": [],
      "stateMutability": "nonpayable",
      "type": "function"
    },
    {
      "inputs": [
        {
          "internalType": "address",
          "name": "owner",
          "type": "address"
        }
      ],
      "name": "balanceOf",
      "outputs": [
        {
          "internalType": "uint256",
          "name": "",
          "type": "uint256"
        }
      ],
      "stateMutability": "view",
      "type": "function"
    },
    {
      "inputs": [],
      "name": "contractURI",
      "outputs": [
        {
          "internalType": "string",
          "name": "",
          "type": "string"
        }
      ],
      "stateMutability": "view",
      "type": "function"
    },
    {
      "inputs": [
        {
          "internalType": "uint256",
          "name": "tokenId",
          "type": "uint256"
        }
      ],
      "name": "getApproved",
      "outputs": [
        {
          "internalType": "address",
          "name": "",
          "type": "address"
        }
      ],
      "stateMutability": "view",
      "type": "function"
    },
    {
      "inputs": [
        {
          "internalType": "uint256",
          "name": "tokenId",
          "type": "uint256"
        }
      ],
      "name": "getIpc",
      "outputs": [
        {
          "components": [
            {
              "internalType": "uint256",
              "name": "tokenId",
              "type": "uint256"
            },
            {
              "internalType": "string",
              "name": "name",
              "type": "string"
            },
            {
              "internalType": "bytes32",
              "name": "attributeSeed",
              "type": "bytes32"
            },
            {
              "internalType": "bytes32",
              "name": "dna",
              "type": "bytes32"
            },
            {
              "internalType": "uint128",
              "name": "experience",
              "type": "uint128"
            },
            {
              "internalType": "uint128",
              "name": "timeOfBirth",
              "type": "uint128"
            },
            {
              "internalType": "address",
              "name": "owner",
              "type": "address"
            },
            {
              "internalType": "uint256",
              "name": "price",
              "type": "uint256"
            }
          ],
          "internalType": "struct IPCWrapper.t_raw_ipc",
          "name": "",
          "type": "tuple"
        }
      ],
      "stateMutability": "view",
      "type": "function"
    },
    {
      "inputs": [],
      "name": "getProperties",
      "outputs": [
        {
          "components": [
            {
              "internalType": "address",
              "name": "contractAdress",
              "type": "address"
            },
            {
              "internalType": "string",
              "name": "tokenURI",
              "type": "string"
            },
            {
              "internalType": "string",
              "name": "contractURI",
              "type": "string"
            },
            {
              "internalType": "uint256",
              "name": "maxPrice",
              "type": "uint256"
            },
            {
              "internalType": "uint256",
              "name": "tokenLimit",
              "type": "uint256"
            },
            {
              "internalType": "bool",
              "name": "marketPlaceEnabled",
              "type": "bool"
            }
          ],
          "internalType": "struct IPCWrapper.t_properties",
          "name": "",
          "type": "tuple"
        }
      ],
      "stateMutability": "view",
      "type": "function"
    },
    {
      "inputs": [
        {
          "internalType": "address",
          "name": "owner",
          "type": "address"
        },
        {
          "internalType": "address",
          "name": "operator",
          "type": "address"
        }
      ],
      "name": "isApprovedForAll",
      "outputs": [
        {
          "internalType": "bool",
          "name": "",
          "type": "bool"
        }
      ],
      "stateMutability": "view",
      "type": "function"
    },
    {
      "inputs": [],
      "name": "name",
      "outputs": [
        {
          "internalType": "string",
          "name": "",
          "type": "string"
        }
      ],
      "stateMutability": "view",
      "type": "function"
    },
    {
      "inputs": [
        {
          "internalType": "address",
          "name": "",
          "type": "address"
        },
        {
          "internalType": "address",
          "name": "",
          "type": "address"
        },
        {
          "internalType": "uint256",
          "name": "",
          "type": "uint256"
        },
        {
          "internalType": "bytes",
          "name": "",
          "type": "bytes"
        }
      ],
      "name": "onERC721Received",
      "outputs": [
        {
          "internalType": "bytes4",
          "name": "",
          "type": "bytes4"
        }
      ],
      "stateMutability": "pure",
      "type": "function"
    },
    {
      "inputs": [
        {
          "internalType": "address",
          "name": "",
          "type": "address"
        },
        {
          "internalType": "uint256",
          "name": "",
          "type": "uint256"
        },
        {
          "internalType": "bytes",
          "name": "",
          "type": "bytes"
        }
      ],
      "name": "onERC721Received",
      "outputs": [
        {
          "internalType": "bytes4",
          "name": "",
          "type": "bytes4"
        }
      ],
      "stateMutability": "pure",
      "type": "function"
    },
    {
      "inputs": [],
      "name": "owner",
      "outputs": [
        {
          "internalType": "address",
          "name": "",
          "type": "address"
        }
      ],
      "stateMutability": "view",
      "type": "function"
    },
    {
      "inputs": [
        {
          "internalType": "uint256",
          "name": "tokenId",
          "type": "uint256"
        }
      ],
      "name": "ownerOf",
      "outputs": [
        {
          "internalType": "address",
          "name": "",
          "type": "address"
        }
      ],
      "stateMutability": "view",
      "type": "function"
    },
    {
      "inputs": [],
      "name": "renounceOwnership",
      "outputs": [],
      "stateMutability": "nonpayable",
      "type": "function"
    },
    {
      "inputs": [
        {
          "internalType": "address",
          "name": "from",
          "type": "address"
        },
        {
          "internalType": "address",
          "name": "to",
          "type": "address"
        },
        {
          "internalType": "uint256",
          "name": "tokenId",
          "type": "uint256"
        }
      ],
      "name": "safeTransferFrom",
      "outputs": [],
      "stateMutability": "nonpayable",
      "type": "function"
    },
    {
      "inputs": [
        {
          "internalType": "address",
          "name": "from",
          "type": "address"
        },
        {
          "internalType": "address",
          "name": "to",
          "type": "address"
        },
        {
          "internalType": "uint256",
          "name": "tokenId",
          "type": "uint256"
        },
        {
          "internalType": "bytes",
          "name": "data",
          "type": "bytes"
        }
      ],
      "name": "safeTransferFrom",
      "outputs": [],
      "stateMutability": "nonpayable",
      "type": "function"
    },
    {
      "inputs": [
        {
          "internalType": "address",
          "name": "operator",
          "type": "address"
        },
        {
          "internalType": "bool",
          "name": "approved",
          "type": "bool"
        }
      ],
      "name": "setApprovalForAll",
      "outputs": [],
      "stateMutability": "nonpayable",
      "type": "function"
    },
    {
      "inputs": [
        {
          "internalType": "address",
          "name": "_contractAddress",
          "type": "address"
        }
      ],
      "name": "setContractAddress",
      "outputs": [],
      "stateMutability": "nonpayable",
      "type": "function"
    },
    {
      "inputs": [
        {
          "internalType": "string",
          "name": "__tokenURI",
          "type": "string"
        },
        {
          "internalType": "string",
          "name": "__contractURI",
          "type": "string"
        }
      ],
      "name": "setMetaDataURIs",
      "outputs": [],
      "stateMutability": "nonpayable",
      "type": "function"
    },
    {
      "inputs": [
        {
          "internalType": "uint256",
          "name": "_maxPrice",
          "type": "uint256"
        },
        {
          "internalType": "uint256",
          "name": "_tokenLimit",
          "type": "uint256"
        },
        {
          "internalType": "bool",
          "name": "_marketPlaceEnabled",
          "type": "bool"
        }
      ],
      "name": "setTokenomics",
      "outputs": [],
      "stateMutability": "nonpayable",
      "type": "function"
    },
    {
      "inputs": [
        {
          "internalType": "bytes4",
          "name": "interfaceId",
          "type": "bytes4"
        }
      ],
      "name": "supportsInterface",
      "outputs": [
        {
          "internalType": "bool",
          "name": "",
          "type": "bool"
        }
      ],
      "stateMutability": "view",
      "type": "function"
    },
    {
      "inputs": [],
      "name": "symbol",
      "outputs": [
        {
          "internalType": "string",
          "name": "",
          "type": "string"
        }
      ],
      "stateMutability": "view",
      "type": "function"
    },
    {
      "inputs": [
        {
          "internalType": "uint256",
          "name": "tokenId",
          "type": "uint256"
        }
      ],
      "name": "tokenURI",
      "outputs": [
        {
          "internalType": "string",
          "name": "",
          "type": "string"
        }
      ],
      "stateMutability": "view",
      "type": "function"
    },
    {
      "inputs": [],
      "name": "totalSupply",
      "outputs": [
        {
          "internalType": "uint256",
          "name": "",
          "type": "uint256"
        }
      ],
      "stateMutability": "view",
      "type": "function"
    },
    {
      "inputs": [
        {
          "internalType": "address",
          "name": "from",
          "type": "address"
        },
        {
          "internalType": "address",
          "name": "to",
          "type": "address"
        },
        {
          "internalType": "uint256",
          "name": "tokenId",
          "type": "uint256"
        }
      ],
      "name": "transferFrom",
      "outputs": [],
      "stateMutability": "nonpayable",
      "type": "function"
    },
    {
      "inputs": [
        {
          "internalType": "address",
          "name": "newOwner",
          "type": "address"
        }
      ],
      "name": "transferOwnership",
      "outputs": [],
      "stateMutability": "nonpayable",
      "type": "function"
    },
    {
      "inputs": [
        {
          "internalType": "uint256",
          "name": "tokenId",
          "type": "uint256"
        }
      ],
      "name": "unwrap",
      "outputs": [],
      "stateMutability": "nonpayable",
      "type": "function"
    },
    {
      "inputs": [
        {
          "internalType": "address",
          "name": "owner",
          "type": "address"
        }
      ],
      "name": "uwBalanceOf",
      "outputs": [
        {
          "internalType": "uint256",
          "name": "",
          "type": "uint256"
        }
      ],
      "stateMutability": "view",
      "type": "function"
    },
    {
      "inputs": [
        {
          "internalType": "uint256",
          "name": "startIndex",
          "type": "uint256"
        },
        {
          "internalType": "uint256",
          "name": "total",
          "type": "uint256"
        }
      ],
      "name": "uwGetAllTokens",
      "outputs": [
        {
          "components": [
            {
              "internalType": "uint256",
              "name": "tokenId",
              "type": "uint256"
            },
            {
              "internalType": "string",
              "name": "name",
              "type": "string"
            },
            {
              "internalType": "bytes32",
              "name": "attributeSeed",
              "type": "bytes32"
            },
            {
              "internalType": "bytes32",
              "name": "dna",
              "type": "bytes32"
            },
            {
              "internalType": "uint128",
              "name": "experience",
              "type": "uint128"
            },
            {
              "internalType": "uint128",
              "name": "timeOfBirth",
              "type": "uint128"
            },
            {
              "internalType": "address",
              "name": "owner",
              "type": "address"
            },
            {
              "internalType": "uint256",
              "name": "price",
              "type": "uint256"
            }
          ],
          "internalType": "struct IPCWrapper.t_raw_ipc[]",
          "name": "",
          "type": "tuple[]"
        }
      ],
      "stateMutability": "view",
      "type": "function"
    },
    {
      "inputs": [
        {
          "internalType": "address",
          "name": "owner",
          "type": "address"
        }
      ],
      "name": "uwGetTokenIdsOfOwner",
      "outputs": [
        {
          "internalType": "uint256[]",
          "name": "",
          "type": "uint256[]"
        }
      ],
      "stateMutability": "view",
      "type": "function"
    },
    {
      "inputs": [
        {
          "internalType": "address",
          "name": "owner",
          "type": "address"
        },
        {
          "internalType": "uint256",
          "name": "startIndex",
          "type": "uint256"
        },
        {
          "internalType": "uint256",
          "name": "total",
          "type": "uint256"
        }
      ],
      "name": "uwGetTokensOfOwner",
      "outputs": [
        {
          "components": [
            {
              "internalType": "uint256",
              "name": "tokenId",
              "type": "uint256"
            },
            {
              "internalType": "string",
              "name": "name",
              "type": "string"
            },
            {
              "internalType": "bytes32",
              "name": "attributeSeed",
              "type": "bytes32"
            },
            {
              "internalType": "bytes32",
              "name": "dna",
              "type": "bytes32"
            },
            {
              "internalType": "uint128",
              "name": "experience",
              "type": "uint128"
            },
            {
              "internalType": "uint128",
              "name": "timeOfBirth",
              "type": "uint128"
            },
            {
              "internalType": "address",
              "name": "owner",
              "type": "address"
            },
            {
              "internalType": "uint256",
              "name": "price",
              "type": "uint256"
            }
          ],
          "internalType": "struct IPCWrapper.t_raw_ipc[]",
          "name": "",
          "type": "tuple[]"
        }
      ],
      "stateMutability": "view",
      "type": "function"
    },
    {
      "inputs": [
        {
          "internalType": "uint256",
          "name": "tokenId",
          "type": "uint256"
        }
      ],
      "name": "uwOwnerOf",
      "outputs": [
        {
          "internalType": "address",
          "name": "",
          "type": "address"
        }
      ],
      "stateMutability": "view",
      "type": "function"
    },
    {
      "inputs": [
        {
          "internalType": "address",
          "name": "owner",
          "type": "address"
        }
      ],
      "name": "wBalanceOf",
      "outputs": [
        {
          "internalType": "uint256",
          "name": "",
          "type": "uint256"
        }
      ],
      "stateMutability": "view",
      "type": "function"
    },
    {
      "inputs": [
        {
          "internalType": "address",
          "name": "owner",
          "type": "address"
        }
      ],
      "name": "wGetTokenIdsOfOwner",
      "outputs": [
        {
          "internalType": "uint256[]",
          "name": "",
          "type": "uint256[]"
        }
      ],
      "stateMutability": "view",
      "type": "function"
    },
    {
      "inputs": [
        {
          "internalType": "address",
          "name": "owner",
          "type": "address"
        },
        {
          "internalType": "uint256",
          "name": "startIndex",
          "type": "uint256"
        },
        {
          "internalType": "uint256",
          "name": "total",
          "type": "uint256"
        }
      ],
      "name": "wGetTokensOfOwner",
      "outputs": [
        {
          "components": [
            {
              "internalType": "uint256",
              "name": "tokenId",
              "type": "uint256"
            },
            {
              "internalType": "string",
              "name": "name",
              "type": "string"
            },
            {
              "internalType": "bytes32",
              "name": "attributeSeed",
              "type": "bytes32"
            },
            {
              "internalType": "bytes32",
              "name": "dna",
              "type": "bytes32"
            },
            {
              "internalType": "uint128",
              "name": "experience",
              "type": "uint128"
            },
            {
              "internalType": "uint128",
              "name": "timeOfBirth",
              "type": "uint128"
            },
            {
              "internalType": "address",
              "name": "owner",
              "type": "address"
            },
            {
              "internalType": "uint256",
              "name": "price",
              "type": "uint256"
            }
          ],
          "internalType": "struct IPCWrapper.t_raw_ipc[]",
          "name": "",
          "type": "tuple[]"
        }
      ],
      "stateMutability": "view",
      "type": "function"
    },
    {
      "inputs": [
        {
          "internalType": "uint256",
          "name": "tokenId",
          "type": "uint256"
        }
      ],
      "name": "wOwnerOf",
      "outputs": [
        {
          "internalType": "address",
          "name": "",
          "type": "address"
        }
      ],
      "stateMutability": "view",
      "type": "function"
    },
    {
      "inputs": [],
      "name": "withdrawalVault",
      "outputs": [],
      "stateMutability": "nonpayable",
      "type": "function"
    },
    {
      "inputs": [
        {
          "internalType": "uint256",
          "name": "tokenId",
          "type": "uint256"
        }
      ],
      "name": "wrap",
      "outputs": [],
      "stateMutability": "nonpayable",
      "type": "function"
    },
    {
      "inputs": [
        {
          "internalType": "uint256",
          "name": "totalTokens",
          "type": "uint256"
        },
        {
          "internalType": "bool",
          "name": "wrapTokens",
          "type": "bool"
        }
      ],
      "name": "wrapX",
      "outputs": [],
      "stateMutability": "nonpayable",
      "type": "function"
    },
    {
      "inputs": [
        {
          "internalType": "uint256",
          "name": "tokenId",
          "type": "uint256"
        }
      ],
      "name": "wuwOwnerOf",
      "outputs": [
        {
          "internalType": "address",
          "name": "",
          "type": "address"
        }
      ],
      "stateMutability": "view",
      "type": "function"
    }
  ],
  "bytecode": "0x60806040523480156200001157600080fd5b50604051620060ec380380620060ec8339818101604052810190620000379190620003b7565b6040518060400160405280601d81526020017f496d6d6f7274616c20506c6179657220436861726163746572732076300000008152506040518060400160405280600581526020017f4950435630000000000000000000000000000000000000000000000000000000815250620000c3620000b7620001d160201b60201c565b620001d960201b60201c565b8160019080519060200190620000db9291906200029d565b508060029080519060200190620000f49291906200029d565b50505080600960006101000a81548173ffffffffffffffffffffffffffffffffffffffff021916908373ffffffffffffffffffffffffffffffffffffffff160217905550604051806080016040528060438152602001620060a96043913960079080519060200190620001699291906200029d565b506040518060800160405280605081526020016200605960509139600890805190602001906200019b9291906200029d565b50620f4240600a819055506103e8600b819055506001600c60006101000a81548160ff021916908315150217905550506200044e565b600033905090565b60008060009054906101000a900473ffffffffffffffffffffffffffffffffffffffff169050816000806101000a81548173ffffffffffffffffffffffffffffffffffffffff021916908373ffffffffffffffffffffffffffffffffffffffff1602179055508173ffffffffffffffffffffffffffffffffffffffff168173ffffffffffffffffffffffffffffffffffffffff167f8be0079c531659141344cd1fd0a4f28419497f9722a3daafe3b4186f6b6457e060405160405180910390a35050565b828054620002ab9062000418565b90600052602060002090601f016020900481019282620002cf57600085556200031b565b82601f10620002ea57805160ff19168380011785556200031b565b828001600101855582156200031b579182015b828111156200031a578251825591602001919060010190620002fd565b5b5090506200032a91906200032e565b5090565b5b80821115620003495760008160009055506001016200032f565b5090565b600080fd5b600073ffffffffffffffffffffffffffffffffffffffff82169050919050565b60006200037f8262000352565b9050919050565b620003918162000372565b81146200039d57600080fd5b50565b600081519050620003b18162000386565b92915050565b600060208284031215620003d057620003cf6200034d565b5b6000620003e084828501620003a0565b91505092915050565b7f4e487b7100000000000000000000000000000000000000000000000000000000600052602260045260246000fd5b600060028204905060018216806200043157607f821691505b60208210811415620004485762000447620003e9565b5b50919050565b615bfb806200045e6000396000f3fe608060405234801561001057600080fd5b506004361061023d5760003560e01c80637fff1e2f1161013b578063c87b56dd116100b8578063e985e9c51161007c578063e985e9c514610734578063ea598cb014610764578063ec0cfd0b14610780578063f0b9e5ba1461079e578063f2fde38b146107ce5761023d565b8063c87b56dd1461066a578063d764600d1461069a578063de0e9a3e146106ca578063e44141a9146106e6578063e8a3d485146107165761023d565b8063a22cb465116100ff578063a22cb465146105b6578063a81464da146105d2578063b4f01a02146105ee578063b88d4fde1461061e578063c2619d131461063a5761023d565b80637fff1e2f146104fe5780638da5cb5b1461052e57806395d89b411461054c57806395ea21511461056a5780639c474702146105865761023d565b8063367213df116101c95780636352211e1161018d5780636352211e1461045a57806369d421481461048a57806370a0823114610494578063715018a6146104c4578063736d098b146104ce5761023d565b8063367213df146103a657806342842e0e146103c2578063477bddaa146103de57806348ccd467146103fa5780634f6cfe2a1461042a5761023d565b8063081812fc11610210578063081812fc146102f0578063095ea7b314610320578063150b7a021461033c57806318160ddd1461036c57806323b872dd1461038a5761023d565b8063013abd6c1461024257806301ffc9a7146102725780630280276a146102a257806306fdde03146102d2575b600080fd5b61025c60048036038101906102579190613c0c565b6107ea565b6040516102699190613c52565b60405180910390f35b61028c60048036038101906102879190613cc5565b6108a9565b6040516102999190613d0d565b60405180910390f35b6102bc60048036038101906102b79190613c0c565b61098b565b6040516102c99190613de6565b60405180910390f35b6102da610a28565b6040516102e79190613ea1565b60405180910390f35b61030a60048036038101906103059190613eef565b610aba565b6040516103179190613f2b565b60405180910390f35b61033a60048036038101906103359190613f46565b610b00565b005b61035660048036038101906103519190613feb565b610c18565b6040516103639190614082565b60405180910390f35b610374610c2d565b6040516103819190613c52565b60405180910390f35b6103a4600480360381019061039f919061409d565b610cd4565b005b6103c060048036038101906103bb919061411c565b610d34565b005b6103dc60048036038101906103d7919061409d565b610d69565b005b6103f860048036038101906103f39190613c0c565b610d89565b005b610414600480360381019061040f9190613c0c565b610dd5565b6040516104219190613c52565b60405180910390f35b610444600480360381019061043f919061416f565b610e1e565b60405161045191906143d1565b60405180910390f35b610474600480360381019061046f9190613eef565b611003565b6040516104819190613f2b565b60405180910390f35b6104926110b5565b005b6104ae60048036038101906104a99190613c0c565b61116c565b6040516104bb9190613c52565b60405180910390f35b6104cc611224565b005b6104e860048036038101906104e39190613eef565b611238565b6040516104f59190613f2b565b60405180910390f35b61051860048036038101906105139190613eef565b61134f565b60405161052591906144a3565b60405180910390f35b610536611567565b6040516105439190613f2b565b60405180910390f35b610554611590565b6040516105619190613ea1565b60405180910390f35b610584600480360381019061057f91906144c5565b611622565b005b6105a0600480360381019061059b9190613c0c565b611718565b6040516105ad9190613de6565b60405180910390f35b6105d060048036038101906105cb9190614505565b6117d7565b005b6105ec60048036038101906105e7919061459b565b6117ed565b005b61060860048036038101906106039190613eef565b61181f565b6040516106159190613f2b565b60405180910390f35b6106386004803603810190610633919061474c565b6118d3565b005b610654600480360381019061064f91906147cf565b611935565b60405161066191906143d1565b60405180910390f35b610684600480360381019061067f9190613eef565b611a7f565b6040516106919190613ea1565b60405180910390f35b6106b460048036038101906106af919061416f565b611ae7565b6040516106c191906143d1565b60405180910390f35b6106e460048036038101906106df9190613eef565b611cee565b005b61070060048036038101906106fb9190613eef565b611f7d565b60405161070d9190613f2b565b60405180910390f35b61071e611fbf565b60405161072b9190613ea1565b60405180910390f35b61074e6004803603810190610749919061480f565b612051565b60405161075b9190613d0d565b60405180910390f35b61077e60048036038101906107799190613eef565b6120e5565b005b6107886123ce565b60405161079591906148ee565b60405180910390f35b6107b860048036038101906107b39190614910565b612577565b6040516107c59190614082565b60405180910390f35b6107e860048036038101906107e39190613c0c565b6125a4565b005b600080600960009054906101000a900473ffffffffffffffffffffffffffffffffffffffff1673ffffffffffffffffffffffffffffffffffffffff16638462151c846040518263ffffffff1660e01b81526004016108489190613f2b565b60006040518083038186803b15801561086057600080fd5b505afa158015610874573d6000803e3d6000fd5b505050506040513d6000823e3d601f19601f8201168201806040525081019061089d9190614a5c565b90508051915050919050565b60007f80ac58cd000000000000000000000000000000000000000000000000000000007bffffffffffffffffffffffffffffffffffffffffffffffffffffffff1916827bffffffffffffffffffffffffffffffffffffffffffffffffffffffff1916148061097457507f5b5e139f000000000000000000000000000000000000000000000000000000007bffffffffffffffffffffffffffffffffffffffffffffffffffffffff1916827bffffffffffffffffffffffffffffffffffffffffffffffffffffffff1916145b80610984575061098382612628565b5b9050919050565b60606000600d60008473ffffffffffffffffffffffffffffffffffffffff1673ffffffffffffffffffffffffffffffffffffffff168152602001908152602001600020805480602002602001604051908101604052809291908181526020018280548015610a1857602002820191906000526020600020905b815481526020019060010190808311610a04575b5050505050905080915050919050565b606060018054610a3790614ad4565b80601f0160208091040260200160405190810160405280929190818152602001828054610a6390614ad4565b8015610ab05780601f10610a8557610100808354040283529160200191610ab0565b820191906000526020600020905b815481529060010190602001808311610a9357829003601f168201915b5050505050905090565b6000610ac582612692565b6005600083815260200190815260200160002060009054906101000a900473ffffffffffffffffffffffffffffffffffffffff169050919050565b6000610b0b82611003565b90508073ffffffffffffffffffffffffffffffffffffffff168373ffffffffffffffffffffffffffffffffffffffff161415610b7c576040517f08c379a0000000000000000000000000000000000000000000000000000000008152600401610b7390614b78565b60405180910390fd5b8073ffffffffffffffffffffffffffffffffffffffff16610b9b6126dd565b73ffffffffffffffffffffffffffffffffffffffff161480610bca5750610bc981610bc46126dd565b612051565b5b610c09576040517f08c379a0000000000000000000000000000000000000000000000000000000008152600401610c0090614c0a565b60405180910390fd5b610c1383836126e5565b505050565b600063150b7a0260e01b905095945050505050565b6000600960009054906101000a900473ffffffffffffffffffffffffffffffffffffffff1673ffffffffffffffffffffffffffffffffffffffff166318160ddd6040518163ffffffff1660e01b815260040160206040518083038186803b158015610c9757600080fd5b505afa158015610cab573d6000803e3d6000fd5b505050506040513d601f19601f82011682018060405250810190610ccf9190614c2a565b905090565b610ce5610cdf6126dd565b8261279e565b610d24576040517f08c379a0000000000000000000000000000000000000000000000000000000008152600401610d1b90614cc9565b60405180910390fd5b610d2f838383612833565b505050565b610d3c612b29565b82600a8190555081600b8190555080600c60006101000a81548160ff021916908315150217905550505050565b610d84838383604051806020016040528060008152506118d3565b505050565b610d91612b29565b80600960006101000a81548173ffffffffffffffffffffffffffffffffffffffff021916908373ffffffffffffffffffffffffffffffffffffffff16021790555050565b6000600460008373ffffffffffffffffffffffffffffffffffffffff1673ffffffffffffffffffffffffffffffffffffffff168152602001908152602001600020549050919050565b60606000600d60008673ffffffffffffffffffffffffffffffffffffffff1673ffffffffffffffffffffffffffffffffffffffff168152602001908152602001600020805480602002602001604051908101604052809291908181526020018280548015610eab57602002820191906000526020600020905b815481526020019060010190808311610e97575b5050505050905060008151905080851115610ec557600094505b6000811115610f00576000841480610ee757508481610ee49190614d18565b84115b15610efb578481610ef89190614d18565b93505b610f09565b60009050600193505b60008467ffffffffffffffff811115610f2557610f24614621565b5b604051908082528060200260200182016040528015610f5e57816020015b610f4b613a24565b815260200190600190039081610f435790505b5090506000821415610f7557809350505050610ffc565b600080610f80613a24565b600092505b87831015610ff25785838a610f9a9190614d4c565b81518110610fab57610faa614da2565b5b60200260200101519150610fbe8261134f565b905080848481518110610fd457610fd3614da2565b5b60200260200101819052508280610fea90614dd1565b935050610f85565b8396505050505050505b9392505050565b6000806003600084815260200190815260200160002060009054906101000a900473ffffffffffffffffffffffffffffffffffffffff169050600073ffffffffffffffffffffffffffffffffffffffff168173ffffffffffffffffffffffffffffffffffffffff1614156110ac576040517f08c379a00000000000000000000000000000000000000000000000000000000081526004016110a390614e66565b60405180910390fd5b80915050919050565b6110bd612b29565b60003373ffffffffffffffffffffffffffffffffffffffff16476040516110e390614eb7565b60006040518083038185875af1925050503d8060008114611120576040519150601f19603f3d011682016040523d82523d6000602084013e611125565b606091505b5050905080611169576040517f08c379a000000000000000000000000000000000000000000000000000000000815260040161116090614f18565b60405180910390fd5b50565b60008073ffffffffffffffffffffffffffffffffffffffff168273ffffffffffffffffffffffffffffffffffffffff1614156111dd576040517f08c379a00000000000000000000000000000000000000000000000000000000081526004016111d490614faa565b60405180910390fd5b600460008373ffffffffffffffffffffffffffffffffffffffff1673ffffffffffffffffffffffffffffffffffffffff168152602001908152602001600020549050919050565b61122c612b29565b6112366000612ba7565b565b600080151561124683612c6b565b1515148061128757503073ffffffffffffffffffffffffffffffffffffffff1661126f83611f7d565b73ffffffffffffffffffffffffffffffffffffffff16145b1561133e57600960009054906101000a900473ffffffffffffffffffffffffffffffffffffffff1673ffffffffffffffffffffffffffffffffffffffff16636352211e836040518263ffffffff1660e01b81526004016112e79190613c52565b60206040518083038186803b1580156112ff57600080fd5b505afa158015611313573d6000803e3d6000fd5b505050506040513d601f19601f820116820180604052508101906113379190614fdf565b905061134a565b61134782611f7d565b90505b919050565b611357613a24565b6000806000806000600960009054906101000a900473ffffffffffffffffffffffffffffffffffffffff1673ffffffffffffffffffffffffffffffffffffffff16637fff1e2f886040518263ffffffff1660e01b81526004016113ba9190613c52565b60006040518083038186803b1580156113d257600080fd5b505afa1580156113e6573d6000803e3d6000fd5b505050506040513d6000823e3d601f19601f8201168201806040525081019061140f9190615105565b945094509450945094506000600960009054906101000a900473ffffffffffffffffffffffffffffffffffffffff1673ffffffffffffffffffffffffffffffffffffffff166331ef7314896040518263ffffffff1660e01b81526004016114769190613c52565b60806040518083038186803b15801561148e57600080fd5b505afa1580156114a2573d6000803e3d6000fd5b505050506040513d601f19601f820116820180604052508101906114c69190615255565b905060006114d389611238565b905060006040518061010001604052808b8152602001898152602001888152602001878152602001866fffffffffffffffffffffffffffffffff168152602001856fffffffffffffffffffffffffffffffff1681526020018373ffffffffffffffffffffffffffffffffffffffff168152602001846000015163ffffffff1681525090508098505050505050505050919050565b60008060009054906101000a900473ffffffffffffffffffffffffffffffffffffffff16905090565b60606002805461159f90614ad4565b80601f01602080910402602001604051908101604052809291908181526020018280546115cb90614ad4565b80156116185780601f106115ed57610100808354040283529160200191611618565b820191906000526020600020905b8154815290600101906020018083116115fb57829003601f168201915b5050505050905090565b60606001151582151514156116415761163a33611718565b905061164d565b61164a3361098b565b90505b60008084148061165e575081518410155b1561166857815193505b60005b848110156116d65782818151811061168657611685614da2565b5b602002602001015191506000821161169d576116c3565b6001151584151514156116b8576116b3826120e5565b6116c2565b6116c182611cee565b5b5b80806116ce90614dd1565b91505061166b565b507f968fa764455940159c7d12b29c1fa4ebfad4b0a7a58c86260c956d51e83fbfc333848660405161170a93929190615282565b60405180910390a150505050565b60606000600960009054906101000a900473ffffffffffffffffffffffffffffffffffffffff1673ffffffffffffffffffffffffffffffffffffffff16638462151c846040518263ffffffff1660e01b81526004016117779190613f2b565b60006040518083038186803b15801561178f57600080fd5b505afa1580156117a3573d6000803e3d6000fd5b505050506040513d6000823e3d601f19601f820116820180604052508101906117cc9190614a5c565b905080915050919050565b6117e96117e26126dd565b8383612cd7565b5050565b6117f5612b29565b838360079190611806929190613aa9565b50818160089190611818929190613aa9565b5050505050565b6000600960009054906101000a900473ffffffffffffffffffffffffffffffffffffffff1673ffffffffffffffffffffffffffffffffffffffff16636352211e836040518263ffffffff1660e01b815260040161187c9190613c52565b60206040518083038186803b15801561189457600080fd5b505afa1580156118a8573d6000803e3d6000fd5b505050506040513d601f19601f820116820180604052508101906118cc9190614fdf565b9050919050565b6118e46118de6126dd565b8361279e565b611923576040517f08c379a000000000000000000000000000000000000000000000000000000000815260040161191a90614cc9565b60405180910390fd5b61192f84848484612e44565b50505050565b60606000611941610c2d565b9050600084148061195157508084115b1561195b57600193505b60008111156119a257600083148061198957508360018261197c9190614d4c565b6119869190614d18565b83115b1561199d57838161199a9190614d18565b92505b6119ab565b60009050600192505b60008367ffffffffffffffff8111156119c7576119c6614621565b5b604051908082528060200260200182016040528015611a0057816020015b6119ed613a24565b8152602001906001900390816119e55790505b5090506000821415611a16578092505050611a79565b60005b84811015611a725760008187611a2f9190614d4c565b90506000611a3c8261134f565b905080848481518110611a5257611a51614da2565b5b602002602001018190525050508080611a6a90614dd1565b915050611a19565b8193505050505b92915050565b6060611a8a82612692565b6000611a94612ea0565b90506000815111611ab45760405180602001604052806000815250611adf565b80611abe84612f32565b604051602001611acf9291906152f5565b6040516020818303038152906040525b915050919050565b60606000600960009054906101000a900473ffffffffffffffffffffffffffffffffffffffff1673ffffffffffffffffffffffffffffffffffffffff16638462151c866040518263ffffffff1660e01b8152600401611b469190613f2b565b60006040518083038186803b158015611b5e57600080fd5b505afa158015611b72573d6000803e3d6000fd5b505050506040513d6000823e3d601f19601f82011682018060405250810190611b9b9190614a5c565b905060008151905080851115611bb057600094505b6000811115611beb576000841480611bd257508481611bcf9190614d18565b84115b15611be6578481611be39190614d18565b93505b611bf4565b60009050600193505b60008467ffffffffffffffff811115611c1057611c0f614621565b5b604051908082528060200260200182016040528015611c4957816020015b611c36613a24565b815260200190600190039081611c2e5790505b5090506000821415611c6057809350505050611ce7565b600080611c6b613a24565b600092505b87831015611cdd5785838a611c859190614d4c565b81518110611c9657611c95614da2565b5b60200260200101519150611ca98261134f565b905080848481518110611cbf57611cbe614da2565b5b60200260200101819052508280611cd590614dd1565b935050611c70565b8396505050505050505b9392505050565b60001515611cfb82612c6b565b15151415611d3e576040517f08c379a0000000000000000000000000000000000000000000000000000000008152600401611d3590615365565b60405180910390fd5b6000611d4982611f7d565b90503073ffffffffffffffffffffffffffffffffffffffff168173ffffffffffffffffffffffffffffffffffffffff161415611dba576040517f08c379a0000000000000000000000000000000000000000000000000000000008152600401611db190615365565b60405180910390fd5b3373ffffffffffffffffffffffffffffffffffffffff168173ffffffffffffffffffffffffffffffffffffffff1614611e28576040517f08c379a0000000000000000000000000000000000000000000000000000000008152600401611e1f906153d1565b60405180910390fd5b6000611e338361181f565b90503073ffffffffffffffffffffffffffffffffffffffff168173ffffffffffffffffffffffffffffffffffffffff1614611ea3576040517f08c379a0000000000000000000000000000000000000000000000000000000008152600401611e9a9061543d565b60405180910390fd5b600960009054906101000a900473ffffffffffffffffffffffffffffffffffffffff1673ffffffffffffffffffffffffffffffffffffffff166342842e0e3033866040518463ffffffff1660e01b8152600401611f029392919061545d565b600060405180830381600087803b158015611f1c57600080fd5b505af1158015611f30573d6000803e3d6000fd5b50505050611f3f333085613093565b7f1d27d1c62712f590d53fa9eb8bbf3a75d09503deae319bb9d99644339cb312e18333604051611f70929190615494565b60405180910390a1505050565b6000806003600084815260200190815260200160002060009054906101000a900473ffffffffffffffffffffffffffffffffffffffff16905080915050919050565b606060088054611fce90614ad4565b80601f0160208091040260200160405190810160405280929190818152602001828054611ffa90614ad4565b80156120475780601f1061201c57610100808354040283529160200191612047565b820191906000526020600020905b81548152906001019060200180831161202a57829003601f168201915b5050505050905090565b6000600660008473ffffffffffffffffffffffffffffffffffffffff1673ffffffffffffffffffffffffffffffffffffffff16815260200190815260200160002060008373ffffffffffffffffffffffffffffffffffffffff1673ffffffffffffffffffffffffffffffffffffffff16815260200190815260200160002060009054906101000a900460ff16905092915050565b600b5481111561212a576040517f08c379a000000000000000000000000000000000000000000000000000000000815260040161212190615509565b60405180910390fd5b600061213582611f7d565b905061214082612c6b565b156121b4573073ffffffffffffffffffffffffffffffffffffffff168173ffffffffffffffffffffffffffffffffffffffff16146121b3576040517f08c379a00000000000000000000000000000000000000000000000000000000081526004016121aa90615575565b60405180910390fd5b5b60006121bf8361181f565b90503373ffffffffffffffffffffffffffffffffffffffff168173ffffffffffffffffffffffffffffffffffffffff161461222f576040517f08c379a0000000000000000000000000000000000000000000000000000000008152600401612226906155e1565b60405180910390fd5b600960009054906101000a900473ffffffffffffffffffffffffffffffffffffffff1673ffffffffffffffffffffffffffffffffffffffff166342842e0e3330866040518463ffffffff1660e01b815260040161228e9392919061545d565b600060405180830381600087803b1580156122a857600080fd5b505af11580156122bc573d6000803e3d6000fd5b50505050600c60009054906101000a900460ff161561236757600960009054906101000a900473ffffffffffffffffffffffffffffffffffffffff1673ffffffffffffffffffffffffffffffffffffffff16633d4cfe2184600a546040518363ffffffff1660e01b8152600401612334929190615601565b600060405180830381600087803b15801561234e57600080fd5b505af1158015612362573d6000803e3d6000fd5b505050505b61237083612c6b565b1561238557612380303385613093565b612390565b61238f338461322d565b5b7f9c307a39a47fdf1a019642a4e8a585ffe9894b5018226029887fe6d4241611bb83336040516123c1929190615494565b60405180910390a1505050565b6123d6613b2f565b6123de612b29565b60006040518060c00160405280600960009054906101000a900473ffffffffffffffffffffffffffffffffffffffff1673ffffffffffffffffffffffffffffffffffffffff1681526020016007805461243690614ad4565b80601f016020809104026020016040519081016040528092919081815260200182805461246290614ad4565b80156124af5780601f10612484576101008083540402835291602001916124af565b820191906000526020600020905b81548152906001019060200180831161249257829003601f168201915b50505050508152602001600880546124c690614ad4565b80601f01602080910402602001604051908101604052809291908181526020018280546124f290614ad4565b801561253f5780601f106125145761010080835404028352916020019161253f565b820191906000526020600020905b81548152906001019060200180831161252257829003601f168201915b50505050508152602001600a548152602001600b548152602001600c60009054906101000a900460ff16151581525090508091505090565b60007ff0b9e5baf647f945565b0ac04522b519449041bdd44f952626b9ead9ff3692419050949350505050565b6125ac612b29565b600073ffffffffffffffffffffffffffffffffffffffff168173ffffffffffffffffffffffffffffffffffffffff16141561261c576040517f08c379a00000000000000000000000000000000000000000000000000000000081526004016126139061569c565b60405180910390fd5b61262581612ba7565b50565b60007f01ffc9a7000000000000000000000000000000000000000000000000000000007bffffffffffffffffffffffffffffffffffffffffffffffffffffffff1916827bffffffffffffffffffffffffffffffffffffffffffffffffffffffff1916149050919050565b61269b81612c6b565b6126da576040517f08c379a00000000000000000000000000000000000000000000000000000000081526004016126d190614e66565b60405180910390fd5b50565b600033905090565b816005600083815260200190815260200160002060006101000a81548173ffffffffffffffffffffffffffffffffffffffff021916908373ffffffffffffffffffffffffffffffffffffffff160217905550808273ffffffffffffffffffffffffffffffffffffffff1661275883611003565b73ffffffffffffffffffffffffffffffffffffffff167f8c5be1e5ebec7d5bd14f71427d1e84f3dd0314c0f7b2291e5b200ac8c7c3b92560405160405180910390a45050565b6000806127aa83611003565b90508073ffffffffffffffffffffffffffffffffffffffff168473ffffffffffffffffffffffffffffffffffffffff1614806127ec57506127eb8185612051565b5b8061282a57508373ffffffffffffffffffffffffffffffffffffffff1661281284610aba565b73ffffffffffffffffffffffffffffffffffffffff16145b91505092915050565b8273ffffffffffffffffffffffffffffffffffffffff1661285382611003565b73ffffffffffffffffffffffffffffffffffffffff16146128a9576040517f08c379a00000000000000000000000000000000000000000000000000000000081526004016128a09061572e565b60405180910390fd5b600073ffffffffffffffffffffffffffffffffffffffff168273ffffffffffffffffffffffffffffffffffffffff161415612919576040517f08c379a0000000000000000000000000000000000000000000000000000000008152600401612910906157c0565b60405180910390fd5b61292483838361324b565b8273ffffffffffffffffffffffffffffffffffffffff1661294482611003565b73ffffffffffffffffffffffffffffffffffffffff161461299a576040517f08c379a00000000000000000000000000000000000000000000000000000000081526004016129919061572e565b60405180910390fd5b6005600082815260200190815260200160002060006101000a81549073ffffffffffffffffffffffffffffffffffffffff02191690556001600460008573ffffffffffffffffffffffffffffffffffffffff1673ffffffffffffffffffffffffffffffffffffffff168152602001908152602001600020600082825403925050819055506001600460008473ffffffffffffffffffffffffffffffffffffffff1673ffffffffffffffffffffffffffffffffffffffff16815260200190815260200160002060008282540192505081905550816003600083815260200190815260200160002060006101000a81548173ffffffffffffffffffffffffffffffffffffffff021916908373ffffffffffffffffffffffffffffffffffffffff160217905550808273ffffffffffffffffffffffffffffffffffffffff168473ffffffffffffffffffffffffffffffffffffffff167fddf252ad1be2c89b69c2b068fc378daa952ba7f163c4a11628f55a4df523b3ef60405160405180910390a4612b24838383613250565b505050565b612b316126dd565b73ffffffffffffffffffffffffffffffffffffffff16612b4f611567565b73ffffffffffffffffffffffffffffffffffffffff1614612ba5576040517f08c379a0000000000000000000000000000000000000000000000000000000008152600401612b9c9061582c565b60405180910390fd5b565b60008060009054906101000a900473ffffffffffffffffffffffffffffffffffffffff169050816000806101000a81548173ffffffffffffffffffffffffffffffffffffffff021916908373ffffffffffffffffffffffffffffffffffffffff1602179055508173ffffffffffffffffffffffffffffffffffffffff168173ffffffffffffffffffffffffffffffffffffffff167f8be0079c531659141344cd1fd0a4f28419497f9722a3daafe3b4186f6b6457e060405160405180910390a35050565b60008073ffffffffffffffffffffffffffffffffffffffff166003600084815260200190815260200160002060009054906101000a900473ffffffffffffffffffffffffffffffffffffffff1673ffffffffffffffffffffffffffffffffffffffff1614159050919050565b8173ffffffffffffffffffffffffffffffffffffffff168373ffffffffffffffffffffffffffffffffffffffff161415612d46576040517f08c379a0000000000000000000000000000000000000000000000000000000008152600401612d3d90615898565b60405180910390fd5b80600660008573ffffffffffffffffffffffffffffffffffffffff1673ffffffffffffffffffffffffffffffffffffffff16815260200190815260200160002060008473ffffffffffffffffffffffffffffffffffffffff1673ffffffffffffffffffffffffffffffffffffffff16815260200190815260200160002060006101000a81548160ff0219169083151502179055508173ffffffffffffffffffffffffffffffffffffffff168373ffffffffffffffffffffffffffffffffffffffff167f17307eab39ab6107e8899845ad3d59bd9653f200f220920489ca2b5937696c3183604051612e379190613d0d565b60405180910390a3505050565b612e4f848484612833565b612e5b84848484613346565b612e9a576040517f08c379a0000000000000000000000000000000000000000000000000000000008152600401612e919061592a565b60405180910390fd5b50505050565b606060078054612eaf90614ad4565b80601f0160208091040260200160405190810160405280929190818152602001828054612edb90614ad4565b8015612f285780601f10612efd57610100808354040283529160200191612f28565b820191906000526020600020905b815481529060010190602001808311612f0b57829003601f168201915b5050505050905090565b60606000821415612f7a576040518060400160405280600181526020017f3000000000000000000000000000000000000000000000000000000000000000815250905061308e565b600082905060005b60008214612fac578080612f9590614dd1565b915050600a82612fa59190615979565b9150612f82565b60008167ffffffffffffffff811115612fc857612fc7614621565b5b6040519080825280601f01601f191660200182016040528015612ffa5781602001600182028036833780820191505090505b5090505b60008514613087576001826130139190614d18565b9150600a8561302291906159aa565b603061302e9190614d4c565b60f81b81838151811061304457613043614da2565b5b60200101907effffffffffffffffffffffffffffffffffffffffffffffffffffffffffffff1916908160001a905350600a856130809190615979565b9450612ffe565b8093505050505b919050565b61309e83838361324b565b6005600082815260200190815260200160002060006101000a81549073ffffffffffffffffffffffffffffffffffffffff02191690556001600460008573ffffffffffffffffffffffffffffffffffffffff1673ffffffffffffffffffffffffffffffffffffffff168152602001908152602001600020600082825403925050819055506001600460008473ffffffffffffffffffffffffffffffffffffffff1673ffffffffffffffffffffffffffffffffffffffff16815260200190815260200160002060008282540192505081905550816003600083815260200190815260200160002060006101000a81548173ffffffffffffffffffffffffffffffffffffffff021916908373ffffffffffffffffffffffffffffffffffffffff160217905550808273ffffffffffffffffffffffffffffffffffffffff168473ffffffffffffffffffffffffffffffffffffffff167fddf252ad1be2c89b69c2b068fc378daa952ba7f163c4a11628f55a4df523b3ef60405160405180910390a4613228838383613250565b505050565b6132478282604051806020016040528060008152506134dd565b5050565b505050565b600073ffffffffffffffffffffffffffffffffffffffff168373ffffffffffffffffffffffffffffffffffffffff1614156132f057600d60008373ffffffffffffffffffffffffffffffffffffffff1673ffffffffffffffffffffffffffffffffffffffff168152602001908152602001600020819080600181540180825580915050600190039060005260206000200160009091909190915055613341565b600073ffffffffffffffffffffffffffffffffffffffff168273ffffffffffffffffffffffffffffffffffffffff1614156133345761332f8382613538565b613340565b61333f838383613737565b5b5b505050565b60006133678473ffffffffffffffffffffffffffffffffffffffff166137e7565b156134d0578373ffffffffffffffffffffffffffffffffffffffff1663150b7a026133906126dd565b8786866040518563ffffffff1660e01b81526004016133b29493929190615a30565b602060405180830381600087803b1580156133cc57600080fd5b505af19250505080156133fd57506040513d601f19601f820116820180604052508101906133fa9190615a91565b60015b613480573d806000811461342d576040519150601f19603f3d011682016040523d82523d6000602084013e613432565b606091505b50600081511415613478576040517f08c379a000000000000000000000000000000000000000000000000000000000815260040161346f9061592a565b60405180910390fd5b805181602001fd5b63150b7a0260e01b7bffffffffffffffffffffffffffffffffffffffffffffffffffffffff1916817bffffffffffffffffffffffffffffffffffffffffffffffffffffffff1916149150506134d5565b600190505b949350505050565b6134e7838361380a565b6134f46000848484613346565b613533576040517f08c379a000000000000000000000000000000000000000000000000000000000815260040161352a9061592a565b60405180910390fd5b505050565b6000600d60008473ffffffffffffffffffffffffffffffffffffffff1673ffffffffffffffffffffffffffffffffffffffff16815260200190815260200160002080549050905060005b818110156137315782600d60008673ffffffffffffffffffffffffffffffffffffffff1673ffffffffffffffffffffffffffffffffffffffff16815260200190815260200160002082815481106135dc576135db614da2565b5b9060005260206000200154141561371e57600d60008573ffffffffffffffffffffffffffffffffffffffff1673ffffffffffffffffffffffffffffffffffffffff1681526020019081526020016000206001836136399190614d18565b8154811061364a57613649614da2565b5b9060005260206000200154600d60008673ffffffffffffffffffffffffffffffffffffffff1673ffffffffffffffffffffffffffffffffffffffff16815260200190815260200160002082815481106136a6576136a5614da2565b5b9060005260206000200181905550600d60008573ffffffffffffffffffffffffffffffffffffffff1673ffffffffffffffffffffffffffffffffffffffff16815260200190815260200160002080548061370357613702615abe565b5b60019003818190600052602060002001600090559055613731565b808061372990614dd1565b915050613582565b50505050565b600073ffffffffffffffffffffffffffffffffffffffff168373ffffffffffffffffffffffffffffffffffffffff161415613771576137e2565b61377b8382613538565b600d60008373ffffffffffffffffffffffffffffffffffffffff1673ffffffffffffffffffffffffffffffffffffffff1681526020019081526020016000208190806001815401808255809150506001900390600052602060002001600090919091909150555b505050565b6000808273ffffffffffffffffffffffffffffffffffffffff163b119050919050565b600073ffffffffffffffffffffffffffffffffffffffff168273ffffffffffffffffffffffffffffffffffffffff16141561387a576040517f08c379a000000000000000000000000000000000000000000000000000000000815260040161387190615b39565b60405180910390fd5b61388381612c6b565b156138c3576040517f08c379a00000000000000000000000000000000000000000000000000000000081526004016138ba90615ba5565b60405180910390fd5b6138cf6000838361324b565b6138d881612c6b565b15613918576040517f08c379a000000000000000000000000000000000000000000000000000000000815260040161390f90615ba5565b60405180910390fd5b6001600460008473ffffffffffffffffffffffffffffffffffffffff1673ffffffffffffffffffffffffffffffffffffffff16815260200190815260200160002060008282540192505081905550816003600083815260200190815260200160002060006101000a81548173ffffffffffffffffffffffffffffffffffffffff021916908373ffffffffffffffffffffffffffffffffffffffff160217905550808273ffffffffffffffffffffffffffffffffffffffff16600073ffffffffffffffffffffffffffffffffffffffff167fddf252ad1be2c89b69c2b068fc378daa952ba7f163c4a11628f55a4df523b3ef60405160405180910390a4613a2060008383613250565b5050565b6040518061010001604052806000815260200160608152602001600080191681526020016000801916815260200160006fffffffffffffffffffffffffffffffff16815260200160006fffffffffffffffffffffffffffffffff168152602001600073ffffffffffffffffffffffffffffffffffffffff168152602001600081525090565b828054613ab590614ad4565b90600052602060002090601f016020900481019282613ad75760008555613b1e565b82601f10613af057803560ff1916838001178555613b1e565b82800160010185558215613b1e579182015b82811115613b1d578235825591602001919060010190613b02565b5b509050613b2b9190613b7d565b5090565b6040518060c00160405280600073ffffffffffffffffffffffffffffffffffffffff168152602001606081526020016060815260200160008152602001600081526020016000151581525090565b5b80821115613b96576000816000905550600101613b7e565b5090565b6000604051905090565b600080fd5b600080fd5b600073ffffffffffffffffffffffffffffffffffffffff82169050919050565b6000613bd982613bae565b9050919050565b613be981613bce565b8114613bf457600080fd5b50565b600081359050613c0681613be0565b92915050565b600060208284031215613c2257613c21613ba4565b5b6000613c3084828501613bf7565b91505092915050565b6000819050919050565b613c4c81613c39565b82525050565b6000602082019050613c676000830184613c43565b92915050565b60007fffffffff0000000000000000000000000000000000000000000000000000000082169050919050565b613ca281613c6d565b8114613cad57600080fd5b50565b600081359050613cbf81613c99565b92915050565b600060208284031215613cdb57613cda613ba4565b5b6000613ce984828501613cb0565b91505092915050565b60008115159050919050565b613d0781613cf2565b82525050565b6000602082019050613d226000830184613cfe565b92915050565b600081519050919050565b600082825260208201905092915050565b6000819050602082019050919050565b613d5d81613c39565b82525050565b6000613d6f8383613d54565b60208301905092915050565b6000602082019050919050565b6000613d9382613d28565b613d9d8185613d33565b9350613da883613d44565b8060005b83811015613dd9578151613dc08882613d63565b9750613dcb83613d7b565b925050600181019050613dac565b5085935050505092915050565b60006020820190508181036000830152613e008184613d88565b905092915050565b600081519050919050565b600082825260208201905092915050565b60005b83811015613e42578082015181840152602081019050613e27565b83811115613e51576000848401525b50505050565b6000601f19601f8301169050919050565b6000613e7382613e08565b613e7d8185613e13565b9350613e8d818560208601613e24565b613e9681613e57565b840191505092915050565b60006020820190508181036000830152613ebb8184613e68565b905092915050565b613ecc81613c39565b8114613ed757600080fd5b50565b600081359050613ee981613ec3565b92915050565b600060208284031215613f0557613f04613ba4565b5b6000613f1384828501613eda565b91505092915050565b613f2581613bce565b82525050565b6000602082019050613f406000830184613f1c565b92915050565b60008060408385031215613f5d57613f5c613ba4565b5b6000613f6b85828601613bf7565b9250506020613f7c85828601613eda565b9150509250929050565b600080fd5b600080fd5b600080fd5b60008083601f840112613fab57613faa613f86565b5b8235905067ffffffffffffffff811115613fc857613fc7613f8b565b5b602083019150836001820283011115613fe457613fe3613f90565b5b9250929050565b60008060008060006080868803121561400757614006613ba4565b5b600061401588828901613bf7565b955050602061402688828901613bf7565b945050604061403788828901613eda565b935050606086013567ffffffffffffffff81111561405857614057613ba9565b5b61406488828901613f95565b92509250509295509295909350565b61407c81613c6d565b82525050565b60006020820190506140976000830184614073565b92915050565b6000806000606084860312156140b6576140b5613ba4565b5b60006140c486828701613bf7565b93505060206140d586828701613bf7565b92505060406140e686828701613eda565b9150509250925092565b6140f981613cf2565b811461410457600080fd5b50565b600081359050614116816140f0565b92915050565b60008060006060848603121561413557614134613ba4565b5b600061414386828701613eda565b935050602061415486828701613eda565b925050604061416586828701614107565b9150509250925092565b60008060006060848603121561418857614187613ba4565b5b600061419686828701613bf7565b93505060206141a786828701613eda565b92505060406141b886828701613eda565b9150509250925092565b600081519050919050565b600082825260208201905092915050565b6000819050602082019050919050565b600082825260208201905092915050565b600061420a82613e08565b61421481856141ee565b9350614224818560208601613e24565b61422d81613e57565b840191505092915050565b6000819050919050565b61424b81614238565b82525050565b60006fffffffffffffffffffffffffffffffff82169050919050565b61427681614251565b82525050565b61428581613bce565b82525050565b6000610100830160008301516142a46000860182613d54565b50602083015184820360208601526142bc82826141ff565b91505060408301516142d16040860182614242565b5060608301516142e46060860182614242565b5060808301516142f7608086018261426d565b5060a083015161430a60a086018261426d565b5060c083015161431d60c086018261427c565b5060e083015161433060e0860182613d54565b508091505092915050565b6000614347838361428b565b905092915050565b6000602082019050919050565b6000614367826141c2565b61437181856141cd565b935083602082028501614383856141de565b8060005b858110156143bf57848403895281516143a0858261433b565b94506143ab8361434f565b925060208a01995050600181019050614387565b50829750879550505050505092915050565b600060208201905081810360008301526143eb818461435c565b905092915050565b60006101008301600083015161440c6000860182613d54565b506020830151848203602086015261442482826141ff565b91505060408301516144396040860182614242565b50606083015161444c6060860182614242565b50608083015161445f608086018261426d565b5060a083015161447260a086018261426d565b5060c083015161448560c086018261427c565b5060e083015161449860e0860182613d54565b508091505092915050565b600060208201905081810360008301526144bd81846143f3565b905092915050565b600080604083850312156144dc576144db613ba4565b5b60006144ea85828601613eda565b92505060206144fb85828601614107565b9150509250929050565b6000806040838503121561451c5761451b613ba4565b5b600061452a85828601613bf7565b925050602061453b85828601614107565b9150509250929050565b60008083601f84011261455b5761455a613f86565b5b8235905067ffffffffffffffff81111561457857614577613f8b565b5b60208301915083600182028301111561459457614593613f90565b5b9250929050565b600080600080604085870312156145b5576145b4613ba4565b5b600085013567ffffffffffffffff8111156145d3576145d2613ba9565b5b6145df87828801614545565b9450945050602085013567ffffffffffffffff81111561460257614601613ba9565b5b61460e87828801614545565b925092505092959194509250565b600080fd5b7f4e487b7100000000000000000000000000000000000000000000000000000000600052604160045260246000fd5b61465982613e57565b810181811067ffffffffffffffff8211171561467857614677614621565b5b80604052505050565b600061468b613b9a565b90506146978282614650565b919050565b600067ffffffffffffffff8211156146b7576146b6614621565b5b6146c082613e57565b9050602081019050919050565b82818337600083830152505050565b60006146ef6146ea8461469c565b614681565b90508281526020810184848401111561470b5761470a61461c565b5b6147168482856146cd565b509392505050565b600082601f83011261473357614732613f86565b5b81356147438482602086016146dc565b91505092915050565b6000806000806080858703121561476657614765613ba4565b5b600061477487828801613bf7565b945050602061478587828801613bf7565b935050604061479687828801613eda565b925050606085013567ffffffffffffffff8111156147b7576147b6613ba9565b5b6147c38782880161471e565b91505092959194509250565b600080604083850312156147e6576147e5613ba4565b5b60006147f485828601613eda565b925050602061480585828601613eda565b9150509250929050565b6000806040838503121561482657614825613ba4565b5b600061483485828601613bf7565b925050602061484585828601613bf7565b9150509250929050565b61485881613cf2565b82525050565b600060c083016000830151614876600086018261427c565b506020830151848203602086015261488e82826141ff565b915050604083015184820360408601526148a882826141ff565b91505060608301516148bd6060860182613d54565b5060808301516148d06080860182613d54565b5060a08301516148e360a086018261484f565b508091505092915050565b60006020820190508181036000830152614908818461485e565b905092915050565b6000806000806060858703121561492a57614929613ba4565b5b600061493887828801613bf7565b945050602061494987828801613eda565b935050604085013567ffffffffffffffff81111561496a57614969613ba9565b5b61497687828801613f95565b925092505092959194509250565b600067ffffffffffffffff82111561499f5761499e614621565b5b602082029050602081019050919050565b6000815190506149bf81613ec3565b92915050565b60006149d86149d384614984565b614681565b905080838252602082019050602084028301858111156149fb576149fa613f90565b5b835b81811015614a245780614a1088826149b0565b8452602084019350506020810190506149fd565b5050509392505050565b600082601f830112614a4357614a42613f86565b5b8151614a538482602086016149c5565b91505092915050565b600060208284031215614a7257614a71613ba4565b5b600082015167ffffffffffffffff811115614a9057614a8f613ba9565b5b614a9c84828501614a2e565b91505092915050565b7f4e487b7100000000000000000000000000000000000000000000000000000000600052602260045260246000fd5b60006002820490506001821680614aec57607f821691505b60208210811415614b0057614aff614aa5565b5b50919050565b7f4552433732313a20617070726f76616c20746f2063757272656e74206f776e6560008201527f7200000000000000000000000000000000000000000000000000000000000000602082015250565b6000614b62602183613e13565b9150614b6d82614b06565b604082019050919050565b60006020820190508181036000830152614b9181614b55565b9050919050565b7f4552433732313a20617070726f76652063616c6c6572206973206e6f7420746f60008201527f6b656e206f776e6572206f7220617070726f76656420666f7220616c6c000000602082015250565b6000614bf4603d83613e13565b9150614bff82614b98565b604082019050919050565b60006020820190508181036000830152614c2381614be7565b9050919050565b600060208284031215614c4057614c3f613ba4565b5b6000614c4e848285016149b0565b91505092915050565b7f4552433732313a2063616c6c6572206973206e6f7420746f6b656e206f776e6560008201527f72206f7220617070726f76656400000000000000000000000000000000000000602082015250565b6000614cb3602d83613e13565b9150614cbe82614c57565b604082019050919050565b60006020820190508181036000830152614ce281614ca6565b9050919050565b7f4e487b7100000000000000000000000000000000000000000000000000000000600052601160045260246000fd5b6000614d2382613c39565b9150614d2e83613c39565b925082821015614d4157614d40614ce9565b5b828203905092915050565b6000614d5782613c39565b9150614d6283613c39565b9250827fffffffffffffffffffffffffffffffffffffffffffffffffffffffffffffffff03821115614d9757614d96614ce9565b5b828201905092915050565b7f4e487b7100000000000000000000000000000000000000000000000000000000600052603260045260246000fd5b6000614ddc82613c39565b91507fffffffffffffffffffffffffffffffffffffffffffffffffffffffffffffffff821415614e0f57614e0e614ce9565b5b600182019050919050565b7f4552433732313a20696e76616c696420746f6b656e2049440000000000000000600082015250565b6000614e50601883613e13565b9150614e5b82614e1a565b602082019050919050565b60006020820190508181036000830152614e7f81614e43565b9050919050565b600081905092915050565b50565b6000614ea1600083614e86565b9150614eac82614e91565b600082019050919050565b6000614ec282614e94565b9150819050919050565b7f5641554c545f5452414e534645525f4641494c45440000000000000000000000600082015250565b6000614f02601583613e13565b9150614f0d82614ecc565b602082019050919050565b60006020820190508181036000830152614f3181614ef5565b9050919050565b7f4552433732313a2061646472657373207a65726f206973206e6f74206120766160008201527f6c6964206f776e65720000000000000000000000000000000000000000000000602082015250565b6000614f94602983613e13565b9150614f9f82614f38565b604082019050919050565b60006020820190508181036000830152614fc381614f87565b9050919050565b600081519050614fd981613be0565b92915050565b600060208284031215614ff557614ff4613ba4565b5b600061500384828501614fca565b91505092915050565b600067ffffffffffffffff82111561502757615026614621565b5b61503082613e57565b9050602081019050919050565b600061505061504b8461500c565b614681565b90508281526020810184848401111561506c5761506b61461c565b5b615077848285613e24565b509392505050565b600082601f83011261509457615093613f86565b5b81516150a484826020860161503d565b91505092915050565b6150b681614238565b81146150c157600080fd5b50565b6000815190506150d3816150ad565b92915050565b6150e281614251565b81146150ed57600080fd5b50565b6000815190506150ff816150d9565b92915050565b600080600080600060a0868803121561512157615120613ba4565b5b600086015167ffffffffffffffff81111561513f5761513e613ba9565b5b61514b8882890161507f565b955050602061515c888289016150c4565b945050604061516d888289016150c4565b935050606061517e888289016150f0565b925050608061518f888289016150f0565b9150509295509295909350565b600080fd5b600063ffffffff82169050919050565b6151ba816151a1565b81146151c557600080fd5b50565b6000815190506151d7816151b1565b92915050565b6000608082840312156151f3576151f261519c565b5b6151fd6080614681565b9050600061520d848285016151c8565b6000830152506020615221848285016151c8565b602083015250604061523584828501614fca565b604083015250606061524984828501614fca565b60608301525092915050565b60006080828403121561526b5761526a613ba4565b5b6000615279848285016151dd565b91505092915050565b60006060820190506152976000830186613f1c565b6152a46020830185613cfe565b6152b16040830184613c43565b949350505050565b600081905092915050565b60006152cf82613e08565b6152d981856152b9565b93506152e9818560208601613e24565b80840191505092915050565b600061530182856152c4565b915061530d82846152c4565b91508190509392505050565b7f544f4b454e5f4e4f545f57524150504544000000000000000000000000000000600082015250565b600061534f601183613e13565b915061535a82615319565b602082019050919050565b6000602082019050818103600083015261537e81615342565b9050919050565b7f554e575241505045445f4e4f545f4f574e455200000000000000000000000000600082015250565b60006153bb601383613e13565b91506153c682615385565b602082019050919050565b600060208201905081810360008301526153ea816153ae565b9050919050565b7f544f4b454e5f53544f4c454e0000000000000000000000000000000000000000600082015250565b6000615427600c83613e13565b9150615432826153f1565b602082019050919050565b600060208201905081810360008301526154568161541a565b9050919050565b60006060820190506154726000830186613f1c565b61547f6020830185613f1c565b61548c6040830184613c43565b949350505050565b60006040820190506154a96000830185613c43565b6154b66020830184613f1c565b9392505050565b7f544f4b454e5f4c494d49545f5245414348454400000000000000000000000000600082015250565b60006154f3601383613e13565b91506154fe826154bd565b602082019050919050565b60006020820190508181036000830152615522816154e6565b9050919050565b7f544f4b454e5f414c52454144595f575241505045440000000000000000000000600082015250565b600061555f601583613e13565b915061556a82615529565b602082019050919050565b6000602082019050818103600083015261558e81615552565b9050919050565b7f575241505045445f4e4f545f4f574e4552000000000000000000000000000000600082015250565b60006155cb601183613e13565b91506155d682615595565b602082019050919050565b600060208201905081810360008301526155fa816155be565b9050919050565b60006040820190506156166000830185613c43565b6156236020830184613c43565b9392505050565b7f4f776e61626c653a206e6577206f776e657220697320746865207a65726f206160008201527f6464726573730000000000000000000000000000000000000000000000000000602082015250565b6000615686602683613e13565b91506156918261562a565b604082019050919050565b600060208201905081810360008301526156b581615679565b9050919050565b7f4552433732313a207472616e736665722066726f6d20696e636f72726563742060008201527f6f776e6572000000000000000000000000000000000000000000000000000000602082015250565b6000615718602583613e13565b9150615723826156bc565b604082019050919050565b600060208201905081810360008301526157478161570b565b9050919050565b7f4552433732313a207472616e7366657220746f20746865207a65726f2061646460008201527f7265737300000000000000000000000000000000000000000000000000000000602082015250565b60006157aa602483613e13565b91506157b58261574e565b604082019050919050565b600060208201905081810360008301526157d98161579d565b9050919050565b7f4f776e61626c653a2063616c6c6572206973206e6f7420746865206f776e6572600082015250565b6000615816602083613e13565b9150615821826157e0565b602082019050919050565b6000602082019050818103600083015261584581615809565b9050919050565b7f4552433732313a20617070726f766520746f2063616c6c657200000000000000600082015250565b6000615882601983613e13565b915061588d8261584c565b602082019050919050565b600060208201905081810360008301526158b181615875565b9050919050565b7f4552433732313a207472616e7366657220746f206e6f6e20455243373231526560008201527f63656976657220696d706c656d656e7465720000000000000000000000000000602082015250565b6000615914603283613e13565b915061591f826158b8565b604082019050919050565b6000602082019050818103600083015261594381615907565b9050919050565b7f4e487b7100000000000000000000000000000000000000000000000000000000600052601260045260246000fd5b600061598482613c39565b915061598f83613c39565b92508261599f5761599e61594a565b5b828204905092915050565b60006159b582613c39565b91506159c083613c39565b9250826159d0576159cf61594a565b5b828206905092915050565b600081519050919050565b600082825260208201905092915050565b6000615a02826159db565b615a0c81856159e6565b9350615a1c818560208601613e24565b615a2581613e57565b840191505092915050565b6000608082019050615a456000830187613f1c565b615a526020830186613f1c565b615a5f6040830185613c43565b8181036060830152615a7181846159f7565b905095945050505050565b600081519050615a8b81613c99565b92915050565b600060208284031215615aa757615aa6613ba4565b5b6000615ab584828501615a7c565b91505092915050565b7f4e487b7100000000000000000000000000000000000000000000000000000000600052603160045260246000fd5b7f4552433732313a206d696e7420746f20746865207a65726f2061646472657373600082015250565b6000615b23602083613e13565b9150615b2e82615aed565b602082019050919050565b60006020820190508181036000830152615b5281615b16565b9050919050565b7f4552433732313a20746f6b656e20616c7265616479206d696e74656400000000600082015250565b6000615b8f601c83613e13565b9150615b9a82615b59565b602082019050919050565b60006020820190508181036000830152615bbe81615b82565b905091905056fea2646970667358221220e494836e646e5caafa45b9c863ddd61c00e3eee2ed7635e4eb36d710315eec0e64736f6c63430008090033697066733a2f2f62616679626569657733747a696b686b6a6a637a6963796365793664676d6464656d6d72627033636c73773775357a6478676a736e3473733479692f636f6e74726163742e6a736f6e697066733a2f2f62616679626569657733747a696b686b6a6a637a6963796365793664676d6464656d6d72627033636c73773775357a6478676a736e3473733479692f",
  "linkReferences": {},
  "deployedLinkReferences": {}
}