{
  "_format": "hh-sol-artifact-1",
  "contractName": "IPCWrapper",
  "sourceName": "contracts/IPCWrapper.sol",
  "abi": [
    {
      "inputs": [],
      "stateMutability": "nonpayable",
      "type": "constructor"
    },
    {
      "inputs": [],
      "name": "ApprovalCallerNotOwnerNorApproved",
      "type": "error"
    },
    {
      "inputs": [],
      "name": "ApprovalQueryForNonexistentToken",
      "type": "error"
    },
    {
      "inputs": [],
      "name": "ApproveToCaller",
      "type": "error"
    },
    {
      "inputs": [],
      "name": "BalanceQueryForZeroAddress",
      "type": "error"
    },
    {
      "inputs": [],
      "name": "MintERC2309QuantityExceedsLimit",
      "type": "error"
    },
    {
      "inputs": [],
      "name": "MintToZeroAddress",
      "type": "error"
    },
    {
      "inputs": [],
      "name": "MintZeroQuantity",
      "type": "error"
    },
    {
      "inputs": [],
      "name": "OwnerQueryForNonexistentToken",
      "type": "error"
    },
    {
      "inputs": [],
      "name": "OwnershipNotInitializedForExtraData",
      "type": "error"
    },
    {
      "inputs": [],
      "name": "TransferCallerNotOwnerNorApproved",
      "type": "error"
    },
    {
      "inputs": [],
      "name": "TransferFromIncorrectOwner",
      "type": "error"
    },
    {
      "inputs": [],
      "name": "TransferToNonERC721ReceiverImplementer",
      "type": "error"
    },
    {
      "inputs": [],
      "name": "TransferToZeroAddress",
      "type": "error"
    },
    {
      "inputs": [],
      "name": "URIQueryForNonexistentToken",
      "type": "error"
    },
    {
      "anonymous": false,
      "inputs": [
        {
          "indexed": true,
          "internalType": "address",
          "name": "owner",
          "type": "address"
        },
        {
          "indexed": true,
          "internalType": "address",
          "name": "approved",
          "type": "address"
        },
        {
          "indexed": true,
          "internalType": "uint256",
          "name": "tokenId",
          "type": "uint256"
        }
      ],
      "name": "Approval",
      "type": "event"
    },
    {
      "anonymous": false,
      "inputs": [
        {
          "indexed": true,
          "internalType": "address",
          "name": "owner",
          "type": "address"
        },
        {
          "indexed": true,
          "internalType": "address",
          "name": "operator",
          "type": "address"
        },
        {
          "indexed": false,
          "internalType": "bool",
          "name": "approved",
          "type": "bool"
        }
      ],
      "name": "ApprovalForAll",
      "type": "event"
    },
    {
      "anonymous": false,
      "inputs": [
        {
          "indexed": true,
          "internalType": "uint256",
          "name": "fromTokenId",
          "type": "uint256"
        },
        {
          "indexed": false,
          "internalType": "uint256",
          "name": "toTokenId",
          "type": "uint256"
        },
        {
          "indexed": true,
          "internalType": "address",
          "name": "from",
          "type": "address"
        },
        {
          "indexed": true,
          "internalType": "address",
          "name": "to",
          "type": "address"
        }
      ],
      "name": "ConsecutiveTransfer",
      "type": "event"
    },
    {
      "anonymous": false,
      "inputs": [
        {
          "indexed": true,
          "internalType": "address",
          "name": "previousOwner",
          "type": "address"
        },
        {
          "indexed": true,
          "internalType": "address",
          "name": "newOwner",
          "type": "address"
        }
      ],
      "name": "OwnershipTransferred",
      "type": "event"
    },
    {
      "anonymous": false,
      "inputs": [
        {
          "indexed": true,
          "internalType": "address",
          "name": "from",
          "type": "address"
        },
        {
          "indexed": true,
          "internalType": "address",
          "name": "to",
          "type": "address"
        },
        {
          "indexed": true,
          "internalType": "uint256",
          "name": "tokenId",
          "type": "uint256"
        }
      ],
      "name": "Transfer",
      "type": "event"
    },
    {
      "anonymous": false,
      "inputs": [
        {
          "indexed": false,
          "internalType": "uint256",
          "name": "",
          "type": "uint256"
        },
        {
          "indexed": false,
          "internalType": "uint256",
          "name": "",
          "type": "uint256"
        },
        {
          "indexed": false,
          "internalType": "address",
          "name": "",
          "type": "address"
        }
      ],
      "name": "Unwrapped",
      "type": "event"
    },
    {
      "anonymous": false,
      "inputs": [
        {
          "indexed": false,
          "internalType": "uint256",
          "name": "",
          "type": "uint256"
        },
        {
          "indexed": false,
          "internalType": "uint256",
          "name": "",
          "type": "uint256"
        },
        {
          "indexed": false,
          "internalType": "address",
          "name": "",
          "type": "address"
        }
      ],
      "name": "Wrapped",
      "type": "event"
    },
    {
      "anonymous": false,
      "inputs": [
        {
          "indexed": false,
          "internalType": "uint256",
          "name": "",
          "type": "uint256"
        },
        {
          "indexed": false,
          "internalType": "string",
          "name": "",
          "type": "string"
        }
      ],
      "name": "nameChangeOK",
      "type": "event"
    },
    {
      "inputs": [
        {
          "internalType": "address",
          "name": "to",
          "type": "address"
        },
        {
          "internalType": "uint256",
          "name": "tokenId",
          "type": "uint256"
        }
      ],
      "name": "approve",
      "outputs": [],
      "stateMutability": "nonpayable",
      "type": "function"
    },
    {
      "inputs": [
        {
          "internalType": "address",
          "name": "owner",
          "type": "address"
        }
      ],
      "name": "balanceOf",
      "outputs": [
        {
          "internalType": "uint256",
          "name": "",
          "type": "uint256"
        }
      ],
      "stateMutability": "view",
      "type": "function"
    },
    {
      "inputs": [
        {
          "internalType": "uint256",
          "name": "tokenId",
          "type": "uint256"
        },
        {
          "internalType": "string",
          "name": "newName",
          "type": "string"
        }
      ],
      "name": "changeIpcName",
      "outputs": [],
      "stateMutability": "payable",
      "type": "function"
    },
    {
      "inputs": [],
      "name": "contractURI",
      "outputs": [
        {
          "internalType": "string",
          "name": "",
          "type": "string"
        }
      ],
      "stateMutability": "view",
      "type": "function"
    },
    {
      "inputs": [
        {
          "internalType": "uint256",
          "name": "tokenId",
          "type": "uint256"
        }
      ],
      "name": "getApproved",
      "outputs": [
        {
          "internalType": "address",
          "name": "",
          "type": "address"
        }
      ],
      "stateMutability": "view",
      "type": "function"
    },
    {
      "inputs": [
        {
          "internalType": "uint256",
          "name": "tokenId",
          "type": "uint256"
        }
      ],
      "name": "getIpc",
      "outputs": [
        {
          "components": [
            {
              "internalType": "uint256",
              "name": "tokenId",
              "type": "uint256"
            },
            {
              "internalType": "string",
              "name": "name",
              "type": "string"
            },
            {
              "internalType": "bytes32",
              "name": "attributeSeed",
              "type": "bytes32"
            },
            {
              "internalType": "bytes32",
              "name": "dna",
              "type": "bytes32"
            },
            {
              "internalType": "uint128",
              "name": "experience",
              "type": "uint128"
            },
            {
              "internalType": "uint128",
              "name": "timeOfBirth",
              "type": "uint128"
            },
            {
              "internalType": "address",
              "name": "owner",
              "type": "address"
            }
          ],
          "internalType": "struct IPCWrapper.t_raw_ipc",
          "name": "",
          "type": "tuple"
        }
      ],
      "stateMutability": "view",
      "type": "function"
    },
    {
      "inputs": [],
      "name": "getProperties",
      "outputs": [
        {
          "components": [
            {
              "internalType": "address",
              "name": "contractAdress",
              "type": "address"
            },
            {
              "internalType": "string",
              "name": "tokenURI",
              "type": "string"
            },
            {
              "internalType": "string",
              "name": "contractURI",
              "type": "string"
            },
            {
              "internalType": "uint256",
              "name": "maxPrice",
              "type": "uint256"
            },
            {
              "internalType": "uint256",
              "name": "tokenLimit",
              "type": "uint256"
            }
          ],
          "internalType": "struct IPCWrapper.t_properties",
          "name": "",
          "type": "tuple"
        }
      ],
      "stateMutability": "view",
      "type": "function"
    },
    {
      "inputs": [
        {
          "internalType": "uint256",
          "name": "tokenId",
          "type": "uint256"
        }
      ],
      "name": "getTokenIndex",
      "outputs": [
        {
          "internalType": "uint256",
          "name": "",
          "type": "uint256"
        }
      ],
      "stateMutability": "view",
      "type": "function"
    },
    {
      "inputs": [
        {
          "internalType": "address",
          "name": "owner",
          "type": "address"
        },
        {
          "internalType": "uint256",
          "name": "startIndex",
          "type": "uint256"
        },
        {
          "internalType": "uint256",
          "name": "total",
          "type": "uint256"
        }
      ],
      "name": "getTokensOfOwner",
      "outputs": [
        {
          "components": [
            {
              "internalType": "uint256",
              "name": "tokenId",
              "type": "uint256"
            },
            {
              "internalType": "string",
              "name": "name",
              "type": "string"
            },
            {
              "internalType": "bytes32",
              "name": "attributeSeed",
              "type": "bytes32"
            },
            {
              "internalType": "bytes32",
              "name": "dna",
              "type": "bytes32"
            },
            {
              "internalType": "uint128",
              "name": "experience",
              "type": "uint128"
            },
            {
              "internalType": "uint128",
              "name": "timeOfBirth",
              "type": "uint128"
            },
            {
              "internalType": "address",
              "name": "owner",
              "type": "address"
            }
          ],
          "internalType": "struct IPCWrapper.t_raw_ipc[]",
          "name": "",
          "type": "tuple[]"
        }
      ],
      "stateMutability": "view",
      "type": "function"
    },
    {
      "inputs": [
        {
          "internalType": "address",
          "name": "owner",
          "type": "address"
        },
        {
          "internalType": "address",
          "name": "operator",
          "type": "address"
        }
      ],
      "name": "isApprovedForAll",
      "outputs": [
        {
          "internalType": "bool",
          "name": "",
          "type": "bool"
        }
      ],
      "stateMutability": "view",
      "type": "function"
    },
    {
      "inputs": [],
      "name": "name",
      "outputs": [
        {
          "internalType": "string",
          "name": "",
          "type": "string"
        }
      ],
      "stateMutability": "view",
      "type": "function"
    },
    {
      "inputs": [
        {
          "internalType": "address",
          "name": "",
          "type": "address"
        },
        {
          "internalType": "address",
          "name": "",
          "type": "address"
        },
        {
          "internalType": "uint256",
          "name": "",
          "type": "uint256"
        },
        {
          "internalType": "bytes",
          "name": "",
          "type": "bytes"
        }
      ],
      "name": "onERC721Received",
      "outputs": [
        {
          "internalType": "bytes4",
          "name": "",
          "type": "bytes4"
        }
      ],
      "stateMutability": "pure",
      "type": "function"
    },
    {
      "inputs": [
        {
          "internalType": "address",
          "name": "",
          "type": "address"
        },
        {
          "internalType": "uint256",
          "name": "",
          "type": "uint256"
        },
        {
          "internalType": "bytes",
          "name": "",
          "type": "bytes"
        }
      ],
      "name": "onERC721Received",
      "outputs": [
        {
          "internalType": "bytes4",
          "name": "",
          "type": "bytes4"
        }
      ],
      "stateMutability": "pure",
      "type": "function"
    },
    {
      "inputs": [],
      "name": "owner",
      "outputs": [
        {
          "internalType": "address",
          "name": "",
          "type": "address"
        }
      ],
      "stateMutability": "view",
      "type": "function"
    },
    {
      "inputs": [
        {
          "internalType": "uint256",
          "name": "tokenId",
          "type": "uint256"
        }
      ],
      "name": "ownerOf",
      "outputs": [
        {
          "internalType": "address",
          "name": "",
          "type": "address"
        }
      ],
      "stateMutability": "view",
      "type": "function"
    },
    {
      "inputs": [],
      "name": "renounceOwnership",
      "outputs": [],
      "stateMutability": "nonpayable",
      "type": "function"
    },
    {
      "inputs": [
        {
          "internalType": "address",
          "name": "from",
          "type": "address"
        },
        {
          "internalType": "address",
          "name": "to",
          "type": "address"
        },
        {
          "internalType": "uint256",
          "name": "tokenId",
          "type": "uint256"
        }
      ],
      "name": "safeTransferFrom",
      "outputs": [],
      "stateMutability": "nonpayable",
      "type": "function"
    },
    {
      "inputs": [
        {
          "internalType": "address",
          "name": "from",
          "type": "address"
        },
        {
          "internalType": "address",
          "name": "to",
          "type": "address"
        },
        {
          "internalType": "uint256",
          "name": "tokenId",
          "type": "uint256"
        },
        {
          "internalType": "bytes",
          "name": "_data",
          "type": "bytes"
        }
      ],
      "name": "safeTransferFrom",
      "outputs": [],
      "stateMutability": "nonpayable",
      "type": "function"
    },
    {
      "inputs": [
        {
          "internalType": "address",
          "name": "operator",
          "type": "address"
        },
        {
          "internalType": "bool",
          "name": "approved",
          "type": "bool"
        }
      ],
      "name": "setApprovalForAll",
      "outputs": [],
      "stateMutability": "nonpayable",
      "type": "function"
    },
    {
      "inputs": [
        {
          "internalType": "address",
          "name": "_contractAddress",
          "type": "address"
        }
      ],
      "name": "setContractAddress",
      "outputs": [],
      "stateMutability": "nonpayable",
      "type": "function"
    },
    {
      "inputs": [
        {
          "internalType": "uint256",
          "name": "_maxPrice",
          "type": "uint256"
        },
        {
          "internalType": "uint256",
          "name": "_tokenLimit",
          "type": "uint256"
        },
        {
          "internalType": "string",
          "name": "__tokenURI",
          "type": "string"
        },
        {
          "internalType": "string",
          "name": "__contractURI",
          "type": "string"
        }
      ],
      "name": "setProperties",
      "outputs": [],
      "stateMutability": "nonpayable",
      "type": "function"
    },
    {
      "inputs": [
        {
          "internalType": "bytes4",
          "name": "interfaceId",
          "type": "bytes4"
        }
      ],
      "name": "supportsInterface",
      "outputs": [
        {
          "internalType": "bool",
          "name": "",
          "type": "bool"
        }
      ],
      "stateMutability": "view",
      "type": "function"
    },
    {
      "inputs": [],
      "name": "symbol",
      "outputs": [
        {
          "internalType": "string",
          "name": "",
          "type": "string"
        }
      ],
      "stateMutability": "view",
      "type": "function"
    },
    {
      "inputs": [
        {
          "internalType": "uint256",
          "name": "tokenId",
          "type": "uint256"
        }
      ],
      "name": "tokenURI",
      "outputs": [
        {
          "internalType": "string",
          "name": "",
          "type": "string"
        }
      ],
      "stateMutability": "view",
      "type": "function"
    },
    {
      "inputs": [],
      "name": "totalSupply",
      "outputs": [
        {
          "internalType": "uint256",
          "name": "",
          "type": "uint256"
        }
      ],
      "stateMutability": "view",
      "type": "function"
    },
    {
      "inputs": [
        {
          "internalType": "address",
          "name": "from",
          "type": "address"
        },
        {
          "internalType": "address",
          "name": "to",
          "type": "address"
        },
        {
          "internalType": "uint256",
          "name": "tokenId",
          "type": "uint256"
        }
      ],
      "name": "transferFrom",
      "outputs": [],
      "stateMutability": "nonpayable",
      "type": "function"
    },
    {
      "inputs": [
        {
          "internalType": "address",
          "name": "newOwner",
          "type": "address"
        }
      ],
      "name": "transferOwnership",
      "outputs": [],
      "stateMutability": "nonpayable",
      "type": "function"
    },
    {
      "inputs": [
        {
          "internalType": "uint256",
          "name": "tokenId",
          "type": "uint256"
        }
      ],
      "name": "unwrap",
      "outputs": [],
      "stateMutability": "nonpayable",
      "type": "function"
    },
    {
      "inputs": [
        {
          "internalType": "address",
          "name": "owner",
          "type": "address"
        }
      ],
      "name": "uwBalanceOf",
      "outputs": [
        {
          "internalType": "uint256",
          "name": "",
          "type": "uint256"
        }
      ],
      "stateMutability": "view",
      "type": "function"
    },
    {
      "inputs": [
        {
          "internalType": "uint256",
          "name": "startIndex",
          "type": "uint256"
        },
        {
          "internalType": "uint256",
          "name": "total",
          "type": "uint256"
        }
      ],
      "name": "uwGetAllTokens",
      "outputs": [
        {
          "components": [
            {
              "internalType": "uint256",
              "name": "tokenId",
              "type": "uint256"
            },
            {
              "internalType": "string",
              "name": "name",
              "type": "string"
            },
            {
              "internalType": "bytes32",
              "name": "attributeSeed",
              "type": "bytes32"
            },
            {
              "internalType": "bytes32",
              "name": "dna",
              "type": "bytes32"
            },
            {
              "internalType": "uint128",
              "name": "experience",
              "type": "uint128"
            },
            {
              "internalType": "uint128",
              "name": "timeOfBirth",
              "type": "uint128"
            },
            {
              "internalType": "address",
              "name": "owner",
              "type": "address"
            }
          ],
          "internalType": "struct IPCWrapper.t_raw_ipc[]",
          "name": "",
          "type": "tuple[]"
        }
      ],
      "stateMutability": "view",
      "type": "function"
    },
    {
      "inputs": [
        {
          "internalType": "address",
          "name": "owner",
          "type": "address"
        },
        {
          "internalType": "uint256",
          "name": "startIndex",
          "type": "uint256"
        },
        {
          "internalType": "uint256",
          "name": "total",
          "type": "uint256"
        }
      ],
      "name": "uwGetTokensOfOwner",
      "outputs": [
        {
          "components": [
            {
              "internalType": "uint256",
              "name": "tokenId",
              "type": "uint256"
            },
            {
              "internalType": "string",
              "name": "name",
              "type": "string"
            },
            {
              "internalType": "bytes32",
              "name": "attributeSeed",
              "type": "bytes32"
            },
            {
              "internalType": "bytes32",
              "name": "dna",
              "type": "bytes32"
            },
            {
              "internalType": "uint128",
              "name": "experience",
              "type": "uint128"
            },
            {
              "internalType": "uint128",
              "name": "timeOfBirth",
              "type": "uint128"
            },
            {
              "internalType": "address",
              "name": "owner",
              "type": "address"
            }
          ],
          "internalType": "struct IPCWrapper.t_raw_ipc[]",
          "name": "",
          "type": "tuple[]"
        }
      ],
      "stateMutability": "view",
      "type": "function"
    },
    {
      "inputs": [
        {
          "internalType": "uint256",
          "name": "tokenId",
          "type": "uint256"
        }
      ],
      "name": "uwOwnerOf",
      "outputs": [
        {
          "internalType": "address",
          "name": "",
          "type": "address"
        }
      ],
      "stateMutability": "view",
      "type": "function"
    },
    {
      "inputs": [],
      "name": "withdrawalVault",
      "outputs": [],
      "stateMutability": "nonpayable",
      "type": "function"
    },
    {
      "inputs": [
        {
          "internalType": "uint256",
          "name": "tokenId",
          "type": "uint256"
        }
      ],
      "name": "wrap",
      "outputs": [],
      "stateMutability": "nonpayable",
      "type": "function"
    }
  ],
  "bytecode": "0x60806040523480156200001157600080fd5b506040518060400160405280601d81526020017f496d6d6f7274616c20506c6179657220436861726163746572732076300000008152506040518060400160405280600581526020017f49504356300000000000000000000000000000000000000000000000000000008152506200009e62000092620001ba60201b60201c565b620001c260201b60201c565b8160039080519060200190620000b69291906200028f565b508060049080519060200190620000cf9291906200028f565b50620000e06200028660201b60201c565b6001819055505050734787993750b897fba6aad9e7328fc4f5c126e17c600960006101000a81548173ffffffffffffffffffffffffffffffffffffffff021916908373ffffffffffffffffffffffffffffffffffffffff160217905550604051806060016040528060258152602001620055fc60259139600a90805190602001906200016e9291906200028f565b50604051806060016040528060278152602001620055d560279139600b9080519060200190620001a09291906200028f565b50620f4240600c819055506103e8600d81905550620003a4565b600033905090565b60008060009054906101000a900473ffffffffffffffffffffffffffffffffffffffff169050816000806101000a81548173ffffffffffffffffffffffffffffffffffffffff021916908373ffffffffffffffffffffffffffffffffffffffff1602179055508173ffffffffffffffffffffffffffffffffffffffff168173ffffffffffffffffffffffffffffffffffffffff167f8be0079c531659141344cd1fd0a4f28419497f9722a3daafe3b4186f6b6457e060405160405180910390a35050565b60006001905090565b8280546200029d906200036e565b90600052602060002090601f016020900481019282620002c157600085556200030d565b82601f10620002dc57805160ff19168380011785556200030d565b828001600101855582156200030d579182015b828111156200030c578251825591602001919060010190620002ef565b5b5090506200031c919062000320565b5090565b5b808211156200033b57600081600090555060010162000321565b5090565b7f4e487b7100000000000000000000000000000000000000000000000000000000600052602260045260246000fd5b600060028204905060018216806200038757607f821691505b602082108114156200039e576200039d6200033f565b5b50919050565b61522180620003b46000396000f3fe6080604052600436106101f95760003560e01c806389edc4381161010d578063d764600d116100a0578063e985e9c51161006f578063e985e9c514610780578063ea598cb0146107bd578063ec0cfd0b146107e6578063f0b9e5ba14610811578063f2fde38b1461084e576101f9565b8063d764600d146106d3578063de0e9a3e14610710578063dfb31a7c14610739578063e8a3d48514610755576101f9565b8063b4f01a02116100dc578063b4f01a02146105f3578063b88d4fde14610630578063c2619d1314610659578063c87b56dd14610696576101f9565b806389edc438146105375780638da5cb5b1461057457806395d89b411461059f578063a22cb465146105ca576101f9565b806323b872dd116101905780636352211e1161015f5780636352211e1461045257806369d421481461048f57806370a08231146104a6578063715018a6146104e35780637fff1e2f146104fa576101f9565b806323b872dd1461039a5780633a663c80146103c357806342842e0e14610400578063477bddaa14610429576101f9565b8063095ea7b3116101cc578063095ea7b3146102e0578063150b7a021461030957806318160ddd1461034657806320f95f6214610371576101f9565b8063013abd6c146101fe57806301ffc9a71461023b57806306fdde0314610278578063081812fc146102a3575b600080fd5b34801561020a57600080fd5b5061022560048036038101906102209190613a49565b610877565b6040516102329190613a8f565b60405180910390f35b34801561024757600080fd5b50610262600480360381019061025d9190613b02565b610936565b60405161026f9190613b4a565b60405180910390f35b34801561028457600080fd5b5061028d6109c8565b60405161029a9190613bfe565b60405180910390f35b3480156102af57600080fd5b506102ca60048036038101906102c59190613c4c565b610a5a565b6040516102d79190613c88565b60405180910390f35b3480156102ec57600080fd5b5061030760048036038101906103029190613ca3565b610a79565b005b34801561031557600080fd5b50610330600480360381019061032b9190613d48565b610bc4565b60405161033d9190613ddf565b60405180910390f35b34801561035257600080fd5b5061035b610bd9565b6040516103689190613a8f565b60405180910390f35b34801561037d57600080fd5b5061039860048036038101906103939190613e50565b610c80565b005b3480156103a657600080fd5b506103c160048036038101906103bc9190613ef7565b610cc2565b005b3480156103cf57600080fd5b506103ea60048036038101906103e59190613c4c565b610d3b565b6040516103f79190613a8f565b60405180910390f35b34801561040c57600080fd5b5061042760048036038101906104229190613ef7565b610d58565b005b34801561043557600080fd5b50610450600480360381019061044b9190613a49565b610d78565b005b34801561045e57600080fd5b5061047960048036038101906104749190613c4c565b610dc4565b6040516104869190613c88565b60405180910390f35b34801561049b57600080fd5b506104a4610ed4565b005b3480156104b257600080fd5b506104cd60048036038101906104c89190613a49565b610f8b565b6040516104da9190613a8f565b60405180910390f35b3480156104ef57600080fd5b506104f861103d565b005b34801561050657600080fd5b50610521600480360381019061051c9190613c4c565b611051565b60405161052e9190614092565b60405180910390f35b34801561054357600080fd5b5061055e600480360381019061055991906140b4565b6111a8565b60405161056b9190614265565b60405180910390f35b34801561058057600080fd5b50610589611390565b6040516105969190613c88565b60405180910390f35b3480156105ab57600080fd5b506105b46113b9565b6040516105c19190613bfe565b60405180910390f35b3480156105d657600080fd5b506105f160048036038101906105ec91906142b3565b61144b565b005b3480156105ff57600080fd5b5061061a60048036038101906106159190613c4c565b6115c3565b6040516106279190613c88565b60405180910390f35b34801561063c57600080fd5b5061065760048036038101906106529190614423565b611677565b005b34801561066557600080fd5b50610680600480360381019061067b91906144a6565b6116ea565b60405161068d9190614265565b60405180910390f35b3480156106a257600080fd5b506106bd60048036038101906106b89190613c4c565b611834565b6040516106ca9190613bfe565b60405180910390f35b3480156106df57600080fd5b506106fa60048036038101906106f591906140b4565b6118d3565b6040516107079190614265565b60405180910390f35b34801561071c57600080fd5b5061073760048036038101906107329190613c4c565b611ada565b005b610753600480360381019061074e91906144e6565b611d5e565b005b34801561076157600080fd5b5061076a611ee2565b6040516107779190613bfe565b60405180910390f35b34801561078c57600080fd5b506107a760048036038101906107a29190614546565b611f74565b6040516107b49190613b4a565b60405180910390f35b3480156107c957600080fd5b506107e460048036038101906107df9190613c4c565b612008565b005b3480156107f257600080fd5b506107fb6124c5565b6040516108089190614603565b60405180910390f35b34801561081d57600080fd5b5061083860048036038101906108339190614625565b612657565b6040516108459190613ddf565b60405180910390f35b34801561085a57600080fd5b5061087560048036038101906108709190613a49565b612684565b005b600080600960009054906101000a900473ffffffffffffffffffffffffffffffffffffffff1673ffffffffffffffffffffffffffffffffffffffff16638462151c846040518263ffffffff1660e01b81526004016108d59190613c88565b60006040518083038186803b1580156108ed57600080fd5b505afa158015610901573d6000803e3d6000fd5b505050506040513d6000823e3d601f19601f8201168201806040525081019061092a9190614771565b90508051915050919050565b60006301ffc9a760e01b827bffffffffffffffffffffffffffffffffffffffffffffffffffffffff1916148061099157506380ac58cd60e01b827bffffffffffffffffffffffffffffffffffffffffffffffffffffffff1916145b806109c15750635b5e139f60e01b827bffffffffffffffffffffffffffffffffffffffffffffffffffffffff1916145b9050919050565b6060600380546109d7906147e9565b80601f0160208091040260200160405190810160405280929190818152602001828054610a03906147e9565b8015610a505780601f10610a2557610100808354040283529160200191610a50565b820191906000526020600020905b815481529060010190602001808311610a3357829003601f168201915b5050505050905090565b600080610a6683610d3b565b9050610a7181612708565b915050919050565b6000610a8482610d3b565b90506000811415610aca576040517f08c379a0000000000000000000000000000000000000000000000000000000008152600401610ac190614867565b60405180910390fd5b6000610ad583610dc4565b90508073ffffffffffffffffffffffffffffffffffffffff16610af6612787565b73ffffffffffffffffffffffffffffffffffffffff1614610b5957610b2281610b1d612787565b611f74565b610b58576040517fcfb3b94200000000000000000000000000000000000000000000000000000000815260040160405180910390fd5b5b610b63848361278f565b828473ffffffffffffffffffffffffffffffffffffffff168273ffffffffffffffffffffffffffffffffffffffff167f8c5be1e5ebec7d5bd14f71427d1e84f3dd0314c0f7b2291e5b200ac8c7c3b92560405160405180910390a450505050565b600063150b7a0260e01b905095945050505050565b6000600960009054906101000a900473ffffffffffffffffffffffffffffffffffffffff1673ffffffffffffffffffffffffffffffffffffffff166318160ddd6040518163ffffffff1660e01b815260040160206040518083038186803b158015610c4357600080fd5b505afa158015610c57573d6000803e3d6000fd5b505050506040513d601f19601f82011682018060405250810190610c7b9190614887565b905090565b610c886127e8565b85600c8190555084600d819055508383600a9190610ca7929190613872565b508181600b9190610cb9929190613872565b50505050505050565b6000610ccd82610d3b565b9050610cda848483612866565b818373ffffffffffffffffffffffffffffffffffffffff168573ffffffffffffffffffffffffffffffffffffffff167fddf252ad1be2c89b69c2b068fc378daa952ba7f163c4a11628f55a4df523b3ef60405160405180910390a450505050565b6000600f6000838152602001908152602001600020549050919050565b610d7383838360405180602001604052806000815250611677565b505050565b610d806127e8565b80600960006101000a81548173ffffffffffffffffffffffffffffffffffffffff021916908373ffffffffffffffffffffffffffffffffffffffff16021790555050565b600080610dd083610d3b565b90506000811415610e8e57600960009054906101000a900473ffffffffffffffffffffffffffffffffffffffff1673ffffffffffffffffffffffffffffffffffffffff16636352211e846040518263ffffffff1660e01b8152600401610e369190613a8f565b60206040518083038186803b158015610e4e57600080fd5b505afa158015610e62573d6000803e3d6000fd5b505050506040513d601f19601f82011682018060405250810190610e8691906148c9565b915050610ecf565b6000600e600083815260200190815260200160002060010160009054906101000a900473ffffffffffffffffffffffffffffffffffffffff16905080925050505b919050565b610edc6127e8565b60003373ffffffffffffffffffffffffffffffffffffffff1647604051610f0290614927565b60006040518083038185875af1925050503d8060008114610f3f576040519150601f19603f3d011682016040523d82523d6000602084013e610f44565b606091505b5050905080610f88576040517f08c379a0000000000000000000000000000000000000000000000000000000008152600401610f7f90614988565b60405180910390fd5b50565b60008073ffffffffffffffffffffffffffffffffffffffff168273ffffffffffffffffffffffffffffffffffffffff161415610ff3576040517f8f4eb60400000000000000000000000000000000000000000000000000000000815260040160405180910390fd5b601060008373ffffffffffffffffffffffffffffffffffffffff1673ffffffffffffffffffffffffffffffffffffffff168152602001908152602001600020805490509050919050565b6110456127e8565b61104f6000612b30565b565b6110596138f8565b6000806000806000600960009054906101000a900473ffffffffffffffffffffffffffffffffffffffff1673ffffffffffffffffffffffffffffffffffffffff16637fff1e2f886040518263ffffffff1660e01b81526004016110bc9190613a8f565b60006040518083038186803b1580156110d457600080fd5b505afa1580156110e8573d6000803e3d6000fd5b505050506040513d6000823e3d601f19601f820116820180604052508101906111119190614aa1565b94509450945094509450600061112688610dc4565b905060006040518060e001604052808a8152602001888152602001878152602001868152602001856fffffffffffffffffffffffffffffffff168152602001846fffffffffffffffffffffffffffffffff1681526020018373ffffffffffffffffffffffffffffffffffffffff16815250905080975050505050505050919050565b60606000601060008673ffffffffffffffffffffffffffffffffffffffff1673ffffffffffffffffffffffffffffffffffffffff16815260200190815260200160002080548060200260200160405190810160405280929190818152602001828054801561123557602002820191906000526020600020905b815481526020019060010190808311611221575b505050505090506000815190508085111561124f57600094505b600081111561128a5760008414806112715750848161126e9190614b67565b84115b156112855784816112829190614b67565b93505b611293565b60009050600193505b60008467ffffffffffffffff8111156112af576112ae6142f8565b5b6040519080825280602002602001820160405280156112e857816020015b6112d56138f8565b8152602001906001900390816112cd5790505b50905060008214156112ff57809350505050611389565b600080600061130c6138f8565b600093505b8884101561137e5786848b6113269190614b9b565b8151811061133757611336614bf1565b5b6020026020010151915061134a82611051565b9050808585815181106113605761135f614bf1565b5b6020026020010181905250838061137690614c20565b945050611311565b849750505050505050505b9392505050565b60008060009054906101000a900473ffffffffffffffffffffffffffffffffffffffff16905090565b6060600480546113c8906147e9565b80601f01602080910402602001604051908101604052809291908181526020018280546113f4906147e9565b80156114415780601f1061141657610100808354040283529160200191611441565b820191906000526020600020905b81548152906001019060200180831161142457829003601f168201915b5050505050905090565b611453612787565b73ffffffffffffffffffffffffffffffffffffffff168273ffffffffffffffffffffffffffffffffffffffff1614156114b8576040517fb06307db00000000000000000000000000000000000000000000000000000000815260040160405180910390fd5b80600860006114c5612787565b73ffffffffffffffffffffffffffffffffffffffff1673ffffffffffffffffffffffffffffffffffffffff16815260200190815260200160002060008473ffffffffffffffffffffffffffffffffffffffff1673ffffffffffffffffffffffffffffffffffffffff16815260200190815260200160002060006101000a81548160ff0219169083151502179055508173ffffffffffffffffffffffffffffffffffffffff16611572612787565b73ffffffffffffffffffffffffffffffffffffffff167f17307eab39ab6107e8899845ad3d59bd9653f200f220920489ca2b5937696c31836040516115b79190613b4a565b60405180910390a35050565b6000600960009054906101000a900473ffffffffffffffffffffffffffffffffffffffff1673ffffffffffffffffffffffffffffffffffffffff16636352211e836040518263ffffffff1660e01b81526004016116209190613a8f565b60206040518083038186803b15801561163857600080fd5b505afa15801561164c573d6000803e3d6000fd5b505050506040513d601f19601f8201168201806040525081019061167091906148c9565b9050919050565b611682848484610cc2565b60008373ffffffffffffffffffffffffffffffffffffffff163b146116e4576116ad84848484612bf4565b6116e3576040517fd1a57ed600000000000000000000000000000000000000000000000000000000815260040160405180910390fd5b5b50505050565b606060006116f6610bd9565b9050600084148061170657508084115b1561171057600193505b600081111561175757600083148061173e5750836001826117319190614b9b565b61173b9190614b67565b83115b1561175257838161174f9190614b67565b92505b611760565b60009050600192505b60008367ffffffffffffffff81111561177c5761177b6142f8565b5b6040519080825280602002602001820160405280156117b557816020015b6117a26138f8565b81526020019060019003908161179a5790505b50905060008214156117cb57809250505061182e565b60005b8481101561182757600081876117e49190614b9b565b905060006117f182611051565b90508084848151811061180757611806614bf1565b5b60200260200101819052505050808061181f90614c20565b9150506117ce565b8193505050505b92915050565b606061183f82612d54565b611875576040517fa14c4b5000000000000000000000000000000000000000000000000000000000815260040160405180910390fd5b600061187f612db3565b90506000815114156118a057604051806020016040528060008152506118cb565b806118aa84612e45565b6040516020016118bb929190614ca5565b6040516020818303038152906040525b915050919050565b60606000600960009054906101000a900473ffffffffffffffffffffffffffffffffffffffff1673ffffffffffffffffffffffffffffffffffffffff16638462151c866040518263ffffffff1660e01b81526004016119329190613c88565b60006040518083038186803b15801561194a57600080fd5b505afa15801561195e573d6000803e3d6000fd5b505050506040513d6000823e3d601f19601f820116820180604052508101906119879190614771565b90506000815190508085111561199c57600094505b60008111156119d75760008414806119be575084816119bb9190614b67565b84115b156119d25784816119cf9190614b67565b93505b6119e0565b60009050600193505b60008467ffffffffffffffff8111156119fc576119fb6142f8565b5b604051908082528060200260200182016040528015611a3557816020015b611a226138f8565b815260200190600190039081611a1a5790505b5090506000821415611a4c57809350505050611ad3565b600080611a576138f8565b600092505b87831015611ac95785838a611a719190614b9b565b81518110611a8257611a81614bf1565b5b60200260200101519150611a9582611051565b905080848481518110611aab57611aaa614bf1565b5b60200260200101819052508280611ac190614c20565b935050611a5c565b8396505050505050505b9392505050565b6000611ae582610d3b565b90506000811415611b2b576040517f08c379a0000000000000000000000000000000000000000000000000000000008152600401611b2290614867565b60405180910390fd5b6000611b35612787565b90508073ffffffffffffffffffffffffffffffffffffffff16600e600084815260200190815260200160002060010160009054906101000a900473ffffffffffffffffffffffffffffffffffffffff1673ffffffffffffffffffffffffffffffffffffffff1614611bdb576040517f08c379a0000000000000000000000000000000000000000000000000000000008152600401611bd290614d15565b60405180910390fd5b600f600084815260200190815260200160002060009055600e60008381526020019081526020016000206000808201600090556001820160006101000a81549073ffffffffffffffffffffffffffffffffffffffff021916905550506000611c4284610dc4565b9050611c4e8285612e95565b611c5783613090565b3073ffffffffffffffffffffffffffffffffffffffff168173ffffffffffffffffffffffffffffffffffffffff161415611d1d57600960009054906101000a900473ffffffffffffffffffffffffffffffffffffffff1673ffffffffffffffffffffffffffffffffffffffff166342842e0e3084876040518463ffffffff1660e01b8152600401611cea93929190614d35565b600060405180830381600087803b158015611d0457600080fd5b505af1158015611d18573d6000803e3d6000fd5b505050505b7f175e3dad2e6c10f120d3216de54ebe7abeee5b7f33c8941af43e73a0315e4a80838584604051611d5093929190614d6c565b60405180910390a150505050565b6000611d6984610d3b565b90503373ffffffffffffffffffffffffffffffffffffffff16600e600083815260200190815260200160002060010160009054906101000a900473ffffffffffffffffffffffffffffffffffffffff1673ffffffffffffffffffffffffffffffffffffffff1614611e0f576040517f08c379a0000000000000000000000000000000000000000000000000000000008152600401611e0690614def565b60405180910390fd5b600960009054906101000a900473ffffffffffffffffffffffffffffffffffffffff1673ffffffffffffffffffffffffffffffffffffffff1663dfb31a7c348686866040518563ffffffff1660e01b8152600401611e6f93929190614e3c565b6000604051808303818588803b158015611e8857600080fd5b505af1158015611e9c573d6000803e3d6000fd5b50505050507f60319c6511f3c90c2a37bcd711c518923ef5dd5528be697b9b4a23a1aace6c9c848484604051611ed493929190614e3c565b60405180910390a150505050565b6060600b8054611ef1906147e9565b80601f0160208091040260200160405190810160405280929190818152602001828054611f1d906147e9565b8015611f6a5780601f10611f3f57610100808354040283529160200191611f6a565b820191906000526020600020905b815481529060010190602001808311611f4d57829003601f168201915b5050505050905090565b6000600860008473ffffffffffffffffffffffffffffffffffffffff1673ffffffffffffffffffffffffffffffffffffffff16815260200190815260200160002060008373ffffffffffffffffffffffffffffffffffffffff1673ffffffffffffffffffffffffffffffffffffffff16815260200190815260200160002060009054906101000a900460ff16905092915050565b600061201382610d3b565b90507fffffffffffffffffffffffffffffffffffffffffffffffffffffffffffffffff61203e61309e565b1061207e576040517f08c379a000000000000000000000000000000000000000000000000000000000815260040161207590614eba565b60405180910390fd5b600d548211801561208f5750600081145b156120cf576040517f08c379a00000000000000000000000000000000000000000000000000000000081526004016120c690614f26565b60405180910390fd5b60006120d9612787565b9050600082146121c2578073ffffffffffffffffffffffffffffffffffffffff16600e600084815260200190815260200160002060010160009054906101000a900473ffffffffffffffffffffffffffffffffffffffff1673ffffffffffffffffffffffffffffffffffffffff1614612187576040517f08c379a000000000000000000000000000000000000000000000000000000000815260040161217e90614d15565b60405180910390fd5b6040517f08c379a00000000000000000000000000000000000000000000000000000000081526004016121b990614f92565b60405180910390fd5b6121ca61309e565b915060006121d784610dc4565b90508173ffffffffffffffffffffffffffffffffffffffff168173ffffffffffffffffffffffffffffffffffffffff1614612247576040517f08c379a000000000000000000000000000000000000000000000000000000000815260040161223e90614d15565b60405180910390fd5b600960009054906101000a900473ffffffffffffffffffffffffffffffffffffffff1673ffffffffffffffffffffffffffffffffffffffff166342842e0e8330876040518463ffffffff1660e01b81526004016122a693929190614d35565b600060405180830381600087803b1580156122c057600080fd5b505af11580156122d4573d6000803e3d6000fd5b50505050600960009054906101000a900473ffffffffffffffffffffffffffffffffffffffff1673ffffffffffffffffffffffffffffffffffffffff16633d4cfe2185600c546040518363ffffffff1660e01b8152600401612337929190614fb2565b600060405180830381600087803b15801561235157600080fd5b505af1158015612365573d6000803e3d6000fd5b5050505060405180604001604052808581526020018373ffffffffffffffffffffffffffffffffffffffff16815250600e60008581526020019081526020016000206000820151816000015560208201518160010160006101000a81548173ffffffffffffffffffffffffffffffffffffffff021916908373ffffffffffffffffffffffffffffffffffffffff16021790555090505082600f600086815260200190815260200160002081905550601060008373ffffffffffffffffffffffffffffffffffffffff1673ffffffffffffffffffffffffffffffffffffffff1681526020019081526020016000208490806001815401808255809150506001900390600052602060002001600090919091909150556124848260016130a8565b7ff90572efd1ab4fb9c6b9dabfd24d103ce15482a9ec0c50e0e32618708783b15b8385846040516124b793929190614d6c565b60405180910390a150505050565b6124cd613975565b6124d56127e8565b60006040518060a00160405280600960009054906101000a900473ffffffffffffffffffffffffffffffffffffffff1673ffffffffffffffffffffffffffffffffffffffff168152602001600a805461252d906147e9565b80601f0160208091040260200160405190810160405280929190818152602001828054612559906147e9565b80156125a65780601f1061257b576101008083540402835291602001916125a6565b820191906000526020600020905b81548152906001019060200180831161258957829003601f168201915b50505050508152602001600b80546125bd906147e9565b80601f01602080910402602001604051908101604052809291908181526020018280546125e9906147e9565b80156126365780601f1061260b57610100808354040283529160200191612636565b820191906000526020600020905b81548152906001019060200180831161261957829003601f168201915b50505050508152602001600c548152602001600d5481525090508091505090565b60007ff0b9e5baf647f945565b0ac04522b519449041bdd44f952626b9ead9ff3692419050949350505050565b61268c6127e8565b600073ffffffffffffffffffffffffffffffffffffffff168173ffffffffffffffffffffffffffffffffffffffff1614156126fc576040517f08c379a00000000000000000000000000000000000000000000000000000000081526004016126f39061504d565b60405180910390fd5b61270581612b30565b50565b600061271382612d54565b612749576040517fcf4700e400000000000000000000000000000000000000000000000000000000815260040160405180910390fd5b6007600083815260200190815260200160002060000160009054906101000a900473ffffffffffffffffffffffffffffffffffffffff169050919050565b600033905090565b816007600083815260200190815260200160002060000160006101000a81548173ffffffffffffffffffffffffffffffffffffffff021916908373ffffffffffffffffffffffffffffffffffffffff1602179055505050565b6127f06130c6565b73ffffffffffffffffffffffffffffffffffffffff1661280e611390565b73ffffffffffffffffffffffffffffffffffffffff1614612864576040517f08c379a000000000000000000000000000000000000000000000000000000000815260040161285b906150b9565b60405180910390fd5b565b6000612871826130ce565b90508373ffffffffffffffffffffffffffffffffffffffff168173ffffffffffffffffffffffffffffffffffffffff16146128d8576040517fa114810000000000000000000000000000000000000000000000000000000000815260040160405180910390fd5b6000806128e48461319c565b915091506128fa81876128f5612787565b6131c3565b6129465761290f8661290a612787565b611f74565b612945576040517f59c896be00000000000000000000000000000000000000000000000000000000815260040160405180910390fd5b5b600073ffffffffffffffffffffffffffffffffffffffff168573ffffffffffffffffffffffffffffffffffffffff1614156129ad576040517fea553b3400000000000000000000000000000000000000000000000000000000815260040160405180910390fd5b6129ba8686866001613207565b80156129c557600082555b600660008773ffffffffffffffffffffffffffffffffffffffff1673ffffffffffffffffffffffffffffffffffffffff168152602001908152602001600020600081546001900391905081905550600660008673ffffffffffffffffffffffffffffffffffffffff1673ffffffffffffffffffffffffffffffffffffffff1681526020019081526020016000206000815460010191905081905550612a9385612a6f88888761320d565b7c020000000000000000000000000000000000000000000000000000000017613235565b600560008681526020019081526020016000208190555060007c020000000000000000000000000000000000000000000000000000000084161415612b1b576000600185019050600060056000838152602001908152602001600020541415612b19576001548114612b18578360056000838152602001908152602001600020819055505b5b505b612b288686866001613260565b505050505050565b60008060009054906101000a900473ffffffffffffffffffffffffffffffffffffffff169050816000806101000a81548173ffffffffffffffffffffffffffffffffffffffff021916908373ffffffffffffffffffffffffffffffffffffffff1602179055508173ffffffffffffffffffffffffffffffffffffffff168173ffffffffffffffffffffffffffffffffffffffff167f8be0079c531659141344cd1fd0a4f28419497f9722a3daafe3b4186f6b6457e060405160405180910390a35050565b60008373ffffffffffffffffffffffffffffffffffffffff1663150b7a02612c1a612787565b8786866040518563ffffffff1660e01b8152600401612c3c949392919061512e565b602060405180830381600087803b158015612c5657600080fd5b505af1925050508015612c8757506040513d601f19601f82011682018060405250810190612c84919061518f565b60015b612d01573d8060008114612cb7576040519150601f19603f3d011682016040523d82523d6000602084013e612cbc565b606091505b50600081511415612cf9576040517fd1a57ed600000000000000000000000000000000000000000000000000000000815260040160405180910390fd5b805181602001fd5b63150b7a0260e01b7bffffffffffffffffffffffffffffffffffffffffffffffffffffffff1916817bffffffffffffffffffffffffffffffffffffffffffffffffffffffff191614915050949350505050565b600081612d5f61328d565b11158015612d6e575060015482105b8015612dac575060007c0100000000000000000000000000000000000000000000000000000000600560008581526020019081526020016000205416145b9050919050565b6060600a8054612dc2906147e9565b80601f0160208091040260200160405190810160405280929190818152602001828054612dee906147e9565b8015612e3b5780601f10612e1057610100808354040283529160200191612e3b565b820191906000526020600020905b815481529060010190602001808311612e1e57829003601f168201915b5050505050905090565b606060806040510190508060405280825b600115612e8157600183039250600a81066030018353600a8104905080612e7c57612e81565b612e56565b508181036020830392508083525050919050565b6000601060008473ffffffffffffffffffffffffffffffffffffffff1673ffffffffffffffffffffffffffffffffffffffff16815260200190815260200160002080549050905060005b8181101561308a5782601060008673ffffffffffffffffffffffffffffffffffffffff1673ffffffffffffffffffffffffffffffffffffffff1681526020019081526020016000208281548110612f3957612f38614bf1565b5b9060005260206000200154141561307757601060008573ffffffffffffffffffffffffffffffffffffffff1673ffffffffffffffffffffffffffffffffffffffff168152602001908152602001600020600183612f969190614b67565b81548110612fa757612fa6614bf1565b5b9060005260206000200154601060008673ffffffffffffffffffffffffffffffffffffffff1673ffffffffffffffffffffffffffffffffffffffff168152602001908152602001600020828154811061300357613002614bf1565b5b9060005260206000200181905550601060008573ffffffffffffffffffffffffffffffffffffffff1673ffffffffffffffffffffffffffffffffffffffff1681526020019081526020016000208054806130605761305f6151bc565b5b600190038181906000526020600020016000905590555b808061308290614c20565b915050612edf565b50505050565b61309b816000613296565b50565b6000600154905090565b6130c28282604051806020016040528060008152506134ea565b5050565b600033905090565b600080829050806130dd61328d565b11613165576001548110156131645760006005600083815260200190815260200160002054905060007c010000000000000000000000000000000000000000000000000000000082161415613162575b600081141561315857600560008360019003935083815260200190815260200160002054905061312d565b8092505050613197565b505b5b6040517fdf2d9b4200000000000000000000000000000000000000000000000000000000815260040160405180910390fd5b919050565b60008060006007600085815260200190815260200160002090508092508254915050915091565b600073ffffffffffffffffffffffffffffffffffffffff8316925073ffffffffffffffffffffffffffffffffffffffff821691508382148383141790509392505050565b50505050565b60008060e883901c905060e8613224868684613588565b62ffffff16901b9150509392505050565b600073ffffffffffffffffffffffffffffffffffffffff83169250814260a01b178317905092915050565b6000600e6000848152602001908152602001600020600001549050613286858583613591565b5050505050565b60006001905090565b60006132a1836130ce565b905060008190506000806132b48661319c565b91509150841561331d576132d081846132cb612787565b6131c3565b61331c576132e5836132e0612787565b611f74565b61331b576040517f59c896be00000000000000000000000000000000000000000000000000000000815260040160405180910390fd5b5b5b61332b836000886001613207565b801561333657600082555b600160806001901b03600660008573ffffffffffffffffffffffffffffffffffffffff1673ffffffffffffffffffffffffffffffffffffffff168152602001908152602001600020600082825401925050819055506133de8361339b8560008861320d565b7c02000000000000000000000000000000000000000000000000000000007c01000000000000000000000000000000000000000000000000000000001717613235565b600560008881526020019081526020016000208190555060007c020000000000000000000000000000000000000000000000000000000085161415613466576000600187019050600060056000838152602001908152602001600020541415613464576001548114613463578460056000838152602001908152602001600020819055505b5b505b85600073ffffffffffffffffffffffffffffffffffffffff168473ffffffffffffffffffffffffffffffffffffffff167fddf252ad1be2c89b69c2b068fc378daa952ba7f163c4a11628f55a4df523b3ef60405160405180910390a46134d0836000886001613260565b600260008154809291906001019190505550505050505050565b6134f483836136a4565b60008373ffffffffffffffffffffffffffffffffffffffff163b146135835760006001549050600083820390505b6135356000868380600101945086612bf4565b61356b576040517fd1a57ed600000000000000000000000000000000000000000000000000000000815260040160405180910390fd5b81811061352257816001541461358057600080fd5b50505b505050565b60009392505050565b600073ffffffffffffffffffffffffffffffffffffffff168373ffffffffffffffffffffffffffffffffffffffff1614156135cb5761369f565b60006135d682610d3b565b905082600e600083815260200190815260200160002060010160006101000a81548173ffffffffffffffffffffffffffffffffffffffff021916908373ffffffffffffffffffffffffffffffffffffffff1602179055506136378483612e95565b601060008473ffffffffffffffffffffffffffffffffffffffff1673ffffffffffffffffffffffffffffffffffffffff168152602001908152602001600020829080600181540180825580915050600190039060005260206000200160009091909190915055505b505050565b6000600154905060008214156136e6576040517fb562e8dd00000000000000000000000000000000000000000000000000000000815260040160405180910390fd5b6136f36000848385613207565b600160406001901b178202600660008573ffffffffffffffffffffffffffffffffffffffff1673ffffffffffffffffffffffffffffffffffffffff1681526020019081526020016000206000828254019250508190555061376a8361375b600086600061320d565b61376485613862565b17613235565b6005600083815260200190815260200160002081905550600080838301905073ffffffffffffffffffffffffffffffffffffffff85169150828260007fddf252ad1be2c89b69c2b068fc378daa952ba7f163c4a11628f55a4df523b3ef600080a4600183015b81811461380b57808360007fddf252ad1be2c89b69c2b068fc378daa952ba7f163c4a11628f55a4df523b3ef600080a46001810190506137d0565b506000821415613847576040517f2e07630000000000000000000000000000000000000000000000000000000000815260040160405180910390fd5b80600181905550505061385d6000848385613260565b505050565b60006001821460e11b9050919050565b82805461387e906147e9565b90600052602060002090601f0160209004810192826138a057600085556138e7565b82601f106138b957803560ff19168380011785556138e7565b828001600101855582156138e7579182015b828111156138e65782358255916020019190600101906138cb565b5b5090506138f491906139ba565b5090565b6040518060e001604052806000815260200160608152602001600080191681526020016000801916815260200160006fffffffffffffffffffffffffffffffff16815260200160006fffffffffffffffffffffffffffffffff168152602001600073ffffffffffffffffffffffffffffffffffffffff1681525090565b6040518060a00160405280600073ffffffffffffffffffffffffffffffffffffffff168152602001606081526020016060815260200160008152602001600081525090565b5b808211156139d35760008160009055506001016139bb565b5090565b6000604051905090565b600080fd5b600080fd5b600073ffffffffffffffffffffffffffffffffffffffff82169050919050565b6000613a16826139eb565b9050919050565b613a2681613a0b565b8114613a3157600080fd5b50565b600081359050613a4381613a1d565b92915050565b600060208284031215613a5f57613a5e6139e1565b5b6000613a6d84828501613a34565b91505092915050565b6000819050919050565b613a8981613a76565b82525050565b6000602082019050613aa46000830184613a80565b92915050565b60007fffffffff0000000000000000000000000000000000000000000000000000000082169050919050565b613adf81613aaa565b8114613aea57600080fd5b50565b600081359050613afc81613ad6565b92915050565b600060208284031215613b1857613b176139e1565b5b6000613b2684828501613aed565b91505092915050565b60008115159050919050565b613b4481613b2f565b82525050565b6000602082019050613b5f6000830184613b3b565b92915050565b600081519050919050565b600082825260208201905092915050565b60005b83811015613b9f578082015181840152602081019050613b84565b83811115613bae576000848401525b50505050565b6000601f19601f8301169050919050565b6000613bd082613b65565b613bda8185613b70565b9350613bea818560208601613b81565b613bf381613bb4565b840191505092915050565b60006020820190508181036000830152613c188184613bc5565b905092915050565b613c2981613a76565b8114613c3457600080fd5b50565b600081359050613c4681613c20565b92915050565b600060208284031215613c6257613c616139e1565b5b6000613c7084828501613c37565b91505092915050565b613c8281613a0b565b82525050565b6000602082019050613c9d6000830184613c79565b92915050565b60008060408385031215613cba57613cb96139e1565b5b6000613cc885828601613a34565b9250506020613cd985828601613c37565b9150509250929050565b600080fd5b600080fd5b600080fd5b60008083601f840112613d0857613d07613ce3565b5b8235905067ffffffffffffffff811115613d2557613d24613ce8565b5b602083019150836001820283011115613d4157613d40613ced565b5b9250929050565b600080600080600060808688031215613d6457613d636139e1565b5b6000613d7288828901613a34565b9550506020613d8388828901613a34565b9450506040613d9488828901613c37565b935050606086013567ffffffffffffffff811115613db557613db46139e6565b5b613dc188828901613cf2565b92509250509295509295909350565b613dd981613aaa565b82525050565b6000602082019050613df46000830184613dd0565b92915050565b60008083601f840112613e1057613e0f613ce3565b5b8235905067ffffffffffffffff811115613e2d57613e2c613ce8565b5b602083019150836001820283011115613e4957613e48613ced565b5b9250929050565b60008060008060008060808789031215613e6d57613e6c6139e1565b5b6000613e7b89828a01613c37565b9650506020613e8c89828a01613c37565b955050604087013567ffffffffffffffff811115613ead57613eac6139e6565b5b613eb989828a01613dfa565b9450945050606087013567ffffffffffffffff811115613edc57613edb6139e6565b5b613ee889828a01613dfa565b92509250509295509295509295565b600080600060608486031215613f1057613f0f6139e1565b5b6000613f1e86828701613a34565b9350506020613f2f86828701613a34565b9250506040613f4086828701613c37565b9150509250925092565b613f5381613a76565b82525050565b600082825260208201905092915050565b6000613f7582613b65565b613f7f8185613f59565b9350613f8f818560208601613b81565b613f9881613bb4565b840191505092915050565b6000819050919050565b613fb681613fa3565b82525050565b60006fffffffffffffffffffffffffffffffff82169050919050565b613fe181613fbc565b82525050565b613ff081613a0b565b82525050565b600060e08301600083015161400e6000860182613f4a565b50602083015184820360208601526140268282613f6a565b915050604083015161403b6040860182613fad565b50606083015161404e6060860182613fad565b5060808301516140616080860182613fd8565b5060a083015161407460a0860182613fd8565b5060c083015161408760c0860182613fe7565b508091505092915050565b600060208201905081810360008301526140ac8184613ff6565b905092915050565b6000806000606084860312156140cd576140cc6139e1565b5b60006140db86828701613a34565b93505060206140ec86828701613c37565b92505060406140fd86828701613c37565b9150509250925092565b600081519050919050565b600082825260208201905092915050565b6000819050602082019050919050565b600060e08301600083015161414b6000860182613f4a565b50602083015184820360208601526141638282613f6a565b91505060408301516141786040860182613fad565b50606083015161418b6060860182613fad565b50608083015161419e6080860182613fd8565b5060a08301516141b160a0860182613fd8565b5060c08301516141c460c0860182613fe7565b508091505092915050565b60006141db8383614133565b905092915050565b6000602082019050919050565b60006141fb82614107565b6142058185614112565b93508360208202850161421785614123565b8060005b85811015614253578484038952815161423485826141cf565b945061423f836141e3565b925060208a0199505060018101905061421b565b50829750879550505050505092915050565b6000602082019050818103600083015261427f81846141f0565b905092915050565b61429081613b2f565b811461429b57600080fd5b50565b6000813590506142ad81614287565b92915050565b600080604083850312156142ca576142c96139e1565b5b60006142d885828601613a34565b92505060206142e98582860161429e565b9150509250929050565b600080fd5b7f4e487b7100000000000000000000000000000000000000000000000000000000600052604160045260246000fd5b61433082613bb4565b810181811067ffffffffffffffff8211171561434f5761434e6142f8565b5b80604052505050565b60006143626139d7565b905061436e8282614327565b919050565b600067ffffffffffffffff82111561438e5761438d6142f8565b5b61439782613bb4565b9050602081019050919050565b82818337600083830152505050565b60006143c66143c184614373565b614358565b9050828152602081018484840111156143e2576143e16142f3565b5b6143ed8482856143a4565b509392505050565b600082601f83011261440a57614409613ce3565b5b813561441a8482602086016143b3565b91505092915050565b6000806000806080858703121561443d5761443c6139e1565b5b600061444b87828801613a34565b945050602061445c87828801613a34565b935050604061446d87828801613c37565b925050606085013567ffffffffffffffff81111561448e5761448d6139e6565b5b61449a878288016143f5565b91505092959194509250565b600080604083850312156144bd576144bc6139e1565b5b60006144cb85828601613c37565b92505060206144dc85828601613c37565b9150509250929050565b6000806000604084860312156144ff576144fe6139e1565b5b600061450d86828701613c37565b935050602084013567ffffffffffffffff81111561452e5761452d6139e6565b5b61453a86828701613dfa565b92509250509250925092565b6000806040838503121561455d5761455c6139e1565b5b600061456b85828601613a34565b925050602061457c85828601613a34565b9150509250929050565b600060a08301600083015161459e6000860182613fe7565b50602083015184820360208601526145b68282613f6a565b915050604083015184820360408601526145d08282613f6a565b91505060608301516145e56060860182613f4a565b5060808301516145f86080860182613f4a565b508091505092915050565b6000602082019050818103600083015261461d8184614586565b905092915050565b6000806000806060858703121561463f5761463e6139e1565b5b600061464d87828801613a34565b945050602061465e87828801613c37565b935050604085013567ffffffffffffffff81111561467f5761467e6139e6565b5b61468b87828801613cf2565b925092505092959194509250565b600067ffffffffffffffff8211156146b4576146b36142f8565b5b602082029050602081019050919050565b6000815190506146d481613c20565b92915050565b60006146ed6146e884614699565b614358565b905080838252602082019050602084028301858111156147105761470f613ced565b5b835b81811015614739578061472588826146c5565b845260208401935050602081019050614712565b5050509392505050565b600082601f83011261475857614757613ce3565b5b81516147688482602086016146da565b91505092915050565b600060208284031215614787576147866139e1565b5b600082015167ffffffffffffffff8111156147a5576147a46139e6565b5b6147b184828501614743565b91505092915050565b7f4e487b7100000000000000000000000000000000000000000000000000000000600052602260045260246000fd5b6000600282049050600182168061480157607f821691505b60208210811415614815576148146147ba565b5b50919050565b7f544f4b454e5f4e4f545f57524150504544000000000000000000000000000000600082015250565b6000614851601183613b70565b915061485c8261481b565b602082019050919050565b6000602082019050818103600083015261488081614844565b9050919050565b60006020828403121561489d5761489c6139e1565b5b60006148ab848285016146c5565b91505092915050565b6000815190506148c381613a1d565b92915050565b6000602082840312156148df576148de6139e1565b5b60006148ed848285016148b4565b91505092915050565b600081905092915050565b50565b60006149116000836148f6565b915061491c82614901565b600082019050919050565b600061493282614904565b9150819050919050565b7f5641554c545f5452414e534645525f4641494c45440000000000000000000000600082015250565b6000614972601583613b70565b915061497d8261493c565b602082019050919050565b600060208201905081810360008301526149a181614965565b9050919050565b600067ffffffffffffffff8211156149c3576149c26142f8565b5b6149cc82613bb4565b9050602081019050919050565b60006149ec6149e7846149a8565b614358565b905082815260208101848484011115614a0857614a076142f3565b5b614a13848285613b81565b509392505050565b600082601f830112614a3057614a2f613ce3565b5b8151614a408482602086016149d9565b91505092915050565b614a5281613fa3565b8114614a5d57600080fd5b50565b600081519050614a6f81614a49565b92915050565b614a7e81613fbc565b8114614a8957600080fd5b50565b600081519050614a9b81614a75565b92915050565b600080600080600060a08688031215614abd57614abc6139e1565b5b600086015167ffffffffffffffff811115614adb57614ada6139e6565b5b614ae788828901614a1b565b9550506020614af888828901614a60565b9450506040614b0988828901614a60565b9350506060614b1a88828901614a8c565b9250506080614b2b88828901614a8c565b9150509295509295909350565b7f4e487b7100000000000000000000000000000000000000000000000000000000600052601160045260246000fd5b6000614b7282613a76565b9150614b7d83613a76565b925082821015614b9057614b8f614b38565b5b828203905092915050565b6000614ba682613a76565b9150614bb183613a76565b9250827fffffffffffffffffffffffffffffffffffffffffffffffffffffffffffffffff03821115614be657614be5614b38565b5b828201905092915050565b7f4e487b7100000000000000000000000000000000000000000000000000000000600052603260045260246000fd5b6000614c2b82613a76565b91507fffffffffffffffffffffffffffffffffffffffffffffffffffffffffffffffff821415614c5e57614c5d614b38565b5b600182019050919050565b600081905092915050565b6000614c7f82613b65565b614c898185614c69565b9350614c99818560208601613b81565b80840191505092915050565b6000614cb18285614c74565b9150614cbd8284614c74565b91508190509392505050565b7f4e4f545f4f574e4552535f544f4b454e00000000000000000000000000000000600082015250565b6000614cff601083613b70565b9150614d0a82614cc9565b602082019050919050565b60006020820190508181036000830152614d2e81614cf2565b9050919050565b6000606082019050614d4a6000830186613c79565b614d576020830185613c79565b614d646040830184613a80565b949350505050565b6000606082019050614d816000830186613a80565b614d8e6020830185613a80565b614d9b6040830184613c79565b949350505050565b7f544f4b454e5f4e4f545f4f574e45520000000000000000000000000000000000600082015250565b6000614dd9600f83613b70565b9150614de482614da3565b602082019050919050565b60006020820190508181036000830152614e0881614dcc565b9050919050565b6000614e1b8385613b70565b9350614e288385846143a4565b614e3183613bb4565b840190509392505050565b6000604082019050614e516000830186613a80565b8181036020830152614e64818486614e0f565b9050949350505050565b7f554e41424c455f544f5f575241505f544f4b454e000000000000000000000000600082015250565b6000614ea4601483613b70565b9150614eaf82614e6e565b602082019050919050565b60006020820190508181036000830152614ed381614e97565b9050919050565b7f544f4b454e5f4c494d49545f5245414348454400000000000000000000000000600082015250565b6000614f10601383613b70565b9150614f1b82614eda565b602082019050919050565b60006020820190508181036000830152614f3f81614f03565b9050919050565b7f544f4b454e5f414c52454144595f575241505045440000000000000000000000600082015250565b6000614f7c601583613b70565b9150614f8782614f46565b602082019050919050565b60006020820190508181036000830152614fab81614f6f565b9050919050565b6000604082019050614fc76000830185613a80565b614fd46020830184613a80565b9392505050565b7f4f776e61626c653a206e6577206f776e657220697320746865207a65726f206160008201527f6464726573730000000000000000000000000000000000000000000000000000602082015250565b6000615037602683613b70565b915061504282614fdb565b604082019050919050565b600060208201905081810360008301526150668161502a565b9050919050565b7f4f776e61626c653a2063616c6c6572206973206e6f7420746865206f776e6572600082015250565b60006150a3602083613b70565b91506150ae8261506d565b602082019050919050565b600060208201905081810360008301526150d281615096565b9050919050565b600081519050919050565b600082825260208201905092915050565b6000615100826150d9565b61510a81856150e4565b935061511a818560208601613b81565b61512381613bb4565b840191505092915050565b60006080820190506151436000830187613c79565b6151506020830186613c79565b61515d6040830185613a80565b818103606083015261516f81846150f5565b905095945050505050565b60008151905061518981613ad6565b92915050565b6000602082840312156151a5576151a46139e1565b5b60006151b38482850161517a565b91505092915050565b7f4e487b7100000000000000000000000000000000000000000000000000000000600052603160045260246000fdfea264697066735822122050881b23556f83ef03a2d898c2dbec61de483714a9f560dedc74f7f923e017d564736f6c6343000809003368747470733a2f2f6e65787573756c74696d612e636f6d2f69706376302f636f6e74726163742f68747470733a2f2f6e65787573756c74696d612e636f6d2f69706376302f746f6b656e732f",
  "linkReferences": {},
  "deployedLinkReferences": {}
}