{
  "_format": "hh-sol-artifact-1",
  "contractName": "IPCWrapper",
  "sourceName": "contracts/IPCWrapper.sol",
  "abi": [
    {
      "inputs": [],
      "stateMutability": "nonpayable",
      "type": "constructor"
    },
    {
      "inputs": [],
      "name": "ApprovalCallerNotOwnerNorApproved",
      "type": "error"
    },
    {
      "inputs": [],
      "name": "ApprovalQueryForNonexistentToken",
      "type": "error"
    },
    {
      "inputs": [],
      "name": "ApproveToCaller",
      "type": "error"
    },
    {
      "inputs": [],
      "name": "BalanceQueryForZeroAddress",
      "type": "error"
    },
    {
      "inputs": [],
      "name": "MintERC2309QuantityExceedsLimit",
      "type": "error"
    },
    {
      "inputs": [],
      "name": "MintToZeroAddress",
      "type": "error"
    },
    {
      "inputs": [],
      "name": "MintZeroQuantity",
      "type": "error"
    },
    {
      "inputs": [],
      "name": "OwnerQueryForNonexistentToken",
      "type": "error"
    },
    {
      "inputs": [],
      "name": "OwnershipNotInitializedForExtraData",
      "type": "error"
    },
    {
      "inputs": [],
      "name": "TokenDoesntExist",
      "type": "error"
    },
    {
      "inputs": [],
      "name": "TokenLimitReached",
      "type": "error"
    },
    {
      "inputs": [],
      "name": "TokenNotOwner",
      "type": "error"
    },
    {
      "inputs": [],
      "name": "TransferCallerNotOwnerNorApproved",
      "type": "error"
    },
    {
      "inputs": [],
      "name": "TransferFromIncorrectOwner",
      "type": "error"
    },
    {
      "inputs": [],
      "name": "TransferToNonERC721ReceiverImplementer",
      "type": "error"
    },
    {
      "inputs": [],
      "name": "TransferToZeroAddress",
      "type": "error"
    },
    {
      "inputs": [],
      "name": "URIQueryForNonexistentToken",
      "type": "error"
    },
    {
      "anonymous": false,
      "inputs": [
        {
          "indexed": true,
          "internalType": "address",
          "name": "owner",
          "type": "address"
        },
        {
          "indexed": true,
          "internalType": "address",
          "name": "approved",
          "type": "address"
        },
        {
          "indexed": true,
          "internalType": "uint256",
          "name": "tokenId",
          "type": "uint256"
        }
      ],
      "name": "Approval",
      "type": "event"
    },
    {
      "anonymous": false,
      "inputs": [
        {
          "indexed": true,
          "internalType": "address",
          "name": "owner",
          "type": "address"
        },
        {
          "indexed": true,
          "internalType": "address",
          "name": "operator",
          "type": "address"
        },
        {
          "indexed": false,
          "internalType": "bool",
          "name": "approved",
          "type": "bool"
        }
      ],
      "name": "ApprovalForAll",
      "type": "event"
    },
    {
      "anonymous": false,
      "inputs": [
        {
          "indexed": true,
          "internalType": "uint256",
          "name": "fromTokenId",
          "type": "uint256"
        },
        {
          "indexed": false,
          "internalType": "uint256",
          "name": "toTokenId",
          "type": "uint256"
        },
        {
          "indexed": true,
          "internalType": "address",
          "name": "from",
          "type": "address"
        },
        {
          "indexed": true,
          "internalType": "address",
          "name": "to",
          "type": "address"
        }
      ],
      "name": "ConsecutiveTransfer",
      "type": "event"
    },
    {
      "anonymous": false,
      "inputs": [
        {
          "indexed": true,
          "internalType": "address",
          "name": "previousOwner",
          "type": "address"
        },
        {
          "indexed": true,
          "internalType": "address",
          "name": "newOwner",
          "type": "address"
        }
      ],
      "name": "OwnershipTransferred",
      "type": "event"
    },
    {
      "anonymous": false,
      "inputs": [
        {
          "indexed": true,
          "internalType": "address",
          "name": "from",
          "type": "address"
        },
        {
          "indexed": true,
          "internalType": "address",
          "name": "to",
          "type": "address"
        },
        {
          "indexed": true,
          "internalType": "uint256",
          "name": "tokenId",
          "type": "uint256"
        }
      ],
      "name": "Transfer",
      "type": "event"
    },
    {
      "anonymous": false,
      "inputs": [
        {
          "indexed": false,
          "internalType": "uint256",
          "name": "",
          "type": "uint256"
        },
        {
          "indexed": false,
          "internalType": "uint256",
          "name": "",
          "type": "uint256"
        },
        {
          "indexed": false,
          "internalType": "address",
          "name": "",
          "type": "address"
        }
      ],
      "name": "Unwrapped",
      "type": "event"
    },
    {
      "anonymous": false,
      "inputs": [
        {
          "indexed": false,
          "internalType": "uint256",
          "name": "",
          "type": "uint256"
        },
        {
          "indexed": false,
          "internalType": "uint256",
          "name": "",
          "type": "uint256"
        },
        {
          "indexed": false,
          "internalType": "address",
          "name": "",
          "type": "address"
        }
      ],
      "name": "Wrapped",
      "type": "event"
    },
    {
      "inputs": [
        {
          "internalType": "address",
          "name": "to",
          "type": "address"
        },
        {
          "internalType": "uint256",
          "name": "tokenId",
          "type": "uint256"
        }
      ],
      "name": "approve",
      "outputs": [],
      "stateMutability": "nonpayable",
      "type": "function"
    },
    {
      "inputs": [
        {
          "internalType": "address",
          "name": "owner",
          "type": "address"
        }
      ],
      "name": "balanceOf",
      "outputs": [
        {
          "internalType": "uint256",
          "name": "",
          "type": "uint256"
        }
      ],
      "stateMutability": "view",
      "type": "function"
    },
    {
      "inputs": [
        {
          "internalType": "uint256",
          "name": "tokenId",
          "type": "uint256"
        },
        {
          "internalType": "string",
          "name": "newName",
          "type": "string"
        }
      ],
      "name": "changeIpcName",
      "outputs": [],
      "stateMutability": "payable",
      "type": "function"
    },
    {
      "inputs": [],
      "name": "contractURI",
      "outputs": [
        {
          "internalType": "string",
          "name": "",
          "type": "string"
        }
      ],
      "stateMutability": "view",
      "type": "function"
    },
    {
      "inputs": [
        {
          "internalType": "uint256",
          "name": "startIndex",
          "type": "uint256"
        },
        {
          "internalType": "uint256",
          "name": "total",
          "type": "uint256"
        }
      ],
      "name": "getAllTokens",
      "outputs": [
        {
          "components": [
            {
              "internalType": "uint256",
              "name": "tokenId",
              "type": "uint256"
            },
            {
              "internalType": "string",
              "name": "name",
              "type": "string"
            },
            {
              "internalType": "bytes32",
              "name": "attributeSeed",
              "type": "bytes32"
            },
            {
              "internalType": "bytes32",
              "name": "dna",
              "type": "bytes32"
            },
            {
              "internalType": "uint128",
              "name": "experience",
              "type": "uint128"
            },
            {
              "internalType": "uint128",
              "name": "timeOfBirth",
              "type": "uint128"
            },
            {
              "internalType": "address",
              "name": "owner",
              "type": "address"
            }
          ],
          "internalType": "struct IPCWrapper.t_raw_ipc[]",
          "name": "",
          "type": "tuple[]"
        }
      ],
      "stateMutability": "view",
      "type": "function"
    },
    {
      "inputs": [
        {
          "internalType": "uint256",
          "name": "tokenId",
          "type": "uint256"
        }
      ],
      "name": "getApproved",
      "outputs": [
        {
          "internalType": "address",
          "name": "",
          "type": "address"
        }
      ],
      "stateMutability": "view",
      "type": "function"
    },
    {
      "inputs": [],
      "name": "getDebugger",
      "outputs": [
        {
          "internalType": "uint256",
          "name": "d1",
          "type": "uint256"
        },
        {
          "internalType": "uint256",
          "name": "d2",
          "type": "uint256"
        },
        {
          "internalType": "uint256",
          "name": "d3",
          "type": "uint256"
        },
        {
          "internalType": "uint256",
          "name": "d4",
          "type": "uint256"
        },
        {
          "internalType": "address",
          "name": "a1",
          "type": "address"
        },
        {
          "internalType": "string",
          "name": "buffer",
          "type": "string"
        }
      ],
      "stateMutability": "view",
      "type": "function"
    },
    {
      "inputs": [
        {
          "internalType": "uint256",
          "name": "tokenId",
          "type": "uint256"
        }
      ],
      "name": "getIpc",
      "outputs": [
        {
          "components": [
            {
              "internalType": "uint256",
              "name": "tokenId",
              "type": "uint256"
            },
            {
              "internalType": "string",
              "name": "name",
              "type": "string"
            },
            {
              "internalType": "bytes32",
              "name": "attributeSeed",
              "type": "bytes32"
            },
            {
              "internalType": "bytes32",
              "name": "dna",
              "type": "bytes32"
            },
            {
              "internalType": "uint128",
              "name": "experience",
              "type": "uint128"
            },
            {
              "internalType": "uint128",
              "name": "timeOfBirth",
              "type": "uint128"
            },
            {
              "internalType": "address",
              "name": "owner",
              "type": "address"
            }
          ],
          "internalType": "struct IPCWrapper.t_raw_ipc",
          "name": "",
          "type": "tuple"
        }
      ],
      "stateMutability": "view",
      "type": "function"
    },
    {
      "inputs": [],
      "name": "getProperties",
      "outputs": [
        {
          "components": [
            {
              "internalType": "address",
              "name": "contractAdress",
              "type": "address"
            },
            {
              "internalType": "string",
              "name": "tokenURI",
              "type": "string"
            },
            {
              "internalType": "string",
              "name": "contractURI",
              "type": "string"
            },
            {
              "internalType": "uint256",
              "name": "maxPrice",
              "type": "uint256"
            },
            {
              "internalType": "uint256",
              "name": "tokenLimit",
              "type": "uint256"
            }
          ],
          "internalType": "struct IPCWrapper.t_properties",
          "name": "",
          "type": "tuple"
        }
      ],
      "stateMutability": "view",
      "type": "function"
    },
    {
      "inputs": [
        {
          "internalType": "uint256",
          "name": "tokenId",
          "type": "uint256"
        }
      ],
      "name": "getTokenIndex",
      "outputs": [
        {
          "internalType": "uint256",
          "name": "",
          "type": "uint256"
        }
      ],
      "stateMutability": "view",
      "type": "function"
    },
    {
      "inputs": [
        {
          "internalType": "uint256",
          "name": "tokenId",
          "type": "uint256"
        }
      ],
      "name": "getTokenOwnership",
      "outputs": [
        {
          "internalType": "address",
          "name": "",
          "type": "address"
        }
      ],
      "stateMutability": "view",
      "type": "function"
    },
    {
      "inputs": [
        {
          "internalType": "address",
          "name": "owner",
          "type": "address"
        },
        {
          "internalType": "uint256",
          "name": "startIndex",
          "type": "uint256"
        },
        {
          "internalType": "uint256",
          "name": "total",
          "type": "uint256"
        }
      ],
      "name": "getTokensOfOwner",
      "outputs": [
        {
          "components": [
            {
              "internalType": "uint256",
              "name": "tokenId",
              "type": "uint256"
            },
            {
              "internalType": "string",
              "name": "name",
              "type": "string"
            },
            {
              "internalType": "bytes32",
              "name": "attributeSeed",
              "type": "bytes32"
            },
            {
              "internalType": "bytes32",
              "name": "dna",
              "type": "bytes32"
            },
            {
              "internalType": "uint128",
              "name": "experience",
              "type": "uint128"
            },
            {
              "internalType": "uint128",
              "name": "timeOfBirth",
              "type": "uint128"
            },
            {
              "internalType": "address",
              "name": "owner",
              "type": "address"
            }
          ],
          "internalType": "struct IPCWrapper.t_raw_ipc[]",
          "name": "",
          "type": "tuple[]"
        }
      ],
      "stateMutability": "view",
      "type": "function"
    },
    {
      "inputs": [
        {
          "internalType": "address",
          "name": "owner",
          "type": "address"
        },
        {
          "internalType": "address",
          "name": "operator",
          "type": "address"
        }
      ],
      "name": "isApprovedForAll",
      "outputs": [
        {
          "internalType": "bool",
          "name": "",
          "type": "bool"
        }
      ],
      "stateMutability": "view",
      "type": "function"
    },
    {
      "inputs": [],
      "name": "name",
      "outputs": [
        {
          "internalType": "string",
          "name": "",
          "type": "string"
        }
      ],
      "stateMutability": "view",
      "type": "function"
    },
    {
      "inputs": [
        {
          "internalType": "address",
          "name": "",
          "type": "address"
        },
        {
          "internalType": "address",
          "name": "",
          "type": "address"
        },
        {
          "internalType": "uint256",
          "name": "",
          "type": "uint256"
        },
        {
          "internalType": "bytes",
          "name": "",
          "type": "bytes"
        }
      ],
      "name": "onERC721Received",
      "outputs": [
        {
          "internalType": "bytes4",
          "name": "",
          "type": "bytes4"
        }
      ],
      "stateMutability": "pure",
      "type": "function"
    },
    {
      "inputs": [
        {
          "internalType": "address",
          "name": "",
          "type": "address"
        },
        {
          "internalType": "uint256",
          "name": "",
          "type": "uint256"
        },
        {
          "internalType": "bytes",
          "name": "",
          "type": "bytes"
        }
      ],
      "name": "onERC721Received",
      "outputs": [
        {
          "internalType": "bytes4",
          "name": "",
          "type": "bytes4"
        }
      ],
      "stateMutability": "pure",
      "type": "function"
    },
    {
      "inputs": [],
      "name": "owner",
      "outputs": [
        {
          "internalType": "address",
          "name": "",
          "type": "address"
        }
      ],
      "stateMutability": "view",
      "type": "function"
    },
    {
      "inputs": [
        {
          "internalType": "uint256",
          "name": "tokenId",
          "type": "uint256"
        }
      ],
      "name": "ownerOf",
      "outputs": [
        {
          "internalType": "address",
          "name": "",
          "type": "address"
        }
      ],
      "stateMutability": "view",
      "type": "function"
    },
    {
      "inputs": [],
      "name": "renounceOwnership",
      "outputs": [],
      "stateMutability": "nonpayable",
      "type": "function"
    },
    {
      "inputs": [
        {
          "internalType": "address",
          "name": "from",
          "type": "address"
        },
        {
          "internalType": "address",
          "name": "to",
          "type": "address"
        },
        {
          "internalType": "uint256",
          "name": "tokenId",
          "type": "uint256"
        }
      ],
      "name": "safeTransferFrom",
      "outputs": [],
      "stateMutability": "nonpayable",
      "type": "function"
    },
    {
      "inputs": [
        {
          "internalType": "address",
          "name": "from",
          "type": "address"
        },
        {
          "internalType": "address",
          "name": "to",
          "type": "address"
        },
        {
          "internalType": "uint256",
          "name": "tokenId",
          "type": "uint256"
        },
        {
          "internalType": "bytes",
          "name": "_data",
          "type": "bytes"
        }
      ],
      "name": "safeTransferFrom",
      "outputs": [],
      "stateMutability": "nonpayable",
      "type": "function"
    },
    {
      "inputs": [
        {
          "internalType": "address",
          "name": "operator",
          "type": "address"
        },
        {
          "internalType": "bool",
          "name": "approved",
          "type": "bool"
        }
      ],
      "name": "setApprovalForAll",
      "outputs": [],
      "stateMutability": "nonpayable",
      "type": "function"
    },
    {
      "inputs": [
        {
          "internalType": "address",
          "name": "_contractAddress",
          "type": "address"
        }
      ],
      "name": "setContractAddress",
      "outputs": [],
      "stateMutability": "nonpayable",
      "type": "function"
    },
    {
      "inputs": [
        {
          "internalType": "uint256",
          "name": "_maxPrice",
          "type": "uint256"
        },
        {
          "internalType": "uint256",
          "name": "_tokenLimit",
          "type": "uint256"
        },
        {
          "internalType": "string",
          "name": "__tokenURI",
          "type": "string"
        },
        {
          "internalType": "string",
          "name": "__contractURI",
          "type": "string"
        }
      ],
      "name": "setProperties",
      "outputs": [],
      "stateMutability": "nonpayable",
      "type": "function"
    },
    {
      "inputs": [
        {
          "internalType": "bytes4",
          "name": "interfaceId",
          "type": "bytes4"
        }
      ],
      "name": "supportsInterface",
      "outputs": [
        {
          "internalType": "bool",
          "name": "",
          "type": "bool"
        }
      ],
      "stateMutability": "view",
      "type": "function"
    },
    {
      "inputs": [],
      "name": "symbol",
      "outputs": [
        {
          "internalType": "string",
          "name": "",
          "type": "string"
        }
      ],
      "stateMutability": "view",
      "type": "function"
    },
    {
      "inputs": [
        {
          "internalType": "uint256",
          "name": "tokenId",
          "type": "uint256"
        }
      ],
      "name": "tokenURI",
      "outputs": [
        {
          "internalType": "string",
          "name": "",
          "type": "string"
        }
      ],
      "stateMutability": "view",
      "type": "function"
    },
    {
      "inputs": [],
      "name": "totalSupply",
      "outputs": [
        {
          "internalType": "uint256",
          "name": "",
          "type": "uint256"
        }
      ],
      "stateMutability": "view",
      "type": "function"
    },
    {
      "inputs": [
        {
          "internalType": "address",
          "name": "from",
          "type": "address"
        },
        {
          "internalType": "address",
          "name": "to",
          "type": "address"
        },
        {
          "internalType": "uint256",
          "name": "tokenId",
          "type": "uint256"
        }
      ],
      "name": "transferFrom",
      "outputs": [],
      "stateMutability": "nonpayable",
      "type": "function"
    },
    {
      "inputs": [
        {
          "internalType": "address",
          "name": "newOwner",
          "type": "address"
        }
      ],
      "name": "transferOwnership",
      "outputs": [],
      "stateMutability": "nonpayable",
      "type": "function"
    },
    {
      "inputs": [
        {
          "internalType": "uint256",
          "name": "tokenId",
          "type": "uint256"
        }
      ],
      "name": "unwrap",
      "outputs": [],
      "stateMutability": "nonpayable",
      "type": "function"
    },
    {
      "inputs": [],
      "name": "withdrawalVault",
      "outputs": [],
      "stateMutability": "nonpayable",
      "type": "function"
    },
    {
      "inputs": [
        {
          "internalType": "uint256",
          "name": "tokenId",
          "type": "uint256"
        }
      ],
      "name": "wrap",
      "outputs": [],
      "stateMutability": "nonpayable",
      "type": "function"
    }
  ],
  "bytecode": "0x60806040523480156200001157600080fd5b506040518060400160405280601d81526020017f496d6d6f7274616c20506c6179657220436861726163746572732076300000008152506040518060400160405280600581526020017f49504356300000000000000000000000000000000000000000000000000000008152506200009e62000092620001f260201b60201c565b620001fa60201b60201c565b8160039080519060200190620000b6929190620002c7565b508060049080519060200190620000cf929190620002c7565b50620000e0620002be60201b60201c565b600181905550505073ea8f7655cc13ed539cda9057c2e6f06631f7038f600f60006101000a81548173ffffffffffffffffffffffffffffffffffffffff021916908373ffffffffffffffffffffffffffffffffffffffff1602179055506040518060400160405280601a81526020017f68747470733a2f2f776562736974652e636f6d2f746f6b656e2f000000000000815250601090805190602001906200018a929190620002c7565b506040518060400160405280601d81526020017f68747470733a2f2f776562736974652e636f6d2f636f6e74726163742f00000081525060119080519060200190620001d8929190620002c7565b50620f42406012819055506103e8601381905550620003dc565b600033905090565b60008060009054906101000a900473ffffffffffffffffffffffffffffffffffffffff169050816000806101000a81548173ffffffffffffffffffffffffffffffffffffffff021916908373ffffffffffffffffffffffffffffffffffffffff1602179055508173ffffffffffffffffffffffffffffffffffffffff168173ffffffffffffffffffffffffffffffffffffffff167f8be0079c531659141344cd1fd0a4f28419497f9722a3daafe3b4186f6b6457e060405160405180910390a35050565b60006001905090565b828054620002d590620003a6565b90600052602060002090601f016020900481019282620002f9576000855562000345565b82601f106200031457805160ff191683800117855562000345565b8280016001018555821562000345579182015b828111156200034457825182559160200191906001019062000327565b5b50905062000354919062000358565b5090565b5b808211156200037357600081600090555060010162000359565b5090565b7f4e487b7100000000000000000000000000000000000000000000000000000000600052602260045260246000fd5b60006002820490506001821680620003bf57607f821691505b60208210811415620003d657620003d562000377565b5b50919050565b61495d80620003ec6000396000f3fe6080604052600436106101ee5760003560e01c80637fff1e2f1161010d578063d8500306116100a0578063e985e9c51161006f578063e985e9c51461072b578063ea598cb014610768578063ec0cfd0b14610791578063f0b9e5ba146107bc578063f2fde38b146107f9576101ee565b8063d85003061461067e578063de0e9a3e146106bb578063dfb31a7c146106e4578063e8a3d48514610700576101ee565b80639a043832116100dc5780639a043832146105b2578063a22cb465146105ef578063b88d4fde14610618578063c87b56dd14610641576101ee565b80637fff1e2f146104e257806389edc4381461051f5780638da5cb5b1461055c57806395d89b4114610587576101ee565b806323b872dd116101855780636352211e116101545780636352211e1461043a57806369d421481461047757806370a082311461048e578063715018a6146104cb576101ee565b806323b872dd146103825780633a663c80146103ab57806342842e0e146103e8578063477bddaa14610411576101ee565b806312ca702e116101c157806312ca702e146102c1578063150b7a02146102f157806318160ddd1461032e57806320f95f6214610359576101ee565b806301ffc9a7146101f357806306fdde0314610230578063081812fc1461025b578063095ea7b314610298575b600080fd5b3480156101ff57600080fd5b5061021a60048036038101906102159190613362565b610822565b60405161022791906133aa565b60405180910390f35b34801561023c57600080fd5b506102456108b4565b604051610252919061345e565b60405180910390f35b34801561026757600080fd5b50610282600480360381019061027d91906134b6565b610946565b60405161028f9190613524565b60405180910390f35b3480156102a457600080fd5b506102bf60048036038101906102ba919061356b565b6109c5565b005b3480156102cd57600080fd5b506102d6610b09565b6040516102e8969594939291906135ba565b60405180910390f35b3480156102fd57600080fd5b5061031860048036038101906103139190613687565b610bf6565b604051610325919061371e565b60405180910390f35b34801561033a57600080fd5b50610343610c0b565b6040516103509190613739565b60405180910390f35b34801561036557600080fd5b50610380600480360381019061037b91906137aa565b610cb2565b005b34801561038e57600080fd5b506103a960048036038101906103a49190613851565b610cf4565b005b3480156103b757600080fd5b506103d260048036038101906103cd91906134b6565b611019565b6040516103df9190613739565b60405180910390f35b3480156103f457600080fd5b5061040f600480360381019061040a9190613851565b611036565b005b34801561041d57600080fd5b50610438600480360381019061043391906138a4565b611056565b005b34801561044657600080fd5b50610461600480360381019061045c91906134b6565b6110a2565b60405161046e9190613524565b60405180910390f35b34801561048357600080fd5b5061048c6111bd565b005b34801561049a57600080fd5b506104b560048036038101906104b091906138a4565b611274565b6040516104c29190613739565b60405180910390f35b3480156104d757600080fd5b506104e061132d565b005b3480156104ee57600080fd5b50610509600480360381019061050491906134b6565b611341565b6040516105169190613a19565b60405180910390f35b34801561052b57600080fd5b5061054660048036038101906105419190613a3b565b611498565b6040516105539190613bec565b60405180910390f35b34801561056857600080fd5b50610571611694565b60405161057e9190613524565b60405180910390f35b34801561059357600080fd5b5061059c6116bd565b6040516105a9919061345e565b60405180910390f35b3480156105be57600080fd5b506105d960048036038101906105d49190613c0e565b61174f565b6040516105e69190613bec565b60405180910390f35b3480156105fb57600080fd5b5061061660048036038101906106119190613c7a565b611875565b005b34801561062457600080fd5b5061063f600480360381019061063a9190613dea565b6119ed565b005b34801561064d57600080fd5b50610668600480360381019061066391906134b6565b611a60565b604051610675919061345e565b60405180910390f35b34801561068a57600080fd5b506106a560048036038101906106a091906134b6565b611b07565b6040516106b29190613524565b60405180910390f35b3480156106c757600080fd5b506106e260048036038101906106dd91906134b6565b611bbb565b005b6106fe60048036038101906106f99190613e6d565b611f4b565b005b34801561070c57600080fd5b5061071561209f565b604051610722919061345e565b60405180910390f35b34801561073757600080fd5b50610752600480360381019061074d9190613ecd565b612131565b60405161075f91906133aa565b60405180910390f35b34801561077457600080fd5b5061078f600480360381019061078a91906134b6565b6121c5565b005b34801561079d57600080fd5b506107a66124bb565b6040516107b39190613f8a565b60405180910390f35b3480156107c857600080fd5b506107e360048036038101906107de9190613fac565b61264d565b6040516107f0919061371e565b60405180910390f35b34801561080557600080fd5b50610820600480360381019061081b91906138a4565b61267a565b005b60006301ffc9a760e01b827bffffffffffffffffffffffffffffffffffffffffffffffffffffffff1916148061087d57506380ac58cd60e01b827bffffffffffffffffffffffffffffffffffffffffffffffffffffffff1916145b806108ad5750635b5e139f60e01b827bffffffffffffffffffffffffffffffffffffffffffffffffffffffff1916145b9050919050565b6060600380546108c39061404f565b80601f01602080910402602001604051908101604052809291908181526020018280546108ef9061404f565b801561093c5780601f106109115761010080835404028352916020019161093c565b820191906000526020600020905b81548152906001019060200180831161091f57829003601f168201915b5050505050905090565b6000610951826126fe565b610987576040517fcf4700e400000000000000000000000000000000000000000000000000000000815260040160405180910390fd5b6007600083815260200190815260200160002060000160009054906101000a900473ffffffffffffffffffffffffffffffffffffffff169050919050565b60006109d0826110a2565b90508073ffffffffffffffffffffffffffffffffffffffff166109f161275d565b73ffffffffffffffffffffffffffffffffffffffff1614610a5457610a1d81610a1861275d565b612131565b610a53576040517fcfb3b94200000000000000000000000000000000000000000000000000000000815260040160405180910390fd5b5b826007600084815260200190815260200160002060000160006101000a81548173ffffffffffffffffffffffffffffffffffffffff021916908373ffffffffffffffffffffffffffffffffffffffff160217905550818373ffffffffffffffffffffffffffffffffffffffff168273ffffffffffffffffffffffffffffffffffffffff167f8c5be1e5ebec7d5bd14f71427d1e84f3dd0314c0f7b2291e5b200ac8c7c3b92560405160405180910390a4505050565b60008060008060006060600960000154600960010154600960020154600960030154600960040160009054906101000a900473ffffffffffffffffffffffffffffffffffffffff166009600501808054610b629061404f565b80601f0160208091040260200160405190810160405280929190818152602001828054610b8e9061404f565b8015610bdb5780601f10610bb057610100808354040283529160200191610bdb565b820191906000526020600020905b815481529060010190602001808311610bbe57829003601f168201915b50505050509050955095509550955095509550909192939495565b600063150b7a0260e01b905095945050505050565b6000600f60009054906101000a900473ffffffffffffffffffffffffffffffffffffffff1673ffffffffffffffffffffffffffffffffffffffff166318160ddd6040518163ffffffff1660e01b815260040160206040518083038186803b158015610c7557600080fd5b505afa158015610c89573d6000803e3d6000fd5b505050506040513d601f19601f82011682018060405250810190610cad9190614096565b905090565b610cba612765565b8560128190555084601381905550838360109190610cd9929190613191565b50818160119190610ceb929190613191565b50505050505050565b6000610cff826127e3565b90508373ffffffffffffffffffffffffffffffffffffffff168173ffffffffffffffffffffffffffffffffffffffff1614610d66576040517fa114810000000000000000000000000000000000000000000000000000000000815260040160405180910390fd5b600080610d72846128b1565b91509150610d888187610d8361275d565b6128d8565b610dd457610d9d86610d9861275d565b612131565b610dd3576040517f59c896be00000000000000000000000000000000000000000000000000000000815260040160405180910390fd5b5b600073ffffffffffffffffffffffffffffffffffffffff168573ffffffffffffffffffffffffffffffffffffffff161415610e3b576040517fea553b3400000000000000000000000000000000000000000000000000000000815260040160405180910390fd5b610e48868686600161291c565b8015610e5357600082555b600660008773ffffffffffffffffffffffffffffffffffffffff1673ffffffffffffffffffffffffffffffffffffffff168152602001908152602001600020600081546001900391905081905550600660008673ffffffffffffffffffffffffffffffffffffffff1673ffffffffffffffffffffffffffffffffffffffff1681526020019081526020016000206000815460010191905081905550610f2185610efd888887612922565b7c02000000000000000000000000000000000000000000000000000000001761294a565b600560008681526020019081526020016000208190555060007c020000000000000000000000000000000000000000000000000000000084161415610fa9576000600185019050600060056000838152602001908152602001600020541415610fa7576001548114610fa6578360056000838152602001908152602001600020819055505b5b505b838573ffffffffffffffffffffffffffffffffffffffff168773ffffffffffffffffffffffffffffffffffffffff167fddf252ad1be2c89b69c2b068fc378daa952ba7f163c4a11628f55a4df523b3ef60405160405180910390a46110118686866001612975565b505050505050565b600060156000838152602001908152602001600020549050919050565b611051838383604051806020016040528060008152506119ed565b505050565b61105e612765565b80600f60006101000a81548173ffffffffffffffffffffffffffffffffffffffff021916908373ffffffffffffffffffffffffffffffffffffffff16021790555050565b60008060156000848152602001908152602001600020549050600081141561117757600f60009054906101000a900473ffffffffffffffffffffffffffffffffffffffff1673ffffffffffffffffffffffffffffffffffffffff16636352211e846040518263ffffffff1660e01b815260040161111f9190613739565b60206040518083038186803b15801561113757600080fd5b505afa15801561114b573d6000803e3d6000fd5b505050506040513d601f19601f8201168201806040525081019061116f91906140d8565b9150506111b8565b60006014600083815260200190815260200160002060010160009054906101000a900473ffffffffffffffffffffffffffffffffffffffff16905080925050505b919050565b6111c5612765565b60003373ffffffffffffffffffffffffffffffffffffffff16476040516111eb90614136565b60006040518083038185875af1925050503d8060008114611228576040519150601f19603f3d011682016040523d82523d6000602084013e61122d565b606091505b5050905080611271576040517f08c379a000000000000000000000000000000000000000000000000000000000815260040161126890614197565b60405180910390fd5b50565b60008073ffffffffffffffffffffffffffffffffffffffff168273ffffffffffffffffffffffffffffffffffffffff1614156112dc576040517f8f4eb60400000000000000000000000000000000000000000000000000000000815260040160405180910390fd5b67ffffffffffffffff600660008473ffffffffffffffffffffffffffffffffffffffff1673ffffffffffffffffffffffffffffffffffffffff16815260200190815260200160002054169050919050565b611335612765565b61133f600061297b565b565b611349613217565b6000806000806000600f60009054906101000a900473ffffffffffffffffffffffffffffffffffffffff1673ffffffffffffffffffffffffffffffffffffffff16637fff1e2f886040518263ffffffff1660e01b81526004016113ac9190613739565b60006040518083038186803b1580156113c457600080fd5b505afa1580156113d8573d6000803e3d6000fd5b505050506040513d6000823e3d601f19601f8201168201806040525081019061140191906142b0565b945094509450945094506000611416886110a2565b905060006040518060e001604052808a8152602001888152602001878152602001868152602001856fffffffffffffffffffffffffffffffff168152602001846fffffffffffffffffffffffffffffffff1681526020018373ffffffffffffffffffffffffffffffffffffffff16815250905080975050505050505050919050565b60606000600f60009054906101000a900473ffffffffffffffffffffffffffffffffffffffff1673ffffffffffffffffffffffffffffffffffffffff16638462151c866040518263ffffffff1660e01b81526004016114f79190613524565b60006040518083038186803b15801561150f57600080fd5b505afa158015611523573d6000803e3d6000fd5b505050506040513d6000823e3d601f19601f8201168201806040525081019061154c919061440a565b90506000815190508085111561156157600094505b600084148061157a575084816115779190614482565b84115b1561159a578460018261158d9190614482565b6115979190614482565b93505b60008467ffffffffffffffff8111156115b6576115b5613cbf565b5b6040519080825280602002602001820160405280156115ef57816020015b6115dc613217565b8152602001906001900390816115d45790505b50905060008214156116065780935050505061168d565b600080611611613217565b600092505b878310156116835785838a61162b91906144b6565b8151811061163c5761163b61450c565b5b6020026020010151915061164f82611341565b9050808484815181106116655761166461450c565b5b6020026020010181905250828061167b9061453b565b935050611616565b8396505050505050505b9392505050565b60008060009054906101000a900473ffffffffffffffffffffffffffffffffffffffff16905090565b6060600480546116cc9061404f565b80601f01602080910402602001604051908101604052809291908181526020018280546116f89061404f565b80156117455780601f1061171a57610100808354040283529160200191611745565b820191906000526020600020905b81548152906001019060200180831161172857829003601f168201915b5050505050905090565b6060600061175b610c0b565b9050600084148061176b57508084115b1561177557600193505b600083148061178e5750838161178b9190614482565b83115b156117a257838161179f9190614482565b92505b60008367ffffffffffffffff8111156117be576117bd613cbf565b5b6040519080825280602002602001820160405280156117f757816020015b6117e4613217565b8152602001906001900390816117dc5790505b509050600082141561180d57809250505061186f565b60005b848111611868576000818761182591906144b6565b9050600061183282611341565b9050808484815181106118485761184761450c565b5b6020026020010181905250505080806118609061453b565b915050611810565b8193505050505b92915050565b61187d61275d565b73ffffffffffffffffffffffffffffffffffffffff168273ffffffffffffffffffffffffffffffffffffffff1614156118e2576040517fb06307db00000000000000000000000000000000000000000000000000000000815260040160405180910390fd5b80600860006118ef61275d565b73ffffffffffffffffffffffffffffffffffffffff1673ffffffffffffffffffffffffffffffffffffffff16815260200190815260200160002060008473ffffffffffffffffffffffffffffffffffffffff1673ffffffffffffffffffffffffffffffffffffffff16815260200190815260200160002060006101000a81548160ff0219169083151502179055508173ffffffffffffffffffffffffffffffffffffffff1661199c61275d565b73ffffffffffffffffffffffffffffffffffffffff167f17307eab39ab6107e8899845ad3d59bd9653f200f220920489ca2b5937696c31836040516119e191906133aa565b60405180910390a35050565b6119f8848484610cf4565b60008373ffffffffffffffffffffffffffffffffffffffff163b14611a5a57611a2384848484612a3f565b611a59576040517fd1a57ed600000000000000000000000000000000000000000000000000000000815260040160405180910390fd5b5b50505050565b6060601354821180611a725750600082145b15611aa9576040517fa14c4b5000000000000000000000000000000000000000000000000000000000815260040160405180910390fd5b6000611ab3612b9f565b9050600081511415611ad45760405180602001604052806000815250611aff565b80611ade84612c31565b604051602001611aef9291906145c0565b6040516020818303038152906040525b915050919050565b6000600f60009054906101000a900473ffffffffffffffffffffffffffffffffffffffff1673ffffffffffffffffffffffffffffffffffffffff16636352211e836040518263ffffffff1660e01b8152600401611b649190613739565b60206040518083038186803b158015611b7c57600080fd5b505afa158015611b90573d6000803e3d6000fd5b505050506040513d601f19601f82011682018060405250810190611bb491906140d8565b9050919050565b6000601560008381526020019081526020016000205490506000811415611c0e576040517feb7d192800000000000000000000000000000000000000000000000000000000815260040160405180910390fd5b60003390508073ffffffffffffffffffffffffffffffffffffffff166014600084815260200190815260200160002060010160009054906101000a900473ffffffffffffffffffffffffffffffffffffffff1673ffffffffffffffffffffffffffffffffffffffff1614611cae576040517ff637a3e300000000000000000000000000000000000000000000000000000000815260040160405180910390fd5b6015600084815260200190815260200160002060009055601460008381526020019081526020016000206000808201600090556001820160006101000a81549073ffffffffffffffffffffffffffffffffffffffff0219169055505060005b601660008373ffffffffffffffffffffffffffffffffffffffff1673ffffffffffffffffffffffffffffffffffffffff16815260200190815260200160002080549050811015611e2d5783601660008473ffffffffffffffffffffffffffffffffffffffff1673ffffffffffffffffffffffffffffffffffffffff1681526020019081526020016000208281548110611da957611da861450c565b5b90600052602060002001541415611e1a57601660008373ffffffffffffffffffffffffffffffffffffffff1673ffffffffffffffffffffffffffffffffffffffff1681526020019081526020016000208181548110611e0b57611e0a61450c565b5b90600052602060002001600090555b8080611e259061453b565b915050611d0d565b506000611e39846110a2565b9050611e4483612c81565b3073ffffffffffffffffffffffffffffffffffffffff168173ffffffffffffffffffffffffffffffffffffffff161415611f0a57600f60009054906101000a900473ffffffffffffffffffffffffffffffffffffffff1673ffffffffffffffffffffffffffffffffffffffff166342842e0e3084876040518463ffffffff1660e01b8152600401611ed7939291906145e4565b600060405180830381600087803b158015611ef157600080fd5b505af1158015611f05573d6000803e3d6000fd5b505050505b7f175e3dad2e6c10f120d3216de54ebe7abeee5b7f33c8941af43e73a0315e4a80838584604051611f3d9392919061461b565b60405180910390a150505050565b6000601560008581526020019081526020016000205490503373ffffffffffffffffffffffffffffffffffffffff166014600083815260200190815260200160002060010160009054906101000a900473ffffffffffffffffffffffffffffffffffffffff1673ffffffffffffffffffffffffffffffffffffffff1614612007576040517f08c379a0000000000000000000000000000000000000000000000000000000008152600401611ffe9061469e565b60405180910390fd5b600f60009054906101000a900473ffffffffffffffffffffffffffffffffffffffff1673ffffffffffffffffffffffffffffffffffffffff1663dfb31a7c348686866040518563ffffffff1660e01b8152600401612067939291906146eb565b6000604051808303818588803b15801561208057600080fd5b505af1158015612094573d6000803e3d6000fd5b505050505050505050565b6060601180546120ae9061404f565b80601f01602080910402602001604051908101604052809291908181526020018280546120da9061404f565b80156121275780601f106120fc57610100808354040283529160200191612127565b820191906000526020600020905b81548152906001019060200180831161210a57829003601f168201915b5050505050905090565b6000600860008473ffffffffffffffffffffffffffffffffffffffff1673ffffffffffffffffffffffffffffffffffffffff16815260200190815260200160002060008373ffffffffffffffffffffffffffffffffffffffff1673ffffffffffffffffffffffffffffffffffffffff16815260200190815260200160002060009054906101000a900460ff16905092915050565b600060156000838152602001908152602001600020549050601354821180156121ee5750600081145b15612225576040517f53bb24f900000000000000000000000000000000000000000000000000000000815260040160405180910390fd5b6000339050600f60009054906101000a900473ffffffffffffffffffffffffffffffffffffffff1673ffffffffffffffffffffffffffffffffffffffff166342842e0e8230866040518463ffffffff1660e01b8152600401612289939291906145e4565b600060405180830381600087803b1580156122a357600080fd5b505af11580156122b7573d6000803e3d6000fd5b50505050600f60009054906101000a900473ffffffffffffffffffffffffffffffffffffffff1673ffffffffffffffffffffffffffffffffffffffff16633d4cfe21846012546040518363ffffffff1660e01b815260040161231a92919061471d565b600060405180830381600087803b15801561233457600080fd5b505af1158015612348573d6000803e3d6000fd5b5050505060008214156123605761235d612c8f565b91505b60405180604001604052808481526020018273ffffffffffffffffffffffffffffffffffffffff16815250601460008481526020019081526020016000206000820151816000015560208201518160010160006101000a81548173ffffffffffffffffffffffffffffffffffffffff021916908373ffffffffffffffffffffffffffffffffffffffff160217905550905050816015600085815260200190815260200160002081905550601660008273ffffffffffffffffffffffffffffffffffffffff1673ffffffffffffffffffffffffffffffffffffffff16815260200190815260200160002082908060018154018082558091505060019003906000526020600020016000909190919091505561247b816001612c99565b7ff90572efd1ab4fb9c6b9dabfd24d103ce15482a9ec0c50e0e32618708783b15b8284836040516124ae9392919061461b565b60405180910390a1505050565b6124c3613294565b6124cb612765565b60006040518060a00160405280600f60009054906101000a900473ffffffffffffffffffffffffffffffffffffffff1673ffffffffffffffffffffffffffffffffffffffff168152602001601080546125239061404f565b80601f016020809104026020016040519081016040528092919081815260200182805461254f9061404f565b801561259c5780601f106125715761010080835404028352916020019161259c565b820191906000526020600020905b81548152906001019060200180831161257f57829003601f168201915b50505050508152602001601180546125b39061404f565b80601f01602080910402602001604051908101604052809291908181526020018280546125df9061404f565b801561262c5780601f106126015761010080835404028352916020019161262c565b820191906000526020600020905b81548152906001019060200180831161260f57829003601f168201915b50505050508152602001601254815260200160135481525090508091505090565b60007ff0b9e5baf647f945565b0ac04522b519449041bdd44f952626b9ead9ff3692419050949350505050565b612682612765565b600073ffffffffffffffffffffffffffffffffffffffff168173ffffffffffffffffffffffffffffffffffffffff1614156126f2576040517f08c379a00000000000000000000000000000000000000000000000000000000081526004016126e9906147b8565b60405180910390fd5b6126fb8161297b565b50565b600081612709612cb7565b11158015612718575060015482105b8015612756575060007c0100000000000000000000000000000000000000000000000000000000600560008581526020019081526020016000205416145b9050919050565b600033905090565b61276d612cc0565b73ffffffffffffffffffffffffffffffffffffffff1661278b611694565b73ffffffffffffffffffffffffffffffffffffffff16146127e1576040517f08c379a00000000000000000000000000000000000000000000000000000000081526004016127d890614824565b60405180910390fd5b565b600080829050806127f2612cb7565b1161287a576001548110156128795760006005600083815260200190815260200160002054905060007c010000000000000000000000000000000000000000000000000000000082161415612877575b600081141561286d576005600083600190039350838152602001908152602001600020549050612842565b80925050506128ac565b505b5b6040517fdf2d9b4200000000000000000000000000000000000000000000000000000000815260040160405180910390fd5b919050565b60008060006007600085815260200190815260200160002090508092508254915050915091565b600073ffffffffffffffffffffffffffffffffffffffff8316925073ffffffffffffffffffffffffffffffffffffffff821691508382148383141790509392505050565b50505050565b60008060e883901c905060e8612939868684612cc8565b62ffffff16901b9150509392505050565b600073ffffffffffffffffffffffffffffffffffffffff83169250814260a01b178317905092915050565b50505050565b60008060009054906101000a900473ffffffffffffffffffffffffffffffffffffffff169050816000806101000a81548173ffffffffffffffffffffffffffffffffffffffff021916908373ffffffffffffffffffffffffffffffffffffffff1602179055508173ffffffffffffffffffffffffffffffffffffffff168173ffffffffffffffffffffffffffffffffffffffff167f8be0079c531659141344cd1fd0a4f28419497f9722a3daafe3b4186f6b6457e060405160405180910390a35050565b60008373ffffffffffffffffffffffffffffffffffffffff1663150b7a02612a6561275d565b8786866040518563ffffffff1660e01b8152600401612a879493929190614899565b602060405180830381600087803b158015612aa157600080fd5b505af1925050508015612ad257506040513d601f19601f82011682018060405250810190612acf91906148fa565b60015b612b4c573d8060008114612b02576040519150601f19603f3d011682016040523d82523d6000602084013e612b07565b606091505b50600081511415612b44576040517fd1a57ed600000000000000000000000000000000000000000000000000000000815260040160405180910390fd5b805181602001fd5b63150b7a0260e01b7bffffffffffffffffffffffffffffffffffffffffffffffffffffffff1916817bffffffffffffffffffffffffffffffffffffffffffffffffffffffff191614915050949350505050565b606060108054612bae9061404f565b80601f0160208091040260200160405190810160405280929190818152602001828054612bda9061404f565b8015612c275780601f10612bfc57610100808354040283529160200191612c27565b820191906000526020600020905b815481529060010190602001808311612c0a57829003601f168201915b5050505050905090565b606060806040510190508060405280825b600115612c6d57600183039250600a81066030018353600a8104905080612c6857612c6d565b612c42565b508181036020830392508083525050919050565b612c8c816000612cd1565b50565b6000600154905090565b612cb3828260405180602001604052806000815250612f25565b5050565b60006001905090565b600033905090565b60009392505050565b6000612cdc836127e3565b90506000819050600080612cef866128b1565b915091508415612d5857612d0b8184612d0661275d565b6128d8565b612d5757612d2083612d1b61275d565b612131565b612d56576040517f59c896be00000000000000000000000000000000000000000000000000000000815260040160405180910390fd5b5b5b612d6683600088600161291c565b8015612d7157600082555b600160806001901b03600660008573ffffffffffffffffffffffffffffffffffffffff1673ffffffffffffffffffffffffffffffffffffffff16815260200190815260200160002060008282540192505081905550612e1983612dd685600088612922565b7c02000000000000000000000000000000000000000000000000000000007c0100000000000000000000000000000000000000000000000000000000171761294a565b600560008881526020019081526020016000208190555060007c020000000000000000000000000000000000000000000000000000000085161415612ea1576000600187019050600060056000838152602001908152602001600020541415612e9f576001548114612e9e578460056000838152602001908152602001600020819055505b5b505b85600073ffffffffffffffffffffffffffffffffffffffff168473ffffffffffffffffffffffffffffffffffffffff167fddf252ad1be2c89b69c2b068fc378daa952ba7f163c4a11628f55a4df523b3ef60405160405180910390a4612f0b836000886001612975565b600260008154809291906001019190505550505050505050565b612f2f8383612fc3565b60008373ffffffffffffffffffffffffffffffffffffffff163b14612fbe5760006001549050600083820390505b612f706000868380600101945086612a3f565b612fa6576040517fd1a57ed600000000000000000000000000000000000000000000000000000000815260040160405180910390fd5b818110612f5d578160015414612fbb57600080fd5b50505b505050565b600060015490506000821415613005576040517fb562e8dd00000000000000000000000000000000000000000000000000000000815260040160405180910390fd5b613012600084838561291c565b600160406001901b178202600660008573ffffffffffffffffffffffffffffffffffffffff1673ffffffffffffffffffffffffffffffffffffffff168152602001908152602001600020600082825401925050819055506130898361307a6000866000612922565b61308385613181565b1761294a565b6005600083815260200190815260200160002081905550600080838301905073ffffffffffffffffffffffffffffffffffffffff85169150828260007fddf252ad1be2c89b69c2b068fc378daa952ba7f163c4a11628f55a4df523b3ef600080a4600183015b81811461312a57808360007fddf252ad1be2c89b69c2b068fc378daa952ba7f163c4a11628f55a4df523b3ef600080a46001810190506130ef565b506000821415613166576040517f2e07630000000000000000000000000000000000000000000000000000000000815260040160405180910390fd5b80600181905550505061317c6000848385612975565b505050565b60006001821460e11b9050919050565b82805461319d9061404f565b90600052602060002090601f0160209004810192826131bf5760008555613206565b82601f106131d857803560ff1916838001178555613206565b82800160010185558215613206579182015b828111156132055782358255916020019190600101906131ea565b5b50905061321391906132d9565b5090565b6040518060e001604052806000815260200160608152602001600080191681526020016000801916815260200160006fffffffffffffffffffffffffffffffff16815260200160006fffffffffffffffffffffffffffffffff168152602001600073ffffffffffffffffffffffffffffffffffffffff1681525090565b6040518060a00160405280600073ffffffffffffffffffffffffffffffffffffffff168152602001606081526020016060815260200160008152602001600081525090565b5b808211156132f25760008160009055506001016132da565b5090565b6000604051905090565b600080fd5b600080fd5b60007fffffffff0000000000000000000000000000000000000000000000000000000082169050919050565b61333f8161330a565b811461334a57600080fd5b50565b60008135905061335c81613336565b92915050565b60006020828403121561337857613377613300565b5b60006133868482850161334d565b91505092915050565b60008115159050919050565b6133a48161338f565b82525050565b60006020820190506133bf600083018461339b565b92915050565b600081519050919050565b600082825260208201905092915050565b60005b838110156133ff5780820151818401526020810190506133e4565b8381111561340e576000848401525b50505050565b6000601f19601f8301169050919050565b6000613430826133c5565b61343a81856133d0565b935061344a8185602086016133e1565b61345381613414565b840191505092915050565b600060208201905081810360008301526134788184613425565b905092915050565b6000819050919050565b61349381613480565b811461349e57600080fd5b50565b6000813590506134b08161348a565b92915050565b6000602082840312156134cc576134cb613300565b5b60006134da848285016134a1565b91505092915050565b600073ffffffffffffffffffffffffffffffffffffffff82169050919050565b600061350e826134e3565b9050919050565b61351e81613503565b82525050565b60006020820190506135396000830184613515565b92915050565b61354881613503565b811461355357600080fd5b50565b6000813590506135658161353f565b92915050565b6000806040838503121561358257613581613300565b5b600061359085828601613556565b92505060206135a1858286016134a1565b9150509250929050565b6135b481613480565b82525050565b600060c0820190506135cf60008301896135ab565b6135dc60208301886135ab565b6135e960408301876135ab565b6135f660608301866135ab565b6136036080830185613515565b81810360a08301526136158184613425565b9050979650505050505050565b600080fd5b600080fd5b600080fd5b60008083601f84011261364757613646613622565b5b8235905067ffffffffffffffff81111561366457613663613627565b5b6020830191508360018202830111156136805761367f61362c565b5b9250929050565b6000806000806000608086880312156136a3576136a2613300565b5b60006136b188828901613556565b95505060206136c288828901613556565b94505060406136d3888289016134a1565b935050606086013567ffffffffffffffff8111156136f4576136f3613305565b5b61370088828901613631565b92509250509295509295909350565b6137188161330a565b82525050565b6000602082019050613733600083018461370f565b92915050565b600060208201905061374e60008301846135ab565b92915050565b60008083601f84011261376a57613769613622565b5b8235905067ffffffffffffffff81111561378757613786613627565b5b6020830191508360018202830111156137a3576137a261362c565b5b9250929050565b600080600080600080608087890312156137c7576137c6613300565b5b60006137d589828a016134a1565b96505060206137e689828a016134a1565b955050604087013567ffffffffffffffff81111561380757613806613305565b5b61381389828a01613754565b9450945050606087013567ffffffffffffffff81111561383657613835613305565b5b61384289828a01613754565b92509250509295509295509295565b60008060006060848603121561386a57613869613300565b5b600061387886828701613556565b935050602061388986828701613556565b925050604061389a868287016134a1565b9150509250925092565b6000602082840312156138ba576138b9613300565b5b60006138c884828501613556565b91505092915050565b6138da81613480565b82525050565b600082825260208201905092915050565b60006138fc826133c5565b61390681856138e0565b93506139168185602086016133e1565b61391f81613414565b840191505092915050565b6000819050919050565b61393d8161392a565b82525050565b60006fffffffffffffffffffffffffffffffff82169050919050565b61396881613943565b82525050565b61397781613503565b82525050565b600060e08301600083015161399560008601826138d1565b50602083015184820360208601526139ad82826138f1565b91505060408301516139c26040860182613934565b5060608301516139d56060860182613934565b5060808301516139e8608086018261395f565b5060a08301516139fb60a086018261395f565b5060c0830151613a0e60c086018261396e565b508091505092915050565b60006020820190508181036000830152613a33818461397d565b905092915050565b600080600060608486031215613a5457613a53613300565b5b6000613a6286828701613556565b9350506020613a73868287016134a1565b9250506040613a84868287016134a1565b9150509250925092565b600081519050919050565b600082825260208201905092915050565b6000819050602082019050919050565b600060e083016000830151613ad260008601826138d1565b5060208301518482036020860152613aea82826138f1565b9150506040830151613aff6040860182613934565b506060830151613b126060860182613934565b506080830151613b25608086018261395f565b5060a0830151613b3860a086018261395f565b5060c0830151613b4b60c086018261396e565b508091505092915050565b6000613b628383613aba565b905092915050565b6000602082019050919050565b6000613b8282613a8e565b613b8c8185613a99565b935083602082028501613b9e85613aaa565b8060005b85811015613bda5784840389528151613bbb8582613b56565b9450613bc683613b6a565b925060208a01995050600181019050613ba2565b50829750879550505050505092915050565b60006020820190508181036000830152613c068184613b77565b905092915050565b60008060408385031215613c2557613c24613300565b5b6000613c33858286016134a1565b9250506020613c44858286016134a1565b9150509250929050565b613c578161338f565b8114613c6257600080fd5b50565b600081359050613c7481613c4e565b92915050565b60008060408385031215613c9157613c90613300565b5b6000613c9f85828601613556565b9250506020613cb085828601613c65565b9150509250929050565b600080fd5b7f4e487b7100000000000000000000000000000000000000000000000000000000600052604160045260246000fd5b613cf782613414565b810181811067ffffffffffffffff82111715613d1657613d15613cbf565b5b80604052505050565b6000613d296132f6565b9050613d358282613cee565b919050565b600067ffffffffffffffff821115613d5557613d54613cbf565b5b613d5e82613414565b9050602081019050919050565b82818337600083830152505050565b6000613d8d613d8884613d3a565b613d1f565b905082815260208101848484011115613da957613da8613cba565b5b613db4848285613d6b565b509392505050565b600082601f830112613dd157613dd0613622565b5b8135613de1848260208601613d7a565b91505092915050565b60008060008060808587031215613e0457613e03613300565b5b6000613e1287828801613556565b9450506020613e2387828801613556565b9350506040613e34878288016134a1565b925050606085013567ffffffffffffffff811115613e5557613e54613305565b5b613e6187828801613dbc565b91505092959194509250565b600080600060408486031215613e8657613e85613300565b5b6000613e94868287016134a1565b935050602084013567ffffffffffffffff811115613eb557613eb4613305565b5b613ec186828701613754565b92509250509250925092565b60008060408385031215613ee457613ee3613300565b5b6000613ef285828601613556565b9250506020613f0385828601613556565b9150509250929050565b600060a083016000830151613f25600086018261396e565b5060208301518482036020860152613f3d82826138f1565b91505060408301518482036040860152613f5782826138f1565b9150506060830151613f6c60608601826138d1565b506080830151613f7f60808601826138d1565b508091505092915050565b60006020820190508181036000830152613fa48184613f0d565b905092915050565b60008060008060608587031215613fc657613fc5613300565b5b6000613fd487828801613556565b9450506020613fe5878288016134a1565b935050604085013567ffffffffffffffff81111561400657614005613305565b5b61401287828801613631565b925092505092959194509250565b7f4e487b7100000000000000000000000000000000000000000000000000000000600052602260045260246000fd5b6000600282049050600182168061406757607f821691505b6020821081141561407b5761407a614020565b5b50919050565b6000815190506140908161348a565b92915050565b6000602082840312156140ac576140ab613300565b5b60006140ba84828501614081565b91505092915050565b6000815190506140d28161353f565b92915050565b6000602082840312156140ee576140ed613300565b5b60006140fc848285016140c3565b91505092915050565b600081905092915050565b50565b6000614120600083614105565b915061412b82614110565b600082019050919050565b600061414182614113565b9150819050919050565b7f5641554c545f5452414e534645525f4641494c45440000000000000000000000600082015250565b60006141816015836133d0565b915061418c8261414b565b602082019050919050565b600060208201905081810360008301526141b081614174565b9050919050565b600067ffffffffffffffff8211156141d2576141d1613cbf565b5b6141db82613414565b9050602081019050919050565b60006141fb6141f6846141b7565b613d1f565b90508281526020810184848401111561421757614216613cba565b5b6142228482856133e1565b509392505050565b600082601f83011261423f5761423e613622565b5b815161424f8482602086016141e8565b91505092915050565b6142618161392a565b811461426c57600080fd5b50565b60008151905061427e81614258565b92915050565b61428d81613943565b811461429857600080fd5b50565b6000815190506142aa81614284565b92915050565b600080600080600060a086880312156142cc576142cb613300565b5b600086015167ffffffffffffffff8111156142ea576142e9613305565b5b6142f68882890161422a565b95505060206143078882890161426f565b94505060406143188882890161426f565b93505060606143298882890161429b565b925050608061433a8882890161429b565b9150509295509295909350565b600067ffffffffffffffff82111561436257614361613cbf565b5b602082029050602081019050919050565b600061438661438184614347565b613d1f565b905080838252602082019050602084028301858111156143a9576143a861362c565b5b835b818110156143d257806143be8882614081565b8452602084019350506020810190506143ab565b5050509392505050565b600082601f8301126143f1576143f0613622565b5b8151614401848260208601614373565b91505092915050565b6000602082840312156144205761441f613300565b5b600082015167ffffffffffffffff81111561443e5761443d613305565b5b61444a848285016143dc565b91505092915050565b7f4e487b7100000000000000000000000000000000000000000000000000000000600052601160045260246000fd5b600061448d82613480565b915061449883613480565b9250828210156144ab576144aa614453565b5b828203905092915050565b60006144c182613480565b91506144cc83613480565b9250827fffffffffffffffffffffffffffffffffffffffffffffffffffffffffffffffff0382111561450157614500614453565b5b828201905092915050565b7f4e487b7100000000000000000000000000000000000000000000000000000000600052603260045260246000fd5b600061454682613480565b91507fffffffffffffffffffffffffffffffffffffffffffffffffffffffffffffffff82141561457957614578614453565b5b600182019050919050565b600081905092915050565b600061459a826133c5565b6145a48185614584565b93506145b48185602086016133e1565b80840191505092915050565b60006145cc828561458f565b91506145d8828461458f565b91508190509392505050565b60006060820190506145f96000830186613515565b6146066020830185613515565b61461360408301846135ab565b949350505050565b600060608201905061463060008301866135ab565b61463d60208301856135ab565b61464a6040830184613515565b949350505050565b7f544f4b454e5f4e4f545f4f574e45520000000000000000000000000000000000600082015250565b6000614688600f836133d0565b915061469382614652565b602082019050919050565b600060208201905081810360008301526146b78161467b565b9050919050565b60006146ca83856133d0565b93506146d7838584613d6b565b6146e083613414565b840190509392505050565b600060408201905061470060008301866135ab565b81810360208301526147138184866146be565b9050949350505050565b600060408201905061473260008301856135ab565b61473f60208301846135ab565b9392505050565b7f4f776e61626c653a206e6577206f776e657220697320746865207a65726f206160008201527f6464726573730000000000000000000000000000000000000000000000000000602082015250565b60006147a26026836133d0565b91506147ad82614746565b604082019050919050565b600060208201905081810360008301526147d181614795565b9050919050565b7f4f776e61626c653a2063616c6c6572206973206e6f7420746865206f776e6572600082015250565b600061480e6020836133d0565b9150614819826147d8565b602082019050919050565b6000602082019050818103600083015261483d81614801565b9050919050565b600081519050919050565b600082825260208201905092915050565b600061486b82614844565b614875818561484f565b93506148858185602086016133e1565b61488e81613414565b840191505092915050565b60006080820190506148ae6000830187613515565b6148bb6020830186613515565b6148c860408301856135ab565b81810360608301526148da8184614860565b905095945050505050565b6000815190506148f481613336565b92915050565b6000602082840312156149105761490f613300565b5b600061491e848285016148e5565b9150509291505056fea26469706673582212201405e00595b5f92d80602e64827e008564cdbf8704fb52b1c4efee90574a81c964736f6c63430008090033",
  "linkReferences": {},
  "deployedLinkReferences": {}
}