{
  "_format": "hh-sol-artifact-1",
  "contractName": "IPCWrapper",
  "sourceName": "contracts/IPCWrapper.sol",
  "abi": [
    {
      "inputs": [],
      "stateMutability": "nonpayable",
      "type": "constructor"
    },
    {
      "anonymous": false,
      "inputs": [
        {
          "indexed": true,
          "internalType": "address",
          "name": "owner",
          "type": "address"
        },
        {
          "indexed": true,
          "internalType": "address",
          "name": "approved",
          "type": "address"
        },
        {
          "indexed": true,
          "internalType": "uint256",
          "name": "tokenId",
          "type": "uint256"
        }
      ],
      "name": "Approval",
      "type": "event"
    },
    {
      "anonymous": false,
      "inputs": [
        {
          "indexed": true,
          "internalType": "address",
          "name": "owner",
          "type": "address"
        },
        {
          "indexed": true,
          "internalType": "address",
          "name": "operator",
          "type": "address"
        },
        {
          "indexed": false,
          "internalType": "bool",
          "name": "approved",
          "type": "bool"
        }
      ],
      "name": "ApprovalForAll",
      "type": "event"
    },
    {
      "anonymous": false,
      "inputs": [
        {
          "indexed": true,
          "internalType": "address",
          "name": "previousOwner",
          "type": "address"
        },
        {
          "indexed": true,
          "internalType": "address",
          "name": "newOwner",
          "type": "address"
        }
      ],
      "name": "OwnershipTransferred",
      "type": "event"
    },
    {
      "anonymous": false,
      "inputs": [
        {
          "indexed": true,
          "internalType": "address",
          "name": "from",
          "type": "address"
        },
        {
          "indexed": true,
          "internalType": "address",
          "name": "to",
          "type": "address"
        },
        {
          "indexed": true,
          "internalType": "uint256",
          "name": "tokenId",
          "type": "uint256"
        }
      ],
      "name": "Transfer",
      "type": "event"
    },
    {
      "anonymous": false,
      "inputs": [
        {
          "indexed": false,
          "internalType": "uint256",
          "name": "tokenId",
          "type": "uint256"
        },
        {
          "indexed": false,
          "internalType": "address",
          "name": "owner",
          "type": "address"
        }
      ],
      "name": "Unwrapped",
      "type": "event"
    },
    {
      "anonymous": false,
      "inputs": [
        {
          "indexed": false,
          "internalType": "uint256",
          "name": "tokenId",
          "type": "uint256"
        },
        {
          "indexed": false,
          "internalType": "address",
          "name": "owner",
          "type": "address"
        }
      ],
      "name": "Wrapped",
      "type": "event"
    },
    {
      "anonymous": false,
      "inputs": [
        {
          "indexed": false,
          "internalType": "uint256",
          "name": "tokenId",
          "type": "uint256"
        },
        {
          "indexed": false,
          "internalType": "string",
          "name": "name",
          "type": "string"
        }
      ],
      "name": "nameChangeOK",
      "type": "event"
    },
    {
      "inputs": [
        {
          "internalType": "address",
          "name": "to",
          "type": "address"
        },
        {
          "internalType": "uint256",
          "name": "tokenId",
          "type": "uint256"
        }
      ],
      "name": "approve",
      "outputs": [],
      "stateMutability": "nonpayable",
      "type": "function"
    },
    {
      "inputs": [
        {
          "internalType": "address",
          "name": "owner",
          "type": "address"
        }
      ],
      "name": "balanceOf",
      "outputs": [
        {
          "internalType": "uint256",
          "name": "",
          "type": "uint256"
        }
      ],
      "stateMutability": "view",
      "type": "function"
    },
    {
      "inputs": [
        {
          "internalType": "uint256",
          "name": "tokenId",
          "type": "uint256"
        },
        {
          "internalType": "string",
          "name": "newName",
          "type": "string"
        }
      ],
      "name": "changeIpcName",
      "outputs": [],
      "stateMutability": "payable",
      "type": "function"
    },
    {
      "inputs": [],
      "name": "contractURI",
      "outputs": [
        {
          "internalType": "string",
          "name": "",
          "type": "string"
        }
      ],
      "stateMutability": "view",
      "type": "function"
    },
    {
      "inputs": [
        {
          "internalType": "uint256",
          "name": "tokenId",
          "type": "uint256"
        }
      ],
      "name": "getApproved",
      "outputs": [
        {
          "internalType": "address",
          "name": "",
          "type": "address"
        }
      ],
      "stateMutability": "view",
      "type": "function"
    },
    {
      "inputs": [
        {
          "internalType": "uint256",
          "name": "tokenId",
          "type": "uint256"
        }
      ],
      "name": "getIpc",
      "outputs": [
        {
          "components": [
            {
              "internalType": "uint256",
              "name": "tokenId",
              "type": "uint256"
            },
            {
              "internalType": "string",
              "name": "name",
              "type": "string"
            },
            {
              "internalType": "bytes32",
              "name": "attributeSeed",
              "type": "bytes32"
            },
            {
              "internalType": "bytes32",
              "name": "dna",
              "type": "bytes32"
            },
            {
              "internalType": "uint128",
              "name": "experience",
              "type": "uint128"
            },
            {
              "internalType": "uint128",
              "name": "timeOfBirth",
              "type": "uint128"
            },
            {
              "internalType": "address",
              "name": "owner",
              "type": "address"
            },
            {
              "internalType": "uint256",
              "name": "price",
              "type": "uint256"
            }
          ],
          "internalType": "struct IPCWrapper.t_raw_ipc",
          "name": "",
          "type": "tuple"
        }
      ],
      "stateMutability": "view",
      "type": "function"
    },
    {
      "inputs": [],
      "name": "getProperties",
      "outputs": [
        {
          "components": [
            {
              "internalType": "address",
              "name": "contractAdress",
              "type": "address"
            },
            {
              "internalType": "string",
              "name": "tokenURI",
              "type": "string"
            },
            {
              "internalType": "string",
              "name": "contractURI",
              "type": "string"
            },
            {
              "internalType": "uint256",
              "name": "maxPrice",
              "type": "uint256"
            },
            {
              "internalType": "uint256",
              "name": "tokenLimit",
              "type": "uint256"
            },
            {
              "internalType": "bool",
              "name": "marketPlaceEnabled",
              "type": "bool"
            }
          ],
          "internalType": "struct IPCWrapper.t_properties",
          "name": "",
          "type": "tuple"
        }
      ],
      "stateMutability": "view",
      "type": "function"
    },
    {
      "inputs": [
        {
          "internalType": "address",
          "name": "owner",
          "type": "address"
        },
        {
          "internalType": "address",
          "name": "operator",
          "type": "address"
        }
      ],
      "name": "isApprovedForAll",
      "outputs": [
        {
          "internalType": "bool",
          "name": "",
          "type": "bool"
        }
      ],
      "stateMutability": "view",
      "type": "function"
    },
    {
      "inputs": [],
      "name": "name",
      "outputs": [
        {
          "internalType": "string",
          "name": "",
          "type": "string"
        }
      ],
      "stateMutability": "view",
      "type": "function"
    },
    {
      "inputs": [
        {
          "internalType": "address",
          "name": "",
          "type": "address"
        },
        {
          "internalType": "address",
          "name": "",
          "type": "address"
        },
        {
          "internalType": "uint256",
          "name": "",
          "type": "uint256"
        },
        {
          "internalType": "bytes",
          "name": "",
          "type": "bytes"
        }
      ],
      "name": "onERC721Received",
      "outputs": [
        {
          "internalType": "bytes4",
          "name": "",
          "type": "bytes4"
        }
      ],
      "stateMutability": "pure",
      "type": "function"
    },
    {
      "inputs": [
        {
          "internalType": "address",
          "name": "",
          "type": "address"
        },
        {
          "internalType": "uint256",
          "name": "",
          "type": "uint256"
        },
        {
          "internalType": "bytes",
          "name": "",
          "type": "bytes"
        }
      ],
      "name": "onERC721Received",
      "outputs": [
        {
          "internalType": "bytes4",
          "name": "",
          "type": "bytes4"
        }
      ],
      "stateMutability": "pure",
      "type": "function"
    },
    {
      "inputs": [],
      "name": "owner",
      "outputs": [
        {
          "internalType": "address",
          "name": "",
          "type": "address"
        }
      ],
      "stateMutability": "view",
      "type": "function"
    },
    {
      "inputs": [
        {
          "internalType": "uint256",
          "name": "tokenId",
          "type": "uint256"
        }
      ],
      "name": "ownerOf",
      "outputs": [
        {
          "internalType": "address",
          "name": "",
          "type": "address"
        }
      ],
      "stateMutability": "view",
      "type": "function"
    },
    {
      "inputs": [],
      "name": "renounceOwnership",
      "outputs": [],
      "stateMutability": "nonpayable",
      "type": "function"
    },
    {
      "inputs": [
        {
          "internalType": "address",
          "name": "from",
          "type": "address"
        },
        {
          "internalType": "address",
          "name": "to",
          "type": "address"
        },
        {
          "internalType": "uint256",
          "name": "tokenId",
          "type": "uint256"
        }
      ],
      "name": "safeTransferFrom",
      "outputs": [],
      "stateMutability": "nonpayable",
      "type": "function"
    },
    {
      "inputs": [
        {
          "internalType": "address",
          "name": "from",
          "type": "address"
        },
        {
          "internalType": "address",
          "name": "to",
          "type": "address"
        },
        {
          "internalType": "uint256",
          "name": "tokenId",
          "type": "uint256"
        },
        {
          "internalType": "bytes",
          "name": "data",
          "type": "bytes"
        }
      ],
      "name": "safeTransferFrom",
      "outputs": [],
      "stateMutability": "nonpayable",
      "type": "function"
    },
    {
      "inputs": [
        {
          "internalType": "address",
          "name": "operator",
          "type": "address"
        },
        {
          "internalType": "bool",
          "name": "approved",
          "type": "bool"
        }
      ],
      "name": "setApprovalForAll",
      "outputs": [],
      "stateMutability": "nonpayable",
      "type": "function"
    },
    {
      "inputs": [
        {
          "internalType": "address",
          "name": "_contractAddress",
          "type": "address"
        }
      ],
      "name": "setContractAddress",
      "outputs": [],
      "stateMutability": "nonpayable",
      "type": "function"
    },
    {
      "inputs": [
        {
          "internalType": "string",
          "name": "__tokenURI",
          "type": "string"
        },
        {
          "internalType": "string",
          "name": "__contractURI",
          "type": "string"
        }
      ],
      "name": "setMetaDataURIs",
      "outputs": [],
      "stateMutability": "nonpayable",
      "type": "function"
    },
    {
      "inputs": [
        {
          "internalType": "uint256",
          "name": "_maxPrice",
          "type": "uint256"
        },
        {
          "internalType": "uint256",
          "name": "_tokenLimit",
          "type": "uint256"
        },
        {
          "internalType": "bool",
          "name": "_marketPlaceEnabled",
          "type": "bool"
        }
      ],
      "name": "setTokenomics",
      "outputs": [],
      "stateMutability": "nonpayable",
      "type": "function"
    },
    {
      "inputs": [
        {
          "internalType": "bytes4",
          "name": "interfaceId",
          "type": "bytes4"
        }
      ],
      "name": "supportsInterface",
      "outputs": [
        {
          "internalType": "bool",
          "name": "",
          "type": "bool"
        }
      ],
      "stateMutability": "view",
      "type": "function"
    },
    {
      "inputs": [],
      "name": "symbol",
      "outputs": [
        {
          "internalType": "string",
          "name": "",
          "type": "string"
        }
      ],
      "stateMutability": "view",
      "type": "function"
    },
    {
      "inputs": [
        {
          "internalType": "uint256",
          "name": "tokenId",
          "type": "uint256"
        }
      ],
      "name": "tokenURI",
      "outputs": [
        {
          "internalType": "string",
          "name": "",
          "type": "string"
        }
      ],
      "stateMutability": "view",
      "type": "function"
    },
    {
      "inputs": [],
      "name": "totalSupply",
      "outputs": [
        {
          "internalType": "uint256",
          "name": "",
          "type": "uint256"
        }
      ],
      "stateMutability": "view",
      "type": "function"
    },
    {
      "inputs": [
        {
          "internalType": "address",
          "name": "from",
          "type": "address"
        },
        {
          "internalType": "address",
          "name": "to",
          "type": "address"
        },
        {
          "internalType": "uint256",
          "name": "tokenId",
          "type": "uint256"
        }
      ],
      "name": "transferFrom",
      "outputs": [],
      "stateMutability": "nonpayable",
      "type": "function"
    },
    {
      "inputs": [
        {
          "internalType": "address",
          "name": "newOwner",
          "type": "address"
        }
      ],
      "name": "transferOwnership",
      "outputs": [],
      "stateMutability": "nonpayable",
      "type": "function"
    },
    {
      "inputs": [
        {
          "internalType": "uint256",
          "name": "tokenId",
          "type": "uint256"
        }
      ],
      "name": "unwrap",
      "outputs": [],
      "stateMutability": "nonpayable",
      "type": "function"
    },
    {
      "inputs": [
        {
          "internalType": "address",
          "name": "owner",
          "type": "address"
        }
      ],
      "name": "uwBalanceOf",
      "outputs": [
        {
          "internalType": "uint256",
          "name": "",
          "type": "uint256"
        }
      ],
      "stateMutability": "view",
      "type": "function"
    },
    {
      "inputs": [
        {
          "internalType": "uint256",
          "name": "startIndex",
          "type": "uint256"
        },
        {
          "internalType": "uint256",
          "name": "total",
          "type": "uint256"
        }
      ],
      "name": "uwGetAllTokens",
      "outputs": [
        {
          "components": [
            {
              "internalType": "uint256",
              "name": "tokenId",
              "type": "uint256"
            },
            {
              "internalType": "string",
              "name": "name",
              "type": "string"
            },
            {
              "internalType": "bytes32",
              "name": "attributeSeed",
              "type": "bytes32"
            },
            {
              "internalType": "bytes32",
              "name": "dna",
              "type": "bytes32"
            },
            {
              "internalType": "uint128",
              "name": "experience",
              "type": "uint128"
            },
            {
              "internalType": "uint128",
              "name": "timeOfBirth",
              "type": "uint128"
            },
            {
              "internalType": "address",
              "name": "owner",
              "type": "address"
            },
            {
              "internalType": "uint256",
              "name": "price",
              "type": "uint256"
            }
          ],
          "internalType": "struct IPCWrapper.t_raw_ipc[]",
          "name": "",
          "type": "tuple[]"
        }
      ],
      "stateMutability": "view",
      "type": "function"
    },
    {
      "inputs": [
        {
          "internalType": "address",
          "name": "owner",
          "type": "address"
        }
      ],
      "name": "uwGetTokenIdsOfOwner",
      "outputs": [
        {
          "internalType": "uint256[]",
          "name": "",
          "type": "uint256[]"
        }
      ],
      "stateMutability": "view",
      "type": "function"
    },
    {
      "inputs": [
        {
          "internalType": "address",
          "name": "owner",
          "type": "address"
        },
        {
          "internalType": "uint256",
          "name": "startIndex",
          "type": "uint256"
        },
        {
          "internalType": "uint256",
          "name": "total",
          "type": "uint256"
        }
      ],
      "name": "uwGetTokensOfOwner",
      "outputs": [
        {
          "components": [
            {
              "internalType": "uint256",
              "name": "tokenId",
              "type": "uint256"
            },
            {
              "internalType": "string",
              "name": "name",
              "type": "string"
            },
            {
              "internalType": "bytes32",
              "name": "attributeSeed",
              "type": "bytes32"
            },
            {
              "internalType": "bytes32",
              "name": "dna",
              "type": "bytes32"
            },
            {
              "internalType": "uint128",
              "name": "experience",
              "type": "uint128"
            },
            {
              "internalType": "uint128",
              "name": "timeOfBirth",
              "type": "uint128"
            },
            {
              "internalType": "address",
              "name": "owner",
              "type": "address"
            },
            {
              "internalType": "uint256",
              "name": "price",
              "type": "uint256"
            }
          ],
          "internalType": "struct IPCWrapper.t_raw_ipc[]",
          "name": "",
          "type": "tuple[]"
        }
      ],
      "stateMutability": "view",
      "type": "function"
    },
    {
      "inputs": [
        {
          "internalType": "uint256",
          "name": "tokenId",
          "type": "uint256"
        }
      ],
      "name": "uwOwnerOf",
      "outputs": [
        {
          "internalType": "address",
          "name": "",
          "type": "address"
        }
      ],
      "stateMutability": "view",
      "type": "function"
    },
    {
      "inputs": [
        {
          "internalType": "address",
          "name": "owner",
          "type": "address"
        }
      ],
      "name": "wBalanceOf",
      "outputs": [
        {
          "internalType": "uint256",
          "name": "",
          "type": "uint256"
        }
      ],
      "stateMutability": "view",
      "type": "function"
    },
    {
      "inputs": [
        {
          "internalType": "address",
          "name": "owner",
          "type": "address"
        }
      ],
      "name": "wGetTokenIdsOfOwner",
      "outputs": [
        {
          "internalType": "uint256[]",
          "name": "",
          "type": "uint256[]"
        }
      ],
      "stateMutability": "view",
      "type": "function"
    },
    {
      "inputs": [
        {
          "internalType": "address",
          "name": "owner",
          "type": "address"
        },
        {
          "internalType": "uint256",
          "name": "startIndex",
          "type": "uint256"
        },
        {
          "internalType": "uint256",
          "name": "total",
          "type": "uint256"
        }
      ],
      "name": "wGetTokensOfOwner",
      "outputs": [
        {
          "components": [
            {
              "internalType": "uint256",
              "name": "tokenId",
              "type": "uint256"
            },
            {
              "internalType": "string",
              "name": "name",
              "type": "string"
            },
            {
              "internalType": "bytes32",
              "name": "attributeSeed",
              "type": "bytes32"
            },
            {
              "internalType": "bytes32",
              "name": "dna",
              "type": "bytes32"
            },
            {
              "internalType": "uint128",
              "name": "experience",
              "type": "uint128"
            },
            {
              "internalType": "uint128",
              "name": "timeOfBirth",
              "type": "uint128"
            },
            {
              "internalType": "address",
              "name": "owner",
              "type": "address"
            },
            {
              "internalType": "uint256",
              "name": "price",
              "type": "uint256"
            }
          ],
          "internalType": "struct IPCWrapper.t_raw_ipc[]",
          "name": "",
          "type": "tuple[]"
        }
      ],
      "stateMutability": "view",
      "type": "function"
    },
    {
      "inputs": [
        {
          "internalType": "uint256",
          "name": "tokenId",
          "type": "uint256"
        }
      ],
      "name": "wOwnerOf",
      "outputs": [
        {
          "internalType": "address",
          "name": "",
          "type": "address"
        }
      ],
      "stateMutability": "view",
      "type": "function"
    },
    {
      "inputs": [],
      "name": "withdrawalVault",
      "outputs": [],
      "stateMutability": "nonpayable",
      "type": "function"
    },
    {
      "inputs": [
        {
          "internalType": "uint256",
          "name": "tokenId",
          "type": "uint256"
        }
      ],
      "name": "wrap",
      "outputs": [],
      "stateMutability": "nonpayable",
      "type": "function"
    },
    {
      "inputs": [
        {
          "internalType": "uint256",
          "name": "tokenId",
          "type": "uint256"
        }
      ],
      "name": "wuwOwnerOf",
      "outputs": [
        {
          "internalType": "address",
          "name": "",
          "type": "address"
        }
      ],
      "stateMutability": "view",
      "type": "function"
    }
  ],
  "bytecode": "0x60806040523480156200001157600080fd5b506040518060400160405280601d81526020017f496d6d6f7274616c20506c6179657220436861726163746572732076300000008152506040518060400160405280600581526020017f49504356300000000000000000000000000000000000000000000000000000008152506200009e62000092620001bf60201b60201c565b620001c760201b60201c565b8160019080519060200190620000b69291906200028b565b508060029080519060200190620000cf9291906200028b565b5050507329b3a1f10f9acc50805da6a90838fabd6b69fad2600960006101000a81548173ffffffffffffffffffffffffffffffffffffffff021916908373ffffffffffffffffffffffffffffffffffffffff160217905550604051806080016040528060438152602001620063396043913960079080519060200190620001589291906200028b565b50604051806080016040528060508152602001620062e960509139600890805190602001906200018a9291906200028b565b50620f4240600a819055506103e8600b819055506001600c60006101000a81548160ff021916908315150217905550620003a0565b600033905090565b60008060009054906101000a900473ffffffffffffffffffffffffffffffffffffffff169050816000806101000a81548173ffffffffffffffffffffffffffffffffffffffff021916908373ffffffffffffffffffffffffffffffffffffffff1602179055508173ffffffffffffffffffffffffffffffffffffffff168173ffffffffffffffffffffffffffffffffffffffff167f8be0079c531659141344cd1fd0a4f28419497f9722a3daafe3b4186f6b6457e060405160405180910390a35050565b82805462000299906200036a565b90600052602060002090601f016020900481019282620002bd576000855562000309565b82601f10620002d857805160ff191683800117855562000309565b8280016001018555821562000309579182015b8281111562000308578251825591602001919060010190620002eb565b5b5090506200031891906200031c565b5090565b5b80821115620003375760008160009055506001016200031d565b5090565b7f4e487b7100000000000000000000000000000000000000000000000000000000600052602260045260246000fd5b600060028204905060018216806200038357607f821691505b602082108114156200039a57620003996200033b565b5b50919050565b615f3980620003b06000396000f3fe6080604052600436106102305760003560e01c80637fff1e2f1161012e578063d764600d116100ab578063e985e9c51161006f578063e985e9c5146108d4578063ea598cb014610911578063ec0cfd0b1461093a578063f0b9e5ba14610965578063f2fde38b146109a257610230565b8063d764600d146107ea578063de0e9a3e14610827578063dfb31a7c14610850578063e44141a91461086c578063e8a3d485146108a957610230565b8063a81464da116100f2578063a81464da146106e1578063b4f01a021461070a578063b88d4fde14610747578063c2619d1314610770578063c87b56dd146107ad57610230565b80637fff1e2f146105e85780638da5cb5b1461062557806395d89b41146106505780639c4747021461067b578063a22cb465146106b857610230565b8063367213df116101bc5780636352211e116101805780636352211e1461050357806369d421481461054057806370a0823114610557578063715018a614610594578063736d098b146105ab57610230565b8063367213df1461040e57806342842e0e14610437578063477bddaa1461046057806348ccd467146104895780634f6cfe2a146104c657610230565b8063081812fc11610203578063081812fc14610317578063095ea7b314610354578063150b7a021461037d57806318160ddd146103ba57806323b872dd146103e557610230565b8063013abd6c1461023557806301ffc9a7146102725780630280276a146102af57806306fdde03146102ec575b600080fd5b34801561024157600080fd5b5061025c60048036038101906102579190613e96565b6109cb565b6040516102699190613edc565b60405180910390f35b34801561027e57600080fd5b5061029960048036038101906102949190613f4f565b610a8a565b6040516102a69190613f97565b60405180910390f35b3480156102bb57600080fd5b506102d660048036038101906102d19190613e96565b610b6c565b6040516102e39190614070565b60405180910390f35b3480156102f857600080fd5b50610301610c09565b60405161030e919061412b565b60405180910390f35b34801561032357600080fd5b5061033e60048036038101906103399190614179565b610c9b565b60405161034b91906141b5565b60405180910390f35b34801561036057600080fd5b5061037b600480360381019061037691906141d0565b610ce1565b005b34801561038957600080fd5b506103a4600480360381019061039f9190614275565b610df9565b6040516103b1919061430c565b60405180910390f35b3480156103c657600080fd5b506103cf610e0e565b6040516103dc9190613edc565b60405180910390f35b3480156103f157600080fd5b5061040c60048036038101906104079190614327565b610eb5565b005b34801561041a57600080fd5b50610435600480360381019061043091906143a6565b610f15565b005b34801561044357600080fd5b5061045e60048036038101906104599190614327565b610f4a565b005b34801561046c57600080fd5b5061048760048036038101906104829190613e96565b610f6a565b005b34801561049557600080fd5b506104b060048036038101906104ab9190613e96565b610fb6565b6040516104bd9190613edc565b60405180910390f35b3480156104d257600080fd5b506104ed60048036038101906104e891906143f9565b610fff565b6040516104fa919061465b565b60405180910390f35b34801561050f57600080fd5b5061052a60048036038101906105259190614179565b6111e4565b60405161053791906141b5565b60405180910390f35b34801561054c57600080fd5b50610555611296565b005b34801561056357600080fd5b5061057e60048036038101906105799190613e96565b61134d565b60405161058b9190613edc565b60405180910390f35b3480156105a057600080fd5b506105a9611405565b005b3480156105b757600080fd5b506105d260048036038101906105cd9190614179565b611419565b6040516105df91906141b5565b60405180910390f35b3480156105f457600080fd5b5061060f600480360381019061060a9190614179565b611530565b60405161061c919061472d565b60405180910390f35b34801561063157600080fd5b5061063a611748565b60405161064791906141b5565b60405180910390f35b34801561065c57600080fd5b50610665611771565b604051610672919061412b565b60405180910390f35b34801561068757600080fd5b506106a2600480360381019061069d9190613e96565b611803565b6040516106af9190614070565b60405180910390f35b3480156106c457600080fd5b506106df60048036038101906106da919061474f565b6118c2565b005b3480156106ed57600080fd5b50610708600480360381019061070391906147e5565b6118d8565b005b34801561071657600080fd5b50610731600480360381019061072c9190614179565b61190a565b60405161073e91906141b5565b60405180910390f35b34801561075357600080fd5b5061076e60048036038101906107699190614996565b6119be565b005b34801561077c57600080fd5b5061079760048036038101906107929190614a19565b611a20565b6040516107a4919061465b565b60405180910390f35b3480156107b957600080fd5b506107d460048036038101906107cf9190614179565b611b6a565b6040516107e1919061412b565b60405180910390f35b3480156107f657600080fd5b50610811600480360381019061080c91906143f9565b611bd2565b60405161081e919061465b565b60405180910390f35b34801561083357600080fd5b5061084e60048036038101906108499190614179565b611dd9565b005b61086a60048036038101906108659190614a59565b612068565b005b34801561087857600080fd5b50610893600480360381019061088e9190614179565b612207565b6040516108a091906141b5565b60405180910390f35b3480156108b557600080fd5b506108be612249565b6040516108cb919061412b565b60405180910390f35b3480156108e057600080fd5b506108fb60048036038101906108f69190614ab9565b6122db565b6040516109089190613f97565b60405180910390f35b34801561091d57600080fd5b5061093860048036038101906109339190614179565b61236f565b005b34801561094657600080fd5b5061094f612658565b60405161095c9190614b98565b60405180910390f35b34801561097157600080fd5b5061098c60048036038101906109879190614bba565b612801565b604051610999919061430c565b60405180910390f35b3480156109ae57600080fd5b506109c960048036038101906109c49190613e96565b61282e565b005b600080600960009054906101000a900473ffffffffffffffffffffffffffffffffffffffff1673ffffffffffffffffffffffffffffffffffffffff16638462151c846040518263ffffffff1660e01b8152600401610a2991906141b5565b60006040518083038186803b158015610a4157600080fd5b505afa158015610a55573d6000803e3d6000fd5b505050506040513d6000823e3d601f19601f82011682018060405250810190610a7e9190614d06565b90508051915050919050565b60007f80ac58cd000000000000000000000000000000000000000000000000000000007bffffffffffffffffffffffffffffffffffffffffffffffffffffffff1916827bffffffffffffffffffffffffffffffffffffffffffffffffffffffff19161480610b5557507f5b5e139f000000000000000000000000000000000000000000000000000000007bffffffffffffffffffffffffffffffffffffffffffffffffffffffff1916827bffffffffffffffffffffffffffffffffffffffffffffffffffffffff1916145b80610b655750610b64826128b2565b5b9050919050565b60606000600d60008473ffffffffffffffffffffffffffffffffffffffff1673ffffffffffffffffffffffffffffffffffffffff168152602001908152602001600020805480602002602001604051908101604052809291908181526020018280548015610bf957602002820191906000526020600020905b815481526020019060010190808311610be5575b5050505050905080915050919050565b606060018054610c1890614d7e565b80601f0160208091040260200160405190810160405280929190818152602001828054610c4490614d7e565b8015610c915780601f10610c6657610100808354040283529160200191610c91565b820191906000526020600020905b815481529060010190602001808311610c7457829003601f168201915b5050505050905090565b6000610ca68261291c565b6005600083815260200190815260200160002060009054906101000a900473ffffffffffffffffffffffffffffffffffffffff169050919050565b6000610cec826111e4565b90508073ffffffffffffffffffffffffffffffffffffffff168373ffffffffffffffffffffffffffffffffffffffff161415610d5d576040517f08c379a0000000000000000000000000000000000000000000000000000000008152600401610d5490614e22565b60405180910390fd5b8073ffffffffffffffffffffffffffffffffffffffff16610d7c612967565b73ffffffffffffffffffffffffffffffffffffffff161480610dab5750610daa81610da5612967565b6122db565b5b610dea576040517f08c379a0000000000000000000000000000000000000000000000000000000008152600401610de190614eb4565b60405180910390fd5b610df4838361296f565b505050565b600063150b7a0260e01b905095945050505050565b6000600960009054906101000a900473ffffffffffffffffffffffffffffffffffffffff1673ffffffffffffffffffffffffffffffffffffffff166318160ddd6040518163ffffffff1660e01b815260040160206040518083038186803b158015610e7857600080fd5b505afa158015610e8c573d6000803e3d6000fd5b505050506040513d601f19601f82011682018060405250810190610eb09190614ed4565b905090565b610ec6610ec0612967565b82612a28565b610f05576040517f08c379a0000000000000000000000000000000000000000000000000000000008152600401610efc90614f73565b60405180910390fd5b610f10838383612abd565b505050565b610f1d612db3565b82600a8190555081600b8190555080600c60006101000a81548160ff021916908315150217905550505050565b610f65838383604051806020016040528060008152506119be565b505050565b610f72612db3565b80600960006101000a81548173ffffffffffffffffffffffffffffffffffffffff021916908373ffffffffffffffffffffffffffffffffffffffff16021790555050565b6000600460008373ffffffffffffffffffffffffffffffffffffffff1673ffffffffffffffffffffffffffffffffffffffff168152602001908152602001600020549050919050565b60606000600d60008673ffffffffffffffffffffffffffffffffffffffff1673ffffffffffffffffffffffffffffffffffffffff16815260200190815260200160002080548060200260200160405190810160405280929190818152602001828054801561108c57602002820191906000526020600020905b815481526020019060010190808311611078575b50505050509050600081519050808511156110a657600094505b60008111156110e15760008414806110c8575084816110c59190614fc2565b84115b156110dc5784816110d99190614fc2565b93505b6110ea565b60009050600193505b60008467ffffffffffffffff8111156111065761110561486b565b5b60405190808252806020026020018201604052801561113f57816020015b61112c613cae565b8152602001906001900390816111245790505b5090506000821415611156578093505050506111dd565b600080611161613cae565b600092505b878310156111d35785838a61117b9190614ff6565b8151811061118c5761118b61504c565b5b6020026020010151915061119f82611530565b9050808484815181106111b5576111b461504c565b5b602002602001018190525082806111cb9061507b565b935050611166565b8396505050505050505b9392505050565b6000806003600084815260200190815260200160002060009054906101000a900473ffffffffffffffffffffffffffffffffffffffff169050600073ffffffffffffffffffffffffffffffffffffffff168173ffffffffffffffffffffffffffffffffffffffff16141561128d576040517f08c379a000000000000000000000000000000000000000000000000000000000815260040161128490615110565b60405180910390fd5b80915050919050565b61129e612db3565b60003373ffffffffffffffffffffffffffffffffffffffff16476040516112c490615161565b60006040518083038185875af1925050503d8060008114611301576040519150601f19603f3d011682016040523d82523d6000602084013e611306565b606091505b505090508061134a576040517f08c379a0000000000000000000000000000000000000000000000000000000008152600401611341906151c2565b60405180910390fd5b50565b60008073ffffffffffffffffffffffffffffffffffffffff168273ffffffffffffffffffffffffffffffffffffffff1614156113be576040517f08c379a00000000000000000000000000000000000000000000000000000000081526004016113b590615254565b60405180910390fd5b600460008373ffffffffffffffffffffffffffffffffffffffff1673ffffffffffffffffffffffffffffffffffffffff168152602001908152602001600020549050919050565b61140d612db3565b6114176000612e31565b565b600080151561142783612ef5565b1515148061146857503073ffffffffffffffffffffffffffffffffffffffff1661145083612207565b73ffffffffffffffffffffffffffffffffffffffff16145b1561151f57600960009054906101000a900473ffffffffffffffffffffffffffffffffffffffff1673ffffffffffffffffffffffffffffffffffffffff16636352211e836040518263ffffffff1660e01b81526004016114c89190613edc565b60206040518083038186803b1580156114e057600080fd5b505afa1580156114f4573d6000803e3d6000fd5b505050506040513d601f19601f820116820180604052508101906115189190615289565b905061152b565b61152882612207565b90505b919050565b611538613cae565b6000806000806000600960009054906101000a900473ffffffffffffffffffffffffffffffffffffffff1673ffffffffffffffffffffffffffffffffffffffff16637fff1e2f886040518263ffffffff1660e01b815260040161159b9190613edc565b60006040518083038186803b1580156115b357600080fd5b505afa1580156115c7573d6000803e3d6000fd5b505050506040513d6000823e3d601f19601f820116820180604052508101906115f091906153af565b945094509450945094506000600960009054906101000a900473ffffffffffffffffffffffffffffffffffffffff1673ffffffffffffffffffffffffffffffffffffffff166331ef7314896040518263ffffffff1660e01b81526004016116579190613edc565b60806040518083038186803b15801561166f57600080fd5b505afa158015611683573d6000803e3d6000fd5b505050506040513d601f19601f820116820180604052508101906116a791906154ff565b905060006116b489611419565b905060006040518061010001604052808b8152602001898152602001888152602001878152602001866fffffffffffffffffffffffffffffffff168152602001856fffffffffffffffffffffffffffffffff1681526020018373ffffffffffffffffffffffffffffffffffffffff168152602001846000015163ffffffff1681525090508098505050505050505050919050565b60008060009054906101000a900473ffffffffffffffffffffffffffffffffffffffff16905090565b60606002805461178090614d7e565b80601f01602080910402602001604051908101604052809291908181526020018280546117ac90614d7e565b80156117f95780601f106117ce576101008083540402835291602001916117f9565b820191906000526020600020905b8154815290600101906020018083116117dc57829003601f168201915b5050505050905090565b60606000600960009054906101000a900473ffffffffffffffffffffffffffffffffffffffff1673ffffffffffffffffffffffffffffffffffffffff16638462151c846040518263ffffffff1660e01b815260040161186291906141b5565b60006040518083038186803b15801561187a57600080fd5b505afa15801561188e573d6000803e3d6000fd5b505050506040513d6000823e3d601f19601f820116820180604052508101906118b79190614d06565b905080915050919050565b6118d46118cd612967565b8383612f61565b5050565b6118e0612db3565b8383600791906118f1929190613d33565b50818160089190611903929190613d33565b5050505050565b6000600960009054906101000a900473ffffffffffffffffffffffffffffffffffffffff1673ffffffffffffffffffffffffffffffffffffffff16636352211e836040518263ffffffff1660e01b81526004016119679190613edc565b60206040518083038186803b15801561197f57600080fd5b505afa158015611993573d6000803e3d6000fd5b505050506040513d601f19601f820116820180604052508101906119b79190615289565b9050919050565b6119cf6119c9612967565b83612a28565b611a0e576040517f08c379a0000000000000000000000000000000000000000000000000000000008152600401611a0590614f73565b60405180910390fd5b611a1a848484846130ce565b50505050565b60606000611a2c610e0e565b90506000841480611a3c57508084115b15611a4657600193505b6000811115611a8d576000831480611a74575083600182611a679190614ff6565b611a719190614fc2565b83115b15611a88578381611a859190614fc2565b92505b611a96565b60009050600192505b60008367ffffffffffffffff811115611ab257611ab161486b565b5b604051908082528060200260200182016040528015611aeb57816020015b611ad8613cae565b815260200190600190039081611ad05790505b5090506000821415611b01578092505050611b64565b60005b84811015611b5d5760008187611b1a9190614ff6565b90506000611b2782611530565b905080848481518110611b3d57611b3c61504c565b5b602002602001018190525050508080611b559061507b565b915050611b04565b8193505050505b92915050565b6060611b758261291c565b6000611b7f61312a565b90506000815111611b9f5760405180602001604052806000815250611bca565b80611ba9846131bc565b604051602001611bba929190615568565b6040516020818303038152906040525b915050919050565b60606000600960009054906101000a900473ffffffffffffffffffffffffffffffffffffffff1673ffffffffffffffffffffffffffffffffffffffff16638462151c866040518263ffffffff1660e01b8152600401611c3191906141b5565b60006040518083038186803b158015611c4957600080fd5b505afa158015611c5d573d6000803e3d6000fd5b505050506040513d6000823e3d601f19601f82011682018060405250810190611c869190614d06565b905060008151905080851115611c9b57600094505b6000811115611cd6576000841480611cbd57508481611cba9190614fc2565b84115b15611cd1578481611cce9190614fc2565b93505b611cdf565b60009050600193505b60008467ffffffffffffffff811115611cfb57611cfa61486b565b5b604051908082528060200260200182016040528015611d3457816020015b611d21613cae565b815260200190600190039081611d195790505b5090506000821415611d4b57809350505050611dd2565b600080611d56613cae565b600092505b87831015611dc85785838a611d709190614ff6565b81518110611d8157611d8061504c565b5b60200260200101519150611d9482611530565b905080848481518110611daa57611da961504c565b5b60200260200101819052508280611dc09061507b565b935050611d5b565b8396505050505050505b9392505050565b60001515611de682612ef5565b15151415611e29576040517f08c379a0000000000000000000000000000000000000000000000000000000008152600401611e20906155d8565b60405180910390fd5b6000611e3482612207565b90503073ffffffffffffffffffffffffffffffffffffffff168173ffffffffffffffffffffffffffffffffffffffff161415611ea5576040517f08c379a0000000000000000000000000000000000000000000000000000000008152600401611e9c906155d8565b60405180910390fd5b3373ffffffffffffffffffffffffffffffffffffffff168173ffffffffffffffffffffffffffffffffffffffff1614611f13576040517f08c379a0000000000000000000000000000000000000000000000000000000008152600401611f0a90615644565b60405180910390fd5b6000611f1e8361190a565b90503073ffffffffffffffffffffffffffffffffffffffff168173ffffffffffffffffffffffffffffffffffffffff1614611f8e576040517f08c379a0000000000000000000000000000000000000000000000000000000008152600401611f85906156b0565b60405180910390fd5b600960009054906101000a900473ffffffffffffffffffffffffffffffffffffffff1673ffffffffffffffffffffffffffffffffffffffff166342842e0e3033866040518463ffffffff1660e01b8152600401611fed939291906156d0565b600060405180830381600087803b15801561200757600080fd5b505af115801561201b573d6000803e3d6000fd5b5050505061202a33308561331d565b7f1d27d1c62712f590d53fa9eb8bbf3a75d09503deae319bb9d99644339cb312e1833360405161205b929190615707565b60405180910390a1505050565b3373ffffffffffffffffffffffffffffffffffffffff1661208884612207565b73ffffffffffffffffffffffffffffffffffffffff16146120de576040517f08c379a00000000000000000000000000000000000000000000000000000000081526004016120d59061577c565b60405180910390fd5b60001515600c60009054906101000a900460ff1615151415612135576040517f08c379a000000000000000000000000000000000000000000000000000000000815260040161212c906157e8565b60405180910390fd5b600960009054906101000a900473ffffffffffffffffffffffffffffffffffffffff1673ffffffffffffffffffffffffffffffffffffffff1663dfb31a7c348585856040518563ffffffff1660e01b815260040161219593929190615835565b6000604051808303818588803b1580156121ae57600080fd5b505af11580156121c2573d6000803e3d6000fd5b50505050507f60319c6511f3c90c2a37bcd711c518923ef5dd5528be697b9b4a23a1aace6c9c8383836040516121fa93929190615835565b60405180910390a1505050565b6000806003600084815260200190815260200160002060009054906101000a900473ffffffffffffffffffffffffffffffffffffffff16905080915050919050565b60606008805461225890614d7e565b80601f016020809104026020016040519081016040528092919081815260200182805461228490614d7e565b80156122d15780601f106122a6576101008083540402835291602001916122d1565b820191906000526020600020905b8154815290600101906020018083116122b457829003601f168201915b5050505050905090565b6000600660008473ffffffffffffffffffffffffffffffffffffffff1673ffffffffffffffffffffffffffffffffffffffff16815260200190815260200160002060008373ffffffffffffffffffffffffffffffffffffffff1673ffffffffffffffffffffffffffffffffffffffff16815260200190815260200160002060009054906101000a900460ff16905092915050565b600b548111156123b4576040517f08c379a00000000000000000000000000000000000000000000000000000000081526004016123ab906158b3565b60405180910390fd5b60006123bf82612207565b90506123ca82612ef5565b1561243e573073ffffffffffffffffffffffffffffffffffffffff168173ffffffffffffffffffffffffffffffffffffffff161461243d576040517f08c379a00000000000000000000000000000000000000000000000000000000081526004016124349061591f565b60405180910390fd5b5b60006124498361190a565b90503373ffffffffffffffffffffffffffffffffffffffff168173ffffffffffffffffffffffffffffffffffffffff16146124b9576040517f08c379a00000000000000000000000000000000000000000000000000000000081526004016124b090615644565b60405180910390fd5b600960009054906101000a900473ffffffffffffffffffffffffffffffffffffffff1673ffffffffffffffffffffffffffffffffffffffff166342842e0e3330866040518463ffffffff1660e01b8152600401612518939291906156d0565b600060405180830381600087803b15801561253257600080fd5b505af1158015612546573d6000803e3d6000fd5b50505050600c60009054906101000a900460ff16156125f157600960009054906101000a900473ffffffffffffffffffffffffffffffffffffffff1673ffffffffffffffffffffffffffffffffffffffff16633d4cfe2184600a546040518363ffffffff1660e01b81526004016125be92919061593f565b600060405180830381600087803b1580156125d857600080fd5b505af11580156125ec573d6000803e3d6000fd5b505050505b6125fa83612ef5565b1561260f5761260a30338561331d565b61261a565b61261933846134b7565b5b7f9c307a39a47fdf1a019642a4e8a585ffe9894b5018226029887fe6d4241611bb833360405161264b929190615707565b60405180910390a1505050565b612660613db9565b612668612db3565b60006040518060c00160405280600960009054906101000a900473ffffffffffffffffffffffffffffffffffffffff1673ffffffffffffffffffffffffffffffffffffffff168152602001600780546126c090614d7e565b80601f01602080910402602001604051908101604052809291908181526020018280546126ec90614d7e565b80156127395780601f1061270e57610100808354040283529160200191612739565b820191906000526020600020905b81548152906001019060200180831161271c57829003601f168201915b505050505081526020016008805461275090614d7e565b80601f016020809104026020016040519081016040528092919081815260200182805461277c90614d7e565b80156127c95780601f1061279e576101008083540402835291602001916127c9565b820191906000526020600020905b8154815290600101906020018083116127ac57829003601f168201915b50505050508152602001600a548152602001600b548152602001600c60009054906101000a900460ff16151581525090508091505090565b60007ff0b9e5baf647f945565b0ac04522b519449041bdd44f952626b9ead9ff3692419050949350505050565b612836612db3565b600073ffffffffffffffffffffffffffffffffffffffff168173ffffffffffffffffffffffffffffffffffffffff1614156128a6576040517f08c379a000000000000000000000000000000000000000000000000000000000815260040161289d906159da565b60405180910390fd5b6128af81612e31565b50565b60007f01ffc9a7000000000000000000000000000000000000000000000000000000007bffffffffffffffffffffffffffffffffffffffffffffffffffffffff1916827bffffffffffffffffffffffffffffffffffffffffffffffffffffffff1916149050919050565b61292581612ef5565b612964576040517f08c379a000000000000000000000000000000000000000000000000000000000815260040161295b90615110565b60405180910390fd5b50565b600033905090565b816005600083815260200190815260200160002060006101000a81548173ffffffffffffffffffffffffffffffffffffffff021916908373ffffffffffffffffffffffffffffffffffffffff160217905550808273ffffffffffffffffffffffffffffffffffffffff166129e2836111e4565b73ffffffffffffffffffffffffffffffffffffffff167f8c5be1e5ebec7d5bd14f71427d1e84f3dd0314c0f7b2291e5b200ac8c7c3b92560405160405180910390a45050565b600080612a34836111e4565b90508073ffffffffffffffffffffffffffffffffffffffff168473ffffffffffffffffffffffffffffffffffffffff161480612a765750612a7581856122db565b5b80612ab457508373ffffffffffffffffffffffffffffffffffffffff16612a9c84610c9b565b73ffffffffffffffffffffffffffffffffffffffff16145b91505092915050565b8273ffffffffffffffffffffffffffffffffffffffff16612add826111e4565b73ffffffffffffffffffffffffffffffffffffffff1614612b33576040517f08c379a0000000000000000000000000000000000000000000000000000000008152600401612b2a90615a6c565b60405180910390fd5b600073ffffffffffffffffffffffffffffffffffffffff168273ffffffffffffffffffffffffffffffffffffffff161415612ba3576040517f08c379a0000000000000000000000000000000000000000000000000000000008152600401612b9a90615afe565b60405180910390fd5b612bae8383836134d5565b8273ffffffffffffffffffffffffffffffffffffffff16612bce826111e4565b73ffffffffffffffffffffffffffffffffffffffff1614612c24576040517f08c379a0000000000000000000000000000000000000000000000000000000008152600401612c1b90615a6c565b60405180910390fd5b6005600082815260200190815260200160002060006101000a81549073ffffffffffffffffffffffffffffffffffffffff02191690556001600460008573ffffffffffffffffffffffffffffffffffffffff1673ffffffffffffffffffffffffffffffffffffffff168152602001908152602001600020600082825403925050819055506001600460008473ffffffffffffffffffffffffffffffffffffffff1673ffffffffffffffffffffffffffffffffffffffff16815260200190815260200160002060008282540192505081905550816003600083815260200190815260200160002060006101000a81548173ffffffffffffffffffffffffffffffffffffffff021916908373ffffffffffffffffffffffffffffffffffffffff160217905550808273ffffffffffffffffffffffffffffffffffffffff168473ffffffffffffffffffffffffffffffffffffffff167fddf252ad1be2c89b69c2b068fc378daa952ba7f163c4a11628f55a4df523b3ef60405160405180910390a4612dae8383836134da565b505050565b612dbb612967565b73ffffffffffffffffffffffffffffffffffffffff16612dd9611748565b73ffffffffffffffffffffffffffffffffffffffff1614612e2f576040517f08c379a0000000000000000000000000000000000000000000000000000000008152600401612e2690615b6a565b60405180910390fd5b565b60008060009054906101000a900473ffffffffffffffffffffffffffffffffffffffff169050816000806101000a81548173ffffffffffffffffffffffffffffffffffffffff021916908373ffffffffffffffffffffffffffffffffffffffff1602179055508173ffffffffffffffffffffffffffffffffffffffff168173ffffffffffffffffffffffffffffffffffffffff167f8be0079c531659141344cd1fd0a4f28419497f9722a3daafe3b4186f6b6457e060405160405180910390a35050565b60008073ffffffffffffffffffffffffffffffffffffffff166003600084815260200190815260200160002060009054906101000a900473ffffffffffffffffffffffffffffffffffffffff1673ffffffffffffffffffffffffffffffffffffffff1614159050919050565b8173ffffffffffffffffffffffffffffffffffffffff168373ffffffffffffffffffffffffffffffffffffffff161415612fd0576040517f08c379a0000000000000000000000000000000000000000000000000000000008152600401612fc790615bd6565b60405180910390fd5b80600660008573ffffffffffffffffffffffffffffffffffffffff1673ffffffffffffffffffffffffffffffffffffffff16815260200190815260200160002060008473ffffffffffffffffffffffffffffffffffffffff1673ffffffffffffffffffffffffffffffffffffffff16815260200190815260200160002060006101000a81548160ff0219169083151502179055508173ffffffffffffffffffffffffffffffffffffffff168373ffffffffffffffffffffffffffffffffffffffff167f17307eab39ab6107e8899845ad3d59bd9653f200f220920489ca2b5937696c31836040516130c19190613f97565b60405180910390a3505050565b6130d9848484612abd565b6130e5848484846135d0565b613124576040517f08c379a000000000000000000000000000000000000000000000000000000000815260040161311b90615c68565b60405180910390fd5b50505050565b60606007805461313990614d7e565b80601f016020809104026020016040519081016040528092919081815260200182805461316590614d7e565b80156131b25780601f10613187576101008083540402835291602001916131b2565b820191906000526020600020905b81548152906001019060200180831161319557829003601f168201915b5050505050905090565b60606000821415613204576040518060400160405280600181526020017f30000000000000000000000000000000000000000000000000000000000000008152509050613318565b600082905060005b6000821461323657808061321f9061507b565b915050600a8261322f9190615cb7565b915061320c565b60008167ffffffffffffffff8111156132525761325161486b565b5b6040519080825280601f01601f1916602001820160405280156132845781602001600182028036833780820191505090505b5090505b600085146133115760018261329d9190614fc2565b9150600a856132ac9190615ce8565b60306132b89190614ff6565b60f81b8183815181106132ce576132cd61504c565b5b60200101907effffffffffffffffffffffffffffffffffffffffffffffffffffffffffffff1916908160001a905350600a8561330a9190615cb7565b9450613288565b8093505050505b919050565b6133288383836134d5565b6005600082815260200190815260200160002060006101000a81549073ffffffffffffffffffffffffffffffffffffffff02191690556001600460008573ffffffffffffffffffffffffffffffffffffffff1673ffffffffffffffffffffffffffffffffffffffff168152602001908152602001600020600082825403925050819055506001600460008473ffffffffffffffffffffffffffffffffffffffff1673ffffffffffffffffffffffffffffffffffffffff16815260200190815260200160002060008282540192505081905550816003600083815260200190815260200160002060006101000a81548173ffffffffffffffffffffffffffffffffffffffff021916908373ffffffffffffffffffffffffffffffffffffffff160217905550808273ffffffffffffffffffffffffffffffffffffffff168473ffffffffffffffffffffffffffffffffffffffff167fddf252ad1be2c89b69c2b068fc378daa952ba7f163c4a11628f55a4df523b3ef60405160405180910390a46134b28383836134da565b505050565b6134d1828260405180602001604052806000815250613767565b5050565b505050565b600073ffffffffffffffffffffffffffffffffffffffff168373ffffffffffffffffffffffffffffffffffffffff16141561357a57600d60008373ffffffffffffffffffffffffffffffffffffffff1673ffffffffffffffffffffffffffffffffffffffff1681526020019081526020016000208190806001815401808255809150506001900390600052602060002001600090919091909150556135cb565b600073ffffffffffffffffffffffffffffffffffffffff168273ffffffffffffffffffffffffffffffffffffffff1614156135be576135b983826137c2565b6135ca565b6135c98383836139c1565b5b5b505050565b60006135f18473ffffffffffffffffffffffffffffffffffffffff16613a71565b1561375a578373ffffffffffffffffffffffffffffffffffffffff1663150b7a0261361a612967565b8786866040518563ffffffff1660e01b815260040161363c9493929190615d6e565b602060405180830381600087803b15801561365657600080fd5b505af192505050801561368757506040513d601f19601f820116820180604052508101906136849190615dcf565b60015b61370a573d80600081146136b7576040519150601f19603f3d011682016040523d82523d6000602084013e6136bc565b606091505b50600081511415613702576040517f08c379a00000000000000000000000000000000000000000000000000000000081526004016136f990615c68565b60405180910390fd5b805181602001fd5b63150b7a0260e01b7bffffffffffffffffffffffffffffffffffffffffffffffffffffffff1916817bffffffffffffffffffffffffffffffffffffffffffffffffffffffff19161491505061375f565b600190505b949350505050565b6137718383613a94565b61377e60008484846135d0565b6137bd576040517f08c379a00000000000000000000000000000000000000000000000000000000081526004016137b490615c68565b60405180910390fd5b505050565b6000600d60008473ffffffffffffffffffffffffffffffffffffffff1673ffffffffffffffffffffffffffffffffffffffff16815260200190815260200160002080549050905060005b818110156139bb5782600d60008673ffffffffffffffffffffffffffffffffffffffff1673ffffffffffffffffffffffffffffffffffffffff16815260200190815260200160002082815481106138665761386561504c565b5b906000526020600020015414156139a857600d60008573ffffffffffffffffffffffffffffffffffffffff1673ffffffffffffffffffffffffffffffffffffffff1681526020019081526020016000206001836138c39190614fc2565b815481106138d4576138d361504c565b5b9060005260206000200154600d60008673ffffffffffffffffffffffffffffffffffffffff1673ffffffffffffffffffffffffffffffffffffffff16815260200190815260200160002082815481106139305761392f61504c565b5b9060005260206000200181905550600d60008573ffffffffffffffffffffffffffffffffffffffff1673ffffffffffffffffffffffffffffffffffffffff16815260200190815260200160002080548061398d5761398c615dfc565b5b600190038181906000526020600020016000905590556139bb565b80806139b39061507b565b91505061380c565b50505050565b600073ffffffffffffffffffffffffffffffffffffffff168373ffffffffffffffffffffffffffffffffffffffff1614156139fb57613a6c565b613a0583826137c2565b600d60008373ffffffffffffffffffffffffffffffffffffffff1673ffffffffffffffffffffffffffffffffffffffff1681526020019081526020016000208190806001815401808255809150506001900390600052602060002001600090919091909150555b505050565b6000808273ffffffffffffffffffffffffffffffffffffffff163b119050919050565b600073ffffffffffffffffffffffffffffffffffffffff168273ffffffffffffffffffffffffffffffffffffffff161415613b04576040517f08c379a0000000000000000000000000000000000000000000000000000000008152600401613afb90615e77565b60405180910390fd5b613b0d81612ef5565b15613b4d576040517f08c379a0000000000000000000000000000000000000000000000000000000008152600401613b4490615ee3565b60405180910390fd5b613b59600083836134d5565b613b6281612ef5565b15613ba2576040517f08c379a0000000000000000000000000000000000000000000000000000000008152600401613b9990615ee3565b60405180910390fd5b6001600460008473ffffffffffffffffffffffffffffffffffffffff1673ffffffffffffffffffffffffffffffffffffffff16815260200190815260200160002060008282540192505081905550816003600083815260200190815260200160002060006101000a81548173ffffffffffffffffffffffffffffffffffffffff021916908373ffffffffffffffffffffffffffffffffffffffff160217905550808273ffffffffffffffffffffffffffffffffffffffff16600073ffffffffffffffffffffffffffffffffffffffff167fddf252ad1be2c89b69c2b068fc378daa952ba7f163c4a11628f55a4df523b3ef60405160405180910390a4613caa600083836134da565b5050565b6040518061010001604052806000815260200160608152602001600080191681526020016000801916815260200160006fffffffffffffffffffffffffffffffff16815260200160006fffffffffffffffffffffffffffffffff168152602001600073ffffffffffffffffffffffffffffffffffffffff168152602001600081525090565b828054613d3f90614d7e565b90600052602060002090601f016020900481019282613d615760008555613da8565b82601f10613d7a57803560ff1916838001178555613da8565b82800160010185558215613da8579182015b82811115613da7578235825591602001919060010190613d8c565b5b509050613db59190613e07565b5090565b6040518060c00160405280600073ffffffffffffffffffffffffffffffffffffffff168152602001606081526020016060815260200160008152602001600081526020016000151581525090565b5b80821115613e20576000816000905550600101613e08565b5090565b6000604051905090565b600080fd5b600080fd5b600073ffffffffffffffffffffffffffffffffffffffff82169050919050565b6000613e6382613e38565b9050919050565b613e7381613e58565b8114613e7e57600080fd5b50565b600081359050613e9081613e6a565b92915050565b600060208284031215613eac57613eab613e2e565b5b6000613eba84828501613e81565b91505092915050565b6000819050919050565b613ed681613ec3565b82525050565b6000602082019050613ef16000830184613ecd565b92915050565b60007fffffffff0000000000000000000000000000000000000000000000000000000082169050919050565b613f2c81613ef7565b8114613f3757600080fd5b50565b600081359050613f4981613f23565b92915050565b600060208284031215613f6557613f64613e2e565b5b6000613f7384828501613f3a565b91505092915050565b60008115159050919050565b613f9181613f7c565b82525050565b6000602082019050613fac6000830184613f88565b92915050565b600081519050919050565b600082825260208201905092915050565b6000819050602082019050919050565b613fe781613ec3565b82525050565b6000613ff98383613fde565b60208301905092915050565b6000602082019050919050565b600061401d82613fb2565b6140278185613fbd565b935061403283613fce565b8060005b8381101561406357815161404a8882613fed565b975061405583614005565b925050600181019050614036565b5085935050505092915050565b6000602082019050818103600083015261408a8184614012565b905092915050565b600081519050919050565b600082825260208201905092915050565b60005b838110156140cc5780820151818401526020810190506140b1565b838111156140db576000848401525b50505050565b6000601f19601f8301169050919050565b60006140fd82614092565b614107818561409d565b93506141178185602086016140ae565b614120816140e1565b840191505092915050565b6000602082019050818103600083015261414581846140f2565b905092915050565b61415681613ec3565b811461416157600080fd5b50565b6000813590506141738161414d565b92915050565b60006020828403121561418f5761418e613e2e565b5b600061419d84828501614164565b91505092915050565b6141af81613e58565b82525050565b60006020820190506141ca60008301846141a6565b92915050565b600080604083850312156141e7576141e6613e2e565b5b60006141f585828601613e81565b925050602061420685828601614164565b9150509250929050565b600080fd5b600080fd5b600080fd5b60008083601f84011261423557614234614210565b5b8235905067ffffffffffffffff81111561425257614251614215565b5b60208301915083600182028301111561426e5761426d61421a565b5b9250929050565b60008060008060006080868803121561429157614290613e2e565b5b600061429f88828901613e81565b95505060206142b088828901613e81565b94505060406142c188828901614164565b935050606086013567ffffffffffffffff8111156142e2576142e1613e33565b5b6142ee8882890161421f565b92509250509295509295909350565b61430681613ef7565b82525050565b600060208201905061432160008301846142fd565b92915050565b6000806000606084860312156143405761433f613e2e565b5b600061434e86828701613e81565b935050602061435f86828701613e81565b925050604061437086828701614164565b9150509250925092565b61438381613f7c565b811461438e57600080fd5b50565b6000813590506143a08161437a565b92915050565b6000806000606084860312156143bf576143be613e2e565b5b60006143cd86828701614164565b93505060206143de86828701614164565b92505060406143ef86828701614391565b9150509250925092565b60008060006060848603121561441257614411613e2e565b5b600061442086828701613e81565b935050602061443186828701614164565b925050604061444286828701614164565b9150509250925092565b600081519050919050565b600082825260208201905092915050565b6000819050602082019050919050565b600082825260208201905092915050565b600061449482614092565b61449e8185614478565b93506144ae8185602086016140ae565b6144b7816140e1565b840191505092915050565b6000819050919050565b6144d5816144c2565b82525050565b60006fffffffffffffffffffffffffffffffff82169050919050565b614500816144db565b82525050565b61450f81613e58565b82525050565b60006101008301600083015161452e6000860182613fde565b50602083015184820360208601526145468282614489565b915050604083015161455b60408601826144cc565b50606083015161456e60608601826144cc565b50608083015161458160808601826144f7565b5060a083015161459460a08601826144f7565b5060c08301516145a760c0860182614506565b5060e08301516145ba60e0860182613fde565b508091505092915050565b60006145d18383614515565b905092915050565b6000602082019050919050565b60006145f18261444c565b6145fb8185614457565b93508360208202850161460d85614468565b8060005b85811015614649578484038952815161462a85826145c5565b9450614635836145d9565b925060208a01995050600181019050614611565b50829750879550505050505092915050565b6000602082019050818103600083015261467581846145e6565b905092915050565b6000610100830160008301516146966000860182613fde565b50602083015184820360208601526146ae8282614489565b91505060408301516146c360408601826144cc565b5060608301516146d660608601826144cc565b5060808301516146e960808601826144f7565b5060a08301516146fc60a08601826144f7565b5060c083015161470f60c0860182614506565b5060e083015161472260e0860182613fde565b508091505092915050565b60006020820190508181036000830152614747818461467d565b905092915050565b6000806040838503121561476657614765613e2e565b5b600061477485828601613e81565b925050602061478585828601614391565b9150509250929050565b60008083601f8401126147a5576147a4614210565b5b8235905067ffffffffffffffff8111156147c2576147c1614215565b5b6020830191508360018202830111156147de576147dd61421a565b5b9250929050565b600080600080604085870312156147ff576147fe613e2e565b5b600085013567ffffffffffffffff81111561481d5761481c613e33565b5b6148298782880161478f565b9450945050602085013567ffffffffffffffff81111561484c5761484b613e33565b5b6148588782880161478f565b925092505092959194509250565b600080fd5b7f4e487b7100000000000000000000000000000000000000000000000000000000600052604160045260246000fd5b6148a3826140e1565b810181811067ffffffffffffffff821117156148c2576148c161486b565b5b80604052505050565b60006148d5613e24565b90506148e1828261489a565b919050565b600067ffffffffffffffff8211156149015761490061486b565b5b61490a826140e1565b9050602081019050919050565b82818337600083830152505050565b6000614939614934846148e6565b6148cb565b90508281526020810184848401111561495557614954614866565b5b614960848285614917565b509392505050565b600082601f83011261497d5761497c614210565b5b813561498d848260208601614926565b91505092915050565b600080600080608085870312156149b0576149af613e2e565b5b60006149be87828801613e81565b94505060206149cf87828801613e81565b93505060406149e087828801614164565b925050606085013567ffffffffffffffff811115614a0157614a00613e33565b5b614a0d87828801614968565b91505092959194509250565b60008060408385031215614a3057614a2f613e2e565b5b6000614a3e85828601614164565b9250506020614a4f85828601614164565b9150509250929050565b600080600060408486031215614a7257614a71613e2e565b5b6000614a8086828701614164565b935050602084013567ffffffffffffffff811115614aa157614aa0613e33565b5b614aad8682870161478f565b92509250509250925092565b60008060408385031215614ad057614acf613e2e565b5b6000614ade85828601613e81565b9250506020614aef85828601613e81565b9150509250929050565b614b0281613f7c565b82525050565b600060c083016000830151614b206000860182614506565b5060208301518482036020860152614b388282614489565b91505060408301518482036040860152614b528282614489565b9150506060830151614b676060860182613fde565b506080830151614b7a6080860182613fde565b5060a0830151614b8d60a0860182614af9565b508091505092915050565b60006020820190508181036000830152614bb28184614b08565b905092915050565b60008060008060608587031215614bd457614bd3613e2e565b5b6000614be287828801613e81565b9450506020614bf387828801614164565b935050604085013567ffffffffffffffff811115614c1457614c13613e33565b5b614c208782880161421f565b925092505092959194509250565b600067ffffffffffffffff821115614c4957614c4861486b565b5b602082029050602081019050919050565b600081519050614c698161414d565b92915050565b6000614c82614c7d84614c2e565b6148cb565b90508083825260208201905060208402830185811115614ca557614ca461421a565b5b835b81811015614cce5780614cba8882614c5a565b845260208401935050602081019050614ca7565b5050509392505050565b600082601f830112614ced57614cec614210565b5b8151614cfd848260208601614c6f565b91505092915050565b600060208284031215614d1c57614d1b613e2e565b5b600082015167ffffffffffffffff811115614d3a57614d39613e33565b5b614d4684828501614cd8565b91505092915050565b7f4e487b7100000000000000000000000000000000000000000000000000000000600052602260045260246000fd5b60006002820490506001821680614d9657607f821691505b60208210811415614daa57614da9614d4f565b5b50919050565b7f4552433732313a20617070726f76616c20746f2063757272656e74206f776e6560008201527f7200000000000000000000000000000000000000000000000000000000000000602082015250565b6000614e0c60218361409d565b9150614e1782614db0565b604082019050919050565b60006020820190508181036000830152614e3b81614dff565b9050919050565b7f4552433732313a20617070726f76652063616c6c6572206973206e6f7420746f60008201527f6b656e206f776e6572206f7220617070726f76656420666f7220616c6c000000602082015250565b6000614e9e603d8361409d565b9150614ea982614e42565b604082019050919050565b60006020820190508181036000830152614ecd81614e91565b9050919050565b600060208284031215614eea57614ee9613e2e565b5b6000614ef884828501614c5a565b91505092915050565b7f4552433732313a2063616c6c6572206973206e6f7420746f6b656e206f776e6560008201527f72206f7220617070726f76656400000000000000000000000000000000000000602082015250565b6000614f5d602d8361409d565b9150614f6882614f01565b604082019050919050565b60006020820190508181036000830152614f8c81614f50565b9050919050565b7f4e487b7100000000000000000000000000000000000000000000000000000000600052601160045260246000fd5b6000614fcd82613ec3565b9150614fd883613ec3565b925082821015614feb57614fea614f93565b5b828203905092915050565b600061500182613ec3565b915061500c83613ec3565b9250827fffffffffffffffffffffffffffffffffffffffffffffffffffffffffffffffff0382111561504157615040614f93565b5b828201905092915050565b7f4e487b7100000000000000000000000000000000000000000000000000000000600052603260045260246000fd5b600061508682613ec3565b91507fffffffffffffffffffffffffffffffffffffffffffffffffffffffffffffffff8214156150b9576150b8614f93565b5b600182019050919050565b7f4552433732313a20696e76616c696420746f6b656e2049440000000000000000600082015250565b60006150fa60188361409d565b9150615105826150c4565b602082019050919050565b60006020820190508181036000830152615129816150ed565b9050919050565b600081905092915050565b50565b600061514b600083615130565b91506151568261513b565b600082019050919050565b600061516c8261513e565b9150819050919050565b7f5641554c545f5452414e534645525f4641494c45440000000000000000000000600082015250565b60006151ac60158361409d565b91506151b782615176565b602082019050919050565b600060208201905081810360008301526151db8161519f565b9050919050565b7f4552433732313a2061646472657373207a65726f206973206e6f74206120766160008201527f6c6964206f776e65720000000000000000000000000000000000000000000000602082015250565b600061523e60298361409d565b9150615249826151e2565b604082019050919050565b6000602082019050818103600083015261526d81615231565b9050919050565b60008151905061528381613e6a565b92915050565b60006020828403121561529f5761529e613e2e565b5b60006152ad84828501615274565b91505092915050565b600067ffffffffffffffff8211156152d1576152d061486b565b5b6152da826140e1565b9050602081019050919050565b60006152fa6152f5846152b6565b6148cb565b90508281526020810184848401111561531657615315614866565b5b6153218482856140ae565b509392505050565b600082601f83011261533e5761533d614210565b5b815161534e8482602086016152e7565b91505092915050565b615360816144c2565b811461536b57600080fd5b50565b60008151905061537d81615357565b92915050565b61538c816144db565b811461539757600080fd5b50565b6000815190506153a981615383565b92915050565b600080600080600060a086880312156153cb576153ca613e2e565b5b600086015167ffffffffffffffff8111156153e9576153e8613e33565b5b6153f588828901615329565b95505060206154068882890161536e565b94505060406154178882890161536e565b93505060606154288882890161539a565b92505060806154398882890161539a565b9150509295509295909350565b600080fd5b600063ffffffff82169050919050565b6154648161544b565b811461546f57600080fd5b50565b6000815190506154818161545b565b92915050565b60006080828403121561549d5761549c615446565b5b6154a760806148cb565b905060006154b784828501615472565b60008301525060206154cb84828501615472565b60208301525060406154df84828501615274565b60408301525060606154f384828501615274565b60608301525092915050565b60006080828403121561551557615514613e2e565b5b600061552384828501615487565b91505092915050565b600081905092915050565b600061554282614092565b61554c818561552c565b935061555c8185602086016140ae565b80840191505092915050565b60006155748285615537565b91506155808284615537565b91508190509392505050565b7f544f4b454e5f4e4f545f57524150504544000000000000000000000000000000600082015250565b60006155c260118361409d565b91506155cd8261558c565b602082019050919050565b600060208201905081810360008301526155f1816155b5565b9050919050565b7f4e4f545f4f574e4552535f544f4b454e00000000000000000000000000000000600082015250565b600061562e60108361409d565b9150615639826155f8565b602082019050919050565b6000602082019050818103600083015261565d81615621565b9050919050565b7f544f4b454e5f53544f4c454e0000000000000000000000000000000000000000600082015250565b600061569a600c8361409d565b91506156a582615664565b602082019050919050565b600060208201905081810360008301526156c98161568d565b9050919050565b60006060820190506156e560008301866141a6565b6156f260208301856141a6565b6156ff6040830184613ecd565b949350505050565b600060408201905061571c6000830185613ecd565b61572960208301846141a6565b9392505050565b7f544f4b454e5f4e4f545f4f574e45520000000000000000000000000000000000600082015250565b6000615766600f8361409d565b915061577182615730565b602082019050919050565b6000602082019050818103600083015261579581615759565b9050919050565b7f4d41524b4554504c4143455f44495341424c4544000000000000000000000000600082015250565b60006157d260148361409d565b91506157dd8261579c565b602082019050919050565b60006020820190508181036000830152615801816157c5565b9050919050565b6000615814838561409d565b9350615821838584614917565b61582a836140e1565b840190509392505050565b600060408201905061584a6000830186613ecd565b818103602083015261585d818486615808565b9050949350505050565b7f544f4b454e5f4c494d49545f5245414348454400000000000000000000000000600082015250565b600061589d60138361409d565b91506158a882615867565b602082019050919050565b600060208201905081810360008301526158cc81615890565b9050919050565b7f544f4b454e5f414c52454144595f575241505045440000000000000000000000600082015250565b600061590960158361409d565b9150615914826158d3565b602082019050919050565b60006020820190508181036000830152615938816158fc565b9050919050565b60006040820190506159546000830185613ecd565b6159616020830184613ecd565b9392505050565b7f4f776e61626c653a206e6577206f776e657220697320746865207a65726f206160008201527f6464726573730000000000000000000000000000000000000000000000000000602082015250565b60006159c460268361409d565b91506159cf82615968565b604082019050919050565b600060208201905081810360008301526159f3816159b7565b9050919050565b7f4552433732313a207472616e736665722066726f6d20696e636f72726563742060008201527f6f776e6572000000000000000000000000000000000000000000000000000000602082015250565b6000615a5660258361409d565b9150615a61826159fa565b604082019050919050565b60006020820190508181036000830152615a8581615a49565b9050919050565b7f4552433732313a207472616e7366657220746f20746865207a65726f2061646460008201527f7265737300000000000000000000000000000000000000000000000000000000602082015250565b6000615ae860248361409d565b9150615af382615a8c565b604082019050919050565b60006020820190508181036000830152615b1781615adb565b9050919050565b7f4f776e61626c653a2063616c6c6572206973206e6f7420746865206f776e6572600082015250565b6000615b5460208361409d565b9150615b5f82615b1e565b602082019050919050565b60006020820190508181036000830152615b8381615b47565b9050919050565b7f4552433732313a20617070726f766520746f2063616c6c657200000000000000600082015250565b6000615bc060198361409d565b9150615bcb82615b8a565b602082019050919050565b60006020820190508181036000830152615bef81615bb3565b9050919050565b7f4552433732313a207472616e7366657220746f206e6f6e20455243373231526560008201527f63656976657220696d706c656d656e7465720000000000000000000000000000602082015250565b6000615c5260328361409d565b9150615c5d82615bf6565b604082019050919050565b60006020820190508181036000830152615c8181615c45565b9050919050565b7f4e487b7100000000000000000000000000000000000000000000000000000000600052601260045260246000fd5b6000615cc282613ec3565b9150615ccd83613ec3565b925082615cdd57615cdc615c88565b5b828204905092915050565b6000615cf382613ec3565b9150615cfe83613ec3565b925082615d0e57615d0d615c88565b5b828206905092915050565b600081519050919050565b600082825260208201905092915050565b6000615d4082615d19565b615d4a8185615d24565b9350615d5a8185602086016140ae565b615d63816140e1565b840191505092915050565b6000608082019050615d8360008301876141a6565b615d9060208301866141a6565b615d9d6040830185613ecd565b8181036060830152615daf8184615d35565b905095945050505050565b600081519050615dc981613f23565b92915050565b600060208284031215615de557615de4613e2e565b5b6000615df384828501615dba565b91505092915050565b7f4e487b7100000000000000000000000000000000000000000000000000000000600052603160045260246000fd5b7f4552433732313a206d696e7420746f20746865207a65726f2061646472657373600082015250565b6000615e6160208361409d565b9150615e6c82615e2b565b602082019050919050565b60006020820190508181036000830152615e9081615e54565b9050919050565b7f4552433732313a20746f6b656e20616c7265616479206d696e74656400000000600082015250565b6000615ecd601c8361409d565b9150615ed882615e97565b602082019050919050565b60006020820190508181036000830152615efc81615ec0565b905091905056fea26469706673582212208261440768da2436ce45b6bf6f982ac1736dc3d57a92cf817c01e3441c31ed5564736f6c63430008090033697066733a2f2f62616679626569657733747a696b686b6a6a637a6963796365793664676d6464656d6d72627033636c73773775357a6478676a736e3473733479692f636f6e74726163742e6a736f6e697066733a2f2f62616679626569657733747a696b686b6a6a637a6963796365793664676d6464656d6d72627033636c73773775357a6478676a736e3473733479692f",
  "linkReferences": {},
  "deployedLinkReferences": {}
}