{
  "_format": "hh-sol-artifact-1",
  "contractName": "IPCWrapper",
  "sourceName": "contracts/IPCWrapper.sol",
  "abi": [
    {
      "inputs": [],
      "stateMutability": "nonpayable",
      "type": "constructor"
    },
    {
      "anonymous": false,
      "inputs": [
        {
          "indexed": true,
          "internalType": "address",
          "name": "owner",
          "type": "address"
        },
        {
          "indexed": true,
          "internalType": "address",
          "name": "approved",
          "type": "address"
        },
        {
          "indexed": true,
          "internalType": "uint256",
          "name": "tokenId",
          "type": "uint256"
        }
      ],
      "name": "Approval",
      "type": "event"
    },
    {
      "anonymous": false,
      "inputs": [
        {
          "indexed": true,
          "internalType": "address",
          "name": "owner",
          "type": "address"
        },
        {
          "indexed": true,
          "internalType": "address",
          "name": "operator",
          "type": "address"
        },
        {
          "indexed": false,
          "internalType": "bool",
          "name": "approved",
          "type": "bool"
        }
      ],
      "name": "ApprovalForAll",
      "type": "event"
    },
    {
      "anonymous": false,
      "inputs": [
        {
          "indexed": true,
          "internalType": "address",
          "name": "previousOwner",
          "type": "address"
        },
        {
          "indexed": true,
          "internalType": "address",
          "name": "newOwner",
          "type": "address"
        }
      ],
      "name": "OwnershipTransferred",
      "type": "event"
    },
    {
      "anonymous": false,
      "inputs": [
        {
          "indexed": true,
          "internalType": "address",
          "name": "from",
          "type": "address"
        },
        {
          "indexed": true,
          "internalType": "address",
          "name": "to",
          "type": "address"
        },
        {
          "indexed": true,
          "internalType": "uint256",
          "name": "tokenId",
          "type": "uint256"
        }
      ],
      "name": "Transfer",
      "type": "event"
    },
    {
      "anonymous": false,
      "inputs": [
        {
          "indexed": false,
          "internalType": "uint256",
          "name": "tokenId",
          "type": "uint256"
        },
        {
          "indexed": false,
          "internalType": "address",
          "name": "owner",
          "type": "address"
        }
      ],
      "name": "Unwrapped",
      "type": "event"
    },
    {
      "anonymous": false,
      "inputs": [
        {
          "indexed": false,
          "internalType": "uint256",
          "name": "tokenId",
          "type": "uint256"
        },
        {
          "indexed": false,
          "internalType": "address",
          "name": "owner",
          "type": "address"
        }
      ],
      "name": "Wrapped",
      "type": "event"
    },
    {
      "anonymous": false,
      "inputs": [
        {
          "indexed": false,
          "internalType": "uint256",
          "name": "tokenId",
          "type": "uint256"
        },
        {
          "indexed": false,
          "internalType": "string",
          "name": "name",
          "type": "string"
        }
      ],
      "name": "nameChangeOK",
      "type": "event"
    },
    {
      "inputs": [
        {
          "internalType": "address",
          "name": "to",
          "type": "address"
        },
        {
          "internalType": "uint256",
          "name": "tokenId",
          "type": "uint256"
        }
      ],
      "name": "approve",
      "outputs": [],
      "stateMutability": "nonpayable",
      "type": "function"
    },
    {
      "inputs": [
        {
          "internalType": "address",
          "name": "owner",
          "type": "address"
        }
      ],
      "name": "balanceOf",
      "outputs": [
        {
          "internalType": "uint256",
          "name": "",
          "type": "uint256"
        }
      ],
      "stateMutability": "view",
      "type": "function"
    },
    {
      "inputs": [
        {
          "internalType": "uint256",
          "name": "tokenId",
          "type": "uint256"
        },
        {
          "internalType": "string",
          "name": "newName",
          "type": "string"
        }
      ],
      "name": "changeIpcName",
      "outputs": [],
      "stateMutability": "payable",
      "type": "function"
    },
    {
      "inputs": [],
      "name": "contractURI",
      "outputs": [
        {
          "internalType": "string",
          "name": "",
          "type": "string"
        }
      ],
      "stateMutability": "view",
      "type": "function"
    },
    {
      "inputs": [
        {
          "internalType": "uint256",
          "name": "tokenId",
          "type": "uint256"
        }
      ],
      "name": "getApproved",
      "outputs": [
        {
          "internalType": "address",
          "name": "",
          "type": "address"
        }
      ],
      "stateMutability": "view",
      "type": "function"
    },
    {
      "inputs": [
        {
          "internalType": "uint256",
          "name": "tokenId",
          "type": "uint256"
        }
      ],
      "name": "getIpc",
      "outputs": [
        {
          "components": [
            {
              "internalType": "uint256",
              "name": "tokenId",
              "type": "uint256"
            },
            {
              "internalType": "string",
              "name": "name",
              "type": "string"
            },
            {
              "internalType": "bytes32",
              "name": "attributeSeed",
              "type": "bytes32"
            },
            {
              "internalType": "bytes32",
              "name": "dna",
              "type": "bytes32"
            },
            {
              "internalType": "uint128",
              "name": "experience",
              "type": "uint128"
            },
            {
              "internalType": "uint128",
              "name": "timeOfBirth",
              "type": "uint128"
            },
            {
              "internalType": "address",
              "name": "owner",
              "type": "address"
            },
            {
              "internalType": "uint256",
              "name": "price",
              "type": "uint256"
            }
          ],
          "internalType": "struct IPCWrapper.t_raw_ipc",
          "name": "",
          "type": "tuple"
        }
      ],
      "stateMutability": "view",
      "type": "function"
    },
    {
      "inputs": [],
      "name": "getProperties",
      "outputs": [
        {
          "components": [
            {
              "internalType": "address",
              "name": "contractAdress",
              "type": "address"
            },
            {
              "internalType": "string",
              "name": "tokenURI",
              "type": "string"
            },
            {
              "internalType": "string",
              "name": "contractURI",
              "type": "string"
            },
            {
              "internalType": "uint256",
              "name": "maxPrice",
              "type": "uint256"
            },
            {
              "internalType": "uint256",
              "name": "tokenLimit",
              "type": "uint256"
            },
            {
              "internalType": "bool",
              "name": "marketPlaceEnabled",
              "type": "bool"
            }
          ],
          "internalType": "struct IPCWrapper.t_properties",
          "name": "",
          "type": "tuple"
        }
      ],
      "stateMutability": "view",
      "type": "function"
    },
    {
      "inputs": [
        {
          "internalType": "address",
          "name": "owner",
          "type": "address"
        },
        {
          "internalType": "uint256",
          "name": "startIndex",
          "type": "uint256"
        },
        {
          "internalType": "uint256",
          "name": "total",
          "type": "uint256"
        }
      ],
      "name": "getTokensOfOwner",
      "outputs": [
        {
          "components": [
            {
              "internalType": "uint256",
              "name": "tokenId",
              "type": "uint256"
            },
            {
              "internalType": "string",
              "name": "name",
              "type": "string"
            },
            {
              "internalType": "bytes32",
              "name": "attributeSeed",
              "type": "bytes32"
            },
            {
              "internalType": "bytes32",
              "name": "dna",
              "type": "bytes32"
            },
            {
              "internalType": "uint128",
              "name": "experience",
              "type": "uint128"
            },
            {
              "internalType": "uint128",
              "name": "timeOfBirth",
              "type": "uint128"
            },
            {
              "internalType": "address",
              "name": "owner",
              "type": "address"
            },
            {
              "internalType": "uint256",
              "name": "price",
              "type": "uint256"
            }
          ],
          "internalType": "struct IPCWrapper.t_raw_ipc[]",
          "name": "",
          "type": "tuple[]"
        }
      ],
      "stateMutability": "view",
      "type": "function"
    },
    {
      "inputs": [
        {
          "internalType": "address",
          "name": "owner",
          "type": "address"
        },
        {
          "internalType": "address",
          "name": "operator",
          "type": "address"
        }
      ],
      "name": "isApprovedForAll",
      "outputs": [
        {
          "internalType": "bool",
          "name": "",
          "type": "bool"
        }
      ],
      "stateMutability": "view",
      "type": "function"
    },
    {
      "inputs": [],
      "name": "name",
      "outputs": [
        {
          "internalType": "string",
          "name": "",
          "type": "string"
        }
      ],
      "stateMutability": "view",
      "type": "function"
    },
    {
      "inputs": [
        {
          "internalType": "address",
          "name": "",
          "type": "address"
        },
        {
          "internalType": "address",
          "name": "",
          "type": "address"
        },
        {
          "internalType": "uint256",
          "name": "",
          "type": "uint256"
        },
        {
          "internalType": "bytes",
          "name": "",
          "type": "bytes"
        }
      ],
      "name": "onERC721Received",
      "outputs": [
        {
          "internalType": "bytes4",
          "name": "",
          "type": "bytes4"
        }
      ],
      "stateMutability": "pure",
      "type": "function"
    },
    {
      "inputs": [
        {
          "internalType": "address",
          "name": "",
          "type": "address"
        },
        {
          "internalType": "uint256",
          "name": "",
          "type": "uint256"
        },
        {
          "internalType": "bytes",
          "name": "",
          "type": "bytes"
        }
      ],
      "name": "onERC721Received",
      "outputs": [
        {
          "internalType": "bytes4",
          "name": "",
          "type": "bytes4"
        }
      ],
      "stateMutability": "pure",
      "type": "function"
    },
    {
      "inputs": [],
      "name": "owner",
      "outputs": [
        {
          "internalType": "address",
          "name": "",
          "type": "address"
        }
      ],
      "stateMutability": "view",
      "type": "function"
    },
    {
      "inputs": [
        {
          "internalType": "uint256",
          "name": "tokenId",
          "type": "uint256"
        }
      ],
      "name": "ownerOf",
      "outputs": [
        {
          "internalType": "address",
          "name": "",
          "type": "address"
        }
      ],
      "stateMutability": "view",
      "type": "function"
    },
    {
      "inputs": [],
      "name": "renounceOwnership",
      "outputs": [],
      "stateMutability": "nonpayable",
      "type": "function"
    },
    {
      "inputs": [
        {
          "internalType": "address",
          "name": "from",
          "type": "address"
        },
        {
          "internalType": "address",
          "name": "to",
          "type": "address"
        },
        {
          "internalType": "uint256",
          "name": "tokenId",
          "type": "uint256"
        }
      ],
      "name": "safeTransferFrom",
      "outputs": [],
      "stateMutability": "nonpayable",
      "type": "function"
    },
    {
      "inputs": [
        {
          "internalType": "address",
          "name": "from",
          "type": "address"
        },
        {
          "internalType": "address",
          "name": "to",
          "type": "address"
        },
        {
          "internalType": "uint256",
          "name": "tokenId",
          "type": "uint256"
        },
        {
          "internalType": "bytes",
          "name": "data",
          "type": "bytes"
        }
      ],
      "name": "safeTransferFrom",
      "outputs": [],
      "stateMutability": "nonpayable",
      "type": "function"
    },
    {
      "inputs": [
        {
          "internalType": "address",
          "name": "operator",
          "type": "address"
        },
        {
          "internalType": "bool",
          "name": "approved",
          "type": "bool"
        }
      ],
      "name": "setApprovalForAll",
      "outputs": [],
      "stateMutability": "nonpayable",
      "type": "function"
    },
    {
      "inputs": [
        {
          "internalType": "address",
          "name": "_contractAddress",
          "type": "address"
        }
      ],
      "name": "setContractAddress",
      "outputs": [],
      "stateMutability": "nonpayable",
      "type": "function"
    },
    {
      "inputs": [
        {
          "internalType": "string",
          "name": "__tokenURI",
          "type": "string"
        },
        {
          "internalType": "string",
          "name": "__contractURI",
          "type": "string"
        }
      ],
      "name": "setMetaDataURIs",
      "outputs": [],
      "stateMutability": "nonpayable",
      "type": "function"
    },
    {
      "inputs": [
        {
          "internalType": "uint256",
          "name": "_maxPrice",
          "type": "uint256"
        },
        {
          "internalType": "uint256",
          "name": "_tokenLimit",
          "type": "uint256"
        },
        {
          "internalType": "bool",
          "name": "_marketPlaceEnabled",
          "type": "bool"
        }
      ],
      "name": "setTokenomics",
      "outputs": [],
      "stateMutability": "nonpayable",
      "type": "function"
    },
    {
      "inputs": [
        {
          "internalType": "bytes4",
          "name": "interfaceId",
          "type": "bytes4"
        }
      ],
      "name": "supportsInterface",
      "outputs": [
        {
          "internalType": "bool",
          "name": "",
          "type": "bool"
        }
      ],
      "stateMutability": "view",
      "type": "function"
    },
    {
      "inputs": [],
      "name": "symbol",
      "outputs": [
        {
          "internalType": "string",
          "name": "",
          "type": "string"
        }
      ],
      "stateMutability": "view",
      "type": "function"
    },
    {
      "inputs": [
        {
          "internalType": "uint256",
          "name": "tokenId",
          "type": "uint256"
        }
      ],
      "name": "tokenURI",
      "outputs": [
        {
          "internalType": "string",
          "name": "",
          "type": "string"
        }
      ],
      "stateMutability": "view",
      "type": "function"
    },
    {
      "inputs": [],
      "name": "totalSupply",
      "outputs": [
        {
          "internalType": "uint256",
          "name": "",
          "type": "uint256"
        }
      ],
      "stateMutability": "view",
      "type": "function"
    },
    {
      "inputs": [
        {
          "internalType": "address",
          "name": "from",
          "type": "address"
        },
        {
          "internalType": "address",
          "name": "to",
          "type": "address"
        },
        {
          "internalType": "uint256",
          "name": "tokenId",
          "type": "uint256"
        }
      ],
      "name": "transferFrom",
      "outputs": [],
      "stateMutability": "nonpayable",
      "type": "function"
    },
    {
      "inputs": [
        {
          "internalType": "address",
          "name": "newOwner",
          "type": "address"
        }
      ],
      "name": "transferOwnership",
      "outputs": [],
      "stateMutability": "nonpayable",
      "type": "function"
    },
    {
      "inputs": [
        {
          "internalType": "uint256",
          "name": "tokenId",
          "type": "uint256"
        }
      ],
      "name": "unwrap",
      "outputs": [],
      "stateMutability": "nonpayable",
      "type": "function"
    },
    {
      "inputs": [
        {
          "internalType": "address",
          "name": "owner",
          "type": "address"
        }
      ],
      "name": "uwBalanceOf",
      "outputs": [
        {
          "internalType": "uint256",
          "name": "",
          "type": "uint256"
        }
      ],
      "stateMutability": "view",
      "type": "function"
    },
    {
      "inputs": [
        {
          "internalType": "uint256",
          "name": "startIndex",
          "type": "uint256"
        },
        {
          "internalType": "uint256",
          "name": "total",
          "type": "uint256"
        }
      ],
      "name": "uwGetAllTokens",
      "outputs": [
        {
          "components": [
            {
              "internalType": "uint256",
              "name": "tokenId",
              "type": "uint256"
            },
            {
              "internalType": "string",
              "name": "name",
              "type": "string"
            },
            {
              "internalType": "bytes32",
              "name": "attributeSeed",
              "type": "bytes32"
            },
            {
              "internalType": "bytes32",
              "name": "dna",
              "type": "bytes32"
            },
            {
              "internalType": "uint128",
              "name": "experience",
              "type": "uint128"
            },
            {
              "internalType": "uint128",
              "name": "timeOfBirth",
              "type": "uint128"
            },
            {
              "internalType": "address",
              "name": "owner",
              "type": "address"
            },
            {
              "internalType": "uint256",
              "name": "price",
              "type": "uint256"
            }
          ],
          "internalType": "struct IPCWrapper.t_raw_ipc[]",
          "name": "",
          "type": "tuple[]"
        }
      ],
      "stateMutability": "view",
      "type": "function"
    },
    {
      "inputs": [
        {
          "internalType": "address",
          "name": "owner",
          "type": "address"
        }
      ],
      "name": "uwGetTokenIdsOfOwner",
      "outputs": [
        {
          "internalType": "uint256[]",
          "name": "",
          "type": "uint256[]"
        }
      ],
      "stateMutability": "view",
      "type": "function"
    },
    {
      "inputs": [
        {
          "internalType": "address",
          "name": "owner",
          "type": "address"
        },
        {
          "internalType": "uint256",
          "name": "startIndex",
          "type": "uint256"
        },
        {
          "internalType": "uint256",
          "name": "total",
          "type": "uint256"
        }
      ],
      "name": "uwGetTokensOfOwner",
      "outputs": [
        {
          "components": [
            {
              "internalType": "uint256",
              "name": "tokenId",
              "type": "uint256"
            },
            {
              "internalType": "string",
              "name": "name",
              "type": "string"
            },
            {
              "internalType": "bytes32",
              "name": "attributeSeed",
              "type": "bytes32"
            },
            {
              "internalType": "bytes32",
              "name": "dna",
              "type": "bytes32"
            },
            {
              "internalType": "uint128",
              "name": "experience",
              "type": "uint128"
            },
            {
              "internalType": "uint128",
              "name": "timeOfBirth",
              "type": "uint128"
            },
            {
              "internalType": "address",
              "name": "owner",
              "type": "address"
            },
            {
              "internalType": "uint256",
              "name": "price",
              "type": "uint256"
            }
          ],
          "internalType": "struct IPCWrapper.t_raw_ipc[]",
          "name": "",
          "type": "tuple[]"
        }
      ],
      "stateMutability": "view",
      "type": "function"
    },
    {
      "inputs": [
        {
          "internalType": "uint256",
          "name": "tokenId",
          "type": "uint256"
        }
      ],
      "name": "uwOwnerOf",
      "outputs": [
        {
          "internalType": "address",
          "name": "",
          "type": "address"
        }
      ],
      "stateMutability": "view",
      "type": "function"
    },
    {
      "inputs": [
        {
          "internalType": "address",
          "name": "owner",
          "type": "address"
        }
      ],
      "name": "wGetTokenIdsOfOwner",
      "outputs": [
        {
          "internalType": "uint256[]",
          "name": "",
          "type": "uint256[]"
        }
      ],
      "stateMutability": "view",
      "type": "function"
    },
    {
      "inputs": [
        {
          "internalType": "uint256",
          "name": "tokenId",
          "type": "uint256"
        }
      ],
      "name": "wOwnerOf",
      "outputs": [
        {
          "internalType": "address",
          "name": "",
          "type": "address"
        }
      ],
      "stateMutability": "view",
      "type": "function"
    },
    {
      "inputs": [],
      "name": "withdrawalVault",
      "outputs": [],
      "stateMutability": "nonpayable",
      "type": "function"
    },
    {
      "inputs": [
        {
          "internalType": "uint256",
          "name": "tokenId",
          "type": "uint256"
        }
      ],
      "name": "wrap",
      "outputs": [],
      "stateMutability": "nonpayable",
      "type": "function"
    }
  ],
  "bytecode": "0x60806040523480156200001157600080fd5b506040518060400160405280601d81526020017f496d6d6f7274616c20506c6179657220436861726163746572732076300000008152506040518060400160405280600581526020017f49504356300000000000000000000000000000000000000000000000000000008152506200009e62000092620001bf60201b60201c565b620001c760201b60201c565b8160019080519060200190620000b69291906200028b565b508060029080519060200190620000cf9291906200028b565b505050731b171c2e72f529377949a5b597e93dc14da586a7600960006101000a81548173ffffffffffffffffffffffffffffffffffffffff021916908373ffffffffffffffffffffffffffffffffffffffff16021790555060405180608001604052806043815260200162005feb6043913960079080519060200190620001589291906200028b565b5060405180608001604052806050815260200162005f9b60509139600890805190602001906200018a9291906200028b565b50620f4240600a819055506103e8600b819055506001600c60006101000a81548160ff021916908315150217905550620003a0565b600033905090565b60008060009054906101000a900473ffffffffffffffffffffffffffffffffffffffff169050816000806101000a81548173ffffffffffffffffffffffffffffffffffffffff021916908373ffffffffffffffffffffffffffffffffffffffff1602179055508173ffffffffffffffffffffffffffffffffffffffff168173ffffffffffffffffffffffffffffffffffffffff167f8be0079c531659141344cd1fd0a4f28419497f9722a3daafe3b4186f6b6457e060405160405180910390a35050565b82805462000299906200036a565b90600052602060002090601f016020900481019282620002bd576000855562000309565b82601f10620002d857805160ff191683800117855562000309565b8280016001018555821562000309579182015b8281111562000308578251825591602001919060010190620002eb565b5b5090506200031891906200031c565b5090565b5b80821115620003375760008160009055506001016200031d565b5090565b7f4e487b7100000000000000000000000000000000000000000000000000000000600052602260045260246000fd5b600060028204905060018216806200038357607f821691505b602082108114156200039a57620003996200033b565b5b50919050565b615beb80620003b06000396000f3fe60806040526004361061021a5760003560e01c80638da5cb5b11610123578063d764600d116100ab578063e985e9c51161006f578063e985e9c514610844578063ea598cb014610881578063ec0cfd0b146108aa578063f0b9e5ba146108d5578063f2fde38b146109125761021a565b8063d764600d1461075a578063de0e9a3e14610797578063dfb31a7c146107c0578063e44141a9146107dc578063e8a3d485146108195761021a565b8063a81464da116100f2578063a81464da14610651578063b4f01a021461067a578063b88d4fde146106b7578063c2619d13146106e0578063c87b56dd1461071d5761021a565b80638da5cb5b1461059557806395d89b41146105c05780639c474702146105eb578063a22cb465146106285761021a565b8063367213df116101a657806369d421481161017557806369d42148146104b057806370a08231146104c7578063715018a6146105045780637fff1e2f1461051b57806389edc438146105585761021a565b8063367213df146103f857806342842e0e14610421578063477bddaa1461044a5780636352211e146104735761021a565b8063081812fc116101ed578063081812fc14610301578063095ea7b31461033e578063150b7a021461036757806318160ddd146103a457806323b872dd146103cf5761021a565b8063013abd6c1461021f57806301ffc9a71461025c5780630280276a1461029957806306fdde03146102d6575b600080fd5b34801561022b57600080fd5b5061024660048036038101906102419190613bb4565b61093b565b6040516102539190613bfa565b60405180910390f35b34801561026857600080fd5b50610283600480360381019061027e9190613c6d565b6109fa565b6040516102909190613cb5565b60405180910390f35b3480156102a557600080fd5b506102c060048036038101906102bb9190613bb4565b610adc565b6040516102cd9190613d8e565b60405180910390f35b3480156102e257600080fd5b506102eb610b79565b6040516102f89190613e49565b60405180910390f35b34801561030d57600080fd5b5061032860048036038101906103239190613e97565b610c0b565b6040516103359190613ed3565b60405180910390f35b34801561034a57600080fd5b5061036560048036038101906103609190613eee565b610c51565b005b34801561037357600080fd5b5061038e60048036038101906103899190613f93565b610d69565b60405161039b919061402a565b60405180910390f35b3480156103b057600080fd5b506103b9610d7e565b6040516103c69190613bfa565b60405180910390f35b3480156103db57600080fd5b506103f660048036038101906103f19190614045565b610e25565b005b34801561040457600080fd5b5061041f600480360381019061041a91906140c4565b610e85565b005b34801561042d57600080fd5b5061044860048036038101906104439190614045565b610eba565b005b34801561045657600080fd5b50610471600480360381019061046c9190613bb4565b610eda565b005b34801561047f57600080fd5b5061049a60048036038101906104959190613e97565b610f26565b6040516104a79190613ed3565b60405180910390f35b3480156104bc57600080fd5b506104c5610fff565b005b3480156104d357600080fd5b506104ee60048036038101906104e99190613bb4565b6110b6565b6040516104fb9190613bfa565b60405180910390f35b34801561051057600080fd5b5061051961116e565b005b34801561052757600080fd5b50610542600480360381019061053d9190613e97565b611182565b60405161054f9190614264565b60405180910390f35b34801561056457600080fd5b5061057f600480360381019061057a9190614286565b61139a565b60405161058c919061444b565b60405180910390f35b3480156105a157600080fd5b506105aa61157f565b6040516105b79190613ed3565b60405180910390f35b3480156105cc57600080fd5b506105d56115a8565b6040516105e29190613e49565b60405180910390f35b3480156105f757600080fd5b50610612600480360381019061060d9190613bb4565b61163a565b60405161061f9190613d8e565b60405180910390f35b34801561063457600080fd5b5061064f600480360381019061064a919061446d565b6116f9565b005b34801561065d57600080fd5b5061067860048036038101906106739190614503565b61170f565b005b34801561068657600080fd5b506106a1600480360381019061069c9190613e97565b611741565b6040516106ae9190613ed3565b60405180910390f35b3480156106c357600080fd5b506106de60048036038101906106d991906146b4565b6117f5565b005b3480156106ec57600080fd5b5061070760048036038101906107029190614737565b611857565b604051610714919061444b565b60405180910390f35b34801561072957600080fd5b50610744600480360381019061073f9190613e97565b6119a1565b6040516107519190613e49565b60405180910390f35b34801561076657600080fd5b50610781600480360381019061077c9190614286565b611a09565b60405161078e919061444b565b60405180910390f35b3480156107a357600080fd5b506107be60048036038101906107b99190613e97565b611c10565b005b6107da60048036038101906107d59190614777565b611e23565b005b3480156107e857600080fd5b5061080360048036038101906107fe9190613e97565b611fc2565b6040516108109190613ed3565b60405180910390f35b34801561082557600080fd5b5061082e611fd4565b60405161083b9190613e49565b60405180910390f35b34801561085057600080fd5b5061086b600480360381019061086691906147d7565b612066565b6040516108789190613cb5565b60405180910390f35b34801561088d57600080fd5b506108a860048036038101906108a39190613e97565b6120fa565b005b3480156108b657600080fd5b506108bf612410565b6040516108cc91906148b6565b60405180910390f35b3480156108e157600080fd5b506108fc60048036038101906108f791906148d8565b6125b9565b604051610909919061402a565b60405180910390f35b34801561091e57600080fd5b5061093960048036038101906109349190613bb4565b6125e6565b005b600080600960009054906101000a900473ffffffffffffffffffffffffffffffffffffffff1673ffffffffffffffffffffffffffffffffffffffff16638462151c846040518263ffffffff1660e01b81526004016109999190613ed3565b60006040518083038186803b1580156109b157600080fd5b505afa1580156109c5573d6000803e3d6000fd5b505050506040513d6000823e3d601f19601f820116820180604052508101906109ee9190614a24565b90508051915050919050565b60007f80ac58cd000000000000000000000000000000000000000000000000000000007bffffffffffffffffffffffffffffffffffffffffffffffffffffffff1916827bffffffffffffffffffffffffffffffffffffffffffffffffffffffff19161480610ac557507f5b5e139f000000000000000000000000000000000000000000000000000000007bffffffffffffffffffffffffffffffffffffffffffffffffffffffff1916827bffffffffffffffffffffffffffffffffffffffffffffffffffffffff1916145b80610ad55750610ad48261266a565b5b9050919050565b60606000600d60008473ffffffffffffffffffffffffffffffffffffffff1673ffffffffffffffffffffffffffffffffffffffff168152602001908152602001600020805480602002602001604051908101604052809291908181526020018280548015610b6957602002820191906000526020600020905b815481526020019060010190808311610b55575b5050505050905080915050919050565b606060018054610b8890614a9c565b80601f0160208091040260200160405190810160405280929190818152602001828054610bb490614a9c565b8015610c015780601f10610bd657610100808354040283529160200191610c01565b820191906000526020600020905b815481529060010190602001808311610be457829003601f168201915b5050505050905090565b6000610c16826126d4565b6005600083815260200190815260200160002060009054906101000a900473ffffffffffffffffffffffffffffffffffffffff169050919050565b6000610c5c8261271f565b90508073ffffffffffffffffffffffffffffffffffffffff168373ffffffffffffffffffffffffffffffffffffffff161415610ccd576040517f08c379a0000000000000000000000000000000000000000000000000000000008152600401610cc490614b40565b60405180910390fd5b8073ffffffffffffffffffffffffffffffffffffffff16610cec6127d1565b73ffffffffffffffffffffffffffffffffffffffff161480610d1b5750610d1a81610d156127d1565b612066565b5b610d5a576040517f08c379a0000000000000000000000000000000000000000000000000000000008152600401610d5190614bd2565b60405180910390fd5b610d6483836127d9565b505050565b600063150b7a0260e01b905095945050505050565b6000600960009054906101000a900473ffffffffffffffffffffffffffffffffffffffff1673ffffffffffffffffffffffffffffffffffffffff166318160ddd6040518163ffffffff1660e01b815260040160206040518083038186803b158015610de857600080fd5b505afa158015610dfc573d6000803e3d6000fd5b505050506040513d601f19601f82011682018060405250810190610e209190614bf2565b905090565b610e36610e306127d1565b82612892565b610e75576040517f08c379a0000000000000000000000000000000000000000000000000000000008152600401610e6c90614c91565b60405180910390fd5b610e80838383612927565b505050565b610e8d612b8e565b82600a8190555081600b8190555080600c60006101000a81548160ff021916908315150217905550505050565b610ed5838383604051806020016040528060008152506117f5565b505050565b610ee2612b8e565b80600960006101000a81548173ffffffffffffffffffffffffffffffffffffffff021916908373ffffffffffffffffffffffffffffffffffffffff16021790555050565b6000801515610f3483612c0c565b15151415610fee57600960009054906101000a900473ffffffffffffffffffffffffffffffffffffffff1673ffffffffffffffffffffffffffffffffffffffff16636352211e836040518263ffffffff1660e01b8152600401610f979190613bfa565b60206040518083038186803b158015610faf57600080fd5b505afa158015610fc3573d6000803e3d6000fd5b505050506040513d601f19601f82011682018060405250810190610fe79190614cc6565b9050610ffa565b610ff78261271f565b90505b919050565b611007612b8e565b60003373ffffffffffffffffffffffffffffffffffffffff164760405161102d90614d24565b60006040518083038185875af1925050503d806000811461106a576040519150601f19603f3d011682016040523d82523d6000602084013e61106f565b606091505b50509050806110b3576040517f08c379a00000000000000000000000000000000000000000000000000000000081526004016110aa90614d85565b60405180910390fd5b50565b60008073ffffffffffffffffffffffffffffffffffffffff168273ffffffffffffffffffffffffffffffffffffffff161415611127576040517f08c379a000000000000000000000000000000000000000000000000000000000815260040161111e90614e17565b60405180910390fd5b600460008373ffffffffffffffffffffffffffffffffffffffff1673ffffffffffffffffffffffffffffffffffffffff168152602001908152602001600020549050919050565b611176612b8e565b6111806000612c78565b565b61118a6139cc565b6000806000806000600960009054906101000a900473ffffffffffffffffffffffffffffffffffffffff1673ffffffffffffffffffffffffffffffffffffffff16637fff1e2f886040518263ffffffff1660e01b81526004016111ed9190613bfa565b60006040518083038186803b15801561120557600080fd5b505afa158015611219573d6000803e3d6000fd5b505050506040513d6000823e3d601f19601f820116820180604052508101906112429190614f30565b945094509450945094506000600960009054906101000a900473ffffffffffffffffffffffffffffffffffffffff1673ffffffffffffffffffffffffffffffffffffffff166331ef7314896040518263ffffffff1660e01b81526004016112a99190613bfa565b60806040518083038186803b1580156112c157600080fd5b505afa1580156112d5573d6000803e3d6000fd5b505050506040513d601f19601f820116820180604052508101906112f99190615080565b9050600061130689610f26565b905060006040518061010001604052808b8152602001898152602001888152602001878152602001866fffffffffffffffffffffffffffffffff168152602001856fffffffffffffffffffffffffffffffff1681526020018373ffffffffffffffffffffffffffffffffffffffff168152602001846000015163ffffffff1681525090508098505050505050505050919050565b60606000600d60008673ffffffffffffffffffffffffffffffffffffffff1673ffffffffffffffffffffffffffffffffffffffff16815260200190815260200160002080548060200260200160405190810160405280929190818152602001828054801561142757602002820191906000526020600020905b815481526020019060010190808311611413575b505050505090506000815190508085111561144157600094505b600081111561147c5760008414806114635750848161146091906150dc565b84115b1561147757848161147491906150dc565b93505b611485565b60009050600193505b60008467ffffffffffffffff8111156114a1576114a0614589565b5b6040519080825280602002602001820160405280156114da57816020015b6114c76139cc565b8152602001906001900390816114bf5790505b50905060008214156114f157809350505050611578565b6000806114fc6139cc565b600092505b8783101561156e5785838a6115169190615110565b8151811061152757611526615166565b5b6020026020010151915061153a82611182565b9050808484815181106115505761154f615166565b5b6020026020010181905250828061156690615195565b935050611501565b8396505050505050505b9392505050565b60008060009054906101000a900473ffffffffffffffffffffffffffffffffffffffff16905090565b6060600280546115b790614a9c565b80601f01602080910402602001604051908101604052809291908181526020018280546115e390614a9c565b80156116305780601f1061160557610100808354040283529160200191611630565b820191906000526020600020905b81548152906001019060200180831161161357829003601f168201915b5050505050905090565b60606000600960009054906101000a900473ffffffffffffffffffffffffffffffffffffffff1673ffffffffffffffffffffffffffffffffffffffff16638462151c846040518263ffffffff1660e01b81526004016116999190613ed3565b60006040518083038186803b1580156116b157600080fd5b505afa1580156116c5573d6000803e3d6000fd5b505050506040513d6000823e3d601f19601f820116820180604052508101906116ee9190614a24565b905080915050919050565b61170b6117046127d1565b8383612d3c565b5050565b611717612b8e565b838360079190611728929190613a51565b5081816008919061173a929190613a51565b5050505050565b6000600960009054906101000a900473ffffffffffffffffffffffffffffffffffffffff1673ffffffffffffffffffffffffffffffffffffffff16636352211e836040518263ffffffff1660e01b815260040161179e9190613bfa565b60206040518083038186803b1580156117b657600080fd5b505afa1580156117ca573d6000803e3d6000fd5b505050506040513d601f19601f820116820180604052508101906117ee9190614cc6565b9050919050565b6118066118006127d1565b83612892565b611845576040517f08c379a000000000000000000000000000000000000000000000000000000000815260040161183c90614c91565b60405180910390fd5b61185184848484612ea9565b50505050565b60606000611863610d7e565b9050600084148061187357508084115b1561187d57600193505b60008111156118c45760008314806118ab57508360018261189e9190615110565b6118a891906150dc565b83115b156118bf5783816118bc91906150dc565b92505b6118cd565b60009050600192505b60008367ffffffffffffffff8111156118e9576118e8614589565b5b60405190808252806020026020018201604052801561192257816020015b61190f6139cc565b8152602001906001900390816119075790505b509050600082141561193857809250505061199b565b60005b8481101561199457600081876119519190615110565b9050600061195e82611182565b90508084848151811061197457611973615166565b5b60200260200101819052505050808061198c90615195565b91505061193b565b8193505050505b92915050565b60606119ac826126d4565b60006119b6612f05565b905060008151116119d65760405180602001604052806000815250611a01565b806119e084612f97565b6040516020016119f192919061521a565b6040516020818303038152906040525b915050919050565b60606000600960009054906101000a900473ffffffffffffffffffffffffffffffffffffffff1673ffffffffffffffffffffffffffffffffffffffff16638462151c866040518263ffffffff1660e01b8152600401611a689190613ed3565b60006040518083038186803b158015611a8057600080fd5b505afa158015611a94573d6000803e3d6000fd5b505050506040513d6000823e3d601f19601f82011682018060405250810190611abd9190614a24565b905060008151905080851115611ad257600094505b6000811115611b0d576000841480611af457508481611af191906150dc565b84115b15611b08578481611b0591906150dc565b93505b611b16565b60009050600193505b60008467ffffffffffffffff811115611b3257611b31614589565b5b604051908082528060200260200182016040528015611b6b57816020015b611b586139cc565b815260200190600190039081611b505790505b5090506000821415611b8257809350505050611c09565b600080611b8d6139cc565b600092505b87831015611bff5785838a611ba79190615110565b81518110611bb857611bb7615166565b5b60200260200101519150611bcb82611182565b905080848481518110611be157611be0615166565b5b60200260200101819052508280611bf790615195565b935050611b92565b8396505050505050505b9392505050565b60001515611c1d82612c0c565b15151415611c60576040517f08c379a0000000000000000000000000000000000000000000000000000000008152600401611c579061528a565b60405180910390fd5b6000611c6b82611741565b90503373ffffffffffffffffffffffffffffffffffffffff16611c8d83611fc2565b73ffffffffffffffffffffffffffffffffffffffff1614611d17573373ffffffffffffffffffffffffffffffffffffffff168173ffffffffffffffffffffffffffffffffffffffff1614611d16576040517f08c379a0000000000000000000000000000000000000000000000000000000008152600401611d0d906152f6565b60405180910390fd5b5b3073ffffffffffffffffffffffffffffffffffffffff168173ffffffffffffffffffffffffffffffffffffffff161415611ddd57600960009054906101000a900473ffffffffffffffffffffffffffffffffffffffff1673ffffffffffffffffffffffffffffffffffffffff166342842e0e3033856040518463ffffffff1660e01b8152600401611daa93929190615316565b600060405180830381600087803b158015611dc457600080fd5b505af1158015611dd8573d6000803e3d6000fd5b505050505b611de6826130f8565b7f1d27d1c62712f590d53fa9eb8bbf3a75d09503deae319bb9d99644339cb312e18233604051611e1792919061534d565b60405180910390a15050565b3373ffffffffffffffffffffffffffffffffffffffff16611e4384611fc2565b73ffffffffffffffffffffffffffffffffffffffff1614611e99576040517f08c379a0000000000000000000000000000000000000000000000000000000008152600401611e90906153c2565b60405180910390fd5b60001515600c60009054906101000a900460ff1615151415611ef0576040517f08c379a0000000000000000000000000000000000000000000000000000000008152600401611ee79061542e565b60405180910390fd5b600960009054906101000a900473ffffffffffffffffffffffffffffffffffffffff1673ffffffffffffffffffffffffffffffffffffffff1663dfb31a7c348585856040518563ffffffff1660e01b8152600401611f509392919061547b565b6000604051808303818588803b158015611f6957600080fd5b505af1158015611f7d573d6000803e3d6000fd5b50505050507f60319c6511f3c90c2a37bcd711c518923ef5dd5528be697b9b4a23a1aace6c9c838383604051611fb59392919061547b565b60405180910390a1505050565b6000611fcd8261271f565b9050919050565b606060088054611fe390614a9c565b80601f016020809104026020016040519081016040528092919081815260200182805461200f90614a9c565b801561205c5780601f106120315761010080835404028352916020019161205c565b820191906000526020600020905b81548152906001019060200180831161203f57829003601f168201915b5050505050905090565b6000600660008473ffffffffffffffffffffffffffffffffffffffff1673ffffffffffffffffffffffffffffffffffffffff16815260200190815260200160002060008373ffffffffffffffffffffffffffffffffffffffff1673ffffffffffffffffffffffffffffffffffffffff16815260200190815260200160002060009054906101000a900460ff16905092915050565b600b548111801561211757506000151561211382612c0c565b1515145b15612157576040517f08c379a000000000000000000000000000000000000000000000000000000000815260040161214e906154f9565b60405180910390fd5b61216081612c0c565b15612216573373ffffffffffffffffffffffffffffffffffffffff1661218582611fc2565b73ffffffffffffffffffffffffffffffffffffffff16146121db576040517f08c379a00000000000000000000000000000000000000000000000000000000081526004016121d2906152f6565b60405180910390fd5b6040517f08c379a000000000000000000000000000000000000000000000000000000000815260040161220d90615565565b60405180910390fd5b600061222182611741565b90503373ffffffffffffffffffffffffffffffffffffffff168173ffffffffffffffffffffffffffffffffffffffff1614612291576040517f08c379a0000000000000000000000000000000000000000000000000000000008152600401612288906152f6565b60405180910390fd5b600960009054906101000a900473ffffffffffffffffffffffffffffffffffffffff1673ffffffffffffffffffffffffffffffffffffffff166342842e0e3330856040518463ffffffff1660e01b81526004016122f093929190615316565b600060405180830381600087803b15801561230a57600080fd5b505af115801561231e573d6000803e3d6000fd5b50505050600c60009054906101000a900460ff16156123c957600960009054906101000a900473ffffffffffffffffffffffffffffffffffffffff1673ffffffffffffffffffffffffffffffffffffffff16633d4cfe2183600a546040518363ffffffff1660e01b8152600401612396929190615585565b600060405180830381600087803b1580156123b057600080fd5b505af11580156123c4573d6000803e3d6000fd5b505050505b6123d33383613215565b7f9c307a39a47fdf1a019642a4e8a585ffe9894b5018226029887fe6d4241611bb823360405161240492919061534d565b60405180910390a15050565b612418613ad7565b612420612b8e565b60006040518060c00160405280600960009054906101000a900473ffffffffffffffffffffffffffffffffffffffff1673ffffffffffffffffffffffffffffffffffffffff1681526020016007805461247890614a9c565b80601f01602080910402602001604051908101604052809291908181526020018280546124a490614a9c565b80156124f15780601f106124c6576101008083540402835291602001916124f1565b820191906000526020600020905b8154815290600101906020018083116124d457829003601f168201915b505050505081526020016008805461250890614a9c565b80601f016020809104026020016040519081016040528092919081815260200182805461253490614a9c565b80156125815780601f1061255657610100808354040283529160200191612581565b820191906000526020600020905b81548152906001019060200180831161256457829003601f168201915b50505050508152602001600a548152602001600b548152602001600c60009054906101000a900460ff16151581525090508091505090565b60007ff0b9e5baf647f945565b0ac04522b519449041bdd44f952626b9ead9ff3692419050949350505050565b6125ee612b8e565b600073ffffffffffffffffffffffffffffffffffffffff168173ffffffffffffffffffffffffffffffffffffffff16141561265e576040517f08c379a000000000000000000000000000000000000000000000000000000000815260040161265590615620565b60405180910390fd5b61266781612c78565b50565b60007f01ffc9a7000000000000000000000000000000000000000000000000000000007bffffffffffffffffffffffffffffffffffffffffffffffffffffffff1916827bffffffffffffffffffffffffffffffffffffffffffffffffffffffff1916149050919050565b6126dd81612c0c565b61271c576040517f08c379a00000000000000000000000000000000000000000000000000000000081526004016127139061568c565b60405180910390fd5b50565b6000806003600084815260200190815260200160002060009054906101000a900473ffffffffffffffffffffffffffffffffffffffff169050600073ffffffffffffffffffffffffffffffffffffffff168173ffffffffffffffffffffffffffffffffffffffff1614156127c8576040517f08c379a00000000000000000000000000000000000000000000000000000000081526004016127bf9061568c565b60405180910390fd5b80915050919050565b600033905090565b816005600083815260200190815260200160002060006101000a81548173ffffffffffffffffffffffffffffffffffffffff021916908373ffffffffffffffffffffffffffffffffffffffff160217905550808273ffffffffffffffffffffffffffffffffffffffff1661284c8361271f565b73ffffffffffffffffffffffffffffffffffffffff167f8c5be1e5ebec7d5bd14f71427d1e84f3dd0314c0f7b2291e5b200ac8c7c3b92560405160405180910390a45050565b60008061289e8361271f565b90508073ffffffffffffffffffffffffffffffffffffffff168473ffffffffffffffffffffffffffffffffffffffff1614806128e057506128df8185612066565b5b8061291e57508373ffffffffffffffffffffffffffffffffffffffff1661290684610c0b565b73ffffffffffffffffffffffffffffffffffffffff16145b91505092915050565b8273ffffffffffffffffffffffffffffffffffffffff166129478261271f565b73ffffffffffffffffffffffffffffffffffffffff161461299d576040517f08c379a00000000000000000000000000000000000000000000000000000000081526004016129949061571e565b60405180910390fd5b600073ffffffffffffffffffffffffffffffffffffffff168273ffffffffffffffffffffffffffffffffffffffff161415612a0d576040517f08c379a0000000000000000000000000000000000000000000000000000000008152600401612a04906157b0565b60405180910390fd5b612a18838383613233565b612a236000826127d9565b6001600460008573ffffffffffffffffffffffffffffffffffffffff1673ffffffffffffffffffffffffffffffffffffffff1681526020019081526020016000206000828254612a7391906150dc565b925050819055506001600460008473ffffffffffffffffffffffffffffffffffffffff1673ffffffffffffffffffffffffffffffffffffffff1681526020019081526020016000206000828254612aca9190615110565b92505081905550816003600083815260200190815260200160002060006101000a81548173ffffffffffffffffffffffffffffffffffffffff021916908373ffffffffffffffffffffffffffffffffffffffff160217905550808273ffffffffffffffffffffffffffffffffffffffff168473ffffffffffffffffffffffffffffffffffffffff167fddf252ad1be2c89b69c2b068fc378daa952ba7f163c4a11628f55a4df523b3ef60405160405180910390a4612b89838383613238565b505050565b612b966127d1565b73ffffffffffffffffffffffffffffffffffffffff16612bb461157f565b73ffffffffffffffffffffffffffffffffffffffff1614612c0a576040517f08c379a0000000000000000000000000000000000000000000000000000000008152600401612c019061581c565b60405180910390fd5b565b60008073ffffffffffffffffffffffffffffffffffffffff166003600084815260200190815260200160002060009054906101000a900473ffffffffffffffffffffffffffffffffffffffff1673ffffffffffffffffffffffffffffffffffffffff1614159050919050565b60008060009054906101000a900473ffffffffffffffffffffffffffffffffffffffff169050816000806101000a81548173ffffffffffffffffffffffffffffffffffffffff021916908373ffffffffffffffffffffffffffffffffffffffff1602179055508173ffffffffffffffffffffffffffffffffffffffff168173ffffffffffffffffffffffffffffffffffffffff167f8be0079c531659141344cd1fd0a4f28419497f9722a3daafe3b4186f6b6457e060405160405180910390a35050565b8173ffffffffffffffffffffffffffffffffffffffff168373ffffffffffffffffffffffffffffffffffffffff161415612dab576040517f08c379a0000000000000000000000000000000000000000000000000000000008152600401612da290615888565b60405180910390fd5b80600660008573ffffffffffffffffffffffffffffffffffffffff1673ffffffffffffffffffffffffffffffffffffffff16815260200190815260200160002060008473ffffffffffffffffffffffffffffffffffffffff1673ffffffffffffffffffffffffffffffffffffffff16815260200190815260200160002060006101000a81548160ff0219169083151502179055508173ffffffffffffffffffffffffffffffffffffffff168373ffffffffffffffffffffffffffffffffffffffff167f17307eab39ab6107e8899845ad3d59bd9653f200f220920489ca2b5937696c3183604051612e9c9190613cb5565b60405180910390a3505050565b612eb4848484612927565b612ec08484848461332e565b612eff576040517f08c379a0000000000000000000000000000000000000000000000000000000008152600401612ef69061591a565b60405180910390fd5b50505050565b606060078054612f1490614a9c565b80601f0160208091040260200160405190810160405280929190818152602001828054612f4090614a9c565b8015612f8d5780601f10612f6257610100808354040283529160200191612f8d565b820191906000526020600020905b815481529060010190602001808311612f7057829003601f168201915b5050505050905090565b60606000821415612fdf576040518060400160405280600181526020017f300000000000000000000000000000000000000000000000000000000000000081525090506130f3565b600082905060005b60008214613011578080612ffa90615195565b915050600a8261300a9190615969565b9150612fe7565b60008167ffffffffffffffff81111561302d5761302c614589565b5b6040519080825280601f01601f19166020018201604052801561305f5781602001600182028036833780820191505090505b5090505b600085146130ec5760018261307891906150dc565b9150600a85613087919061599a565b60306130939190615110565b60f81b8183815181106130a9576130a8615166565b5b60200101907effffffffffffffffffffffffffffffffffffffffffffffffffffffffffffff1916908160001a905350600a856130e59190615969565b9450613063565b8093505050505b919050565b60006131038261271f565b905061311181600084613233565b61311c6000836127d9565b6001600460008373ffffffffffffffffffffffffffffffffffffffff1673ffffffffffffffffffffffffffffffffffffffff168152602001908152602001600020600082825461316c91906150dc565b925050819055506003600083815260200190815260200160002060006101000a81549073ffffffffffffffffffffffffffffffffffffffff021916905581600073ffffffffffffffffffffffffffffffffffffffff168273ffffffffffffffffffffffffffffffffffffffff167fddf252ad1be2c89b69c2b068fc378daa952ba7f163c4a11628f55a4df523b3ef60405160405180910390a461321181600084613238565b5050565b61322f8282604051806020016040528060008152506134c5565b5050565b505050565b600073ffffffffffffffffffffffffffffffffffffffff168373ffffffffffffffffffffffffffffffffffffffff1614156132d857600d60008373ffffffffffffffffffffffffffffffffffffffff1673ffffffffffffffffffffffffffffffffffffffff168152602001908152602001600020819080600181540180825580915050600190039060005260206000200160009091909190915055613329565b600073ffffffffffffffffffffffffffffffffffffffff168273ffffffffffffffffffffffffffffffffffffffff16141561331c576133178382613520565b613328565b61332783838361371f565b5b5b505050565b600061334f8473ffffffffffffffffffffffffffffffffffffffff166137cf565b156134b8578373ffffffffffffffffffffffffffffffffffffffff1663150b7a026133786127d1565b8786866040518563ffffffff1660e01b815260040161339a9493929190615a20565b602060405180830381600087803b1580156133b457600080fd5b505af19250505080156133e557506040513d601f19601f820116820180604052508101906133e29190615a81565b60015b613468573d8060008114613415576040519150601f19603f3d011682016040523d82523d6000602084013e61341a565b606091505b50600081511415613460576040517f08c379a00000000000000000000000000000000000000000000000000000000081526004016134579061591a565b60405180910390fd5b805181602001fd5b63150b7a0260e01b7bffffffffffffffffffffffffffffffffffffffffffffffffffffffff1916817bffffffffffffffffffffffffffffffffffffffffffffffffffffffff1916149150506134bd565b600190505b949350505050565b6134cf83836137f2565b6134dc600084848461332e565b61351b576040517f08c379a00000000000000000000000000000000000000000000000000000000081526004016135129061591a565b60405180910390fd5b505050565b6000600d60008473ffffffffffffffffffffffffffffffffffffffff1673ffffffffffffffffffffffffffffffffffffffff16815260200190815260200160002080549050905060005b818110156137195782600d60008673ffffffffffffffffffffffffffffffffffffffff1673ffffffffffffffffffffffffffffffffffffffff16815260200190815260200160002082815481106135c4576135c3615166565b5b9060005260206000200154141561370657600d60008573ffffffffffffffffffffffffffffffffffffffff1673ffffffffffffffffffffffffffffffffffffffff16815260200190815260200160002060018361362191906150dc565b8154811061363257613631615166565b5b9060005260206000200154600d60008673ffffffffffffffffffffffffffffffffffffffff1673ffffffffffffffffffffffffffffffffffffffff168152602001908152602001600020828154811061368e5761368d615166565b5b9060005260206000200181905550600d60008573ffffffffffffffffffffffffffffffffffffffff1673ffffffffffffffffffffffffffffffffffffffff1681526020019081526020016000208054806136eb576136ea615aae565b5b60019003818190600052602060002001600090559055613719565b808061371190615195565b91505061356a565b50505050565b600073ffffffffffffffffffffffffffffffffffffffff168373ffffffffffffffffffffffffffffffffffffffff161415613759576137ca565b6137638382613520565b600d60008373ffffffffffffffffffffffffffffffffffffffff1673ffffffffffffffffffffffffffffffffffffffff1681526020019081526020016000208190806001815401808255809150506001900390600052602060002001600090919091909150555b505050565b6000808273ffffffffffffffffffffffffffffffffffffffff163b119050919050565b600073ffffffffffffffffffffffffffffffffffffffff168273ffffffffffffffffffffffffffffffffffffffff161415613862576040517f08c379a000000000000000000000000000000000000000000000000000000000815260040161385990615b29565b60405180910390fd5b61386b81612c0c565b156138ab576040517f08c379a00000000000000000000000000000000000000000000000000000000081526004016138a290615b95565b60405180910390fd5b6138b760008383613233565b6001600460008473ffffffffffffffffffffffffffffffffffffffff1673ffffffffffffffffffffffffffffffffffffffff16815260200190815260200160002060008282546139079190615110565b92505081905550816003600083815260200190815260200160002060006101000a81548173ffffffffffffffffffffffffffffffffffffffff021916908373ffffffffffffffffffffffffffffffffffffffff160217905550808273ffffffffffffffffffffffffffffffffffffffff16600073ffffffffffffffffffffffffffffffffffffffff167fddf252ad1be2c89b69c2b068fc378daa952ba7f163c4a11628f55a4df523b3ef60405160405180910390a46139c860008383613238565b5050565b6040518061010001604052806000815260200160608152602001600080191681526020016000801916815260200160006fffffffffffffffffffffffffffffffff16815260200160006fffffffffffffffffffffffffffffffff168152602001600073ffffffffffffffffffffffffffffffffffffffff168152602001600081525090565b828054613a5d90614a9c565b90600052602060002090601f016020900481019282613a7f5760008555613ac6565b82601f10613a9857803560ff1916838001178555613ac6565b82800160010185558215613ac6579182015b82811115613ac5578235825591602001919060010190613aaa565b5b509050613ad39190613b25565b5090565b6040518060c00160405280600073ffffffffffffffffffffffffffffffffffffffff168152602001606081526020016060815260200160008152602001600081526020016000151581525090565b5b80821115613b3e576000816000905550600101613b26565b5090565b6000604051905090565b600080fd5b600080fd5b600073ffffffffffffffffffffffffffffffffffffffff82169050919050565b6000613b8182613b56565b9050919050565b613b9181613b76565b8114613b9c57600080fd5b50565b600081359050613bae81613b88565b92915050565b600060208284031215613bca57613bc9613b4c565b5b6000613bd884828501613b9f565b91505092915050565b6000819050919050565b613bf481613be1565b82525050565b6000602082019050613c0f6000830184613beb565b92915050565b60007fffffffff0000000000000000000000000000000000000000000000000000000082169050919050565b613c4a81613c15565b8114613c5557600080fd5b50565b600081359050613c6781613c41565b92915050565b600060208284031215613c8357613c82613b4c565b5b6000613c9184828501613c58565b91505092915050565b60008115159050919050565b613caf81613c9a565b82525050565b6000602082019050613cca6000830184613ca6565b92915050565b600081519050919050565b600082825260208201905092915050565b6000819050602082019050919050565b613d0581613be1565b82525050565b6000613d178383613cfc565b60208301905092915050565b6000602082019050919050565b6000613d3b82613cd0565b613d458185613cdb565b9350613d5083613cec565b8060005b83811015613d81578151613d688882613d0b565b9750613d7383613d23565b925050600181019050613d54565b5085935050505092915050565b60006020820190508181036000830152613da88184613d30565b905092915050565b600081519050919050565b600082825260208201905092915050565b60005b83811015613dea578082015181840152602081019050613dcf565b83811115613df9576000848401525b50505050565b6000601f19601f8301169050919050565b6000613e1b82613db0565b613e258185613dbb565b9350613e35818560208601613dcc565b613e3e81613dff565b840191505092915050565b60006020820190508181036000830152613e638184613e10565b905092915050565b613e7481613be1565b8114613e7f57600080fd5b50565b600081359050613e9181613e6b565b92915050565b600060208284031215613ead57613eac613b4c565b5b6000613ebb84828501613e82565b91505092915050565b613ecd81613b76565b82525050565b6000602082019050613ee86000830184613ec4565b92915050565b60008060408385031215613f0557613f04613b4c565b5b6000613f1385828601613b9f565b9250506020613f2485828601613e82565b9150509250929050565b600080fd5b600080fd5b600080fd5b60008083601f840112613f5357613f52613f2e565b5b8235905067ffffffffffffffff811115613f7057613f6f613f33565b5b602083019150836001820283011115613f8c57613f8b613f38565b5b9250929050565b600080600080600060808688031215613faf57613fae613b4c565b5b6000613fbd88828901613b9f565b9550506020613fce88828901613b9f565b9450506040613fdf88828901613e82565b935050606086013567ffffffffffffffff81111561400057613fff613b51565b5b61400c88828901613f3d565b92509250509295509295909350565b61402481613c15565b82525050565b600060208201905061403f600083018461401b565b92915050565b60008060006060848603121561405e5761405d613b4c565b5b600061406c86828701613b9f565b935050602061407d86828701613b9f565b925050604061408e86828701613e82565b9150509250925092565b6140a181613c9a565b81146140ac57600080fd5b50565b6000813590506140be81614098565b92915050565b6000806000606084860312156140dd576140dc613b4c565b5b60006140eb86828701613e82565b93505060206140fc86828701613e82565b925050604061410d868287016140af565b9150509250925092565b600082825260208201905092915050565b600061413382613db0565b61413d8185614117565b935061414d818560208601613dcc565b61415681613dff565b840191505092915050565b6000819050919050565b61417481614161565b82525050565b60006fffffffffffffffffffffffffffffffff82169050919050565b61419f8161417a565b82525050565b6141ae81613b76565b82525050565b6000610100830160008301516141cd6000860182613cfc565b50602083015184820360208601526141e58282614128565b91505060408301516141fa604086018261416b565b50606083015161420d606086018261416b565b5060808301516142206080860182614196565b5060a083015161423360a0860182614196565b5060c083015161424660c08601826141a5565b5060e083015161425960e0860182613cfc565b508091505092915050565b6000602082019050818103600083015261427e81846141b4565b905092915050565b60008060006060848603121561429f5761429e613b4c565b5b60006142ad86828701613b9f565b93505060206142be86828701613e82565b92505060406142cf86828701613e82565b9150509250925092565b600081519050919050565b600082825260208201905092915050565b6000819050602082019050919050565b60006101008301600083015161431e6000860182613cfc565b50602083015184820360208601526143368282614128565b915050604083015161434b604086018261416b565b50606083015161435e606086018261416b565b5060808301516143716080860182614196565b5060a083015161438460a0860182614196565b5060c083015161439760c08601826141a5565b5060e08301516143aa60e0860182613cfc565b508091505092915050565b60006143c18383614305565b905092915050565b6000602082019050919050565b60006143e1826142d9565b6143eb81856142e4565b9350836020820285016143fd856142f5565b8060005b85811015614439578484038952815161441a85826143b5565b9450614425836143c9565b925060208a01995050600181019050614401565b50829750879550505050505092915050565b6000602082019050818103600083015261446581846143d6565b905092915050565b6000806040838503121561448457614483613b4c565b5b600061449285828601613b9f565b92505060206144a3858286016140af565b9150509250929050565b60008083601f8401126144c3576144c2613f2e565b5b8235905067ffffffffffffffff8111156144e0576144df613f33565b5b6020830191508360018202830111156144fc576144fb613f38565b5b9250929050565b6000806000806040858703121561451d5761451c613b4c565b5b600085013567ffffffffffffffff81111561453b5761453a613b51565b5b614547878288016144ad565b9450945050602085013567ffffffffffffffff81111561456a57614569613b51565b5b614576878288016144ad565b925092505092959194509250565b600080fd5b7f4e487b7100000000000000000000000000000000000000000000000000000000600052604160045260246000fd5b6145c182613dff565b810181811067ffffffffffffffff821117156145e0576145df614589565b5b80604052505050565b60006145f3613b42565b90506145ff82826145b8565b919050565b600067ffffffffffffffff82111561461f5761461e614589565b5b61462882613dff565b9050602081019050919050565b82818337600083830152505050565b600061465761465284614604565b6145e9565b90508281526020810184848401111561467357614672614584565b5b61467e848285614635565b509392505050565b600082601f83011261469b5761469a613f2e565b5b81356146ab848260208601614644565b91505092915050565b600080600080608085870312156146ce576146cd613b4c565b5b60006146dc87828801613b9f565b94505060206146ed87828801613b9f565b93505060406146fe87828801613e82565b925050606085013567ffffffffffffffff81111561471f5761471e613b51565b5b61472b87828801614686565b91505092959194509250565b6000806040838503121561474e5761474d613b4c565b5b600061475c85828601613e82565b925050602061476d85828601613e82565b9150509250929050565b6000806000604084860312156147905761478f613b4c565b5b600061479e86828701613e82565b935050602084013567ffffffffffffffff8111156147bf576147be613b51565b5b6147cb868287016144ad565b92509250509250925092565b600080604083850312156147ee576147ed613b4c565b5b60006147fc85828601613b9f565b925050602061480d85828601613b9f565b9150509250929050565b61482081613c9a565b82525050565b600060c08301600083015161483e60008601826141a5565b50602083015184820360208601526148568282614128565b915050604083015184820360408601526148708282614128565b91505060608301516148856060860182613cfc565b5060808301516148986080860182613cfc565b5060a08301516148ab60a0860182614817565b508091505092915050565b600060208201905081810360008301526148d08184614826565b905092915050565b600080600080606085870312156148f2576148f1613b4c565b5b600061490087828801613b9f565b945050602061491187828801613e82565b935050604085013567ffffffffffffffff81111561493257614931613b51565b5b61493e87828801613f3d565b925092505092959194509250565b600067ffffffffffffffff82111561496757614966614589565b5b602082029050602081019050919050565b60008151905061498781613e6b565b92915050565b60006149a061499b8461494c565b6145e9565b905080838252602082019050602084028301858111156149c3576149c2613f38565b5b835b818110156149ec57806149d88882614978565b8452602084019350506020810190506149c5565b5050509392505050565b600082601f830112614a0b57614a0a613f2e565b5b8151614a1b84826020860161498d565b91505092915050565b600060208284031215614a3a57614a39613b4c565b5b600082015167ffffffffffffffff811115614a5857614a57613b51565b5b614a64848285016149f6565b91505092915050565b7f4e487b7100000000000000000000000000000000000000000000000000000000600052602260045260246000fd5b60006002820490506001821680614ab457607f821691505b60208210811415614ac857614ac7614a6d565b5b50919050565b7f4552433732313a20617070726f76616c20746f2063757272656e74206f776e6560008201527f7200000000000000000000000000000000000000000000000000000000000000602082015250565b6000614b2a602183613dbb565b9150614b3582614ace565b604082019050919050565b60006020820190508181036000830152614b5981614b1d565b9050919050565b7f4552433732313a20617070726f76652063616c6c6572206973206e6f7420746f60008201527f6b656e206f776e6572206e6f7220617070726f76656420666f7220616c6c0000602082015250565b6000614bbc603e83613dbb565b9150614bc782614b60565b604082019050919050565b60006020820190508181036000830152614beb81614baf565b9050919050565b600060208284031215614c0857614c07613b4c565b5b6000614c1684828501614978565b91505092915050565b7f4552433732313a2063616c6c6572206973206e6f7420746f6b656e206f776e6560008201527f72206e6f7220617070726f766564000000000000000000000000000000000000602082015250565b6000614c7b602e83613dbb565b9150614c8682614c1f565b604082019050919050565b60006020820190508181036000830152614caa81614c6e565b9050919050565b600081519050614cc081613b88565b92915050565b600060208284031215614cdc57614cdb613b4c565b5b6000614cea84828501614cb1565b91505092915050565b600081905092915050565b50565b6000614d0e600083614cf3565b9150614d1982614cfe565b600082019050919050565b6000614d2f82614d01565b9150819050919050565b7f5641554c545f5452414e534645525f4641494c45440000000000000000000000600082015250565b6000614d6f601583613dbb565b9150614d7a82614d39565b602082019050919050565b60006020820190508181036000830152614d9e81614d62565b9050919050565b7f4552433732313a2061646472657373207a65726f206973206e6f74206120766160008201527f6c6964206f776e65720000000000000000000000000000000000000000000000602082015250565b6000614e01602983613dbb565b9150614e0c82614da5565b604082019050919050565b60006020820190508181036000830152614e3081614df4565b9050919050565b600067ffffffffffffffff821115614e5257614e51614589565b5b614e5b82613dff565b9050602081019050919050565b6000614e7b614e7684614e37565b6145e9565b905082815260208101848484011115614e9757614e96614584565b5b614ea2848285613dcc565b509392505050565b600082601f830112614ebf57614ebe613f2e565b5b8151614ecf848260208601614e68565b91505092915050565b614ee181614161565b8114614eec57600080fd5b50565b600081519050614efe81614ed8565b92915050565b614f0d8161417a565b8114614f1857600080fd5b50565b600081519050614f2a81614f04565b92915050565b600080600080600060a08688031215614f4c57614f4b613b4c565b5b600086015167ffffffffffffffff811115614f6a57614f69613b51565b5b614f7688828901614eaa565b9550506020614f8788828901614eef565b9450506040614f9888828901614eef565b9350506060614fa988828901614f1b565b9250506080614fba88828901614f1b565b9150509295509295909350565b600080fd5b600063ffffffff82169050919050565b614fe581614fcc565b8114614ff057600080fd5b50565b60008151905061500281614fdc565b92915050565b60006080828403121561501e5761501d614fc7565b5b61502860806145e9565b9050600061503884828501614ff3565b600083015250602061504c84828501614ff3565b602083015250604061506084828501614cb1565b604083015250606061507484828501614cb1565b60608301525092915050565b60006080828403121561509657615095613b4c565b5b60006150a484828501615008565b91505092915050565b7f4e487b7100000000000000000000000000000000000000000000000000000000600052601160045260246000fd5b60006150e782613be1565b91506150f283613be1565b925082821015615105576151046150ad565b5b828203905092915050565b600061511b82613be1565b915061512683613be1565b9250827fffffffffffffffffffffffffffffffffffffffffffffffffffffffffffffffff0382111561515b5761515a6150ad565b5b828201905092915050565b7f4e487b7100000000000000000000000000000000000000000000000000000000600052603260045260246000fd5b60006151a082613be1565b91507fffffffffffffffffffffffffffffffffffffffffffffffffffffffffffffffff8214156151d3576151d26150ad565b5b600182019050919050565b600081905092915050565b60006151f482613db0565b6151fe81856151de565b935061520e818560208601613dcc565b80840191505092915050565b600061522682856151e9565b915061523282846151e9565b91508190509392505050565b7f544f4b454e5f4e4f545f57524150504544000000000000000000000000000000600082015250565b6000615274601183613dbb565b915061527f8261523e565b602082019050919050565b600060208201905081810360008301526152a381615267565b9050919050565b7f4e4f545f4f574e4552535f544f4b454e00000000000000000000000000000000600082015250565b60006152e0601083613dbb565b91506152eb826152aa565b602082019050919050565b6000602082019050818103600083015261530f816152d3565b9050919050565b600060608201905061532b6000830186613ec4565b6153386020830185613ec4565b6153456040830184613beb565b949350505050565b60006040820190506153626000830185613beb565b61536f6020830184613ec4565b9392505050565b7f544f4b454e5f4e4f545f4f574e45520000000000000000000000000000000000600082015250565b60006153ac600f83613dbb565b91506153b782615376565b602082019050919050565b600060208201905081810360008301526153db8161539f565b9050919050565b7f4d41524b4554504c4143455f44495341424c4544000000000000000000000000600082015250565b6000615418601483613dbb565b9150615423826153e2565b602082019050919050565b600060208201905081810360008301526154478161540b565b9050919050565b600061545a8385613dbb565b9350615467838584614635565b61547083613dff565b840190509392505050565b60006040820190506154906000830186613beb565b81810360208301526154a381848661544e565b9050949350505050565b7f544f4b454e5f4c494d49545f5245414348454400000000000000000000000000600082015250565b60006154e3601383613dbb565b91506154ee826154ad565b602082019050919050565b60006020820190508181036000830152615512816154d6565b9050919050565b7f544f4b454e5f414c52454144595f575241505045440000000000000000000000600082015250565b600061554f601583613dbb565b915061555a82615519565b602082019050919050565b6000602082019050818103600083015261557e81615542565b9050919050565b600060408201905061559a6000830185613beb565b6155a76020830184613beb565b9392505050565b7f4f776e61626c653a206e6577206f776e657220697320746865207a65726f206160008201527f6464726573730000000000000000000000000000000000000000000000000000602082015250565b600061560a602683613dbb565b9150615615826155ae565b604082019050919050565b60006020820190508181036000830152615639816155fd565b9050919050565b7f4552433732313a20696e76616c696420746f6b656e2049440000000000000000600082015250565b6000615676601883613dbb565b915061568182615640565b602082019050919050565b600060208201905081810360008301526156a581615669565b9050919050565b7f4552433732313a207472616e736665722066726f6d20696e636f72726563742060008201527f6f776e6572000000000000000000000000000000000000000000000000000000602082015250565b6000615708602583613dbb565b9150615713826156ac565b604082019050919050565b60006020820190508181036000830152615737816156fb565b9050919050565b7f4552433732313a207472616e7366657220746f20746865207a65726f2061646460008201527f7265737300000000000000000000000000000000000000000000000000000000602082015250565b600061579a602483613dbb565b91506157a58261573e565b604082019050919050565b600060208201905081810360008301526157c98161578d565b9050919050565b7f4f776e61626c653a2063616c6c6572206973206e6f7420746865206f776e6572600082015250565b6000615806602083613dbb565b9150615811826157d0565b602082019050919050565b60006020820190508181036000830152615835816157f9565b9050919050565b7f4552433732313a20617070726f766520746f2063616c6c657200000000000000600082015250565b6000615872601983613dbb565b915061587d8261583c565b602082019050919050565b600060208201905081810360008301526158a181615865565b9050919050565b7f4552433732313a207472616e7366657220746f206e6f6e20455243373231526560008201527f63656976657220696d706c656d656e7465720000000000000000000000000000602082015250565b6000615904603283613dbb565b915061590f826158a8565b604082019050919050565b60006020820190508181036000830152615933816158f7565b9050919050565b7f4e487b7100000000000000000000000000000000000000000000000000000000600052601260045260246000fd5b600061597482613be1565b915061597f83613be1565b92508261598f5761598e61593a565b5b828204905092915050565b60006159a582613be1565b91506159b083613be1565b9250826159c0576159bf61593a565b5b828206905092915050565b600081519050919050565b600082825260208201905092915050565b60006159f2826159cb565b6159fc81856159d6565b9350615a0c818560208601613dcc565b615a1581613dff565b840191505092915050565b6000608082019050615a356000830187613ec4565b615a426020830186613ec4565b615a4f6040830185613beb565b8181036060830152615a6181846159e7565b905095945050505050565b600081519050615a7b81613c41565b92915050565b600060208284031215615a9757615a96613b4c565b5b6000615aa584828501615a6c565b91505092915050565b7f4e487b7100000000000000000000000000000000000000000000000000000000600052603160045260246000fd5b7f4552433732313a206d696e7420746f20746865207a65726f2061646472657373600082015250565b6000615b13602083613dbb565b9150615b1e82615add565b602082019050919050565b60006020820190508181036000830152615b4281615b06565b9050919050565b7f4552433732313a20746f6b656e20616c7265616479206d696e74656400000000600082015250565b6000615b7f601c83613dbb565b9150615b8a82615b49565b602082019050919050565b60006020820190508181036000830152615bae81615b72565b905091905056fea26469706673582212208bf89b32b8f9832e87bda0244260511d1e53edbfd653ea163fb75e87bf70fb0364736f6c63430008090033697066733a2f2f62616679626569657733747a696b686b6a6a637a6963796365793664676d6464656d6d72627033636c73773775357a6478676a736e3473733479692f636f6e74726163742e6a736f6e697066733a2f2f62616679626569657733747a696b686b6a6a637a6963796365793664676d6464656d6d72627033636c73773775357a6478676a736e3473733479692f",
  "linkReferences": {},
  "deployedLinkReferences": {}
}