{
  "_format": "hh-sol-artifact-1",
  "contractName": "IPCWrapper",
  "sourceName": "contracts/IPCWrapper.sol",
  "abi": [
    {
      "inputs": [],
      "stateMutability": "nonpayable",
      "type": "constructor"
    },
    {
      "anonymous": false,
      "inputs": [
        {
          "indexed": true,
          "internalType": "address",
          "name": "owner",
          "type": "address"
        },
        {
          "indexed": true,
          "internalType": "address",
          "name": "approved",
          "type": "address"
        },
        {
          "indexed": true,
          "internalType": "uint256",
          "name": "tokenId",
          "type": "uint256"
        }
      ],
      "name": "Approval",
      "type": "event"
    },
    {
      "anonymous": false,
      "inputs": [
        {
          "indexed": true,
          "internalType": "address",
          "name": "owner",
          "type": "address"
        },
        {
          "indexed": true,
          "internalType": "address",
          "name": "operator",
          "type": "address"
        },
        {
          "indexed": false,
          "internalType": "bool",
          "name": "approved",
          "type": "bool"
        }
      ],
      "name": "ApprovalForAll",
      "type": "event"
    },
    {
      "anonymous": false,
      "inputs": [
        {
          "indexed": true,
          "internalType": "address",
          "name": "previousOwner",
          "type": "address"
        },
        {
          "indexed": true,
          "internalType": "address",
          "name": "newOwner",
          "type": "address"
        }
      ],
      "name": "OwnershipTransferred",
      "type": "event"
    },
    {
      "anonymous": false,
      "inputs": [
        {
          "indexed": true,
          "internalType": "address",
          "name": "from",
          "type": "address"
        },
        {
          "indexed": true,
          "internalType": "address",
          "name": "to",
          "type": "address"
        },
        {
          "indexed": true,
          "internalType": "uint256",
          "name": "tokenId",
          "type": "uint256"
        }
      ],
      "name": "Transfer",
      "type": "event"
    },
    {
      "anonymous": false,
      "inputs": [
        {
          "indexed": false,
          "internalType": "uint256",
          "name": "tokenId",
          "type": "uint256"
        },
        {
          "indexed": false,
          "internalType": "address",
          "name": "owner",
          "type": "address"
        }
      ],
      "name": "Unwrapped",
      "type": "event"
    },
    {
      "anonymous": false,
      "inputs": [
        {
          "indexed": false,
          "internalType": "uint256",
          "name": "tokenId",
          "type": "uint256"
        },
        {
          "indexed": false,
          "internalType": "address",
          "name": "owner",
          "type": "address"
        }
      ],
      "name": "Wrapped",
      "type": "event"
    },
    {
      "anonymous": false,
      "inputs": [
        {
          "indexed": false,
          "internalType": "uint256",
          "name": "tokenId",
          "type": "uint256"
        },
        {
          "indexed": false,
          "internalType": "string",
          "name": "name",
          "type": "string"
        }
      ],
      "name": "nameChangeOK",
      "type": "event"
    },
    {
      "inputs": [
        {
          "internalType": "address",
          "name": "to",
          "type": "address"
        },
        {
          "internalType": "uint256",
          "name": "tokenId",
          "type": "uint256"
        }
      ],
      "name": "approve",
      "outputs": [],
      "stateMutability": "nonpayable",
      "type": "function"
    },
    {
      "inputs": [
        {
          "internalType": "address",
          "name": "owner",
          "type": "address"
        }
      ],
      "name": "balanceOf",
      "outputs": [
        {
          "internalType": "uint256",
          "name": "",
          "type": "uint256"
        }
      ],
      "stateMutability": "view",
      "type": "function"
    },
    {
      "inputs": [
        {
          "internalType": "uint256",
          "name": "tokenId",
          "type": "uint256"
        },
        {
          "internalType": "string",
          "name": "newName",
          "type": "string"
        }
      ],
      "name": "changeIpcName",
      "outputs": [],
      "stateMutability": "payable",
      "type": "function"
    },
    {
      "inputs": [],
      "name": "contractURI",
      "outputs": [
        {
          "internalType": "string",
          "name": "",
          "type": "string"
        }
      ],
      "stateMutability": "view",
      "type": "function"
    },
    {
      "inputs": [
        {
          "internalType": "uint256",
          "name": "tokenId",
          "type": "uint256"
        }
      ],
      "name": "getApproved",
      "outputs": [
        {
          "internalType": "address",
          "name": "",
          "type": "address"
        }
      ],
      "stateMutability": "view",
      "type": "function"
    },
    {
      "inputs": [
        {
          "internalType": "uint256",
          "name": "tokenId",
          "type": "uint256"
        }
      ],
      "name": "getIpc",
      "outputs": [
        {
          "components": [
            {
              "internalType": "uint256",
              "name": "tokenId",
              "type": "uint256"
            },
            {
              "internalType": "string",
              "name": "name",
              "type": "string"
            },
            {
              "internalType": "bytes32",
              "name": "attributeSeed",
              "type": "bytes32"
            },
            {
              "internalType": "bytes32",
              "name": "dna",
              "type": "bytes32"
            },
            {
              "internalType": "uint128",
              "name": "experience",
              "type": "uint128"
            },
            {
              "internalType": "uint128",
              "name": "timeOfBirth",
              "type": "uint128"
            },
            {
              "internalType": "address",
              "name": "owner",
              "type": "address"
            }
          ],
          "internalType": "struct IPCWrapper.t_raw_ipc",
          "name": "",
          "type": "tuple"
        }
      ],
      "stateMutability": "view",
      "type": "function"
    },
    {
      "inputs": [],
      "name": "getProperties",
      "outputs": [
        {
          "components": [
            {
              "internalType": "address",
              "name": "contractAdress",
              "type": "address"
            },
            {
              "internalType": "string",
              "name": "tokenURI",
              "type": "string"
            },
            {
              "internalType": "string",
              "name": "contractURI",
              "type": "string"
            },
            {
              "internalType": "uint256",
              "name": "maxPrice",
              "type": "uint256"
            },
            {
              "internalType": "uint256",
              "name": "tokenLimit",
              "type": "uint256"
            }
          ],
          "internalType": "struct IPCWrapper.t_properties",
          "name": "",
          "type": "tuple"
        }
      ],
      "stateMutability": "view",
      "type": "function"
    },
    {
      "inputs": [
        {
          "internalType": "address",
          "name": "owner",
          "type": "address"
        },
        {
          "internalType": "uint256",
          "name": "startIndex",
          "type": "uint256"
        },
        {
          "internalType": "uint256",
          "name": "total",
          "type": "uint256"
        }
      ],
      "name": "getTokensOfOwner",
      "outputs": [
        {
          "components": [
            {
              "internalType": "uint256",
              "name": "tokenId",
              "type": "uint256"
            },
            {
              "internalType": "string",
              "name": "name",
              "type": "string"
            },
            {
              "internalType": "bytes32",
              "name": "attributeSeed",
              "type": "bytes32"
            },
            {
              "internalType": "bytes32",
              "name": "dna",
              "type": "bytes32"
            },
            {
              "internalType": "uint128",
              "name": "experience",
              "type": "uint128"
            },
            {
              "internalType": "uint128",
              "name": "timeOfBirth",
              "type": "uint128"
            },
            {
              "internalType": "address",
              "name": "owner",
              "type": "address"
            }
          ],
          "internalType": "struct IPCWrapper.t_raw_ipc[]",
          "name": "",
          "type": "tuple[]"
        }
      ],
      "stateMutability": "view",
      "type": "function"
    },
    {
      "inputs": [
        {
          "internalType": "address",
          "name": "owner",
          "type": "address"
        },
        {
          "internalType": "address",
          "name": "operator",
          "type": "address"
        }
      ],
      "name": "isApprovedForAll",
      "outputs": [
        {
          "internalType": "bool",
          "name": "",
          "type": "bool"
        }
      ],
      "stateMutability": "view",
      "type": "function"
    },
    {
      "inputs": [],
      "name": "name",
      "outputs": [
        {
          "internalType": "string",
          "name": "",
          "type": "string"
        }
      ],
      "stateMutability": "view",
      "type": "function"
    },
    {
      "inputs": [
        {
          "internalType": "address",
          "name": "",
          "type": "address"
        },
        {
          "internalType": "address",
          "name": "",
          "type": "address"
        },
        {
          "internalType": "uint256",
          "name": "",
          "type": "uint256"
        },
        {
          "internalType": "bytes",
          "name": "",
          "type": "bytes"
        }
      ],
      "name": "onERC721Received",
      "outputs": [
        {
          "internalType": "bytes4",
          "name": "",
          "type": "bytes4"
        }
      ],
      "stateMutability": "pure",
      "type": "function"
    },
    {
      "inputs": [
        {
          "internalType": "address",
          "name": "",
          "type": "address"
        },
        {
          "internalType": "uint256",
          "name": "",
          "type": "uint256"
        },
        {
          "internalType": "bytes",
          "name": "",
          "type": "bytes"
        }
      ],
      "name": "onERC721Received",
      "outputs": [
        {
          "internalType": "bytes4",
          "name": "",
          "type": "bytes4"
        }
      ],
      "stateMutability": "pure",
      "type": "function"
    },
    {
      "inputs": [],
      "name": "owner",
      "outputs": [
        {
          "internalType": "address",
          "name": "",
          "type": "address"
        }
      ],
      "stateMutability": "view",
      "type": "function"
    },
    {
      "inputs": [
        {
          "internalType": "uint256",
          "name": "tokenId",
          "type": "uint256"
        }
      ],
      "name": "ownerOf",
      "outputs": [
        {
          "internalType": "address",
          "name": "",
          "type": "address"
        }
      ],
      "stateMutability": "view",
      "type": "function"
    },
    {
      "inputs": [],
      "name": "renounceOwnership",
      "outputs": [],
      "stateMutability": "nonpayable",
      "type": "function"
    },
    {
      "inputs": [
        {
          "internalType": "address",
          "name": "from",
          "type": "address"
        },
        {
          "internalType": "address",
          "name": "to",
          "type": "address"
        },
        {
          "internalType": "uint256",
          "name": "tokenId",
          "type": "uint256"
        }
      ],
      "name": "safeTransferFrom",
      "outputs": [],
      "stateMutability": "nonpayable",
      "type": "function"
    },
    {
      "inputs": [
        {
          "internalType": "address",
          "name": "from",
          "type": "address"
        },
        {
          "internalType": "address",
          "name": "to",
          "type": "address"
        },
        {
          "internalType": "uint256",
          "name": "tokenId",
          "type": "uint256"
        },
        {
          "internalType": "bytes",
          "name": "data",
          "type": "bytes"
        }
      ],
      "name": "safeTransferFrom",
      "outputs": [],
      "stateMutability": "nonpayable",
      "type": "function"
    },
    {
      "inputs": [
        {
          "internalType": "address",
          "name": "operator",
          "type": "address"
        },
        {
          "internalType": "bool",
          "name": "approved",
          "type": "bool"
        }
      ],
      "name": "setApprovalForAll",
      "outputs": [],
      "stateMutability": "nonpayable",
      "type": "function"
    },
    {
      "inputs": [
        {
          "internalType": "address",
          "name": "_contractAddress",
          "type": "address"
        }
      ],
      "name": "setContractAddress",
      "outputs": [],
      "stateMutability": "nonpayable",
      "type": "function"
    },
    {
      "inputs": [
        {
          "internalType": "uint256",
          "name": "_maxPrice",
          "type": "uint256"
        },
        {
          "internalType": "uint256",
          "name": "_tokenLimit",
          "type": "uint256"
        },
        {
          "internalType": "string",
          "name": "__tokenURI",
          "type": "string"
        },
        {
          "internalType": "string",
          "name": "__contractURI",
          "type": "string"
        }
      ],
      "name": "setProperties",
      "outputs": [],
      "stateMutability": "nonpayable",
      "type": "function"
    },
    {
      "inputs": [
        {
          "internalType": "bytes4",
          "name": "interfaceId",
          "type": "bytes4"
        }
      ],
      "name": "supportsInterface",
      "outputs": [
        {
          "internalType": "bool",
          "name": "",
          "type": "bool"
        }
      ],
      "stateMutability": "view",
      "type": "function"
    },
    {
      "inputs": [],
      "name": "symbol",
      "outputs": [
        {
          "internalType": "string",
          "name": "",
          "type": "string"
        }
      ],
      "stateMutability": "view",
      "type": "function"
    },
    {
      "inputs": [
        {
          "internalType": "uint256",
          "name": "tokenId",
          "type": "uint256"
        }
      ],
      "name": "tokenURI",
      "outputs": [
        {
          "internalType": "string",
          "name": "",
          "type": "string"
        }
      ],
      "stateMutability": "view",
      "type": "function"
    },
    {
      "inputs": [],
      "name": "totalSupply",
      "outputs": [
        {
          "internalType": "uint256",
          "name": "",
          "type": "uint256"
        }
      ],
      "stateMutability": "view",
      "type": "function"
    },
    {
      "inputs": [
        {
          "internalType": "address",
          "name": "from",
          "type": "address"
        },
        {
          "internalType": "address",
          "name": "to",
          "type": "address"
        },
        {
          "internalType": "uint256",
          "name": "tokenId",
          "type": "uint256"
        }
      ],
      "name": "transferFrom",
      "outputs": [],
      "stateMutability": "nonpayable",
      "type": "function"
    },
    {
      "inputs": [
        {
          "internalType": "address",
          "name": "newOwner",
          "type": "address"
        }
      ],
      "name": "transferOwnership",
      "outputs": [],
      "stateMutability": "nonpayable",
      "type": "function"
    },
    {
      "inputs": [
        {
          "internalType": "uint256",
          "name": "tokenId",
          "type": "uint256"
        }
      ],
      "name": "unwrap",
      "outputs": [],
      "stateMutability": "nonpayable",
      "type": "function"
    },
    {
      "inputs": [
        {
          "internalType": "address",
          "name": "owner",
          "type": "address"
        }
      ],
      "name": "uwBalanceOf",
      "outputs": [
        {
          "internalType": "uint256",
          "name": "",
          "type": "uint256"
        }
      ],
      "stateMutability": "view",
      "type": "function"
    },
    {
      "inputs": [
        {
          "internalType": "uint256",
          "name": "startIndex",
          "type": "uint256"
        },
        {
          "internalType": "uint256",
          "name": "total",
          "type": "uint256"
        }
      ],
      "name": "uwGetAllTokens",
      "outputs": [
        {
          "components": [
            {
              "internalType": "uint256",
              "name": "tokenId",
              "type": "uint256"
            },
            {
              "internalType": "string",
              "name": "name",
              "type": "string"
            },
            {
              "internalType": "bytes32",
              "name": "attributeSeed",
              "type": "bytes32"
            },
            {
              "internalType": "bytes32",
              "name": "dna",
              "type": "bytes32"
            },
            {
              "internalType": "uint128",
              "name": "experience",
              "type": "uint128"
            },
            {
              "internalType": "uint128",
              "name": "timeOfBirth",
              "type": "uint128"
            },
            {
              "internalType": "address",
              "name": "owner",
              "type": "address"
            }
          ],
          "internalType": "struct IPCWrapper.t_raw_ipc[]",
          "name": "",
          "type": "tuple[]"
        }
      ],
      "stateMutability": "view",
      "type": "function"
    },
    {
      "inputs": [
        {
          "internalType": "address",
          "name": "owner",
          "type": "address"
        },
        {
          "internalType": "uint256",
          "name": "startIndex",
          "type": "uint256"
        },
        {
          "internalType": "uint256",
          "name": "total",
          "type": "uint256"
        }
      ],
      "name": "uwGetTokensOfOwner",
      "outputs": [
        {
          "components": [
            {
              "internalType": "uint256",
              "name": "tokenId",
              "type": "uint256"
            },
            {
              "internalType": "string",
              "name": "name",
              "type": "string"
            },
            {
              "internalType": "bytes32",
              "name": "attributeSeed",
              "type": "bytes32"
            },
            {
              "internalType": "bytes32",
              "name": "dna",
              "type": "bytes32"
            },
            {
              "internalType": "uint128",
              "name": "experience",
              "type": "uint128"
            },
            {
              "internalType": "uint128",
              "name": "timeOfBirth",
              "type": "uint128"
            },
            {
              "internalType": "address",
              "name": "owner",
              "type": "address"
            }
          ],
          "internalType": "struct IPCWrapper.t_raw_ipc[]",
          "name": "",
          "type": "tuple[]"
        }
      ],
      "stateMutability": "view",
      "type": "function"
    },
    {
      "inputs": [
        {
          "internalType": "uint256",
          "name": "tokenId",
          "type": "uint256"
        }
      ],
      "name": "uwOwnerOf",
      "outputs": [
        {
          "internalType": "address",
          "name": "",
          "type": "address"
        }
      ],
      "stateMutability": "view",
      "type": "function"
    },
    {
      "inputs": [
        {
          "internalType": "uint256",
          "name": "tokenId",
          "type": "uint256"
        }
      ],
      "name": "wOwnerOf",
      "outputs": [
        {
          "internalType": "address",
          "name": "",
          "type": "address"
        }
      ],
      "stateMutability": "view",
      "type": "function"
    },
    {
      "inputs": [],
      "name": "withdrawalVault",
      "outputs": [],
      "stateMutability": "nonpayable",
      "type": "function"
    },
    {
      "inputs": [
        {
          "internalType": "uint256",
          "name": "tokenId",
          "type": "uint256"
        }
      ],
      "name": "wrap",
      "outputs": [],
      "stateMutability": "nonpayable",
      "type": "function"
    }
  ],
  "bytecode": "0x60806040523480156200001157600080fd5b506040518060400160405280601d81526020017f496d6d6f7274616c20506c6179657220436861726163746572732076300000008152506040518060400160405280600581526020017f49504356300000000000000000000000000000000000000000000000000000008152506200009e62000092620001bf60201b60201c565b620001c760201b60201c565b8160019080519060200190620000b69291906200028b565b508060029080519060200190620000cf9291906200028b565b50505073ace8aa6699f1e71f07622135a93140ca296d610a600760006101000a81548173ffffffffffffffffffffffffffffffffffffffff021916908373ffffffffffffffffffffffffffffffffffffffff1602179055506040518060600160405280602581526020016200569d6025913960089080519060200190620001589291906200028b565b506040518060600160405280602781526020016200567660279139600990805190602001906200018a9291906200028b565b50620f4240600a819055506103e8600b819055506001600c60006101000a81548160ff021916908315150217905550620003a0565b600033905090565b60008060009054906101000a900473ffffffffffffffffffffffffffffffffffffffff169050816000806101000a81548173ffffffffffffffffffffffffffffffffffffffff021916908373ffffffffffffffffffffffffffffffffffffffff1602179055508173ffffffffffffffffffffffffffffffffffffffff168173ffffffffffffffffffffffffffffffffffffffff167f8be0079c531659141344cd1fd0a4f28419497f9722a3daafe3b4186f6b6457e060405160405180910390a35050565b82805462000299906200036a565b90600052602060002090601f016020900481019282620002bd576000855562000309565b82601f10620002d857805160ff191683800117855562000309565b8280016001018555821562000309579182015b8281111562000308578251825591602001919060010190620002eb565b5b5090506200031891906200031c565b5090565b5b80821115620003375760008160009055506001016200031d565b5090565b7f4e487b7100000000000000000000000000000000000000000000000000000000600052602260045260246000fd5b600060028204905060018216806200038357607f821691505b602082108114156200039a57620003996200033b565b5b50919050565b6152c680620003b06000396000f3fe6080604052600436106101f95760003560e01c80638da5cb5b1161010d578063de0e9a3e116100a0578063e985e9c51161006f578063e985e9c514610780578063ea598cb0146107bd578063ec0cfd0b146107e6578063f0b9e5ba14610811578063f2fde38b1461084e576101f9565b8063de0e9a3e146106d3578063dfb31a7c146106fc578063e44141a914610718578063e8a3d48514610755576101f9565b8063b88d4fde116100dc578063b88d4fde146105f3578063c2619d131461061c578063c87b56dd14610659578063d764600d14610696576101f9565b80638da5cb5b1461053757806395d89b4114610562578063a22cb4651461058d578063b4f01a02146105b6576101f9565b806323b872dd1161019057806369d421481161015f57806369d421481461045257806370a0823114610469578063715018a6146104a65780637fff1e2f146104bd57806389edc438146104fa576101f9565b806323b872dd1461039a57806342842e0e146103c3578063477bddaa146103ec5780636352211e14610415576101f9565b8063095ea7b3116101cc578063095ea7b3146102e0578063150b7a021461030957806318160ddd1461034657806320f95f6214610371576101f9565b8063013abd6c146101fe57806301ffc9a71461023b57806306fdde0314610278578063081812fc146102a3575b600080fd5b34801561020a57600080fd5b50610225600480360381019061022091906134ec565b610877565b6040516102329190613532565b60405180910390f35b34801561024757600080fd5b50610262600480360381019061025d91906135a5565b610936565b60405161026f91906135ed565b60405180910390f35b34801561028457600080fd5b5061028d610a18565b60405161029a91906136a1565b60405180910390f35b3480156102af57600080fd5b506102ca60048036038101906102c591906136ef565b610aaa565b6040516102d7919061372b565b60405180910390f35b3480156102ec57600080fd5b5061030760048036038101906103029190613746565b610af0565b005b34801561031557600080fd5b50610330600480360381019061032b91906137eb565b610c08565b60405161033d9190613882565b60405180910390f35b34801561035257600080fd5b5061035b610c1d565b6040516103689190613532565b60405180910390f35b34801561037d57600080fd5b50610398600480360381019061039391906138f3565b610cc4565b005b3480156103a657600080fd5b506103c160048036038101906103bc919061399a565b610d06565b005b3480156103cf57600080fd5b506103ea60048036038101906103e5919061399a565b610d66565b005b3480156103f857600080fd5b50610413600480360381019061040e91906134ec565b610d86565b005b34801561042157600080fd5b5061043c600480360381019061043791906136ef565b610dd2565b604051610449919061372b565b60405180910390f35b34801561045e57600080fd5b50610467610eab565b005b34801561047557600080fd5b50610490600480360381019061048b91906134ec565b610f62565b60405161049d9190613532565b60405180910390f35b3480156104b257600080fd5b506104bb61101a565b005b3480156104c957600080fd5b506104e460048036038101906104df91906136ef565b61102e565b6040516104f19190613b35565b60405180910390f35b34801561050657600080fd5b50610521600480360381019061051c9190613b57565b611185565b60405161052e9190613d08565b60405180910390f35b34801561054357600080fd5b5061054c61136a565b604051610559919061372b565b60405180910390f35b34801561056e57600080fd5b50610577611393565b60405161058491906136a1565b60405180910390f35b34801561059957600080fd5b506105b460048036038101906105af9190613d56565b611425565b005b3480156105c257600080fd5b506105dd60048036038101906105d891906136ef565b61143b565b6040516105ea919061372b565b60405180910390f35b3480156105ff57600080fd5b5061061a60048036038101906106159190613ec6565b6114ef565b005b34801561062857600080fd5b50610643600480360381019061063e9190613f49565b611551565b6040516106509190613d08565b60405180910390f35b34801561066557600080fd5b50610680600480360381019061067b91906136ef565b61169b565b60405161068d91906136a1565b60405180910390f35b3480156106a257600080fd5b506106bd60048036038101906106b89190613b57565b611703565b6040516106ca9190613d08565b60405180910390f35b3480156106df57600080fd5b506106fa60048036038101906106f591906136ef565b61190a565b005b61071660048036038101906107119190613f89565b611b1d565b005b34801561072457600080fd5b5061073f600480360381019061073a91906136ef565b611cbc565b60405161074c919061372b565b60405180910390f35b34801561076157600080fd5b5061076a611cce565b60405161077791906136a1565b60405180910390f35b34801561078c57600080fd5b506107a760048036038101906107a29190613fe9565b611d60565b6040516107b491906135ed565b60405180910390f35b3480156107c957600080fd5b506107e460048036038101906107df91906136ef565b611df4565b005b3480156107f257600080fd5b506107fb612110565b60405161080891906140a6565b60405180910390f35b34801561081d57600080fd5b50610838600480360381019061083391906140c8565b6122a2565b6040516108459190613882565b60405180910390f35b34801561085a57600080fd5b50610875600480360381019061087091906134ec565b6122cf565b005b600080600760009054906101000a900473ffffffffffffffffffffffffffffffffffffffff1673ffffffffffffffffffffffffffffffffffffffff16638462151c846040518263ffffffff1660e01b81526004016108d5919061372b565b60006040518083038186803b1580156108ed57600080fd5b505afa158015610901573d6000803e3d6000fd5b505050506040513d6000823e3d601f19601f8201168201806040525081019061092a9190614214565b90508051915050919050565b60007f80ac58cd000000000000000000000000000000000000000000000000000000007bffffffffffffffffffffffffffffffffffffffffffffffffffffffff1916827bffffffffffffffffffffffffffffffffffffffffffffffffffffffff19161480610a0157507f5b5e139f000000000000000000000000000000000000000000000000000000007bffffffffffffffffffffffffffffffffffffffffffffffffffffffff1916827bffffffffffffffffffffffffffffffffffffffffffffffffffffffff1916145b80610a115750610a1082612353565b5b9050919050565b606060018054610a279061428c565b80601f0160208091040260200160405190810160405280929190818152602001828054610a539061428c565b8015610aa05780601f10610a7557610100808354040283529160200191610aa0565b820191906000526020600020905b815481529060010190602001808311610a8357829003601f168201915b5050505050905090565b6000610ab5826123bd565b6005600083815260200190815260200160002060009054906101000a900473ffffffffffffffffffffffffffffffffffffffff169050919050565b6000610afb82612408565b90508073ffffffffffffffffffffffffffffffffffffffff168373ffffffffffffffffffffffffffffffffffffffff161415610b6c576040517f08c379a0000000000000000000000000000000000000000000000000000000008152600401610b6390614330565b60405180910390fd5b8073ffffffffffffffffffffffffffffffffffffffff16610b8b6124ba565b73ffffffffffffffffffffffffffffffffffffffff161480610bba5750610bb981610bb46124ba565b611d60565b5b610bf9576040517f08c379a0000000000000000000000000000000000000000000000000000000008152600401610bf0906143c2565b60405180910390fd5b610c0383836124c2565b505050565b600063150b7a0260e01b905095945050505050565b6000600760009054906101000a900473ffffffffffffffffffffffffffffffffffffffff1673ffffffffffffffffffffffffffffffffffffffff166318160ddd6040518163ffffffff1660e01b815260040160206040518083038186803b158015610c8757600080fd5b505afa158015610c9b573d6000803e3d6000fd5b505050506040513d601f19601f82011682018060405250810190610cbf91906143e2565b905090565b610ccc61257b565b85600a8190555084600b81905550838360089190610ceb929190613315565b50818160099190610cfd929190613315565b50505050505050565b610d17610d116124ba565b826125f9565b610d56576040517f08c379a0000000000000000000000000000000000000000000000000000000008152600401610d4d90614481565b60405180910390fd5b610d6183838361268e565b505050565b610d81838383604051806020016040528060008152506114ef565b505050565b610d8e61257b565b80600760006101000a81548173ffffffffffffffffffffffffffffffffffffffff021916908373ffffffffffffffffffffffffffffffffffffffff16021790555050565b6000801515610de0836128f5565b15151415610e9a57600760009054906101000a900473ffffffffffffffffffffffffffffffffffffffff1673ffffffffffffffffffffffffffffffffffffffff16636352211e836040518263ffffffff1660e01b8152600401610e439190613532565b60206040518083038186803b158015610e5b57600080fd5b505afa158015610e6f573d6000803e3d6000fd5b505050506040513d601f19601f82011682018060405250810190610e9391906144b6565b9050610ea6565b610ea382612408565b90505b919050565b610eb361257b565b60003373ffffffffffffffffffffffffffffffffffffffff1647604051610ed990614514565b60006040518083038185875af1925050503d8060008114610f16576040519150601f19603f3d011682016040523d82523d6000602084013e610f1b565b606091505b5050905080610f5f576040517f08c379a0000000000000000000000000000000000000000000000000000000008152600401610f5690614575565b60405180910390fd5b50565b60008073ffffffffffffffffffffffffffffffffffffffff168273ffffffffffffffffffffffffffffffffffffffff161415610fd3576040517f08c379a0000000000000000000000000000000000000000000000000000000008152600401610fca90614607565b60405180910390fd5b600460008373ffffffffffffffffffffffffffffffffffffffff1673ffffffffffffffffffffffffffffffffffffffff168152602001908152602001600020549050919050565b61102261257b565b61102c6000612961565b565b61103661339b565b6000806000806000600760009054906101000a900473ffffffffffffffffffffffffffffffffffffffff1673ffffffffffffffffffffffffffffffffffffffff16637fff1e2f886040518263ffffffff1660e01b81526004016110999190613532565b60006040518083038186803b1580156110b157600080fd5b505afa1580156110c5573d6000803e3d6000fd5b505050506040513d6000823e3d601f19601f820116820180604052508101906110ee9190614720565b94509450945094509450600061110388610dd2565b905060006040518060e001604052808a8152602001888152602001878152602001868152602001856fffffffffffffffffffffffffffffffff168152602001846fffffffffffffffffffffffffffffffff1681526020018373ffffffffffffffffffffffffffffffffffffffff16815250905080975050505050505050919050565b60606000600d60008673ffffffffffffffffffffffffffffffffffffffff1673ffffffffffffffffffffffffffffffffffffffff16815260200190815260200160002080548060200260200160405190810160405280929190818152602001828054801561121257602002820191906000526020600020905b8154815260200190600101908083116111fe575b505050505090506000815190508085111561122c57600094505b600081111561126757600084148061124e5750848161124b91906147e6565b84115b1561126257848161125f91906147e6565b93505b611270565b60009050600193505b60008467ffffffffffffffff81111561128c5761128b613d9b565b5b6040519080825280602002602001820160405280156112c557816020015b6112b261339b565b8152602001906001900390816112aa5790505b50905060008214156112dc57809350505050611363565b6000806112e761339b565b600092505b878310156113595785838a611301919061481a565b8151811061131257611311614870565b5b602002602001015191506113258261102e565b90508084848151811061133b5761133a614870565b5b602002602001018190525082806113519061489f565b9350506112ec565b8396505050505050505b9392505050565b60008060009054906101000a900473ffffffffffffffffffffffffffffffffffffffff16905090565b6060600280546113a29061428c565b80601f01602080910402602001604051908101604052809291908181526020018280546113ce9061428c565b801561141b5780601f106113f05761010080835404028352916020019161141b565b820191906000526020600020905b8154815290600101906020018083116113fe57829003601f168201915b5050505050905090565b6114376114306124ba565b8383612a25565b5050565b6000600760009054906101000a900473ffffffffffffffffffffffffffffffffffffffff1673ffffffffffffffffffffffffffffffffffffffff16636352211e836040518263ffffffff1660e01b81526004016114989190613532565b60206040518083038186803b1580156114b057600080fd5b505afa1580156114c4573d6000803e3d6000fd5b505050506040513d601f19601f820116820180604052508101906114e891906144b6565b9050919050565b6115006114fa6124ba565b836125f9565b61153f576040517f08c379a000000000000000000000000000000000000000000000000000000000815260040161153690614481565b60405180910390fd5b61154b84848484612b92565b50505050565b6060600061155d610c1d565b9050600084148061156d57508084115b1561157757600193505b60008111156115be5760008314806115a5575083600182611598919061481a565b6115a291906147e6565b83115b156115b95783816115b691906147e6565b92505b6115c7565b60009050600192505b60008367ffffffffffffffff8111156115e3576115e2613d9b565b5b60405190808252806020026020018201604052801561161c57816020015b61160961339b565b8152602001906001900390816116015790505b5090506000821415611632578092505050611695565b60005b8481101561168e576000818761164b919061481a565b905060006116588261102e565b90508084848151811061166e5761166d614870565b5b6020026020010181905250505080806116869061489f565b915050611635565b8193505050505b92915050565b60606116a6826123bd565b60006116b0612bee565b905060008151116116d057604051806020016040528060008152506116fb565b806116da84612c80565b6040516020016116eb929190614924565b6040516020818303038152906040525b915050919050565b60606000600760009054906101000a900473ffffffffffffffffffffffffffffffffffffffff1673ffffffffffffffffffffffffffffffffffffffff16638462151c866040518263ffffffff1660e01b8152600401611762919061372b565b60006040518083038186803b15801561177a57600080fd5b505afa15801561178e573d6000803e3d6000fd5b505050506040513d6000823e3d601f19601f820116820180604052508101906117b79190614214565b9050600081519050808511156117cc57600094505b60008111156118075760008414806117ee575084816117eb91906147e6565b84115b156118025784816117ff91906147e6565b93505b611810565b60009050600193505b60008467ffffffffffffffff81111561182c5761182b613d9b565b5b60405190808252806020026020018201604052801561186557816020015b61185261339b565b81526020019060019003908161184a5790505b509050600082141561187c57809350505050611903565b60008061188761339b565b600092505b878310156118f95785838a6118a1919061481a565b815181106118b2576118b1614870565b5b602002602001015191506118c58261102e565b9050808484815181106118db576118da614870565b5b602002602001018190525082806118f19061489f565b93505061188c565b8396505050505050505b9392505050565b60001515611917826128f5565b1515141561195a576040517f08c379a000000000000000000000000000000000000000000000000000000000815260040161195190614994565b60405180910390fd5b60006119658261143b565b90503373ffffffffffffffffffffffffffffffffffffffff1661198783611cbc565b73ffffffffffffffffffffffffffffffffffffffff1614611a11573373ffffffffffffffffffffffffffffffffffffffff168173ffffffffffffffffffffffffffffffffffffffff1614611a10576040517f08c379a0000000000000000000000000000000000000000000000000000000008152600401611a0790614a00565b60405180910390fd5b5b611a1a82612de1565b3073ffffffffffffffffffffffffffffffffffffffff168173ffffffffffffffffffffffffffffffffffffffff161415611ae057600760009054906101000a900473ffffffffffffffffffffffffffffffffffffffff1673ffffffffffffffffffffffffffffffffffffffff166342842e0e3033856040518463ffffffff1660e01b8152600401611aad93929190614a20565b600060405180830381600087803b158015611ac757600080fd5b505af1158015611adb573d6000803e3d6000fd5b505050505b7f1d27d1c62712f590d53fa9eb8bbf3a75d09503deae319bb9d99644339cb312e18233604051611b11929190614a57565b60405180910390a15050565b3373ffffffffffffffffffffffffffffffffffffffff16611b3d84611cbc565b73ffffffffffffffffffffffffffffffffffffffff1614611b93576040517f08c379a0000000000000000000000000000000000000000000000000000000008152600401611b8a90614acc565b60405180910390fd5b60001515600c60009054906101000a900460ff1615151415611bea576040517f08c379a0000000000000000000000000000000000000000000000000000000008152600401611be190614b38565b60405180910390fd5b600760009054906101000a900473ffffffffffffffffffffffffffffffffffffffff1673ffffffffffffffffffffffffffffffffffffffff1663dfb31a7c348585856040518563ffffffff1660e01b8152600401611c4a93929190614b85565b6000604051808303818588803b158015611c6357600080fd5b505af1158015611c77573d6000803e3d6000fd5b50505050507f60319c6511f3c90c2a37bcd711c518923ef5dd5528be697b9b4a23a1aace6c9c838383604051611caf93929190614b85565b60405180910390a1505050565b6000611cc782612408565b9050919050565b606060098054611cdd9061428c565b80601f0160208091040260200160405190810160405280929190818152602001828054611d099061428c565b8015611d565780601f10611d2b57610100808354040283529160200191611d56565b820191906000526020600020905b815481529060010190602001808311611d3957829003601f168201915b5050505050905090565b6000600660008473ffffffffffffffffffffffffffffffffffffffff1673ffffffffffffffffffffffffffffffffffffffff16815260200190815260200160002060008373ffffffffffffffffffffffffffffffffffffffff1673ffffffffffffffffffffffffffffffffffffffff16815260200190815260200160002060009054906101000a900460ff16905092915050565b600b5481118015611e11575060001515611e0d826128f5565b1515145b15611e51576040517f08c379a0000000000000000000000000000000000000000000000000000000008152600401611e4890614c03565b60405180910390fd5b6000339050611e5f826128f5565b15611f15578073ffffffffffffffffffffffffffffffffffffffff16611e8483611cbc565b73ffffffffffffffffffffffffffffffffffffffff1614611eda576040517f08c379a0000000000000000000000000000000000000000000000000000000008152600401611ed190614a00565b60405180910390fd5b6040517f08c379a0000000000000000000000000000000000000000000000000000000008152600401611f0c90614c6f565b60405180910390fd5b6000611f208361143b565b90508173ffffffffffffffffffffffffffffffffffffffff168173ffffffffffffffffffffffffffffffffffffffff1614611f90576040517f08c379a0000000000000000000000000000000000000000000000000000000008152600401611f8790614a00565b60405180910390fd5b600760009054906101000a900473ffffffffffffffffffffffffffffffffffffffff1673ffffffffffffffffffffffffffffffffffffffff166342842e0e8330866040518463ffffffff1660e01b8152600401611fef93929190614a20565b600060405180830381600087803b15801561200957600080fd5b505af115801561201d573d6000803e3d6000fd5b50505050600c60009054906101000a900460ff16156120c857600760009054906101000a900473ffffffffffffffffffffffffffffffffffffffff1673ffffffffffffffffffffffffffffffffffffffff16633d4cfe2184600a546040518363ffffffff1660e01b8152600401612095929190614c8f565b600060405180830381600087803b1580156120af57600080fd5b505af11580156120c3573d6000803e3d6000fd5b505050505b6120d28284612efe565b7f9c307a39a47fdf1a019642a4e8a585ffe9894b5018226029887fe6d4241611bb8383604051612103929190614a57565b60405180910390a1505050565b612118613418565b61212061257b565b60006040518060a00160405280600760009054906101000a900473ffffffffffffffffffffffffffffffffffffffff1673ffffffffffffffffffffffffffffffffffffffff168152602001600880546121789061428c565b80601f01602080910402602001604051908101604052809291908181526020018280546121a49061428c565b80156121f15780601f106121c6576101008083540402835291602001916121f1565b820191906000526020600020905b8154815290600101906020018083116121d457829003601f168201915b50505050508152602001600980546122089061428c565b80601f01602080910402602001604051908101604052809291908181526020018280546122349061428c565b80156122815780601f1061225657610100808354040283529160200191612281565b820191906000526020600020905b81548152906001019060200180831161226457829003601f168201915b50505050508152602001600a548152602001600b5481525090508091505090565b60007ff0b9e5baf647f945565b0ac04522b519449041bdd44f952626b9ead9ff3692419050949350505050565b6122d761257b565b600073ffffffffffffffffffffffffffffffffffffffff168173ffffffffffffffffffffffffffffffffffffffff161415612347576040517f08c379a000000000000000000000000000000000000000000000000000000000815260040161233e90614d2a565b60405180910390fd5b61235081612961565b50565b60007f01ffc9a7000000000000000000000000000000000000000000000000000000007bffffffffffffffffffffffffffffffffffffffffffffffffffffffff1916827bffffffffffffffffffffffffffffffffffffffffffffffffffffffff1916149050919050565b6123c6816128f5565b612405576040517f08c379a00000000000000000000000000000000000000000000000000000000081526004016123fc90614d96565b60405180910390fd5b50565b6000806003600084815260200190815260200160002060009054906101000a900473ffffffffffffffffffffffffffffffffffffffff169050600073ffffffffffffffffffffffffffffffffffffffff168173ffffffffffffffffffffffffffffffffffffffff1614156124b1576040517f08c379a00000000000000000000000000000000000000000000000000000000081526004016124a890614d96565b60405180910390fd5b80915050919050565b600033905090565b816005600083815260200190815260200160002060006101000a81548173ffffffffffffffffffffffffffffffffffffffff021916908373ffffffffffffffffffffffffffffffffffffffff160217905550808273ffffffffffffffffffffffffffffffffffffffff1661253583612408565b73ffffffffffffffffffffffffffffffffffffffff167f8c5be1e5ebec7d5bd14f71427d1e84f3dd0314c0f7b2291e5b200ac8c7c3b92560405160405180910390a45050565b6125836124ba565b73ffffffffffffffffffffffffffffffffffffffff166125a161136a565b73ffffffffffffffffffffffffffffffffffffffff16146125f7576040517f08c379a00000000000000000000000000000000000000000000000000000000081526004016125ee90614e02565b60405180910390fd5b565b60008061260583612408565b90508073ffffffffffffffffffffffffffffffffffffffff168473ffffffffffffffffffffffffffffffffffffffff16148061264757506126468185611d60565b5b8061268557508373ffffffffffffffffffffffffffffffffffffffff1661266d84610aaa565b73ffffffffffffffffffffffffffffffffffffffff16145b91505092915050565b8273ffffffffffffffffffffffffffffffffffffffff166126ae82612408565b73ffffffffffffffffffffffffffffffffffffffff1614612704576040517f08c379a00000000000000000000000000000000000000000000000000000000081526004016126fb90614e94565b60405180910390fd5b600073ffffffffffffffffffffffffffffffffffffffff168273ffffffffffffffffffffffffffffffffffffffff161415612774576040517f08c379a000000000000000000000000000000000000000000000000000000000815260040161276b90614f26565b60405180910390fd5b61277f838383612f1c565b61278a6000826124c2565b6001600460008573ffffffffffffffffffffffffffffffffffffffff1673ffffffffffffffffffffffffffffffffffffffff16815260200190815260200160002060008282546127da91906147e6565b925050819055506001600460008473ffffffffffffffffffffffffffffffffffffffff1673ffffffffffffffffffffffffffffffffffffffff1681526020019081526020016000206000828254612831919061481a565b92505081905550816003600083815260200190815260200160002060006101000a81548173ffffffffffffffffffffffffffffffffffffffff021916908373ffffffffffffffffffffffffffffffffffffffff160217905550808273ffffffffffffffffffffffffffffffffffffffff168473ffffffffffffffffffffffffffffffffffffffff167fddf252ad1be2c89b69c2b068fc378daa952ba7f163c4a11628f55a4df523b3ef60405160405180910390a46128f0838383612f21565b505050565b60008073ffffffffffffffffffffffffffffffffffffffff166003600084815260200190815260200160002060009054906101000a900473ffffffffffffffffffffffffffffffffffffffff1673ffffffffffffffffffffffffffffffffffffffff1614159050919050565b60008060009054906101000a900473ffffffffffffffffffffffffffffffffffffffff169050816000806101000a81548173ffffffffffffffffffffffffffffffffffffffff021916908373ffffffffffffffffffffffffffffffffffffffff1602179055508173ffffffffffffffffffffffffffffffffffffffff168173ffffffffffffffffffffffffffffffffffffffff167f8be0079c531659141344cd1fd0a4f28419497f9722a3daafe3b4186f6b6457e060405160405180910390a35050565b8173ffffffffffffffffffffffffffffffffffffffff168373ffffffffffffffffffffffffffffffffffffffff161415612a94576040517f08c379a0000000000000000000000000000000000000000000000000000000008152600401612a8b90614f92565b60405180910390fd5b80600660008573ffffffffffffffffffffffffffffffffffffffff1673ffffffffffffffffffffffffffffffffffffffff16815260200190815260200160002060008473ffffffffffffffffffffffffffffffffffffffff1673ffffffffffffffffffffffffffffffffffffffff16815260200190815260200160002060006101000a81548160ff0219169083151502179055508173ffffffffffffffffffffffffffffffffffffffff168373ffffffffffffffffffffffffffffffffffffffff167f17307eab39ab6107e8899845ad3d59bd9653f200f220920489ca2b5937696c3183604051612b8591906135ed565b60405180910390a3505050565b612b9d84848461268e565b612ba984848484612f26565b612be8576040517f08c379a0000000000000000000000000000000000000000000000000000000008152600401612bdf90615024565b60405180910390fd5b50505050565b606060088054612bfd9061428c565b80601f0160208091040260200160405190810160405280929190818152602001828054612c299061428c565b8015612c765780601f10612c4b57610100808354040283529160200191612c76565b820191906000526020600020905b815481529060010190602001808311612c5957829003601f168201915b5050505050905090565b60606000821415612cc8576040518060400160405280600181526020017f30000000000000000000000000000000000000000000000000000000000000008152509050612ddc565b600082905060005b60008214612cfa578080612ce39061489f565b915050600a82612cf39190615073565b9150612cd0565b60008167ffffffffffffffff811115612d1657612d15613d9b565b5b6040519080825280601f01601f191660200182016040528015612d485781602001600182028036833780820191505090505b5090505b60008514612dd557600182612d6191906147e6565b9150600a85612d7091906150a4565b6030612d7c919061481a565b60f81b818381518110612d9257612d91614870565b5b60200101907effffffffffffffffffffffffffffffffffffffffffffffffffffffffffffff1916908160001a905350600a85612dce9190615073565b9450612d4c565b8093505050505b919050565b6000612dec82612408565b9050612dfa81600084612f1c565b612e056000836124c2565b6001600460008373ffffffffffffffffffffffffffffffffffffffff1673ffffffffffffffffffffffffffffffffffffffff1681526020019081526020016000206000828254612e5591906147e6565b925050819055506003600083815260200190815260200160002060006101000a81549073ffffffffffffffffffffffffffffffffffffffff021916905581600073ffffffffffffffffffffffffffffffffffffffff168273ffffffffffffffffffffffffffffffffffffffff167fddf252ad1be2c89b69c2b068fc378daa952ba7f163c4a11628f55a4df523b3ef60405160405180910390a4612efa81600084612f21565b5050565b612f188282604051806020016040528060008152506130bd565b5050565b505050565b505050565b6000612f478473ffffffffffffffffffffffffffffffffffffffff16613118565b156130b0578373ffffffffffffffffffffffffffffffffffffffff1663150b7a02612f706124ba565b8786866040518563ffffffff1660e01b8152600401612f92949392919061512a565b602060405180830381600087803b158015612fac57600080fd5b505af1925050508015612fdd57506040513d601f19601f82011682018060405250810190612fda919061518b565b60015b613060573d806000811461300d576040519150601f19603f3d011682016040523d82523d6000602084013e613012565b606091505b50600081511415613058576040517f08c379a000000000000000000000000000000000000000000000000000000000815260040161304f90615024565b60405180910390fd5b805181602001fd5b63150b7a0260e01b7bffffffffffffffffffffffffffffffffffffffffffffffffffffffff1916817bffffffffffffffffffffffffffffffffffffffffffffffffffffffff1916149150506130b5565b600190505b949350505050565b6130c7838361313b565b6130d46000848484612f26565b613113576040517f08c379a000000000000000000000000000000000000000000000000000000000815260040161310a90615024565b60405180910390fd5b505050565b6000808273ffffffffffffffffffffffffffffffffffffffff163b119050919050565b600073ffffffffffffffffffffffffffffffffffffffff168273ffffffffffffffffffffffffffffffffffffffff1614156131ab576040517f08c379a00000000000000000000000000000000000000000000000000000000081526004016131a290615204565b60405180910390fd5b6131b4816128f5565b156131f4576040517f08c379a00000000000000000000000000000000000000000000000000000000081526004016131eb90615270565b60405180910390fd5b61320060008383612f1c565b6001600460008473ffffffffffffffffffffffffffffffffffffffff1673ffffffffffffffffffffffffffffffffffffffff1681526020019081526020016000206000828254613250919061481a565b92505081905550816003600083815260200190815260200160002060006101000a81548173ffffffffffffffffffffffffffffffffffffffff021916908373ffffffffffffffffffffffffffffffffffffffff160217905550808273ffffffffffffffffffffffffffffffffffffffff16600073ffffffffffffffffffffffffffffffffffffffff167fddf252ad1be2c89b69c2b068fc378daa952ba7f163c4a11628f55a4df523b3ef60405160405180910390a461331160008383612f21565b5050565b8280546133219061428c565b90600052602060002090601f016020900481019282613343576000855561338a565b82601f1061335c57803560ff191683800117855561338a565b8280016001018555821561338a579182015b8281111561338957823582559160200191906001019061336e565b5b509050613397919061345d565b5090565b6040518060e001604052806000815260200160608152602001600080191681526020016000801916815260200160006fffffffffffffffffffffffffffffffff16815260200160006fffffffffffffffffffffffffffffffff168152602001600073ffffffffffffffffffffffffffffffffffffffff1681525090565b6040518060a00160405280600073ffffffffffffffffffffffffffffffffffffffff168152602001606081526020016060815260200160008152602001600081525090565b5b8082111561347657600081600090555060010161345e565b5090565b6000604051905090565b600080fd5b600080fd5b600073ffffffffffffffffffffffffffffffffffffffff82169050919050565b60006134b98261348e565b9050919050565b6134c9816134ae565b81146134d457600080fd5b50565b6000813590506134e6816134c0565b92915050565b60006020828403121561350257613501613484565b5b6000613510848285016134d7565b91505092915050565b6000819050919050565b61352c81613519565b82525050565b60006020820190506135476000830184613523565b92915050565b60007fffffffff0000000000000000000000000000000000000000000000000000000082169050919050565b6135828161354d565b811461358d57600080fd5b50565b60008135905061359f81613579565b92915050565b6000602082840312156135bb576135ba613484565b5b60006135c984828501613590565b91505092915050565b60008115159050919050565b6135e7816135d2565b82525050565b600060208201905061360260008301846135de565b92915050565b600081519050919050565b600082825260208201905092915050565b60005b83811015613642578082015181840152602081019050613627565b83811115613651576000848401525b50505050565b6000601f19601f8301169050919050565b600061367382613608565b61367d8185613613565b935061368d818560208601613624565b61369681613657565b840191505092915050565b600060208201905081810360008301526136bb8184613668565b905092915050565b6136cc81613519565b81146136d757600080fd5b50565b6000813590506136e9816136c3565b92915050565b60006020828403121561370557613704613484565b5b6000613713848285016136da565b91505092915050565b613725816134ae565b82525050565b6000602082019050613740600083018461371c565b92915050565b6000806040838503121561375d5761375c613484565b5b600061376b858286016134d7565b925050602061377c858286016136da565b9150509250929050565b600080fd5b600080fd5b600080fd5b60008083601f8401126137ab576137aa613786565b5b8235905067ffffffffffffffff8111156137c8576137c761378b565b5b6020830191508360018202830111156137e4576137e3613790565b5b9250929050565b60008060008060006080868803121561380757613806613484565b5b6000613815888289016134d7565b9550506020613826888289016134d7565b9450506040613837888289016136da565b935050606086013567ffffffffffffffff81111561385857613857613489565b5b61386488828901613795565b92509250509295509295909350565b61387c8161354d565b82525050565b60006020820190506138976000830184613873565b92915050565b60008083601f8401126138b3576138b2613786565b5b8235905067ffffffffffffffff8111156138d0576138cf61378b565b5b6020830191508360018202830111156138ec576138eb613790565b5b9250929050565b600080600080600080608087890312156139105761390f613484565b5b600061391e89828a016136da565b965050602061392f89828a016136da565b955050604087013567ffffffffffffffff8111156139505761394f613489565b5b61395c89828a0161389d565b9450945050606087013567ffffffffffffffff81111561397f5761397e613489565b5b61398b89828a0161389d565b92509250509295509295509295565b6000806000606084860312156139b3576139b2613484565b5b60006139c1868287016134d7565b93505060206139d2868287016134d7565b92505060406139e3868287016136da565b9150509250925092565b6139f681613519565b82525050565b600082825260208201905092915050565b6000613a1882613608565b613a2281856139fc565b9350613a32818560208601613624565b613a3b81613657565b840191505092915050565b6000819050919050565b613a5981613a46565b82525050565b60006fffffffffffffffffffffffffffffffff82169050919050565b613a8481613a5f565b82525050565b613a93816134ae565b82525050565b600060e083016000830151613ab160008601826139ed565b5060208301518482036020860152613ac98282613a0d565b9150506040830151613ade6040860182613a50565b506060830151613af16060860182613a50565b506080830151613b046080860182613a7b565b5060a0830151613b1760a0860182613a7b565b5060c0830151613b2a60c0860182613a8a565b508091505092915050565b60006020820190508181036000830152613b4f8184613a99565b905092915050565b600080600060608486031215613b7057613b6f613484565b5b6000613b7e868287016134d7565b9350506020613b8f868287016136da565b9250506040613ba0868287016136da565b9150509250925092565b600081519050919050565b600082825260208201905092915050565b6000819050602082019050919050565b600060e083016000830151613bee60008601826139ed565b5060208301518482036020860152613c068282613a0d565b9150506040830151613c1b6040860182613a50565b506060830151613c2e6060860182613a50565b506080830151613c416080860182613a7b565b5060a0830151613c5460a0860182613a7b565b5060c0830151613c6760c0860182613a8a565b508091505092915050565b6000613c7e8383613bd6565b905092915050565b6000602082019050919050565b6000613c9e82613baa565b613ca88185613bb5565b935083602082028501613cba85613bc6565b8060005b85811015613cf65784840389528151613cd78582613c72565b9450613ce283613c86565b925060208a01995050600181019050613cbe565b50829750879550505050505092915050565b60006020820190508181036000830152613d228184613c93565b905092915050565b613d33816135d2565b8114613d3e57600080fd5b50565b600081359050613d5081613d2a565b92915050565b60008060408385031215613d6d57613d6c613484565b5b6000613d7b858286016134d7565b9250506020613d8c85828601613d41565b9150509250929050565b600080fd5b7f4e487b7100000000000000000000000000000000000000000000000000000000600052604160045260246000fd5b613dd382613657565b810181811067ffffffffffffffff82111715613df257613df1613d9b565b5b80604052505050565b6000613e0561347a565b9050613e118282613dca565b919050565b600067ffffffffffffffff821115613e3157613e30613d9b565b5b613e3a82613657565b9050602081019050919050565b82818337600083830152505050565b6000613e69613e6484613e16565b613dfb565b905082815260208101848484011115613e8557613e84613d96565b5b613e90848285613e47565b509392505050565b600082601f830112613ead57613eac613786565b5b8135613ebd848260208601613e56565b91505092915050565b60008060008060808587031215613ee057613edf613484565b5b6000613eee878288016134d7565b9450506020613eff878288016134d7565b9350506040613f10878288016136da565b925050606085013567ffffffffffffffff811115613f3157613f30613489565b5b613f3d87828801613e98565b91505092959194509250565b60008060408385031215613f6057613f5f613484565b5b6000613f6e858286016136da565b9250506020613f7f858286016136da565b9150509250929050565b600080600060408486031215613fa257613fa1613484565b5b6000613fb0868287016136da565b935050602084013567ffffffffffffffff811115613fd157613fd0613489565b5b613fdd8682870161389d565b92509250509250925092565b6000806040838503121561400057613fff613484565b5b600061400e858286016134d7565b925050602061401f858286016134d7565b9150509250929050565b600060a0830160008301516140416000860182613a8a565b50602083015184820360208601526140598282613a0d565b915050604083015184820360408601526140738282613a0d565b915050606083015161408860608601826139ed565b50608083015161409b60808601826139ed565b508091505092915050565b600060208201905081810360008301526140c08184614029565b905092915050565b600080600080606085870312156140e2576140e1613484565b5b60006140f0878288016134d7565b9450506020614101878288016136da565b935050604085013567ffffffffffffffff81111561412257614121613489565b5b61412e87828801613795565b925092505092959194509250565b600067ffffffffffffffff82111561415757614156613d9b565b5b602082029050602081019050919050565b600081519050614177816136c3565b92915050565b600061419061418b8461413c565b613dfb565b905080838252602082019050602084028301858111156141b3576141b2613790565b5b835b818110156141dc57806141c88882614168565b8452602084019350506020810190506141b5565b5050509392505050565b600082601f8301126141fb576141fa613786565b5b815161420b84826020860161417d565b91505092915050565b60006020828403121561422a57614229613484565b5b600082015167ffffffffffffffff81111561424857614247613489565b5b614254848285016141e6565b91505092915050565b7f4e487b7100000000000000000000000000000000000000000000000000000000600052602260045260246000fd5b600060028204905060018216806142a457607f821691505b602082108114156142b8576142b761425d565b5b50919050565b7f4552433732313a20617070726f76616c20746f2063757272656e74206f776e6560008201527f7200000000000000000000000000000000000000000000000000000000000000602082015250565b600061431a602183613613565b9150614325826142be565b604082019050919050565b600060208201905081810360008301526143498161430d565b9050919050565b7f4552433732313a20617070726f76652063616c6c6572206973206e6f7420746f60008201527f6b656e206f776e6572206e6f7220617070726f76656420666f7220616c6c0000602082015250565b60006143ac603e83613613565b91506143b782614350565b604082019050919050565b600060208201905081810360008301526143db8161439f565b9050919050565b6000602082840312156143f8576143f7613484565b5b600061440684828501614168565b91505092915050565b7f4552433732313a2063616c6c6572206973206e6f7420746f6b656e206f776e6560008201527f72206e6f7220617070726f766564000000000000000000000000000000000000602082015250565b600061446b602e83613613565b91506144768261440f565b604082019050919050565b6000602082019050818103600083015261449a8161445e565b9050919050565b6000815190506144b0816134c0565b92915050565b6000602082840312156144cc576144cb613484565b5b60006144da848285016144a1565b91505092915050565b600081905092915050565b50565b60006144fe6000836144e3565b9150614509826144ee565b600082019050919050565b600061451f826144f1565b9150819050919050565b7f5641554c545f5452414e534645525f4641494c45440000000000000000000000600082015250565b600061455f601583613613565b915061456a82614529565b602082019050919050565b6000602082019050818103600083015261458e81614552565b9050919050565b7f4552433732313a2061646472657373207a65726f206973206e6f74206120766160008201527f6c6964206f776e65720000000000000000000000000000000000000000000000602082015250565b60006145f1602983613613565b91506145fc82614595565b604082019050919050565b60006020820190508181036000830152614620816145e4565b9050919050565b600067ffffffffffffffff82111561464257614641613d9b565b5b61464b82613657565b9050602081019050919050565b600061466b61466684614627565b613dfb565b90508281526020810184848401111561468757614686613d96565b5b614692848285613624565b509392505050565b600082601f8301126146af576146ae613786565b5b81516146bf848260208601614658565b91505092915050565b6146d181613a46565b81146146dc57600080fd5b50565b6000815190506146ee816146c8565b92915050565b6146fd81613a5f565b811461470857600080fd5b50565b60008151905061471a816146f4565b92915050565b600080600080600060a0868803121561473c5761473b613484565b5b600086015167ffffffffffffffff81111561475a57614759613489565b5b6147668882890161469a565b9550506020614777888289016146df565b9450506040614788888289016146df565b93505060606147998882890161470b565b92505060806147aa8882890161470b565b9150509295509295909350565b7f4e487b7100000000000000000000000000000000000000000000000000000000600052601160045260246000fd5b60006147f182613519565b91506147fc83613519565b92508282101561480f5761480e6147b7565b5b828203905092915050565b600061482582613519565b915061483083613519565b9250827fffffffffffffffffffffffffffffffffffffffffffffffffffffffffffffffff03821115614865576148646147b7565b5b828201905092915050565b7f4e487b7100000000000000000000000000000000000000000000000000000000600052603260045260246000fd5b60006148aa82613519565b91507fffffffffffffffffffffffffffffffffffffffffffffffffffffffffffffffff8214156148dd576148dc6147b7565b5b600182019050919050565b600081905092915050565b60006148fe82613608565b61490881856148e8565b9350614918818560208601613624565b80840191505092915050565b600061493082856148f3565b915061493c82846148f3565b91508190509392505050565b7f544f4b454e5f4e4f545f57524150504544000000000000000000000000000000600082015250565b600061497e601183613613565b915061498982614948565b602082019050919050565b600060208201905081810360008301526149ad81614971565b9050919050565b7f4e4f545f4f574e4552535f544f4b454e00000000000000000000000000000000600082015250565b60006149ea601083613613565b91506149f5826149b4565b602082019050919050565b60006020820190508181036000830152614a19816149dd565b9050919050565b6000606082019050614a35600083018661371c565b614a42602083018561371c565b614a4f6040830184613523565b949350505050565b6000604082019050614a6c6000830185613523565b614a79602083018461371c565b9392505050565b7f544f4b454e5f4e4f545f4f574e45520000000000000000000000000000000000600082015250565b6000614ab6600f83613613565b9150614ac182614a80565b602082019050919050565b60006020820190508181036000830152614ae581614aa9565b9050919050565b7f4d41524b4554504c4143455f44495341424c4544000000000000000000000000600082015250565b6000614b22601483613613565b9150614b2d82614aec565b602082019050919050565b60006020820190508181036000830152614b5181614b15565b9050919050565b6000614b648385613613565b9350614b71838584613e47565b614b7a83613657565b840190509392505050565b6000604082019050614b9a6000830186613523565b8181036020830152614bad818486614b58565b9050949350505050565b7f544f4b454e5f4c494d49545f5245414348454400000000000000000000000000600082015250565b6000614bed601383613613565b9150614bf882614bb7565b602082019050919050565b60006020820190508181036000830152614c1c81614be0565b9050919050565b7f544f4b454e5f414c52454144595f575241505045440000000000000000000000600082015250565b6000614c59601583613613565b9150614c6482614c23565b602082019050919050565b60006020820190508181036000830152614c8881614c4c565b9050919050565b6000604082019050614ca46000830185613523565b614cb16020830184613523565b9392505050565b7f4f776e61626c653a206e6577206f776e657220697320746865207a65726f206160008201527f6464726573730000000000000000000000000000000000000000000000000000602082015250565b6000614d14602683613613565b9150614d1f82614cb8565b604082019050919050565b60006020820190508181036000830152614d4381614d07565b9050919050565b7f4552433732313a20696e76616c696420746f6b656e2049440000000000000000600082015250565b6000614d80601883613613565b9150614d8b82614d4a565b602082019050919050565b60006020820190508181036000830152614daf81614d73565b9050919050565b7f4f776e61626c653a2063616c6c6572206973206e6f7420746865206f776e6572600082015250565b6000614dec602083613613565b9150614df782614db6565b602082019050919050565b60006020820190508181036000830152614e1b81614ddf565b9050919050565b7f4552433732313a207472616e736665722066726f6d20696e636f72726563742060008201527f6f776e6572000000000000000000000000000000000000000000000000000000602082015250565b6000614e7e602583613613565b9150614e8982614e22565b604082019050919050565b60006020820190508181036000830152614ead81614e71565b9050919050565b7f4552433732313a207472616e7366657220746f20746865207a65726f2061646460008201527f7265737300000000000000000000000000000000000000000000000000000000602082015250565b6000614f10602483613613565b9150614f1b82614eb4565b604082019050919050565b60006020820190508181036000830152614f3f81614f03565b9050919050565b7f4552433732313a20617070726f766520746f2063616c6c657200000000000000600082015250565b6000614f7c601983613613565b9150614f8782614f46565b602082019050919050565b60006020820190508181036000830152614fab81614f6f565b9050919050565b7f4552433732313a207472616e7366657220746f206e6f6e20455243373231526560008201527f63656976657220696d706c656d656e7465720000000000000000000000000000602082015250565b600061500e603283613613565b915061501982614fb2565b604082019050919050565b6000602082019050818103600083015261503d81615001565b9050919050565b7f4e487b7100000000000000000000000000000000000000000000000000000000600052601260045260246000fd5b600061507e82613519565b915061508983613519565b92508261509957615098615044565b5b828204905092915050565b60006150af82613519565b91506150ba83613519565b9250826150ca576150c9615044565b5b828206905092915050565b600081519050919050565b600082825260208201905092915050565b60006150fc826150d5565b61510681856150e0565b9350615116818560208601613624565b61511f81613657565b840191505092915050565b600060808201905061513f600083018761371c565b61514c602083018661371c565b6151596040830185613523565b818103606083015261516b81846150f1565b905095945050505050565b60008151905061518581613579565b92915050565b6000602082840312156151a1576151a0613484565b5b60006151af84828501615176565b91505092915050565b7f4552433732313a206d696e7420746f20746865207a65726f2061646472657373600082015250565b60006151ee602083613613565b91506151f9826151b8565b602082019050919050565b6000602082019050818103600083015261521d816151e1565b9050919050565b7f4552433732313a20746f6b656e20616c7265616479206d696e74656400000000600082015250565b600061525a601c83613613565b915061526582615224565b602082019050919050565b600060208201905081810360008301526152898161524d565b905091905056fea2646970667358221220b9558e1662f7aca0af637e30c4aebdb1e86f0f8c8ae97bde9f75ded68298282d64736f6c6343000809003368747470733a2f2f6e65787573756c74696d612e636f6d2f69706376302f636f6e74726163742f68747470733a2f2f6e65787573756c74696d612e636f6d2f69706376302f746f6b656e732f",
  "linkReferences": {},
  "deployedLinkReferences": {}
}