{
  "_format": "hh-sol-artifact-1",
  "contractName": "IPCWrapper",
  "sourceName": "contracts/IPCWrapper.sol",
  "abi": [
    {
      "inputs": [],
      "stateMutability": "nonpayable",
      "type": "constructor"
    },
    {
      "anonymous": false,
      "inputs": [
        {
          "indexed": true,
          "internalType": "address",
          "name": "owner",
          "type": "address"
        },
        {
          "indexed": true,
          "internalType": "address",
          "name": "approved",
          "type": "address"
        },
        {
          "indexed": true,
          "internalType": "uint256",
          "name": "tokenId",
          "type": "uint256"
        }
      ],
      "name": "Approval",
      "type": "event"
    },
    {
      "anonymous": false,
      "inputs": [
        {
          "indexed": true,
          "internalType": "address",
          "name": "owner",
          "type": "address"
        },
        {
          "indexed": true,
          "internalType": "address",
          "name": "operator",
          "type": "address"
        },
        {
          "indexed": false,
          "internalType": "bool",
          "name": "approved",
          "type": "bool"
        }
      ],
      "name": "ApprovalForAll",
      "type": "event"
    },
    {
      "anonymous": false,
      "inputs": [
        {
          "indexed": true,
          "internalType": "address",
          "name": "previousOwner",
          "type": "address"
        },
        {
          "indexed": true,
          "internalType": "address",
          "name": "newOwner",
          "type": "address"
        }
      ],
      "name": "OwnershipTransferred",
      "type": "event"
    },
    {
      "anonymous": false,
      "inputs": [
        {
          "indexed": true,
          "internalType": "address",
          "name": "from",
          "type": "address"
        },
        {
          "indexed": true,
          "internalType": "address",
          "name": "to",
          "type": "address"
        },
        {
          "indexed": true,
          "internalType": "uint256",
          "name": "tokenId",
          "type": "uint256"
        }
      ],
      "name": "Transfer",
      "type": "event"
    },
    {
      "anonymous": false,
      "inputs": [
        {
          "indexed": false,
          "internalType": "uint256",
          "name": "tokenId",
          "type": "uint256"
        },
        {
          "indexed": false,
          "internalType": "address",
          "name": "owner",
          "type": "address"
        }
      ],
      "name": "Unwrapped",
      "type": "event"
    },
    {
      "anonymous": false,
      "inputs": [
        {
          "indexed": false,
          "internalType": "uint256",
          "name": "tokenId",
          "type": "uint256"
        },
        {
          "indexed": false,
          "internalType": "address",
          "name": "owner",
          "type": "address"
        }
      ],
      "name": "Wrapped",
      "type": "event"
    },
    {
      "anonymous": false,
      "inputs": [
        {
          "indexed": false,
          "internalType": "uint256",
          "name": "tokenId",
          "type": "uint256"
        },
        {
          "indexed": false,
          "internalType": "string",
          "name": "name",
          "type": "string"
        }
      ],
      "name": "nameChangeOK",
      "type": "event"
    },
    {
      "inputs": [
        {
          "internalType": "address",
          "name": "to",
          "type": "address"
        },
        {
          "internalType": "uint256",
          "name": "tokenId",
          "type": "uint256"
        }
      ],
      "name": "approve",
      "outputs": [],
      "stateMutability": "nonpayable",
      "type": "function"
    },
    {
      "inputs": [
        {
          "internalType": "address",
          "name": "owner",
          "type": "address"
        }
      ],
      "name": "balanceOf",
      "outputs": [
        {
          "internalType": "uint256",
          "name": "",
          "type": "uint256"
        }
      ],
      "stateMutability": "view",
      "type": "function"
    },
    {
      "inputs": [
        {
          "internalType": "uint256",
          "name": "tokenId",
          "type": "uint256"
        },
        {
          "internalType": "string",
          "name": "newName",
          "type": "string"
        }
      ],
      "name": "changeIpcName",
      "outputs": [],
      "stateMutability": "payable",
      "type": "function"
    },
    {
      "inputs": [],
      "name": "contractURI",
      "outputs": [
        {
          "internalType": "string",
          "name": "",
          "type": "string"
        }
      ],
      "stateMutability": "view",
      "type": "function"
    },
    {
      "inputs": [
        {
          "internalType": "uint256",
          "name": "tokenId",
          "type": "uint256"
        }
      ],
      "name": "getApproved",
      "outputs": [
        {
          "internalType": "address",
          "name": "",
          "type": "address"
        }
      ],
      "stateMutability": "view",
      "type": "function"
    },
    {
      "inputs": [
        {
          "internalType": "uint256",
          "name": "tokenId",
          "type": "uint256"
        }
      ],
      "name": "getIpc",
      "outputs": [
        {
          "components": [
            {
              "internalType": "uint256",
              "name": "tokenId",
              "type": "uint256"
            },
            {
              "internalType": "string",
              "name": "name",
              "type": "string"
            },
            {
              "internalType": "bytes32",
              "name": "attributeSeed",
              "type": "bytes32"
            },
            {
              "internalType": "bytes32",
              "name": "dna",
              "type": "bytes32"
            },
            {
              "internalType": "uint128",
              "name": "experience",
              "type": "uint128"
            },
            {
              "internalType": "uint128",
              "name": "timeOfBirth",
              "type": "uint128"
            },
            {
              "internalType": "address",
              "name": "owner",
              "type": "address"
            }
          ],
          "internalType": "struct IPCWrapper.t_raw_ipc",
          "name": "",
          "type": "tuple"
        }
      ],
      "stateMutability": "view",
      "type": "function"
    },
    {
      "inputs": [],
      "name": "getProperties",
      "outputs": [
        {
          "components": [
            {
              "internalType": "address",
              "name": "contractAdress",
              "type": "address"
            },
            {
              "internalType": "string",
              "name": "tokenURI",
              "type": "string"
            },
            {
              "internalType": "string",
              "name": "contractURI",
              "type": "string"
            },
            {
              "internalType": "uint256",
              "name": "maxPrice",
              "type": "uint256"
            },
            {
              "internalType": "uint256",
              "name": "tokenLimit",
              "type": "uint256"
            },
            {
              "internalType": "bool",
              "name": "marketPlaceEnabled",
              "type": "bool"
            }
          ],
          "internalType": "struct IPCWrapper.t_properties",
          "name": "",
          "type": "tuple"
        }
      ],
      "stateMutability": "view",
      "type": "function"
    },
    {
      "inputs": [
        {
          "internalType": "address",
          "name": "owner",
          "type": "address"
        },
        {
          "internalType": "uint256",
          "name": "startIndex",
          "type": "uint256"
        },
        {
          "internalType": "uint256",
          "name": "total",
          "type": "uint256"
        }
      ],
      "name": "getTokensOfOwner",
      "outputs": [
        {
          "components": [
            {
              "internalType": "uint256",
              "name": "tokenId",
              "type": "uint256"
            },
            {
              "internalType": "string",
              "name": "name",
              "type": "string"
            },
            {
              "internalType": "bytes32",
              "name": "attributeSeed",
              "type": "bytes32"
            },
            {
              "internalType": "bytes32",
              "name": "dna",
              "type": "bytes32"
            },
            {
              "internalType": "uint128",
              "name": "experience",
              "type": "uint128"
            },
            {
              "internalType": "uint128",
              "name": "timeOfBirth",
              "type": "uint128"
            },
            {
              "internalType": "address",
              "name": "owner",
              "type": "address"
            }
          ],
          "internalType": "struct IPCWrapper.t_raw_ipc[]",
          "name": "",
          "type": "tuple[]"
        }
      ],
      "stateMutability": "view",
      "type": "function"
    },
    {
      "inputs": [
        {
          "internalType": "address",
          "name": "owner",
          "type": "address"
        },
        {
          "internalType": "address",
          "name": "operator",
          "type": "address"
        }
      ],
      "name": "isApprovedForAll",
      "outputs": [
        {
          "internalType": "bool",
          "name": "",
          "type": "bool"
        }
      ],
      "stateMutability": "view",
      "type": "function"
    },
    {
      "inputs": [],
      "name": "name",
      "outputs": [
        {
          "internalType": "string",
          "name": "",
          "type": "string"
        }
      ],
      "stateMutability": "view",
      "type": "function"
    },
    {
      "inputs": [
        {
          "internalType": "address",
          "name": "",
          "type": "address"
        },
        {
          "internalType": "address",
          "name": "",
          "type": "address"
        },
        {
          "internalType": "uint256",
          "name": "",
          "type": "uint256"
        },
        {
          "internalType": "bytes",
          "name": "",
          "type": "bytes"
        }
      ],
      "name": "onERC721Received",
      "outputs": [
        {
          "internalType": "bytes4",
          "name": "",
          "type": "bytes4"
        }
      ],
      "stateMutability": "pure",
      "type": "function"
    },
    {
      "inputs": [
        {
          "internalType": "address",
          "name": "",
          "type": "address"
        },
        {
          "internalType": "uint256",
          "name": "",
          "type": "uint256"
        },
        {
          "internalType": "bytes",
          "name": "",
          "type": "bytes"
        }
      ],
      "name": "onERC721Received",
      "outputs": [
        {
          "internalType": "bytes4",
          "name": "",
          "type": "bytes4"
        }
      ],
      "stateMutability": "pure",
      "type": "function"
    },
    {
      "inputs": [],
      "name": "owner",
      "outputs": [
        {
          "internalType": "address",
          "name": "",
          "type": "address"
        }
      ],
      "stateMutability": "view",
      "type": "function"
    },
    {
      "inputs": [
        {
          "internalType": "uint256",
          "name": "tokenId",
          "type": "uint256"
        }
      ],
      "name": "ownerOf",
      "outputs": [
        {
          "internalType": "address",
          "name": "",
          "type": "address"
        }
      ],
      "stateMutability": "view",
      "type": "function"
    },
    {
      "inputs": [],
      "name": "renounceOwnership",
      "outputs": [],
      "stateMutability": "nonpayable",
      "type": "function"
    },
    {
      "inputs": [
        {
          "internalType": "address",
          "name": "from",
          "type": "address"
        },
        {
          "internalType": "address",
          "name": "to",
          "type": "address"
        },
        {
          "internalType": "uint256",
          "name": "tokenId",
          "type": "uint256"
        }
      ],
      "name": "safeTransferFrom",
      "outputs": [],
      "stateMutability": "nonpayable",
      "type": "function"
    },
    {
      "inputs": [
        {
          "internalType": "address",
          "name": "from",
          "type": "address"
        },
        {
          "internalType": "address",
          "name": "to",
          "type": "address"
        },
        {
          "internalType": "uint256",
          "name": "tokenId",
          "type": "uint256"
        },
        {
          "internalType": "bytes",
          "name": "data",
          "type": "bytes"
        }
      ],
      "name": "safeTransferFrom",
      "outputs": [],
      "stateMutability": "nonpayable",
      "type": "function"
    },
    {
      "inputs": [
        {
          "internalType": "address",
          "name": "operator",
          "type": "address"
        },
        {
          "internalType": "bool",
          "name": "approved",
          "type": "bool"
        }
      ],
      "name": "setApprovalForAll",
      "outputs": [],
      "stateMutability": "nonpayable",
      "type": "function"
    },
    {
      "inputs": [
        {
          "internalType": "address",
          "name": "_contractAddress",
          "type": "address"
        }
      ],
      "name": "setContractAddress",
      "outputs": [],
      "stateMutability": "nonpayable",
      "type": "function"
    },
    {
      "inputs": [
        {
          "internalType": "string",
          "name": "__tokenURI",
          "type": "string"
        },
        {
          "internalType": "string",
          "name": "__contractURI",
          "type": "string"
        }
      ],
      "name": "setMetaDataURIs",
      "outputs": [],
      "stateMutability": "nonpayable",
      "type": "function"
    },
    {
      "inputs": [
        {
          "internalType": "uint256",
          "name": "_maxPrice",
          "type": "uint256"
        },
        {
          "internalType": "uint256",
          "name": "_tokenLimit",
          "type": "uint256"
        },
        {
          "internalType": "bool",
          "name": "_marketPlaceEnabled",
          "type": "bool"
        }
      ],
      "name": "setTokenomics",
      "outputs": [],
      "stateMutability": "nonpayable",
      "type": "function"
    },
    {
      "inputs": [
        {
          "internalType": "bytes4",
          "name": "interfaceId",
          "type": "bytes4"
        }
      ],
      "name": "supportsInterface",
      "outputs": [
        {
          "internalType": "bool",
          "name": "",
          "type": "bool"
        }
      ],
      "stateMutability": "view",
      "type": "function"
    },
    {
      "inputs": [],
      "name": "symbol",
      "outputs": [
        {
          "internalType": "string",
          "name": "",
          "type": "string"
        }
      ],
      "stateMutability": "view",
      "type": "function"
    },
    {
      "inputs": [
        {
          "internalType": "uint256",
          "name": "tokenId",
          "type": "uint256"
        }
      ],
      "name": "tokenURI",
      "outputs": [
        {
          "internalType": "string",
          "name": "",
          "type": "string"
        }
      ],
      "stateMutability": "view",
      "type": "function"
    },
    {
      "inputs": [],
      "name": "totalSupply",
      "outputs": [
        {
          "internalType": "uint256",
          "name": "",
          "type": "uint256"
        }
      ],
      "stateMutability": "view",
      "type": "function"
    },
    {
      "inputs": [
        {
          "internalType": "address",
          "name": "from",
          "type": "address"
        },
        {
          "internalType": "address",
          "name": "to",
          "type": "address"
        },
        {
          "internalType": "uint256",
          "name": "tokenId",
          "type": "uint256"
        }
      ],
      "name": "transferFrom",
      "outputs": [],
      "stateMutability": "nonpayable",
      "type": "function"
    },
    {
      "inputs": [
        {
          "internalType": "address",
          "name": "newOwner",
          "type": "address"
        }
      ],
      "name": "transferOwnership",
      "outputs": [],
      "stateMutability": "nonpayable",
      "type": "function"
    },
    {
      "inputs": [
        {
          "internalType": "uint256",
          "name": "tokenId",
          "type": "uint256"
        }
      ],
      "name": "unwrap",
      "outputs": [],
      "stateMutability": "nonpayable",
      "type": "function"
    },
    {
      "inputs": [
        {
          "internalType": "address",
          "name": "owner",
          "type": "address"
        }
      ],
      "name": "uwBalanceOf",
      "outputs": [
        {
          "internalType": "uint256",
          "name": "",
          "type": "uint256"
        }
      ],
      "stateMutability": "view",
      "type": "function"
    },
    {
      "inputs": [
        {
          "internalType": "uint256",
          "name": "startIndex",
          "type": "uint256"
        },
        {
          "internalType": "uint256",
          "name": "total",
          "type": "uint256"
        }
      ],
      "name": "uwGetAllTokens",
      "outputs": [
        {
          "components": [
            {
              "internalType": "uint256",
              "name": "tokenId",
              "type": "uint256"
            },
            {
              "internalType": "string",
              "name": "name",
              "type": "string"
            },
            {
              "internalType": "bytes32",
              "name": "attributeSeed",
              "type": "bytes32"
            },
            {
              "internalType": "bytes32",
              "name": "dna",
              "type": "bytes32"
            },
            {
              "internalType": "uint128",
              "name": "experience",
              "type": "uint128"
            },
            {
              "internalType": "uint128",
              "name": "timeOfBirth",
              "type": "uint128"
            },
            {
              "internalType": "address",
              "name": "owner",
              "type": "address"
            }
          ],
          "internalType": "struct IPCWrapper.t_raw_ipc[]",
          "name": "",
          "type": "tuple[]"
        }
      ],
      "stateMutability": "view",
      "type": "function"
    },
    {
      "inputs": [
        {
          "internalType": "address",
          "name": "owner",
          "type": "address"
        }
      ],
      "name": "uwGetTokenIdsOfOwner",
      "outputs": [
        {
          "internalType": "uint256[]",
          "name": "",
          "type": "uint256[]"
        }
      ],
      "stateMutability": "view",
      "type": "function"
    },
    {
      "inputs": [
        {
          "internalType": "address",
          "name": "owner",
          "type": "address"
        },
        {
          "internalType": "uint256",
          "name": "startIndex",
          "type": "uint256"
        },
        {
          "internalType": "uint256",
          "name": "total",
          "type": "uint256"
        }
      ],
      "name": "uwGetTokensOfOwner",
      "outputs": [
        {
          "components": [
            {
              "internalType": "uint256",
              "name": "tokenId",
              "type": "uint256"
            },
            {
              "internalType": "string",
              "name": "name",
              "type": "string"
            },
            {
              "internalType": "bytes32",
              "name": "attributeSeed",
              "type": "bytes32"
            },
            {
              "internalType": "bytes32",
              "name": "dna",
              "type": "bytes32"
            },
            {
              "internalType": "uint128",
              "name": "experience",
              "type": "uint128"
            },
            {
              "internalType": "uint128",
              "name": "timeOfBirth",
              "type": "uint128"
            },
            {
              "internalType": "address",
              "name": "owner",
              "type": "address"
            }
          ],
          "internalType": "struct IPCWrapper.t_raw_ipc[]",
          "name": "",
          "type": "tuple[]"
        }
      ],
      "stateMutability": "view",
      "type": "function"
    },
    {
      "inputs": [
        {
          "internalType": "uint256",
          "name": "tokenId",
          "type": "uint256"
        }
      ],
      "name": "uwOwnerOf",
      "outputs": [
        {
          "internalType": "address",
          "name": "",
          "type": "address"
        }
      ],
      "stateMutability": "view",
      "type": "function"
    },
    {
      "inputs": [
        {
          "internalType": "address",
          "name": "owner",
          "type": "address"
        }
      ],
      "name": "wGetTokenIdsOfOwner",
      "outputs": [
        {
          "internalType": "uint256[]",
          "name": "",
          "type": "uint256[]"
        }
      ],
      "stateMutability": "view",
      "type": "function"
    },
    {
      "inputs": [
        {
          "internalType": "uint256",
          "name": "tokenId",
          "type": "uint256"
        }
      ],
      "name": "wOwnerOf",
      "outputs": [
        {
          "internalType": "address",
          "name": "",
          "type": "address"
        }
      ],
      "stateMutability": "view",
      "type": "function"
    },
    {
      "inputs": [],
      "name": "withdrawalVault",
      "outputs": [],
      "stateMutability": "nonpayable",
      "type": "function"
    },
    {
      "inputs": [
        {
          "internalType": "uint256",
          "name": "tokenId",
          "type": "uint256"
        }
      ],
      "name": "wrap",
      "outputs": [],
      "stateMutability": "nonpayable",
      "type": "function"
    }
  ],
  "bytecode": "0x60806040523480156200001157600080fd5b506040518060400160405280601d81526020017f496d6d6f7274616c20506c6179657220436861726163746572732076300000008152506040518060400160405280600581526020017f49504356300000000000000000000000000000000000000000000000000000008152506200009e62000092620001bf60201b60201c565b620001c760201b60201c565b8160019080519060200190620000b69291906200028b565b508060029080519060200190620000cf9291906200028b565b50505073c8f17e7a7911a409abb8e24668d5e24956d5cacc600760006101000a81548173ffffffffffffffffffffffffffffffffffffffff021916908373ffffffffffffffffffffffffffffffffffffffff16021790555060405180606001604052806025815260200162005a1c6025913960089080519060200190620001589291906200028b565b50604051806060016040528060278152602001620059f560279139600990805190602001906200018a9291906200028b565b50620f4240600a819055506103e8600b819055506001600c60006101000a81548160ff021916908315150217905550620003a0565b600033905090565b60008060009054906101000a900473ffffffffffffffffffffffffffffffffffffffff169050816000806101000a81548173ffffffffffffffffffffffffffffffffffffffff021916908373ffffffffffffffffffffffffffffffffffffffff1602179055508173ffffffffffffffffffffffffffffffffffffffff168173ffffffffffffffffffffffffffffffffffffffff167f8be0079c531659141344cd1fd0a4f28419497f9722a3daafe3b4186f6b6457e060405160405180910390a35050565b82805462000299906200036a565b90600052602060002090601f016020900481019282620002bd576000855562000309565b82601f10620002d857805160ff191683800117855562000309565b8280016001018555821562000309579182015b8281111562000308578251825591602001919060010190620002eb565b5b5090506200031891906200031c565b5090565b5b80821115620003375760008160009055506001016200031d565b5090565b7f4e487b7100000000000000000000000000000000000000000000000000000000600052602260045260246000fd5b600060028204905060018216806200038357607f821691505b602082108114156200039a57620003996200033b565b5b50919050565b61564580620003b06000396000f3fe60806040526004361061021a5760003560e01c80638da5cb5b11610123578063d764600d116100ab578063e985e9c51161006f578063e985e9c514610844578063ea598cb014610881578063ec0cfd0b146108aa578063f0b9e5ba146108d5578063f2fde38b146109125761021a565b8063d764600d1461075a578063de0e9a3e14610797578063dfb31a7c146107c0578063e44141a9146107dc578063e8a3d485146108195761021a565b8063a81464da116100f2578063a81464da14610651578063b4f01a021461067a578063b88d4fde146106b7578063c2619d13146106e0578063c87b56dd1461071d5761021a565b80638da5cb5b1461059557806395d89b41146105c05780639c474702146105eb578063a22cb465146106285761021a565b8063367213df116101a657806369d421481161017557806369d42148146104b057806370a08231146104c7578063715018a6146105045780637fff1e2f1461051b57806389edc438146105585761021a565b8063367213df146103f857806342842e0e14610421578063477bddaa1461044a5780636352211e146104735761021a565b8063081812fc116101ed578063081812fc14610301578063095ea7b31461033e578063150b7a021461036757806318160ddd146103a457806323b872dd146103cf5761021a565b8063013abd6c1461021f57806301ffc9a71461025c5780630280276a1461029957806306fdde03146102d6575b600080fd5b34801561022b57600080fd5b506102466004803603810190610241919061374b565b61093b565b6040516102539190613791565b60405180910390f35b34801561026857600080fd5b50610283600480360381019061027e9190613804565b6109fa565b604051610290919061384c565b60405180910390f35b3480156102a557600080fd5b506102c060048036038101906102bb919061374b565b610adc565b6040516102cd9190613925565b60405180910390f35b3480156102e257600080fd5b506102eb610b79565b6040516102f891906139e0565b60405180910390f35b34801561030d57600080fd5b5061032860048036038101906103239190613a2e565b610c0b565b6040516103359190613a6a565b60405180910390f35b34801561034a57600080fd5b5061036560048036038101906103609190613a85565b610c51565b005b34801561037357600080fd5b5061038e60048036038101906103899190613b2a565b610d69565b60405161039b9190613bc1565b60405180910390f35b3480156103b057600080fd5b506103b9610d7e565b6040516103c69190613791565b60405180910390f35b3480156103db57600080fd5b506103f660048036038101906103f19190613bdc565b610e25565b005b34801561040457600080fd5b5061041f600480360381019061041a9190613c5b565b610e85565b005b34801561042d57600080fd5b5061044860048036038101906104439190613bdc565b610eba565b005b34801561045657600080fd5b50610471600480360381019061046c919061374b565b610eda565b005b34801561047f57600080fd5b5061049a60048036038101906104959190613a2e565b610f26565b6040516104a79190613a6a565b60405180910390f35b3480156104bc57600080fd5b506104c5610fff565b005b3480156104d357600080fd5b506104ee60048036038101906104e9919061374b565b6110b6565b6040516104fb9190613791565b60405180910390f35b34801561051057600080fd5b5061051961116e565b005b34801561052757600080fd5b50610542600480360381019061053d9190613a2e565b611182565b60405161054f9190613de7565b60405180910390f35b34801561056457600080fd5b5061057f600480360381019061057a9190613e09565b6112d9565b60405161058c9190613fba565b60405180910390f35b3480156105a157600080fd5b506105aa6114be565b6040516105b79190613a6a565b60405180910390f35b3480156105cc57600080fd5b506105d56114e7565b6040516105e291906139e0565b60405180910390f35b3480156105f757600080fd5b50610612600480360381019061060d919061374b565b611579565b60405161061f9190613925565b60405180910390f35b34801561063457600080fd5b5061064f600480360381019061064a9190613fdc565b611638565b005b34801561065d57600080fd5b5061067860048036038101906106739190614072565b61164e565b005b34801561068657600080fd5b506106a1600480360381019061069c9190613a2e565b611680565b6040516106ae9190613a6a565b60405180910390f35b3480156106c357600080fd5b506106de60048036038101906106d99190614223565b611734565b005b3480156106ec57600080fd5b50610707600480360381019061070291906142a6565b611796565b6040516107149190613fba565b60405180910390f35b34801561072957600080fd5b50610744600480360381019061073f9190613a2e565b6118e0565b60405161075191906139e0565b60405180910390f35b34801561076657600080fd5b50610781600480360381019061077c9190613e09565b611948565b60405161078e9190613fba565b60405180910390f35b3480156107a357600080fd5b506107be60048036038101906107b99190613a2e565b611b4f565b005b6107da60048036038101906107d591906142e6565b611d62565b005b3480156107e857600080fd5b5061080360048036038101906107fe9190613a2e565b611f01565b6040516108109190613a6a565b60405180910390f35b34801561082557600080fd5b5061082e611f13565b60405161083b91906139e0565b60405180910390f35b34801561085057600080fd5b5061086b60048036038101906108669190614346565b611fa5565b604051610878919061384c565b60405180910390f35b34801561088d57600080fd5b506108a860048036038101906108a39190613a2e565b612039565b005b3480156108b657600080fd5b506108bf61234f565b6040516108cc9190614425565b60405180910390f35b3480156108e157600080fd5b506108fc60048036038101906108f79190614447565b6124f8565b6040516109099190613bc1565b60405180910390f35b34801561091e57600080fd5b506109396004803603810190610934919061374b565b612525565b005b600080600760009054906101000a900473ffffffffffffffffffffffffffffffffffffffff1673ffffffffffffffffffffffffffffffffffffffff16638462151c846040518263ffffffff1660e01b81526004016109999190613a6a565b60006040518083038186803b1580156109b157600080fd5b505afa1580156109c5573d6000803e3d6000fd5b505050506040513d6000823e3d601f19601f820116820180604052508101906109ee9190614593565b90508051915050919050565b60007f80ac58cd000000000000000000000000000000000000000000000000000000007bffffffffffffffffffffffffffffffffffffffffffffffffffffffff1916827bffffffffffffffffffffffffffffffffffffffffffffffffffffffff19161480610ac557507f5b5e139f000000000000000000000000000000000000000000000000000000007bffffffffffffffffffffffffffffffffffffffffffffffffffffffff1916827bffffffffffffffffffffffffffffffffffffffffffffffffffffffff1916145b80610ad55750610ad4826125a9565b5b9050919050565b60606000600d60008473ffffffffffffffffffffffffffffffffffffffff1673ffffffffffffffffffffffffffffffffffffffff168152602001908152602001600020805480602002602001604051908101604052809291908181526020018280548015610b6957602002820191906000526020600020905b815481526020019060010190808311610b55575b5050505050905080915050919050565b606060018054610b889061460b565b80601f0160208091040260200160405190810160405280929190818152602001828054610bb49061460b565b8015610c015780601f10610bd657610100808354040283529160200191610c01565b820191906000526020600020905b815481529060010190602001808311610be457829003601f168201915b5050505050905090565b6000610c1682612613565b6005600083815260200190815260200160002060009054906101000a900473ffffffffffffffffffffffffffffffffffffffff169050919050565b6000610c5c8261265e565b90508073ffffffffffffffffffffffffffffffffffffffff168373ffffffffffffffffffffffffffffffffffffffff161415610ccd576040517f08c379a0000000000000000000000000000000000000000000000000000000008152600401610cc4906146af565b60405180910390fd5b8073ffffffffffffffffffffffffffffffffffffffff16610cec612710565b73ffffffffffffffffffffffffffffffffffffffff161480610d1b5750610d1a81610d15612710565b611fa5565b5b610d5a576040517f08c379a0000000000000000000000000000000000000000000000000000000008152600401610d5190614741565b60405180910390fd5b610d648383612718565b505050565b600063150b7a0260e01b905095945050505050565b6000600760009054906101000a900473ffffffffffffffffffffffffffffffffffffffff1673ffffffffffffffffffffffffffffffffffffffff166318160ddd6040518163ffffffff1660e01b815260040160206040518083038186803b158015610de857600080fd5b505afa158015610dfc573d6000803e3d6000fd5b505050506040513d601f19601f82011682018060405250810190610e209190614761565b905090565b610e36610e30612710565b826127d1565b610e75576040517f08c379a0000000000000000000000000000000000000000000000000000000008152600401610e6c90614800565b60405180910390fd5b610e80838383612866565b505050565b610e8d612acd565b82600a8190555081600b8190555080600c60006101000a81548160ff021916908315150217905550505050565b610ed583838360405180602001604052806000815250611734565b505050565b610ee2612acd565b80600760006101000a81548173ffffffffffffffffffffffffffffffffffffffff021916908373ffffffffffffffffffffffffffffffffffffffff16021790555050565b6000801515610f3483612b4b565b15151415610fee57600760009054906101000a900473ffffffffffffffffffffffffffffffffffffffff1673ffffffffffffffffffffffffffffffffffffffff16636352211e836040518263ffffffff1660e01b8152600401610f979190613791565b60206040518083038186803b158015610faf57600080fd5b505afa158015610fc3573d6000803e3d6000fd5b505050506040513d601f19601f82011682018060405250810190610fe79190614835565b9050610ffa565b610ff78261265e565b90505b919050565b611007612acd565b60003373ffffffffffffffffffffffffffffffffffffffff164760405161102d90614893565b60006040518083038185875af1925050503d806000811461106a576040519150601f19603f3d011682016040523d82523d6000602084013e61106f565b606091505b50509050806110b3576040517f08c379a00000000000000000000000000000000000000000000000000000000081526004016110aa906148f4565b60405180910390fd5b50565b60008073ffffffffffffffffffffffffffffffffffffffff168273ffffffffffffffffffffffffffffffffffffffff161415611127576040517f08c379a000000000000000000000000000000000000000000000000000000000815260040161111e90614986565b60405180910390fd5b600460008373ffffffffffffffffffffffffffffffffffffffff1673ffffffffffffffffffffffffffffffffffffffff168152602001908152602001600020549050919050565b611176612acd565b6111806000612bb7565b565b61118a61356b565b6000806000806000600760009054906101000a900473ffffffffffffffffffffffffffffffffffffffff1673ffffffffffffffffffffffffffffffffffffffff16637fff1e2f886040518263ffffffff1660e01b81526004016111ed9190613791565b60006040518083038186803b15801561120557600080fd5b505afa158015611219573d6000803e3d6000fd5b505050506040513d6000823e3d601f19601f820116820180604052508101906112429190614a9f565b94509450945094509450600061125788610f26565b905060006040518060e001604052808a8152602001888152602001878152602001868152602001856fffffffffffffffffffffffffffffffff168152602001846fffffffffffffffffffffffffffffffff1681526020018373ffffffffffffffffffffffffffffffffffffffff16815250905080975050505050505050919050565b60606000600d60008673ffffffffffffffffffffffffffffffffffffffff1673ffffffffffffffffffffffffffffffffffffffff16815260200190815260200160002080548060200260200160405190810160405280929190818152602001828054801561136657602002820191906000526020600020905b815481526020019060010190808311611352575b505050505090506000815190508085111561138057600094505b60008111156113bb5760008414806113a25750848161139f9190614b65565b84115b156113b65784816113b39190614b65565b93505b6113c4565b60009050600193505b60008467ffffffffffffffff8111156113e0576113df6140f8565b5b60405190808252806020026020018201604052801561141957816020015b61140661356b565b8152602001906001900390816113fe5790505b5090506000821415611430578093505050506114b7565b60008061143b61356b565b600092505b878310156114ad5785838a6114559190614b99565b8151811061146657611465614bef565b5b6020026020010151915061147982611182565b90508084848151811061148f5761148e614bef565b5b602002602001018190525082806114a590614c1e565b935050611440565b8396505050505050505b9392505050565b60008060009054906101000a900473ffffffffffffffffffffffffffffffffffffffff16905090565b6060600280546114f69061460b565b80601f01602080910402602001604051908101604052809291908181526020018280546115229061460b565b801561156f5780601f106115445761010080835404028352916020019161156f565b820191906000526020600020905b81548152906001019060200180831161155257829003601f168201915b5050505050905090565b60606000600760009054906101000a900473ffffffffffffffffffffffffffffffffffffffff1673ffffffffffffffffffffffffffffffffffffffff16638462151c846040518263ffffffff1660e01b81526004016115d89190613a6a565b60006040518083038186803b1580156115f057600080fd5b505afa158015611604573d6000803e3d6000fd5b505050506040513d6000823e3d601f19601f8201168201806040525081019061162d9190614593565b905080915050919050565b61164a611643612710565b8383612c7b565b5050565b611656612acd565b8383600891906116679291906135e8565b508181600991906116799291906135e8565b5050505050565b6000600760009054906101000a900473ffffffffffffffffffffffffffffffffffffffff1673ffffffffffffffffffffffffffffffffffffffff16636352211e836040518263ffffffff1660e01b81526004016116dd9190613791565b60206040518083038186803b1580156116f557600080fd5b505afa158015611709573d6000803e3d6000fd5b505050506040513d601f19601f8201168201806040525081019061172d9190614835565b9050919050565b61174561173f612710565b836127d1565b611784576040517f08c379a000000000000000000000000000000000000000000000000000000000815260040161177b90614800565b60405180910390fd5b61179084848484612de8565b50505050565b606060006117a2610d7e565b905060008414806117b257508084115b156117bc57600193505b60008111156118035760008314806117ea5750836001826117dd9190614b99565b6117e79190614b65565b83115b156117fe5783816117fb9190614b65565b92505b61180c565b60009050600192505b60008367ffffffffffffffff811115611828576118276140f8565b5b60405190808252806020026020018201604052801561186157816020015b61184e61356b565b8152602001906001900390816118465790505b50905060008214156118775780925050506118da565b60005b848110156118d357600081876118909190614b99565b9050600061189d82611182565b9050808484815181106118b3576118b2614bef565b5b6020026020010181905250505080806118cb90614c1e565b91505061187a565b8193505050505b92915050565b60606118eb82612613565b60006118f5612e44565b905060008151116119155760405180602001604052806000815250611940565b8061191f84612ed6565b604051602001611930929190614ca3565b6040516020818303038152906040525b915050919050565b60606000600760009054906101000a900473ffffffffffffffffffffffffffffffffffffffff1673ffffffffffffffffffffffffffffffffffffffff16638462151c866040518263ffffffff1660e01b81526004016119a79190613a6a565b60006040518083038186803b1580156119bf57600080fd5b505afa1580156119d3573d6000803e3d6000fd5b505050506040513d6000823e3d601f19601f820116820180604052508101906119fc9190614593565b905060008151905080851115611a1157600094505b6000811115611a4c576000841480611a3357508481611a309190614b65565b84115b15611a47578481611a449190614b65565b93505b611a55565b60009050600193505b60008467ffffffffffffffff811115611a7157611a706140f8565b5b604051908082528060200260200182016040528015611aaa57816020015b611a9761356b565b815260200190600190039081611a8f5790505b5090506000821415611ac157809350505050611b48565b600080611acc61356b565b600092505b87831015611b3e5785838a611ae69190614b99565b81518110611af757611af6614bef565b5b60200260200101519150611b0a82611182565b905080848481518110611b2057611b1f614bef565b5b60200260200101819052508280611b3690614c1e565b935050611ad1565b8396505050505050505b9392505050565b60001515611b5c82612b4b565b15151415611b9f576040517f08c379a0000000000000000000000000000000000000000000000000000000008152600401611b9690614d13565b60405180910390fd5b6000611baa82611680565b90503373ffffffffffffffffffffffffffffffffffffffff16611bcc83611f01565b73ffffffffffffffffffffffffffffffffffffffff1614611c56573373ffffffffffffffffffffffffffffffffffffffff168173ffffffffffffffffffffffffffffffffffffffff1614611c55576040517f08c379a0000000000000000000000000000000000000000000000000000000008152600401611c4c90614d7f565b60405180910390fd5b5b3073ffffffffffffffffffffffffffffffffffffffff168173ffffffffffffffffffffffffffffffffffffffff161415611d1c57600760009054906101000a900473ffffffffffffffffffffffffffffffffffffffff1673ffffffffffffffffffffffffffffffffffffffff166342842e0e3033856040518463ffffffff1660e01b8152600401611ce993929190614d9f565b600060405180830381600087803b158015611d0357600080fd5b505af1158015611d17573d6000803e3d6000fd5b505050505b611d2582613037565b7f1d27d1c62712f590d53fa9eb8bbf3a75d09503deae319bb9d99644339cb312e18233604051611d56929190614dd6565b60405180910390a15050565b3373ffffffffffffffffffffffffffffffffffffffff16611d8284611f01565b73ffffffffffffffffffffffffffffffffffffffff1614611dd8576040517f08c379a0000000000000000000000000000000000000000000000000000000008152600401611dcf90614e4b565b60405180910390fd5b60001515600c60009054906101000a900460ff1615151415611e2f576040517f08c379a0000000000000000000000000000000000000000000000000000000008152600401611e2690614eb7565b60405180910390fd5b600760009054906101000a900473ffffffffffffffffffffffffffffffffffffffff1673ffffffffffffffffffffffffffffffffffffffff1663dfb31a7c348585856040518563ffffffff1660e01b8152600401611e8f93929190614f04565b6000604051808303818588803b158015611ea857600080fd5b505af1158015611ebc573d6000803e3d6000fd5b50505050507f60319c6511f3c90c2a37bcd711c518923ef5dd5528be697b9b4a23a1aace6c9c838383604051611ef493929190614f04565b60405180910390a1505050565b6000611f0c8261265e565b9050919050565b606060098054611f229061460b565b80601f0160208091040260200160405190810160405280929190818152602001828054611f4e9061460b565b8015611f9b5780601f10611f7057610100808354040283529160200191611f9b565b820191906000526020600020905b815481529060010190602001808311611f7e57829003601f168201915b5050505050905090565b6000600660008473ffffffffffffffffffffffffffffffffffffffff1673ffffffffffffffffffffffffffffffffffffffff16815260200190815260200160002060008373ffffffffffffffffffffffffffffffffffffffff1673ffffffffffffffffffffffffffffffffffffffff16815260200190815260200160002060009054906101000a900460ff16905092915050565b600b548111801561205657506000151561205282612b4b565b1515145b15612096576040517f08c379a000000000000000000000000000000000000000000000000000000000815260040161208d90614f82565b60405180910390fd5b61209f81612b4b565b15612155573373ffffffffffffffffffffffffffffffffffffffff166120c482611f01565b73ffffffffffffffffffffffffffffffffffffffff161461211a576040517f08c379a000000000000000000000000000000000000000000000000000000000815260040161211190614d7f565b60405180910390fd5b6040517f08c379a000000000000000000000000000000000000000000000000000000000815260040161214c90614fee565b60405180910390fd5b600061216082611680565b90503373ffffffffffffffffffffffffffffffffffffffff168173ffffffffffffffffffffffffffffffffffffffff16146121d0576040517f08c379a00000000000000000000000000000000000000000000000000000000081526004016121c790614d7f565b60405180910390fd5b600760009054906101000a900473ffffffffffffffffffffffffffffffffffffffff1673ffffffffffffffffffffffffffffffffffffffff166342842e0e3330856040518463ffffffff1660e01b815260040161222f93929190614d9f565b600060405180830381600087803b15801561224957600080fd5b505af115801561225d573d6000803e3d6000fd5b50505050600c60009054906101000a900460ff161561230857600760009054906101000a900473ffffffffffffffffffffffffffffffffffffffff1673ffffffffffffffffffffffffffffffffffffffff16633d4cfe2183600a546040518363ffffffff1660e01b81526004016122d592919061500e565b600060405180830381600087803b1580156122ef57600080fd5b505af1158015612303573d6000803e3d6000fd5b505050505b6123123383613154565b7f9c307a39a47fdf1a019642a4e8a585ffe9894b5018226029887fe6d4241611bb8233604051612343929190614dd6565b60405180910390a15050565b61235761366e565b61235f612acd565b60006040518060c00160405280600760009054906101000a900473ffffffffffffffffffffffffffffffffffffffff1673ffffffffffffffffffffffffffffffffffffffff168152602001600880546123b79061460b565b80601f01602080910402602001604051908101604052809291908181526020018280546123e39061460b565b80156124305780601f1061240557610100808354040283529160200191612430565b820191906000526020600020905b81548152906001019060200180831161241357829003601f168201915b50505050508152602001600980546124479061460b565b80601f01602080910402602001604051908101604052809291908181526020018280546124739061460b565b80156124c05780601f10612495576101008083540402835291602001916124c0565b820191906000526020600020905b8154815290600101906020018083116124a357829003601f168201915b50505050508152602001600a548152602001600b548152602001600c60009054906101000a900460ff16151581525090508091505090565b60007ff0b9e5baf647f945565b0ac04522b519449041bdd44f952626b9ead9ff3692419050949350505050565b61252d612acd565b600073ffffffffffffffffffffffffffffffffffffffff168173ffffffffffffffffffffffffffffffffffffffff16141561259d576040517f08c379a0000000000000000000000000000000000000000000000000000000008152600401612594906150a9565b60405180910390fd5b6125a681612bb7565b50565b60007f01ffc9a7000000000000000000000000000000000000000000000000000000007bffffffffffffffffffffffffffffffffffffffffffffffffffffffff1916827bffffffffffffffffffffffffffffffffffffffffffffffffffffffff1916149050919050565b61261c81612b4b565b61265b576040517f08c379a000000000000000000000000000000000000000000000000000000000815260040161265290615115565b60405180910390fd5b50565b6000806003600084815260200190815260200160002060009054906101000a900473ffffffffffffffffffffffffffffffffffffffff169050600073ffffffffffffffffffffffffffffffffffffffff168173ffffffffffffffffffffffffffffffffffffffff161415612707576040517f08c379a00000000000000000000000000000000000000000000000000000000081526004016126fe90615115565b60405180910390fd5b80915050919050565b600033905090565b816005600083815260200190815260200160002060006101000a81548173ffffffffffffffffffffffffffffffffffffffff021916908373ffffffffffffffffffffffffffffffffffffffff160217905550808273ffffffffffffffffffffffffffffffffffffffff1661278b8361265e565b73ffffffffffffffffffffffffffffffffffffffff167f8c5be1e5ebec7d5bd14f71427d1e84f3dd0314c0f7b2291e5b200ac8c7c3b92560405160405180910390a45050565b6000806127dd8361265e565b90508073ffffffffffffffffffffffffffffffffffffffff168473ffffffffffffffffffffffffffffffffffffffff16148061281f575061281e8185611fa5565b5b8061285d57508373ffffffffffffffffffffffffffffffffffffffff1661284584610c0b565b73ffffffffffffffffffffffffffffffffffffffff16145b91505092915050565b8273ffffffffffffffffffffffffffffffffffffffff166128868261265e565b73ffffffffffffffffffffffffffffffffffffffff16146128dc576040517f08c379a00000000000000000000000000000000000000000000000000000000081526004016128d3906151a7565b60405180910390fd5b600073ffffffffffffffffffffffffffffffffffffffff168273ffffffffffffffffffffffffffffffffffffffff16141561294c576040517f08c379a000000000000000000000000000000000000000000000000000000000815260040161294390615239565b60405180910390fd5b612957838383613172565b612962600082612718565b6001600460008573ffffffffffffffffffffffffffffffffffffffff1673ffffffffffffffffffffffffffffffffffffffff16815260200190815260200160002060008282546129b29190614b65565b925050819055506001600460008473ffffffffffffffffffffffffffffffffffffffff1673ffffffffffffffffffffffffffffffffffffffff1681526020019081526020016000206000828254612a099190614b99565b92505081905550816003600083815260200190815260200160002060006101000a81548173ffffffffffffffffffffffffffffffffffffffff021916908373ffffffffffffffffffffffffffffffffffffffff160217905550808273ffffffffffffffffffffffffffffffffffffffff168473ffffffffffffffffffffffffffffffffffffffff167fddf252ad1be2c89b69c2b068fc378daa952ba7f163c4a11628f55a4df523b3ef60405160405180910390a4612ac8838383613177565b505050565b612ad5612710565b73ffffffffffffffffffffffffffffffffffffffff16612af36114be565b73ffffffffffffffffffffffffffffffffffffffff1614612b49576040517f08c379a0000000000000000000000000000000000000000000000000000000008152600401612b40906152a5565b60405180910390fd5b565b60008073ffffffffffffffffffffffffffffffffffffffff166003600084815260200190815260200160002060009054906101000a900473ffffffffffffffffffffffffffffffffffffffff1673ffffffffffffffffffffffffffffffffffffffff1614159050919050565b60008060009054906101000a900473ffffffffffffffffffffffffffffffffffffffff169050816000806101000a81548173ffffffffffffffffffffffffffffffffffffffff021916908373ffffffffffffffffffffffffffffffffffffffff1602179055508173ffffffffffffffffffffffffffffffffffffffff168173ffffffffffffffffffffffffffffffffffffffff167f8be0079c531659141344cd1fd0a4f28419497f9722a3daafe3b4186f6b6457e060405160405180910390a35050565b8173ffffffffffffffffffffffffffffffffffffffff168373ffffffffffffffffffffffffffffffffffffffff161415612cea576040517f08c379a0000000000000000000000000000000000000000000000000000000008152600401612ce190615311565b60405180910390fd5b80600660008573ffffffffffffffffffffffffffffffffffffffff1673ffffffffffffffffffffffffffffffffffffffff16815260200190815260200160002060008473ffffffffffffffffffffffffffffffffffffffff1673ffffffffffffffffffffffffffffffffffffffff16815260200190815260200160002060006101000a81548160ff0219169083151502179055508173ffffffffffffffffffffffffffffffffffffffff168373ffffffffffffffffffffffffffffffffffffffff167f17307eab39ab6107e8899845ad3d59bd9653f200f220920489ca2b5937696c3183604051612ddb919061384c565b60405180910390a3505050565b612df3848484612866565b612dff8484848461317c565b612e3e576040517f08c379a0000000000000000000000000000000000000000000000000000000008152600401612e35906153a3565b60405180910390fd5b50505050565b606060088054612e539061460b565b80601f0160208091040260200160405190810160405280929190818152602001828054612e7f9061460b565b8015612ecc5780601f10612ea157610100808354040283529160200191612ecc565b820191906000526020600020905b815481529060010190602001808311612eaf57829003601f168201915b5050505050905090565b60606000821415612f1e576040518060400160405280600181526020017f30000000000000000000000000000000000000000000000000000000000000008152509050613032565b600082905060005b60008214612f50578080612f3990614c1e565b915050600a82612f4991906153f2565b9150612f26565b60008167ffffffffffffffff811115612f6c57612f6b6140f8565b5b6040519080825280601f01601f191660200182016040528015612f9e5781602001600182028036833780820191505090505b5090505b6000851461302b57600182612fb79190614b65565b9150600a85612fc69190615423565b6030612fd29190614b99565b60f81b818381518110612fe857612fe7614bef565b5b60200101907effffffffffffffffffffffffffffffffffffffffffffffffffffffffffffff1916908160001a905350600a8561302491906153f2565b9450612fa2565b8093505050505b919050565b60006130428261265e565b905061305081600084613172565b61305b600083612718565b6001600460008373ffffffffffffffffffffffffffffffffffffffff1673ffffffffffffffffffffffffffffffffffffffff16815260200190815260200160002060008282546130ab9190614b65565b925050819055506003600083815260200190815260200160002060006101000a81549073ffffffffffffffffffffffffffffffffffffffff021916905581600073ffffffffffffffffffffffffffffffffffffffff168273ffffffffffffffffffffffffffffffffffffffff167fddf252ad1be2c89b69c2b068fc378daa952ba7f163c4a11628f55a4df523b3ef60405160405180910390a461315081600084613177565b5050565b61316e828260405180602001604052806000815250613313565b5050565b505050565b505050565b600061319d8473ffffffffffffffffffffffffffffffffffffffff1661336e565b15613306578373ffffffffffffffffffffffffffffffffffffffff1663150b7a026131c6612710565b8786866040518563ffffffff1660e01b81526004016131e894939291906154a9565b602060405180830381600087803b15801561320257600080fd5b505af192505050801561323357506040513d601f19601f82011682018060405250810190613230919061550a565b60015b6132b6573d8060008114613263576040519150601f19603f3d011682016040523d82523d6000602084013e613268565b606091505b506000815114156132ae576040517f08c379a00000000000000000000000000000000000000000000000000000000081526004016132a5906153a3565b60405180910390fd5b805181602001fd5b63150b7a0260e01b7bffffffffffffffffffffffffffffffffffffffffffffffffffffffff1916817bffffffffffffffffffffffffffffffffffffffffffffffffffffffff19161491505061330b565b600190505b949350505050565b61331d8383613391565b61332a600084848461317c565b613369576040517f08c379a0000000000000000000000000000000000000000000000000000000008152600401613360906153a3565b60405180910390fd5b505050565b6000808273ffffffffffffffffffffffffffffffffffffffff163b119050919050565b600073ffffffffffffffffffffffffffffffffffffffff168273ffffffffffffffffffffffffffffffffffffffff161415613401576040517f08c379a00000000000000000000000000000000000000000000000000000000081526004016133f890615583565b60405180910390fd5b61340a81612b4b565b1561344a576040517f08c379a0000000000000000000000000000000000000000000000000000000008152600401613441906155ef565b60405180910390fd5b61345660008383613172565b6001600460008473ffffffffffffffffffffffffffffffffffffffff1673ffffffffffffffffffffffffffffffffffffffff16815260200190815260200160002060008282546134a69190614b99565b92505081905550816003600083815260200190815260200160002060006101000a81548173ffffffffffffffffffffffffffffffffffffffff021916908373ffffffffffffffffffffffffffffffffffffffff160217905550808273ffffffffffffffffffffffffffffffffffffffff16600073ffffffffffffffffffffffffffffffffffffffff167fddf252ad1be2c89b69c2b068fc378daa952ba7f163c4a11628f55a4df523b3ef60405160405180910390a461356760008383613177565b5050565b6040518060e001604052806000815260200160608152602001600080191681526020016000801916815260200160006fffffffffffffffffffffffffffffffff16815260200160006fffffffffffffffffffffffffffffffff168152602001600073ffffffffffffffffffffffffffffffffffffffff1681525090565b8280546135f49061460b565b90600052602060002090601f016020900481019282613616576000855561365d565b82601f1061362f57803560ff191683800117855561365d565b8280016001018555821561365d579182015b8281111561365c578235825591602001919060010190613641565b5b50905061366a91906136bc565b5090565b6040518060c00160405280600073ffffffffffffffffffffffffffffffffffffffff168152602001606081526020016060815260200160008152602001600081526020016000151581525090565b5b808211156136d55760008160009055506001016136bd565b5090565b6000604051905090565b600080fd5b600080fd5b600073ffffffffffffffffffffffffffffffffffffffff82169050919050565b6000613718826136ed565b9050919050565b6137288161370d565b811461373357600080fd5b50565b6000813590506137458161371f565b92915050565b600060208284031215613761576137606136e3565b5b600061376f84828501613736565b91505092915050565b6000819050919050565b61378b81613778565b82525050565b60006020820190506137a66000830184613782565b92915050565b60007fffffffff0000000000000000000000000000000000000000000000000000000082169050919050565b6137e1816137ac565b81146137ec57600080fd5b50565b6000813590506137fe816137d8565b92915050565b60006020828403121561381a576138196136e3565b5b6000613828848285016137ef565b91505092915050565b60008115159050919050565b61384681613831565b82525050565b6000602082019050613861600083018461383d565b92915050565b600081519050919050565b600082825260208201905092915050565b6000819050602082019050919050565b61389c81613778565b82525050565b60006138ae8383613893565b60208301905092915050565b6000602082019050919050565b60006138d282613867565b6138dc8185613872565b93506138e783613883565b8060005b838110156139185781516138ff88826138a2565b975061390a836138ba565b9250506001810190506138eb565b5085935050505092915050565b6000602082019050818103600083015261393f81846138c7565b905092915050565b600081519050919050565b600082825260208201905092915050565b60005b83811015613981578082015181840152602081019050613966565b83811115613990576000848401525b50505050565b6000601f19601f8301169050919050565b60006139b282613947565b6139bc8185613952565b93506139cc818560208601613963565b6139d581613996565b840191505092915050565b600060208201905081810360008301526139fa81846139a7565b905092915050565b613a0b81613778565b8114613a1657600080fd5b50565b600081359050613a2881613a02565b92915050565b600060208284031215613a4457613a436136e3565b5b6000613a5284828501613a19565b91505092915050565b613a648161370d565b82525050565b6000602082019050613a7f6000830184613a5b565b92915050565b60008060408385031215613a9c57613a9b6136e3565b5b6000613aaa85828601613736565b9250506020613abb85828601613a19565b9150509250929050565b600080fd5b600080fd5b600080fd5b60008083601f840112613aea57613ae9613ac5565b5b8235905067ffffffffffffffff811115613b0757613b06613aca565b5b602083019150836001820283011115613b2357613b22613acf565b5b9250929050565b600080600080600060808688031215613b4657613b456136e3565b5b6000613b5488828901613736565b9550506020613b6588828901613736565b9450506040613b7688828901613a19565b935050606086013567ffffffffffffffff811115613b9757613b966136e8565b5b613ba388828901613ad4565b92509250509295509295909350565b613bbb816137ac565b82525050565b6000602082019050613bd66000830184613bb2565b92915050565b600080600060608486031215613bf557613bf46136e3565b5b6000613c0386828701613736565b9350506020613c1486828701613736565b9250506040613c2586828701613a19565b9150509250925092565b613c3881613831565b8114613c4357600080fd5b50565b600081359050613c5581613c2f565b92915050565b600080600060608486031215613c7457613c736136e3565b5b6000613c8286828701613a19565b9350506020613c9386828701613a19565b9250506040613ca486828701613c46565b9150509250925092565b600082825260208201905092915050565b6000613cca82613947565b613cd48185613cae565b9350613ce4818560208601613963565b613ced81613996565b840191505092915050565b6000819050919050565b613d0b81613cf8565b82525050565b60006fffffffffffffffffffffffffffffffff82169050919050565b613d3681613d11565b82525050565b613d458161370d565b82525050565b600060e083016000830151613d636000860182613893565b5060208301518482036020860152613d7b8282613cbf565b9150506040830151613d906040860182613d02565b506060830151613da36060860182613d02565b506080830151613db66080860182613d2d565b5060a0830151613dc960a0860182613d2d565b5060c0830151613ddc60c0860182613d3c565b508091505092915050565b60006020820190508181036000830152613e018184613d4b565b905092915050565b600080600060608486031215613e2257613e216136e3565b5b6000613e3086828701613736565b9350506020613e4186828701613a19565b9250506040613e5286828701613a19565b9150509250925092565b600081519050919050565b600082825260208201905092915050565b6000819050602082019050919050565b600060e083016000830151613ea06000860182613893565b5060208301518482036020860152613eb88282613cbf565b9150506040830151613ecd6040860182613d02565b506060830151613ee06060860182613d02565b506080830151613ef36080860182613d2d565b5060a0830151613f0660a0860182613d2d565b5060c0830151613f1960c0860182613d3c565b508091505092915050565b6000613f308383613e88565b905092915050565b6000602082019050919050565b6000613f5082613e5c565b613f5a8185613e67565b935083602082028501613f6c85613e78565b8060005b85811015613fa85784840389528151613f898582613f24565b9450613f9483613f38565b925060208a01995050600181019050613f70565b50829750879550505050505092915050565b60006020820190508181036000830152613fd48184613f45565b905092915050565b60008060408385031215613ff357613ff26136e3565b5b600061400185828601613736565b925050602061401285828601613c46565b9150509250929050565b60008083601f84011261403257614031613ac5565b5b8235905067ffffffffffffffff81111561404f5761404e613aca565b5b60208301915083600182028301111561406b5761406a613acf565b5b9250929050565b6000806000806040858703121561408c5761408b6136e3565b5b600085013567ffffffffffffffff8111156140aa576140a96136e8565b5b6140b68782880161401c565b9450945050602085013567ffffffffffffffff8111156140d9576140d86136e8565b5b6140e58782880161401c565b925092505092959194509250565b600080fd5b7f4e487b7100000000000000000000000000000000000000000000000000000000600052604160045260246000fd5b61413082613996565b810181811067ffffffffffffffff8211171561414f5761414e6140f8565b5b80604052505050565b60006141626136d9565b905061416e8282614127565b919050565b600067ffffffffffffffff82111561418e5761418d6140f8565b5b61419782613996565b9050602081019050919050565b82818337600083830152505050565b60006141c66141c184614173565b614158565b9050828152602081018484840111156141e2576141e16140f3565b5b6141ed8482856141a4565b509392505050565b600082601f83011261420a57614209613ac5565b5b813561421a8482602086016141b3565b91505092915050565b6000806000806080858703121561423d5761423c6136e3565b5b600061424b87828801613736565b945050602061425c87828801613736565b935050604061426d87828801613a19565b925050606085013567ffffffffffffffff81111561428e5761428d6136e8565b5b61429a878288016141f5565b91505092959194509250565b600080604083850312156142bd576142bc6136e3565b5b60006142cb85828601613a19565b92505060206142dc85828601613a19565b9150509250929050565b6000806000604084860312156142ff576142fe6136e3565b5b600061430d86828701613a19565b935050602084013567ffffffffffffffff81111561432e5761432d6136e8565b5b61433a8682870161401c565b92509250509250925092565b6000806040838503121561435d5761435c6136e3565b5b600061436b85828601613736565b925050602061437c85828601613736565b9150509250929050565b61438f81613831565b82525050565b600060c0830160008301516143ad6000860182613d3c565b50602083015184820360208601526143c58282613cbf565b915050604083015184820360408601526143df8282613cbf565b91505060608301516143f46060860182613893565b5060808301516144076080860182613893565b5060a083015161441a60a0860182614386565b508091505092915050565b6000602082019050818103600083015261443f8184614395565b905092915050565b60008060008060608587031215614461576144606136e3565b5b600061446f87828801613736565b945050602061448087828801613a19565b935050604085013567ffffffffffffffff8111156144a1576144a06136e8565b5b6144ad87828801613ad4565b925092505092959194509250565b600067ffffffffffffffff8211156144d6576144d56140f8565b5b602082029050602081019050919050565b6000815190506144f681613a02565b92915050565b600061450f61450a846144bb565b614158565b9050808382526020820190506020840283018581111561453257614531613acf565b5b835b8181101561455b578061454788826144e7565b845260208401935050602081019050614534565b5050509392505050565b600082601f83011261457a57614579613ac5565b5b815161458a8482602086016144fc565b91505092915050565b6000602082840312156145a9576145a86136e3565b5b600082015167ffffffffffffffff8111156145c7576145c66136e8565b5b6145d384828501614565565b91505092915050565b7f4e487b7100000000000000000000000000000000000000000000000000000000600052602260045260246000fd5b6000600282049050600182168061462357607f821691505b60208210811415614637576146366145dc565b5b50919050565b7f4552433732313a20617070726f76616c20746f2063757272656e74206f776e6560008201527f7200000000000000000000000000000000000000000000000000000000000000602082015250565b6000614699602183613952565b91506146a48261463d565b604082019050919050565b600060208201905081810360008301526146c88161468c565b9050919050565b7f4552433732313a20617070726f76652063616c6c6572206973206e6f7420746f60008201527f6b656e206f776e6572206e6f7220617070726f76656420666f7220616c6c0000602082015250565b600061472b603e83613952565b9150614736826146cf565b604082019050919050565b6000602082019050818103600083015261475a8161471e565b9050919050565b600060208284031215614777576147766136e3565b5b6000614785848285016144e7565b91505092915050565b7f4552433732313a2063616c6c6572206973206e6f7420746f6b656e206f776e6560008201527f72206e6f7220617070726f766564000000000000000000000000000000000000602082015250565b60006147ea602e83613952565b91506147f58261478e565b604082019050919050565b60006020820190508181036000830152614819816147dd565b9050919050565b60008151905061482f8161371f565b92915050565b60006020828403121561484b5761484a6136e3565b5b600061485984828501614820565b91505092915050565b600081905092915050565b50565b600061487d600083614862565b91506148888261486d565b600082019050919050565b600061489e82614870565b9150819050919050565b7f5641554c545f5452414e534645525f4641494c45440000000000000000000000600082015250565b60006148de601583613952565b91506148e9826148a8565b602082019050919050565b6000602082019050818103600083015261490d816148d1565b9050919050565b7f4552433732313a2061646472657373207a65726f206973206e6f74206120766160008201527f6c6964206f776e65720000000000000000000000000000000000000000000000602082015250565b6000614970602983613952565b915061497b82614914565b604082019050919050565b6000602082019050818103600083015261499f81614963565b9050919050565b600067ffffffffffffffff8211156149c1576149c06140f8565b5b6149ca82613996565b9050602081019050919050565b60006149ea6149e5846149a6565b614158565b905082815260208101848484011115614a0657614a056140f3565b5b614a11848285613963565b509392505050565b600082601f830112614a2e57614a2d613ac5565b5b8151614a3e8482602086016149d7565b91505092915050565b614a5081613cf8565b8114614a5b57600080fd5b50565b600081519050614a6d81614a47565b92915050565b614a7c81613d11565b8114614a8757600080fd5b50565b600081519050614a9981614a73565b92915050565b600080600080600060a08688031215614abb57614aba6136e3565b5b600086015167ffffffffffffffff811115614ad957614ad86136e8565b5b614ae588828901614a19565b9550506020614af688828901614a5e565b9450506040614b0788828901614a5e565b9350506060614b1888828901614a8a565b9250506080614b2988828901614a8a565b9150509295509295909350565b7f4e487b7100000000000000000000000000000000000000000000000000000000600052601160045260246000fd5b6000614b7082613778565b9150614b7b83613778565b925082821015614b8e57614b8d614b36565b5b828203905092915050565b6000614ba482613778565b9150614baf83613778565b9250827fffffffffffffffffffffffffffffffffffffffffffffffffffffffffffffffff03821115614be457614be3614b36565b5b828201905092915050565b7f4e487b7100000000000000000000000000000000000000000000000000000000600052603260045260246000fd5b6000614c2982613778565b91507fffffffffffffffffffffffffffffffffffffffffffffffffffffffffffffffff821415614c5c57614c5b614b36565b5b600182019050919050565b600081905092915050565b6000614c7d82613947565b614c878185614c67565b9350614c97818560208601613963565b80840191505092915050565b6000614caf8285614c72565b9150614cbb8284614c72565b91508190509392505050565b7f544f4b454e5f4e4f545f57524150504544000000000000000000000000000000600082015250565b6000614cfd601183613952565b9150614d0882614cc7565b602082019050919050565b60006020820190508181036000830152614d2c81614cf0565b9050919050565b7f4e4f545f4f574e4552535f544f4b454e00000000000000000000000000000000600082015250565b6000614d69601083613952565b9150614d7482614d33565b602082019050919050565b60006020820190508181036000830152614d9881614d5c565b9050919050565b6000606082019050614db46000830186613a5b565b614dc16020830185613a5b565b614dce6040830184613782565b949350505050565b6000604082019050614deb6000830185613782565b614df86020830184613a5b565b9392505050565b7f544f4b454e5f4e4f545f4f574e45520000000000000000000000000000000000600082015250565b6000614e35600f83613952565b9150614e4082614dff565b602082019050919050565b60006020820190508181036000830152614e6481614e28565b9050919050565b7f4d41524b4554504c4143455f44495341424c4544000000000000000000000000600082015250565b6000614ea1601483613952565b9150614eac82614e6b565b602082019050919050565b60006020820190508181036000830152614ed081614e94565b9050919050565b6000614ee38385613952565b9350614ef08385846141a4565b614ef983613996565b840190509392505050565b6000604082019050614f196000830186613782565b8181036020830152614f2c818486614ed7565b9050949350505050565b7f544f4b454e5f4c494d49545f5245414348454400000000000000000000000000600082015250565b6000614f6c601383613952565b9150614f7782614f36565b602082019050919050565b60006020820190508181036000830152614f9b81614f5f565b9050919050565b7f544f4b454e5f414c52454144595f575241505045440000000000000000000000600082015250565b6000614fd8601583613952565b9150614fe382614fa2565b602082019050919050565b6000602082019050818103600083015261500781614fcb565b9050919050565b60006040820190506150236000830185613782565b6150306020830184613782565b9392505050565b7f4f776e61626c653a206e6577206f776e657220697320746865207a65726f206160008201527f6464726573730000000000000000000000000000000000000000000000000000602082015250565b6000615093602683613952565b915061509e82615037565b604082019050919050565b600060208201905081810360008301526150c281615086565b9050919050565b7f4552433732313a20696e76616c696420746f6b656e2049440000000000000000600082015250565b60006150ff601883613952565b915061510a826150c9565b602082019050919050565b6000602082019050818103600083015261512e816150f2565b9050919050565b7f4552433732313a207472616e736665722066726f6d20696e636f72726563742060008201527f6f776e6572000000000000000000000000000000000000000000000000000000602082015250565b6000615191602583613952565b915061519c82615135565b604082019050919050565b600060208201905081810360008301526151c081615184565b9050919050565b7f4552433732313a207472616e7366657220746f20746865207a65726f2061646460008201527f7265737300000000000000000000000000000000000000000000000000000000602082015250565b6000615223602483613952565b915061522e826151c7565b604082019050919050565b6000602082019050818103600083015261525281615216565b9050919050565b7f4f776e61626c653a2063616c6c6572206973206e6f7420746865206f776e6572600082015250565b600061528f602083613952565b915061529a82615259565b602082019050919050565b600060208201905081810360008301526152be81615282565b9050919050565b7f4552433732313a20617070726f766520746f2063616c6c657200000000000000600082015250565b60006152fb601983613952565b9150615306826152c5565b602082019050919050565b6000602082019050818103600083015261532a816152ee565b9050919050565b7f4552433732313a207472616e7366657220746f206e6f6e20455243373231526560008201527f63656976657220696d706c656d656e7465720000000000000000000000000000602082015250565b600061538d603283613952565b915061539882615331565b604082019050919050565b600060208201905081810360008301526153bc81615380565b9050919050565b7f4e487b7100000000000000000000000000000000000000000000000000000000600052601260045260246000fd5b60006153fd82613778565b915061540883613778565b925082615418576154176153c3565b5b828204905092915050565b600061542e82613778565b915061543983613778565b925082615449576154486153c3565b5b828206905092915050565b600081519050919050565b600082825260208201905092915050565b600061547b82615454565b615485818561545f565b9350615495818560208601613963565b61549e81613996565b840191505092915050565b60006080820190506154be6000830187613a5b565b6154cb6020830186613a5b565b6154d86040830185613782565b81810360608301526154ea8184615470565b905095945050505050565b600081519050615504816137d8565b92915050565b6000602082840312156155205761551f6136e3565b5b600061552e848285016154f5565b91505092915050565b7f4552433732313a206d696e7420746f20746865207a65726f2061646472657373600082015250565b600061556d602083613952565b915061557882615537565b602082019050919050565b6000602082019050818103600083015261559c81615560565b9050919050565b7f4552433732313a20746f6b656e20616c7265616479206d696e74656400000000600082015250565b60006155d9601c83613952565b91506155e4826155a3565b602082019050919050565b60006020820190508181036000830152615608816155cc565b905091905056fea264697066735822122090796689616f3797016e22eb57b6c4f32d2017e08dfbcd9bc884b9f63e53118464736f6c6343000809003368747470733a2f2f6e65787573756c74696d612e636f6d2f69706376302f636f6e74726163742f68747470733a2f2f6e65787573756c74696d612e636f6d2f69706376302f746f6b656e732f",
  "linkReferences": {},
  "deployedLinkReferences": {}
}