{
  "_format": "hh-sol-artifact-1",
  "contractName": "IPCWrapper",
  "sourceName": "contracts/IPCWrapper.sol",
  "abi": [
    {
      "inputs": [],
      "stateMutability": "nonpayable",
      "type": "constructor"
    },
    {
      "anonymous": false,
      "inputs": [
        {
          "indexed": true,
          "internalType": "address",
          "name": "owner",
          "type": "address"
        },
        {
          "indexed": true,
          "internalType": "address",
          "name": "approved",
          "type": "address"
        },
        {
          "indexed": true,
          "internalType": "uint256",
          "name": "tokenId",
          "type": "uint256"
        }
      ],
      "name": "Approval",
      "type": "event"
    },
    {
      "anonymous": false,
      "inputs": [
        {
          "indexed": true,
          "internalType": "address",
          "name": "owner",
          "type": "address"
        },
        {
          "indexed": true,
          "internalType": "address",
          "name": "operator",
          "type": "address"
        },
        {
          "indexed": false,
          "internalType": "bool",
          "name": "approved",
          "type": "bool"
        }
      ],
      "name": "ApprovalForAll",
      "type": "event"
    },
    {
      "anonymous": false,
      "inputs": [
        {
          "indexed": true,
          "internalType": "address",
          "name": "previousOwner",
          "type": "address"
        },
        {
          "indexed": true,
          "internalType": "address",
          "name": "newOwner",
          "type": "address"
        }
      ],
      "name": "OwnershipTransferred",
      "type": "event"
    },
    {
      "anonymous": false,
      "inputs": [
        {
          "indexed": true,
          "internalType": "address",
          "name": "from",
          "type": "address"
        },
        {
          "indexed": true,
          "internalType": "address",
          "name": "to",
          "type": "address"
        },
        {
          "indexed": true,
          "internalType": "uint256",
          "name": "tokenId",
          "type": "uint256"
        }
      ],
      "name": "Transfer",
      "type": "event"
    },
    {
      "anonymous": false,
      "inputs": [
        {
          "indexed": false,
          "internalType": "uint256",
          "name": "tokenId",
          "type": "uint256"
        },
        {
          "indexed": false,
          "internalType": "address",
          "name": "owner",
          "type": "address"
        }
      ],
      "name": "Unwrapped",
      "type": "event"
    },
    {
      "anonymous": false,
      "inputs": [
        {
          "indexed": false,
          "internalType": "uint256",
          "name": "tokenId",
          "type": "uint256"
        },
        {
          "indexed": false,
          "internalType": "address",
          "name": "owner",
          "type": "address"
        }
      ],
      "name": "Wrapped",
      "type": "event"
    },
    {
      "anonymous": false,
      "inputs": [
        {
          "indexed": false,
          "internalType": "uint256",
          "name": "tokenId",
          "type": "uint256"
        },
        {
          "indexed": false,
          "internalType": "string",
          "name": "name",
          "type": "string"
        }
      ],
      "name": "nameChangeOK",
      "type": "event"
    },
    {
      "inputs": [
        {
          "internalType": "address",
          "name": "to",
          "type": "address"
        },
        {
          "internalType": "uint256",
          "name": "tokenId",
          "type": "uint256"
        }
      ],
      "name": "approve",
      "outputs": [],
      "stateMutability": "nonpayable",
      "type": "function"
    },
    {
      "inputs": [
        {
          "internalType": "address",
          "name": "owner",
          "type": "address"
        }
      ],
      "name": "balanceOf",
      "outputs": [
        {
          "internalType": "uint256",
          "name": "",
          "type": "uint256"
        }
      ],
      "stateMutability": "view",
      "type": "function"
    },
    {
      "inputs": [
        {
          "internalType": "uint256",
          "name": "tokenId",
          "type": "uint256"
        },
        {
          "internalType": "string",
          "name": "newName",
          "type": "string"
        }
      ],
      "name": "changeIpcName",
      "outputs": [],
      "stateMutability": "payable",
      "type": "function"
    },
    {
      "inputs": [],
      "name": "contractURI",
      "outputs": [
        {
          "internalType": "string",
          "name": "",
          "type": "string"
        }
      ],
      "stateMutability": "view",
      "type": "function"
    },
    {
      "inputs": [
        {
          "internalType": "uint256",
          "name": "tokenId",
          "type": "uint256"
        }
      ],
      "name": "getApproved",
      "outputs": [
        {
          "internalType": "address",
          "name": "",
          "type": "address"
        }
      ],
      "stateMutability": "view",
      "type": "function"
    },
    {
      "inputs": [
        {
          "internalType": "uint256",
          "name": "tokenId",
          "type": "uint256"
        }
      ],
      "name": "getIpc",
      "outputs": [
        {
          "components": [
            {
              "internalType": "uint256",
              "name": "tokenId",
              "type": "uint256"
            },
            {
              "internalType": "string",
              "name": "name",
              "type": "string"
            },
            {
              "internalType": "bytes32",
              "name": "attributeSeed",
              "type": "bytes32"
            },
            {
              "internalType": "bytes32",
              "name": "dna",
              "type": "bytes32"
            },
            {
              "internalType": "uint128",
              "name": "experience",
              "type": "uint128"
            },
            {
              "internalType": "uint128",
              "name": "timeOfBirth",
              "type": "uint128"
            },
            {
              "internalType": "address",
              "name": "owner",
              "type": "address"
            },
            {
              "internalType": "uint256",
              "name": "price",
              "type": "uint256"
            }
          ],
          "internalType": "struct IPCWrapper.t_raw_ipc",
          "name": "",
          "type": "tuple"
        }
      ],
      "stateMutability": "view",
      "type": "function"
    },
    {
      "inputs": [],
      "name": "getProperties",
      "outputs": [
        {
          "components": [
            {
              "internalType": "address",
              "name": "contractAdress",
              "type": "address"
            },
            {
              "internalType": "string",
              "name": "tokenURI",
              "type": "string"
            },
            {
              "internalType": "string",
              "name": "contractURI",
              "type": "string"
            },
            {
              "internalType": "uint256",
              "name": "maxPrice",
              "type": "uint256"
            },
            {
              "internalType": "uint256",
              "name": "tokenLimit",
              "type": "uint256"
            },
            {
              "internalType": "bool",
              "name": "marketPlaceEnabled",
              "type": "bool"
            }
          ],
          "internalType": "struct IPCWrapper.t_properties",
          "name": "",
          "type": "tuple"
        }
      ],
      "stateMutability": "view",
      "type": "function"
    },
    {
      "inputs": [
        {
          "internalType": "address",
          "name": "owner",
          "type": "address"
        },
        {
          "internalType": "uint256",
          "name": "startIndex",
          "type": "uint256"
        },
        {
          "internalType": "uint256",
          "name": "total",
          "type": "uint256"
        }
      ],
      "name": "getTokensOfOwner",
      "outputs": [
        {
          "components": [
            {
              "internalType": "uint256",
              "name": "tokenId",
              "type": "uint256"
            },
            {
              "internalType": "string",
              "name": "name",
              "type": "string"
            },
            {
              "internalType": "bytes32",
              "name": "attributeSeed",
              "type": "bytes32"
            },
            {
              "internalType": "bytes32",
              "name": "dna",
              "type": "bytes32"
            },
            {
              "internalType": "uint128",
              "name": "experience",
              "type": "uint128"
            },
            {
              "internalType": "uint128",
              "name": "timeOfBirth",
              "type": "uint128"
            },
            {
              "internalType": "address",
              "name": "owner",
              "type": "address"
            },
            {
              "internalType": "uint256",
              "name": "price",
              "type": "uint256"
            }
          ],
          "internalType": "struct IPCWrapper.t_raw_ipc[]",
          "name": "",
          "type": "tuple[]"
        }
      ],
      "stateMutability": "view",
      "type": "function"
    },
    {
      "inputs": [
        {
          "internalType": "address",
          "name": "owner",
          "type": "address"
        },
        {
          "internalType": "address",
          "name": "operator",
          "type": "address"
        }
      ],
      "name": "isApprovedForAll",
      "outputs": [
        {
          "internalType": "bool",
          "name": "",
          "type": "bool"
        }
      ],
      "stateMutability": "view",
      "type": "function"
    },
    {
      "inputs": [],
      "name": "name",
      "outputs": [
        {
          "internalType": "string",
          "name": "",
          "type": "string"
        }
      ],
      "stateMutability": "view",
      "type": "function"
    },
    {
      "inputs": [
        {
          "internalType": "address",
          "name": "",
          "type": "address"
        },
        {
          "internalType": "address",
          "name": "",
          "type": "address"
        },
        {
          "internalType": "uint256",
          "name": "",
          "type": "uint256"
        },
        {
          "internalType": "bytes",
          "name": "",
          "type": "bytes"
        }
      ],
      "name": "onERC721Received",
      "outputs": [
        {
          "internalType": "bytes4",
          "name": "",
          "type": "bytes4"
        }
      ],
      "stateMutability": "pure",
      "type": "function"
    },
    {
      "inputs": [
        {
          "internalType": "address",
          "name": "",
          "type": "address"
        },
        {
          "internalType": "uint256",
          "name": "",
          "type": "uint256"
        },
        {
          "internalType": "bytes",
          "name": "",
          "type": "bytes"
        }
      ],
      "name": "onERC721Received",
      "outputs": [
        {
          "internalType": "bytes4",
          "name": "",
          "type": "bytes4"
        }
      ],
      "stateMutability": "pure",
      "type": "function"
    },
    {
      "inputs": [],
      "name": "owner",
      "outputs": [
        {
          "internalType": "address",
          "name": "",
          "type": "address"
        }
      ],
      "stateMutability": "view",
      "type": "function"
    },
    {
      "inputs": [
        {
          "internalType": "uint256",
          "name": "tokenId",
          "type": "uint256"
        }
      ],
      "name": "ownerOf",
      "outputs": [
        {
          "internalType": "address",
          "name": "",
          "type": "address"
        }
      ],
      "stateMutability": "view",
      "type": "function"
    },
    {
      "inputs": [],
      "name": "renounceOwnership",
      "outputs": [],
      "stateMutability": "nonpayable",
      "type": "function"
    },
    {
      "inputs": [
        {
          "internalType": "address",
          "name": "from",
          "type": "address"
        },
        {
          "internalType": "address",
          "name": "to",
          "type": "address"
        },
        {
          "internalType": "uint256",
          "name": "tokenId",
          "type": "uint256"
        }
      ],
      "name": "safeTransferFrom",
      "outputs": [],
      "stateMutability": "nonpayable",
      "type": "function"
    },
    {
      "inputs": [
        {
          "internalType": "address",
          "name": "from",
          "type": "address"
        },
        {
          "internalType": "address",
          "name": "to",
          "type": "address"
        },
        {
          "internalType": "uint256",
          "name": "tokenId",
          "type": "uint256"
        },
        {
          "internalType": "bytes",
          "name": "data",
          "type": "bytes"
        }
      ],
      "name": "safeTransferFrom",
      "outputs": [],
      "stateMutability": "nonpayable",
      "type": "function"
    },
    {
      "inputs": [
        {
          "internalType": "address",
          "name": "operator",
          "type": "address"
        },
        {
          "internalType": "bool",
          "name": "approved",
          "type": "bool"
        }
      ],
      "name": "setApprovalForAll",
      "outputs": [],
      "stateMutability": "nonpayable",
      "type": "function"
    },
    {
      "inputs": [
        {
          "internalType": "address",
          "name": "_contractAddress",
          "type": "address"
        }
      ],
      "name": "setContractAddress",
      "outputs": [],
      "stateMutability": "nonpayable",
      "type": "function"
    },
    {
      "inputs": [
        {
          "internalType": "string",
          "name": "__tokenURI",
          "type": "string"
        },
        {
          "internalType": "string",
          "name": "__contractURI",
          "type": "string"
        }
      ],
      "name": "setMetaDataURIs",
      "outputs": [],
      "stateMutability": "nonpayable",
      "type": "function"
    },
    {
      "inputs": [
        {
          "internalType": "uint256",
          "name": "_maxPrice",
          "type": "uint256"
        },
        {
          "internalType": "uint256",
          "name": "_tokenLimit",
          "type": "uint256"
        },
        {
          "internalType": "bool",
          "name": "_marketPlaceEnabled",
          "type": "bool"
        }
      ],
      "name": "setTokenomics",
      "outputs": [],
      "stateMutability": "nonpayable",
      "type": "function"
    },
    {
      "inputs": [
        {
          "internalType": "bytes4",
          "name": "interfaceId",
          "type": "bytes4"
        }
      ],
      "name": "supportsInterface",
      "outputs": [
        {
          "internalType": "bool",
          "name": "",
          "type": "bool"
        }
      ],
      "stateMutability": "view",
      "type": "function"
    },
    {
      "inputs": [],
      "name": "symbol",
      "outputs": [
        {
          "internalType": "string",
          "name": "",
          "type": "string"
        }
      ],
      "stateMutability": "view",
      "type": "function"
    },
    {
      "inputs": [
        {
          "internalType": "uint256",
          "name": "tokenId",
          "type": "uint256"
        }
      ],
      "name": "tokenURI",
      "outputs": [
        {
          "internalType": "string",
          "name": "",
          "type": "string"
        }
      ],
      "stateMutability": "view",
      "type": "function"
    },
    {
      "inputs": [],
      "name": "totalSupply",
      "outputs": [
        {
          "internalType": "uint256",
          "name": "",
          "type": "uint256"
        }
      ],
      "stateMutability": "view",
      "type": "function"
    },
    {
      "inputs": [
        {
          "internalType": "address",
          "name": "from",
          "type": "address"
        },
        {
          "internalType": "address",
          "name": "to",
          "type": "address"
        },
        {
          "internalType": "uint256",
          "name": "tokenId",
          "type": "uint256"
        }
      ],
      "name": "transferFrom",
      "outputs": [],
      "stateMutability": "nonpayable",
      "type": "function"
    },
    {
      "inputs": [
        {
          "internalType": "address",
          "name": "newOwner",
          "type": "address"
        }
      ],
      "name": "transferOwnership",
      "outputs": [],
      "stateMutability": "nonpayable",
      "type": "function"
    },
    {
      "inputs": [
        {
          "internalType": "uint256",
          "name": "tokenId",
          "type": "uint256"
        }
      ],
      "name": "unwrap",
      "outputs": [],
      "stateMutability": "nonpayable",
      "type": "function"
    },
    {
      "inputs": [
        {
          "internalType": "address",
          "name": "owner",
          "type": "address"
        }
      ],
      "name": "uwBalanceOf",
      "outputs": [
        {
          "internalType": "uint256",
          "name": "",
          "type": "uint256"
        }
      ],
      "stateMutability": "view",
      "type": "function"
    },
    {
      "inputs": [
        {
          "internalType": "uint256",
          "name": "startIndex",
          "type": "uint256"
        },
        {
          "internalType": "uint256",
          "name": "total",
          "type": "uint256"
        }
      ],
      "name": "uwGetAllTokens",
      "outputs": [
        {
          "components": [
            {
              "internalType": "uint256",
              "name": "tokenId",
              "type": "uint256"
            },
            {
              "internalType": "string",
              "name": "name",
              "type": "string"
            },
            {
              "internalType": "bytes32",
              "name": "attributeSeed",
              "type": "bytes32"
            },
            {
              "internalType": "bytes32",
              "name": "dna",
              "type": "bytes32"
            },
            {
              "internalType": "uint128",
              "name": "experience",
              "type": "uint128"
            },
            {
              "internalType": "uint128",
              "name": "timeOfBirth",
              "type": "uint128"
            },
            {
              "internalType": "address",
              "name": "owner",
              "type": "address"
            },
            {
              "internalType": "uint256",
              "name": "price",
              "type": "uint256"
            }
          ],
          "internalType": "struct IPCWrapper.t_raw_ipc[]",
          "name": "",
          "type": "tuple[]"
        }
      ],
      "stateMutability": "view",
      "type": "function"
    },
    {
      "inputs": [
        {
          "internalType": "address",
          "name": "owner",
          "type": "address"
        }
      ],
      "name": "uwGetTokenIdsOfOwner",
      "outputs": [
        {
          "internalType": "uint256[]",
          "name": "",
          "type": "uint256[]"
        }
      ],
      "stateMutability": "view",
      "type": "function"
    },
    {
      "inputs": [
        {
          "internalType": "address",
          "name": "owner",
          "type": "address"
        },
        {
          "internalType": "uint256",
          "name": "startIndex",
          "type": "uint256"
        },
        {
          "internalType": "uint256",
          "name": "total",
          "type": "uint256"
        }
      ],
      "name": "uwGetTokensOfOwner",
      "outputs": [
        {
          "components": [
            {
              "internalType": "uint256",
              "name": "tokenId",
              "type": "uint256"
            },
            {
              "internalType": "string",
              "name": "name",
              "type": "string"
            },
            {
              "internalType": "bytes32",
              "name": "attributeSeed",
              "type": "bytes32"
            },
            {
              "internalType": "bytes32",
              "name": "dna",
              "type": "bytes32"
            },
            {
              "internalType": "uint128",
              "name": "experience",
              "type": "uint128"
            },
            {
              "internalType": "uint128",
              "name": "timeOfBirth",
              "type": "uint128"
            },
            {
              "internalType": "address",
              "name": "owner",
              "type": "address"
            },
            {
              "internalType": "uint256",
              "name": "price",
              "type": "uint256"
            }
          ],
          "internalType": "struct IPCWrapper.t_raw_ipc[]",
          "name": "",
          "type": "tuple[]"
        }
      ],
      "stateMutability": "view",
      "type": "function"
    },
    {
      "inputs": [
        {
          "internalType": "uint256",
          "name": "tokenId",
          "type": "uint256"
        }
      ],
      "name": "uwOwnerOf",
      "outputs": [
        {
          "internalType": "address",
          "name": "",
          "type": "address"
        }
      ],
      "stateMutability": "view",
      "type": "function"
    },
    {
      "inputs": [
        {
          "internalType": "address",
          "name": "owner",
          "type": "address"
        }
      ],
      "name": "wGetTokenIdsOfOwner",
      "outputs": [
        {
          "internalType": "uint256[]",
          "name": "",
          "type": "uint256[]"
        }
      ],
      "stateMutability": "view",
      "type": "function"
    },
    {
      "inputs": [
        {
          "internalType": "uint256",
          "name": "tokenId",
          "type": "uint256"
        }
      ],
      "name": "wOwnerOf",
      "outputs": [
        {
          "internalType": "address",
          "name": "",
          "type": "address"
        }
      ],
      "stateMutability": "view",
      "type": "function"
    },
    {
      "inputs": [],
      "name": "withdrawalVault",
      "outputs": [],
      "stateMutability": "nonpayable",
      "type": "function"
    },
    {
      "inputs": [
        {
          "internalType": "uint256",
          "name": "tokenId",
          "type": "uint256"
        }
      ],
      "name": "wrap",
      "outputs": [],
      "stateMutability": "nonpayable",
      "type": "function"
    },
    {
      "inputs": [
        {
          "internalType": "uint256",
          "name": "tokenId",
          "type": "uint256"
        }
      ],
      "name": "wuwOwnerOf",
      "outputs": [
        {
          "internalType": "address",
          "name": "",
          "type": "address"
        }
      ],
      "stateMutability": "view",
      "type": "function"
    }
  ],
  "bytecode": "0x60806040523480156200001157600080fd5b506040518060400160405280601d81526020017f496d6d6f7274616c20506c6179657220436861726163746572732076300000008152506040518060400160405280600581526020017f49504356300000000000000000000000000000000000000000000000000000008152506200009e62000092620001bf60201b60201c565b620001c760201b60201c565b8160019080519060200190620000b69291906200028b565b508060029080519060200190620000cf9291906200028b565b505050734787993750b897fba6aad9e7328fc4f5c126e17c600960006101000a81548173ffffffffffffffffffffffffffffffffffffffff021916908373ffffffffffffffffffffffffffffffffffffffff160217905550604051806080016040528060438152602001620060336043913960079080519060200190620001589291906200028b565b5060405180608001604052806050815260200162005fe360509139600890805190602001906200018a9291906200028b565b50620f4240600a819055506103e8600b819055506001600c60006101000a81548160ff021916908315150217905550620003a0565b600033905090565b60008060009054906101000a900473ffffffffffffffffffffffffffffffffffffffff169050816000806101000a81548173ffffffffffffffffffffffffffffffffffffffff021916908373ffffffffffffffffffffffffffffffffffffffff1602179055508173ffffffffffffffffffffffffffffffffffffffff168173ffffffffffffffffffffffffffffffffffffffff167f8be0079c531659141344cd1fd0a4f28419497f9722a3daafe3b4186f6b6457e060405160405180910390a35050565b82805462000299906200036a565b90600052602060002090601f016020900481019282620002bd576000855562000309565b82601f10620002d857805160ff191683800117855562000309565b8280016001018555821562000309579182015b8281111562000308578251825591602001919060010190620002eb565b5b5090506200031891906200031c565b5090565b5b80821115620003375760008160009055506001016200031d565b5090565b7f4e487b7100000000000000000000000000000000000000000000000000000000600052602260045260246000fd5b600060028204905060018216806200038357607f821691505b602082108114156200039a57620003996200033b565b5b50919050565b615c3380620003b06000396000f3fe6080604052600436106102255760003560e01c80638da5cb5b11610123578063d764600d116100ab578063e985e9c51161006f578063e985e9c51461088c578063ea598cb0146108c9578063ec0cfd0b146108f2578063f0b9e5ba1461091d578063f2fde38b1461095a57610225565b8063d764600d146107a2578063de0e9a3e146107df578063dfb31a7c14610808578063e44141a914610824578063e8a3d4851461086157610225565b8063a81464da116100f2578063a81464da14610699578063b4f01a02146106c2578063b88d4fde146106ff578063c2619d1314610728578063c87b56dd1461076557610225565b80638da5cb5b146105dd57806395d89b41146106085780639c47470214610633578063a22cb4651461067057610225565b8063367213df116101b157806370a082311161017557806370a08231146104d2578063715018a61461050f578063736d098b146105265780637fff1e2f1461056357806389edc438146105a057610225565b8063367213df1461040357806342842e0e1461042c578063477bddaa146104555780636352211e1461047e57806369d42148146104bb57610225565b8063081812fc116101f8578063081812fc1461030c578063095ea7b314610349578063150b7a021461037257806318160ddd146103af57806323b872dd146103da57610225565b8063013abd6c1461022a57806301ffc9a7146102675780630280276a146102a457806306fdde03146102e1575b600080fd5b34801561023657600080fd5b50610251600480360381019061024c9190613bfc565b610983565b60405161025e9190613c42565b60405180910390f35b34801561027357600080fd5b5061028e60048036038101906102899190613cb5565b610a42565b60405161029b9190613cfd565b60405180910390f35b3480156102b057600080fd5b506102cb60048036038101906102c69190613bfc565b610b24565b6040516102d89190613dd6565b60405180910390f35b3480156102ed57600080fd5b506102f6610bc1565b6040516103039190613e91565b60405180910390f35b34801561031857600080fd5b50610333600480360381019061032e9190613edf565b610c53565b6040516103409190613f1b565b60405180910390f35b34801561035557600080fd5b50610370600480360381019061036b9190613f36565b610c99565b005b34801561037e57600080fd5b5061039960048036038101906103949190613fdb565b610db1565b6040516103a69190614072565b60405180910390f35b3480156103bb57600080fd5b506103c4610dc6565b6040516103d19190613c42565b60405180910390f35b3480156103e657600080fd5b5061040160048036038101906103fc919061408d565b610e6d565b005b34801561040f57600080fd5b5061042a6004803603810190610425919061410c565b610ecd565b005b34801561043857600080fd5b50610453600480360381019061044e919061408d565b610f02565b005b34801561046157600080fd5b5061047c60048036038101906104779190613bfc565b610f22565b005b34801561048a57600080fd5b506104a560048036038101906104a09190613edf565b610f6e565b6040516104b29190613f1b565b60405180910390f35b3480156104c757600080fd5b506104d0611020565b005b3480156104de57600080fd5b506104f960048036038101906104f49190613bfc565b6110d7565b6040516105069190613c42565b60405180910390f35b34801561051b57600080fd5b5061052461118f565b005b34801561053257600080fd5b5061054d60048036038101906105489190613edf565b6111a3565b60405161055a9190613f1b565b60405180910390f35b34801561056f57600080fd5b5061058a60048036038101906105859190613edf565b61127c565b60405161059791906142ac565b60405180910390f35b3480156105ac57600080fd5b506105c760048036038101906105c291906142ce565b611494565b6040516105d49190614493565b60405180910390f35b3480156105e957600080fd5b506105f2611679565b6040516105ff9190613f1b565b60405180910390f35b34801561061457600080fd5b5061061d6116a2565b60405161062a9190613e91565b60405180910390f35b34801561063f57600080fd5b5061065a60048036038101906106559190613bfc565b611734565b6040516106679190613dd6565b60405180910390f35b34801561067c57600080fd5b50610697600480360381019061069291906144b5565b6117f3565b005b3480156106a557600080fd5b506106c060048036038101906106bb919061454b565b611809565b005b3480156106ce57600080fd5b506106e960048036038101906106e49190613edf565b61183b565b6040516106f69190613f1b565b60405180910390f35b34801561070b57600080fd5b50610726600480360381019061072191906146fc565b6118ef565b005b34801561073457600080fd5b5061074f600480360381019061074a919061477f565b611951565b60405161075c9190614493565b60405180910390f35b34801561077157600080fd5b5061078c60048036038101906107879190613edf565b611a9b565b6040516107999190613e91565b60405180910390f35b3480156107ae57600080fd5b506107c960048036038101906107c491906142ce565b611b03565b6040516107d69190614493565b60405180910390f35b3480156107eb57600080fd5b5061080660048036038101906108019190613edf565b611d0a565b005b610822600480360381019061081d91906147bf565b611f1d565b005b34801561083057600080fd5b5061084b60048036038101906108469190613edf565b6120bc565b6040516108589190613f1b565b60405180910390f35b34801561086d57600080fd5b506108766120ce565b6040516108839190613e91565b60405180910390f35b34801561089857600080fd5b506108b360048036038101906108ae919061481f565b612160565b6040516108c09190613cfd565b60405180910390f35b3480156108d557600080fd5b506108f060048036038101906108eb9190613edf565b6121f4565b005b3480156108fe57600080fd5b5061090761250a565b60405161091491906148fe565b60405180910390f35b34801561092957600080fd5b50610944600480360381019061093f9190614920565b6126b3565b6040516109519190614072565b60405180910390f35b34801561096657600080fd5b50610981600480360381019061097c9190613bfc565b6126e0565b005b600080600960009054906101000a900473ffffffffffffffffffffffffffffffffffffffff1673ffffffffffffffffffffffffffffffffffffffff16638462151c846040518263ffffffff1660e01b81526004016109e19190613f1b565b60006040518083038186803b1580156109f957600080fd5b505afa158015610a0d573d6000803e3d6000fd5b505050506040513d6000823e3d601f19601f82011682018060405250810190610a369190614a6c565b90508051915050919050565b60007f80ac58cd000000000000000000000000000000000000000000000000000000007bffffffffffffffffffffffffffffffffffffffffffffffffffffffff1916827bffffffffffffffffffffffffffffffffffffffffffffffffffffffff19161480610b0d57507f5b5e139f000000000000000000000000000000000000000000000000000000007bffffffffffffffffffffffffffffffffffffffffffffffffffffffff1916827bffffffffffffffffffffffffffffffffffffffffffffffffffffffff1916145b80610b1d5750610b1c82612764565b5b9050919050565b60606000600d60008473ffffffffffffffffffffffffffffffffffffffff1673ffffffffffffffffffffffffffffffffffffffff168152602001908152602001600020805480602002602001604051908101604052809291908181526020018280548015610bb157602002820191906000526020600020905b815481526020019060010190808311610b9d575b5050505050905080915050919050565b606060018054610bd090614ae4565b80601f0160208091040260200160405190810160405280929190818152602001828054610bfc90614ae4565b8015610c495780601f10610c1e57610100808354040283529160200191610c49565b820191906000526020600020905b815481529060010190602001808311610c2c57829003601f168201915b5050505050905090565b6000610c5e826127ce565b6005600083815260200190815260200160002060009054906101000a900473ffffffffffffffffffffffffffffffffffffffff169050919050565b6000610ca482610f6e565b90508073ffffffffffffffffffffffffffffffffffffffff168373ffffffffffffffffffffffffffffffffffffffff161415610d15576040517f08c379a0000000000000000000000000000000000000000000000000000000008152600401610d0c90614b88565b60405180910390fd5b8073ffffffffffffffffffffffffffffffffffffffff16610d34612819565b73ffffffffffffffffffffffffffffffffffffffff161480610d635750610d6281610d5d612819565b612160565b5b610da2576040517f08c379a0000000000000000000000000000000000000000000000000000000008152600401610d9990614c1a565b60405180910390fd5b610dac8383612821565b505050565b600063150b7a0260e01b905095945050505050565b6000600960009054906101000a900473ffffffffffffffffffffffffffffffffffffffff1673ffffffffffffffffffffffffffffffffffffffff166318160ddd6040518163ffffffff1660e01b815260040160206040518083038186803b158015610e3057600080fd5b505afa158015610e44573d6000803e3d6000fd5b505050506040513d601f19601f82011682018060405250810190610e689190614c3a565b905090565b610e7e610e78612819565b826128da565b610ebd576040517f08c379a0000000000000000000000000000000000000000000000000000000008152600401610eb490614cd9565b60405180910390fd5b610ec883838361296f565b505050565b610ed5612bd6565b82600a8190555081600b8190555080600c60006101000a81548160ff021916908315150217905550505050565b610f1d838383604051806020016040528060008152506118ef565b505050565b610f2a612bd6565b80600960006101000a81548173ffffffffffffffffffffffffffffffffffffffff021916908373ffffffffffffffffffffffffffffffffffffffff16021790555050565b6000806003600084815260200190815260200160002060009054906101000a900473ffffffffffffffffffffffffffffffffffffffff169050600073ffffffffffffffffffffffffffffffffffffffff168173ffffffffffffffffffffffffffffffffffffffff161415611017576040517f08c379a000000000000000000000000000000000000000000000000000000000815260040161100e90614d45565b60405180910390fd5b80915050919050565b611028612bd6565b60003373ffffffffffffffffffffffffffffffffffffffff164760405161104e90614d96565b60006040518083038185875af1925050503d806000811461108b576040519150601f19603f3d011682016040523d82523d6000602084013e611090565b606091505b50509050806110d4576040517f08c379a00000000000000000000000000000000000000000000000000000000081526004016110cb90614df7565b60405180910390fd5b50565b60008073ffffffffffffffffffffffffffffffffffffffff168273ffffffffffffffffffffffffffffffffffffffff161415611148576040517f08c379a000000000000000000000000000000000000000000000000000000000815260040161113f90614e89565b60405180910390fd5b600460008373ffffffffffffffffffffffffffffffffffffffff1673ffffffffffffffffffffffffffffffffffffffff168152602001908152602001600020549050919050565b611197612bd6565b6111a16000612c54565b565b60008015156111b183612d18565b1515141561126b57600960009054906101000a900473ffffffffffffffffffffffffffffffffffffffff1673ffffffffffffffffffffffffffffffffffffffff16636352211e836040518263ffffffff1660e01b81526004016112149190613c42565b60206040518083038186803b15801561122c57600080fd5b505afa158015611240573d6000803e3d6000fd5b505050506040513d601f19601f820116820180604052508101906112649190614ebe565b9050611277565b61127482610f6e565b90505b919050565b611284613a14565b6000806000806000600960009054906101000a900473ffffffffffffffffffffffffffffffffffffffff1673ffffffffffffffffffffffffffffffffffffffff16637fff1e2f886040518263ffffffff1660e01b81526004016112e79190613c42565b60006040518083038186803b1580156112ff57600080fd5b505afa158015611313573d6000803e3d6000fd5b505050506040513d6000823e3d601f19601f8201168201806040525081019061133c9190614fe4565b945094509450945094506000600960009054906101000a900473ffffffffffffffffffffffffffffffffffffffff1673ffffffffffffffffffffffffffffffffffffffff166331ef7314896040518263ffffffff1660e01b81526004016113a39190613c42565b60806040518083038186803b1580156113bb57600080fd5b505afa1580156113cf573d6000803e3d6000fd5b505050506040513d601f19601f820116820180604052508101906113f39190615134565b90506000611400896111a3565b905060006040518061010001604052808b8152602001898152602001888152602001878152602001866fffffffffffffffffffffffffffffffff168152602001856fffffffffffffffffffffffffffffffff1681526020018373ffffffffffffffffffffffffffffffffffffffff168152602001846000015163ffffffff1681525090508098505050505050505050919050565b60606000600d60008673ffffffffffffffffffffffffffffffffffffffff1673ffffffffffffffffffffffffffffffffffffffff16815260200190815260200160002080548060200260200160405190810160405280929190818152602001828054801561152157602002820191906000526020600020905b81548152602001906001019080831161150d575b505050505090506000815190508085111561153b57600094505b600081111561157657600084148061155d5750848161155a9190615190565b84115b1561157157848161156e9190615190565b93505b61157f565b60009050600193505b60008467ffffffffffffffff81111561159b5761159a6145d1565b5b6040519080825280602002602001820160405280156115d457816020015b6115c1613a14565b8152602001906001900390816115b95790505b50905060008214156115eb57809350505050611672565b6000806115f6613a14565b600092505b878310156116685785838a61161091906151c4565b815181106116215761162061521a565b5b602002602001015191506116348261127c565b90508084848151811061164a5761164961521a565b5b6020026020010181905250828061166090615249565b9350506115fb565b8396505050505050505b9392505050565b60008060009054906101000a900473ffffffffffffffffffffffffffffffffffffffff16905090565b6060600280546116b190614ae4565b80601f01602080910402602001604051908101604052809291908181526020018280546116dd90614ae4565b801561172a5780601f106116ff5761010080835404028352916020019161172a565b820191906000526020600020905b81548152906001019060200180831161170d57829003601f168201915b5050505050905090565b60606000600960009054906101000a900473ffffffffffffffffffffffffffffffffffffffff1673ffffffffffffffffffffffffffffffffffffffff16638462151c846040518263ffffffff1660e01b81526004016117939190613f1b565b60006040518083038186803b1580156117ab57600080fd5b505afa1580156117bf573d6000803e3d6000fd5b505050506040513d6000823e3d601f19601f820116820180604052508101906117e89190614a6c565b905080915050919050565b6118056117fe612819565b8383612d84565b5050565b611811612bd6565b838360079190611822929190613a99565b50818160089190611834929190613a99565b5050505050565b6000600960009054906101000a900473ffffffffffffffffffffffffffffffffffffffff1673ffffffffffffffffffffffffffffffffffffffff16636352211e836040518263ffffffff1660e01b81526004016118989190613c42565b60206040518083038186803b1580156118b057600080fd5b505afa1580156118c4573d6000803e3d6000fd5b505050506040513d601f19601f820116820180604052508101906118e89190614ebe565b9050919050565b6119006118fa612819565b836128da565b61193f576040517f08c379a000000000000000000000000000000000000000000000000000000000815260040161193690614cd9565b60405180910390fd5b61194b84848484612ef1565b50505050565b6060600061195d610dc6565b9050600084148061196d57508084115b1561197757600193505b60008111156119be5760008314806119a557508360018261199891906151c4565b6119a29190615190565b83115b156119b95783816119b69190615190565b92505b6119c7565b60009050600192505b60008367ffffffffffffffff8111156119e3576119e26145d1565b5b604051908082528060200260200182016040528015611a1c57816020015b611a09613a14565b815260200190600190039081611a015790505b5090506000821415611a32578092505050611a95565b60005b84811015611a8e5760008187611a4b91906151c4565b90506000611a588261127c565b905080848481518110611a6e57611a6d61521a565b5b602002602001018190525050508080611a8690615249565b915050611a35565b8193505050505b92915050565b6060611aa6826127ce565b6000611ab0612f4d565b90506000815111611ad05760405180602001604052806000815250611afb565b80611ada84612fdf565b604051602001611aeb9291906152ce565b6040516020818303038152906040525b915050919050565b60606000600960009054906101000a900473ffffffffffffffffffffffffffffffffffffffff1673ffffffffffffffffffffffffffffffffffffffff16638462151c866040518263ffffffff1660e01b8152600401611b629190613f1b565b60006040518083038186803b158015611b7a57600080fd5b505afa158015611b8e573d6000803e3d6000fd5b505050506040513d6000823e3d601f19601f82011682018060405250810190611bb79190614a6c565b905060008151905080851115611bcc57600094505b6000811115611c07576000841480611bee57508481611beb9190615190565b84115b15611c02578481611bff9190615190565b93505b611c10565b60009050600193505b60008467ffffffffffffffff811115611c2c57611c2b6145d1565b5b604051908082528060200260200182016040528015611c6557816020015b611c52613a14565b815260200190600190039081611c4a5790505b5090506000821415611c7c57809350505050611d03565b600080611c87613a14565b600092505b87831015611cf95785838a611ca191906151c4565b81518110611cb257611cb161521a565b5b60200260200101519150611cc58261127c565b905080848481518110611cdb57611cda61521a565b5b60200260200101819052508280611cf190615249565b935050611c8c565b8396505050505050505b9392505050565b60001515611d1782612d18565b15151415611d5a576040517f08c379a0000000000000000000000000000000000000000000000000000000008152600401611d519061533e565b60405180910390fd5b6000611d658261183b565b90503373ffffffffffffffffffffffffffffffffffffffff16611d87836120bc565b73ffffffffffffffffffffffffffffffffffffffff1614611e11573373ffffffffffffffffffffffffffffffffffffffff168173ffffffffffffffffffffffffffffffffffffffff1614611e10576040517f08c379a0000000000000000000000000000000000000000000000000000000008152600401611e07906153aa565b60405180910390fd5b5b3073ffffffffffffffffffffffffffffffffffffffff168173ffffffffffffffffffffffffffffffffffffffff161415611ed757600960009054906101000a900473ffffffffffffffffffffffffffffffffffffffff1673ffffffffffffffffffffffffffffffffffffffff166342842e0e3033856040518463ffffffff1660e01b8152600401611ea4939291906153ca565b600060405180830381600087803b158015611ebe57600080fd5b505af1158015611ed2573d6000803e3d6000fd5b505050505b611ee082613140565b7f1d27d1c62712f590d53fa9eb8bbf3a75d09503deae319bb9d99644339cb312e18233604051611f11929190615401565b60405180910390a15050565b3373ffffffffffffffffffffffffffffffffffffffff16611f3d846120bc565b73ffffffffffffffffffffffffffffffffffffffff1614611f93576040517f08c379a0000000000000000000000000000000000000000000000000000000008152600401611f8a90615476565b60405180910390fd5b60001515600c60009054906101000a900460ff1615151415611fea576040517f08c379a0000000000000000000000000000000000000000000000000000000008152600401611fe1906154e2565b60405180910390fd5b600960009054906101000a900473ffffffffffffffffffffffffffffffffffffffff1673ffffffffffffffffffffffffffffffffffffffff1663dfb31a7c348585856040518563ffffffff1660e01b815260040161204a9392919061552f565b6000604051808303818588803b15801561206357600080fd5b505af1158015612077573d6000803e3d6000fd5b50505050507f60319c6511f3c90c2a37bcd711c518923ef5dd5528be697b9b4a23a1aace6c9c8383836040516120af9392919061552f565b60405180910390a1505050565b60006120c782610f6e565b9050919050565b6060600880546120dd90614ae4565b80601f016020809104026020016040519081016040528092919081815260200182805461210990614ae4565b80156121565780601f1061212b57610100808354040283529160200191612156565b820191906000526020600020905b81548152906001019060200180831161213957829003601f168201915b5050505050905090565b6000600660008473ffffffffffffffffffffffffffffffffffffffff1673ffffffffffffffffffffffffffffffffffffffff16815260200190815260200160002060008373ffffffffffffffffffffffffffffffffffffffff1673ffffffffffffffffffffffffffffffffffffffff16815260200190815260200160002060009054906101000a900460ff16905092915050565b600b548111801561221157506000151561220d82612d18565b1515145b15612251576040517f08c379a0000000000000000000000000000000000000000000000000000000008152600401612248906155ad565b60405180910390fd5b61225a81612d18565b15612310573373ffffffffffffffffffffffffffffffffffffffff1661227f826120bc565b73ffffffffffffffffffffffffffffffffffffffff16146122d5576040517f08c379a00000000000000000000000000000000000000000000000000000000081526004016122cc906153aa565b60405180910390fd5b6040517f08c379a000000000000000000000000000000000000000000000000000000000815260040161230790615619565b60405180910390fd5b600061231b8261183b565b90503373ffffffffffffffffffffffffffffffffffffffff168173ffffffffffffffffffffffffffffffffffffffff161461238b576040517f08c379a0000000000000000000000000000000000000000000000000000000008152600401612382906153aa565b60405180910390fd5b600960009054906101000a900473ffffffffffffffffffffffffffffffffffffffff1673ffffffffffffffffffffffffffffffffffffffff166342842e0e3330856040518463ffffffff1660e01b81526004016123ea939291906153ca565b600060405180830381600087803b15801561240457600080fd5b505af1158015612418573d6000803e3d6000fd5b50505050600c60009054906101000a900460ff16156124c357600960009054906101000a900473ffffffffffffffffffffffffffffffffffffffff1673ffffffffffffffffffffffffffffffffffffffff16633d4cfe2183600a546040518363ffffffff1660e01b8152600401612490929190615639565b600060405180830381600087803b1580156124aa57600080fd5b505af11580156124be573d6000803e3d6000fd5b505050505b6124cd338361325d565b7f9c307a39a47fdf1a019642a4e8a585ffe9894b5018226029887fe6d4241611bb82336040516124fe929190615401565b60405180910390a15050565b612512613b1f565b61251a612bd6565b60006040518060c00160405280600960009054906101000a900473ffffffffffffffffffffffffffffffffffffffff1673ffffffffffffffffffffffffffffffffffffffff1681526020016007805461257290614ae4565b80601f016020809104026020016040519081016040528092919081815260200182805461259e90614ae4565b80156125eb5780601f106125c0576101008083540402835291602001916125eb565b820191906000526020600020905b8154815290600101906020018083116125ce57829003601f168201915b505050505081526020016008805461260290614ae4565b80601f016020809104026020016040519081016040528092919081815260200182805461262e90614ae4565b801561267b5780601f106126505761010080835404028352916020019161267b565b820191906000526020600020905b81548152906001019060200180831161265e57829003601f168201915b50505050508152602001600a548152602001600b548152602001600c60009054906101000a900460ff16151581525090508091505090565b60007ff0b9e5baf647f945565b0ac04522b519449041bdd44f952626b9ead9ff3692419050949350505050565b6126e8612bd6565b600073ffffffffffffffffffffffffffffffffffffffff168173ffffffffffffffffffffffffffffffffffffffff161415612758576040517f08c379a000000000000000000000000000000000000000000000000000000000815260040161274f906156d4565b60405180910390fd5b61276181612c54565b50565b60007f01ffc9a7000000000000000000000000000000000000000000000000000000007bffffffffffffffffffffffffffffffffffffffffffffffffffffffff1916827bffffffffffffffffffffffffffffffffffffffffffffffffffffffff1916149050919050565b6127d781612d18565b612816576040517f08c379a000000000000000000000000000000000000000000000000000000000815260040161280d90614d45565b60405180910390fd5b50565b600033905090565b816005600083815260200190815260200160002060006101000a81548173ffffffffffffffffffffffffffffffffffffffff021916908373ffffffffffffffffffffffffffffffffffffffff160217905550808273ffffffffffffffffffffffffffffffffffffffff1661289483610f6e565b73ffffffffffffffffffffffffffffffffffffffff167f8c5be1e5ebec7d5bd14f71427d1e84f3dd0314c0f7b2291e5b200ac8c7c3b92560405160405180910390a45050565b6000806128e683610f6e565b90508073ffffffffffffffffffffffffffffffffffffffff168473ffffffffffffffffffffffffffffffffffffffff16148061292857506129278185612160565b5b8061296657508373ffffffffffffffffffffffffffffffffffffffff1661294e84610c53565b73ffffffffffffffffffffffffffffffffffffffff16145b91505092915050565b8273ffffffffffffffffffffffffffffffffffffffff1661298f82610f6e565b73ffffffffffffffffffffffffffffffffffffffff16146129e5576040517f08c379a00000000000000000000000000000000000000000000000000000000081526004016129dc90615766565b60405180910390fd5b600073ffffffffffffffffffffffffffffffffffffffff168273ffffffffffffffffffffffffffffffffffffffff161415612a55576040517f08c379a0000000000000000000000000000000000000000000000000000000008152600401612a4c906157f8565b60405180910390fd5b612a6083838361327b565b612a6b600082612821565b6001600460008573ffffffffffffffffffffffffffffffffffffffff1673ffffffffffffffffffffffffffffffffffffffff1681526020019081526020016000206000828254612abb9190615190565b925050819055506001600460008473ffffffffffffffffffffffffffffffffffffffff1673ffffffffffffffffffffffffffffffffffffffff1681526020019081526020016000206000828254612b1291906151c4565b92505081905550816003600083815260200190815260200160002060006101000a81548173ffffffffffffffffffffffffffffffffffffffff021916908373ffffffffffffffffffffffffffffffffffffffff160217905550808273ffffffffffffffffffffffffffffffffffffffff168473ffffffffffffffffffffffffffffffffffffffff167fddf252ad1be2c89b69c2b068fc378daa952ba7f163c4a11628f55a4df523b3ef60405160405180910390a4612bd1838383613280565b505050565b612bde612819565b73ffffffffffffffffffffffffffffffffffffffff16612bfc611679565b73ffffffffffffffffffffffffffffffffffffffff1614612c52576040517f08c379a0000000000000000000000000000000000000000000000000000000008152600401612c4990615864565b60405180910390fd5b565b60008060009054906101000a900473ffffffffffffffffffffffffffffffffffffffff169050816000806101000a81548173ffffffffffffffffffffffffffffffffffffffff021916908373ffffffffffffffffffffffffffffffffffffffff1602179055508173ffffffffffffffffffffffffffffffffffffffff168173ffffffffffffffffffffffffffffffffffffffff167f8be0079c531659141344cd1fd0a4f28419497f9722a3daafe3b4186f6b6457e060405160405180910390a35050565b60008073ffffffffffffffffffffffffffffffffffffffff166003600084815260200190815260200160002060009054906101000a900473ffffffffffffffffffffffffffffffffffffffff1673ffffffffffffffffffffffffffffffffffffffff1614159050919050565b8173ffffffffffffffffffffffffffffffffffffffff168373ffffffffffffffffffffffffffffffffffffffff161415612df3576040517f08c379a0000000000000000000000000000000000000000000000000000000008152600401612dea906158d0565b60405180910390fd5b80600660008573ffffffffffffffffffffffffffffffffffffffff1673ffffffffffffffffffffffffffffffffffffffff16815260200190815260200160002060008473ffffffffffffffffffffffffffffffffffffffff1673ffffffffffffffffffffffffffffffffffffffff16815260200190815260200160002060006101000a81548160ff0219169083151502179055508173ffffffffffffffffffffffffffffffffffffffff168373ffffffffffffffffffffffffffffffffffffffff167f17307eab39ab6107e8899845ad3d59bd9653f200f220920489ca2b5937696c3183604051612ee49190613cfd565b60405180910390a3505050565b612efc84848461296f565b612f0884848484613376565b612f47576040517f08c379a0000000000000000000000000000000000000000000000000000000008152600401612f3e90615962565b60405180910390fd5b50505050565b606060078054612f5c90614ae4565b80601f0160208091040260200160405190810160405280929190818152602001828054612f8890614ae4565b8015612fd55780601f10612faa57610100808354040283529160200191612fd5565b820191906000526020600020905b815481529060010190602001808311612fb857829003601f168201915b5050505050905090565b60606000821415613027576040518060400160405280600181526020017f3000000000000000000000000000000000000000000000000000000000000000815250905061313b565b600082905060005b6000821461305957808061304290615249565b915050600a8261305291906159b1565b915061302f565b60008167ffffffffffffffff811115613075576130746145d1565b5b6040519080825280601f01601f1916602001820160405280156130a75781602001600182028036833780820191505090505b5090505b60008514613134576001826130c09190615190565b9150600a856130cf91906159e2565b60306130db91906151c4565b60f81b8183815181106130f1576130f061521a565b5b60200101907effffffffffffffffffffffffffffffffffffffffffffffffffffffffffffff1916908160001a905350600a8561312d91906159b1565b94506130ab565b8093505050505b919050565b600061314b82610f6e565b90506131598160008461327b565b613164600083612821565b6001600460008373ffffffffffffffffffffffffffffffffffffffff1673ffffffffffffffffffffffffffffffffffffffff16815260200190815260200160002060008282546131b49190615190565b925050819055506003600083815260200190815260200160002060006101000a81549073ffffffffffffffffffffffffffffffffffffffff021916905581600073ffffffffffffffffffffffffffffffffffffffff168273ffffffffffffffffffffffffffffffffffffffff167fddf252ad1be2c89b69c2b068fc378daa952ba7f163c4a11628f55a4df523b3ef60405160405180910390a461325981600084613280565b5050565b61327782826040518060200160405280600081525061350d565b5050565b505050565b600073ffffffffffffffffffffffffffffffffffffffff168373ffffffffffffffffffffffffffffffffffffffff16141561332057600d60008373ffffffffffffffffffffffffffffffffffffffff1673ffffffffffffffffffffffffffffffffffffffff168152602001908152602001600020819080600181540180825580915050600190039060005260206000200160009091909190915055613371565b600073ffffffffffffffffffffffffffffffffffffffff168273ffffffffffffffffffffffffffffffffffffffff1614156133645761335f8382613568565b613370565b61336f838383613767565b5b5b505050565b60006133978473ffffffffffffffffffffffffffffffffffffffff16613817565b15613500578373ffffffffffffffffffffffffffffffffffffffff1663150b7a026133c0612819565b8786866040518563ffffffff1660e01b81526004016133e29493929190615a68565b602060405180830381600087803b1580156133fc57600080fd5b505af192505050801561342d57506040513d601f19601f8201168201806040525081019061342a9190615ac9565b60015b6134b0573d806000811461345d576040519150601f19603f3d011682016040523d82523d6000602084013e613462565b606091505b506000815114156134a8576040517f08c379a000000000000000000000000000000000000000000000000000000000815260040161349f90615962565b60405180910390fd5b805181602001fd5b63150b7a0260e01b7bffffffffffffffffffffffffffffffffffffffffffffffffffffffff1916817bffffffffffffffffffffffffffffffffffffffffffffffffffffffff191614915050613505565b600190505b949350505050565b613517838361383a565b6135246000848484613376565b613563576040517f08c379a000000000000000000000000000000000000000000000000000000000815260040161355a90615962565b60405180910390fd5b505050565b6000600d60008473ffffffffffffffffffffffffffffffffffffffff1673ffffffffffffffffffffffffffffffffffffffff16815260200190815260200160002080549050905060005b818110156137615782600d60008673ffffffffffffffffffffffffffffffffffffffff1673ffffffffffffffffffffffffffffffffffffffff168152602001908152602001600020828154811061360c5761360b61521a565b5b9060005260206000200154141561374e57600d60008573ffffffffffffffffffffffffffffffffffffffff1673ffffffffffffffffffffffffffffffffffffffff1681526020019081526020016000206001836136699190615190565b8154811061367a5761367961521a565b5b9060005260206000200154600d60008673ffffffffffffffffffffffffffffffffffffffff1673ffffffffffffffffffffffffffffffffffffffff16815260200190815260200160002082815481106136d6576136d561521a565b5b9060005260206000200181905550600d60008573ffffffffffffffffffffffffffffffffffffffff1673ffffffffffffffffffffffffffffffffffffffff16815260200190815260200160002080548061373357613732615af6565b5b60019003818190600052602060002001600090559055613761565b808061375990615249565b9150506135b2565b50505050565b600073ffffffffffffffffffffffffffffffffffffffff168373ffffffffffffffffffffffffffffffffffffffff1614156137a157613812565b6137ab8382613568565b600d60008373ffffffffffffffffffffffffffffffffffffffff1673ffffffffffffffffffffffffffffffffffffffff1681526020019081526020016000208190806001815401808255809150506001900390600052602060002001600090919091909150555b505050565b6000808273ffffffffffffffffffffffffffffffffffffffff163b119050919050565b600073ffffffffffffffffffffffffffffffffffffffff168273ffffffffffffffffffffffffffffffffffffffff1614156138aa576040517f08c379a00000000000000000000000000000000000000000000000000000000081526004016138a190615b71565b60405180910390fd5b6138b381612d18565b156138f3576040517f08c379a00000000000000000000000000000000000000000000000000000000081526004016138ea90615bdd565b60405180910390fd5b6138ff6000838361327b565b6001600460008473ffffffffffffffffffffffffffffffffffffffff1673ffffffffffffffffffffffffffffffffffffffff168152602001908152602001600020600082825461394f91906151c4565b92505081905550816003600083815260200190815260200160002060006101000a81548173ffffffffffffffffffffffffffffffffffffffff021916908373ffffffffffffffffffffffffffffffffffffffff160217905550808273ffffffffffffffffffffffffffffffffffffffff16600073ffffffffffffffffffffffffffffffffffffffff167fddf252ad1be2c89b69c2b068fc378daa952ba7f163c4a11628f55a4df523b3ef60405160405180910390a4613a1060008383613280565b5050565b6040518061010001604052806000815260200160608152602001600080191681526020016000801916815260200160006fffffffffffffffffffffffffffffffff16815260200160006fffffffffffffffffffffffffffffffff168152602001600073ffffffffffffffffffffffffffffffffffffffff168152602001600081525090565b828054613aa590614ae4565b90600052602060002090601f016020900481019282613ac75760008555613b0e565b82601f10613ae057803560ff1916838001178555613b0e565b82800160010185558215613b0e579182015b82811115613b0d578235825591602001919060010190613af2565b5b509050613b1b9190613b6d565b5090565b6040518060c00160405280600073ffffffffffffffffffffffffffffffffffffffff168152602001606081526020016060815260200160008152602001600081526020016000151581525090565b5b80821115613b86576000816000905550600101613b6e565b5090565b6000604051905090565b600080fd5b600080fd5b600073ffffffffffffffffffffffffffffffffffffffff82169050919050565b6000613bc982613b9e565b9050919050565b613bd981613bbe565b8114613be457600080fd5b50565b600081359050613bf681613bd0565b92915050565b600060208284031215613c1257613c11613b94565b5b6000613c2084828501613be7565b91505092915050565b6000819050919050565b613c3c81613c29565b82525050565b6000602082019050613c576000830184613c33565b92915050565b60007fffffffff0000000000000000000000000000000000000000000000000000000082169050919050565b613c9281613c5d565b8114613c9d57600080fd5b50565b600081359050613caf81613c89565b92915050565b600060208284031215613ccb57613cca613b94565b5b6000613cd984828501613ca0565b91505092915050565b60008115159050919050565b613cf781613ce2565b82525050565b6000602082019050613d126000830184613cee565b92915050565b600081519050919050565b600082825260208201905092915050565b6000819050602082019050919050565b613d4d81613c29565b82525050565b6000613d5f8383613d44565b60208301905092915050565b6000602082019050919050565b6000613d8382613d18565b613d8d8185613d23565b9350613d9883613d34565b8060005b83811015613dc9578151613db08882613d53565b9750613dbb83613d6b565b925050600181019050613d9c565b5085935050505092915050565b60006020820190508181036000830152613df08184613d78565b905092915050565b600081519050919050565b600082825260208201905092915050565b60005b83811015613e32578082015181840152602081019050613e17565b83811115613e41576000848401525b50505050565b6000601f19601f8301169050919050565b6000613e6382613df8565b613e6d8185613e03565b9350613e7d818560208601613e14565b613e8681613e47565b840191505092915050565b60006020820190508181036000830152613eab8184613e58565b905092915050565b613ebc81613c29565b8114613ec757600080fd5b50565b600081359050613ed981613eb3565b92915050565b600060208284031215613ef557613ef4613b94565b5b6000613f0384828501613eca565b91505092915050565b613f1581613bbe565b82525050565b6000602082019050613f306000830184613f0c565b92915050565b60008060408385031215613f4d57613f4c613b94565b5b6000613f5b85828601613be7565b9250506020613f6c85828601613eca565b9150509250929050565b600080fd5b600080fd5b600080fd5b60008083601f840112613f9b57613f9a613f76565b5b8235905067ffffffffffffffff811115613fb857613fb7613f7b565b5b602083019150836001820283011115613fd457613fd3613f80565b5b9250929050565b600080600080600060808688031215613ff757613ff6613b94565b5b600061400588828901613be7565b955050602061401688828901613be7565b945050604061402788828901613eca565b935050606086013567ffffffffffffffff81111561404857614047613b99565b5b61405488828901613f85565b92509250509295509295909350565b61406c81613c5d565b82525050565b60006020820190506140876000830184614063565b92915050565b6000806000606084860312156140a6576140a5613b94565b5b60006140b486828701613be7565b93505060206140c586828701613be7565b92505060406140d686828701613eca565b9150509250925092565b6140e981613ce2565b81146140f457600080fd5b50565b600081359050614106816140e0565b92915050565b60008060006060848603121561412557614124613b94565b5b600061413386828701613eca565b935050602061414486828701613eca565b9250506040614155868287016140f7565b9150509250925092565b600082825260208201905092915050565b600061417b82613df8565b614185818561415f565b9350614195818560208601613e14565b61419e81613e47565b840191505092915050565b6000819050919050565b6141bc816141a9565b82525050565b60006fffffffffffffffffffffffffffffffff82169050919050565b6141e7816141c2565b82525050565b6141f681613bbe565b82525050565b6000610100830160008301516142156000860182613d44565b506020830151848203602086015261422d8282614170565b915050604083015161424260408601826141b3565b50606083015161425560608601826141b3565b50608083015161426860808601826141de565b5060a083015161427b60a08601826141de565b5060c083015161428e60c08601826141ed565b5060e08301516142a160e0860182613d44565b508091505092915050565b600060208201905081810360008301526142c681846141fc565b905092915050565b6000806000606084860312156142e7576142e6613b94565b5b60006142f586828701613be7565b935050602061430686828701613eca565b925050604061431786828701613eca565b9150509250925092565b600081519050919050565b600082825260208201905092915050565b6000819050602082019050919050565b6000610100830160008301516143666000860182613d44565b506020830151848203602086015261437e8282614170565b915050604083015161439360408601826141b3565b5060608301516143a660608601826141b3565b5060808301516143b960808601826141de565b5060a08301516143cc60a08601826141de565b5060c08301516143df60c08601826141ed565b5060e08301516143f260e0860182613d44565b508091505092915050565b6000614409838361434d565b905092915050565b6000602082019050919050565b600061442982614321565b614433818561432c565b9350836020820285016144458561433d565b8060005b85811015614481578484038952815161446285826143fd565b945061446d83614411565b925060208a01995050600181019050614449565b50829750879550505050505092915050565b600060208201905081810360008301526144ad818461441e565b905092915050565b600080604083850312156144cc576144cb613b94565b5b60006144da85828601613be7565b92505060206144eb858286016140f7565b9150509250929050565b60008083601f84011261450b5761450a613f76565b5b8235905067ffffffffffffffff81111561452857614527613f7b565b5b60208301915083600182028301111561454457614543613f80565b5b9250929050565b6000806000806040858703121561456557614564613b94565b5b600085013567ffffffffffffffff81111561458357614582613b99565b5b61458f878288016144f5565b9450945050602085013567ffffffffffffffff8111156145b2576145b1613b99565b5b6145be878288016144f5565b925092505092959194509250565b600080fd5b7f4e487b7100000000000000000000000000000000000000000000000000000000600052604160045260246000fd5b61460982613e47565b810181811067ffffffffffffffff82111715614628576146276145d1565b5b80604052505050565b600061463b613b8a565b90506146478282614600565b919050565b600067ffffffffffffffff821115614667576146666145d1565b5b61467082613e47565b9050602081019050919050565b82818337600083830152505050565b600061469f61469a8461464c565b614631565b9050828152602081018484840111156146bb576146ba6145cc565b5b6146c684828561467d565b509392505050565b600082601f8301126146e3576146e2613f76565b5b81356146f384826020860161468c565b91505092915050565b6000806000806080858703121561471657614715613b94565b5b600061472487828801613be7565b945050602061473587828801613be7565b935050604061474687828801613eca565b925050606085013567ffffffffffffffff81111561476757614766613b99565b5b614773878288016146ce565b91505092959194509250565b6000806040838503121561479657614795613b94565b5b60006147a485828601613eca565b92505060206147b585828601613eca565b9150509250929050565b6000806000604084860312156147d8576147d7613b94565b5b60006147e686828701613eca565b935050602084013567ffffffffffffffff81111561480757614806613b99565b5b614813868287016144f5565b92509250509250925092565b6000806040838503121561483657614835613b94565b5b600061484485828601613be7565b925050602061485585828601613be7565b9150509250929050565b61486881613ce2565b82525050565b600060c08301600083015161488660008601826141ed565b506020830151848203602086015261489e8282614170565b915050604083015184820360408601526148b88282614170565b91505060608301516148cd6060860182613d44565b5060808301516148e06080860182613d44565b5060a08301516148f360a086018261485f565b508091505092915050565b60006020820190508181036000830152614918818461486e565b905092915050565b6000806000806060858703121561493a57614939613b94565b5b600061494887828801613be7565b945050602061495987828801613eca565b935050604085013567ffffffffffffffff81111561497a57614979613b99565b5b61498687828801613f85565b925092505092959194509250565b600067ffffffffffffffff8211156149af576149ae6145d1565b5b602082029050602081019050919050565b6000815190506149cf81613eb3565b92915050565b60006149e86149e384614994565b614631565b90508083825260208201905060208402830185811115614a0b57614a0a613f80565b5b835b81811015614a345780614a2088826149c0565b845260208401935050602081019050614a0d565b5050509392505050565b600082601f830112614a5357614a52613f76565b5b8151614a638482602086016149d5565b91505092915050565b600060208284031215614a8257614a81613b94565b5b600082015167ffffffffffffffff811115614aa057614a9f613b99565b5b614aac84828501614a3e565b91505092915050565b7f4e487b7100000000000000000000000000000000000000000000000000000000600052602260045260246000fd5b60006002820490506001821680614afc57607f821691505b60208210811415614b1057614b0f614ab5565b5b50919050565b7f4552433732313a20617070726f76616c20746f2063757272656e74206f776e6560008201527f7200000000000000000000000000000000000000000000000000000000000000602082015250565b6000614b72602183613e03565b9150614b7d82614b16565b604082019050919050565b60006020820190508181036000830152614ba181614b65565b9050919050565b7f4552433732313a20617070726f76652063616c6c6572206973206e6f7420746f60008201527f6b656e206f776e6572206e6f7220617070726f76656420666f7220616c6c0000602082015250565b6000614c04603e83613e03565b9150614c0f82614ba8565b604082019050919050565b60006020820190508181036000830152614c3381614bf7565b9050919050565b600060208284031215614c5057614c4f613b94565b5b6000614c5e848285016149c0565b91505092915050565b7f4552433732313a2063616c6c6572206973206e6f7420746f6b656e206f776e6560008201527f72206e6f7220617070726f766564000000000000000000000000000000000000602082015250565b6000614cc3602e83613e03565b9150614cce82614c67565b604082019050919050565b60006020820190508181036000830152614cf281614cb6565b9050919050565b7f4552433732313a20696e76616c696420746f6b656e2049440000000000000000600082015250565b6000614d2f601883613e03565b9150614d3a82614cf9565b602082019050919050565b60006020820190508181036000830152614d5e81614d22565b9050919050565b600081905092915050565b50565b6000614d80600083614d65565b9150614d8b82614d70565b600082019050919050565b6000614da182614d73565b9150819050919050565b7f5641554c545f5452414e534645525f4641494c45440000000000000000000000600082015250565b6000614de1601583613e03565b9150614dec82614dab565b602082019050919050565b60006020820190508181036000830152614e1081614dd4565b9050919050565b7f4552433732313a2061646472657373207a65726f206973206e6f74206120766160008201527f6c6964206f776e65720000000000000000000000000000000000000000000000602082015250565b6000614e73602983613e03565b9150614e7e82614e17565b604082019050919050565b60006020820190508181036000830152614ea281614e66565b9050919050565b600081519050614eb881613bd0565b92915050565b600060208284031215614ed457614ed3613b94565b5b6000614ee284828501614ea9565b91505092915050565b600067ffffffffffffffff821115614f0657614f056145d1565b5b614f0f82613e47565b9050602081019050919050565b6000614f2f614f2a84614eeb565b614631565b905082815260208101848484011115614f4b57614f4a6145cc565b5b614f56848285613e14565b509392505050565b600082601f830112614f7357614f72613f76565b5b8151614f83848260208601614f1c565b91505092915050565b614f95816141a9565b8114614fa057600080fd5b50565b600081519050614fb281614f8c565b92915050565b614fc1816141c2565b8114614fcc57600080fd5b50565b600081519050614fde81614fb8565b92915050565b600080600080600060a0868803121561500057614fff613b94565b5b600086015167ffffffffffffffff81111561501e5761501d613b99565b5b61502a88828901614f5e565b955050602061503b88828901614fa3565b945050604061504c88828901614fa3565b935050606061505d88828901614fcf565b925050608061506e88828901614fcf565b9150509295509295909350565b600080fd5b600063ffffffff82169050919050565b61509981615080565b81146150a457600080fd5b50565b6000815190506150b681615090565b92915050565b6000608082840312156150d2576150d161507b565b5b6150dc6080614631565b905060006150ec848285016150a7565b6000830152506020615100848285016150a7565b602083015250604061511484828501614ea9565b604083015250606061512884828501614ea9565b60608301525092915050565b60006080828403121561514a57615149613b94565b5b6000615158848285016150bc565b91505092915050565b7f4e487b7100000000000000000000000000000000000000000000000000000000600052601160045260246000fd5b600061519b82613c29565b91506151a683613c29565b9250828210156151b9576151b8615161565b5b828203905092915050565b60006151cf82613c29565b91506151da83613c29565b9250827fffffffffffffffffffffffffffffffffffffffffffffffffffffffffffffffff0382111561520f5761520e615161565b5b828201905092915050565b7f4e487b7100000000000000000000000000000000000000000000000000000000600052603260045260246000fd5b600061525482613c29565b91507fffffffffffffffffffffffffffffffffffffffffffffffffffffffffffffffff82141561528757615286615161565b5b600182019050919050565b600081905092915050565b60006152a882613df8565b6152b28185615292565b93506152c2818560208601613e14565b80840191505092915050565b60006152da828561529d565b91506152e6828461529d565b91508190509392505050565b7f544f4b454e5f4e4f545f57524150504544000000000000000000000000000000600082015250565b6000615328601183613e03565b9150615333826152f2565b602082019050919050565b600060208201905081810360008301526153578161531b565b9050919050565b7f4e4f545f4f574e4552535f544f4b454e00000000000000000000000000000000600082015250565b6000615394601083613e03565b915061539f8261535e565b602082019050919050565b600060208201905081810360008301526153c381615387565b9050919050565b60006060820190506153df6000830186613f0c565b6153ec6020830185613f0c565b6153f96040830184613c33565b949350505050565b60006040820190506154166000830185613c33565b6154236020830184613f0c565b9392505050565b7f544f4b454e5f4e4f545f4f574e45520000000000000000000000000000000000600082015250565b6000615460600f83613e03565b915061546b8261542a565b602082019050919050565b6000602082019050818103600083015261548f81615453565b9050919050565b7f4d41524b4554504c4143455f44495341424c4544000000000000000000000000600082015250565b60006154cc601483613e03565b91506154d782615496565b602082019050919050565b600060208201905081810360008301526154fb816154bf565b9050919050565b600061550e8385613e03565b935061551b83858461467d565b61552483613e47565b840190509392505050565b60006040820190506155446000830186613c33565b8181036020830152615557818486615502565b9050949350505050565b7f544f4b454e5f4c494d49545f5245414348454400000000000000000000000000600082015250565b6000615597601383613e03565b91506155a282615561565b602082019050919050565b600060208201905081810360008301526155c68161558a565b9050919050565b7f544f4b454e5f414c52454144595f575241505045440000000000000000000000600082015250565b6000615603601583613e03565b915061560e826155cd565b602082019050919050565b60006020820190508181036000830152615632816155f6565b9050919050565b600060408201905061564e6000830185613c33565b61565b6020830184613c33565b9392505050565b7f4f776e61626c653a206e6577206f776e657220697320746865207a65726f206160008201527f6464726573730000000000000000000000000000000000000000000000000000602082015250565b60006156be602683613e03565b91506156c982615662565b604082019050919050565b600060208201905081810360008301526156ed816156b1565b9050919050565b7f4552433732313a207472616e736665722066726f6d20696e636f72726563742060008201527f6f776e6572000000000000000000000000000000000000000000000000000000602082015250565b6000615750602583613e03565b915061575b826156f4565b604082019050919050565b6000602082019050818103600083015261577f81615743565b9050919050565b7f4552433732313a207472616e7366657220746f20746865207a65726f2061646460008201527f7265737300000000000000000000000000000000000000000000000000000000602082015250565b60006157e2602483613e03565b91506157ed82615786565b604082019050919050565b60006020820190508181036000830152615811816157d5565b9050919050565b7f4f776e61626c653a2063616c6c6572206973206e6f7420746865206f776e6572600082015250565b600061584e602083613e03565b915061585982615818565b602082019050919050565b6000602082019050818103600083015261587d81615841565b9050919050565b7f4552433732313a20617070726f766520746f2063616c6c657200000000000000600082015250565b60006158ba601983613e03565b91506158c582615884565b602082019050919050565b600060208201905081810360008301526158e9816158ad565b9050919050565b7f4552433732313a207472616e7366657220746f206e6f6e20455243373231526560008201527f63656976657220696d706c656d656e7465720000000000000000000000000000602082015250565b600061594c603283613e03565b9150615957826158f0565b604082019050919050565b6000602082019050818103600083015261597b8161593f565b9050919050565b7f4e487b7100000000000000000000000000000000000000000000000000000000600052601260045260246000fd5b60006159bc82613c29565b91506159c783613c29565b9250826159d7576159d6615982565b5b828204905092915050565b60006159ed82613c29565b91506159f883613c29565b925082615a0857615a07615982565b5b828206905092915050565b600081519050919050565b600082825260208201905092915050565b6000615a3a82615a13565b615a448185615a1e565b9350615a54818560208601613e14565b615a5d81613e47565b840191505092915050565b6000608082019050615a7d6000830187613f0c565b615a8a6020830186613f0c565b615a976040830185613c33565b8181036060830152615aa98184615a2f565b905095945050505050565b600081519050615ac381613c89565b92915050565b600060208284031215615adf57615ade613b94565b5b6000615aed84828501615ab4565b91505092915050565b7f4e487b7100000000000000000000000000000000000000000000000000000000600052603160045260246000fd5b7f4552433732313a206d696e7420746f20746865207a65726f2061646472657373600082015250565b6000615b5b602083613e03565b9150615b6682615b25565b602082019050919050565b60006020820190508181036000830152615b8a81615b4e565b9050919050565b7f4552433732313a20746f6b656e20616c7265616479206d696e74656400000000600082015250565b6000615bc7601c83613e03565b9150615bd282615b91565b602082019050919050565b60006020820190508181036000830152615bf681615bba565b905091905056fea264697066735822122058fd642d2e52d62e6f809de2a269fb7090d398e9f151db44c90fdfa8b01381f664736f6c63430008090033697066733a2f2f62616679626569657733747a696b686b6a6a637a6963796365793664676d6464656d6d72627033636c73773775357a6478676a736e3473733479692f636f6e74726163742e6a736f6e697066733a2f2f62616679626569657733747a696b686b6a6a637a6963796365793664676d6464656d6d72627033636c73773775357a6478676a736e3473733479692f",
  "linkReferences": {},
  "deployedLinkReferences": {}
}