{
  "_format": "hh-sol-artifact-1",
  "contractName": "IPCWrapper",
  "sourceName": "contracts/IPCWrapper-old.sol",
  "abi": [
    {
      "inputs": [],
      "stateMutability": "nonpayable",
      "type": "constructor"
    },
    {
      "inputs": [],
      "name": "ApprovalCallerNotOwnerNorApproved",
      "type": "error"
    },
    {
      "inputs": [],
      "name": "ApprovalQueryForNonexistentToken",
      "type": "error"
    },
    {
      "inputs": [],
      "name": "ApproveToCaller",
      "type": "error"
    },
    {
      "inputs": [],
      "name": "BalanceQueryForZeroAddress",
      "type": "error"
    },
    {
      "inputs": [],
      "name": "MintERC2309QuantityExceedsLimit",
      "type": "error"
    },
    {
      "inputs": [],
      "name": "MintToZeroAddress",
      "type": "error"
    },
    {
      "inputs": [],
      "name": "MintZeroQuantity",
      "type": "error"
    },
    {
      "inputs": [],
      "name": "OwnerQueryForNonexistentToken",
      "type": "error"
    },
    {
      "inputs": [],
      "name": "OwnershipNotInitializedForExtraData",
      "type": "error"
    },
    {
      "inputs": [],
      "name": "TransferCallerNotOwnerNorApproved",
      "type": "error"
    },
    {
      "inputs": [],
      "name": "TransferFromIncorrectOwner",
      "type": "error"
    },
    {
      "inputs": [],
      "name": "TransferToNonERC721ReceiverImplementer",
      "type": "error"
    },
    {
      "inputs": [],
      "name": "TransferToZeroAddress",
      "type": "error"
    },
    {
      "inputs": [],
      "name": "URIQueryForNonexistentToken",
      "type": "error"
    },
    {
      "anonymous": false,
      "inputs": [
        {
          "indexed": true,
          "internalType": "address",
          "name": "owner",
          "type": "address"
        },
        {
          "indexed": true,
          "internalType": "address",
          "name": "approved",
          "type": "address"
        },
        {
          "indexed": true,
          "internalType": "uint256",
          "name": "tokenId",
          "type": "uint256"
        }
      ],
      "name": "Approval",
      "type": "event"
    },
    {
      "anonymous": false,
      "inputs": [
        {
          "indexed": true,
          "internalType": "address",
          "name": "owner",
          "type": "address"
        },
        {
          "indexed": true,
          "internalType": "address",
          "name": "operator",
          "type": "address"
        },
        {
          "indexed": false,
          "internalType": "bool",
          "name": "approved",
          "type": "bool"
        }
      ],
      "name": "ApprovalForAll",
      "type": "event"
    },
    {
      "anonymous": false,
      "inputs": [
        {
          "indexed": true,
          "internalType": "uint256",
          "name": "fromTokenId",
          "type": "uint256"
        },
        {
          "indexed": false,
          "internalType": "uint256",
          "name": "toTokenId",
          "type": "uint256"
        },
        {
          "indexed": true,
          "internalType": "address",
          "name": "from",
          "type": "address"
        },
        {
          "indexed": true,
          "internalType": "address",
          "name": "to",
          "type": "address"
        }
      ],
      "name": "ConsecutiveTransfer",
      "type": "event"
    },
    {
      "anonymous": false,
      "inputs": [
        {
          "indexed": true,
          "internalType": "address",
          "name": "previousOwner",
          "type": "address"
        },
        {
          "indexed": true,
          "internalType": "address",
          "name": "newOwner",
          "type": "address"
        }
      ],
      "name": "OwnershipTransferred",
      "type": "event"
    },
    {
      "anonymous": false,
      "inputs": [
        {
          "indexed": true,
          "internalType": "address",
          "name": "from",
          "type": "address"
        },
        {
          "indexed": true,
          "internalType": "address",
          "name": "to",
          "type": "address"
        },
        {
          "indexed": true,
          "internalType": "uint256",
          "name": "tokenId",
          "type": "uint256"
        }
      ],
      "name": "Transfer",
      "type": "event"
    },
    {
      "anonymous": false,
      "inputs": [
        {
          "indexed": false,
          "internalType": "uint256",
          "name": "",
          "type": "uint256"
        },
        {
          "indexed": false,
          "internalType": "uint256",
          "name": "",
          "type": "uint256"
        },
        {
          "indexed": false,
          "internalType": "address",
          "name": "",
          "type": "address"
        }
      ],
      "name": "Unwrapped",
      "type": "event"
    },
    {
      "anonymous": false,
      "inputs": [
        {
          "indexed": false,
          "internalType": "uint256",
          "name": "",
          "type": "uint256"
        },
        {
          "indexed": false,
          "internalType": "uint256",
          "name": "",
          "type": "uint256"
        },
        {
          "indexed": false,
          "internalType": "address",
          "name": "",
          "type": "address"
        }
      ],
      "name": "Wrapped",
      "type": "event"
    },
    {
      "anonymous": false,
      "inputs": [
        {
          "indexed": false,
          "internalType": "uint256",
          "name": "",
          "type": "uint256"
        },
        {
          "indexed": false,
          "internalType": "string",
          "name": "",
          "type": "string"
        }
      ],
      "name": "nameChangeOK",
      "type": "event"
    },
    {
      "inputs": [
        {
          "internalType": "address",
          "name": "to",
          "type": "address"
        },
        {
          "internalType": "uint256",
          "name": "tokenId",
          "type": "uint256"
        }
      ],
      "name": "approve",
      "outputs": [],
      "stateMutability": "nonpayable",
      "type": "function"
    },
    {
      "inputs": [
        {
          "internalType": "address",
          "name": "owner",
          "type": "address"
        }
      ],
      "name": "balanceOf",
      "outputs": [
        {
          "internalType": "uint256",
          "name": "",
          "type": "uint256"
        }
      ],
      "stateMutability": "view",
      "type": "function"
    },
    {
      "inputs": [
        {
          "internalType": "uint256",
          "name": "tokenId",
          "type": "uint256"
        },
        {
          "internalType": "string",
          "name": "newName",
          "type": "string"
        }
      ],
      "name": "changeIpcName",
      "outputs": [],
      "stateMutability": "payable",
      "type": "function"
    },
    {
      "inputs": [],
      "name": "contractURI",
      "outputs": [
        {
          "internalType": "string",
          "name": "",
          "type": "string"
        }
      ],
      "stateMutability": "view",
      "type": "function"
    },
    {
      "inputs": [
        {
          "internalType": "uint256",
          "name": "tokenId",
          "type": "uint256"
        }
      ],
      "name": "getApproved",
      "outputs": [
        {
          "internalType": "address",
          "name": "",
          "type": "address"
        }
      ],
      "stateMutability": "view",
      "type": "function"
    },
    {
      "inputs": [
        {
          "internalType": "uint256",
          "name": "tokenId",
          "type": "uint256"
        }
      ],
      "name": "getIpc",
      "outputs": [
        {
          "components": [
            {
              "internalType": "uint256",
              "name": "tokenId",
              "type": "uint256"
            },
            {
              "internalType": "string",
              "name": "name",
              "type": "string"
            },
            {
              "internalType": "bytes32",
              "name": "attributeSeed",
              "type": "bytes32"
            },
            {
              "internalType": "bytes32",
              "name": "dna",
              "type": "bytes32"
            },
            {
              "internalType": "uint128",
              "name": "experience",
              "type": "uint128"
            },
            {
              "internalType": "uint128",
              "name": "timeOfBirth",
              "type": "uint128"
            },
            {
              "internalType": "address",
              "name": "owner",
              "type": "address"
            }
          ],
          "internalType": "struct IPCWrapper.t_raw_ipc",
          "name": "",
          "type": "tuple"
        }
      ],
      "stateMutability": "view",
      "type": "function"
    },
    {
      "inputs": [],
      "name": "getProperties",
      "outputs": [
        {
          "components": [
            {
              "internalType": "address",
              "name": "contractAdress",
              "type": "address"
            },
            {
              "internalType": "string",
              "name": "tokenURI",
              "type": "string"
            },
            {
              "internalType": "string",
              "name": "contractURI",
              "type": "string"
            },
            {
              "internalType": "uint256",
              "name": "maxPrice",
              "type": "uint256"
            },
            {
              "internalType": "uint256",
              "name": "tokenLimit",
              "type": "uint256"
            }
          ],
          "internalType": "struct IPCWrapper.t_properties",
          "name": "",
          "type": "tuple"
        }
      ],
      "stateMutability": "view",
      "type": "function"
    },
    {
      "inputs": [
        {
          "internalType": "uint256",
          "name": "tokenId",
          "type": "uint256"
        }
      ],
      "name": "getTokenIndex",
      "outputs": [
        {
          "internalType": "uint256",
          "name": "",
          "type": "uint256"
        }
      ],
      "stateMutability": "view",
      "type": "function"
    },
    {
      "inputs": [
        {
          "internalType": "address",
          "name": "owner",
          "type": "address"
        },
        {
          "internalType": "uint256",
          "name": "startIndex",
          "type": "uint256"
        },
        {
          "internalType": "uint256",
          "name": "total",
          "type": "uint256"
        }
      ],
      "name": "getTokensOfOwner",
      "outputs": [
        {
          "components": [
            {
              "internalType": "uint256",
              "name": "tokenId",
              "type": "uint256"
            },
            {
              "internalType": "string",
              "name": "name",
              "type": "string"
            },
            {
              "internalType": "bytes32",
              "name": "attributeSeed",
              "type": "bytes32"
            },
            {
              "internalType": "bytes32",
              "name": "dna",
              "type": "bytes32"
            },
            {
              "internalType": "uint128",
              "name": "experience",
              "type": "uint128"
            },
            {
              "internalType": "uint128",
              "name": "timeOfBirth",
              "type": "uint128"
            },
            {
              "internalType": "address",
              "name": "owner",
              "type": "address"
            }
          ],
          "internalType": "struct IPCWrapper.t_raw_ipc[]",
          "name": "",
          "type": "tuple[]"
        }
      ],
      "stateMutability": "view",
      "type": "function"
    },
    {
      "inputs": [
        {
          "internalType": "address",
          "name": "owner",
          "type": "address"
        },
        {
          "internalType": "address",
          "name": "operator",
          "type": "address"
        }
      ],
      "name": "isApprovedForAll",
      "outputs": [
        {
          "internalType": "bool",
          "name": "",
          "type": "bool"
        }
      ],
      "stateMutability": "view",
      "type": "function"
    },
    {
      "inputs": [],
      "name": "name",
      "outputs": [
        {
          "internalType": "string",
          "name": "",
          "type": "string"
        }
      ],
      "stateMutability": "view",
      "type": "function"
    },
    {
      "inputs": [
        {
          "internalType": "address",
          "name": "",
          "type": "address"
        },
        {
          "internalType": "address",
          "name": "",
          "type": "address"
        },
        {
          "internalType": "uint256",
          "name": "",
          "type": "uint256"
        },
        {
          "internalType": "bytes",
          "name": "",
          "type": "bytes"
        }
      ],
      "name": "onERC721Received",
      "outputs": [
        {
          "internalType": "bytes4",
          "name": "",
          "type": "bytes4"
        }
      ],
      "stateMutability": "pure",
      "type": "function"
    },
    {
      "inputs": [
        {
          "internalType": "address",
          "name": "",
          "type": "address"
        },
        {
          "internalType": "uint256",
          "name": "",
          "type": "uint256"
        },
        {
          "internalType": "bytes",
          "name": "",
          "type": "bytes"
        }
      ],
      "name": "onERC721Received",
      "outputs": [
        {
          "internalType": "bytes4",
          "name": "",
          "type": "bytes4"
        }
      ],
      "stateMutability": "pure",
      "type": "function"
    },
    {
      "inputs": [],
      "name": "owner",
      "outputs": [
        {
          "internalType": "address",
          "name": "",
          "type": "address"
        }
      ],
      "stateMutability": "view",
      "type": "function"
    },
    {
      "inputs": [
        {
          "internalType": "uint256",
          "name": "tokenId",
          "type": "uint256"
        }
      ],
      "name": "ownerOf",
      "outputs": [
        {
          "internalType": "address",
          "name": "",
          "type": "address"
        }
      ],
      "stateMutability": "view",
      "type": "function"
    },
    {
      "inputs": [],
      "name": "renounceOwnership",
      "outputs": [],
      "stateMutability": "nonpayable",
      "type": "function"
    },
    {
      "inputs": [
        {
          "internalType": "address",
          "name": "from",
          "type": "address"
        },
        {
          "internalType": "address",
          "name": "to",
          "type": "address"
        },
        {
          "internalType": "uint256",
          "name": "tokenId",
          "type": "uint256"
        }
      ],
      "name": "safeTransferFrom",
      "outputs": [],
      "stateMutability": "nonpayable",
      "type": "function"
    },
    {
      "inputs": [
        {
          "internalType": "address",
          "name": "from",
          "type": "address"
        },
        {
          "internalType": "address",
          "name": "to",
          "type": "address"
        },
        {
          "internalType": "uint256",
          "name": "tokenId",
          "type": "uint256"
        },
        {
          "internalType": "bytes",
          "name": "_data",
          "type": "bytes"
        }
      ],
      "name": "safeTransferFrom",
      "outputs": [],
      "stateMutability": "nonpayable",
      "type": "function"
    },
    {
      "inputs": [
        {
          "internalType": "address",
          "name": "operator",
          "type": "address"
        },
        {
          "internalType": "bool",
          "name": "approved",
          "type": "bool"
        }
      ],
      "name": "setApprovalForAll",
      "outputs": [],
      "stateMutability": "nonpayable",
      "type": "function"
    },
    {
      "inputs": [
        {
          "internalType": "address",
          "name": "_contractAddress",
          "type": "address"
        }
      ],
      "name": "setContractAddress",
      "outputs": [],
      "stateMutability": "nonpayable",
      "type": "function"
    },
    {
      "inputs": [
        {
          "internalType": "uint256",
          "name": "_maxPrice",
          "type": "uint256"
        },
        {
          "internalType": "uint256",
          "name": "_tokenLimit",
          "type": "uint256"
        },
        {
          "internalType": "string",
          "name": "__tokenURI",
          "type": "string"
        },
        {
          "internalType": "string",
          "name": "__contractURI",
          "type": "string"
        }
      ],
      "name": "setProperties",
      "outputs": [],
      "stateMutability": "nonpayable",
      "type": "function"
    },
    {
      "inputs": [
        {
          "internalType": "bytes4",
          "name": "interfaceId",
          "type": "bytes4"
        }
      ],
      "name": "supportsInterface",
      "outputs": [
        {
          "internalType": "bool",
          "name": "",
          "type": "bool"
        }
      ],
      "stateMutability": "view",
      "type": "function"
    },
    {
      "inputs": [],
      "name": "symbol",
      "outputs": [
        {
          "internalType": "string",
          "name": "",
          "type": "string"
        }
      ],
      "stateMutability": "view",
      "type": "function"
    },
    {
      "inputs": [
        {
          "internalType": "uint256",
          "name": "tokenId",
          "type": "uint256"
        }
      ],
      "name": "tokenURI",
      "outputs": [
        {
          "internalType": "string",
          "name": "",
          "type": "string"
        }
      ],
      "stateMutability": "view",
      "type": "function"
    },
    {
      "inputs": [],
      "name": "totalSupply",
      "outputs": [
        {
          "internalType": "uint256",
          "name": "",
          "type": "uint256"
        }
      ],
      "stateMutability": "view",
      "type": "function"
    },
    {
      "inputs": [
        {
          "internalType": "address",
          "name": "from",
          "type": "address"
        },
        {
          "internalType": "address",
          "name": "to",
          "type": "address"
        },
        {
          "internalType": "uint256",
          "name": "tokenId",
          "type": "uint256"
        }
      ],
      "name": "transferFrom",
      "outputs": [],
      "stateMutability": "nonpayable",
      "type": "function"
    },
    {
      "inputs": [
        {
          "internalType": "address",
          "name": "newOwner",
          "type": "address"
        }
      ],
      "name": "transferOwnership",
      "outputs": [],
      "stateMutability": "nonpayable",
      "type": "function"
    },
    {
      "inputs": [
        {
          "internalType": "uint256",
          "name": "tokenId",
          "type": "uint256"
        }
      ],
      "name": "unwrap",
      "outputs": [],
      "stateMutability": "nonpayable",
      "type": "function"
    },
    {
      "inputs": [
        {
          "internalType": "address",
          "name": "owner",
          "type": "address"
        }
      ],
      "name": "uwBalanceOf",
      "outputs": [
        {
          "internalType": "uint256",
          "name": "",
          "type": "uint256"
        }
      ],
      "stateMutability": "view",
      "type": "function"
    },
    {
      "inputs": [
        {
          "internalType": "uint256",
          "name": "startIndex",
          "type": "uint256"
        },
        {
          "internalType": "uint256",
          "name": "total",
          "type": "uint256"
        }
      ],
      "name": "uwGetAllTokens",
      "outputs": [
        {
          "components": [
            {
              "internalType": "uint256",
              "name": "tokenId",
              "type": "uint256"
            },
            {
              "internalType": "string",
              "name": "name",
              "type": "string"
            },
            {
              "internalType": "bytes32",
              "name": "attributeSeed",
              "type": "bytes32"
            },
            {
              "internalType": "bytes32",
              "name": "dna",
              "type": "bytes32"
            },
            {
              "internalType": "uint128",
              "name": "experience",
              "type": "uint128"
            },
            {
              "internalType": "uint128",
              "name": "timeOfBirth",
              "type": "uint128"
            },
            {
              "internalType": "address",
              "name": "owner",
              "type": "address"
            }
          ],
          "internalType": "struct IPCWrapper.t_raw_ipc[]",
          "name": "",
          "type": "tuple[]"
        }
      ],
      "stateMutability": "view",
      "type": "function"
    },
    {
      "inputs": [
        {
          "internalType": "address",
          "name": "owner",
          "type": "address"
        },
        {
          "internalType": "uint256",
          "name": "startIndex",
          "type": "uint256"
        },
        {
          "internalType": "uint256",
          "name": "total",
          "type": "uint256"
        }
      ],
      "name": "uwGetTokensOfOwner",
      "outputs": [
        {
          "components": [
            {
              "internalType": "uint256",
              "name": "tokenId",
              "type": "uint256"
            },
            {
              "internalType": "string",
              "name": "name",
              "type": "string"
            },
            {
              "internalType": "bytes32",
              "name": "attributeSeed",
              "type": "bytes32"
            },
            {
              "internalType": "bytes32",
              "name": "dna",
              "type": "bytes32"
            },
            {
              "internalType": "uint128",
              "name": "experience",
              "type": "uint128"
            },
            {
              "internalType": "uint128",
              "name": "timeOfBirth",
              "type": "uint128"
            },
            {
              "internalType": "address",
              "name": "owner",
              "type": "address"
            }
          ],
          "internalType": "struct IPCWrapper.t_raw_ipc[]",
          "name": "",
          "type": "tuple[]"
        }
      ],
      "stateMutability": "view",
      "type": "function"
    },
    {
      "inputs": [
        {
          "internalType": "uint256",
          "name": "tokenId",
          "type": "uint256"
        }
      ],
      "name": "uwOwnerOf",
      "outputs": [
        {
          "internalType": "address",
          "name": "",
          "type": "address"
        }
      ],
      "stateMutability": "view",
      "type": "function"
    },
    {
      "inputs": [],
      "name": "withdrawalVault",
      "outputs": [],
      "stateMutability": "nonpayable",
      "type": "function"
    },
    {
      "inputs": [
        {
          "internalType": "uint256",
          "name": "tokenId",
          "type": "uint256"
        }
      ],
      "name": "wrap",
      "outputs": [],
      "stateMutability": "nonpayable",
      "type": "function"
    }
  ],
  "bytecode": "0x60806040523480156200001157600080fd5b506040518060400160405280601d81526020017f496d6d6f7274616c20506c6179657220436861726163746572732076300000008152506040518060400160405280600581526020017f49504356300000000000000000000000000000000000000000000000000000008152506200009e62000092620001ba60201b60201c565b620001c260201b60201c565b8160039080519060200190620000b69291906200028f565b508060049080519060200190620000cf9291906200028f565b50620000e06200028660201b60201c565b600181905550505073ace8aa6699f1e71f07622135a93140ca296d610a600960006101000a81548173ffffffffffffffffffffffffffffffffffffffff021916908373ffffffffffffffffffffffffffffffffffffffff160217905550604051806060016040528060258152602001620055f660259139600a90805190602001906200016e9291906200028f565b50604051806060016040528060278152602001620055cf60279139600b9080519060200190620001a09291906200028f565b50620f4240600c819055506103e8600d81905550620003a4565b600033905090565b60008060009054906101000a900473ffffffffffffffffffffffffffffffffffffffff169050816000806101000a81548173ffffffffffffffffffffffffffffffffffffffff021916908373ffffffffffffffffffffffffffffffffffffffff1602179055508173ffffffffffffffffffffffffffffffffffffffff168173ffffffffffffffffffffffffffffffffffffffff167f8be0079c531659141344cd1fd0a4f28419497f9722a3daafe3b4186f6b6457e060405160405180910390a35050565b60006001905090565b8280546200029d906200036e565b90600052602060002090601f016020900481019282620002c157600085556200030d565b82601f10620002dc57805160ff19168380011785556200030d565b828001600101855582156200030d579182015b828111156200030c578251825591602001919060010190620002ef565b5b5090506200031c919062000320565b5090565b5b808211156200033b57600081600090555060010162000321565b5090565b7f4e487b7100000000000000000000000000000000000000000000000000000000600052602260045260246000fd5b600060028204905060018216806200038757607f821691505b602082108114156200039e576200039d6200033f565b5b50919050565b61521b80620003b46000396000f3fe6080604052600436106101f95760003560e01c806389edc4381161010d578063d764600d116100a0578063e985e9c51161006f578063e985e9c514610780578063ea598cb0146107bd578063ec0cfd0b146107e6578063f0b9e5ba14610811578063f2fde38b1461084e576101f9565b8063d764600d146106d3578063de0e9a3e14610710578063dfb31a7c14610739578063e8a3d48514610755576101f9565b8063b4f01a02116100dc578063b4f01a02146105f3578063b88d4fde14610630578063c2619d1314610659578063c87b56dd14610696576101f9565b806389edc438146105375780638da5cb5b1461057457806395d89b411461059f578063a22cb465146105ca576101f9565b806323b872dd116101905780636352211e1161015f5780636352211e1461045257806369d421481461048f57806370a08231146104a6578063715018a6146104e35780637fff1e2f146104fa576101f9565b806323b872dd1461039a5780633a663c80146103c357806342842e0e14610400578063477bddaa14610429576101f9565b8063095ea7b3116101cc578063095ea7b3146102e0578063150b7a021461030957806318160ddd1461034657806320f95f6214610371576101f9565b8063013abd6c146101fe57806301ffc9a71461023b57806306fdde0314610278578063081812fc146102a3575b600080fd5b34801561020a57600080fd5b5061022560048036038101906102209190613a43565b610877565b6040516102329190613a89565b60405180910390f35b34801561024757600080fd5b50610262600480360381019061025d9190613afc565b610936565b60405161026f9190613b44565b60405180910390f35b34801561028457600080fd5b5061028d6109c8565b60405161029a9190613bf8565b60405180910390f35b3480156102af57600080fd5b506102ca60048036038101906102c59190613c46565b610a5a565b6040516102d79190613c82565b60405180910390f35b3480156102ec57600080fd5b5061030760048036038101906103029190613c9d565b610a79565b005b34801561031557600080fd5b50610330600480360381019061032b9190613d42565b610bc4565b60405161033d9190613dd9565b60405180910390f35b34801561035257600080fd5b5061035b610bd9565b6040516103689190613a89565b60405180910390f35b34801561037d57600080fd5b5061039860048036038101906103939190613e4a565b610c80565b005b3480156103a657600080fd5b506103c160048036038101906103bc9190613ef1565b610cc2565b005b3480156103cf57600080fd5b506103ea60048036038101906103e59190613c46565b610d3b565b6040516103f79190613a89565b60405180910390f35b34801561040c57600080fd5b5061042760048036038101906104229190613ef1565b610d58565b005b34801561043557600080fd5b50610450600480360381019061044b9190613a43565b610d78565b005b34801561045e57600080fd5b5061047960048036038101906104749190613c46565b610dc4565b6040516104869190613c82565b60405180910390f35b34801561049b57600080fd5b506104a4610ed4565b005b3480156104b257600080fd5b506104cd60048036038101906104c89190613a43565b610f8b565b6040516104da9190613a89565b60405180910390f35b3480156104ef57600080fd5b506104f861103d565b005b34801561050657600080fd5b50610521600480360381019061051c9190613c46565b611051565b60405161052e919061408c565b60405180910390f35b34801561054357600080fd5b5061055e600480360381019061055991906140ae565b6111a8565b60405161056b919061425f565b60405180910390f35b34801561058057600080fd5b5061058961138d565b6040516105969190613c82565b60405180910390f35b3480156105ab57600080fd5b506105b46113b6565b6040516105c19190613bf8565b60405180910390f35b3480156105d657600080fd5b506105f160048036038101906105ec91906142ad565b611448565b005b3480156105ff57600080fd5b5061061a60048036038101906106159190613c46565b6115c0565b6040516106279190613c82565b60405180910390f35b34801561063c57600080fd5b506106576004803603810190610652919061441d565b611674565b005b34801561066557600080fd5b50610680600480360381019061067b91906144a0565b6116e7565b60405161068d919061425f565b60405180910390f35b3480156106a257600080fd5b506106bd60048036038101906106b89190613c46565b611831565b6040516106ca9190613bf8565b60405180910390f35b3480156106df57600080fd5b506106fa60048036038101906106f591906140ae565b6118de565b604051610707919061425f565b60405180910390f35b34801561071c57600080fd5b5061073760048036038101906107329190613c46565b611ae5565b005b610753600480360381019061074e91906144e0565b611dc5565b005b34801561076157600080fd5b5061076a611f49565b6040516107779190613bf8565b60405180910390f35b34801561078c57600080fd5b506107a760048036038101906107a29190614540565b611fdb565b6040516107b49190613b44565b60405180910390f35b3480156107c957600080fd5b506107e460048036038101906107df9190613c46565b61206f565b005b3480156107f257600080fd5b506107fb612588565b60405161080891906145fd565b60405180910390f35b34801561081d57600080fd5b506108386004803603810190610833919061461f565b61271a565b6040516108459190613dd9565b60405180910390f35b34801561085a57600080fd5b5061087560048036038101906108709190613a43565b612747565b005b600080600960009054906101000a900473ffffffffffffffffffffffffffffffffffffffff1673ffffffffffffffffffffffffffffffffffffffff16638462151c846040518263ffffffff1660e01b81526004016108d59190613c82565b60006040518083038186803b1580156108ed57600080fd5b505afa158015610901573d6000803e3d6000fd5b505050506040513d6000823e3d601f19601f8201168201806040525081019061092a919061476b565b90508051915050919050565b60006301ffc9a760e01b827bffffffffffffffffffffffffffffffffffffffffffffffffffffffff1916148061099157506380ac58cd60e01b827bffffffffffffffffffffffffffffffffffffffffffffffffffffffff1916145b806109c15750635b5e139f60e01b827bffffffffffffffffffffffffffffffffffffffffffffffffffffffff1916145b9050919050565b6060600380546109d7906147e3565b80601f0160208091040260200160405190810160405280929190818152602001828054610a03906147e3565b8015610a505780601f10610a2557610100808354040283529160200191610a50565b820191906000526020600020905b815481529060010190602001808311610a3357829003601f168201915b5050505050905090565b600080610a6683610d3b565b9050610a71816127cb565b915050919050565b6000610a8482610d3b565b90506000811415610aca576040517f08c379a0000000000000000000000000000000000000000000000000000000008152600401610ac190614861565b60405180910390fd5b6000610ad583610dc4565b90508073ffffffffffffffffffffffffffffffffffffffff16610af661284a565b73ffffffffffffffffffffffffffffffffffffffff1614610b5957610b2281610b1d61284a565b611fdb565b610b58576040517fcfb3b94200000000000000000000000000000000000000000000000000000000815260040160405180910390fd5b5b610b638483612852565b828473ffffffffffffffffffffffffffffffffffffffff168273ffffffffffffffffffffffffffffffffffffffff167f8c5be1e5ebec7d5bd14f71427d1e84f3dd0314c0f7b2291e5b200ac8c7c3b92560405160405180910390a450505050565b600063150b7a0260e01b905095945050505050565b6000600960009054906101000a900473ffffffffffffffffffffffffffffffffffffffff1673ffffffffffffffffffffffffffffffffffffffff166318160ddd6040518163ffffffff1660e01b815260040160206040518083038186803b158015610c4357600080fd5b505afa158015610c57573d6000803e3d6000fd5b505050506040513d601f19601f82011682018060405250810190610c7b9190614881565b905090565b610c886128ab565b85600c8190555084600d819055508383600a9190610ca792919061386c565b508181600b9190610cb992919061386c565b50505050505050565b6000610ccd82610d3b565b9050610cda848483612929565b818373ffffffffffffffffffffffffffffffffffffffff168573ffffffffffffffffffffffffffffffffffffffff167fddf252ad1be2c89b69c2b068fc378daa952ba7f163c4a11628f55a4df523b3ef60405160405180910390a450505050565b6000600f6000838152602001908152602001600020549050919050565b610d7383838360405180602001604052806000815250611674565b505050565b610d806128ab565b80600960006101000a81548173ffffffffffffffffffffffffffffffffffffffff021916908373ffffffffffffffffffffffffffffffffffffffff16021790555050565b600080610dd083610d3b565b90506000811415610e8e57600960009054906101000a900473ffffffffffffffffffffffffffffffffffffffff1673ffffffffffffffffffffffffffffffffffffffff16636352211e846040518263ffffffff1660e01b8152600401610e369190613a89565b60206040518083038186803b158015610e4e57600080fd5b505afa158015610e62573d6000803e3d6000fd5b505050506040513d601f19601f82011682018060405250810190610e8691906148c3565b915050610ecf565b6000600e600083815260200190815260200160002060010160009054906101000a900473ffffffffffffffffffffffffffffffffffffffff16905080925050505b919050565b610edc6128ab565b60003373ffffffffffffffffffffffffffffffffffffffff1647604051610f0290614921565b60006040518083038185875af1925050503d8060008114610f3f576040519150601f19603f3d011682016040523d82523d6000602084013e610f44565b606091505b5050905080610f88576040517f08c379a0000000000000000000000000000000000000000000000000000000008152600401610f7f90614982565b60405180910390fd5b50565b60008073ffffffffffffffffffffffffffffffffffffffff168273ffffffffffffffffffffffffffffffffffffffff161415610ff3576040517f8f4eb60400000000000000000000000000000000000000000000000000000000815260040160405180910390fd5b601060008373ffffffffffffffffffffffffffffffffffffffff1673ffffffffffffffffffffffffffffffffffffffff168152602001908152602001600020805490509050919050565b6110456128ab565b61104f6000612bf3565b565b6110596138f2565b6000806000806000600960009054906101000a900473ffffffffffffffffffffffffffffffffffffffff1673ffffffffffffffffffffffffffffffffffffffff16637fff1e2f886040518263ffffffff1660e01b81526004016110bc9190613a89565b60006040518083038186803b1580156110d457600080fd5b505afa1580156110e8573d6000803e3d6000fd5b505050506040513d6000823e3d601f19601f820116820180604052508101906111119190614a9b565b94509450945094509450600061112688610dc4565b905060006040518060e001604052808a8152602001888152602001878152602001868152602001856fffffffffffffffffffffffffffffffff168152602001846fffffffffffffffffffffffffffffffff1681526020018373ffffffffffffffffffffffffffffffffffffffff16815250905080975050505050505050919050565b60606000601060008673ffffffffffffffffffffffffffffffffffffffff1673ffffffffffffffffffffffffffffffffffffffff16815260200190815260200160002080548060200260200160405190810160405280929190818152602001828054801561123557602002820191906000526020600020905b815481526020019060010190808311611221575b505050505090506000815190508085111561124f57600094505b600081111561128a5760008414806112715750848161126e9190614b61565b84115b156112855784816112829190614b61565b93505b611293565b60009050600193505b60008467ffffffffffffffff8111156112af576112ae6142f2565b5b6040519080825280602002602001820160405280156112e857816020015b6112d56138f2565b8152602001906001900390816112cd5790505b50905060008214156112ff57809350505050611386565b60008061130a6138f2565b600092505b8783101561137c5785838a6113249190614b95565b8151811061133557611334614beb565b5b6020026020010151915061134882611051565b90508084848151811061135e5761135d614beb565b5b6020026020010181905250828061137490614c1a565b93505061130f565b8396505050505050505b9392505050565b60008060009054906101000a900473ffffffffffffffffffffffffffffffffffffffff16905090565b6060600480546113c5906147e3565b80601f01602080910402602001604051908101604052809291908181526020018280546113f1906147e3565b801561143e5780601f106114135761010080835404028352916020019161143e565b820191906000526020600020905b81548152906001019060200180831161142157829003601f168201915b5050505050905090565b61145061284a565b73ffffffffffffffffffffffffffffffffffffffff168273ffffffffffffffffffffffffffffffffffffffff1614156114b5576040517fb06307db00000000000000000000000000000000000000000000000000000000815260040160405180910390fd5b80600860006114c261284a565b73ffffffffffffffffffffffffffffffffffffffff1673ffffffffffffffffffffffffffffffffffffffff16815260200190815260200160002060008473ffffffffffffffffffffffffffffffffffffffff1673ffffffffffffffffffffffffffffffffffffffff16815260200190815260200160002060006101000a81548160ff0219169083151502179055508173ffffffffffffffffffffffffffffffffffffffff1661156f61284a565b73ffffffffffffffffffffffffffffffffffffffff167f17307eab39ab6107e8899845ad3d59bd9653f200f220920489ca2b5937696c31836040516115b49190613b44565b60405180910390a35050565b6000600960009054906101000a900473ffffffffffffffffffffffffffffffffffffffff1673ffffffffffffffffffffffffffffffffffffffff16636352211e836040518263ffffffff1660e01b815260040161161d9190613a89565b60206040518083038186803b15801561163557600080fd5b505afa158015611649573d6000803e3d6000fd5b505050506040513d601f19601f8201168201806040525081019061166d91906148c3565b9050919050565b61167f848484610cc2565b60008373ffffffffffffffffffffffffffffffffffffffff163b146116e1576116aa84848484612cb7565b6116e0576040517fd1a57ed600000000000000000000000000000000000000000000000000000000815260040160405180910390fd5b5b50505050565b606060006116f3610bd9565b9050600084148061170357508084115b1561170d57600193505b600081111561175457600083148061173b57508360018261172e9190614b95565b6117389190614b61565b83115b1561174f57838161174c9190614b61565b92505b61175d565b60009050600192505b60008367ffffffffffffffff811115611779576117786142f2565b5b6040519080825280602002602001820160405280156117b257816020015b61179f6138f2565b8152602001906001900390816117975790505b50905060008214156117c857809250505061182b565b60005b8481101561182457600081876117e19190614b95565b905060006117ee82611051565b90508084848151811061180457611803614beb565b5b60200260200101819052505050808061181c90614c1a565b9150506117cb565b8193505050505b92915050565b6060600061183e83611051565b905060008160000151141561187f576040517fa14c4b5000000000000000000000000000000000000000000000000000000000815260040160405180910390fd5b6000611889612e17565b90506000815114156118aa57604051806020016040528060008152506118d5565b806118b485612ea9565b6040516020016118c5929190614c9f565b6040516020818303038152906040525b92505050919050565b60606000600960009054906101000a900473ffffffffffffffffffffffffffffffffffffffff1673ffffffffffffffffffffffffffffffffffffffff16638462151c866040518263ffffffff1660e01b815260040161193d9190613c82565b60006040518083038186803b15801561195557600080fd5b505afa158015611969573d6000803e3d6000fd5b505050506040513d6000823e3d601f19601f82011682018060405250810190611992919061476b565b9050600081519050808511156119a757600094505b60008111156119e25760008414806119c9575084816119c69190614b61565b84115b156119dd5784816119da9190614b61565b93505b6119eb565b60009050600193505b60008467ffffffffffffffff811115611a0757611a066142f2565b5b604051908082528060200260200182016040528015611a4057816020015b611a2d6138f2565b815260200190600190039081611a255790505b5090506000821415611a5757809350505050611ade565b600080611a626138f2565b600092505b87831015611ad45785838a611a7c9190614b95565b81518110611a8d57611a8c614beb565b5b60200260200101519150611aa082611051565b905080848481518110611ab657611ab5614beb565b5b60200260200101819052508280611acc90614c1a565b935050611a67565b8396505050505050505b9392505050565b6000611af082610d3b565b90506000811415611b36576040517f08c379a0000000000000000000000000000000000000000000000000000000008152600401611b2d90614861565b60405180910390fd5b6000611b4061284a565b90508073ffffffffffffffffffffffffffffffffffffffff16600e600084815260200190815260200160002060010160009054906101000a900473ffffffffffffffffffffffffffffffffffffffff1673ffffffffffffffffffffffffffffffffffffffff1614611be6576040517f08c379a0000000000000000000000000000000000000000000000000000000008152600401611bdd90614d0f565b60405180910390fd5b600f600084815260200190815260200160002060009055600e60008381526020019081526020016000206000808201600090556001820160006101000a81549073ffffffffffffffffffffffffffffffffffffffff021916905550506000611c4d84610dc4565b9050611c598285612ef9565b611c62836130f4565b3073ffffffffffffffffffffffffffffffffffffffff168173ffffffffffffffffffffffffffffffffffffffff161415611d2857600960009054906101000a900473ffffffffffffffffffffffffffffffffffffffff1673ffffffffffffffffffffffffffffffffffffffff166342842e0e3084876040518463ffffffff1660e01b8152600401611cf593929190614d2f565b600060405180830381600087803b158015611d0f57600080fd5b505af1158015611d23573d6000803e3d6000fd5b505050505b83600073ffffffffffffffffffffffffffffffffffffffff168373ffffffffffffffffffffffffffffffffffffffff167fddf252ad1be2c89b69c2b068fc378daa952ba7f163c4a11628f55a4df523b3ef60405160405180910390a47f175e3dad2e6c10f120d3216de54ebe7abeee5b7f33c8941af43e73a0315e4a80838584604051611db793929190614d66565b60405180910390a150505050565b6000611dd084610d3b565b90503373ffffffffffffffffffffffffffffffffffffffff16600e600083815260200190815260200160002060010160009054906101000a900473ffffffffffffffffffffffffffffffffffffffff1673ffffffffffffffffffffffffffffffffffffffff1614611e76576040517f08c379a0000000000000000000000000000000000000000000000000000000008152600401611e6d90614de9565b60405180910390fd5b600960009054906101000a900473ffffffffffffffffffffffffffffffffffffffff1673ffffffffffffffffffffffffffffffffffffffff1663dfb31a7c348686866040518563ffffffff1660e01b8152600401611ed693929190614e36565b6000604051808303818588803b158015611eef57600080fd5b505af1158015611f03573d6000803e3d6000fd5b50505050507f60319c6511f3c90c2a37bcd711c518923ef5dd5528be697b9b4a23a1aace6c9c848484604051611f3b93929190614e36565b60405180910390a150505050565b6060600b8054611f58906147e3565b80601f0160208091040260200160405190810160405280929190818152602001828054611f84906147e3565b8015611fd15780601f10611fa657610100808354040283529160200191611fd1565b820191906000526020600020905b815481529060010190602001808311611fb457829003601f168201915b5050505050905090565b6000600860008473ffffffffffffffffffffffffffffffffffffffff1673ffffffffffffffffffffffffffffffffffffffff16815260200190815260200160002060008373ffffffffffffffffffffffffffffffffffffffff1673ffffffffffffffffffffffffffffffffffffffff16815260200190815260200160002060009054906101000a900460ff16905092915050565b600061207a82610d3b565b90507fffffffffffffffffffffffffffffffffffffffffffffffffffffffffffffffff6120a5613102565b106120e5576040517f08c379a00000000000000000000000000000000000000000000000000000000081526004016120dc90614eb4565b60405180910390fd5b600d54821180156120f65750600081145b15612136576040517f08c379a000000000000000000000000000000000000000000000000000000000815260040161212d90614f20565b60405180910390fd5b600061214061284a565b905060008214612229578073ffffffffffffffffffffffffffffffffffffffff16600e600084815260200190815260200160002060010160009054906101000a900473ffffffffffffffffffffffffffffffffffffffff1673ffffffffffffffffffffffffffffffffffffffff16146121ee576040517f08c379a00000000000000000000000000000000000000000000000000000000081526004016121e590614d0f565b60405180910390fd5b6040517f08c379a000000000000000000000000000000000000000000000000000000000815260040161222090614f8c565b60405180910390fd5b612231613102565b9150600061223e84610dc4565b90508173ffffffffffffffffffffffffffffffffffffffff168173ffffffffffffffffffffffffffffffffffffffff16146122ae576040517f08c379a00000000000000000000000000000000000000000000000000000000081526004016122a590614d0f565b60405180910390fd5b600960009054906101000a900473ffffffffffffffffffffffffffffffffffffffff1673ffffffffffffffffffffffffffffffffffffffff166342842e0e8330876040518463ffffffff1660e01b815260040161230d93929190614d2f565b600060405180830381600087803b15801561232757600080fd5b505af115801561233b573d6000803e3d6000fd5b50505050600960009054906101000a900473ffffffffffffffffffffffffffffffffffffffff1673ffffffffffffffffffffffffffffffffffffffff16633d4cfe2185600c546040518363ffffffff1660e01b815260040161239e929190614fac565b600060405180830381600087803b1580156123b857600080fd5b505af11580156123cc573d6000803e3d6000fd5b5050505060405180604001604052808581526020018373ffffffffffffffffffffffffffffffffffffffff16815250600e60008581526020019081526020016000206000820151816000015560208201518160010160006101000a81548173ffffffffffffffffffffffffffffffffffffffff021916908373ffffffffffffffffffffffffffffffffffffffff16021790555090505082600f600086815260200190815260200160002081905550601060008373ffffffffffffffffffffffffffffffffffffffff1673ffffffffffffffffffffffffffffffffffffffff1681526020019081526020016000208490806001815401808255809150506001900390600052602060002001600090919091909150556124eb82600161310c565b838273ffffffffffffffffffffffffffffffffffffffff16600073ffffffffffffffffffffffffffffffffffffffff167fddf252ad1be2c89b69c2b068fc378daa952ba7f163c4a11628f55a4df523b3ef60405160405180910390a47ff90572efd1ab4fb9c6b9dabfd24d103ce15482a9ec0c50e0e32618708783b15b83858460405161257a93929190614d66565b60405180910390a150505050565b61259061396f565b6125986128ab565b60006040518060a00160405280600960009054906101000a900473ffffffffffffffffffffffffffffffffffffffff1673ffffffffffffffffffffffffffffffffffffffff168152602001600a80546125f0906147e3565b80601f016020809104026020016040519081016040528092919081815260200182805461261c906147e3565b80156126695780601f1061263e57610100808354040283529160200191612669565b820191906000526020600020905b81548152906001019060200180831161264c57829003601f168201915b50505050508152602001600b8054612680906147e3565b80601f01602080910402602001604051908101604052809291908181526020018280546126ac906147e3565b80156126f95780601f106126ce576101008083540402835291602001916126f9565b820191906000526020600020905b8154815290600101906020018083116126dc57829003601f168201915b50505050508152602001600c548152602001600d5481525090508091505090565b60007ff0b9e5baf647f945565b0ac04522b519449041bdd44f952626b9ead9ff3692419050949350505050565b61274f6128ab565b600073ffffffffffffffffffffffffffffffffffffffff168173ffffffffffffffffffffffffffffffffffffffff1614156127bf576040517f08c379a00000000000000000000000000000000000000000000000000000000081526004016127b690615047565b60405180910390fd5b6127c881612bf3565b50565b60006127d68261312a565b61280c576040517fcf4700e400000000000000000000000000000000000000000000000000000000815260040160405180910390fd5b6007600083815260200190815260200160002060000160009054906101000a900473ffffffffffffffffffffffffffffffffffffffff169050919050565b600033905090565b816007600083815260200190815260200160002060000160006101000a81548173ffffffffffffffffffffffffffffffffffffffff021916908373ffffffffffffffffffffffffffffffffffffffff1602179055505050565b6128b3613189565b73ffffffffffffffffffffffffffffffffffffffff166128d161138d565b73ffffffffffffffffffffffffffffffffffffffff1614612927576040517f08c379a000000000000000000000000000000000000000000000000000000000815260040161291e906150b3565b60405180910390fd5b565b600061293482613191565b90508373ffffffffffffffffffffffffffffffffffffffff168173ffffffffffffffffffffffffffffffffffffffff161461299b576040517fa114810000000000000000000000000000000000000000000000000000000000815260040160405180910390fd5b6000806129a78461325f565b915091506129bd81876129b861284a565b613286565b612a09576129d2866129cd61284a565b611fdb565b612a08576040517f59c896be00000000000000000000000000000000000000000000000000000000815260040160405180910390fd5b5b600073ffffffffffffffffffffffffffffffffffffffff168573ffffffffffffffffffffffffffffffffffffffff161415612a70576040517fea553b3400000000000000000000000000000000000000000000000000000000815260040160405180910390fd5b612a7d86868660016132ca565b8015612a8857600082555b600660008773ffffffffffffffffffffffffffffffffffffffff1673ffffffffffffffffffffffffffffffffffffffff168152602001908152602001600020600081546001900391905081905550600660008673ffffffffffffffffffffffffffffffffffffffff1673ffffffffffffffffffffffffffffffffffffffff1681526020019081526020016000206000815460010191905081905550612b5685612b328888876132d0565b7c0200000000000000000000000000000000000000000000000000000000176132f8565b600560008681526020019081526020016000208190555060007c020000000000000000000000000000000000000000000000000000000084161415612bde576000600185019050600060056000838152602001908152602001600020541415612bdc576001548114612bdb578360056000838152602001908152602001600020819055505b5b505b612beb8686866001613323565b505050505050565b60008060009054906101000a900473ffffffffffffffffffffffffffffffffffffffff169050816000806101000a81548173ffffffffffffffffffffffffffffffffffffffff021916908373ffffffffffffffffffffffffffffffffffffffff1602179055508173ffffffffffffffffffffffffffffffffffffffff168173ffffffffffffffffffffffffffffffffffffffff167f8be0079c531659141344cd1fd0a4f28419497f9722a3daafe3b4186f6b6457e060405160405180910390a35050565b60008373ffffffffffffffffffffffffffffffffffffffff1663150b7a02612cdd61284a565b8786866040518563ffffffff1660e01b8152600401612cff9493929190615128565b602060405180830381600087803b158015612d1957600080fd5b505af1925050508015612d4a57506040513d601f19601f82011682018060405250810190612d479190615189565b60015b612dc4573d8060008114612d7a576040519150601f19603f3d011682016040523d82523d6000602084013e612d7f565b606091505b50600081511415612dbc576040517fd1a57ed600000000000000000000000000000000000000000000000000000000815260040160405180910390fd5b805181602001fd5b63150b7a0260e01b7bffffffffffffffffffffffffffffffffffffffffffffffffffffffff1916817bffffffffffffffffffffffffffffffffffffffffffffffffffffffff191614915050949350505050565b6060600a8054612e26906147e3565b80601f0160208091040260200160405190810160405280929190818152602001828054612e52906147e3565b8015612e9f5780601f10612e7457610100808354040283529160200191612e9f565b820191906000526020600020905b815481529060010190602001808311612e8257829003601f168201915b5050505050905090565b606060806040510190508060405280825b600115612ee557600183039250600a81066030018353600a8104905080612ee057612ee5565b612eba565b508181036020830392508083525050919050565b6000601060008473ffffffffffffffffffffffffffffffffffffffff1673ffffffffffffffffffffffffffffffffffffffff16815260200190815260200160002080549050905060005b818110156130ee5782601060008673ffffffffffffffffffffffffffffffffffffffff1673ffffffffffffffffffffffffffffffffffffffff1681526020019081526020016000208281548110612f9d57612f9c614beb565b5b906000526020600020015414156130db57601060008573ffffffffffffffffffffffffffffffffffffffff1673ffffffffffffffffffffffffffffffffffffffff168152602001908152602001600020600183612ffa9190614b61565b8154811061300b5761300a614beb565b5b9060005260206000200154601060008673ffffffffffffffffffffffffffffffffffffffff1673ffffffffffffffffffffffffffffffffffffffff168152602001908152602001600020828154811061306757613066614beb565b5b9060005260206000200181905550601060008573ffffffffffffffffffffffffffffffffffffffff1673ffffffffffffffffffffffffffffffffffffffff1681526020019081526020016000208054806130c4576130c36151b6565b5b600190038181906000526020600020016000905590555b80806130e690614c1a565b915050612f43565b50505050565b6130ff816000613350565b50565b6000600154905090565b61312682826040518060200160405280600081525061353a565b5050565b6000816131356135d8565b11158015613144575060015482105b8015613182575060007c0100000000000000000000000000000000000000000000000000000000600560008581526020019081526020016000205416145b9050919050565b600033905090565b600080829050806131a06135d8565b11613228576001548110156132275760006005600083815260200190815260200160002054905060007c010000000000000000000000000000000000000000000000000000000082161415613225575b600081141561321b5760056000836001900393508381526020019081526020016000205490506131f0565b809250505061325a565b505b5b6040517fdf2d9b4200000000000000000000000000000000000000000000000000000000815260040160405180910390fd5b919050565b60008060006007600085815260200190815260200160002090508092508254915050915091565b600073ffffffffffffffffffffffffffffffffffffffff8316925073ffffffffffffffffffffffffffffffffffffffff821691508382148383141790509392505050565b50505050565b60008060e883901c905060e86132e78686846135e1565b62ffffff16901b9150509392505050565b600073ffffffffffffffffffffffffffffffffffffffff83169250814260a01b178317905092915050565b6000600e60008481526020019081526020016000206000015490506133498585836135ea565b5050505050565b600061335b83613191565b9050600081905060008061336e8661325f565b9150915084156133d75761338a818461338561284a565b613286565b6133d65761339f8361339a61284a565b611fdb565b6133d5576040517f59c896be00000000000000000000000000000000000000000000000000000000815260040160405180910390fd5b5b5b6133e58360008860016132ca565b80156133f057600082555b600160806001901b03600660008573ffffffffffffffffffffffffffffffffffffffff1673ffffffffffffffffffffffffffffffffffffffff1681526020019081526020016000206000828254019250508190555061349883613455856000886132d0565b7c02000000000000000000000000000000000000000000000000000000007c010000000000000000000000000000000000000000000000000000000017176132f8565b600560008881526020019081526020016000208190555060007c02000000000000000000000000000000000000000000000000000000008516141561352057600060018701905060006005600083815260200190815260200160002054141561351e57600154811461351d578460056000838152602001908152602001600020819055505b5b505b600260008154809291906001019190505550505050505050565b61354483836136fd565b60008373ffffffffffffffffffffffffffffffffffffffff163b146135d35760006001549050600083820390505b6135856000868380600101945086612cb7565b6135bb576040517fd1a57ed600000000000000000000000000000000000000000000000000000000815260040160405180910390fd5b8181106135725781600154146135d057600080fd5b50505b505050565b60006001905090565b60009392505050565b600073ffffffffffffffffffffffffffffffffffffffff168373ffffffffffffffffffffffffffffffffffffffff161415613624576136f8565b600061362f82610d3b565b905082600e600083815260200190815260200160002060010160006101000a81548173ffffffffffffffffffffffffffffffffffffffff021916908373ffffffffffffffffffffffffffffffffffffffff1602179055506136908483612ef9565b601060008473ffffffffffffffffffffffffffffffffffffffff1673ffffffffffffffffffffffffffffffffffffffff168152602001908152602001600020829080600181540180825580915050600190039060005260206000200160009091909190915055505b505050565b60006001549050600082141561373f576040517fb562e8dd00000000000000000000000000000000000000000000000000000000815260040160405180910390fd5b61374c60008483856132ca565b600160406001901b178202600660008573ffffffffffffffffffffffffffffffffffffffff1673ffffffffffffffffffffffffffffffffffffffff168152602001908152602001600020600082825401925050819055506137c3836137b460008660006132d0565b6137bd8561385c565b176132f8565b6005600083815260200190815260200160002081905550600080838301905073ffffffffffffffffffffffffffffffffffffffff85169150600183015b81811461381257600181019050613800565b50600082141561384e576040517f2e07630000000000000000000000000000000000000000000000000000000000815260040160405180910390fd5b806001819055505050505050565b60006001821460e11b9050919050565b828054613878906147e3565b90600052602060002090601f01602090048101928261389a57600085556138e1565b82601f106138b357803560ff19168380011785556138e1565b828001600101855582156138e1579182015b828111156138e05782358255916020019190600101906138c5565b5b5090506138ee91906139b4565b5090565b6040518060e001604052806000815260200160608152602001600080191681526020016000801916815260200160006fffffffffffffffffffffffffffffffff16815260200160006fffffffffffffffffffffffffffffffff168152602001600073ffffffffffffffffffffffffffffffffffffffff1681525090565b6040518060a00160405280600073ffffffffffffffffffffffffffffffffffffffff168152602001606081526020016060815260200160008152602001600081525090565b5b808211156139cd5760008160009055506001016139b5565b5090565b6000604051905090565b600080fd5b600080fd5b600073ffffffffffffffffffffffffffffffffffffffff82169050919050565b6000613a10826139e5565b9050919050565b613a2081613a05565b8114613a2b57600080fd5b50565b600081359050613a3d81613a17565b92915050565b600060208284031215613a5957613a586139db565b5b6000613a6784828501613a2e565b91505092915050565b6000819050919050565b613a8381613a70565b82525050565b6000602082019050613a9e6000830184613a7a565b92915050565b60007fffffffff0000000000000000000000000000000000000000000000000000000082169050919050565b613ad981613aa4565b8114613ae457600080fd5b50565b600081359050613af681613ad0565b92915050565b600060208284031215613b1257613b116139db565b5b6000613b2084828501613ae7565b91505092915050565b60008115159050919050565b613b3e81613b29565b82525050565b6000602082019050613b596000830184613b35565b92915050565b600081519050919050565b600082825260208201905092915050565b60005b83811015613b99578082015181840152602081019050613b7e565b83811115613ba8576000848401525b50505050565b6000601f19601f8301169050919050565b6000613bca82613b5f565b613bd48185613b6a565b9350613be4818560208601613b7b565b613bed81613bae565b840191505092915050565b60006020820190508181036000830152613c128184613bbf565b905092915050565b613c2381613a70565b8114613c2e57600080fd5b50565b600081359050613c4081613c1a565b92915050565b600060208284031215613c5c57613c5b6139db565b5b6000613c6a84828501613c31565b91505092915050565b613c7c81613a05565b82525050565b6000602082019050613c976000830184613c73565b92915050565b60008060408385031215613cb457613cb36139db565b5b6000613cc285828601613a2e565b9250506020613cd385828601613c31565b9150509250929050565b600080fd5b600080fd5b600080fd5b60008083601f840112613d0257613d01613cdd565b5b8235905067ffffffffffffffff811115613d1f57613d1e613ce2565b5b602083019150836001820283011115613d3b57613d3a613ce7565b5b9250929050565b600080600080600060808688031215613d5e57613d5d6139db565b5b6000613d6c88828901613a2e565b9550506020613d7d88828901613a2e565b9450506040613d8e88828901613c31565b935050606086013567ffffffffffffffff811115613daf57613dae6139e0565b5b613dbb88828901613cec565b92509250509295509295909350565b613dd381613aa4565b82525050565b6000602082019050613dee6000830184613dca565b92915050565b60008083601f840112613e0a57613e09613cdd565b5b8235905067ffffffffffffffff811115613e2757613e26613ce2565b5b602083019150836001820283011115613e4357613e42613ce7565b5b9250929050565b60008060008060008060808789031215613e6757613e666139db565b5b6000613e7589828a01613c31565b9650506020613e8689828a01613c31565b955050604087013567ffffffffffffffff811115613ea757613ea66139e0565b5b613eb389828a01613df4565b9450945050606087013567ffffffffffffffff811115613ed657613ed56139e0565b5b613ee289828a01613df4565b92509250509295509295509295565b600080600060608486031215613f0a57613f096139db565b5b6000613f1886828701613a2e565b9350506020613f2986828701613a2e565b9250506040613f3a86828701613c31565b9150509250925092565b613f4d81613a70565b82525050565b600082825260208201905092915050565b6000613f6f82613b5f565b613f798185613f53565b9350613f89818560208601613b7b565b613f9281613bae565b840191505092915050565b6000819050919050565b613fb081613f9d565b82525050565b60006fffffffffffffffffffffffffffffffff82169050919050565b613fdb81613fb6565b82525050565b613fea81613a05565b82525050565b600060e0830160008301516140086000860182613f44565b50602083015184820360208601526140208282613f64565b91505060408301516140356040860182613fa7565b5060608301516140486060860182613fa7565b50608083015161405b6080860182613fd2565b5060a083015161406e60a0860182613fd2565b5060c083015161408160c0860182613fe1565b508091505092915050565b600060208201905081810360008301526140a68184613ff0565b905092915050565b6000806000606084860312156140c7576140c66139db565b5b60006140d586828701613a2e565b93505060206140e686828701613c31565b92505060406140f786828701613c31565b9150509250925092565b600081519050919050565b600082825260208201905092915050565b6000819050602082019050919050565b600060e0830160008301516141456000860182613f44565b506020830151848203602086015261415d8282613f64565b91505060408301516141726040860182613fa7565b5060608301516141856060860182613fa7565b5060808301516141986080860182613fd2565b5060a08301516141ab60a0860182613fd2565b5060c08301516141be60c0860182613fe1565b508091505092915050565b60006141d5838361412d565b905092915050565b6000602082019050919050565b60006141f582614101565b6141ff818561410c565b9350836020820285016142118561411d565b8060005b8581101561424d578484038952815161422e85826141c9565b9450614239836141dd565b925060208a01995050600181019050614215565b50829750879550505050505092915050565b6000602082019050818103600083015261427981846141ea565b905092915050565b61428a81613b29565b811461429557600080fd5b50565b6000813590506142a781614281565b92915050565b600080604083850312156142c4576142c36139db565b5b60006142d285828601613a2e565b92505060206142e385828601614298565b9150509250929050565b600080fd5b7f4e487b7100000000000000000000000000000000000000000000000000000000600052604160045260246000fd5b61432a82613bae565b810181811067ffffffffffffffff82111715614349576143486142f2565b5b80604052505050565b600061435c6139d1565b90506143688282614321565b919050565b600067ffffffffffffffff821115614388576143876142f2565b5b61439182613bae565b9050602081019050919050565b82818337600083830152505050565b60006143c06143bb8461436d565b614352565b9050828152602081018484840111156143dc576143db6142ed565b5b6143e784828561439e565b509392505050565b600082601f83011261440457614403613cdd565b5b81356144148482602086016143ad565b91505092915050565b60008060008060808587031215614437576144366139db565b5b600061444587828801613a2e565b945050602061445687828801613a2e565b935050604061446787828801613c31565b925050606085013567ffffffffffffffff811115614488576144876139e0565b5b614494878288016143ef565b91505092959194509250565b600080604083850312156144b7576144b66139db565b5b60006144c585828601613c31565b92505060206144d685828601613c31565b9150509250929050565b6000806000604084860312156144f9576144f86139db565b5b600061450786828701613c31565b935050602084013567ffffffffffffffff811115614528576145276139e0565b5b61453486828701613df4565b92509250509250925092565b60008060408385031215614557576145566139db565b5b600061456585828601613a2e565b925050602061457685828601613a2e565b9150509250929050565b600060a0830160008301516145986000860182613fe1565b50602083015184820360208601526145b08282613f64565b915050604083015184820360408601526145ca8282613f64565b91505060608301516145df6060860182613f44565b5060808301516145f26080860182613f44565b508091505092915050565b600060208201905081810360008301526146178184614580565b905092915050565b60008060008060608587031215614639576146386139db565b5b600061464787828801613a2e565b945050602061465887828801613c31565b935050604085013567ffffffffffffffff811115614679576146786139e0565b5b61468587828801613cec565b925092505092959194509250565b600067ffffffffffffffff8211156146ae576146ad6142f2565b5b602082029050602081019050919050565b6000815190506146ce81613c1a565b92915050565b60006146e76146e284614693565b614352565b9050808382526020820190506020840283018581111561470a57614709613ce7565b5b835b81811015614733578061471f88826146bf565b84526020840193505060208101905061470c565b5050509392505050565b600082601f83011261475257614751613cdd565b5b81516147628482602086016146d4565b91505092915050565b600060208284031215614781576147806139db565b5b600082015167ffffffffffffffff81111561479f5761479e6139e0565b5b6147ab8482850161473d565b91505092915050565b7f4e487b7100000000000000000000000000000000000000000000000000000000600052602260045260246000fd5b600060028204905060018216806147fb57607f821691505b6020821081141561480f5761480e6147b4565b5b50919050565b7f544f4b454e5f4e4f545f57524150504544000000000000000000000000000000600082015250565b600061484b601183613b6a565b915061485682614815565b602082019050919050565b6000602082019050818103600083015261487a8161483e565b9050919050565b600060208284031215614897576148966139db565b5b60006148a5848285016146bf565b91505092915050565b6000815190506148bd81613a17565b92915050565b6000602082840312156148d9576148d86139db565b5b60006148e7848285016148ae565b91505092915050565b600081905092915050565b50565b600061490b6000836148f0565b9150614916826148fb565b600082019050919050565b600061492c826148fe565b9150819050919050565b7f5641554c545f5452414e534645525f4641494c45440000000000000000000000600082015250565b600061496c601583613b6a565b915061497782614936565b602082019050919050565b6000602082019050818103600083015261499b8161495f565b9050919050565b600067ffffffffffffffff8211156149bd576149bc6142f2565b5b6149c682613bae565b9050602081019050919050565b60006149e66149e1846149a2565b614352565b905082815260208101848484011115614a0257614a016142ed565b5b614a0d848285613b7b565b509392505050565b600082601f830112614a2a57614a29613cdd565b5b8151614a3a8482602086016149d3565b91505092915050565b614a4c81613f9d565b8114614a5757600080fd5b50565b600081519050614a6981614a43565b92915050565b614a7881613fb6565b8114614a8357600080fd5b50565b600081519050614a9581614a6f565b92915050565b600080600080600060a08688031215614ab757614ab66139db565b5b600086015167ffffffffffffffff811115614ad557614ad46139e0565b5b614ae188828901614a15565b9550506020614af288828901614a5a565b9450506040614b0388828901614a5a565b9350506060614b1488828901614a86565b9250506080614b2588828901614a86565b9150509295509295909350565b7f4e487b7100000000000000000000000000000000000000000000000000000000600052601160045260246000fd5b6000614b6c82613a70565b9150614b7783613a70565b925082821015614b8a57614b89614b32565b5b828203905092915050565b6000614ba082613a70565b9150614bab83613a70565b9250827fffffffffffffffffffffffffffffffffffffffffffffffffffffffffffffffff03821115614be057614bdf614b32565b5b828201905092915050565b7f4e487b7100000000000000000000000000000000000000000000000000000000600052603260045260246000fd5b6000614c2582613a70565b91507fffffffffffffffffffffffffffffffffffffffffffffffffffffffffffffffff821415614c5857614c57614b32565b5b600182019050919050565b600081905092915050565b6000614c7982613b5f565b614c838185614c63565b9350614c93818560208601613b7b565b80840191505092915050565b6000614cab8285614c6e565b9150614cb78284614c6e565b91508190509392505050565b7f4e4f545f4f574e4552535f544f4b454e00000000000000000000000000000000600082015250565b6000614cf9601083613b6a565b9150614d0482614cc3565b602082019050919050565b60006020820190508181036000830152614d2881614cec565b9050919050565b6000606082019050614d446000830186613c73565b614d516020830185613c73565b614d5e6040830184613a7a565b949350505050565b6000606082019050614d7b6000830186613a7a565b614d886020830185613a7a565b614d956040830184613c73565b949350505050565b7f544f4b454e5f4e4f545f4f574e45520000000000000000000000000000000000600082015250565b6000614dd3600f83613b6a565b9150614dde82614d9d565b602082019050919050565b60006020820190508181036000830152614e0281614dc6565b9050919050565b6000614e158385613b6a565b9350614e2283858461439e565b614e2b83613bae565b840190509392505050565b6000604082019050614e4b6000830186613a7a565b8181036020830152614e5e818486614e09565b9050949350505050565b7f554e41424c455f544f5f575241505f544f4b454e000000000000000000000000600082015250565b6000614e9e601483613b6a565b9150614ea982614e68565b602082019050919050565b60006020820190508181036000830152614ecd81614e91565b9050919050565b7f544f4b454e5f4c494d49545f5245414348454400000000000000000000000000600082015250565b6000614f0a601383613b6a565b9150614f1582614ed4565b602082019050919050565b60006020820190508181036000830152614f3981614efd565b9050919050565b7f544f4b454e5f414c52454144595f575241505045440000000000000000000000600082015250565b6000614f76601583613b6a565b9150614f8182614f40565b602082019050919050565b60006020820190508181036000830152614fa581614f69565b9050919050565b6000604082019050614fc16000830185613a7a565b614fce6020830184613a7a565b9392505050565b7f4f776e61626c653a206e6577206f776e657220697320746865207a65726f206160008201527f6464726573730000000000000000000000000000000000000000000000000000602082015250565b6000615031602683613b6a565b915061503c82614fd5565b604082019050919050565b6000602082019050818103600083015261506081615024565b9050919050565b7f4f776e61626c653a2063616c6c6572206973206e6f7420746865206f776e6572600082015250565b600061509d602083613b6a565b91506150a882615067565b602082019050919050565b600060208201905081810360008301526150cc81615090565b9050919050565b600081519050919050565b600082825260208201905092915050565b60006150fa826150d3565b61510481856150de565b9350615114818560208601613b7b565b61511d81613bae565b840191505092915050565b600060808201905061513d6000830187613c73565b61514a6020830186613c73565b6151576040830185613a7a565b818103606083015261516981846150ef565b905095945050505050565b60008151905061518381613ad0565b92915050565b60006020828403121561519f5761519e6139db565b5b60006151ad84828501615174565b91505092915050565b7f4e487b7100000000000000000000000000000000000000000000000000000000600052603160045260246000fdfea26469706673582212202a161baedf72b8133083e23faecf09fc0a2c326a651c5cb151c8ec227c72cf4864736f6c6343000809003368747470733a2f2f6e65787573756c74696d612e636f6d2f69706376302f636f6e74726163742f68747470733a2f2f6e65787573756c74696d612e636f6d2f69706376302f746f6b656e732f",
  "linkReferences": {},
  "deployedLinkReferences": {}
}