{
  "_format": "hh-sol-artifact-1",
  "contractName": "IPCContract",
  "sourceName": "contracts/IPCContract.sol",
  "abi": [
    {
      "inputs": [],
      "stateMutability": "nonpayable",
      "type": "constructor"
    },
    {
      "anonymous": false,
      "inputs": [
        {
          "indexed": true,
          "internalType": "address",
          "name": "owner",
          "type": "address"
        },
        {
          "indexed": true,
          "internalType": "address",
          "name": "approved",
          "type": "address"
        },
        {
          "indexed": true,
          "internalType": "uint256",
          "name": "tokenId",
          "type": "uint256"
        }
      ],
      "name": "Approval",
      "type": "event"
    },
    {
      "anonymous": false,
      "inputs": [
        {
          "indexed": true,
          "internalType": "address",
          "name": "owner",
          "type": "address"
        },
        {
          "indexed": true,
          "internalType": "address",
          "name": "operator",
          "type": "address"
        },
        {
          "indexed": false,
          "internalType": "bool",
          "name": "approved",
          "type": "bool"
        }
      ],
      "name": "ApprovalForAll",
      "type": "event"
    },
    {
      "anonymous": false,
      "inputs": [
        {
          "indexed": true,
          "internalType": "address",
          "name": "from",
          "type": "address"
        },
        {
          "indexed": true,
          "internalType": "address",
          "name": "to",
          "type": "address"
        },
        {
          "indexed": true,
          "internalType": "uint256",
          "name": "tokenId",
          "type": "uint256"
        }
      ],
      "name": "Transfer",
      "type": "event"
    },
    {
      "inputs": [
        {
          "internalType": "address",
          "name": "to",
          "type": "address"
        },
        {
          "internalType": "uint256",
          "name": "tokenId",
          "type": "uint256"
        }
      ],
      "name": "approve",
      "outputs": [],
      "stateMutability": "nonpayable",
      "type": "function"
    },
    {
      "inputs": [
        {
          "internalType": "address",
          "name": "owner",
          "type": "address"
        }
      ],
      "name": "balanceOf",
      "outputs": [
        {
          "internalType": "uint256",
          "name": "",
          "type": "uint256"
        }
      ],
      "stateMutability": "view",
      "type": "function"
    },
    {
      "inputs": [
        {
          "internalType": "uint256",
          "name": "tokenId",
          "type": "uint256"
        },
        {
          "internalType": "string",
          "name": "newName",
          "type": "string"
        }
      ],
      "name": "changeIpcName",
      "outputs": [],
      "stateMutability": "payable",
      "type": "function"
    },
    {
      "inputs": [
        {
          "internalType": "uint256",
          "name": "tokenId",
          "type": "uint256"
        }
      ],
      "name": "getApproved",
      "outputs": [
        {
          "internalType": "address",
          "name": "",
          "type": "address"
        }
      ],
      "stateMutability": "view",
      "type": "function"
    },
    {
      "inputs": [
        {
          "internalType": "uint256",
          "name": "ipcId",
          "type": "uint256"
        }
      ],
      "name": "getIpc",
      "outputs": [
        {
          "internalType": "string",
          "name": "",
          "type": "string"
        },
        {
          "internalType": "bytes32",
          "name": "",
          "type": "bytes32"
        },
        {
          "internalType": "bytes32",
          "name": "",
          "type": "bytes32"
        },
        {
          "internalType": "uint128",
          "name": "",
          "type": "uint128"
        },
        {
          "internalType": "uint128",
          "name": "",
          "type": "uint128"
        }
      ],
      "stateMutability": "view",
      "type": "function"
    },
    {
      "inputs": [
        {
          "internalType": "uint256",
          "name": "key",
          "type": "uint256"
        }
      ],
      "name": "ipcToMarketInfo",
      "outputs": [
        {
          "components": [
            {
              "internalType": "uint32",
              "name": "sellPrice",
              "type": "uint32"
            },
            {
              "internalType": "uint32",
              "name": "beneficiaryPrice",
              "type": "uint32"
            },
            {
              "internalType": "address",
              "name": "beneficiaryAddress",
              "type": "address"
            },
            {
              "internalType": "address",
              "name": "approvalAddress",
              "type": "address"
            }
          ],
          "internalType": "struct IPCContract.IpcMarketInfo",
          "name": "",
          "type": "tuple"
        }
      ],
      "stateMutability": "view",
      "type": "function"
    },
    {
      "inputs": [
        {
          "internalType": "address",
          "name": "owner",
          "type": "address"
        },
        {
          "internalType": "address",
          "name": "operator",
          "type": "address"
        }
      ],
      "name": "isApprovedForAll",
      "outputs": [
        {
          "internalType": "bool",
          "name": "",
          "type": "bool"
        }
      ],
      "stateMutability": "view",
      "type": "function"
    },
    {
      "inputs": [],
      "name": "mint",
      "outputs": [],
      "stateMutability": "nonpayable",
      "type": "function"
    },
    {
      "inputs": [],
      "name": "name",
      "outputs": [
        {
          "internalType": "string",
          "name": "",
          "type": "string"
        }
      ],
      "stateMutability": "view",
      "type": "function"
    },
    {
      "inputs": [
        {
          "internalType": "uint256",
          "name": "tokenId",
          "type": "uint256"
        }
      ],
      "name": "ownerOf",
      "outputs": [
        {
          "internalType": "address",
          "name": "",
          "type": "address"
        }
      ],
      "stateMutability": "view",
      "type": "function"
    },
    {
      "inputs": [
        {
          "internalType": "address",
          "name": "from",
          "type": "address"
        },
        {
          "internalType": "address",
          "name": "to",
          "type": "address"
        },
        {
          "internalType": "uint256",
          "name": "tokenId",
          "type": "uint256"
        }
      ],
      "name": "safeTransferFrom",
      "outputs": [],
      "stateMutability": "nonpayable",
      "type": "function"
    },
    {
      "inputs": [
        {
          "internalType": "address",
          "name": "from",
          "type": "address"
        },
        {
          "internalType": "address",
          "name": "to",
          "type": "address"
        },
        {
          "internalType": "uint256",
          "name": "tokenId",
          "type": "uint256"
        },
        {
          "internalType": "bytes",
          "name": "data",
          "type": "bytes"
        }
      ],
      "name": "safeTransferFrom",
      "outputs": [],
      "stateMutability": "nonpayable",
      "type": "function"
    },
    {
      "inputs": [
        {
          "internalType": "address",
          "name": "operator",
          "type": "address"
        },
        {
          "internalType": "bool",
          "name": "approved",
          "type": "bool"
        }
      ],
      "name": "setApprovalForAll",
      "outputs": [],
      "stateMutability": "nonpayable",
      "type": "function"
    },
    {
      "inputs": [
        {
          "internalType": "uint256",
          "name": "tokenId",
          "type": "uint256"
        },
        {
          "internalType": "uint256",
          "name": "newPrice",
          "type": "uint256"
        }
      ],
      "name": "setIpcPrice",
      "outputs": [],
      "stateMutability": "nonpayable",
      "type": "function"
    },
    {
      "inputs": [
        {
          "internalType": "bytes4",
          "name": "interfaceId",
          "type": "bytes4"
        }
      ],
      "name": "supportsInterface",
      "outputs": [
        {
          "internalType": "bool",
          "name": "",
          "type": "bool"
        }
      ],
      "stateMutability": "view",
      "type": "function"
    },
    {
      "inputs": [],
      "name": "symbol",
      "outputs": [
        {
          "internalType": "string",
          "name": "",
          "type": "string"
        }
      ],
      "stateMutability": "view",
      "type": "function"
    },
    {
      "inputs": [
        {
          "internalType": "uint256",
          "name": "tokenId",
          "type": "uint256"
        }
      ],
      "name": "tokenURI",
      "outputs": [
        {
          "internalType": "string",
          "name": "",
          "type": "string"
        }
      ],
      "stateMutability": "view",
      "type": "function"
    },
    {
      "inputs": [
        {
          "internalType": "address",
          "name": "owner",
          "type": "address"
        }
      ],
      "name": "tokensOfOwner",
      "outputs": [
        {
          "internalType": "uint256[]",
          "name": "",
          "type": "uint256[]"
        }
      ],
      "stateMutability": "view",
      "type": "function"
    },
    {
      "inputs": [],
      "name": "totalSupply",
      "outputs": [
        {
          "internalType": "uint256",
          "name": "",
          "type": "uint256"
        }
      ],
      "stateMutability": "view",
      "type": "function"
    },
    {
      "inputs": [
        {
          "internalType": "address",
          "name": "from",
          "type": "address"
        },
        {
          "internalType": "address",
          "name": "to",
          "type": "address"
        },
        {
          "internalType": "uint256",
          "name": "tokenId",
          "type": "uint256"
        }
      ],
      "name": "transferFrom",
      "outputs": [],
      "stateMutability": "nonpayable",
      "type": "function"
    }
  ],
  "bytecode": "0x60806040523480156200001157600080fd5b506040518060400160405280601881526020017f496d6d6f7274616c506c617965724368617261637465727300000000000000008152506040518060400160405280600381526020017f4950430000000000000000000000000000000000000000000000000000000000815250816000908051906020019062000096929190620000c9565b508060019080519060200190620000af929190620000c9565b50505060016006819055506103e8600781905550620001de565b828054620000d790620001a8565b90600052602060002090601f016020900481019282620000fb576000855562000147565b82601f106200011657805160ff191683800117855562000147565b8280016001018555821562000147579182015b828111156200014657825182559160200191906001019062000129565b5b5090506200015691906200015a565b5090565b5b80821115620001755760008160009055506001016200015b565b5090565b7f4e487b7100000000000000000000000000000000000000000000000000000000600052602260045260246000fd5b60006002820490506001821680620001c157607f821691505b60208210811415620001d857620001d762000179565b5b50919050565b612f4480620001ee6000396000f3fe60806040526004361061011f5760003560e01c80636352211e116100a0578063a22cb46511610064578063a22cb4651461040f578063b88d4fde14610438578063c87b56dd14610461578063dfb31a7c1461049e578063e985e9c5146104ba5761011f565b80636352211e146102ec57806370a08231146103295780637fff1e2f146103665780638462151c146103a757806395d89b41146103e45761011f565b806318160ddd116100e757806318160ddd1461020957806323b872dd1461023457806331ef73141461025d5780633d4cfe211461029a57806342842e0e146102c35761011f565b806301ffc9a71461012457806306fdde0314610161578063081812fc1461018c578063095ea7b3146101c95780631249c58b146101f2575b600080fd5b34801561013057600080fd5b5061014b60048036038101906101469190611c1b565b6104f7565b6040516101589190611c63565b60405180910390f35b34801561016d57600080fd5b506101766105d9565b6040516101839190611d17565b60405180910390f35b34801561019857600080fd5b506101b360048036038101906101ae9190611d6f565b61066b565b6040516101c09190611ddd565b60405180910390f35b3480156101d557600080fd5b506101f060048036038101906101eb9190611e24565b6106b1565b005b3480156101fe57600080fd5b506102076107c9565b005b34801561021557600080fd5b5061021e610836565b60405161022b9190611e73565b60405180910390f35b34801561024057600080fd5b5061025b60048036038101906102569190611e8e565b610840565b005b34801561026957600080fd5b50610284600480360381019061027f9190611d6f565b6108a0565b6040516102919190611f64565b60405180910390f35b3480156102a657600080fd5b506102c160048036038101906102bc9190611f7f565b610912565b005b3480156102cf57600080fd5b506102ea60048036038101906102e59190611e8e565b610916565b005b3480156102f857600080fd5b50610313600480360381019061030e9190611d6f565b610936565b6040516103209190611ddd565b60405180910390f35b34801561033557600080fd5b50610350600480360381019061034b9190611fbf565b6109e8565b60405161035d9190611e73565b60405180910390f35b34801561037257600080fd5b5061038d60048036038101906103889190611d6f565b610aa0565b60405161039e959493929190612030565b60405180910390f35b3480156103b357600080fd5b506103ce60048036038101906103c99190611fbf565b610b8e565b6040516103db9190612148565b60405180910390f35b3480156103f057600080fd5b506103f9610c3f565b6040516104069190611d17565b60405180910390f35b34801561041b57600080fd5b5061043660048036038101906104319190612196565b610cd1565b005b34801561044457600080fd5b5061045f600480360381019061045a919061230b565b610ce7565b005b34801561046d57600080fd5b5061048860048036038101906104839190611d6f565b610d49565b6040516104959190611d17565b60405180910390f35b6104b860048036038101906104b391906123ee565b610db1565b005b3480156104c657600080fd5b506104e160048036038101906104dc919061244e565b610db6565b6040516104ee9190611c63565b60405180910390f35b60007f80ac58cd000000000000000000000000000000000000000000000000000000007bffffffffffffffffffffffffffffffffffffffffffffffffffffffff1916827bffffffffffffffffffffffffffffffffffffffffffffffffffffffff191614806105c257507f5b5e139f000000000000000000000000000000000000000000000000000000007bffffffffffffffffffffffffffffffffffffffffffffffffffffffff1916827bffffffffffffffffffffffffffffffffffffffffffffffffffffffff1916145b806105d257506105d182610e4a565b5b9050919050565b6060600080546105e8906124bd565b80601f0160208091040260200160405190810160405280929190818152602001828054610614906124bd565b80156106615780601f1061063657610100808354040283529160200191610661565b820191906000526020600020905b81548152906001019060200180831161064457829003601f168201915b5050505050905090565b600061067682610eb4565b6004600083815260200190815260200160002060009054906101000a900473ffffffffffffffffffffffffffffffffffffffff169050919050565b60006106bc82610936565b90508073ffffffffffffffffffffffffffffffffffffffff168373ffffffffffffffffffffffffffffffffffffffff16141561072d576040517f08c379a000000000000000000000000000000000000000000000000000000000815260040161072490612561565b60405180910390fd5b8073ffffffffffffffffffffffffffffffffffffffff1661074c610eff565b73ffffffffffffffffffffffffffffffffffffffff16148061077b575061077a81610775610eff565b610db6565b5b6107ba576040517f08c379a00000000000000000000000000000000000000000000000000000000081526004016107b1906125f3565b60405180910390fd5b6107c48383610f07565b505050565b6007546006541115610810576040517f08c379a00000000000000000000000000000000000000000000000000000000081526004016108079061265f565b60405180910390fd5b61081c33600654610fc0565b6006600081548092919061082f906126ae565b9190505550565b6000600754905090565b61085161084b610eff565b82610fde565b610890576040517f08c379a000000000000000000000000000000000000000000000000000000000815260040161088790612769565b60405180910390fd5b61089b838383611073565b505050565b6108a8611b4f565b60006040518060800160405280600063ffffffff168152602001600063ffffffff168152602001600073ffffffffffffffffffffffffffffffffffffffff168152602001600073ffffffffffffffffffffffffffffffffffffffff16815250905080915050919050565b5050565b61093183838360405180602001604052806000815250610ce7565b505050565b6000806002600084815260200190815260200160002060009054906101000a900473ffffffffffffffffffffffffffffffffffffffff169050600073ffffffffffffffffffffffffffffffffffffffff168173ffffffffffffffffffffffffffffffffffffffff1614156109df576040517f08c379a00000000000000000000000000000000000000000000000000000000081526004016109d6906127d5565b60405180910390fd5b80915050919050565b60008073ffffffffffffffffffffffffffffffffffffffff168273ffffffffffffffffffffffffffffffffffffffff161415610a59576040517f08c379a0000000000000000000000000000000000000000000000000000000008152600401610a5090612867565b60405180910390fd5b600360008373ffffffffffffffffffffffffffffffffffffffff1673ffffffffffffffffffffffffffffffffffffffff168152602001908152602001600020549050919050565b606060008060008060006040518060400160405280600481526020017f4164616d00000000000000000000000000000000000000000000000000000000815250905060004288600343610af391906128b6565b610afd91906128e7565b33604051602001610b10939291906129aa565b60405160208183030381529060405280519060200120905060004289600543610b3991906128b6565b610b4391906128e7565b33604051602001610b56939291906129aa565b604051602081830303815290604052805190602001209050600080848484848499509950995099509950505050505091939590929450565b60606000610b9b836109e8565b905060008167ffffffffffffffff811115610bb957610bb86121e0565b5b604051908082528060200260200182016040528015610be75781602001602082028036833780820191505090505b50905060005b82811015610c3457600181610c0291906129e7565b828281518110610c1557610c14612a3d565b5b6020026020010181815250508080610c2c906126ae565b915050610bed565b508092505050919050565b606060018054610c4e906124bd565b80601f0160208091040260200160405190810160405280929190818152602001828054610c7a906124bd565b8015610cc75780601f10610c9c57610100808354040283529160200191610cc7565b820191906000526020600020905b815481529060010190602001808311610caa57829003601f168201915b5050505050905090565b610ce3610cdc610eff565b8383611369565b5050565b610cf8610cf2610eff565b83610fde565b610d37576040517f08c379a0000000000000000000000000000000000000000000000000000000008152600401610d2e90612769565b60405180910390fd5b610d43848484846114d6565b50505050565b6060610d5482610eb4565b6000610d5e611532565b90506000815111610d7e5760405180602001604052806000815250610da9565b80610d8884611549565b604051602001610d99929190612aa8565b6040516020818303038152906040525b915050919050565b505050565b6000600560008473ffffffffffffffffffffffffffffffffffffffff1673ffffffffffffffffffffffffffffffffffffffff16815260200190815260200160002060008373ffffffffffffffffffffffffffffffffffffffff1673ffffffffffffffffffffffffffffffffffffffff16815260200190815260200160002060009054906101000a900460ff16905092915050565b60007f01ffc9a7000000000000000000000000000000000000000000000000000000007bffffffffffffffffffffffffffffffffffffffffffffffffffffffff1916827bffffffffffffffffffffffffffffffffffffffffffffffffffffffff1916149050919050565b610ebd816116aa565b610efc576040517f08c379a0000000000000000000000000000000000000000000000000000000008152600401610ef3906127d5565b60405180910390fd5b50565b600033905090565b816004600083815260200190815260200160002060006101000a81548173ffffffffffffffffffffffffffffffffffffffff021916908373ffffffffffffffffffffffffffffffffffffffff160217905550808273ffffffffffffffffffffffffffffffffffffffff16610f7a83610936565b73ffffffffffffffffffffffffffffffffffffffff167f8c5be1e5ebec7d5bd14f71427d1e84f3dd0314c0f7b2291e5b200ac8c7c3b92560405160405180910390a45050565b610fda828260405180602001604052806000815250611716565b5050565b600080610fea83610936565b90508073ffffffffffffffffffffffffffffffffffffffff168473ffffffffffffffffffffffffffffffffffffffff16148061102c575061102b8185610db6565b5b8061106a57508373ffffffffffffffffffffffffffffffffffffffff166110528461066b565b73ffffffffffffffffffffffffffffffffffffffff16145b91505092915050565b8273ffffffffffffffffffffffffffffffffffffffff1661109382610936565b73ffffffffffffffffffffffffffffffffffffffff16146110e9576040517f08c379a00000000000000000000000000000000000000000000000000000000081526004016110e090612b3e565b60405180910390fd5b600073ffffffffffffffffffffffffffffffffffffffff168273ffffffffffffffffffffffffffffffffffffffff161415611159576040517f08c379a000000000000000000000000000000000000000000000000000000000815260040161115090612bd0565b60405180910390fd5b611164838383611771565b8273ffffffffffffffffffffffffffffffffffffffff1661118482610936565b73ffffffffffffffffffffffffffffffffffffffff16146111da576040517f08c379a00000000000000000000000000000000000000000000000000000000081526004016111d190612b3e565b60405180910390fd5b6004600082815260200190815260200160002060006101000a81549073ffffffffffffffffffffffffffffffffffffffff02191690556001600360008573ffffffffffffffffffffffffffffffffffffffff1673ffffffffffffffffffffffffffffffffffffffff168152602001908152602001600020600082825403925050819055506001600360008473ffffffffffffffffffffffffffffffffffffffff1673ffffffffffffffffffffffffffffffffffffffff16815260200190815260200160002060008282540192505081905550816002600083815260200190815260200160002060006101000a81548173ffffffffffffffffffffffffffffffffffffffff021916908373ffffffffffffffffffffffffffffffffffffffff160217905550808273ffffffffffffffffffffffffffffffffffffffff168473ffffffffffffffffffffffffffffffffffffffff167fddf252ad1be2c89b69c2b068fc378daa952ba7f163c4a11628f55a4df523b3ef60405160405180910390a4611364838383611776565b505050565b8173ffffffffffffffffffffffffffffffffffffffff168373ffffffffffffffffffffffffffffffffffffffff1614156113d8576040517f08c379a00000000000000000000000000000000000000000000000000000000081526004016113cf90612c3c565b60405180910390fd5b80600560008573ffffffffffffffffffffffffffffffffffffffff1673ffffffffffffffffffffffffffffffffffffffff16815260200190815260200160002060008473ffffffffffffffffffffffffffffffffffffffff1673ffffffffffffffffffffffffffffffffffffffff16815260200190815260200160002060006101000a81548160ff0219169083151502179055508173ffffffffffffffffffffffffffffffffffffffff168373ffffffffffffffffffffffffffffffffffffffff167f17307eab39ab6107e8899845ad3d59bd9653f200f220920489ca2b5937696c31836040516114c99190611c63565b60405180910390a3505050565b6114e1848484611073565b6114ed8484848461177b565b61152c576040517f08c379a000000000000000000000000000000000000000000000000000000000815260040161152390612cce565b60405180910390fd5b50505050565b606060405180602001604052806000815250905090565b60606000821415611591576040518060400160405280600181526020017f300000000000000000000000000000000000000000000000000000000000000081525090506116a5565b600082905060005b600082146115c35780806115ac906126ae565b915050600a826115bc9190612cee565b9150611599565b60008167ffffffffffffffff8111156115df576115de6121e0565b5b6040519080825280601f01601f1916602001820160405280156116115781602001600182028036833780820191505090505b5090505b6000851461169e5760018261162a9190612d1f565b9150600a8561163991906128b6565b603061164591906129e7565b60f81b81838151811061165b5761165a612a3d565b5b60200101907effffffffffffffffffffffffffffffffffffffffffffffffffffffffffffff1916908160001a905350600a856116979190612cee565b9450611615565b8093505050505b919050565b60008073ffffffffffffffffffffffffffffffffffffffff166002600084815260200190815260200160002060009054906101000a900473ffffffffffffffffffffffffffffffffffffffff1673ffffffffffffffffffffffffffffffffffffffff1614159050919050565b6117208383611912565b61172d600084848461177b565b61176c576040517f08c379a000000000000000000000000000000000000000000000000000000000815260040161176390612cce565b60405180910390fd5b505050565b505050565b505050565b600061179c8473ffffffffffffffffffffffffffffffffffffffff16611b2c565b15611905578373ffffffffffffffffffffffffffffffffffffffff1663150b7a026117c5610eff565b8786866040518563ffffffff1660e01b81526004016117e79493929190612da8565b602060405180830381600087803b15801561180157600080fd5b505af192505050801561183257506040513d601f19601f8201168201806040525081019061182f9190612e09565b60015b6118b5573d8060008114611862576040519150601f19603f3d011682016040523d82523d6000602084013e611867565b606091505b506000815114156118ad576040517f08c379a00000000000000000000000000000000000000000000000000000000081526004016118a490612cce565b60405180910390fd5b805181602001fd5b63150b7a0260e01b7bffffffffffffffffffffffffffffffffffffffffffffffffffffffff1916817bffffffffffffffffffffffffffffffffffffffffffffffffffffffff19161491505061190a565b600190505b949350505050565b600073ffffffffffffffffffffffffffffffffffffffff168273ffffffffffffffffffffffffffffffffffffffff161415611982576040517f08c379a000000000000000000000000000000000000000000000000000000000815260040161197990612e82565b60405180910390fd5b61198b816116aa565b156119cb576040517f08c379a00000000000000000000000000000000000000000000000000000000081526004016119c290612eee565b60405180910390fd5b6119d760008383611771565b6119e0816116aa565b15611a20576040517f08c379a0000000000000000000000000000000000000000000000000000000008152600401611a1790612eee565b60405180910390fd5b6001600360008473ffffffffffffffffffffffffffffffffffffffff1673ffffffffffffffffffffffffffffffffffffffff16815260200190815260200160002060008282540192505081905550816002600083815260200190815260200160002060006101000a81548173ffffffffffffffffffffffffffffffffffffffff021916908373ffffffffffffffffffffffffffffffffffffffff160217905550808273ffffffffffffffffffffffffffffffffffffffff16600073ffffffffffffffffffffffffffffffffffffffff167fddf252ad1be2c89b69c2b068fc378daa952ba7f163c4a11628f55a4df523b3ef60405160405180910390a4611b2860008383611776565b5050565b6000808273ffffffffffffffffffffffffffffffffffffffff163b119050919050565b6040518060800160405280600063ffffffff168152602001600063ffffffff168152602001600073ffffffffffffffffffffffffffffffffffffffff168152602001600073ffffffffffffffffffffffffffffffffffffffff1681525090565b6000604051905090565b600080fd5b600080fd5b60007fffffffff0000000000000000000000000000000000000000000000000000000082169050919050565b611bf881611bc3565b8114611c0357600080fd5b50565b600081359050611c1581611bef565b92915050565b600060208284031215611c3157611c30611bb9565b5b6000611c3f84828501611c06565b91505092915050565b60008115159050919050565b611c5d81611c48565b82525050565b6000602082019050611c786000830184611c54565b92915050565b600081519050919050565b600082825260208201905092915050565b60005b83811015611cb8578082015181840152602081019050611c9d565b83811115611cc7576000848401525b50505050565b6000601f19601f8301169050919050565b6000611ce982611c7e565b611cf38185611c89565b9350611d03818560208601611c9a565b611d0c81611ccd565b840191505092915050565b60006020820190508181036000830152611d318184611cde565b905092915050565b6000819050919050565b611d4c81611d39565b8114611d5757600080fd5b50565b600081359050611d6981611d43565b92915050565b600060208284031215611d8557611d84611bb9565b5b6000611d9384828501611d5a565b91505092915050565b600073ffffffffffffffffffffffffffffffffffffffff82169050919050565b6000611dc782611d9c565b9050919050565b611dd781611dbc565b82525050565b6000602082019050611df26000830184611dce565b92915050565b611e0181611dbc565b8114611e0c57600080fd5b50565b600081359050611e1e81611df8565b92915050565b60008060408385031215611e3b57611e3a611bb9565b5b6000611e4985828601611e0f565b9250506020611e5a85828601611d5a565b9150509250929050565b611e6d81611d39565b82525050565b6000602082019050611e886000830184611e64565b92915050565b600080600060608486031215611ea757611ea6611bb9565b5b6000611eb586828701611e0f565b9350506020611ec686828701611e0f565b9250506040611ed786828701611d5a565b9150509250925092565b600063ffffffff82169050919050565b611efa81611ee1565b82525050565b611f0981611dbc565b82525050565b608082016000820151611f256000850182611ef1565b506020820151611f386020850182611ef1565b506040820151611f4b6040850182611f00565b506060820151611f5e6060850182611f00565b50505050565b6000608082019050611f796000830184611f0f565b92915050565b60008060408385031215611f9657611f95611bb9565b5b6000611fa485828601611d5a565b9250506020611fb585828601611d5a565b9150509250929050565b600060208284031215611fd557611fd4611bb9565b5b6000611fe384828501611e0f565b91505092915050565b6000819050919050565b611fff81611fec565b82525050565b60006fffffffffffffffffffffffffffffffff82169050919050565b61202a81612005565b82525050565b600060a082019050818103600083015261204a8188611cde565b90506120596020830187611ff6565b6120666040830186611ff6565b6120736060830185612021565b6120806080830184612021565b9695505050505050565b600081519050919050565b600082825260208201905092915050565b6000819050602082019050919050565b6120bf81611d39565b82525050565b60006120d183836120b6565b60208301905092915050565b6000602082019050919050565b60006120f58261208a565b6120ff8185612095565b935061210a836120a6565b8060005b8381101561213b57815161212288826120c5565b975061212d836120dd565b92505060018101905061210e565b5085935050505092915050565b6000602082019050818103600083015261216281846120ea565b905092915050565b61217381611c48565b811461217e57600080fd5b50565b6000813590506121908161216a565b92915050565b600080604083850312156121ad576121ac611bb9565b5b60006121bb85828601611e0f565b92505060206121cc85828601612181565b9150509250929050565b600080fd5b600080fd5b7f4e487b7100000000000000000000000000000000000000000000000000000000600052604160045260246000fd5b61221882611ccd565b810181811067ffffffffffffffff82111715612237576122366121e0565b5b80604052505050565b600061224a611baf565b9050612256828261220f565b919050565b600067ffffffffffffffff821115612276576122756121e0565b5b61227f82611ccd565b9050602081019050919050565b82818337600083830152505050565b60006122ae6122a98461225b565b612240565b9050828152602081018484840111156122ca576122c96121db565b5b6122d584828561228c565b509392505050565b600082601f8301126122f2576122f16121d6565b5b813561230284826020860161229b565b91505092915050565b6000806000806080858703121561232557612324611bb9565b5b600061233387828801611e0f565b945050602061234487828801611e0f565b935050604061235587828801611d5a565b925050606085013567ffffffffffffffff81111561237657612375611bbe565b5b612382878288016122dd565b91505092959194509250565b600080fd5b600080fd5b60008083601f8401126123ae576123ad6121d6565b5b8235905067ffffffffffffffff8111156123cb576123ca61238e565b5b6020830191508360018202830111156123e7576123e6612393565b5b9250929050565b60008060006040848603121561240757612406611bb9565b5b600061241586828701611d5a565b935050602084013567ffffffffffffffff81111561243657612435611bbe565b5b61244286828701612398565b92509250509250925092565b6000806040838503121561246557612464611bb9565b5b600061247385828601611e0f565b925050602061248485828601611e0f565b9150509250929050565b7f4e487b7100000000000000000000000000000000000000000000000000000000600052602260045260246000fd5b600060028204905060018216806124d557607f821691505b602082108114156124e9576124e861248e565b5b50919050565b7f4552433732313a20617070726f76616c20746f2063757272656e74206f776e6560008201527f7200000000000000000000000000000000000000000000000000000000000000602082015250565b600061254b602183611c89565b9150612556826124ef565b604082019050919050565b6000602082019050818103600083015261257a8161253e565b9050919050565b7f4552433732313a20617070726f76652063616c6c6572206973206e6f7420746f60008201527f6b656e206f776e6572206f7220617070726f76656420666f7220616c6c000000602082015250565b60006125dd603d83611c89565b91506125e882612581565b604082019050919050565b6000602082019050818103600083015261260c816125d0565b9050919050565b7f4d494e5445445f4f555400000000000000000000000000000000000000000000600082015250565b6000612649600a83611c89565b915061265482612613565b602082019050919050565b600060208201905081810360008301526126788161263c565b9050919050565b7f4e487b7100000000000000000000000000000000000000000000000000000000600052601160045260246000fd5b60006126b982611d39565b91507fffffffffffffffffffffffffffffffffffffffffffffffffffffffffffffffff8214156126ec576126eb61267f565b5b600182019050919050565b7f4552433732313a2063616c6c6572206973206e6f7420746f6b656e206f776e6560008201527f72206f7220617070726f76656400000000000000000000000000000000000000602082015250565b6000612753602d83611c89565b915061275e826126f7565b604082019050919050565b6000602082019050818103600083015261278281612746565b9050919050565b7f4552433732313a20696e76616c696420746f6b656e2049440000000000000000600082015250565b60006127bf601883611c89565b91506127ca82612789565b602082019050919050565b600060208201905081810360008301526127ee816127b2565b9050919050565b7f4552433732313a2061646472657373207a65726f206973206e6f74206120766160008201527f6c6964206f776e65720000000000000000000000000000000000000000000000602082015250565b6000612851602983611c89565b915061285c826127f5565b604082019050919050565b6000602082019050818103600083015261288081612844565b9050919050565b7f4e487b7100000000000000000000000000000000000000000000000000000000600052601260045260246000fd5b60006128c182611d39565b91506128cc83611d39565b9250826128dc576128db612887565b5b828206905092915050565b60006128f282611d39565b91506128fd83611d39565b9250817fffffffffffffffffffffffffffffffffffffffffffffffffffffffffffffffff04831182151516156129365761293561267f565b5b828202905092915050565b6000819050919050565b61295c61295782611d39565b612941565b82525050565b60008160601b9050919050565b600061297a82612962565b9050919050565b600061298c8261296f565b9050919050565b6129a461299f82611dbc565b612981565b82525050565b60006129b6828661294b565b6020820191506129c6828561294b565b6020820191506129d68284612993565b601482019150819050949350505050565b60006129f282611d39565b91506129fd83611d39565b9250827fffffffffffffffffffffffffffffffffffffffffffffffffffffffffffffffff03821115612a3257612a3161267f565b5b828201905092915050565b7f4e487b7100000000000000000000000000000000000000000000000000000000600052603260045260246000fd5b600081905092915050565b6000612a8282611c7e565b612a8c8185612a6c565b9350612a9c818560208601611c9a565b80840191505092915050565b6000612ab48285612a77565b9150612ac08284612a77565b91508190509392505050565b7f4552433732313a207472616e736665722066726f6d20696e636f72726563742060008201527f6f776e6572000000000000000000000000000000000000000000000000000000602082015250565b6000612b28602583611c89565b9150612b3382612acc565b604082019050919050565b60006020820190508181036000830152612b5781612b1b565b9050919050565b7f4552433732313a207472616e7366657220746f20746865207a65726f2061646460008201527f7265737300000000000000000000000000000000000000000000000000000000602082015250565b6000612bba602483611c89565b9150612bc582612b5e565b604082019050919050565b60006020820190508181036000830152612be981612bad565b9050919050565b7f4552433732313a20617070726f766520746f2063616c6c657200000000000000600082015250565b6000612c26601983611c89565b9150612c3182612bf0565b602082019050919050565b60006020820190508181036000830152612c5581612c19565b9050919050565b7f4552433732313a207472616e7366657220746f206e6f6e20455243373231526560008201527f63656976657220696d706c656d656e7465720000000000000000000000000000602082015250565b6000612cb8603283611c89565b9150612cc382612c5c565b604082019050919050565b60006020820190508181036000830152612ce781612cab565b9050919050565b6000612cf982611d39565b9150612d0483611d39565b925082612d1457612d13612887565b5b828204905092915050565b6000612d2a82611d39565b9150612d3583611d39565b925082821015612d4857612d4761267f565b5b828203905092915050565b600081519050919050565b600082825260208201905092915050565b6000612d7a82612d53565b612d848185612d5e565b9350612d94818560208601611c9a565b612d9d81611ccd565b840191505092915050565b6000608082019050612dbd6000830187611dce565b612dca6020830186611dce565b612dd76040830185611e64565b8181036060830152612de98184612d6f565b905095945050505050565b600081519050612e0381611bef565b92915050565b600060208284031215612e1f57612e1e611bb9565b5b6000612e2d84828501612df4565b91505092915050565b7f4552433732313a206d696e7420746f20746865207a65726f2061646472657373600082015250565b6000612e6c602083611c89565b9150612e7782612e36565b602082019050919050565b60006020820190508181036000830152612e9b81612e5f565b9050919050565b7f4552433732313a20746f6b656e20616c7265616479206d696e74656400000000600082015250565b6000612ed8601c83611c89565b9150612ee382612ea2565b602082019050919050565b60006020820190508181036000830152612f0781612ecb565b905091905056fea2646970667358221220d5da991a403a1b8286be91a65c85974afc37c9f5dbaaab12da67ae8d3aa258a264736f6c63430008090033",
  "linkReferences": {},
  "deployedLinkReferences": {}
}