{
  "_format": "hh-sol-artifact-1",
  "contractName": "IPCV0Wrapper",
  "sourceName": "contracts/IPCContract.sol",
  "abi": [
    {
      "inputs": [],
      "stateMutability": "nonpayable",
      "type": "constructor"
    },
    {
      "inputs": [],
      "name": "ApprovalCallerNotOwnerNorApproved",
      "type": "error"
    },
    {
      "inputs": [],
      "name": "ApprovalQueryForNonexistentToken",
      "type": "error"
    },
    {
      "inputs": [],
      "name": "ApproveToCaller",
      "type": "error"
    },
    {
      "inputs": [],
      "name": "BalanceQueryForZeroAddress",
      "type": "error"
    },
    {
      "inputs": [],
      "name": "MintERC2309QuantityExceedsLimit",
      "type": "error"
    },
    {
      "inputs": [],
      "name": "MintToZeroAddress",
      "type": "error"
    },
    {
      "inputs": [],
      "name": "MintZeroQuantity",
      "type": "error"
    },
    {
      "inputs": [],
      "name": "OwnerQueryForNonexistentToken",
      "type": "error"
    },
    {
      "inputs": [],
      "name": "OwnershipNotInitializedForExtraData",
      "type": "error"
    },
    {
      "inputs": [],
      "name": "TokenLimitReached",
      "type": "error"
    },
    {
      "inputs": [],
      "name": "TokenNotExist",
      "type": "error"
    },
    {
      "inputs": [],
      "name": "TokenNotOwner",
      "type": "error"
    },
    {
      "inputs": [],
      "name": "TransferCallerNotOwnerNorApproved",
      "type": "error"
    },
    {
      "inputs": [],
      "name": "TransferFromIncorrectOwner",
      "type": "error"
    },
    {
      "inputs": [],
      "name": "TransferToNonERC721ReceiverImplementer",
      "type": "error"
    },
    {
      "inputs": [],
      "name": "TransferToZeroAddress",
      "type": "error"
    },
    {
      "inputs": [],
      "name": "URIQueryForNonexistentToken",
      "type": "error"
    },
    {
      "anonymous": false,
      "inputs": [
        {
          "indexed": true,
          "internalType": "address",
          "name": "owner",
          "type": "address"
        },
        {
          "indexed": true,
          "internalType": "address",
          "name": "approved",
          "type": "address"
        },
        {
          "indexed": true,
          "internalType": "uint256",
          "name": "tokenId",
          "type": "uint256"
        }
      ],
      "name": "Approval",
      "type": "event"
    },
    {
      "anonymous": false,
      "inputs": [
        {
          "indexed": true,
          "internalType": "address",
          "name": "owner",
          "type": "address"
        },
        {
          "indexed": true,
          "internalType": "address",
          "name": "operator",
          "type": "address"
        },
        {
          "indexed": false,
          "internalType": "bool",
          "name": "approved",
          "type": "bool"
        }
      ],
      "name": "ApprovalForAll",
      "type": "event"
    },
    {
      "anonymous": false,
      "inputs": [
        {
          "indexed": true,
          "internalType": "uint256",
          "name": "fromTokenId",
          "type": "uint256"
        },
        {
          "indexed": false,
          "internalType": "uint256",
          "name": "toTokenId",
          "type": "uint256"
        },
        {
          "indexed": true,
          "internalType": "address",
          "name": "from",
          "type": "address"
        },
        {
          "indexed": true,
          "internalType": "address",
          "name": "to",
          "type": "address"
        }
      ],
      "name": "ConsecutiveTransfer",
      "type": "event"
    },
    {
      "anonymous": false,
      "inputs": [
        {
          "indexed": true,
          "internalType": "address",
          "name": "previousOwner",
          "type": "address"
        },
        {
          "indexed": true,
          "internalType": "address",
          "name": "newOwner",
          "type": "address"
        }
      ],
      "name": "OwnershipTransferred",
      "type": "event"
    },
    {
      "anonymous": false,
      "inputs": [
        {
          "indexed": true,
          "internalType": "address",
          "name": "from",
          "type": "address"
        },
        {
          "indexed": true,
          "internalType": "address",
          "name": "to",
          "type": "address"
        },
        {
          "indexed": true,
          "internalType": "uint256",
          "name": "tokenId",
          "type": "uint256"
        }
      ],
      "name": "Transfer",
      "type": "event"
    },
    {
      "anonymous": false,
      "inputs": [
        {
          "indexed": false,
          "internalType": "uint256",
          "name": "",
          "type": "uint256"
        },
        {
          "indexed": false,
          "internalType": "uint256",
          "name": "",
          "type": "uint256"
        },
        {
          "indexed": false,
          "internalType": "address",
          "name": "",
          "type": "address"
        }
      ],
      "name": "Unwrapped",
      "type": "event"
    },
    {
      "anonymous": false,
      "inputs": [
        {
          "indexed": false,
          "internalType": "uint256",
          "name": "",
          "type": "uint256"
        },
        {
          "indexed": false,
          "internalType": "uint256",
          "name": "",
          "type": "uint256"
        },
        {
          "indexed": false,
          "internalType": "address",
          "name": "",
          "type": "address"
        }
      ],
      "name": "Wrapped",
      "type": "event"
    },
    {
      "inputs": [
        {
          "internalType": "address",
          "name": "to",
          "type": "address"
        },
        {
          "internalType": "uint256",
          "name": "tokenId",
          "type": "uint256"
        }
      ],
      "name": "approve",
      "outputs": [],
      "stateMutability": "nonpayable",
      "type": "function"
    },
    {
      "inputs": [
        {
          "internalType": "address",
          "name": "owner",
          "type": "address"
        }
      ],
      "name": "balanceOf",
      "outputs": [
        {
          "internalType": "uint256",
          "name": "",
          "type": "uint256"
        }
      ],
      "stateMutability": "view",
      "type": "function"
    },
    {
      "inputs": [],
      "name": "contractURI",
      "outputs": [
        {
          "internalType": "string",
          "name": "",
          "type": "string"
        }
      ],
      "stateMutability": "view",
      "type": "function"
    },
    {
      "inputs": [
        {
          "internalType": "uint256",
          "name": "tokenId",
          "type": "uint256"
        }
      ],
      "name": "getApproved",
      "outputs": [
        {
          "internalType": "address",
          "name": "",
          "type": "address"
        }
      ],
      "stateMutability": "view",
      "type": "function"
    },
    {
      "inputs": [
        {
          "internalType": "uint256",
          "name": "tokenId",
          "type": "uint256"
        }
      ],
      "name": "getIpc",
      "outputs": [
        {
          "internalType": "string",
          "name": "name",
          "type": "string"
        },
        {
          "internalType": "bytes32",
          "name": "attributeSeed",
          "type": "bytes32"
        },
        {
          "internalType": "bytes32",
          "name": "dna",
          "type": "bytes32"
        },
        {
          "internalType": "uint128",
          "name": "experience",
          "type": "uint128"
        },
        {
          "internalType": "uint128",
          "name": "timeOfBirth",
          "type": "uint128"
        }
      ],
      "stateMutability": "view",
      "type": "function"
    },
    {
      "inputs": [
        {
          "internalType": "uint256",
          "name": "tokenId",
          "type": "uint256"
        }
      ],
      "name": "getTokenIndex",
      "outputs": [
        {
          "internalType": "uint256",
          "name": "",
          "type": "uint256"
        }
      ],
      "stateMutability": "view",
      "type": "function"
    },
    {
      "inputs": [
        {
          "internalType": "uint256",
          "name": "tokenId",
          "type": "uint256"
        }
      ],
      "name": "getTokenOwnership",
      "outputs": [
        {
          "internalType": "address",
          "name": "",
          "type": "address"
        }
      ],
      "stateMutability": "view",
      "type": "function"
    },
    {
      "inputs": [
        {
          "internalType": "address",
          "name": "owner",
          "type": "address"
        },
        {
          "internalType": "address",
          "name": "operator",
          "type": "address"
        }
      ],
      "name": "isApprovedForAll",
      "outputs": [
        {
          "internalType": "bool",
          "name": "",
          "type": "bool"
        }
      ],
      "stateMutability": "view",
      "type": "function"
    },
    {
      "inputs": [],
      "name": "name",
      "outputs": [
        {
          "internalType": "string",
          "name": "",
          "type": "string"
        }
      ],
      "stateMutability": "view",
      "type": "function"
    },
    {
      "inputs": [
        {
          "internalType": "address",
          "name": "",
          "type": "address"
        },
        {
          "internalType": "address",
          "name": "",
          "type": "address"
        },
        {
          "internalType": "uint256",
          "name": "",
          "type": "uint256"
        },
        {
          "internalType": "bytes",
          "name": "",
          "type": "bytes"
        }
      ],
      "name": "onERC721Received",
      "outputs": [
        {
          "internalType": "bytes4",
          "name": "",
          "type": "bytes4"
        }
      ],
      "stateMutability": "pure",
      "type": "function"
    },
    {
      "inputs": [
        {
          "internalType": "address",
          "name": "",
          "type": "address"
        },
        {
          "internalType": "uint256",
          "name": "",
          "type": "uint256"
        },
        {
          "internalType": "bytes",
          "name": "",
          "type": "bytes"
        }
      ],
      "name": "onERC721Received",
      "outputs": [
        {
          "internalType": "bytes4",
          "name": "",
          "type": "bytes4"
        }
      ],
      "stateMutability": "pure",
      "type": "function"
    },
    {
      "inputs": [],
      "name": "owner",
      "outputs": [
        {
          "internalType": "address",
          "name": "",
          "type": "address"
        }
      ],
      "stateMutability": "view",
      "type": "function"
    },
    {
      "inputs": [
        {
          "internalType": "uint256",
          "name": "tokenId",
          "type": "uint256"
        }
      ],
      "name": "ownerOf",
      "outputs": [
        {
          "internalType": "address",
          "name": "",
          "type": "address"
        }
      ],
      "stateMutability": "view",
      "type": "function"
    },
    {
      "inputs": [],
      "name": "renounceOwnership",
      "outputs": [],
      "stateMutability": "nonpayable",
      "type": "function"
    },
    {
      "inputs": [
        {
          "internalType": "address",
          "name": "from",
          "type": "address"
        },
        {
          "internalType": "address",
          "name": "to",
          "type": "address"
        },
        {
          "internalType": "uint256",
          "name": "tokenId",
          "type": "uint256"
        }
      ],
      "name": "safeTransferFrom",
      "outputs": [],
      "stateMutability": "nonpayable",
      "type": "function"
    },
    {
      "inputs": [
        {
          "internalType": "address",
          "name": "from",
          "type": "address"
        },
        {
          "internalType": "address",
          "name": "to",
          "type": "address"
        },
        {
          "internalType": "uint256",
          "name": "tokenId",
          "type": "uint256"
        },
        {
          "internalType": "bytes",
          "name": "_data",
          "type": "bytes"
        }
      ],
      "name": "safeTransferFrom",
      "outputs": [],
      "stateMutability": "nonpayable",
      "type": "function"
    },
    {
      "inputs": [
        {
          "internalType": "address",
          "name": "operator",
          "type": "address"
        },
        {
          "internalType": "bool",
          "name": "approved",
          "type": "bool"
        }
      ],
      "name": "setApprovalForAll",
      "outputs": [],
      "stateMutability": "nonpayable",
      "type": "function"
    },
    {
      "inputs": [
        {
          "internalType": "address",
          "name": "_contractAddress",
          "type": "address"
        }
      ],
      "name": "setContractAddress",
      "outputs": [],
      "stateMutability": "nonpayable",
      "type": "function"
    },
    {
      "inputs": [
        {
          "internalType": "string",
          "name": "__contractURI",
          "type": "string"
        }
      ],
      "name": "setContractURI",
      "outputs": [],
      "stateMutability": "nonpayable",
      "type": "function"
    },
    {
      "inputs": [
        {
          "internalType": "string",
          "name": "__tokenURI",
          "type": "string"
        }
      ],
      "name": "setTokenURI",
      "outputs": [],
      "stateMutability": "nonpayable",
      "type": "function"
    },
    {
      "inputs": [
        {
          "internalType": "bytes4",
          "name": "interfaceId",
          "type": "bytes4"
        }
      ],
      "name": "supportsInterface",
      "outputs": [
        {
          "internalType": "bool",
          "name": "",
          "type": "bool"
        }
      ],
      "stateMutability": "view",
      "type": "function"
    },
    {
      "inputs": [],
      "name": "symbol",
      "outputs": [
        {
          "internalType": "string",
          "name": "",
          "type": "string"
        }
      ],
      "stateMutability": "view",
      "type": "function"
    },
    {
      "inputs": [
        {
          "internalType": "uint256",
          "name": "tokenId",
          "type": "uint256"
        }
      ],
      "name": "tokenURI",
      "outputs": [
        {
          "internalType": "string",
          "name": "",
          "type": "string"
        }
      ],
      "stateMutability": "view",
      "type": "function"
    },
    {
      "inputs": [],
      "name": "totalSupply",
      "outputs": [
        {
          "internalType": "uint256",
          "name": "",
          "type": "uint256"
        }
      ],
      "stateMutability": "view",
      "type": "function"
    },
    {
      "inputs": [
        {
          "internalType": "address",
          "name": "from",
          "type": "address"
        },
        {
          "internalType": "address",
          "name": "to",
          "type": "address"
        },
        {
          "internalType": "uint256",
          "name": "tokenId",
          "type": "uint256"
        }
      ],
      "name": "transferFrom",
      "outputs": [],
      "stateMutability": "nonpayable",
      "type": "function"
    },
    {
      "inputs": [
        {
          "internalType": "address",
          "name": "newOwner",
          "type": "address"
        }
      ],
      "name": "transferOwnership",
      "outputs": [],
      "stateMutability": "nonpayable",
      "type": "function"
    },
    {
      "inputs": [
        {
          "internalType": "uint256",
          "name": "tokenId",
          "type": "uint256"
        }
      ],
      "name": "unwrap",
      "outputs": [],
      "stateMutability": "nonpayable",
      "type": "function"
    },
    {
      "inputs": [
        {
          "internalType": "uint256",
          "name": "tokenId",
          "type": "uint256"
        }
      ],
      "name": "wrap",
      "outputs": [],
      "stateMutability": "payable",
      "type": "function"
    }
  ],
  "bytecode": "0x60806040523480156200001157600080fd5b506040518060400160405280601d81526020017f496d6d6f7274616c20506c6179657220436861726163746572732076300000008152506040518060400160405280600581526020017f49504356300000000000000000000000000000000000000000000000000000008152506200009e62000092620001a760201b60201c565b620001af60201b60201c565b8160039080519060200190620000b69291906200027c565b508060049080519060200190620000cf9291906200027c565b50620000e06200027360201b60201c565b6001819055505050735f68f9306fad5850ca1bb53bfd2ad7b0ae1a24ff600960006101000a81548173ffffffffffffffffffffffffffffffffffffffff021916908373ffffffffffffffffffffffffffffffffffffffff16021790555060405180602001604052806000815250600a9080519060200190620001649291906200027c565b5060405180602001604052806000815250600b90805190602001906200018c9291906200027c565b50633b9ac9ff600c819055506103e8600d8190555062000391565b600033905090565b60008060009054906101000a900473ffffffffffffffffffffffffffffffffffffffff169050816000806101000a81548173ffffffffffffffffffffffffffffffffffffffff021916908373ffffffffffffffffffffffffffffffffffffffff1602179055508173ffffffffffffffffffffffffffffffffffffffff168173ffffffffffffffffffffffffffffffffffffffff167f8be0079c531659141344cd1fd0a4f28419497f9722a3daafe3b4186f6b6457e060405160405180910390a35050565b60006001905090565b8280546200028a906200035b565b90600052602060002090601f016020900481019282620002ae5760008555620002fa565b82601f10620002c957805160ff1916838001178555620002fa565b82800160010185558215620002fa579182015b82811115620002f9578251825591602001919060010190620002dc565b5b5090506200030991906200030d565b5090565b5b80821115620003285760008160009055506001016200030e565b5090565b7f4e487b7100000000000000000000000000000000000000000000000000000000600052602260045260246000fd5b600060028204905060018216806200037457607f821691505b602082108114156200038b576200038a6200032c565b5b50919050565b61371c80620003a16000396000f3fe6080604052600436106101b75760003560e01c80638da5cb5b116100ec578063de0e9a3e1161008a578063e985e9c511610064578063e985e9c514610644578063ea598cb014610681578063f0b9e5ba1461069d578063f2fde38b146106da576101b7565b8063de0e9a3e146105c7578063e0df5b6f146105f0578063e8a3d48514610619576101b7565b8063a22cb465116100c6578063a22cb465146104fb578063b88d4fde14610524578063c87b56dd1461054d578063d85003061461058a576101b7565b80638da5cb5b1461047c578063938e3d7b146104a757806395d89b41146104d0576101b7565b80633a663c80116101595780636352211e116101335780636352211e146103aa57806370a08231146103e7578063715018a6146104245780637fff1e2f1461043b576101b7565b80633a663c801461031b57806342842e0e14610358578063477bddaa14610381576101b7565b8063095ea7b311610195578063095ea7b314610261578063150b7a021461028a57806318160ddd146102c757806323b872dd146102f2576101b7565b806301ffc9a7146101bc57806306fdde03146101f9578063081812fc14610224575b600080fd5b3480156101c857600080fd5b506101e360048036038101906101de91906128d4565b610703565b6040516101f0919061291c565b60405180910390f35b34801561020557600080fd5b5061020e610795565b60405161021b91906129d0565b60405180910390f35b34801561023057600080fd5b5061024b60048036038101906102469190612a28565b610827565b6040516102589190612a96565b60405180910390f35b34801561026d57600080fd5b5061028860048036038101906102839190612add565b6108a6565b005b34801561029657600080fd5b506102b160048036038101906102ac9190612b82565b6109ea565b6040516102be9190612c19565b60405180910390f35b3480156102d357600080fd5b506102dc6109ff565b6040516102e99190612c43565b60405180910390f35b3480156102fe57600080fd5b5061031960048036038101906103149190612c5e565b610aa6565b005b34801561032757600080fd5b50610342600480360381019061033d9190612a28565b610dcb565b60405161034f9190612c43565b60405180910390f35b34801561036457600080fd5b5061037f600480360381019061037a9190612c5e565b610de8565b005b34801561038d57600080fd5b506103a860048036038101906103a39190612cb1565b610e08565b005b3480156103b657600080fd5b506103d160048036038101906103cc9190612a28565b610e54565b6040516103de9190612a96565b60405180910390f35b3480156103f357600080fd5b5061040e60048036038101906104099190612cb1565b610f6f565b60405161041b9190612c43565b60405180910390f35b34801561043057600080fd5b50610439611028565b005b34801561044757600080fd5b50610462600480360381019061045d9190612a28565b61103c565b604051610473959493929190612d22565b60405180910390f35b34801561048857600080fd5b50610491611107565b60405161049e9190612a96565b60405180910390f35b3480156104b357600080fd5b506104ce60048036038101906104c99190612dd2565b611130565b005b3480156104dc57600080fd5b506104e561114e565b6040516104f291906129d0565b60405180910390f35b34801561050757600080fd5b50610522600480360381019061051d9190612e4b565b6111e0565b005b34801561053057600080fd5b5061054b60048036038101906105469190612fbb565b611358565b005b34801561055957600080fd5b50610574600480360381019061056f9190612a28565b6113cb565b60405161058191906129d0565b60405180910390f35b34801561059657600080fd5b506105b160048036038101906105ac9190612a28565b611472565b6040516105be9190612a96565b60405180910390f35b3480156105d357600080fd5b506105ee60048036038101906105e99190612a28565b611526565b005b3480156105fc57600080fd5b5061061760048036038101906106129190612dd2565b611873565b005b34801561062557600080fd5b5061062e611891565b60405161063b91906129d0565b60405180910390f35b34801561065057600080fd5b5061066b6004803603810190610666919061303e565b611923565b604051610678919061291c565b60405180910390f35b61069b60048036038101906106969190612a28565b6119b7565b005b3480156106a957600080fd5b506106c460048036038101906106bf919061307e565b611c81565b6040516106d19190612c19565b60405180910390f35b3480156106e657600080fd5b5061070160048036038101906106fc9190612cb1565b611cae565b005b60006301ffc9a760e01b827bffffffffffffffffffffffffffffffffffffffffffffffffffffffff1916148061075e57506380ac58cd60e01b827bffffffffffffffffffffffffffffffffffffffffffffffffffffffff1916145b8061078e5750635b5e139f60e01b827bffffffffffffffffffffffffffffffffffffffffffffffffffffffff1916145b9050919050565b6060600380546107a490613121565b80601f01602080910402602001604051908101604052809291908181526020018280546107d090613121565b801561081d5780601f106107f25761010080835404028352916020019161081d565b820191906000526020600020905b81548152906001019060200180831161080057829003601f168201915b5050505050905090565b600061083282611d32565b610868576040517fcf4700e400000000000000000000000000000000000000000000000000000000815260040160405180910390fd5b6007600083815260200190815260200160002060000160009054906101000a900473ffffffffffffffffffffffffffffffffffffffff169050919050565b60006108b182610e54565b90508073ffffffffffffffffffffffffffffffffffffffff166108d2611d91565b73ffffffffffffffffffffffffffffffffffffffff1614610935576108fe816108f9611d91565b611923565b610934576040517fcfb3b94200000000000000000000000000000000000000000000000000000000815260040160405180910390fd5b5b826007600084815260200190815260200160002060000160006101000a81548173ffffffffffffffffffffffffffffffffffffffff021916908373ffffffffffffffffffffffffffffffffffffffff160217905550818373ffffffffffffffffffffffffffffffffffffffff168273ffffffffffffffffffffffffffffffffffffffff167f8c5be1e5ebec7d5bd14f71427d1e84f3dd0314c0f7b2291e5b200ac8c7c3b92560405160405180910390a4505050565b600063150b7a0260e01b905095945050505050565b6000600960009054906101000a900473ffffffffffffffffffffffffffffffffffffffff1673ffffffffffffffffffffffffffffffffffffffff166318160ddd6040518163ffffffff1660e01b815260040160206040518083038186803b158015610a6957600080fd5b505afa158015610a7d573d6000803e3d6000fd5b505050506040513d601f19601f82011682018060405250810190610aa19190613168565b905090565b6000610ab182611d99565b90508373ffffffffffffffffffffffffffffffffffffffff168173ffffffffffffffffffffffffffffffffffffffff1614610b18576040517fa114810000000000000000000000000000000000000000000000000000000000815260040160405180910390fd5b600080610b2484611e67565b91509150610b3a8187610b35611d91565b611e8e565b610b8657610b4f86610b4a611d91565b611923565b610b85576040517f59c896be00000000000000000000000000000000000000000000000000000000815260040160405180910390fd5b5b600073ffffffffffffffffffffffffffffffffffffffff168573ffffffffffffffffffffffffffffffffffffffff161415610bed576040517fea553b3400000000000000000000000000000000000000000000000000000000815260040160405180910390fd5b610bfa8686866001611ed2565b8015610c0557600082555b600660008773ffffffffffffffffffffffffffffffffffffffff1673ffffffffffffffffffffffffffffffffffffffff168152602001908152602001600020600081546001900391905081905550600660008673ffffffffffffffffffffffffffffffffffffffff1673ffffffffffffffffffffffffffffffffffffffff1681526020019081526020016000206000815460010191905081905550610cd385610caf888887611ed8565b7c020000000000000000000000000000000000000000000000000000000017611f00565b600560008681526020019081526020016000208190555060007c020000000000000000000000000000000000000000000000000000000084161415610d5b576000600185019050600060056000838152602001908152602001600020541415610d59576001548114610d58578360056000838152602001908152602001600020819055505b5b505b838573ffffffffffffffffffffffffffffffffffffffff168773ffffffffffffffffffffffffffffffffffffffff167fddf252ad1be2c89b69c2b068fc378daa952ba7f163c4a11628f55a4df523b3ef60405160405180910390a4610dc38686866001611f2b565b505050505050565b6000600f6000838152602001908152602001600020549050919050565b610e0383838360405180602001604052806000815250611358565b505050565b610e10611f31565b80600960006101000a81548173ffffffffffffffffffffffffffffffffffffffff021916908373ffffffffffffffffffffffffffffffffffffffff16021790555050565b600080600f60008481526020019081526020016000205490506000811415610f2957600960009054906101000a900473ffffffffffffffffffffffffffffffffffffffff1673ffffffffffffffffffffffffffffffffffffffff16636352211e846040518263ffffffff1660e01b8152600401610ed19190612c43565b60206040518083038186803b158015610ee957600080fd5b505afa158015610efd573d6000803e3d6000fd5b505050506040513d601f19601f82011682018060405250810190610f2191906131aa565b915050610f6a565b6000600e600083815260200190815260200160002060010160009054906101000a900473ffffffffffffffffffffffffffffffffffffffff16905080925050505b919050565b60008073ffffffffffffffffffffffffffffffffffffffff168273ffffffffffffffffffffffffffffffffffffffff161415610fd7576040517f8f4eb60400000000000000000000000000000000000000000000000000000000815260040160405180910390fd5b67ffffffffffffffff600660008473ffffffffffffffffffffffffffffffffffffffff1673ffffffffffffffffffffffffffffffffffffffff16815260200190815260200160002054169050919050565b611030611f31565b61103a6000611faf565b565b6060600080600080600960009054906101000a900473ffffffffffffffffffffffffffffffffffffffff1673ffffffffffffffffffffffffffffffffffffffff16637fff1e2f876040518263ffffffff1660e01b815260040161109f9190612c43565b60006040518083038186803b1580156110b757600080fd5b505afa1580156110cb573d6000803e3d6000fd5b505050506040513d6000823e3d601f19601f820116820180604052508101906110f491906132d0565b9450945094509450945091939590929450565b60008060009054906101000a900473ffffffffffffffffffffffffffffffffffffffff16905090565b611138611f31565b8181600b91906111499291906127c5565b505050565b60606004805461115d90613121565b80601f016020809104026020016040519081016040528092919081815260200182805461118990613121565b80156111d65780601f106111ab576101008083540402835291602001916111d6565b820191906000526020600020905b8154815290600101906020018083116111b957829003601f168201915b5050505050905090565b6111e8611d91565b73ffffffffffffffffffffffffffffffffffffffff168273ffffffffffffffffffffffffffffffffffffffff16141561124d576040517fb06307db00000000000000000000000000000000000000000000000000000000815260040160405180910390fd5b806008600061125a611d91565b73ffffffffffffffffffffffffffffffffffffffff1673ffffffffffffffffffffffffffffffffffffffff16815260200190815260200160002060008473ffffffffffffffffffffffffffffffffffffffff1673ffffffffffffffffffffffffffffffffffffffff16815260200190815260200160002060006101000a81548160ff0219169083151502179055508173ffffffffffffffffffffffffffffffffffffffff16611307611d91565b73ffffffffffffffffffffffffffffffffffffffff167f17307eab39ab6107e8899845ad3d59bd9653f200f220920489ca2b5937696c318360405161134c919061291c565b60405180910390a35050565b611363848484610aa6565b60008373ffffffffffffffffffffffffffffffffffffffff163b146113c55761138e84848484612073565b6113c4576040517fd1a57ed600000000000000000000000000000000000000000000000000000000815260040160405180910390fd5b5b50505050565b6060600d548211806113dd5750600082145b15611414576040517fa14c4b5000000000000000000000000000000000000000000000000000000000815260040160405180910390fd5b600061141e6121d3565b905060008151141561143f576040518060200160405280600081525061146a565b8061144984612265565b60405160200161145a9291906133a3565b6040516020818303038152906040525b915050919050565b6000600960009054906101000a900473ffffffffffffffffffffffffffffffffffffffff1673ffffffffffffffffffffffffffffffffffffffff16636352211e836040518263ffffffff1660e01b81526004016114cf9190612c43565b60206040518083038186803b1580156114e757600080fd5b505afa1580156114fb573d6000803e3d6000fd5b505050506040513d601f19601f8201168201806040525081019061151f91906131aa565b9050919050565b6000600f60008381526020019081526020016000205490506000811415611579576040517f4494362200000000000000000000000000000000000000000000000000000000815260040160405180910390fd5b60003390508073ffffffffffffffffffffffffffffffffffffffff16600e600084815260200190815260200160002060010160009054906101000a900473ffffffffffffffffffffffffffffffffffffffff1673ffffffffffffffffffffffffffffffffffffffff1614611619576040517ff637a3e300000000000000000000000000000000000000000000000000000000815260040160405180910390fd5b600f600084815260200190815260200160002060009055600e60008381526020019081526020016000206000808201600090556001820160006101000a81549073ffffffffffffffffffffffffffffffffffffffff0219169055505060005b601060008373ffffffffffffffffffffffffffffffffffffffff1673ffffffffffffffffffffffffffffffffffffffff168152602001908152602001600020805490508110156117985783601060008473ffffffffffffffffffffffffffffffffffffffff1673ffffffffffffffffffffffffffffffffffffffff1681526020019081526020016000208281548110611714576117136133c7565b5b9060005260206000200154141561178557601060008373ffffffffffffffffffffffffffffffffffffffff1673ffffffffffffffffffffffffffffffffffffffff1681526020019081526020016000208181548110611776576117756133c7565b5b90600052602060002001600090555b808061179090613425565b915050611678565b506117a2826122b5565b600960009054906101000a900473ffffffffffffffffffffffffffffffffffffffff1673ffffffffffffffffffffffffffffffffffffffff166342842e0e3083866040518463ffffffff1660e01b81526004016118019392919061346e565b600060405180830381600087803b15801561181b57600080fd5b505af115801561182f573d6000803e3d6000fd5b505050507f175e3dad2e6c10f120d3216de54ebe7abeee5b7f33c8941af43e73a0315e4a80828483604051611866939291906134a5565b60405180910390a1505050565b61187b611f31565b8181600a919061188c9291906127c5565b505050565b6060600b80546118a090613121565b80601f01602080910402602001604051908101604052809291908181526020018280546118cc90613121565b80156119195780601f106118ee57610100808354040283529160200191611919565b820191906000526020600020905b8154815290600101906020018083116118fc57829003601f168201915b5050505050905090565b6000600860008473ffffffffffffffffffffffffffffffffffffffff1673ffffffffffffffffffffffffffffffffffffffff16815260200190815260200160002060008373ffffffffffffffffffffffffffffffffffffffff1673ffffffffffffffffffffffffffffffffffffffff16815260200190815260200160002060009054906101000a900460ff16905092915050565b600d548111156119f3576040517f53bb24f900000000000000000000000000000000000000000000000000000000815260040160405180910390fd5b600960009054906101000a900473ffffffffffffffffffffffffffffffffffffffff1673ffffffffffffffffffffffffffffffffffffffff166342842e0e3330846040518463ffffffff1660e01b8152600401611a529392919061346e565b600060405180830381600087803b158015611a6c57600080fd5b505af1158015611a80573d6000803e3d6000fd5b50505050600960009054906101000a900473ffffffffffffffffffffffffffffffffffffffff1673ffffffffffffffffffffffffffffffffffffffff16633d4cfe2182600c546040518363ffffffff1660e01b8152600401611ae39291906134dc565b600060405180830381600087803b158015611afd57600080fd5b505af1158015611b11573d6000803e3d6000fd5b5050505060003390506000611b246122c3565b905060405180604001604052808481526020018373ffffffffffffffffffffffffffffffffffffffff16815250600e60008381526020019081526020016000206000820151816000015560208201518160010160006101000a81548173ffffffffffffffffffffffffffffffffffffffff021916908373ffffffffffffffffffffffffffffffffffffffff16021790555090505080600f600085815260200190815260200160002081905550601060008373ffffffffffffffffffffffffffffffffffffffff1673ffffffffffffffffffffffffffffffffffffffff168152602001908152602001600020819080600181540180825580915050600190039060005260206000200160009091909190915055611c418260016122cd565b7ff90572efd1ab4fb9c6b9dabfd24d103ce15482a9ec0c50e0e32618708783b15b818484604051611c74939291906134a5565b60405180910390a1505050565b60007ff0b9e5baf647f945565b0ac04522b519449041bdd44f952626b9ead9ff3692419050949350505050565b611cb6611f31565b600073ffffffffffffffffffffffffffffffffffffffff168173ffffffffffffffffffffffffffffffffffffffff161415611d26576040517f08c379a0000000000000000000000000000000000000000000000000000000008152600401611d1d90613577565b60405180910390fd5b611d2f81611faf565b50565b600081611d3d6122eb565b11158015611d4c575060015482105b8015611d8a575060007c0100000000000000000000000000000000000000000000000000000000600560008581526020019081526020016000205416145b9050919050565b600033905090565b60008082905080611da86122eb565b11611e3057600154811015611e2f5760006005600083815260200190815260200160002054905060007c010000000000000000000000000000000000000000000000000000000082161415611e2d575b6000811415611e23576005600083600190039350838152602001908152602001600020549050611df8565b8092505050611e62565b505b5b6040517fdf2d9b4200000000000000000000000000000000000000000000000000000000815260040160405180910390fd5b919050565b60008060006007600085815260200190815260200160002090508092508254915050915091565b600073ffffffffffffffffffffffffffffffffffffffff8316925073ffffffffffffffffffffffffffffffffffffffff821691508382148383141790509392505050565b50505050565b60008060e883901c905060e8611eef8686846122f4565b62ffffff16901b9150509392505050565b600073ffffffffffffffffffffffffffffffffffffffff83169250814260a01b178317905092915050565b50505050565b611f396122fd565b73ffffffffffffffffffffffffffffffffffffffff16611f57611107565b73ffffffffffffffffffffffffffffffffffffffff1614611fad576040517f08c379a0000000000000000000000000000000000000000000000000000000008152600401611fa4906135e3565b60405180910390fd5b565b60008060009054906101000a900473ffffffffffffffffffffffffffffffffffffffff169050816000806101000a81548173ffffffffffffffffffffffffffffffffffffffff021916908373ffffffffffffffffffffffffffffffffffffffff1602179055508173ffffffffffffffffffffffffffffffffffffffff168173ffffffffffffffffffffffffffffffffffffffff167f8be0079c531659141344cd1fd0a4f28419497f9722a3daafe3b4186f6b6457e060405160405180910390a35050565b60008373ffffffffffffffffffffffffffffffffffffffff1663150b7a02612099611d91565b8786866040518563ffffffff1660e01b81526004016120bb9493929190613658565b602060405180830381600087803b1580156120d557600080fd5b505af192505050801561210657506040513d601f19601f8201168201806040525081019061210391906136b9565b60015b612180573d8060008114612136576040519150601f19603f3d011682016040523d82523d6000602084013e61213b565b606091505b50600081511415612178576040517fd1a57ed600000000000000000000000000000000000000000000000000000000815260040160405180910390fd5b805181602001fd5b63150b7a0260e01b7bffffffffffffffffffffffffffffffffffffffffffffffffffffffff1916817bffffffffffffffffffffffffffffffffffffffffffffffffffffffff191614915050949350505050565b6060600a80546121e290613121565b80601f016020809104026020016040519081016040528092919081815260200182805461220e90613121565b801561225b5780601f106122305761010080835404028352916020019161225b565b820191906000526020600020905b81548152906001019060200180831161223e57829003601f168201915b5050505050905090565b606060806040510190508060405280825b6001156122a157600183039250600a81066030018353600a810490508061229c576122a1565b612276565b508181036020830392508083525050919050565b6122c0816000612305565b50565b6000600154905090565b6122e7828260405180602001604052806000815250612559565b5050565b60006001905090565b60009392505050565b600033905090565b600061231083611d99565b9050600081905060008061232386611e67565b91509150841561238c5761233f818461233a611d91565b611e8e565b61238b576123548361234f611d91565b611923565b61238a576040517f59c896be00000000000000000000000000000000000000000000000000000000815260040160405180910390fd5b5b5b61239a836000886001611ed2565b80156123a557600082555b600160806001901b03600660008573ffffffffffffffffffffffffffffffffffffffff1673ffffffffffffffffffffffffffffffffffffffff1681526020019081526020016000206000828254019250508190555061244d8361240a85600088611ed8565b7c02000000000000000000000000000000000000000000000000000000007c01000000000000000000000000000000000000000000000000000000001717611f00565b600560008881526020019081526020016000208190555060007c0200000000000000000000000000000000000000000000000000000000851614156124d55760006001870190506000600560008381526020019081526020016000205414156124d35760015481146124d2578460056000838152602001908152602001600020819055505b5b505b85600073ffffffffffffffffffffffffffffffffffffffff168473ffffffffffffffffffffffffffffffffffffffff167fddf252ad1be2c89b69c2b068fc378daa952ba7f163c4a11628f55a4df523b3ef60405160405180910390a461253f836000886001611f2b565b600260008154809291906001019190505550505050505050565b61256383836125f7565b60008373ffffffffffffffffffffffffffffffffffffffff163b146125f25760006001549050600083820390505b6125a46000868380600101945086612073565b6125da576040517fd1a57ed600000000000000000000000000000000000000000000000000000000815260040160405180910390fd5b8181106125915781600154146125ef57600080fd5b50505b505050565b600060015490506000821415612639576040517fb562e8dd00000000000000000000000000000000000000000000000000000000815260040160405180910390fd5b6126466000848385611ed2565b600160406001901b178202600660008573ffffffffffffffffffffffffffffffffffffffff1673ffffffffffffffffffffffffffffffffffffffff168152602001908152602001600020600082825401925050819055506126bd836126ae6000866000611ed8565b6126b7856127b5565b17611f00565b6005600083815260200190815260200160002081905550600080838301905073ffffffffffffffffffffffffffffffffffffffff85169150828260007fddf252ad1be2c89b69c2b068fc378daa952ba7f163c4a11628f55a4df523b3ef600080a4600183015b81811461275e57808360007fddf252ad1be2c89b69c2b068fc378daa952ba7f163c4a11628f55a4df523b3ef600080a4600181019050612723565b50600082141561279a576040517f2e07630000000000000000000000000000000000000000000000000000000000815260040160405180910390fd5b8060018190555050506127b06000848385611f2b565b505050565b60006001821460e11b9050919050565b8280546127d190613121565b90600052602060002090601f0160209004810192826127f3576000855561283a565b82601f1061280c57803560ff191683800117855561283a565b8280016001018555821561283a579182015b8281111561283957823582559160200191906001019061281e565b5b509050612847919061284b565b5090565b5b8082111561286457600081600090555060010161284c565b5090565b6000604051905090565b600080fd5b600080fd5b60007fffffffff0000000000000000000000000000000000000000000000000000000082169050919050565b6128b18161287c565b81146128bc57600080fd5b50565b6000813590506128ce816128a8565b92915050565b6000602082840312156128ea576128e9612872565b5b60006128f8848285016128bf565b91505092915050565b60008115159050919050565b61291681612901565b82525050565b6000602082019050612931600083018461290d565b92915050565b600081519050919050565b600082825260208201905092915050565b60005b83811015612971578082015181840152602081019050612956565b83811115612980576000848401525b50505050565b6000601f19601f8301169050919050565b60006129a282612937565b6129ac8185612942565b93506129bc818560208601612953565b6129c581612986565b840191505092915050565b600060208201905081810360008301526129ea8184612997565b905092915050565b6000819050919050565b612a05816129f2565b8114612a1057600080fd5b50565b600081359050612a22816129fc565b92915050565b600060208284031215612a3e57612a3d612872565b5b6000612a4c84828501612a13565b91505092915050565b600073ffffffffffffffffffffffffffffffffffffffff82169050919050565b6000612a8082612a55565b9050919050565b612a9081612a75565b82525050565b6000602082019050612aab6000830184612a87565b92915050565b612aba81612a75565b8114612ac557600080fd5b50565b600081359050612ad781612ab1565b92915050565b60008060408385031215612af457612af3612872565b5b6000612b0285828601612ac8565b9250506020612b1385828601612a13565b9150509250929050565b600080fd5b600080fd5b600080fd5b60008083601f840112612b4257612b41612b1d565b5b8235905067ffffffffffffffff811115612b5f57612b5e612b22565b5b602083019150836001820283011115612b7b57612b7a612b27565b5b9250929050565b600080600080600060808688031215612b9e57612b9d612872565b5b6000612bac88828901612ac8565b9550506020612bbd88828901612ac8565b9450506040612bce88828901612a13565b935050606086013567ffffffffffffffff811115612bef57612bee612877565b5b612bfb88828901612b2c565b92509250509295509295909350565b612c138161287c565b82525050565b6000602082019050612c2e6000830184612c0a565b92915050565b612c3d816129f2565b82525050565b6000602082019050612c586000830184612c34565b92915050565b600080600060608486031215612c7757612c76612872565b5b6000612c8586828701612ac8565b9350506020612c9686828701612ac8565b9250506040612ca786828701612a13565b9150509250925092565b600060208284031215612cc757612cc6612872565b5b6000612cd584828501612ac8565b91505092915050565b6000819050919050565b612cf181612cde565b82525050565b60006fffffffffffffffffffffffffffffffff82169050919050565b612d1c81612cf7565b82525050565b600060a0820190508181036000830152612d3c8188612997565b9050612d4b6020830187612ce8565b612d586040830186612ce8565b612d656060830185612d13565b612d726080830184612d13565b9695505050505050565b60008083601f840112612d9257612d91612b1d565b5b8235905067ffffffffffffffff811115612daf57612dae612b22565b5b602083019150836001820283011115612dcb57612dca612b27565b5b9250929050565b60008060208385031215612de957612de8612872565b5b600083013567ffffffffffffffff811115612e0757612e06612877565b5b612e1385828601612d7c565b92509250509250929050565b612e2881612901565b8114612e3357600080fd5b50565b600081359050612e4581612e1f565b92915050565b60008060408385031215612e6257612e61612872565b5b6000612e7085828601612ac8565b9250506020612e8185828601612e36565b9150509250929050565b600080fd5b7f4e487b7100000000000000000000000000000000000000000000000000000000600052604160045260246000fd5b612ec882612986565b810181811067ffffffffffffffff82111715612ee757612ee6612e90565b5b80604052505050565b6000612efa612868565b9050612f068282612ebf565b919050565b600067ffffffffffffffff821115612f2657612f25612e90565b5b612f2f82612986565b9050602081019050919050565b82818337600083830152505050565b6000612f5e612f5984612f0b565b612ef0565b905082815260208101848484011115612f7a57612f79612e8b565b5b612f85848285612f3c565b509392505050565b600082601f830112612fa257612fa1612b1d565b5b8135612fb2848260208601612f4b565b91505092915050565b60008060008060808587031215612fd557612fd4612872565b5b6000612fe387828801612ac8565b9450506020612ff487828801612ac8565b935050604061300587828801612a13565b925050606085013567ffffffffffffffff81111561302657613025612877565b5b61303287828801612f8d565b91505092959194509250565b6000806040838503121561305557613054612872565b5b600061306385828601612ac8565b925050602061307485828601612ac8565b9150509250929050565b6000806000806060858703121561309857613097612872565b5b60006130a687828801612ac8565b94505060206130b787828801612a13565b935050604085013567ffffffffffffffff8111156130d8576130d7612877565b5b6130e487828801612b2c565b925092505092959194509250565b7f4e487b7100000000000000000000000000000000000000000000000000000000600052602260045260246000fd5b6000600282049050600182168061313957607f821691505b6020821081141561314d5761314c6130f2565b5b50919050565b600081519050613162816129fc565b92915050565b60006020828403121561317e5761317d612872565b5b600061318c84828501613153565b91505092915050565b6000815190506131a481612ab1565b92915050565b6000602082840312156131c0576131bf612872565b5b60006131ce84828501613195565b91505092915050565b600067ffffffffffffffff8211156131f2576131f1612e90565b5b6131fb82612986565b9050602081019050919050565b600061321b613216846131d7565b612ef0565b90508281526020810184848401111561323757613236612e8b565b5b613242848285612953565b509392505050565b600082601f83011261325f5761325e612b1d565b5b815161326f848260208601613208565b91505092915050565b61328181612cde565b811461328c57600080fd5b50565b60008151905061329e81613278565b92915050565b6132ad81612cf7565b81146132b857600080fd5b50565b6000815190506132ca816132a4565b92915050565b600080600080600060a086880312156132ec576132eb612872565b5b600086015167ffffffffffffffff81111561330a57613309612877565b5b6133168882890161324a565b95505060206133278882890161328f565b94505060406133388882890161328f565b9350506060613349888289016132bb565b925050608061335a888289016132bb565b9150509295509295909350565b600081905092915050565b600061337d82612937565b6133878185613367565b9350613397818560208601612953565b80840191505092915050565b60006133af8285613372565b91506133bb8284613372565b91508190509392505050565b7f4e487b7100000000000000000000000000000000000000000000000000000000600052603260045260246000fd5b7f4e487b7100000000000000000000000000000000000000000000000000000000600052601160045260246000fd5b6000613430826129f2565b91507fffffffffffffffffffffffffffffffffffffffffffffffffffffffffffffffff821415613463576134626133f6565b5b600182019050919050565b60006060820190506134836000830186612a87565b6134906020830185612a87565b61349d6040830184612c34565b949350505050565b60006060820190506134ba6000830186612c34565b6134c76020830185612c34565b6134d46040830184612a87565b949350505050565b60006040820190506134f16000830185612c34565b6134fe6020830184612c34565b9392505050565b7f4f776e61626c653a206e6577206f776e657220697320746865207a65726f206160008201527f6464726573730000000000000000000000000000000000000000000000000000602082015250565b6000613561602683612942565b915061356c82613505565b604082019050919050565b6000602082019050818103600083015261359081613554565b9050919050565b7f4f776e61626c653a2063616c6c6572206973206e6f7420746865206f776e6572600082015250565b60006135cd602083612942565b91506135d882613597565b602082019050919050565b600060208201905081810360008301526135fc816135c0565b9050919050565b600081519050919050565b600082825260208201905092915050565b600061362a82613603565b613634818561360e565b9350613644818560208601612953565b61364d81612986565b840191505092915050565b600060808201905061366d6000830187612a87565b61367a6020830186612a87565b6136876040830185612c34565b8181036060830152613699818461361f565b905095945050505050565b6000815190506136b3816128a8565b92915050565b6000602082840312156136cf576136ce612872565b5b60006136dd848285016136a4565b9150509291505056fea26469706673582212207b292b6859ba447687bc8c87d48094d85ff3a3183f07b02b3d9e5c5a842e35d664736f6c63430008090033",
  "linkReferences": {},
  "deployedLinkReferences": {}
}