{
  "_format": "hh-sol-artifact-1",
  "contractName": "IPCV0Wrapper",
  "sourceName": "contracts/IPCContract.sol",
  "abi": [
    {
      "inputs": [],
      "stateMutability": "nonpayable",
      "type": "constructor"
    },
    {
      "inputs": [],
      "name": "ApprovalCallerNotOwnerNorApproved",
      "type": "error"
    },
    {
      "inputs": [],
      "name": "ApprovalQueryForNonexistentToken",
      "type": "error"
    },
    {
      "inputs": [],
      "name": "ApproveToCaller",
      "type": "error"
    },
    {
      "inputs": [],
      "name": "BalanceQueryForZeroAddress",
      "type": "error"
    },
    {
      "inputs": [],
      "name": "MintERC2309QuantityExceedsLimit",
      "type": "error"
    },
    {
      "inputs": [],
      "name": "MintToZeroAddress",
      "type": "error"
    },
    {
      "inputs": [],
      "name": "MintZeroQuantity",
      "type": "error"
    },
    {
      "inputs": [],
      "name": "OwnerQueryForNonexistentToken",
      "type": "error"
    },
    {
      "inputs": [],
      "name": "OwnershipNotInitializedForExtraData",
      "type": "error"
    },
    {
      "inputs": [],
      "name": "TokenDoesntExist",
      "type": "error"
    },
    {
      "inputs": [],
      "name": "TokenLimitReached",
      "type": "error"
    },
    {
      "inputs": [],
      "name": "TokenNotOwner",
      "type": "error"
    },
    {
      "inputs": [],
      "name": "TransferCallerNotOwnerNorApproved",
      "type": "error"
    },
    {
      "inputs": [],
      "name": "TransferFromIncorrectOwner",
      "type": "error"
    },
    {
      "inputs": [],
      "name": "TransferToNonERC721ReceiverImplementer",
      "type": "error"
    },
    {
      "inputs": [],
      "name": "TransferToZeroAddress",
      "type": "error"
    },
    {
      "inputs": [],
      "name": "URIQueryForNonexistentToken",
      "type": "error"
    },
    {
      "anonymous": false,
      "inputs": [
        {
          "indexed": true,
          "internalType": "address",
          "name": "owner",
          "type": "address"
        },
        {
          "indexed": true,
          "internalType": "address",
          "name": "approved",
          "type": "address"
        },
        {
          "indexed": true,
          "internalType": "uint256",
          "name": "tokenId",
          "type": "uint256"
        }
      ],
      "name": "Approval",
      "type": "event"
    },
    {
      "anonymous": false,
      "inputs": [
        {
          "indexed": true,
          "internalType": "address",
          "name": "owner",
          "type": "address"
        },
        {
          "indexed": true,
          "internalType": "address",
          "name": "operator",
          "type": "address"
        },
        {
          "indexed": false,
          "internalType": "bool",
          "name": "approved",
          "type": "bool"
        }
      ],
      "name": "ApprovalForAll",
      "type": "event"
    },
    {
      "anonymous": false,
      "inputs": [
        {
          "indexed": true,
          "internalType": "uint256",
          "name": "fromTokenId",
          "type": "uint256"
        },
        {
          "indexed": false,
          "internalType": "uint256",
          "name": "toTokenId",
          "type": "uint256"
        },
        {
          "indexed": true,
          "internalType": "address",
          "name": "from",
          "type": "address"
        },
        {
          "indexed": true,
          "internalType": "address",
          "name": "to",
          "type": "address"
        }
      ],
      "name": "ConsecutiveTransfer",
      "type": "event"
    },
    {
      "anonymous": false,
      "inputs": [
        {
          "indexed": true,
          "internalType": "address",
          "name": "previousOwner",
          "type": "address"
        },
        {
          "indexed": true,
          "internalType": "address",
          "name": "newOwner",
          "type": "address"
        }
      ],
      "name": "OwnershipTransferred",
      "type": "event"
    },
    {
      "anonymous": false,
      "inputs": [
        {
          "indexed": true,
          "internalType": "address",
          "name": "from",
          "type": "address"
        },
        {
          "indexed": true,
          "internalType": "address",
          "name": "to",
          "type": "address"
        },
        {
          "indexed": true,
          "internalType": "uint256",
          "name": "tokenId",
          "type": "uint256"
        }
      ],
      "name": "Transfer",
      "type": "event"
    },
    {
      "anonymous": false,
      "inputs": [
        {
          "indexed": false,
          "internalType": "uint256",
          "name": "",
          "type": "uint256"
        },
        {
          "indexed": false,
          "internalType": "uint256",
          "name": "",
          "type": "uint256"
        },
        {
          "indexed": false,
          "internalType": "address",
          "name": "",
          "type": "address"
        }
      ],
      "name": "Unwrapped",
      "type": "event"
    },
    {
      "anonymous": false,
      "inputs": [
        {
          "indexed": false,
          "internalType": "uint256",
          "name": "",
          "type": "uint256"
        },
        {
          "indexed": false,
          "internalType": "uint256",
          "name": "",
          "type": "uint256"
        },
        {
          "indexed": false,
          "internalType": "address",
          "name": "",
          "type": "address"
        }
      ],
      "name": "Wrapped",
      "type": "event"
    },
    {
      "inputs": [
        {
          "internalType": "address",
          "name": "to",
          "type": "address"
        },
        {
          "internalType": "uint256",
          "name": "tokenId",
          "type": "uint256"
        }
      ],
      "name": "approve",
      "outputs": [],
      "stateMutability": "nonpayable",
      "type": "function"
    },
    {
      "inputs": [
        {
          "internalType": "address",
          "name": "owner",
          "type": "address"
        }
      ],
      "name": "balanceOf",
      "outputs": [
        {
          "internalType": "uint256",
          "name": "",
          "type": "uint256"
        }
      ],
      "stateMutability": "view",
      "type": "function"
    },
    {
      "inputs": [
        {
          "internalType": "uint256",
          "name": "tokenId",
          "type": "uint256"
        },
        {
          "internalType": "string",
          "name": "newName",
          "type": "string"
        }
      ],
      "name": "changeIpcName",
      "outputs": [],
      "stateMutability": "payable",
      "type": "function"
    },
    {
      "inputs": [],
      "name": "contractURI",
      "outputs": [
        {
          "internalType": "string",
          "name": "",
          "type": "string"
        }
      ],
      "stateMutability": "view",
      "type": "function"
    },
    {
      "inputs": [
        {
          "internalType": "uint256",
          "name": "startIndex",
          "type": "uint256"
        },
        {
          "internalType": "uint256",
          "name": "total",
          "type": "uint256"
        }
      ],
      "name": "getAllTokens",
      "outputs": [
        {
          "components": [
            {
              "internalType": "uint256",
              "name": "tokenId",
              "type": "uint256"
            },
            {
              "internalType": "string",
              "name": "name",
              "type": "string"
            },
            {
              "internalType": "bytes32",
              "name": "attributeSeed",
              "type": "bytes32"
            },
            {
              "internalType": "bytes32",
              "name": "dna",
              "type": "bytes32"
            },
            {
              "internalType": "uint128",
              "name": "experience",
              "type": "uint128"
            },
            {
              "internalType": "uint128",
              "name": "timeOfBirth",
              "type": "uint128"
            },
            {
              "internalType": "address",
              "name": "owner",
              "type": "address"
            }
          ],
          "internalType": "struct IPCV0Wrapper.t_raw_ipc[]",
          "name": "",
          "type": "tuple[]"
        }
      ],
      "stateMutability": "view",
      "type": "function"
    },
    {
      "inputs": [
        {
          "internalType": "uint256",
          "name": "tokenId",
          "type": "uint256"
        }
      ],
      "name": "getApproved",
      "outputs": [
        {
          "internalType": "address",
          "name": "",
          "type": "address"
        }
      ],
      "stateMutability": "view",
      "type": "function"
    },
    {
      "inputs": [
        {
          "internalType": "uint256",
          "name": "tokenId",
          "type": "uint256"
        }
      ],
      "name": "getIpc",
      "outputs": [
        {
          "components": [
            {
              "internalType": "uint256",
              "name": "tokenId",
              "type": "uint256"
            },
            {
              "internalType": "string",
              "name": "name",
              "type": "string"
            },
            {
              "internalType": "bytes32",
              "name": "attributeSeed",
              "type": "bytes32"
            },
            {
              "internalType": "bytes32",
              "name": "dna",
              "type": "bytes32"
            },
            {
              "internalType": "uint128",
              "name": "experience",
              "type": "uint128"
            },
            {
              "internalType": "uint128",
              "name": "timeOfBirth",
              "type": "uint128"
            },
            {
              "internalType": "address",
              "name": "owner",
              "type": "address"
            }
          ],
          "internalType": "struct IPCV0Wrapper.t_raw_ipc",
          "name": "",
          "type": "tuple"
        }
      ],
      "stateMutability": "view",
      "type": "function"
    },
    {
      "inputs": [],
      "name": "getProperties",
      "outputs": [
        {
          "components": [
            {
              "internalType": "address",
              "name": "contractAdress",
              "type": "address"
            },
            {
              "internalType": "string",
              "name": "tokenURI",
              "type": "string"
            },
            {
              "internalType": "string",
              "name": "contractURI",
              "type": "string"
            },
            {
              "internalType": "uint256",
              "name": "maxPrice",
              "type": "uint256"
            },
            {
              "internalType": "uint256",
              "name": "tokenLimit",
              "type": "uint256"
            }
          ],
          "internalType": "struct IPCV0Wrapper.t_properties",
          "name": "",
          "type": "tuple"
        }
      ],
      "stateMutability": "view",
      "type": "function"
    },
    {
      "inputs": [
        {
          "internalType": "uint256",
          "name": "tokenId",
          "type": "uint256"
        }
      ],
      "name": "getTokenIndex",
      "outputs": [
        {
          "internalType": "uint256",
          "name": "",
          "type": "uint256"
        }
      ],
      "stateMutability": "view",
      "type": "function"
    },
    {
      "inputs": [
        {
          "internalType": "uint256",
          "name": "tokenId",
          "type": "uint256"
        }
      ],
      "name": "getTokenOwnership",
      "outputs": [
        {
          "internalType": "address",
          "name": "",
          "type": "address"
        }
      ],
      "stateMutability": "view",
      "type": "function"
    },
    {
      "inputs": [
        {
          "internalType": "address",
          "name": "owner",
          "type": "address"
        },
        {
          "internalType": "uint256",
          "name": "startIndex",
          "type": "uint256"
        },
        {
          "internalType": "uint256",
          "name": "total",
          "type": "uint256"
        }
      ],
      "name": "getTokensOfOwner",
      "outputs": [
        {
          "components": [
            {
              "internalType": "uint256",
              "name": "tokenId",
              "type": "uint256"
            },
            {
              "internalType": "string",
              "name": "name",
              "type": "string"
            },
            {
              "internalType": "bytes32",
              "name": "attributeSeed",
              "type": "bytes32"
            },
            {
              "internalType": "bytes32",
              "name": "dna",
              "type": "bytes32"
            },
            {
              "internalType": "uint128",
              "name": "experience",
              "type": "uint128"
            },
            {
              "internalType": "uint128",
              "name": "timeOfBirth",
              "type": "uint128"
            },
            {
              "internalType": "address",
              "name": "owner",
              "type": "address"
            }
          ],
          "internalType": "struct IPCV0Wrapper.t_raw_ipc[]",
          "name": "",
          "type": "tuple[]"
        }
      ],
      "stateMutability": "view",
      "type": "function"
    },
    {
      "inputs": [
        {
          "internalType": "address",
          "name": "owner",
          "type": "address"
        },
        {
          "internalType": "address",
          "name": "operator",
          "type": "address"
        }
      ],
      "name": "isApprovedForAll",
      "outputs": [
        {
          "internalType": "bool",
          "name": "",
          "type": "bool"
        }
      ],
      "stateMutability": "view",
      "type": "function"
    },
    {
      "inputs": [],
      "name": "name",
      "outputs": [
        {
          "internalType": "string",
          "name": "",
          "type": "string"
        }
      ],
      "stateMutability": "view",
      "type": "function"
    },
    {
      "inputs": [
        {
          "internalType": "address",
          "name": "",
          "type": "address"
        },
        {
          "internalType": "address",
          "name": "",
          "type": "address"
        },
        {
          "internalType": "uint256",
          "name": "",
          "type": "uint256"
        },
        {
          "internalType": "bytes",
          "name": "",
          "type": "bytes"
        }
      ],
      "name": "onERC721Received",
      "outputs": [
        {
          "internalType": "bytes4",
          "name": "",
          "type": "bytes4"
        }
      ],
      "stateMutability": "pure",
      "type": "function"
    },
    {
      "inputs": [
        {
          "internalType": "address",
          "name": "",
          "type": "address"
        },
        {
          "internalType": "uint256",
          "name": "",
          "type": "uint256"
        },
        {
          "internalType": "bytes",
          "name": "",
          "type": "bytes"
        }
      ],
      "name": "onERC721Received",
      "outputs": [
        {
          "internalType": "bytes4",
          "name": "",
          "type": "bytes4"
        }
      ],
      "stateMutability": "pure",
      "type": "function"
    },
    {
      "inputs": [],
      "name": "owner",
      "outputs": [
        {
          "internalType": "address",
          "name": "",
          "type": "address"
        }
      ],
      "stateMutability": "view",
      "type": "function"
    },
    {
      "inputs": [
        {
          "internalType": "uint256",
          "name": "tokenId",
          "type": "uint256"
        }
      ],
      "name": "ownerOf",
      "outputs": [
        {
          "internalType": "address",
          "name": "",
          "type": "address"
        }
      ],
      "stateMutability": "view",
      "type": "function"
    },
    {
      "inputs": [],
      "name": "renounceOwnership",
      "outputs": [],
      "stateMutability": "nonpayable",
      "type": "function"
    },
    {
      "inputs": [
        {
          "internalType": "address",
          "name": "from",
          "type": "address"
        },
        {
          "internalType": "address",
          "name": "to",
          "type": "address"
        },
        {
          "internalType": "uint256",
          "name": "tokenId",
          "type": "uint256"
        }
      ],
      "name": "safeTransferFrom",
      "outputs": [],
      "stateMutability": "nonpayable",
      "type": "function"
    },
    {
      "inputs": [
        {
          "internalType": "address",
          "name": "from",
          "type": "address"
        },
        {
          "internalType": "address",
          "name": "to",
          "type": "address"
        },
        {
          "internalType": "uint256",
          "name": "tokenId",
          "type": "uint256"
        },
        {
          "internalType": "bytes",
          "name": "_data",
          "type": "bytes"
        }
      ],
      "name": "safeTransferFrom",
      "outputs": [],
      "stateMutability": "nonpayable",
      "type": "function"
    },
    {
      "inputs": [
        {
          "internalType": "address",
          "name": "operator",
          "type": "address"
        },
        {
          "internalType": "bool",
          "name": "approved",
          "type": "bool"
        }
      ],
      "name": "setApprovalForAll",
      "outputs": [],
      "stateMutability": "nonpayable",
      "type": "function"
    },
    {
      "inputs": [
        {
          "internalType": "address",
          "name": "_contractAddress",
          "type": "address"
        }
      ],
      "name": "setContractAddress",
      "outputs": [],
      "stateMutability": "nonpayable",
      "type": "function"
    },
    {
      "inputs": [
        {
          "internalType": "uint256",
          "name": "_maxPrice",
          "type": "uint256"
        },
        {
          "internalType": "uint256",
          "name": "_tokenLimit",
          "type": "uint256"
        },
        {
          "internalType": "string",
          "name": "__tokenURI",
          "type": "string"
        },
        {
          "internalType": "string",
          "name": "__contractURI",
          "type": "string"
        }
      ],
      "name": "setProperties",
      "outputs": [],
      "stateMutability": "nonpayable",
      "type": "function"
    },
    {
      "inputs": [
        {
          "internalType": "bytes4",
          "name": "interfaceId",
          "type": "bytes4"
        }
      ],
      "name": "supportsInterface",
      "outputs": [
        {
          "internalType": "bool",
          "name": "",
          "type": "bool"
        }
      ],
      "stateMutability": "view",
      "type": "function"
    },
    {
      "inputs": [],
      "name": "symbol",
      "outputs": [
        {
          "internalType": "string",
          "name": "",
          "type": "string"
        }
      ],
      "stateMutability": "view",
      "type": "function"
    },
    {
      "inputs": [
        {
          "internalType": "uint256",
          "name": "tokenId",
          "type": "uint256"
        }
      ],
      "name": "tokenURI",
      "outputs": [
        {
          "internalType": "string",
          "name": "",
          "type": "string"
        }
      ],
      "stateMutability": "view",
      "type": "function"
    },
    {
      "inputs": [],
      "name": "totalSupply",
      "outputs": [
        {
          "internalType": "uint256",
          "name": "",
          "type": "uint256"
        }
      ],
      "stateMutability": "view",
      "type": "function"
    },
    {
      "inputs": [
        {
          "internalType": "address",
          "name": "from",
          "type": "address"
        },
        {
          "internalType": "address",
          "name": "to",
          "type": "address"
        },
        {
          "internalType": "uint256",
          "name": "tokenId",
          "type": "uint256"
        }
      ],
      "name": "transferFrom",
      "outputs": [],
      "stateMutability": "nonpayable",
      "type": "function"
    },
    {
      "inputs": [
        {
          "internalType": "address",
          "name": "newOwner",
          "type": "address"
        }
      ],
      "name": "transferOwnership",
      "outputs": [],
      "stateMutability": "nonpayable",
      "type": "function"
    },
    {
      "inputs": [
        {
          "internalType": "uint256",
          "name": "tokenId",
          "type": "uint256"
        }
      ],
      "name": "unwrap",
      "outputs": [],
      "stateMutability": "nonpayable",
      "type": "function"
    },
    {
      "inputs": [
        {
          "internalType": "uint256",
          "name": "tokenId",
          "type": "uint256"
        }
      ],
      "name": "wrap",
      "outputs": [],
      "stateMutability": "nonpayable",
      "type": "function"
    }
  ],
  "bytecode": "0x60806040523480156200001157600080fd5b506040518060400160405280601d81526020017f496d6d6f7274616c20506c6179657220436861726163746572732076300000008152506040518060400160405280600581526020017f49504356300000000000000000000000000000000000000000000000000000008152506200009e62000092620001a760201b60201c565b620001af60201b60201c565b8160039080519060200190620000b69291906200027c565b508060049080519060200190620000cf9291906200027c565b50620000e06200027360201b60201c565b6001819055505050736a62dafa4560357b35a3c70fc81868ce7da3a062600960006101000a81548173ffffffffffffffffffffffffffffffffffffffff021916908373ffffffffffffffffffffffffffffffffffffffff16021790555060405180602001604052806000815250600a9080519060200190620001649291906200027c565b5060405180602001604052806000815250600b90805190602001906200018c9291906200027c565b506305f5e100600c819055506103e8600d8190555062000391565b600033905090565b60008060009054906101000a900473ffffffffffffffffffffffffffffffffffffffff169050816000806101000a81548173ffffffffffffffffffffffffffffffffffffffff021916908373ffffffffffffffffffffffffffffffffffffffff1602179055508173ffffffffffffffffffffffffffffffffffffffff168173ffffffffffffffffffffffffffffffffffffffff167f8be0079c531659141344cd1fd0a4f28419497f9722a3daafe3b4186f6b6457e060405160405180910390a35050565b60006001905090565b8280546200028a906200035b565b90600052602060002090601f016020900481019282620002ae5760008555620002fa565b82601f10620002c957805160ff1916838001178555620002fa565b82800160010185558215620002fa579182015b82811115620002f9578251825591602001919060010190620002dc565b5b5090506200030991906200030d565b5090565b5b80821115620003285760008160009055506001016200030e565b5090565b7f4e487b7100000000000000000000000000000000000000000000000000000000600052602260045260246000fd5b600060028204905060018216806200037457607f821691505b602082108114156200038b576200038a6200032c565b5b50919050565b61463480620003a16000396000f3fe6080604052600436106101d85760003560e01c806389edc43811610102578063de0e9a3e11610095578063ea598cb011610064578063ea598cb01461070b578063ec0cfd0b14610734578063f0b9e5ba1461075f578063f2fde38b1461079c576101d8565b8063de0e9a3e1461065e578063dfb31a7c14610687578063e8a3d485146106a3578063e985e9c5146106ce576101d8565b8063a22cb465116100d1578063a22cb46514610592578063b88d4fde146105bb578063c87b56dd146105e4578063d850030614610621576101d8565b806389edc438146104c25780638da5cb5b146104ff57806395d89b411461052a5780639a04383214610555576101d8565b806323b872dd1161017a5780636352211e116101495780636352211e146103f457806370a0823114610431578063715018a61461046e5780637fff1e2f14610485576101d8565b806323b872dd1461033c5780633a663c801461036557806342842e0e146103a2578063477bddaa146103cb576101d8565b8063095ea7b3116101b6578063095ea7b314610282578063150b7a02146102ab57806318160ddd146102e857806320f95f6214610313576101d8565b806301ffc9a7146101dd57806306fdde031461021a578063081812fc14610245575b600080fd5b3480156101e957600080fd5b5061020460048036038101906101ff91906131bf565b6107c5565b6040516102119190613207565b60405180910390f35b34801561022657600080fd5b5061022f610857565b60405161023c91906132bb565b60405180910390f35b34801561025157600080fd5b5061026c60048036038101906102679190613313565b6108e9565b6040516102799190613381565b60405180910390f35b34801561028e57600080fd5b506102a960048036038101906102a491906133c8565b610968565b005b3480156102b757600080fd5b506102d260048036038101906102cd919061346d565b610aac565b6040516102df9190613504565b60405180910390f35b3480156102f457600080fd5b506102fd610ac1565b60405161030a919061352e565b60405180910390f35b34801561031f57600080fd5b5061033a6004803603810190610335919061359f565b610b68565b005b34801561034857600080fd5b50610363600480360381019061035e9190613646565b610baa565b005b34801561037157600080fd5b5061038c60048036038101906103879190613313565b610ecf565b604051610399919061352e565b60405180910390f35b3480156103ae57600080fd5b506103c960048036038101906103c49190613646565b610eec565b005b3480156103d757600080fd5b506103f260048036038101906103ed9190613699565b610f0c565b005b34801561040057600080fd5b5061041b60048036038101906104169190613313565b610f58565b6040516104289190613381565b60405180910390f35b34801561043d57600080fd5b5061045860048036038101906104539190613699565b611073565b604051610465919061352e565b60405180910390f35b34801561047a57600080fd5b5061048361112c565b005b34801561049157600080fd5b506104ac60048036038101906104a79190613313565b611140565b6040516104b9919061380e565b60405180910390f35b3480156104ce57600080fd5b506104e960048036038101906104e49190613830565b611339565b6040516104f691906139e1565b60405180910390f35b34801561050b57600080fd5b506105146115ad565b6040516105219190613381565b60405180910390f35b34801561053657600080fd5b5061053f6115d6565b60405161054c91906132bb565b60405180910390f35b34801561056157600080fd5b5061057c60048036038101906105779190613a03565b611668565b60405161058991906139e1565b60405180910390f35b34801561059e57600080fd5b506105b960048036038101906105b49190613a6f565b61178f565b005b3480156105c757600080fd5b506105e260048036038101906105dd9190613bdf565b611907565b005b3480156105f057600080fd5b5061060b60048036038101906106069190613313565b61197a565b60405161061891906132bb565b60405180910390f35b34801561062d57600080fd5b5061064860048036038101906106439190613313565b611a21565b6040516106559190613381565b60405180910390f35b34801561066a57600080fd5b5061068560048036038101906106809190613313565b611ad5565b005b6106a1600480360381019061069c9190613c62565b611e65565b005b3480156106af57600080fd5b506106b8611efc565b6040516106c591906132bb565b60405180910390f35b3480156106da57600080fd5b506106f560048036038101906106f09190613cc2565b611f8e565b6040516107029190613207565b60405180910390f35b34801561071757600080fd5b50610732600480360381019061072d9190613313565b612022565b005b34801561074057600080fd5b50610749612318565b6040516107569190613d7f565b60405180910390f35b34801561076b57600080fd5b5061078660048036038101906107819190613da1565b6124aa565b6040516107939190613504565b60405180910390f35b3480156107a857600080fd5b506107c360048036038101906107be9190613699565b6124d7565b005b60006301ffc9a760e01b827bffffffffffffffffffffffffffffffffffffffffffffffffffffffff1916148061082057506380ac58cd60e01b827bffffffffffffffffffffffffffffffffffffffffffffffffffffffff1916145b806108505750635b5e139f60e01b827bffffffffffffffffffffffffffffffffffffffffffffffffffffffff1916145b9050919050565b60606003805461086690613e44565b80601f016020809104026020016040519081016040528092919081815260200182805461089290613e44565b80156108df5780601f106108b4576101008083540402835291602001916108df565b820191906000526020600020905b8154815290600101906020018083116108c257829003601f168201915b5050505050905090565b60006108f48261255b565b61092a576040517fcf4700e400000000000000000000000000000000000000000000000000000000815260040160405180910390fd5b6007600083815260200190815260200160002060000160009054906101000a900473ffffffffffffffffffffffffffffffffffffffff169050919050565b600061097382610f58565b90508073ffffffffffffffffffffffffffffffffffffffff166109946125ba565b73ffffffffffffffffffffffffffffffffffffffff16146109f7576109c0816109bb6125ba565b611f8e565b6109f6576040517fcfb3b94200000000000000000000000000000000000000000000000000000000815260040160405180910390fd5b5b826007600084815260200190815260200160002060000160006101000a81548173ffffffffffffffffffffffffffffffffffffffff021916908373ffffffffffffffffffffffffffffffffffffffff160217905550818373ffffffffffffffffffffffffffffffffffffffff168273ffffffffffffffffffffffffffffffffffffffff167f8c5be1e5ebec7d5bd14f71427d1e84f3dd0314c0f7b2291e5b200ac8c7c3b92560405160405180910390a4505050565b600063150b7a0260e01b905095945050505050565b6000600960009054906101000a900473ffffffffffffffffffffffffffffffffffffffff1673ffffffffffffffffffffffffffffffffffffffff166318160ddd6040518163ffffffff1660e01b815260040160206040518083038186803b158015610b2b57600080fd5b505afa158015610b3f573d6000803e3d6000fd5b505050506040513d601f19601f82011682018060405250810190610b639190613e8b565b905090565b610b706125c2565b85600c8190555084600d819055508383600a9190610b8f929190612fee565b508181600b9190610ba1929190612fee565b50505050505050565b6000610bb582612640565b90508373ffffffffffffffffffffffffffffffffffffffff168173ffffffffffffffffffffffffffffffffffffffff1614610c1c576040517fa114810000000000000000000000000000000000000000000000000000000000815260040160405180910390fd5b600080610c288461270e565b91509150610c3e8187610c396125ba565b612735565b610c8a57610c5386610c4e6125ba565b611f8e565b610c89576040517f59c896be00000000000000000000000000000000000000000000000000000000815260040160405180910390fd5b5b600073ffffffffffffffffffffffffffffffffffffffff168573ffffffffffffffffffffffffffffffffffffffff161415610cf1576040517fea553b3400000000000000000000000000000000000000000000000000000000815260040160405180910390fd5b610cfe8686866001612779565b8015610d0957600082555b600660008773ffffffffffffffffffffffffffffffffffffffff1673ffffffffffffffffffffffffffffffffffffffff168152602001908152602001600020600081546001900391905081905550600660008673ffffffffffffffffffffffffffffffffffffffff1673ffffffffffffffffffffffffffffffffffffffff1681526020019081526020016000206000815460010191905081905550610dd785610db388888761277f565b7c0200000000000000000000000000000000000000000000000000000000176127a7565b600560008681526020019081526020016000208190555060007c020000000000000000000000000000000000000000000000000000000084161415610e5f576000600185019050600060056000838152602001908152602001600020541415610e5d576001548114610e5c578360056000838152602001908152602001600020819055505b5b505b838573ffffffffffffffffffffffffffffffffffffffff168773ffffffffffffffffffffffffffffffffffffffff167fddf252ad1be2c89b69c2b068fc378daa952ba7f163c4a11628f55a4df523b3ef60405160405180910390a4610ec786868660016127d2565b505050505050565b6000600f6000838152602001908152602001600020549050919050565b610f0783838360405180602001604052806000815250611907565b505050565b610f146125c2565b80600960006101000a81548173ffffffffffffffffffffffffffffffffffffffff021916908373ffffffffffffffffffffffffffffffffffffffff16021790555050565b600080600f6000848152602001908152602001600020549050600081141561102d57600960009054906101000a900473ffffffffffffffffffffffffffffffffffffffff1673ffffffffffffffffffffffffffffffffffffffff16636352211e846040518263ffffffff1660e01b8152600401610fd5919061352e565b60206040518083038186803b158015610fed57600080fd5b505afa158015611001573d6000803e3d6000fd5b505050506040513d601f19601f820116820180604052508101906110259190613ecd565b91505061106e565b6000600e600083815260200190815260200160002060010160009054906101000a900473ffffffffffffffffffffffffffffffffffffffff16905080925050505b919050565b60008073ffffffffffffffffffffffffffffffffffffffff168273ffffffffffffffffffffffffffffffffffffffff1614156110db576040517f8f4eb60400000000000000000000000000000000000000000000000000000000815260040160405180910390fd5b67ffffffffffffffff600660008473ffffffffffffffffffffffffffffffffffffffff1673ffffffffffffffffffffffffffffffffffffffff16815260200190815260200160002054169050919050565b6111346125c2565b61113e60006127d8565b565b611148613074565b6000806000806000600960009054906101000a900473ffffffffffffffffffffffffffffffffffffffff1673ffffffffffffffffffffffffffffffffffffffff16637fff1e2f886040518263ffffffff1660e01b81526004016111ab919061352e565b60006040518083038186803b1580156111c357600080fd5b505afa1580156111d7573d6000803e3d6000fd5b505050506040513d6000823e3d601f19601f820116820180604052508101906112009190613ff3565b945094509450945094506000600960009054906101000a900473ffffffffffffffffffffffffffffffffffffffff1673ffffffffffffffffffffffffffffffffffffffff16636352211e896040518263ffffffff1660e01b8152600401611267919061352e565b60206040518083038186803b15801561127f57600080fd5b505afa158015611293573d6000803e3d6000fd5b505050506040513d601f19601f820116820180604052508101906112b79190613ecd565b905060006040518060e001604052808a8152602001888152602001878152602001868152602001856fffffffffffffffffffffffffffffffff168152602001846fffffffffffffffffffffffffffffffff1681526020018373ffffffffffffffffffffffffffffffffffffffff16815250905080975050505050505050919050565b60606000600960009054906101000a900473ffffffffffffffffffffffffffffffffffffffff1673ffffffffffffffffffffffffffffffffffffffff16638462151c866040518263ffffffff1660e01b81526004016113989190613381565b60006040518083038186803b1580156113b057600080fd5b505afa1580156113c4573d6000803e3d6000fd5b505050506040513d6000823e3d601f19601f820116820180604052508101906113ed919061414d565b9050600081519050600085148061140357508085115b1561140d57600194505b60008414806114265750848161142391906141c5565b84115b1561143a57848161143791906141c5565b93505b600060018561144991906141f9565b67ffffffffffffffff81111561146257611461613ab4565b5b60405190808252806020026020018201604052801561149b57816020015b611488613074565b8152602001906001900390816114805790505b50905060008214156114b2578093505050506115a6565b6000806114bd613074565b600092505b8783101561152f5785838a6114d791906141f9565b815181106114e8576114e761424f565b5b602002602001015191506114fb82611140565b9050808484815181106115115761151061424f565b5b602002602001018190525082806115279061427e565b9350506114c2565b611537610ac1565b915061154282611140565b90508973ffffffffffffffffffffffffffffffffffffffff168160c0015173ffffffffffffffffffffffffffffffffffffffff16141561159c57808484815181106115905761158f61424f565b5b60200260200101819052505b8396505050505050505b9392505050565b60008060009054906101000a900473ffffffffffffffffffffffffffffffffffffffff16905090565b6060600480546115e590613e44565b80601f016020809104026020016040519081016040528092919081815260200182805461161190613e44565b801561165e5780601f106116335761010080835404028352916020019161165e565b820191906000526020600020905b81548152906001019060200180831161164157829003601f168201915b5050505050905090565b60606000611674610ac1565b9050600084148061168457508084115b1561168e57600193505b60008314806116a7575083816116a491906141c5565b83115b156116bb5783816116b891906141c5565b92505b60008367ffffffffffffffff8111156116d7576116d6613ab4565b5b60405190808252806020026020018201604052801561171057816020015b6116fd613074565b8152602001906001900390816116f55790505b5090506000821415611726578092505050611789565b60005b84811015611782576000818761173f91906141f9565b9050600061174c82611140565b9050808484815181106117625761176161424f565b5b60200260200101819052505050808061177a9061427e565b915050611729565b8193505050505b92915050565b6117976125ba565b73ffffffffffffffffffffffffffffffffffffffff168273ffffffffffffffffffffffffffffffffffffffff1614156117fc576040517fb06307db00000000000000000000000000000000000000000000000000000000815260040160405180910390fd5b80600860006118096125ba565b73ffffffffffffffffffffffffffffffffffffffff1673ffffffffffffffffffffffffffffffffffffffff16815260200190815260200160002060008473ffffffffffffffffffffffffffffffffffffffff1673ffffffffffffffffffffffffffffffffffffffff16815260200190815260200160002060006101000a81548160ff0219169083151502179055508173ffffffffffffffffffffffffffffffffffffffff166118b66125ba565b73ffffffffffffffffffffffffffffffffffffffff167f17307eab39ab6107e8899845ad3d59bd9653f200f220920489ca2b5937696c31836040516118fb9190613207565b60405180910390a35050565b611912848484610baa565b60008373ffffffffffffffffffffffffffffffffffffffff163b146119745761193d8484848461289c565b611973576040517fd1a57ed600000000000000000000000000000000000000000000000000000000815260040160405180910390fd5b5b50505050565b6060600d5482118061198c5750600082145b156119c3576040517fa14c4b5000000000000000000000000000000000000000000000000000000000815260040160405180910390fd5b60006119cd6129fc565b90506000815114156119ee5760405180602001604052806000815250611a19565b806119f884612a8e565b604051602001611a09929190614303565b6040516020818303038152906040525b915050919050565b6000600960009054906101000a900473ffffffffffffffffffffffffffffffffffffffff1673ffffffffffffffffffffffffffffffffffffffff16636352211e836040518263ffffffff1660e01b8152600401611a7e919061352e565b60206040518083038186803b158015611a9657600080fd5b505afa158015611aaa573d6000803e3d6000fd5b505050506040513d601f19601f82011682018060405250810190611ace9190613ecd565b9050919050565b6000600f60008381526020019081526020016000205490506000811415611b28576040517feb7d192800000000000000000000000000000000000000000000000000000000815260040160405180910390fd5b60003390508073ffffffffffffffffffffffffffffffffffffffff16600e600084815260200190815260200160002060010160009054906101000a900473ffffffffffffffffffffffffffffffffffffffff1673ffffffffffffffffffffffffffffffffffffffff1614611bc8576040517ff637a3e300000000000000000000000000000000000000000000000000000000815260040160405180910390fd5b600f600084815260200190815260200160002060009055600e60008381526020019081526020016000206000808201600090556001820160006101000a81549073ffffffffffffffffffffffffffffffffffffffff0219169055505060005b601060008373ffffffffffffffffffffffffffffffffffffffff1673ffffffffffffffffffffffffffffffffffffffff16815260200190815260200160002080549050811015611d475783601060008473ffffffffffffffffffffffffffffffffffffffff1673ffffffffffffffffffffffffffffffffffffffff1681526020019081526020016000208281548110611cc357611cc261424f565b5b90600052602060002001541415611d3457601060008373ffffffffffffffffffffffffffffffffffffffff1673ffffffffffffffffffffffffffffffffffffffff1681526020019081526020016000208181548110611d2557611d2461424f565b5b90600052602060002001600090555b8080611d3f9061427e565b915050611c27565b506000611d5384610f58565b9050611d5e83612ade565b3073ffffffffffffffffffffffffffffffffffffffff168173ffffffffffffffffffffffffffffffffffffffff161415611e2457600960009054906101000a900473ffffffffffffffffffffffffffffffffffffffff1673ffffffffffffffffffffffffffffffffffffffff166342842e0e3084876040518463ffffffff1660e01b8152600401611df193929190614327565b600060405180830381600087803b158015611e0b57600080fd5b505af1158015611e1f573d6000803e3d6000fd5b505050505b7f175e3dad2e6c10f120d3216de54ebe7abeee5b7f33c8941af43e73a0315e4a80838584604051611e579392919061435e565b60405180910390a150505050565b600960009054906101000a900473ffffffffffffffffffffffffffffffffffffffff1673ffffffffffffffffffffffffffffffffffffffff1663dfb31a7c348585856040518563ffffffff1660e01b8152600401611ec5939291906143c2565b6000604051808303818588803b158015611ede57600080fd5b505af1158015611ef2573d6000803e3d6000fd5b5050505050505050565b6060600b8054611f0b90613e44565b80601f0160208091040260200160405190810160405280929190818152602001828054611f3790613e44565b8015611f845780601f10611f5957610100808354040283529160200191611f84565b820191906000526020600020905b815481529060010190602001808311611f6757829003601f168201915b5050505050905090565b6000600860008473ffffffffffffffffffffffffffffffffffffffff1673ffffffffffffffffffffffffffffffffffffffff16815260200190815260200160002060008373ffffffffffffffffffffffffffffffffffffffff1673ffffffffffffffffffffffffffffffffffffffff16815260200190815260200160002060009054906101000a900460ff16905092915050565b6000600f6000838152602001908152602001600020549050600d548211801561204b5750600081145b15612082576040517f53bb24f900000000000000000000000000000000000000000000000000000000815260040160405180910390fd5b6000339050600960009054906101000a900473ffffffffffffffffffffffffffffffffffffffff1673ffffffffffffffffffffffffffffffffffffffff166342842e0e8230866040518463ffffffff1660e01b81526004016120e693929190614327565b600060405180830381600087803b15801561210057600080fd5b505af1158015612114573d6000803e3d6000fd5b50505050600960009054906101000a900473ffffffffffffffffffffffffffffffffffffffff1673ffffffffffffffffffffffffffffffffffffffff16633d4cfe2184600c546040518363ffffffff1660e01b81526004016121779291906143f4565b600060405180830381600087803b15801561219157600080fd5b505af11580156121a5573d6000803e3d6000fd5b5050505060008214156121bd576121ba612aec565b91505b60405180604001604052808481526020018273ffffffffffffffffffffffffffffffffffffffff16815250600e60008481526020019081526020016000206000820151816000015560208201518160010160006101000a81548173ffffffffffffffffffffffffffffffffffffffff021916908373ffffffffffffffffffffffffffffffffffffffff16021790555090505081600f600085815260200190815260200160002081905550601060008273ffffffffffffffffffffffffffffffffffffffff1673ffffffffffffffffffffffffffffffffffffffff1681526020019081526020016000208290806001815401808255809150506001900390600052602060002001600090919091909150556122d8816001612af6565b7ff90572efd1ab4fb9c6b9dabfd24d103ce15482a9ec0c50e0e32618708783b15b82848360405161230b9392919061435e565b60405180910390a1505050565b6123206130f1565b6123286125c2565b60006040518060a00160405280600960009054906101000a900473ffffffffffffffffffffffffffffffffffffffff1673ffffffffffffffffffffffffffffffffffffffff168152602001600a805461238090613e44565b80601f01602080910402602001604051908101604052809291908181526020018280546123ac90613e44565b80156123f95780601f106123ce576101008083540402835291602001916123f9565b820191906000526020600020905b8154815290600101906020018083116123dc57829003601f168201915b50505050508152602001600b805461241090613e44565b80601f016020809104026020016040519081016040528092919081815260200182805461243c90613e44565b80156124895780601f1061245e57610100808354040283529160200191612489565b820191906000526020600020905b81548152906001019060200180831161246c57829003601f168201915b50505050508152602001600c548152602001600d5481525090508091505090565b60007ff0b9e5baf647f945565b0ac04522b519449041bdd44f952626b9ead9ff3692419050949350505050565b6124df6125c2565b600073ffffffffffffffffffffffffffffffffffffffff168173ffffffffffffffffffffffffffffffffffffffff16141561254f576040517f08c379a00000000000000000000000000000000000000000000000000000000081526004016125469061448f565b60405180910390fd5b612558816127d8565b50565b600081612566612b14565b11158015612575575060015482105b80156125b3575060007c0100000000000000000000000000000000000000000000000000000000600560008581526020019081526020016000205416145b9050919050565b600033905090565b6125ca612b1d565b73ffffffffffffffffffffffffffffffffffffffff166125e86115ad565b73ffffffffffffffffffffffffffffffffffffffff161461263e576040517f08c379a0000000000000000000000000000000000000000000000000000000008152600401612635906144fb565b60405180910390fd5b565b6000808290508061264f612b14565b116126d7576001548110156126d65760006005600083815260200190815260200160002054905060007c0100000000000000000000000000000000000000000000000000000000821614156126d4575b60008114156126ca57600560008360019003935083815260200190815260200160002054905061269f565b8092505050612709565b505b5b6040517fdf2d9b4200000000000000000000000000000000000000000000000000000000815260040160405180910390fd5b919050565b60008060006007600085815260200190815260200160002090508092508254915050915091565b600073ffffffffffffffffffffffffffffffffffffffff8316925073ffffffffffffffffffffffffffffffffffffffff821691508382148383141790509392505050565b50505050565b60008060e883901c905060e8612796868684612b25565b62ffffff16901b9150509392505050565b600073ffffffffffffffffffffffffffffffffffffffff83169250814260a01b178317905092915050565b50505050565b60008060009054906101000a900473ffffffffffffffffffffffffffffffffffffffff169050816000806101000a81548173ffffffffffffffffffffffffffffffffffffffff021916908373ffffffffffffffffffffffffffffffffffffffff1602179055508173ffffffffffffffffffffffffffffffffffffffff168173ffffffffffffffffffffffffffffffffffffffff167f8be0079c531659141344cd1fd0a4f28419497f9722a3daafe3b4186f6b6457e060405160405180910390a35050565b60008373ffffffffffffffffffffffffffffffffffffffff1663150b7a026128c26125ba565b8786866040518563ffffffff1660e01b81526004016128e49493929190614570565b602060405180830381600087803b1580156128fe57600080fd5b505af192505050801561292f57506040513d601f19601f8201168201806040525081019061292c91906145d1565b60015b6129a9573d806000811461295f576040519150601f19603f3d011682016040523d82523d6000602084013e612964565b606091505b506000815114156129a1576040517fd1a57ed600000000000000000000000000000000000000000000000000000000815260040160405180910390fd5b805181602001fd5b63150b7a0260e01b7bffffffffffffffffffffffffffffffffffffffffffffffffffffffff1916817bffffffffffffffffffffffffffffffffffffffffffffffffffffffff191614915050949350505050565b6060600a8054612a0b90613e44565b80601f0160208091040260200160405190810160405280929190818152602001828054612a3790613e44565b8015612a845780601f10612a5957610100808354040283529160200191612a84565b820191906000526020600020905b815481529060010190602001808311612a6757829003601f168201915b5050505050905090565b606060806040510190508060405280825b600115612aca57600183039250600a81066030018353600a8104905080612ac557612aca565b612a9f565b508181036020830392508083525050919050565b612ae9816000612b2e565b50565b6000600154905090565b612b10828260405180602001604052806000815250612d82565b5050565b60006001905090565b600033905090565b60009392505050565b6000612b3983612640565b90506000819050600080612b4c8661270e565b915091508415612bb557612b688184612b636125ba565b612735565b612bb457612b7d83612b786125ba565b611f8e565b612bb3576040517f59c896be00000000000000000000000000000000000000000000000000000000815260040160405180910390fd5b5b5b612bc3836000886001612779565b8015612bce57600082555b600160806001901b03600660008573ffffffffffffffffffffffffffffffffffffffff1673ffffffffffffffffffffffffffffffffffffffff16815260200190815260200160002060008282540192505081905550612c7683612c338560008861277f565b7c02000000000000000000000000000000000000000000000000000000007c010000000000000000000000000000000000000000000000000000000017176127a7565b600560008881526020019081526020016000208190555060007c020000000000000000000000000000000000000000000000000000000085161415612cfe576000600187019050600060056000838152602001908152602001600020541415612cfc576001548114612cfb578460056000838152602001908152602001600020819055505b5b505b85600073ffffffffffffffffffffffffffffffffffffffff168473ffffffffffffffffffffffffffffffffffffffff167fddf252ad1be2c89b69c2b068fc378daa952ba7f163c4a11628f55a4df523b3ef60405160405180910390a4612d688360008860016127d2565b600260008154809291906001019190505550505050505050565b612d8c8383612e20565b60008373ffffffffffffffffffffffffffffffffffffffff163b14612e1b5760006001549050600083820390505b612dcd600086838060010194508661289c565b612e03576040517fd1a57ed600000000000000000000000000000000000000000000000000000000815260040160405180910390fd5b818110612dba578160015414612e1857600080fd5b50505b505050565b600060015490506000821415612e62576040517fb562e8dd00000000000000000000000000000000000000000000000000000000815260040160405180910390fd5b612e6f6000848385612779565b600160406001901b178202600660008573ffffffffffffffffffffffffffffffffffffffff1673ffffffffffffffffffffffffffffffffffffffff16815260200190815260200160002060008282540192505081905550612ee683612ed7600086600061277f565b612ee085612fde565b176127a7565b6005600083815260200190815260200160002081905550600080838301905073ffffffffffffffffffffffffffffffffffffffff85169150828260007fddf252ad1be2c89b69c2b068fc378daa952ba7f163c4a11628f55a4df523b3ef600080a4600183015b818114612f8757808360007fddf252ad1be2c89b69c2b068fc378daa952ba7f163c4a11628f55a4df523b3ef600080a4600181019050612f4c565b506000821415612fc3576040517f2e07630000000000000000000000000000000000000000000000000000000000815260040160405180910390fd5b806001819055505050612fd960008483856127d2565b505050565b60006001821460e11b9050919050565b828054612ffa90613e44565b90600052602060002090601f01602090048101928261301c5760008555613063565b82601f1061303557803560ff1916838001178555613063565b82800160010185558215613063579182015b82811115613062578235825591602001919060010190613047565b5b5090506130709190613136565b5090565b6040518060e001604052806000815260200160608152602001600080191681526020016000801916815260200160006fffffffffffffffffffffffffffffffff16815260200160006fffffffffffffffffffffffffffffffff168152602001600073ffffffffffffffffffffffffffffffffffffffff1681525090565b6040518060a00160405280600073ffffffffffffffffffffffffffffffffffffffff168152602001606081526020016060815260200160008152602001600081525090565b5b8082111561314f576000816000905550600101613137565b5090565b6000604051905090565b600080fd5b600080fd5b60007fffffffff0000000000000000000000000000000000000000000000000000000082169050919050565b61319c81613167565b81146131a757600080fd5b50565b6000813590506131b981613193565b92915050565b6000602082840312156131d5576131d461315d565b5b60006131e3848285016131aa565b91505092915050565b60008115159050919050565b613201816131ec565b82525050565b600060208201905061321c60008301846131f8565b92915050565b600081519050919050565b600082825260208201905092915050565b60005b8381101561325c578082015181840152602081019050613241565b8381111561326b576000848401525b50505050565b6000601f19601f8301169050919050565b600061328d82613222565b613297818561322d565b93506132a781856020860161323e565b6132b081613271565b840191505092915050565b600060208201905081810360008301526132d58184613282565b905092915050565b6000819050919050565b6132f0816132dd565b81146132fb57600080fd5b50565b60008135905061330d816132e7565b92915050565b6000602082840312156133295761332861315d565b5b6000613337848285016132fe565b91505092915050565b600073ffffffffffffffffffffffffffffffffffffffff82169050919050565b600061336b82613340565b9050919050565b61337b81613360565b82525050565b60006020820190506133966000830184613372565b92915050565b6133a581613360565b81146133b057600080fd5b50565b6000813590506133c28161339c565b92915050565b600080604083850312156133df576133de61315d565b5b60006133ed858286016133b3565b92505060206133fe858286016132fe565b9150509250929050565b600080fd5b600080fd5b600080fd5b60008083601f84011261342d5761342c613408565b5b8235905067ffffffffffffffff81111561344a5761344961340d565b5b60208301915083600182028301111561346657613465613412565b5b9250929050565b6000806000806000608086880312156134895761348861315d565b5b6000613497888289016133b3565b95505060206134a8888289016133b3565b94505060406134b9888289016132fe565b935050606086013567ffffffffffffffff8111156134da576134d9613162565b5b6134e688828901613417565b92509250509295509295909350565b6134fe81613167565b82525050565b600060208201905061351960008301846134f5565b92915050565b613528816132dd565b82525050565b6000602082019050613543600083018461351f565b92915050565b60008083601f84011261355f5761355e613408565b5b8235905067ffffffffffffffff81111561357c5761357b61340d565b5b60208301915083600182028301111561359857613597613412565b5b9250929050565b600080600080600080608087890312156135bc576135bb61315d565b5b60006135ca89828a016132fe565b96505060206135db89828a016132fe565b955050604087013567ffffffffffffffff8111156135fc576135fb613162565b5b61360889828a01613549565b9450945050606087013567ffffffffffffffff81111561362b5761362a613162565b5b61363789828a01613549565b92509250509295509295509295565b60008060006060848603121561365f5761365e61315d565b5b600061366d868287016133b3565b935050602061367e868287016133b3565b925050604061368f868287016132fe565b9150509250925092565b6000602082840312156136af576136ae61315d565b5b60006136bd848285016133b3565b91505092915050565b6136cf816132dd565b82525050565b600082825260208201905092915050565b60006136f182613222565b6136fb81856136d5565b935061370b81856020860161323e565b61371481613271565b840191505092915050565b6000819050919050565b6137328161371f565b82525050565b60006fffffffffffffffffffffffffffffffff82169050919050565b61375d81613738565b82525050565b61376c81613360565b82525050565b600060e08301600083015161378a60008601826136c6565b50602083015184820360208601526137a282826136e6565b91505060408301516137b76040860182613729565b5060608301516137ca6060860182613729565b5060808301516137dd6080860182613754565b5060a08301516137f060a0860182613754565b5060c083015161380360c0860182613763565b508091505092915050565b600060208201905081810360008301526138288184613772565b905092915050565b6000806000606084860312156138495761384861315d565b5b6000613857868287016133b3565b9350506020613868868287016132fe565b9250506040613879868287016132fe565b9150509250925092565b600081519050919050565b600082825260208201905092915050565b6000819050602082019050919050565b600060e0830160008301516138c760008601826136c6565b50602083015184820360208601526138df82826136e6565b91505060408301516138f46040860182613729565b5060608301516139076060860182613729565b50608083015161391a6080860182613754565b5060a083015161392d60a0860182613754565b5060c083015161394060c0860182613763565b508091505092915050565b600061395783836138af565b905092915050565b6000602082019050919050565b600061397782613883565b613981818561388e565b9350836020820285016139938561389f565b8060005b858110156139cf57848403895281516139b0858261394b565b94506139bb8361395f565b925060208a01995050600181019050613997565b50829750879550505050505092915050565b600060208201905081810360008301526139fb818461396c565b905092915050565b60008060408385031215613a1a57613a1961315d565b5b6000613a28858286016132fe565b9250506020613a39858286016132fe565b9150509250929050565b613a4c816131ec565b8114613a5757600080fd5b50565b600081359050613a6981613a43565b92915050565b60008060408385031215613a8657613a8561315d565b5b6000613a94858286016133b3565b9250506020613aa585828601613a5a565b9150509250929050565b600080fd5b7f4e487b7100000000000000000000000000000000000000000000000000000000600052604160045260246000fd5b613aec82613271565b810181811067ffffffffffffffff82111715613b0b57613b0a613ab4565b5b80604052505050565b6000613b1e613153565b9050613b2a8282613ae3565b919050565b600067ffffffffffffffff821115613b4a57613b49613ab4565b5b613b5382613271565b9050602081019050919050565b82818337600083830152505050565b6000613b82613b7d84613b2f565b613b14565b905082815260208101848484011115613b9e57613b9d613aaf565b5b613ba9848285613b60565b509392505050565b600082601f830112613bc657613bc5613408565b5b8135613bd6848260208601613b6f565b91505092915050565b60008060008060808587031215613bf957613bf861315d565b5b6000613c07878288016133b3565b9450506020613c18878288016133b3565b9350506040613c29878288016132fe565b925050606085013567ffffffffffffffff811115613c4a57613c49613162565b5b613c5687828801613bb1565b91505092959194509250565b600080600060408486031215613c7b57613c7a61315d565b5b6000613c89868287016132fe565b935050602084013567ffffffffffffffff811115613caa57613ca9613162565b5b613cb686828701613549565b92509250509250925092565b60008060408385031215613cd957613cd861315d565b5b6000613ce7858286016133b3565b9250506020613cf8858286016133b3565b9150509250929050565b600060a083016000830151613d1a6000860182613763565b5060208301518482036020860152613d3282826136e6565b91505060408301518482036040860152613d4c82826136e6565b9150506060830151613d6160608601826136c6565b506080830151613d7460808601826136c6565b508091505092915050565b60006020820190508181036000830152613d998184613d02565b905092915050565b60008060008060608587031215613dbb57613dba61315d565b5b6000613dc9878288016133b3565b9450506020613dda878288016132fe565b935050604085013567ffffffffffffffff811115613dfb57613dfa613162565b5b613e0787828801613417565b925092505092959194509250565b7f4e487b7100000000000000000000000000000000000000000000000000000000600052602260045260246000fd5b60006002820490506001821680613e5c57607f821691505b60208210811415613e7057613e6f613e15565b5b50919050565b600081519050613e85816132e7565b92915050565b600060208284031215613ea157613ea061315d565b5b6000613eaf84828501613e76565b91505092915050565b600081519050613ec78161339c565b92915050565b600060208284031215613ee357613ee261315d565b5b6000613ef184828501613eb8565b91505092915050565b600067ffffffffffffffff821115613f1557613f14613ab4565b5b613f1e82613271565b9050602081019050919050565b6000613f3e613f3984613efa565b613b14565b905082815260208101848484011115613f5a57613f59613aaf565b5b613f6584828561323e565b509392505050565b600082601f830112613f8257613f81613408565b5b8151613f92848260208601613f2b565b91505092915050565b613fa48161371f565b8114613faf57600080fd5b50565b600081519050613fc181613f9b565b92915050565b613fd081613738565b8114613fdb57600080fd5b50565b600081519050613fed81613fc7565b92915050565b600080600080600060a0868803121561400f5761400e61315d565b5b600086015167ffffffffffffffff81111561402d5761402c613162565b5b61403988828901613f6d565b955050602061404a88828901613fb2565b945050604061405b88828901613fb2565b935050606061406c88828901613fde565b925050608061407d88828901613fde565b9150509295509295909350565b600067ffffffffffffffff8211156140a5576140a4613ab4565b5b602082029050602081019050919050565b60006140c96140c48461408a565b613b14565b905080838252602082019050602084028301858111156140ec576140eb613412565b5b835b8181101561411557806141018882613e76565b8452602084019350506020810190506140ee565b5050509392505050565b600082601f83011261413457614133613408565b5b81516141448482602086016140b6565b91505092915050565b6000602082840312156141635761416261315d565b5b600082015167ffffffffffffffff81111561418157614180613162565b5b61418d8482850161411f565b91505092915050565b7f4e487b7100000000000000000000000000000000000000000000000000000000600052601160045260246000fd5b60006141d0826132dd565b91506141db836132dd565b9250828210156141ee576141ed614196565b5b828203905092915050565b6000614204826132dd565b915061420f836132dd565b9250827fffffffffffffffffffffffffffffffffffffffffffffffffffffffffffffffff0382111561424457614243614196565b5b828201905092915050565b7f4e487b7100000000000000000000000000000000000000000000000000000000600052603260045260246000fd5b6000614289826132dd565b91507fffffffffffffffffffffffffffffffffffffffffffffffffffffffffffffffff8214156142bc576142bb614196565b5b600182019050919050565b600081905092915050565b60006142dd82613222565b6142e781856142c7565b93506142f781856020860161323e565b80840191505092915050565b600061430f82856142d2565b915061431b82846142d2565b91508190509392505050565b600060608201905061433c6000830186613372565b6143496020830185613372565b614356604083018461351f565b949350505050565b6000606082019050614373600083018661351f565b614380602083018561351f565b61438d6040830184613372565b949350505050565b60006143a1838561322d565b93506143ae838584613b60565b6143b783613271565b840190509392505050565b60006040820190506143d7600083018661351f565b81810360208301526143ea818486614395565b9050949350505050565b6000604082019050614409600083018561351f565b614416602083018461351f565b9392505050565b7f4f776e61626c653a206e6577206f776e657220697320746865207a65726f206160008201527f6464726573730000000000000000000000000000000000000000000000000000602082015250565b600061447960268361322d565b91506144848261441d565b604082019050919050565b600060208201905081810360008301526144a88161446c565b9050919050565b7f4f776e61626c653a2063616c6c6572206973206e6f7420746865206f776e6572600082015250565b60006144e560208361322d565b91506144f0826144af565b602082019050919050565b60006020820190508181036000830152614514816144d8565b9050919050565b600081519050919050565b600082825260208201905092915050565b60006145428261451b565b61454c8185614526565b935061455c81856020860161323e565b61456581613271565b840191505092915050565b60006080820190506145856000830187613372565b6145926020830186613372565b61459f604083018561351f565b81810360608301526145b18184614537565b905095945050505050565b6000815190506145cb81613193565b92915050565b6000602082840312156145e7576145e661315d565b5b60006145f5848285016145bc565b9150509291505056fea26469706673582212204b5afe92904d777c26489631b34f1425839a45a9b63053bf32ccc9366472120064736f6c63430008090033",
  "linkReferences": {},
  "deployedLinkReferences": {}
}