{
  "_format": "hh-sol-artifact-1",
  "contractName": "IPCV0Wrapper",
  "sourceName": "contracts/IPCContract.sol",
  "abi": [
    {
      "inputs": [],
      "stateMutability": "nonpayable",
      "type": "constructor"
    },
    {
      "inputs": [],
      "name": "ApprovalCallerNotOwnerNorApproved",
      "type": "error"
    },
    {
      "inputs": [],
      "name": "ApprovalQueryForNonexistentToken",
      "type": "error"
    },
    {
      "inputs": [],
      "name": "ApproveToCaller",
      "type": "error"
    },
    {
      "inputs": [],
      "name": "BalanceQueryForZeroAddress",
      "type": "error"
    },
    {
      "inputs": [],
      "name": "MintERC2309QuantityExceedsLimit",
      "type": "error"
    },
    {
      "inputs": [],
      "name": "MintToZeroAddress",
      "type": "error"
    },
    {
      "inputs": [],
      "name": "MintZeroQuantity",
      "type": "error"
    },
    {
      "inputs": [],
      "name": "OwnerQueryForNonexistentToken",
      "type": "error"
    },
    {
      "inputs": [],
      "name": "OwnershipNotInitializedForExtraData",
      "type": "error"
    },
    {
      "inputs": [],
      "name": "TokenDoesntExist",
      "type": "error"
    },
    {
      "inputs": [],
      "name": "TokenLimitReached",
      "type": "error"
    },
    {
      "inputs": [],
      "name": "TokenNotOwner",
      "type": "error"
    },
    {
      "inputs": [],
      "name": "TransferCallerNotOwnerNorApproved",
      "type": "error"
    },
    {
      "inputs": [],
      "name": "TransferFromIncorrectOwner",
      "type": "error"
    },
    {
      "inputs": [],
      "name": "TransferToNonERC721ReceiverImplementer",
      "type": "error"
    },
    {
      "inputs": [],
      "name": "TransferToZeroAddress",
      "type": "error"
    },
    {
      "inputs": [],
      "name": "URIQueryForNonexistentToken",
      "type": "error"
    },
    {
      "anonymous": false,
      "inputs": [
        {
          "indexed": true,
          "internalType": "address",
          "name": "owner",
          "type": "address"
        },
        {
          "indexed": true,
          "internalType": "address",
          "name": "approved",
          "type": "address"
        },
        {
          "indexed": true,
          "internalType": "uint256",
          "name": "tokenId",
          "type": "uint256"
        }
      ],
      "name": "Approval",
      "type": "event"
    },
    {
      "anonymous": false,
      "inputs": [
        {
          "indexed": true,
          "internalType": "address",
          "name": "owner",
          "type": "address"
        },
        {
          "indexed": true,
          "internalType": "address",
          "name": "operator",
          "type": "address"
        },
        {
          "indexed": false,
          "internalType": "bool",
          "name": "approved",
          "type": "bool"
        }
      ],
      "name": "ApprovalForAll",
      "type": "event"
    },
    {
      "anonymous": false,
      "inputs": [
        {
          "indexed": true,
          "internalType": "uint256",
          "name": "fromTokenId",
          "type": "uint256"
        },
        {
          "indexed": false,
          "internalType": "uint256",
          "name": "toTokenId",
          "type": "uint256"
        },
        {
          "indexed": true,
          "internalType": "address",
          "name": "from",
          "type": "address"
        },
        {
          "indexed": true,
          "internalType": "address",
          "name": "to",
          "type": "address"
        }
      ],
      "name": "ConsecutiveTransfer",
      "type": "event"
    },
    {
      "anonymous": false,
      "inputs": [
        {
          "indexed": true,
          "internalType": "address",
          "name": "previousOwner",
          "type": "address"
        },
        {
          "indexed": true,
          "internalType": "address",
          "name": "newOwner",
          "type": "address"
        }
      ],
      "name": "OwnershipTransferred",
      "type": "event"
    },
    {
      "anonymous": false,
      "inputs": [
        {
          "indexed": true,
          "internalType": "address",
          "name": "from",
          "type": "address"
        },
        {
          "indexed": true,
          "internalType": "address",
          "name": "to",
          "type": "address"
        },
        {
          "indexed": true,
          "internalType": "uint256",
          "name": "tokenId",
          "type": "uint256"
        }
      ],
      "name": "Transfer",
      "type": "event"
    },
    {
      "anonymous": false,
      "inputs": [
        {
          "indexed": false,
          "internalType": "uint256",
          "name": "",
          "type": "uint256"
        },
        {
          "indexed": false,
          "internalType": "uint256",
          "name": "",
          "type": "uint256"
        },
        {
          "indexed": false,
          "internalType": "address",
          "name": "",
          "type": "address"
        }
      ],
      "name": "Unwrapped",
      "type": "event"
    },
    {
      "anonymous": false,
      "inputs": [
        {
          "indexed": false,
          "internalType": "uint256",
          "name": "",
          "type": "uint256"
        },
        {
          "indexed": false,
          "internalType": "uint256",
          "name": "",
          "type": "uint256"
        },
        {
          "indexed": false,
          "internalType": "address",
          "name": "",
          "type": "address"
        }
      ],
      "name": "Wrapped",
      "type": "event"
    },
    {
      "inputs": [
        {
          "internalType": "address",
          "name": "to",
          "type": "address"
        },
        {
          "internalType": "uint256",
          "name": "tokenId",
          "type": "uint256"
        }
      ],
      "name": "approve",
      "outputs": [],
      "stateMutability": "nonpayable",
      "type": "function"
    },
    {
      "inputs": [
        {
          "internalType": "address",
          "name": "owner",
          "type": "address"
        }
      ],
      "name": "balanceOf",
      "outputs": [
        {
          "internalType": "uint256",
          "name": "",
          "type": "uint256"
        }
      ],
      "stateMutability": "view",
      "type": "function"
    },
    {
      "inputs": [
        {
          "internalType": "uint256",
          "name": "tokenId",
          "type": "uint256"
        },
        {
          "internalType": "string",
          "name": "newName",
          "type": "string"
        }
      ],
      "name": "changeIpcName",
      "outputs": [],
      "stateMutability": "payable",
      "type": "function"
    },
    {
      "inputs": [],
      "name": "contractURI",
      "outputs": [
        {
          "internalType": "string",
          "name": "",
          "type": "string"
        }
      ],
      "stateMutability": "view",
      "type": "function"
    },
    {
      "inputs": [
        {
          "internalType": "uint256",
          "name": "startIndex",
          "type": "uint256"
        },
        {
          "internalType": "uint256",
          "name": "total",
          "type": "uint256"
        }
      ],
      "name": "getAllTokens",
      "outputs": [
        {
          "components": [
            {
              "internalType": "uint256",
              "name": "tokenId",
              "type": "uint256"
            },
            {
              "internalType": "string",
              "name": "name",
              "type": "string"
            },
            {
              "internalType": "bytes32",
              "name": "attributeSeed",
              "type": "bytes32"
            },
            {
              "internalType": "bytes32",
              "name": "dna",
              "type": "bytes32"
            },
            {
              "internalType": "uint128",
              "name": "experience",
              "type": "uint128"
            },
            {
              "internalType": "uint128",
              "name": "timeOfBirth",
              "type": "uint128"
            }
          ],
          "internalType": "struct IPCV0Wrapper.t_raw_ipc[]",
          "name": "",
          "type": "tuple[]"
        }
      ],
      "stateMutability": "view",
      "type": "function"
    },
    {
      "inputs": [
        {
          "internalType": "uint256",
          "name": "tokenId",
          "type": "uint256"
        }
      ],
      "name": "getApproved",
      "outputs": [
        {
          "internalType": "address",
          "name": "",
          "type": "address"
        }
      ],
      "stateMutability": "view",
      "type": "function"
    },
    {
      "inputs": [
        {
          "internalType": "uint256",
          "name": "tokenId",
          "type": "uint256"
        }
      ],
      "name": "getIpc",
      "outputs": [
        {
          "internalType": "string",
          "name": "name",
          "type": "string"
        },
        {
          "internalType": "bytes32",
          "name": "attributeSeed",
          "type": "bytes32"
        },
        {
          "internalType": "bytes32",
          "name": "dna",
          "type": "bytes32"
        },
        {
          "internalType": "uint128",
          "name": "experience",
          "type": "uint128"
        },
        {
          "internalType": "uint128",
          "name": "timeOfBirth",
          "type": "uint128"
        }
      ],
      "stateMutability": "view",
      "type": "function"
    },
    {
      "inputs": [],
      "name": "getProperties",
      "outputs": [
        {
          "components": [
            {
              "internalType": "address",
              "name": "contractAdress",
              "type": "address"
            },
            {
              "internalType": "string",
              "name": "tokenURI",
              "type": "string"
            },
            {
              "internalType": "string",
              "name": "contractURI",
              "type": "string"
            },
            {
              "internalType": "uint256",
              "name": "maxPrice",
              "type": "uint256"
            },
            {
              "internalType": "uint256",
              "name": "tokenLimit",
              "type": "uint256"
            }
          ],
          "internalType": "struct IPCV0Wrapper.t_properties",
          "name": "",
          "type": "tuple"
        }
      ],
      "stateMutability": "view",
      "type": "function"
    },
    {
      "inputs": [
        {
          "internalType": "uint256",
          "name": "tokenId",
          "type": "uint256"
        }
      ],
      "name": "getTokenIndex",
      "outputs": [
        {
          "internalType": "uint256",
          "name": "",
          "type": "uint256"
        }
      ],
      "stateMutability": "view",
      "type": "function"
    },
    {
      "inputs": [
        {
          "internalType": "uint256",
          "name": "tokenId",
          "type": "uint256"
        }
      ],
      "name": "getTokenOwnership",
      "outputs": [
        {
          "internalType": "address",
          "name": "",
          "type": "address"
        }
      ],
      "stateMutability": "view",
      "type": "function"
    },
    {
      "inputs": [
        {
          "internalType": "address",
          "name": "owner",
          "type": "address"
        },
        {
          "internalType": "address",
          "name": "operator",
          "type": "address"
        }
      ],
      "name": "isApprovedForAll",
      "outputs": [
        {
          "internalType": "bool",
          "name": "",
          "type": "bool"
        }
      ],
      "stateMutability": "view",
      "type": "function"
    },
    {
      "inputs": [],
      "name": "name",
      "outputs": [
        {
          "internalType": "string",
          "name": "",
          "type": "string"
        }
      ],
      "stateMutability": "view",
      "type": "function"
    },
    {
      "inputs": [
        {
          "internalType": "address",
          "name": "",
          "type": "address"
        },
        {
          "internalType": "address",
          "name": "",
          "type": "address"
        },
        {
          "internalType": "uint256",
          "name": "",
          "type": "uint256"
        },
        {
          "internalType": "bytes",
          "name": "",
          "type": "bytes"
        }
      ],
      "name": "onERC721Received",
      "outputs": [
        {
          "internalType": "bytes4",
          "name": "",
          "type": "bytes4"
        }
      ],
      "stateMutability": "pure",
      "type": "function"
    },
    {
      "inputs": [
        {
          "internalType": "address",
          "name": "",
          "type": "address"
        },
        {
          "internalType": "uint256",
          "name": "",
          "type": "uint256"
        },
        {
          "internalType": "bytes",
          "name": "",
          "type": "bytes"
        }
      ],
      "name": "onERC721Received",
      "outputs": [
        {
          "internalType": "bytes4",
          "name": "",
          "type": "bytes4"
        }
      ],
      "stateMutability": "pure",
      "type": "function"
    },
    {
      "inputs": [],
      "name": "owner",
      "outputs": [
        {
          "internalType": "address",
          "name": "",
          "type": "address"
        }
      ],
      "stateMutability": "view",
      "type": "function"
    },
    {
      "inputs": [
        {
          "internalType": "uint256",
          "name": "tokenId",
          "type": "uint256"
        }
      ],
      "name": "ownerOf",
      "outputs": [
        {
          "internalType": "address",
          "name": "",
          "type": "address"
        }
      ],
      "stateMutability": "view",
      "type": "function"
    },
    {
      "inputs": [],
      "name": "renounceOwnership",
      "outputs": [],
      "stateMutability": "nonpayable",
      "type": "function"
    },
    {
      "inputs": [
        {
          "internalType": "address",
          "name": "from",
          "type": "address"
        },
        {
          "internalType": "address",
          "name": "to",
          "type": "address"
        },
        {
          "internalType": "uint256",
          "name": "tokenId",
          "type": "uint256"
        }
      ],
      "name": "safeTransferFrom",
      "outputs": [],
      "stateMutability": "nonpayable",
      "type": "function"
    },
    {
      "inputs": [
        {
          "internalType": "address",
          "name": "from",
          "type": "address"
        },
        {
          "internalType": "address",
          "name": "to",
          "type": "address"
        },
        {
          "internalType": "uint256",
          "name": "tokenId",
          "type": "uint256"
        },
        {
          "internalType": "bytes",
          "name": "_data",
          "type": "bytes"
        }
      ],
      "name": "safeTransferFrom",
      "outputs": [],
      "stateMutability": "nonpayable",
      "type": "function"
    },
    {
      "inputs": [
        {
          "internalType": "address",
          "name": "operator",
          "type": "address"
        },
        {
          "internalType": "bool",
          "name": "approved",
          "type": "bool"
        }
      ],
      "name": "setApprovalForAll",
      "outputs": [],
      "stateMutability": "nonpayable",
      "type": "function"
    },
    {
      "inputs": [
        {
          "internalType": "address",
          "name": "_contractAddress",
          "type": "address"
        }
      ],
      "name": "setContractAddress",
      "outputs": [],
      "stateMutability": "nonpayable",
      "type": "function"
    },
    {
      "inputs": [
        {
          "internalType": "uint256",
          "name": "_maxPrice",
          "type": "uint256"
        },
        {
          "internalType": "uint256",
          "name": "_tokenLimit",
          "type": "uint256"
        },
        {
          "internalType": "string",
          "name": "__tokenURI",
          "type": "string"
        },
        {
          "internalType": "string",
          "name": "__contractURI",
          "type": "string"
        }
      ],
      "name": "setProperties",
      "outputs": [],
      "stateMutability": "nonpayable",
      "type": "function"
    },
    {
      "inputs": [
        {
          "internalType": "bytes4",
          "name": "interfaceId",
          "type": "bytes4"
        }
      ],
      "name": "supportsInterface",
      "outputs": [
        {
          "internalType": "bool",
          "name": "",
          "type": "bool"
        }
      ],
      "stateMutability": "view",
      "type": "function"
    },
    {
      "inputs": [],
      "name": "symbol",
      "outputs": [
        {
          "internalType": "string",
          "name": "",
          "type": "string"
        }
      ],
      "stateMutability": "view",
      "type": "function"
    },
    {
      "inputs": [
        {
          "internalType": "uint256",
          "name": "tokenId",
          "type": "uint256"
        }
      ],
      "name": "tokenURI",
      "outputs": [
        {
          "internalType": "string",
          "name": "",
          "type": "string"
        }
      ],
      "stateMutability": "view",
      "type": "function"
    },
    {
      "inputs": [],
      "name": "totalSupply",
      "outputs": [
        {
          "internalType": "uint256",
          "name": "",
          "type": "uint256"
        }
      ],
      "stateMutability": "view",
      "type": "function"
    },
    {
      "inputs": [
        {
          "internalType": "address",
          "name": "from",
          "type": "address"
        },
        {
          "internalType": "address",
          "name": "to",
          "type": "address"
        },
        {
          "internalType": "uint256",
          "name": "tokenId",
          "type": "uint256"
        }
      ],
      "name": "transferFrom",
      "outputs": [],
      "stateMutability": "nonpayable",
      "type": "function"
    },
    {
      "inputs": [
        {
          "internalType": "address",
          "name": "newOwner",
          "type": "address"
        }
      ],
      "name": "transferOwnership",
      "outputs": [],
      "stateMutability": "nonpayable",
      "type": "function"
    },
    {
      "inputs": [
        {
          "internalType": "uint256",
          "name": "tokenId",
          "type": "uint256"
        }
      ],
      "name": "unwrap",
      "outputs": [],
      "stateMutability": "nonpayable",
      "type": "function"
    },
    {
      "inputs": [
        {
          "internalType": "uint256",
          "name": "tokenId",
          "type": "uint256"
        }
      ],
      "name": "wrap",
      "outputs": [],
      "stateMutability": "nonpayable",
      "type": "function"
    }
  ],
  "bytecode": "0x60806040523480156200001157600080fd5b506040518060400160405280601d81526020017f496d6d6f7274616c20506c6179657220436861726163746572732076300000008152506040518060400160405280600581526020017f49504356300000000000000000000000000000000000000000000000000000008152506200009e62000092620001a760201b60201c565b620001af60201b60201c565b8160039080519060200190620000b69291906200027c565b508060049080519060200190620000cf9291906200027c565b50620000e06200027360201b60201c565b6001819055505050736a62dafa4560357b35a3c70fc81868ce7da3a062600960006101000a81548173ffffffffffffffffffffffffffffffffffffffff021916908373ffffffffffffffffffffffffffffffffffffffff16021790555060405180602001604052806000815250600a9080519060200190620001649291906200027c565b5060405180602001604052806000815250600b90805190602001906200018c9291906200027c565b506305f5e100600c819055506103e8600d8190555062000391565b600033905090565b60008060009054906101000a900473ffffffffffffffffffffffffffffffffffffffff169050816000806101000a81548173ffffffffffffffffffffffffffffffffffffffff021916908373ffffffffffffffffffffffffffffffffffffffff1602179055508173ffffffffffffffffffffffffffffffffffffffff168173ffffffffffffffffffffffffffffffffffffffff167f8be0079c531659141344cd1fd0a4f28419497f9722a3daafe3b4186f6b6457e060405160405180910390a35050565b60006001905090565b8280546200028a906200035b565b90600052602060002090601f016020900481019282620002ae5760008555620002fa565b82601f10620002c957805160ff1916838001178555620002fa565b82800160010185558215620002fa579182015b82811115620002f9578251825591602001919060010190620002dc565b5b5090506200030991906200030d565b5090565b5b80821115620003285760008160009055506001016200030e565b5090565b7f4e487b7100000000000000000000000000000000000000000000000000000000600052602260045260246000fd5b600060028204905060018216806200037457607f821691505b602082108114156200038b576200038a6200032c565b5b50919050565b61411980620003a16000396000f3fe6080604052600436106101cd5760003560e01c80638da5cb5b116100f7578063de0e9a3e11610095578063ea598cb011610064578063ea598cb0146106c7578063ec0cfd0b146106f0578063f0b9e5ba1461071b578063f2fde38b14610758576101cd565b8063de0e9a3e1461061a578063dfb31a7c14610643578063e8a3d4851461065f578063e985e9c51461068a576101cd565b8063a22cb465116100d1578063a22cb4651461054e578063b88d4fde14610577578063c87b56dd146105a0578063d8500306146105dd576101cd565b80638da5cb5b146104bb57806395d89b41146104e65780639a04383214610511576101cd565b806323b872dd1161016f5780636352211e1161013e5780636352211e146103e957806370a0823114610426578063715018a6146104635780637fff1e2f1461047a576101cd565b806323b872dd146103315780633a663c801461035a57806342842e0e14610397578063477bddaa146103c0576101cd565b8063095ea7b3116101ab578063095ea7b314610277578063150b7a02146102a057806318160ddd146102dd57806320f95f6214610308576101cd565b806301ffc9a7146101d257806306fdde031461020f578063081812fc1461023a575b600080fd5b3480156101de57600080fd5b506101f960048036038101906101f49190612e5c565b610781565b6040516102069190612ea4565b60405180910390f35b34801561021b57600080fd5b50610224610813565b6040516102319190612f58565b60405180910390f35b34801561024657600080fd5b50610261600480360381019061025c9190612fb0565b6108a5565b60405161026e919061301e565b60405180910390f35b34801561028357600080fd5b5061029e60048036038101906102999190613065565b610924565b005b3480156102ac57600080fd5b506102c760048036038101906102c2919061310a565b610a68565b6040516102d491906131a1565b60405180910390f35b3480156102e957600080fd5b506102f2610a7d565b6040516102ff91906131cb565b60405180910390f35b34801561031457600080fd5b5061032f600480360381019061032a919061323c565b610b24565b005b34801561033d57600080fd5b50610358600480360381019061035391906132e3565b610b66565b005b34801561036657600080fd5b50610381600480360381019061037c9190612fb0565b610e8b565b60405161038e91906131cb565b60405180910390f35b3480156103a357600080fd5b506103be60048036038101906103b991906132e3565b610ea8565b005b3480156103cc57600080fd5b506103e760048036038101906103e29190613336565b610ec8565b005b3480156103f557600080fd5b50610410600480360381019061040b9190612fb0565b610f14565b60405161041d919061301e565b60405180910390f35b34801561043257600080fd5b5061044d60048036038101906104489190613336565b61102f565b60405161045a91906131cb565b60405180910390f35b34801561046f57600080fd5b506104786110e8565b005b34801561048657600080fd5b506104a1600480360381019061049c9190612fb0565b6110fc565b6040516104b29594939291906133a7565b60405180910390f35b3480156104c757600080fd5b506104d06111c7565b6040516104dd919061301e565b60405180910390f35b3480156104f257600080fd5b506104fb6111f0565b6040516105089190612f58565b60405180910390f35b34801561051d57600080fd5b5061053860048036038101906105339190613401565b611282565b6040516105459190613603565b60405180910390f35b34801561055a57600080fd5b5061057560048036038101906105709190613651565b6114b8565b005b34801561058357600080fd5b5061059e600480360381019061059991906137c1565b611630565b005b3480156105ac57600080fd5b506105c760048036038101906105c29190612fb0565b6116a3565b6040516105d49190612f58565b60405180910390f35b3480156105e957600080fd5b5061060460048036038101906105ff9190612fb0565b61174a565b604051610611919061301e565b60405180910390f35b34801561062657600080fd5b50610641600480360381019061063c9190612fb0565b6117fe565b005b61065d60048036038101906106589190613844565b611b4b565b005b34801561066b57600080fd5b50610674611be2565b6040516106819190612f58565b60405180910390f35b34801561069657600080fd5b506106b160048036038101906106ac91906138a4565b611c74565b6040516106be9190612ea4565b60405180910390f35b3480156106d357600080fd5b506106ee60048036038101906106e99190612fb0565b611d08565b005b3480156106fc57600080fd5b50610705611fd2565b6040516107129190613970565b60405180910390f35b34801561072757600080fd5b50610742600480360381019061073d9190613992565b612164565b60405161074f91906131a1565b60405180910390f35b34801561076457600080fd5b5061077f600480360381019061077a9190613336565b612191565b005b60006301ffc9a760e01b827bffffffffffffffffffffffffffffffffffffffffffffffffffffffff191614806107dc57506380ac58cd60e01b827bffffffffffffffffffffffffffffffffffffffffffffffffffffffff1916145b8061080c5750635b5e139f60e01b827bffffffffffffffffffffffffffffffffffffffffffffffffffffffff1916145b9050919050565b60606003805461082290613a35565b80601f016020809104026020016040519081016040528092919081815260200182805461084e90613a35565b801561089b5780601f106108705761010080835404028352916020019161089b565b820191906000526020600020905b81548152906001019060200180831161087e57829003601f168201915b5050505050905090565b60006108b082612215565b6108e6576040517fcf4700e400000000000000000000000000000000000000000000000000000000815260040160405180910390fd5b6007600083815260200190815260200160002060000160009054906101000a900473ffffffffffffffffffffffffffffffffffffffff169050919050565b600061092f82610f14565b90508073ffffffffffffffffffffffffffffffffffffffff16610950612274565b73ffffffffffffffffffffffffffffffffffffffff16146109b35761097c81610977612274565b611c74565b6109b2576040517fcfb3b94200000000000000000000000000000000000000000000000000000000815260040160405180910390fd5b5b826007600084815260200190815260200160002060000160006101000a81548173ffffffffffffffffffffffffffffffffffffffff021916908373ffffffffffffffffffffffffffffffffffffffff160217905550818373ffffffffffffffffffffffffffffffffffffffff168273ffffffffffffffffffffffffffffffffffffffff167f8c5be1e5ebec7d5bd14f71427d1e84f3dd0314c0f7b2291e5b200ac8c7c3b92560405160405180910390a4505050565b600063150b7a0260e01b905095945050505050565b6000600960009054906101000a900473ffffffffffffffffffffffffffffffffffffffff1673ffffffffffffffffffffffffffffffffffffffff166318160ddd6040518163ffffffff1660e01b815260040160206040518083038186803b158015610ae757600080fd5b505afa158015610afb573d6000803e3d6000fd5b505050506040513d601f19601f82011682018060405250810190610b1f9190613a7c565b905090565b610b2c61227c565b85600c8190555084600d819055508383600a9190610b4b929190612ca8565b508181600b9190610b5d929190612ca8565b50505050505050565b6000610b71826122fa565b90508373ffffffffffffffffffffffffffffffffffffffff168173ffffffffffffffffffffffffffffffffffffffff1614610bd8576040517fa114810000000000000000000000000000000000000000000000000000000000815260040160405180910390fd5b600080610be4846123c8565b91509150610bfa8187610bf5612274565b6123ef565b610c4657610c0f86610c0a612274565b611c74565b610c45576040517f59c896be00000000000000000000000000000000000000000000000000000000815260040160405180910390fd5b5b600073ffffffffffffffffffffffffffffffffffffffff168573ffffffffffffffffffffffffffffffffffffffff161415610cad576040517fea553b3400000000000000000000000000000000000000000000000000000000815260040160405180910390fd5b610cba8686866001612433565b8015610cc557600082555b600660008773ffffffffffffffffffffffffffffffffffffffff1673ffffffffffffffffffffffffffffffffffffffff168152602001908152602001600020600081546001900391905081905550600660008673ffffffffffffffffffffffffffffffffffffffff1673ffffffffffffffffffffffffffffffffffffffff1681526020019081526020016000206000815460010191905081905550610d9385610d6f888887612439565b7c020000000000000000000000000000000000000000000000000000000017612461565b600560008681526020019081526020016000208190555060007c020000000000000000000000000000000000000000000000000000000084161415610e1b576000600185019050600060056000838152602001908152602001600020541415610e19576001548114610e18578360056000838152602001908152602001600020819055505b5b505b838573ffffffffffffffffffffffffffffffffffffffff168773ffffffffffffffffffffffffffffffffffffffff167fddf252ad1be2c89b69c2b068fc378daa952ba7f163c4a11628f55a4df523b3ef60405160405180910390a4610e83868686600161248c565b505050505050565b6000600f6000838152602001908152602001600020549050919050565b610ec383838360405180602001604052806000815250611630565b505050565b610ed061227c565b80600960006101000a81548173ffffffffffffffffffffffffffffffffffffffff021916908373ffffffffffffffffffffffffffffffffffffffff16021790555050565b600080600f60008481526020019081526020016000205490506000811415610fe957600960009054906101000a900473ffffffffffffffffffffffffffffffffffffffff1673ffffffffffffffffffffffffffffffffffffffff16636352211e846040518263ffffffff1660e01b8152600401610f9191906131cb565b60206040518083038186803b158015610fa957600080fd5b505afa158015610fbd573d6000803e3d6000fd5b505050506040513d601f19601f82011682018060405250810190610fe19190613abe565b91505061102a565b6000600e600083815260200190815260200160002060010160009054906101000a900473ffffffffffffffffffffffffffffffffffffffff16905080925050505b919050565b60008073ffffffffffffffffffffffffffffffffffffffff168273ffffffffffffffffffffffffffffffffffffffff161415611097576040517f8f4eb60400000000000000000000000000000000000000000000000000000000815260040160405180910390fd5b67ffffffffffffffff600660008473ffffffffffffffffffffffffffffffffffffffff1673ffffffffffffffffffffffffffffffffffffffff16815260200190815260200160002054169050919050565b6110f061227c565b6110fa6000612492565b565b6060600080600080600960009054906101000a900473ffffffffffffffffffffffffffffffffffffffff1673ffffffffffffffffffffffffffffffffffffffff16637fff1e2f876040518263ffffffff1660e01b815260040161115f91906131cb565b60006040518083038186803b15801561117757600080fd5b505afa15801561118b573d6000803e3d6000fd5b505050506040513d6000823e3d601f19601f820116820180604052508101906111b49190613be4565b9450945094509450945091939590929450565b60008060009054906101000a900473ffffffffffffffffffffffffffffffffffffffff16905090565b6060600480546111ff90613a35565b80601f016020809104026020016040519081016040528092919081815260200182805461122b90613a35565b80156112785780601f1061124d57610100808354040283529160200191611278565b820191906000526020600020905b81548152906001019060200180831161125b57829003601f168201915b5050505050905090565b6060600061128e610a7d565b9050600084148061129e57508084115b156112a857600193505b60008314806112c1575083816112be9190613caa565b83115b156112d55783816112d29190613caa565b92505b60008367ffffffffffffffff8111156112f1576112f0613696565b5b60405190808252806020026020018201604052801561132a57816020015b611317612d2e565b81526020019060019003908161130f5790505b50905060008214156113405780925050506114b2565b60005b848110156114ab57600081876113599190613cde565b90506000806000806000600960009054906101000a900473ffffffffffffffffffffffffffffffffffffffff1673ffffffffffffffffffffffffffffffffffffffff16637fff1e2f876040518263ffffffff1660e01b81526004016113be91906131cb565b60006040518083038186803b1580156113d657600080fd5b505afa1580156113ea573d6000803e3d6000fd5b505050506040513d6000823e3d601f19601f820116820180604052508101906114139190613be4565b9450945094509450945060006040518060c00160405280888152602001878152602001868152602001858152602001846fffffffffffffffffffffffffffffffff168152602001836fffffffffffffffffffffffffffffffff1681525090508089898151811061148657611485613d34565b5b60200260200101819052505050505050505080806114a390613d63565b915050611343565b5080925050505b92915050565b6114c0612274565b73ffffffffffffffffffffffffffffffffffffffff168273ffffffffffffffffffffffffffffffffffffffff161415611525576040517fb06307db00000000000000000000000000000000000000000000000000000000815260040160405180910390fd5b8060086000611532612274565b73ffffffffffffffffffffffffffffffffffffffff1673ffffffffffffffffffffffffffffffffffffffff16815260200190815260200160002060008473ffffffffffffffffffffffffffffffffffffffff1673ffffffffffffffffffffffffffffffffffffffff16815260200190815260200160002060006101000a81548160ff0219169083151502179055508173ffffffffffffffffffffffffffffffffffffffff166115df612274565b73ffffffffffffffffffffffffffffffffffffffff167f17307eab39ab6107e8899845ad3d59bd9653f200f220920489ca2b5937696c31836040516116249190612ea4565b60405180910390a35050565b61163b848484610b66565b60008373ffffffffffffffffffffffffffffffffffffffff163b1461169d5761166684848484612556565b61169c576040517fd1a57ed600000000000000000000000000000000000000000000000000000000815260040160405180910390fd5b5b50505050565b6060600d548211806116b55750600082145b156116ec576040517fa14c4b5000000000000000000000000000000000000000000000000000000000815260040160405180910390fd5b60006116f66126b6565b90506000815114156117175760405180602001604052806000815250611742565b8061172184612748565b604051602001611732929190613de8565b6040516020818303038152906040525b915050919050565b6000600960009054906101000a900473ffffffffffffffffffffffffffffffffffffffff1673ffffffffffffffffffffffffffffffffffffffff16636352211e836040518263ffffffff1660e01b81526004016117a791906131cb565b60206040518083038186803b1580156117bf57600080fd5b505afa1580156117d3573d6000803e3d6000fd5b505050506040513d601f19601f820116820180604052508101906117f79190613abe565b9050919050565b6000600f60008381526020019081526020016000205490506000811415611851576040517feb7d192800000000000000000000000000000000000000000000000000000000815260040160405180910390fd5b60003390508073ffffffffffffffffffffffffffffffffffffffff16600e600084815260200190815260200160002060010160009054906101000a900473ffffffffffffffffffffffffffffffffffffffff1673ffffffffffffffffffffffffffffffffffffffff16146118f1576040517ff637a3e300000000000000000000000000000000000000000000000000000000815260040160405180910390fd5b600f600084815260200190815260200160002060009055600e60008381526020019081526020016000206000808201600090556001820160006101000a81549073ffffffffffffffffffffffffffffffffffffffff0219169055505060005b601060008373ffffffffffffffffffffffffffffffffffffffff1673ffffffffffffffffffffffffffffffffffffffff16815260200190815260200160002080549050811015611a705783601060008473ffffffffffffffffffffffffffffffffffffffff1673ffffffffffffffffffffffffffffffffffffffff16815260200190815260200160002082815481106119ec576119eb613d34565b5b90600052602060002001541415611a5d57601060008373ffffffffffffffffffffffffffffffffffffffff1673ffffffffffffffffffffffffffffffffffffffff1681526020019081526020016000208181548110611a4e57611a4d613d34565b5b90600052602060002001600090555b8080611a6890613d63565b915050611950565b50611a7a82612798565b600960009054906101000a900473ffffffffffffffffffffffffffffffffffffffff1673ffffffffffffffffffffffffffffffffffffffff166342842e0e3083866040518463ffffffff1660e01b8152600401611ad993929190613e0c565b600060405180830381600087803b158015611af357600080fd5b505af1158015611b07573d6000803e3d6000fd5b505050507f175e3dad2e6c10f120d3216de54ebe7abeee5b7f33c8941af43e73a0315e4a80828483604051611b3e93929190613e43565b60405180910390a1505050565b600960009054906101000a900473ffffffffffffffffffffffffffffffffffffffff1673ffffffffffffffffffffffffffffffffffffffff1663dfb31a7c348585856040518563ffffffff1660e01b8152600401611bab93929190613ea7565b6000604051808303818588803b158015611bc457600080fd5b505af1158015611bd8573d6000803e3d6000fd5b5050505050505050565b6060600b8054611bf190613a35565b80601f0160208091040260200160405190810160405280929190818152602001828054611c1d90613a35565b8015611c6a5780601f10611c3f57610100808354040283529160200191611c6a565b820191906000526020600020905b815481529060010190602001808311611c4d57829003601f168201915b5050505050905090565b6000600860008473ffffffffffffffffffffffffffffffffffffffff1673ffffffffffffffffffffffffffffffffffffffff16815260200190815260200160002060008373ffffffffffffffffffffffffffffffffffffffff1673ffffffffffffffffffffffffffffffffffffffff16815260200190815260200160002060009054906101000a900460ff16905092915050565b600d54811115611d44576040517f53bb24f900000000000000000000000000000000000000000000000000000000815260040160405180910390fd5b6000339050600960009054906101000a900473ffffffffffffffffffffffffffffffffffffffff1673ffffffffffffffffffffffffffffffffffffffff166342842e0e8230856040518463ffffffff1660e01b8152600401611da893929190613e0c565b600060405180830381600087803b158015611dc257600080fd5b505af1158015611dd6573d6000803e3d6000fd5b50505050600960009054906101000a900473ffffffffffffffffffffffffffffffffffffffff1673ffffffffffffffffffffffffffffffffffffffff16633d4cfe2183600c546040518363ffffffff1660e01b8152600401611e39929190613ed9565b600060405180830381600087803b158015611e5357600080fd5b505af1158015611e67573d6000803e3d6000fd5b505050506000611e756127a6565b905060405180604001604052808481526020018373ffffffffffffffffffffffffffffffffffffffff16815250600e60008381526020019081526020016000206000820151816000015560208201518160010160006101000a81548173ffffffffffffffffffffffffffffffffffffffff021916908373ffffffffffffffffffffffffffffffffffffffff16021790555090505080600f600085815260200190815260200160002081905550601060008373ffffffffffffffffffffffffffffffffffffffff1673ffffffffffffffffffffffffffffffffffffffff168152602001908152602001600020819080600181540180825580915050600190039060005260206000200160009091909190915055611f928260016127b0565b7ff90572efd1ab4fb9c6b9dabfd24d103ce15482a9ec0c50e0e32618708783b15b818484604051611fc593929190613e43565b60405180910390a1505050565b611fda612d8e565b611fe261227c565b60006040518060a00160405280600960009054906101000a900473ffffffffffffffffffffffffffffffffffffffff1673ffffffffffffffffffffffffffffffffffffffff168152602001600a805461203a90613a35565b80601f016020809104026020016040519081016040528092919081815260200182805461206690613a35565b80156120b35780601f10612088576101008083540402835291602001916120b3565b820191906000526020600020905b81548152906001019060200180831161209657829003601f168201915b50505050508152602001600b80546120ca90613a35565b80601f01602080910402602001604051908101604052809291908181526020018280546120f690613a35565b80156121435780601f1061211857610100808354040283529160200191612143565b820191906000526020600020905b81548152906001019060200180831161212657829003601f168201915b50505050508152602001600c548152602001600d5481525090508091505090565b60007ff0b9e5baf647f945565b0ac04522b519449041bdd44f952626b9ead9ff3692419050949350505050565b61219961227c565b600073ffffffffffffffffffffffffffffffffffffffff168173ffffffffffffffffffffffffffffffffffffffff161415612209576040517f08c379a000000000000000000000000000000000000000000000000000000000815260040161220090613f74565b60405180910390fd5b61221281612492565b50565b6000816122206127ce565b1115801561222f575060015482105b801561226d575060007c0100000000000000000000000000000000000000000000000000000000600560008581526020019081526020016000205416145b9050919050565b600033905090565b6122846127d7565b73ffffffffffffffffffffffffffffffffffffffff166122a26111c7565b73ffffffffffffffffffffffffffffffffffffffff16146122f8576040517f08c379a00000000000000000000000000000000000000000000000000000000081526004016122ef90613fe0565b60405180910390fd5b565b600080829050806123096127ce565b11612391576001548110156123905760006005600083815260200190815260200160002054905060007c01000000000000000000000000000000000000000000000000000000008216141561238e575b6000811415612384576005600083600190039350838152602001908152602001600020549050612359565b80925050506123c3565b505b5b6040517fdf2d9b4200000000000000000000000000000000000000000000000000000000815260040160405180910390fd5b919050565b60008060006007600085815260200190815260200160002090508092508254915050915091565b600073ffffffffffffffffffffffffffffffffffffffff8316925073ffffffffffffffffffffffffffffffffffffffff821691508382148383141790509392505050565b50505050565b60008060e883901c905060e86124508686846127df565b62ffffff16901b9150509392505050565b600073ffffffffffffffffffffffffffffffffffffffff83169250814260a01b178317905092915050565b50505050565b60008060009054906101000a900473ffffffffffffffffffffffffffffffffffffffff169050816000806101000a81548173ffffffffffffffffffffffffffffffffffffffff021916908373ffffffffffffffffffffffffffffffffffffffff1602179055508173ffffffffffffffffffffffffffffffffffffffff168173ffffffffffffffffffffffffffffffffffffffff167f8be0079c531659141344cd1fd0a4f28419497f9722a3daafe3b4186f6b6457e060405160405180910390a35050565b60008373ffffffffffffffffffffffffffffffffffffffff1663150b7a0261257c612274565b8786866040518563ffffffff1660e01b815260040161259e9493929190614055565b602060405180830381600087803b1580156125b857600080fd5b505af19250505080156125e957506040513d601f19601f820116820180604052508101906125e691906140b6565b60015b612663573d8060008114612619576040519150601f19603f3d011682016040523d82523d6000602084013e61261e565b606091505b5060008151141561265b576040517fd1a57ed600000000000000000000000000000000000000000000000000000000815260040160405180910390fd5b805181602001fd5b63150b7a0260e01b7bffffffffffffffffffffffffffffffffffffffffffffffffffffffff1916817bffffffffffffffffffffffffffffffffffffffffffffffffffffffff191614915050949350505050565b6060600a80546126c590613a35565b80601f01602080910402602001604051908101604052809291908181526020018280546126f190613a35565b801561273e5780601f106127135761010080835404028352916020019161273e565b820191906000526020600020905b81548152906001019060200180831161272157829003601f168201915b5050505050905090565b606060806040510190508060405280825b60011561278457600183039250600a81066030018353600a810490508061277f57612784565b612759565b508181036020830392508083525050919050565b6127a38160006127e8565b50565b6000600154905090565b6127ca828260405180602001604052806000815250612a3c565b5050565b60006001905090565b600033905090565b60009392505050565b60006127f3836122fa565b90506000819050600080612806866123c8565b91509150841561286f57612822818461281d612274565b6123ef565b61286e5761283783612832612274565b611c74565b61286d576040517f59c896be00000000000000000000000000000000000000000000000000000000815260040160405180910390fd5b5b5b61287d836000886001612433565b801561288857600082555b600160806001901b03600660008573ffffffffffffffffffffffffffffffffffffffff1673ffffffffffffffffffffffffffffffffffffffff16815260200190815260200160002060008282540192505081905550612930836128ed85600088612439565b7c02000000000000000000000000000000000000000000000000000000007c01000000000000000000000000000000000000000000000000000000001717612461565b600560008881526020019081526020016000208190555060007c0200000000000000000000000000000000000000000000000000000000851614156129b85760006001870190506000600560008381526020019081526020016000205414156129b65760015481146129b5578460056000838152602001908152602001600020819055505b5b505b85600073ffffffffffffffffffffffffffffffffffffffff168473ffffffffffffffffffffffffffffffffffffffff167fddf252ad1be2c89b69c2b068fc378daa952ba7f163c4a11628f55a4df523b3ef60405160405180910390a4612a2283600088600161248c565b600260008154809291906001019190505550505050505050565b612a468383612ada565b60008373ffffffffffffffffffffffffffffffffffffffff163b14612ad55760006001549050600083820390505b612a876000868380600101945086612556565b612abd576040517fd1a57ed600000000000000000000000000000000000000000000000000000000815260040160405180910390fd5b818110612a74578160015414612ad257600080fd5b50505b505050565b600060015490506000821415612b1c576040517fb562e8dd00000000000000000000000000000000000000000000000000000000815260040160405180910390fd5b612b296000848385612433565b600160406001901b178202600660008573ffffffffffffffffffffffffffffffffffffffff1673ffffffffffffffffffffffffffffffffffffffff16815260200190815260200160002060008282540192505081905550612ba083612b916000866000612439565b612b9a85612c98565b17612461565b6005600083815260200190815260200160002081905550600080838301905073ffffffffffffffffffffffffffffffffffffffff85169150828260007fddf252ad1be2c89b69c2b068fc378daa952ba7f163c4a11628f55a4df523b3ef600080a4600183015b818114612c4157808360007fddf252ad1be2c89b69c2b068fc378daa952ba7f163c4a11628f55a4df523b3ef600080a4600181019050612c06565b506000821415612c7d576040517f2e07630000000000000000000000000000000000000000000000000000000000815260040160405180910390fd5b806001819055505050612c93600084838561248c565b505050565b60006001821460e11b9050919050565b828054612cb490613a35565b90600052602060002090601f016020900481019282612cd65760008555612d1d565b82601f10612cef57803560ff1916838001178555612d1d565b82800160010185558215612d1d579182015b82811115612d1c578235825591602001919060010190612d01565b5b509050612d2a9190612dd3565b5090565b6040518060c001604052806000815260200160608152602001600080191681526020016000801916815260200160006fffffffffffffffffffffffffffffffff16815260200160006fffffffffffffffffffffffffffffffff1681525090565b6040518060a00160405280600073ffffffffffffffffffffffffffffffffffffffff168152602001606081526020016060815260200160008152602001600081525090565b5b80821115612dec576000816000905550600101612dd4565b5090565b6000604051905090565b600080fd5b600080fd5b60007fffffffff0000000000000000000000000000000000000000000000000000000082169050919050565b612e3981612e04565b8114612e4457600080fd5b50565b600081359050612e5681612e30565b92915050565b600060208284031215612e7257612e71612dfa565b5b6000612e8084828501612e47565b91505092915050565b60008115159050919050565b612e9e81612e89565b82525050565b6000602082019050612eb96000830184612e95565b92915050565b600081519050919050565b600082825260208201905092915050565b60005b83811015612ef9578082015181840152602081019050612ede565b83811115612f08576000848401525b50505050565b6000601f19601f8301169050919050565b6000612f2a82612ebf565b612f348185612eca565b9350612f44818560208601612edb565b612f4d81612f0e565b840191505092915050565b60006020820190508181036000830152612f728184612f1f565b905092915050565b6000819050919050565b612f8d81612f7a565b8114612f9857600080fd5b50565b600081359050612faa81612f84565b92915050565b600060208284031215612fc657612fc5612dfa565b5b6000612fd484828501612f9b565b91505092915050565b600073ffffffffffffffffffffffffffffffffffffffff82169050919050565b600061300882612fdd565b9050919050565b61301881612ffd565b82525050565b6000602082019050613033600083018461300f565b92915050565b61304281612ffd565b811461304d57600080fd5b50565b60008135905061305f81613039565b92915050565b6000806040838503121561307c5761307b612dfa565b5b600061308a85828601613050565b925050602061309b85828601612f9b565b9150509250929050565b600080fd5b600080fd5b600080fd5b60008083601f8401126130ca576130c96130a5565b5b8235905067ffffffffffffffff8111156130e7576130e66130aa565b5b602083019150836001820283011115613103576131026130af565b5b9250929050565b60008060008060006080868803121561312657613125612dfa565b5b600061313488828901613050565b955050602061314588828901613050565b945050604061315688828901612f9b565b935050606086013567ffffffffffffffff81111561317757613176612dff565b5b613183888289016130b4565b92509250509295509295909350565b61319b81612e04565b82525050565b60006020820190506131b66000830184613192565b92915050565b6131c581612f7a565b82525050565b60006020820190506131e060008301846131bc565b92915050565b60008083601f8401126131fc576131fb6130a5565b5b8235905067ffffffffffffffff811115613219576132186130aa565b5b602083019150836001820283011115613235576132346130af565b5b9250929050565b6000806000806000806080878903121561325957613258612dfa565b5b600061326789828a01612f9b565b965050602061327889828a01612f9b565b955050604087013567ffffffffffffffff81111561329957613298612dff565b5b6132a589828a016131e6565b9450945050606087013567ffffffffffffffff8111156132c8576132c7612dff565b5b6132d489828a016131e6565b92509250509295509295509295565b6000806000606084860312156132fc576132fb612dfa565b5b600061330a86828701613050565b935050602061331b86828701613050565b925050604061332c86828701612f9b565b9150509250925092565b60006020828403121561334c5761334b612dfa565b5b600061335a84828501613050565b91505092915050565b6000819050919050565b61337681613363565b82525050565b60006fffffffffffffffffffffffffffffffff82169050919050565b6133a18161337c565b82525050565b600060a08201905081810360008301526133c18188612f1f565b90506133d0602083018761336d565b6133dd604083018661336d565b6133ea6060830185613398565b6133f76080830184613398565b9695505050505050565b6000806040838503121561341857613417612dfa565b5b600061342685828601612f9b565b925050602061343785828601612f9b565b9150509250929050565b600081519050919050565b600082825260208201905092915050565b6000819050602082019050919050565b61347681612f7a565b82525050565b600082825260208201905092915050565b600061349882612ebf565b6134a2818561347c565b93506134b2818560208601612edb565b6134bb81612f0e565b840191505092915050565b6134cf81613363565b82525050565b6134de8161337c565b82525050565b600060c0830160008301516134fc600086018261346d565b5060208301518482036020860152613514828261348d565b915050604083015161352960408601826134c6565b50606083015161353c60608601826134c6565b50608083015161354f60808601826134d5565b5060a083015161356260a08601826134d5565b508091505092915050565b600061357983836134e4565b905092915050565b6000602082019050919050565b600061359982613441565b6135a3818561344c565b9350836020820285016135b58561345d565b8060005b858110156135f157848403895281516135d2858261356d565b94506135dd83613581565b925060208a019950506001810190506135b9565b50829750879550505050505092915050565b6000602082019050818103600083015261361d818461358e565b905092915050565b61362e81612e89565b811461363957600080fd5b50565b60008135905061364b81613625565b92915050565b6000806040838503121561366857613667612dfa565b5b600061367685828601613050565b92505060206136878582860161363c565b9150509250929050565b600080fd5b7f4e487b7100000000000000000000000000000000000000000000000000000000600052604160045260246000fd5b6136ce82612f0e565b810181811067ffffffffffffffff821117156136ed576136ec613696565b5b80604052505050565b6000613700612df0565b905061370c82826136c5565b919050565b600067ffffffffffffffff82111561372c5761372b613696565b5b61373582612f0e565b9050602081019050919050565b82818337600083830152505050565b600061376461375f84613711565b6136f6565b9050828152602081018484840111156137805761377f613691565b5b61378b848285613742565b509392505050565b600082601f8301126137a8576137a76130a5565b5b81356137b8848260208601613751565b91505092915050565b600080600080608085870312156137db576137da612dfa565b5b60006137e987828801613050565b94505060206137fa87828801613050565b935050604061380b87828801612f9b565b925050606085013567ffffffffffffffff81111561382c5761382b612dff565b5b61383887828801613793565b91505092959194509250565b60008060006040848603121561385d5761385c612dfa565b5b600061386b86828701612f9b565b935050602084013567ffffffffffffffff81111561388c5761388b612dff565b5b613898868287016131e6565b92509250509250925092565b600080604083850312156138bb576138ba612dfa565b5b60006138c985828601613050565b92505060206138da85828601613050565b9150509250929050565b6138ed81612ffd565b82525050565b600060a08301600083015161390b60008601826138e4565b5060208301518482036020860152613923828261348d565b9150506040830151848203604086015261393d828261348d565b9150506060830151613952606086018261346d565b506080830151613965608086018261346d565b508091505092915050565b6000602082019050818103600083015261398a81846138f3565b905092915050565b600080600080606085870312156139ac576139ab612dfa565b5b60006139ba87828801613050565b94505060206139cb87828801612f9b565b935050604085013567ffffffffffffffff8111156139ec576139eb612dff565b5b6139f8878288016130b4565b925092505092959194509250565b7f4e487b7100000000000000000000000000000000000000000000000000000000600052602260045260246000fd5b60006002820490506001821680613a4d57607f821691505b60208210811415613a6157613a60613a06565b5b50919050565b600081519050613a7681612f84565b92915050565b600060208284031215613a9257613a91612dfa565b5b6000613aa084828501613a67565b91505092915050565b600081519050613ab881613039565b92915050565b600060208284031215613ad457613ad3612dfa565b5b6000613ae284828501613aa9565b91505092915050565b600067ffffffffffffffff821115613b0657613b05613696565b5b613b0f82612f0e565b9050602081019050919050565b6000613b2f613b2a84613aeb565b6136f6565b905082815260208101848484011115613b4b57613b4a613691565b5b613b56848285612edb565b509392505050565b600082601f830112613b7357613b726130a5565b5b8151613b83848260208601613b1c565b91505092915050565b613b9581613363565b8114613ba057600080fd5b50565b600081519050613bb281613b8c565b92915050565b613bc18161337c565b8114613bcc57600080fd5b50565b600081519050613bde81613bb8565b92915050565b600080600080600060a08688031215613c0057613bff612dfa565b5b600086015167ffffffffffffffff811115613c1e57613c1d612dff565b5b613c2a88828901613b5e565b9550506020613c3b88828901613ba3565b9450506040613c4c88828901613ba3565b9350506060613c5d88828901613bcf565b9250506080613c6e88828901613bcf565b9150509295509295909350565b7f4e487b7100000000000000000000000000000000000000000000000000000000600052601160045260246000fd5b6000613cb582612f7a565b9150613cc083612f7a565b925082821015613cd357613cd2613c7b565b5b828203905092915050565b6000613ce982612f7a565b9150613cf483612f7a565b9250827fffffffffffffffffffffffffffffffffffffffffffffffffffffffffffffffff03821115613d2957613d28613c7b565b5b828201905092915050565b7f4e487b7100000000000000000000000000000000000000000000000000000000600052603260045260246000fd5b6000613d6e82612f7a565b91507fffffffffffffffffffffffffffffffffffffffffffffffffffffffffffffffff821415613da157613da0613c7b565b5b600182019050919050565b600081905092915050565b6000613dc282612ebf565b613dcc8185613dac565b9350613ddc818560208601612edb565b80840191505092915050565b6000613df48285613db7565b9150613e008284613db7565b91508190509392505050565b6000606082019050613e21600083018661300f565b613e2e602083018561300f565b613e3b60408301846131bc565b949350505050565b6000606082019050613e5860008301866131bc565b613e6560208301856131bc565b613e72604083018461300f565b949350505050565b6000613e868385612eca565b9350613e93838584613742565b613e9c83612f0e565b840190509392505050565b6000604082019050613ebc60008301866131bc565b8181036020830152613ecf818486613e7a565b9050949350505050565b6000604082019050613eee60008301856131bc565b613efb60208301846131bc565b9392505050565b7f4f776e61626c653a206e6577206f776e657220697320746865207a65726f206160008201527f6464726573730000000000000000000000000000000000000000000000000000602082015250565b6000613f5e602683612eca565b9150613f6982613f02565b604082019050919050565b60006020820190508181036000830152613f8d81613f51565b9050919050565b7f4f776e61626c653a2063616c6c6572206973206e6f7420746865206f776e6572600082015250565b6000613fca602083612eca565b9150613fd582613f94565b602082019050919050565b60006020820190508181036000830152613ff981613fbd565b9050919050565b600081519050919050565b600082825260208201905092915050565b600061402782614000565b614031818561400b565b9350614041818560208601612edb565b61404a81612f0e565b840191505092915050565b600060808201905061406a600083018761300f565b614077602083018661300f565b61408460408301856131bc565b8181036060830152614096818461401c565b905095945050505050565b6000815190506140b081612e30565b92915050565b6000602082840312156140cc576140cb612dfa565b5b60006140da848285016140a1565b9150509291505056fea26469706673582212203988d6643ce9aeaa4f7f75c41ded5bfacdd8f0fc33954dc5d88ebf6158641ff864736f6c63430008090033",
  "linkReferences": {},
  "deployedLinkReferences": {}
}