{
  "_format": "hh-sol-artifact-1",
  "contractName": "IPCV0Wrapper",
  "sourceName": "contracts/IPCContract.sol",
  "abi": [
    {
      "inputs": [],
      "stateMutability": "nonpayable",
      "type": "constructor"
    },
    {
      "inputs": [],
      "name": "ApprovalCallerNotOwnerNorApproved",
      "type": "error"
    },
    {
      "inputs": [],
      "name": "ApprovalQueryForNonexistentToken",
      "type": "error"
    },
    {
      "inputs": [],
      "name": "ApproveToCaller",
      "type": "error"
    },
    {
      "inputs": [],
      "name": "BalanceQueryForZeroAddress",
      "type": "error"
    },
    {
      "inputs": [],
      "name": "MintERC2309QuantityExceedsLimit",
      "type": "error"
    },
    {
      "inputs": [],
      "name": "MintToZeroAddress",
      "type": "error"
    },
    {
      "inputs": [],
      "name": "MintZeroQuantity",
      "type": "error"
    },
    {
      "inputs": [],
      "name": "OwnerQueryForNonexistentToken",
      "type": "error"
    },
    {
      "inputs": [],
      "name": "OwnershipNotInitializedForExtraData",
      "type": "error"
    },
    {
      "inputs": [],
      "name": "TokenLimitReached",
      "type": "error"
    },
    {
      "inputs": [],
      "name": "TokenNotExist",
      "type": "error"
    },
    {
      "inputs": [],
      "name": "TokenNotOwner",
      "type": "error"
    },
    {
      "inputs": [],
      "name": "TransferCallerNotOwnerNorApproved",
      "type": "error"
    },
    {
      "inputs": [],
      "name": "TransferFromIncorrectOwner",
      "type": "error"
    },
    {
      "inputs": [],
      "name": "TransferToNonERC721ReceiverImplementer",
      "type": "error"
    },
    {
      "inputs": [],
      "name": "TransferToZeroAddress",
      "type": "error"
    },
    {
      "inputs": [],
      "name": "URIQueryForNonexistentToken",
      "type": "error"
    },
    {
      "anonymous": false,
      "inputs": [
        {
          "indexed": true,
          "internalType": "address",
          "name": "owner",
          "type": "address"
        },
        {
          "indexed": true,
          "internalType": "address",
          "name": "approved",
          "type": "address"
        },
        {
          "indexed": true,
          "internalType": "uint256",
          "name": "tokenId",
          "type": "uint256"
        }
      ],
      "name": "Approval",
      "type": "event"
    },
    {
      "anonymous": false,
      "inputs": [
        {
          "indexed": true,
          "internalType": "address",
          "name": "owner",
          "type": "address"
        },
        {
          "indexed": true,
          "internalType": "address",
          "name": "operator",
          "type": "address"
        },
        {
          "indexed": false,
          "internalType": "bool",
          "name": "approved",
          "type": "bool"
        }
      ],
      "name": "ApprovalForAll",
      "type": "event"
    },
    {
      "anonymous": false,
      "inputs": [
        {
          "indexed": true,
          "internalType": "uint256",
          "name": "fromTokenId",
          "type": "uint256"
        },
        {
          "indexed": false,
          "internalType": "uint256",
          "name": "toTokenId",
          "type": "uint256"
        },
        {
          "indexed": true,
          "internalType": "address",
          "name": "from",
          "type": "address"
        },
        {
          "indexed": true,
          "internalType": "address",
          "name": "to",
          "type": "address"
        }
      ],
      "name": "ConsecutiveTransfer",
      "type": "event"
    },
    {
      "anonymous": false,
      "inputs": [
        {
          "indexed": true,
          "internalType": "address",
          "name": "previousOwner",
          "type": "address"
        },
        {
          "indexed": true,
          "internalType": "address",
          "name": "newOwner",
          "type": "address"
        }
      ],
      "name": "OwnershipTransferred",
      "type": "event"
    },
    {
      "anonymous": false,
      "inputs": [
        {
          "indexed": true,
          "internalType": "address",
          "name": "from",
          "type": "address"
        },
        {
          "indexed": true,
          "internalType": "address",
          "name": "to",
          "type": "address"
        },
        {
          "indexed": true,
          "internalType": "uint256",
          "name": "tokenId",
          "type": "uint256"
        }
      ],
      "name": "Transfer",
      "type": "event"
    },
    {
      "anonymous": false,
      "inputs": [
        {
          "indexed": false,
          "internalType": "uint256",
          "name": "",
          "type": "uint256"
        },
        {
          "indexed": false,
          "internalType": "uint256",
          "name": "",
          "type": "uint256"
        },
        {
          "indexed": false,
          "internalType": "address",
          "name": "",
          "type": "address"
        }
      ],
      "name": "Unwrapped",
      "type": "event"
    },
    {
      "anonymous": false,
      "inputs": [
        {
          "indexed": false,
          "internalType": "uint256",
          "name": "",
          "type": "uint256"
        },
        {
          "indexed": false,
          "internalType": "uint256",
          "name": "",
          "type": "uint256"
        },
        {
          "indexed": false,
          "internalType": "address",
          "name": "",
          "type": "address"
        }
      ],
      "name": "Wrapped",
      "type": "event"
    },
    {
      "inputs": [
        {
          "internalType": "address",
          "name": "to",
          "type": "address"
        },
        {
          "internalType": "uint256",
          "name": "tokenId",
          "type": "uint256"
        }
      ],
      "name": "approve",
      "outputs": [],
      "stateMutability": "nonpayable",
      "type": "function"
    },
    {
      "inputs": [
        {
          "internalType": "address",
          "name": "owner",
          "type": "address"
        }
      ],
      "name": "balanceOf",
      "outputs": [
        {
          "internalType": "uint256",
          "name": "",
          "type": "uint256"
        }
      ],
      "stateMutability": "view",
      "type": "function"
    },
    {
      "inputs": [],
      "name": "contractAddress",
      "outputs": [
        {
          "internalType": "address",
          "name": "",
          "type": "address"
        }
      ],
      "stateMutability": "view",
      "type": "function"
    },
    {
      "inputs": [],
      "name": "contractURI",
      "outputs": [
        {
          "internalType": "string",
          "name": "",
          "type": "string"
        }
      ],
      "stateMutability": "view",
      "type": "function"
    },
    {
      "inputs": [
        {
          "internalType": "uint256",
          "name": "tokenId",
          "type": "uint256"
        }
      ],
      "name": "getApproved",
      "outputs": [
        {
          "internalType": "address",
          "name": "",
          "type": "address"
        }
      ],
      "stateMutability": "view",
      "type": "function"
    },
    {
      "inputs": [
        {
          "internalType": "uint256",
          "name": "tokenId",
          "type": "uint256"
        }
      ],
      "name": "getIpc",
      "outputs": [
        {
          "internalType": "string",
          "name": "name",
          "type": "string"
        },
        {
          "internalType": "bytes32",
          "name": "attributeSeed",
          "type": "bytes32"
        },
        {
          "internalType": "bytes32",
          "name": "dna",
          "type": "bytes32"
        },
        {
          "internalType": "uint128",
          "name": "experience",
          "type": "uint128"
        },
        {
          "internalType": "uint128",
          "name": "timeOfBirth",
          "type": "uint128"
        }
      ],
      "stateMutability": "view",
      "type": "function"
    },
    {
      "inputs": [
        {
          "internalType": "address",
          "name": "owner",
          "type": "address"
        },
        {
          "internalType": "address",
          "name": "operator",
          "type": "address"
        }
      ],
      "name": "isApprovedForAll",
      "outputs": [
        {
          "internalType": "bool",
          "name": "",
          "type": "bool"
        }
      ],
      "stateMutability": "view",
      "type": "function"
    },
    {
      "inputs": [],
      "name": "name",
      "outputs": [
        {
          "internalType": "string",
          "name": "",
          "type": "string"
        }
      ],
      "stateMutability": "view",
      "type": "function"
    },
    {
      "inputs": [
        {
          "internalType": "address",
          "name": "",
          "type": "address"
        },
        {
          "internalType": "address",
          "name": "",
          "type": "address"
        },
        {
          "internalType": "uint256",
          "name": "",
          "type": "uint256"
        },
        {
          "internalType": "bytes",
          "name": "",
          "type": "bytes"
        }
      ],
      "name": "onERC721Received",
      "outputs": [
        {
          "internalType": "bytes4",
          "name": "",
          "type": "bytes4"
        }
      ],
      "stateMutability": "pure",
      "type": "function"
    },
    {
      "inputs": [],
      "name": "owner",
      "outputs": [
        {
          "internalType": "address",
          "name": "",
          "type": "address"
        }
      ],
      "stateMutability": "view",
      "type": "function"
    },
    {
      "inputs": [
        {
          "internalType": "uint256",
          "name": "tokenId",
          "type": "uint256"
        }
      ],
      "name": "ownerOf",
      "outputs": [
        {
          "internalType": "address",
          "name": "",
          "type": "address"
        }
      ],
      "stateMutability": "view",
      "type": "function"
    },
    {
      "inputs": [],
      "name": "renounceOwnership",
      "outputs": [],
      "stateMutability": "nonpayable",
      "type": "function"
    },
    {
      "inputs": [
        {
          "internalType": "address",
          "name": "from",
          "type": "address"
        },
        {
          "internalType": "address",
          "name": "to",
          "type": "address"
        },
        {
          "internalType": "uint256",
          "name": "tokenId",
          "type": "uint256"
        }
      ],
      "name": "safeTransferFrom",
      "outputs": [],
      "stateMutability": "nonpayable",
      "type": "function"
    },
    {
      "inputs": [
        {
          "internalType": "address",
          "name": "from",
          "type": "address"
        },
        {
          "internalType": "address",
          "name": "to",
          "type": "address"
        },
        {
          "internalType": "uint256",
          "name": "tokenId",
          "type": "uint256"
        },
        {
          "internalType": "bytes",
          "name": "_data",
          "type": "bytes"
        }
      ],
      "name": "safeTransferFrom",
      "outputs": [],
      "stateMutability": "nonpayable",
      "type": "function"
    },
    {
      "inputs": [
        {
          "internalType": "address",
          "name": "operator",
          "type": "address"
        },
        {
          "internalType": "bool",
          "name": "approved",
          "type": "bool"
        }
      ],
      "name": "setApprovalForAll",
      "outputs": [],
      "stateMutability": "nonpayable",
      "type": "function"
    },
    {
      "inputs": [
        {
          "internalType": "string",
          "name": "__contractURI",
          "type": "string"
        }
      ],
      "name": "setContractURI",
      "outputs": [],
      "stateMutability": "nonpayable",
      "type": "function"
    },
    {
      "inputs": [
        {
          "internalType": "string",
          "name": "__tokenURI",
          "type": "string"
        }
      ],
      "name": "setTokenURI",
      "outputs": [],
      "stateMutability": "nonpayable",
      "type": "function"
    },
    {
      "inputs": [
        {
          "internalType": "bytes4",
          "name": "interfaceId",
          "type": "bytes4"
        }
      ],
      "name": "supportsInterface",
      "outputs": [
        {
          "internalType": "bool",
          "name": "",
          "type": "bool"
        }
      ],
      "stateMutability": "view",
      "type": "function"
    },
    {
      "inputs": [],
      "name": "symbol",
      "outputs": [
        {
          "internalType": "string",
          "name": "",
          "type": "string"
        }
      ],
      "stateMutability": "view",
      "type": "function"
    },
    {
      "inputs": [
        {
          "internalType": "uint256",
          "name": "tokenId",
          "type": "uint256"
        }
      ],
      "name": "tokenURI",
      "outputs": [
        {
          "internalType": "string",
          "name": "",
          "type": "string"
        }
      ],
      "stateMutability": "view",
      "type": "function"
    },
    {
      "inputs": [],
      "name": "totalSupply",
      "outputs": [
        {
          "internalType": "uint256",
          "name": "",
          "type": "uint256"
        }
      ],
      "stateMutability": "view",
      "type": "function"
    },
    {
      "inputs": [
        {
          "internalType": "address",
          "name": "from",
          "type": "address"
        },
        {
          "internalType": "address",
          "name": "to",
          "type": "address"
        },
        {
          "internalType": "uint256",
          "name": "tokenId",
          "type": "uint256"
        }
      ],
      "name": "transferFrom",
      "outputs": [],
      "stateMutability": "nonpayable",
      "type": "function"
    },
    {
      "inputs": [
        {
          "internalType": "address",
          "name": "newOwner",
          "type": "address"
        }
      ],
      "name": "transferOwnership",
      "outputs": [],
      "stateMutability": "nonpayable",
      "type": "function"
    },
    {
      "inputs": [
        {
          "internalType": "uint256",
          "name": "tokenId",
          "type": "uint256"
        }
      ],
      "name": "unwrap",
      "outputs": [],
      "stateMutability": "nonpayable",
      "type": "function"
    },
    {
      "inputs": [
        {
          "internalType": "uint256",
          "name": "tokenId",
          "type": "uint256"
        }
      ],
      "name": "wrap",
      "outputs": [],
      "stateMutability": "payable",
      "type": "function"
    }
  ],
  "bytecode": "0x60a06040523480156200001157600080fd5b506040518060400160405280601d81526020017f496d6d6f7274616c20506c6179657220436861726163746572732076300000008152506040518060400160405280600581526020017f49504356300000000000000000000000000000000000000000000000000000008152506200009e620000926200012c60201b60201c565b6200013460201b60201c565b8160039080519060200190620000b692919062000201565b508060049080519060200190620000cf92919062000201565b50620000e0620001f860201b60201c565b6001819055505050600073ffffffffffffffffffffffffffffffffffffffff1660808173ffffffffffffffffffffffffffffffffffffffff16815250506103e8600b8190555062000316565b600033905090565b60008060009054906101000a900473ffffffffffffffffffffffffffffffffffffffff169050816000806101000a81548173ffffffffffffffffffffffffffffffffffffffff021916908373ffffffffffffffffffffffffffffffffffffffff1602179055508173ffffffffffffffffffffffffffffffffffffffff168173ffffffffffffffffffffffffffffffffffffffff167f8be0079c531659141344cd1fd0a4f28419497f9722a3daafe3b4186f6b6457e060405160405180910390a35050565b60006001905090565b8280546200020f90620002e0565b90600052602060002090601f0160209004810192826200023357600085556200027f565b82601f106200024e57805160ff19168380011785556200027f565b828001600101855582156200027f579182015b828111156200027e57825182559160200191906001019062000261565b5b5090506200028e919062000292565b5090565b5b80821115620002ad57600081600090555060010162000293565b5090565b7f4e487b7100000000000000000000000000000000000000000000000000000000600052602260045260246000fd5b60006002820490506001821680620002f957607f821691505b6020821081141562000310576200030f620002b1565b5b50919050565b6080516134b86200035c600039600081816108fd01528181610d0701528181610ed30152818161157b015281816117ca015281816118590152611adb01526134b86000f3fe6080604052600436106101665760003560e01c80638da5cb5b116100d1578063de0e9a3e1161008a578063e985e9c511610064578063e985e9c514610550578063ea598cb01461058d578063f2fde38b146105a9578063f6b4dfb4146105d257610166565b8063de0e9a3e146104d3578063e0df5b6f146104fc578063e8a3d4851461052557610166565b80638da5cb5b146103c5578063938e3d7b146103f057806395d89b4114610419578063a22cb46514610444578063b88d4fde1461046d578063c87b56dd1461049657610166565b806323b872dd1161012357806323b872dd146102a157806342842e0e146102ca5780636352211e146102f357806370a0823114610330578063715018a61461036d5780637fff1e2f1461038457610166565b806301ffc9a71461016b57806306fdde03146101a8578063081812fc146101d3578063095ea7b314610210578063150b7a021461023957806318160ddd14610276575b600080fd5b34801561017757600080fd5b50610192600480360381019061018d919061269f565b6105fd565b60405161019f91906126e7565b60405180910390f35b3480156101b457600080fd5b506101bd61068f565b6040516101ca919061279b565b60405180910390f35b3480156101df57600080fd5b506101fa60048036038101906101f591906127f3565b610721565b6040516102079190612861565b60405180910390f35b34801561021c57600080fd5b50610237600480360381019061023291906128a8565b6107a0565b005b34801561024557600080fd5b50610260600480360381019061025b919061294d565b6108e4565b60405161026d91906129e4565b60405180910390f35b34801561028257600080fd5b5061028b6108f9565b6040516102989190612a0e565b60405180910390f35b3480156102ad57600080fd5b506102c860048036038101906102c39190612a29565b61099e565b005b3480156102d657600080fd5b506102f160048036038101906102ec9190612a29565b610cc3565b005b3480156102ff57600080fd5b5061031a600480360381019061031591906127f3565b610ce3565b6040516103279190612861565b60405180910390f35b34801561033c57600080fd5b5061035760048036038101906103529190612a7c565b610dfc565b6040516103649190612a0e565b60405180910390f35b34801561037957600080fd5b50610382610eb5565b005b34801561039057600080fd5b506103ab60048036038101906103a691906127f3565b610ec9565b6040516103bc959493929190612aed565b60405180910390f35b3480156103d157600080fd5b506103da610f92565b6040516103e79190612861565b60405180910390f35b3480156103fc57600080fd5b5061041760048036038101906104129190612b9d565b610fbb565b005b34801561042557600080fd5b5061042e610fd9565b60405161043b919061279b565b60405180910390f35b34801561045057600080fd5b5061046b60048036038101906104669190612c16565b61106b565b005b34801561047957600080fd5b50610494600480360381019061048f9190612d86565b6111e3565b005b3480156104a257600080fd5b506104bd60048036038101906104b891906127f3565b611256565b6040516104ca919061279b565b60405180910390f35b3480156104df57600080fd5b506104fa60048036038101906104f591906127f3565b6112fd565b005b34801561050857600080fd5b50610523600480360381019061051e9190612b9d565b611648565b005b34801561053157600080fd5b5061053a611666565b604051610547919061279b565b60405180910390f35b34801561055c57600080fd5b5061057760048036038101906105729190612e09565b6116f8565b60405161058491906126e7565b60405180910390f35b6105a760048036038101906105a291906127f3565b61178c565b005b3480156105b557600080fd5b506105d060048036038101906105cb9190612a7c565b611a55565b005b3480156105de57600080fd5b506105e7611ad9565b6040516105f49190612861565b60405180910390f35b60006301ffc9a760e01b827bffffffffffffffffffffffffffffffffffffffffffffffffffffffff1916148061065857506380ac58cd60e01b827bffffffffffffffffffffffffffffffffffffffffffffffffffffffff1916145b806106885750635b5e139f60e01b827bffffffffffffffffffffffffffffffffffffffffffffffffffffffff1916145b9050919050565b60606003805461069e90612e78565b80601f01602080910402602001604051908101604052809291908181526020018280546106ca90612e78565b80156107175780601f106106ec57610100808354040283529160200191610717565b820191906000526020600020905b8154815290600101906020018083116106fa57829003601f168201915b5050505050905090565b600061072c82611afd565b610762576040517fcf4700e400000000000000000000000000000000000000000000000000000000815260040160405180910390fd5b6007600083815260200190815260200160002060000160009054906101000a900473ffffffffffffffffffffffffffffffffffffffff169050919050565b60006107ab82610ce3565b90508073ffffffffffffffffffffffffffffffffffffffff166107cc611b5c565b73ffffffffffffffffffffffffffffffffffffffff161461082f576107f8816107f3611b5c565b6116f8565b61082e576040517fcfb3b94200000000000000000000000000000000000000000000000000000000815260040160405180910390fd5b5b826007600084815260200190815260200160002060000160006101000a81548173ffffffffffffffffffffffffffffffffffffffff021916908373ffffffffffffffffffffffffffffffffffffffff160217905550818373ffffffffffffffffffffffffffffffffffffffff168273ffffffffffffffffffffffffffffffffffffffff167f8c5be1e5ebec7d5bd14f71427d1e84f3dd0314c0f7b2291e5b200ac8c7c3b92560405160405180910390a4505050565b600063150b7a0260e01b905095945050505050565b60007f000000000000000000000000000000000000000000000000000000000000000073ffffffffffffffffffffffffffffffffffffffff166318160ddd6040518163ffffffff1660e01b815260040160206040518083038186803b15801561096157600080fd5b505afa158015610975573d6000803e3d6000fd5b505050506040513d601f19601f820116820180604052508101906109999190612ebf565b905090565b60006109a982611b64565b90508373ffffffffffffffffffffffffffffffffffffffff168173ffffffffffffffffffffffffffffffffffffffff1614610a10576040517fa114810000000000000000000000000000000000000000000000000000000000815260040160405180910390fd5b600080610a1c84611c32565b91509150610a328187610a2d611b5c565b611c59565b610a7e57610a4786610a42611b5c565b6116f8565b610a7d576040517f59c896be00000000000000000000000000000000000000000000000000000000815260040160405180910390fd5b5b600073ffffffffffffffffffffffffffffffffffffffff168573ffffffffffffffffffffffffffffffffffffffff161415610ae5576040517fea553b3400000000000000000000000000000000000000000000000000000000815260040160405180910390fd5b610af28686866001611c9d565b8015610afd57600082555b600660008773ffffffffffffffffffffffffffffffffffffffff1673ffffffffffffffffffffffffffffffffffffffff168152602001908152602001600020600081546001900391905081905550600660008673ffffffffffffffffffffffffffffffffffffffff1673ffffffffffffffffffffffffffffffffffffffff1681526020019081526020016000206000815460010191905081905550610bcb85610ba7888887611ca3565b7c020000000000000000000000000000000000000000000000000000000017611ccb565b600560008681526020019081526020016000208190555060007c020000000000000000000000000000000000000000000000000000000084161415610c53576000600185019050600060056000838152602001908152602001600020541415610c51576001548114610c50578360056000838152602001908152602001600020819055505b5b505b838573ffffffffffffffffffffffffffffffffffffffff168773ffffffffffffffffffffffffffffffffffffffff167fddf252ad1be2c89b69c2b068fc378daa952ba7f163c4a11628f55a4df523b3ef60405160405180910390a4610cbb8686866001611cf6565b505050505050565b610cde838383604051806020016040528060008152506111e3565b505050565b600080600d60008481526020019081526020016000205490506000811415610db6577f000000000000000000000000000000000000000000000000000000000000000073ffffffffffffffffffffffffffffffffffffffff16636352211e846040518263ffffffff1660e01b8152600401610d5e9190612a0e565b60206040518083038186803b158015610d7657600080fd5b505afa158015610d8a573d6000803e3d6000fd5b505050506040513d601f19601f82011682018060405250810190610dae9190612f01565b915050610df7565b6000600c600083815260200190815260200160002060010160009054906101000a900473ffffffffffffffffffffffffffffffffffffffff16905080925050505b919050565b60008073ffffffffffffffffffffffffffffffffffffffff168273ffffffffffffffffffffffffffffffffffffffff161415610e64576040517f8f4eb60400000000000000000000000000000000000000000000000000000000815260040160405180910390fd5b67ffffffffffffffff600660008473ffffffffffffffffffffffffffffffffffffffff1673ffffffffffffffffffffffffffffffffffffffff16815260200190815260200160002054169050919050565b610ebd611cfc565b610ec76000611d7a565b565b60606000806000807f000000000000000000000000000000000000000000000000000000000000000073ffffffffffffffffffffffffffffffffffffffff16637fff1e2f876040518263ffffffff1660e01b8152600401610f2a9190612a0e565b60006040518083038186803b158015610f4257600080fd5b505afa158015610f56573d6000803e3d6000fd5b505050506040513d6000823e3d601f19601f82011682018060405250810190610f7f9190613027565b9450945094509450945091939590929450565b60008060009054906101000a900473ffffffffffffffffffffffffffffffffffffffff16905090565b610fc3611cfc565b8181600a9190610fd4929190612590565b505050565b606060048054610fe890612e78565b80601f016020809104026020016040519081016040528092919081815260200182805461101490612e78565b80156110615780601f1061103657610100808354040283529160200191611061565b820191906000526020600020905b81548152906001019060200180831161104457829003601f168201915b5050505050905090565b611073611b5c565b73ffffffffffffffffffffffffffffffffffffffff168273ffffffffffffffffffffffffffffffffffffffff1614156110d8576040517fb06307db00000000000000000000000000000000000000000000000000000000815260040160405180910390fd5b80600860006110e5611b5c565b73ffffffffffffffffffffffffffffffffffffffff1673ffffffffffffffffffffffffffffffffffffffff16815260200190815260200160002060008473ffffffffffffffffffffffffffffffffffffffff1673ffffffffffffffffffffffffffffffffffffffff16815260200190815260200160002060006101000a81548160ff0219169083151502179055508173ffffffffffffffffffffffffffffffffffffffff16611192611b5c565b73ffffffffffffffffffffffffffffffffffffffff167f17307eab39ab6107e8899845ad3d59bd9653f200f220920489ca2b5937696c31836040516111d791906126e7565b60405180910390a35050565b6111ee84848461099e565b60008373ffffffffffffffffffffffffffffffffffffffff163b146112505761121984848484611e3e565b61124f576040517fd1a57ed600000000000000000000000000000000000000000000000000000000815260040160405180910390fd5b5b50505050565b6060600b548211806112685750600082145b1561129f576040517fa14c4b5000000000000000000000000000000000000000000000000000000000815260040160405180910390fd5b60006112a9611f9e565b90506000815114156112ca57604051806020016040528060008152506112f5565b806112d484612030565b6040516020016112e59291906130fa565b6040516020818303038152906040525b915050919050565b6000600d60008381526020019081526020016000205490506000811415611350576040517f4494362200000000000000000000000000000000000000000000000000000000815260040160405180910390fd5b60003390508073ffffffffffffffffffffffffffffffffffffffff16600c600084815260200190815260200160002060010160009054906101000a900473ffffffffffffffffffffffffffffffffffffffff1673ffffffffffffffffffffffffffffffffffffffff16146113f0576040517ff637a3e300000000000000000000000000000000000000000000000000000000815260040160405180910390fd5b600d600084815260200190815260200160002060009055600c60008381526020019081526020016000206000808201600090556001820160006101000a81549073ffffffffffffffffffffffffffffffffffffffff0219169055505060005b600e60008373ffffffffffffffffffffffffffffffffffffffff1673ffffffffffffffffffffffffffffffffffffffff1681526020019081526020016000208054905081101561156f5783600e60008473ffffffffffffffffffffffffffffffffffffffff1673ffffffffffffffffffffffffffffffffffffffff16815260200190815260200160002082815481106114eb576114ea61311e565b5b9060005260206000200154141561155c57600e60008373ffffffffffffffffffffffffffffffffffffffff1673ffffffffffffffffffffffffffffffffffffffff168152602001908152602001600020818154811061154d5761154c61311e565b5b90600052602060002001600090555b80806115679061317c565b91505061144f565b5061157982612080565b7f000000000000000000000000000000000000000000000000000000000000000073ffffffffffffffffffffffffffffffffffffffff166342842e0e3083866040518463ffffffff1660e01b81526004016115d6939291906131c5565b600060405180830381600087803b1580156115f057600080fd5b505af1158015611604573d6000803e3d6000fd5b505050507f175e3dad2e6c10f120d3216de54ebe7abeee5b7f33c8941af43e73a0315e4a8082848360405161163b939291906131fc565b60405180910390a1505050565b611650611cfc565b818160099190611661929190612590565b505050565b6060600a805461167590612e78565b80601f01602080910402602001604051908101604052809291908181526020018280546116a190612e78565b80156116ee5780601f106116c3576101008083540402835291602001916116ee565b820191906000526020600020905b8154815290600101906020018083116116d157829003601f168201915b5050505050905090565b6000600860008473ffffffffffffffffffffffffffffffffffffffff1673ffffffffffffffffffffffffffffffffffffffff16815260200190815260200160002060008373ffffffffffffffffffffffffffffffffffffffff1673ffffffffffffffffffffffffffffffffffffffff16815260200190815260200160002060009054906101000a900460ff16905092915050565b600b548111156117c8576040517f53bb24f900000000000000000000000000000000000000000000000000000000815260040160405180910390fd5b7f000000000000000000000000000000000000000000000000000000000000000073ffffffffffffffffffffffffffffffffffffffff166342842e0e3330846040518463ffffffff1660e01b8152600401611825939291906131c5565b600060405180830381600087803b15801561183f57600080fd5b505af1158015611853573d6000803e3d6000fd5b505050507f000000000000000000000000000000000000000000000000000000000000000073ffffffffffffffffffffffffffffffffffffffff16633d4cfe213483633b9ac9ff6040518463ffffffff1660e01b81526004016118b7929190613278565b6000604051808303818588803b1580156118d057600080fd5b505af11580156118e4573d6000803e3d6000fd5b5050505050600033905060006118f861208e565b905060405180604001604052808481526020018373ffffffffffffffffffffffffffffffffffffffff16815250600c60008381526020019081526020016000206000820151816000015560208201518160010160006101000a81548173ffffffffffffffffffffffffffffffffffffffff021916908373ffffffffffffffffffffffffffffffffffffffff16021790555090505080600d600085815260200190815260200160002081905550600e60008373ffffffffffffffffffffffffffffffffffffffff1673ffffffffffffffffffffffffffffffffffffffff168152602001908152602001600020819080600181540180825580915050600190039060005260206000200160009091909190915055611a15826001612098565b7ff90572efd1ab4fb9c6b9dabfd24d103ce15482a9ec0c50e0e32618708783b15b818484604051611a48939291906131fc565b60405180910390a1505050565b611a5d611cfc565b600073ffffffffffffffffffffffffffffffffffffffff168173ffffffffffffffffffffffffffffffffffffffff161415611acd576040517f08c379a0000000000000000000000000000000000000000000000000000000008152600401611ac490613313565b60405180910390fd5b611ad681611d7a565b50565b7f000000000000000000000000000000000000000000000000000000000000000081565b600081611b086120b6565b11158015611b17575060015482105b8015611b55575060007c0100000000000000000000000000000000000000000000000000000000600560008581526020019081526020016000205416145b9050919050565b600033905090565b60008082905080611b736120b6565b11611bfb57600154811015611bfa5760006005600083815260200190815260200160002054905060007c010000000000000000000000000000000000000000000000000000000082161415611bf8575b6000811415611bee576005600083600190039350838152602001908152602001600020549050611bc3565b8092505050611c2d565b505b5b6040517fdf2d9b4200000000000000000000000000000000000000000000000000000000815260040160405180910390fd5b919050565b60008060006007600085815260200190815260200160002090508092508254915050915091565b600073ffffffffffffffffffffffffffffffffffffffff8316925073ffffffffffffffffffffffffffffffffffffffff821691508382148383141790509392505050565b50505050565b60008060e883901c905060e8611cba8686846120bf565b62ffffff16901b9150509392505050565b600073ffffffffffffffffffffffffffffffffffffffff83169250814260a01b178317905092915050565b50505050565b611d046120c8565b73ffffffffffffffffffffffffffffffffffffffff16611d22610f92565b73ffffffffffffffffffffffffffffffffffffffff1614611d78576040517f08c379a0000000000000000000000000000000000000000000000000000000008152600401611d6f9061337f565b60405180910390fd5b565b60008060009054906101000a900473ffffffffffffffffffffffffffffffffffffffff169050816000806101000a81548173ffffffffffffffffffffffffffffffffffffffff021916908373ffffffffffffffffffffffffffffffffffffffff1602179055508173ffffffffffffffffffffffffffffffffffffffff168173ffffffffffffffffffffffffffffffffffffffff167f8be0079c531659141344cd1fd0a4f28419497f9722a3daafe3b4186f6b6457e060405160405180910390a35050565b60008373ffffffffffffffffffffffffffffffffffffffff1663150b7a02611e64611b5c565b8786866040518563ffffffff1660e01b8152600401611e8694939291906133f4565b602060405180830381600087803b158015611ea057600080fd5b505af1925050508015611ed157506040513d601f19601f82011682018060405250810190611ece9190613455565b60015b611f4b573d8060008114611f01576040519150601f19603f3d011682016040523d82523d6000602084013e611f06565b606091505b50600081511415611f43576040517fd1a57ed600000000000000000000000000000000000000000000000000000000815260040160405180910390fd5b805181602001fd5b63150b7a0260e01b7bffffffffffffffffffffffffffffffffffffffffffffffffffffffff1916817bffffffffffffffffffffffffffffffffffffffffffffffffffffffff191614915050949350505050565b606060098054611fad90612e78565b80601f0160208091040260200160405190810160405280929190818152602001828054611fd990612e78565b80156120265780601f10611ffb57610100808354040283529160200191612026565b820191906000526020600020905b81548152906001019060200180831161200957829003601f168201915b5050505050905090565b606060806040510190508060405280825b60011561206c57600183039250600a81066030018353600a81049050806120675761206c565b612041565b508181036020830392508083525050919050565b61208b8160006120d0565b50565b6000600154905090565b6120b2828260405180602001604052806000815250612324565b5050565b60006001905090565b60009392505050565b600033905090565b60006120db83611b64565b905060008190506000806120ee86611c32565b9150915084156121575761210a8184612105611b5c565b611c59565b6121565761211f8361211a611b5c565b6116f8565b612155576040517f59c896be00000000000000000000000000000000000000000000000000000000815260040160405180910390fd5b5b5b612165836000886001611c9d565b801561217057600082555b600160806001901b03600660008573ffffffffffffffffffffffffffffffffffffffff1673ffffffffffffffffffffffffffffffffffffffff16815260200190815260200160002060008282540192505081905550612218836121d585600088611ca3565b7c02000000000000000000000000000000000000000000000000000000007c01000000000000000000000000000000000000000000000000000000001717611ccb565b600560008881526020019081526020016000208190555060007c0200000000000000000000000000000000000000000000000000000000851614156122a057600060018701905060006005600083815260200190815260200160002054141561229e57600154811461229d578460056000838152602001908152602001600020819055505b5b505b85600073ffffffffffffffffffffffffffffffffffffffff168473ffffffffffffffffffffffffffffffffffffffff167fddf252ad1be2c89b69c2b068fc378daa952ba7f163c4a11628f55a4df523b3ef60405160405180910390a461230a836000886001611cf6565b600260008154809291906001019190505550505050505050565b61232e83836123c2565b60008373ffffffffffffffffffffffffffffffffffffffff163b146123bd5760006001549050600083820390505b61236f6000868380600101945086611e3e565b6123a5576040517fd1a57ed600000000000000000000000000000000000000000000000000000000815260040160405180910390fd5b81811061235c5781600154146123ba57600080fd5b50505b505050565b600060015490506000821415612404576040517fb562e8dd00000000000000000000000000000000000000000000000000000000815260040160405180910390fd5b6124116000848385611c9d565b600160406001901b178202600660008573ffffffffffffffffffffffffffffffffffffffff1673ffffffffffffffffffffffffffffffffffffffff16815260200190815260200160002060008282540192505081905550612488836124796000866000611ca3565b61248285612580565b17611ccb565b6005600083815260200190815260200160002081905550600080838301905073ffffffffffffffffffffffffffffffffffffffff85169150828260007fddf252ad1be2c89b69c2b068fc378daa952ba7f163c4a11628f55a4df523b3ef600080a4600183015b81811461252957808360007fddf252ad1be2c89b69c2b068fc378daa952ba7f163c4a11628f55a4df523b3ef600080a46001810190506124ee565b506000821415612565576040517f2e07630000000000000000000000000000000000000000000000000000000000815260040160405180910390fd5b80600181905550505061257b6000848385611cf6565b505050565b60006001821460e11b9050919050565b82805461259c90612e78565b90600052602060002090601f0160209004810192826125be5760008555612605565b82601f106125d757803560ff1916838001178555612605565b82800160010185558215612605579182015b828111156126045782358255916020019190600101906125e9565b5b5090506126129190612616565b5090565b5b8082111561262f576000816000905550600101612617565b5090565b6000604051905090565b600080fd5b600080fd5b60007fffffffff0000000000000000000000000000000000000000000000000000000082169050919050565b61267c81612647565b811461268757600080fd5b50565b60008135905061269981612673565b92915050565b6000602082840312156126b5576126b461263d565b5b60006126c38482850161268a565b91505092915050565b60008115159050919050565b6126e1816126cc565b82525050565b60006020820190506126fc60008301846126d8565b92915050565b600081519050919050565b600082825260208201905092915050565b60005b8381101561273c578082015181840152602081019050612721565b8381111561274b576000848401525b50505050565b6000601f19601f8301169050919050565b600061276d82612702565b612777818561270d565b935061278781856020860161271e565b61279081612751565b840191505092915050565b600060208201905081810360008301526127b58184612762565b905092915050565b6000819050919050565b6127d0816127bd565b81146127db57600080fd5b50565b6000813590506127ed816127c7565b92915050565b6000602082840312156128095761280861263d565b5b6000612817848285016127de565b91505092915050565b600073ffffffffffffffffffffffffffffffffffffffff82169050919050565b600061284b82612820565b9050919050565b61285b81612840565b82525050565b60006020820190506128766000830184612852565b92915050565b61288581612840565b811461289057600080fd5b50565b6000813590506128a28161287c565b92915050565b600080604083850312156128bf576128be61263d565b5b60006128cd85828601612893565b92505060206128de858286016127de565b9150509250929050565b600080fd5b600080fd5b600080fd5b60008083601f84011261290d5761290c6128e8565b5b8235905067ffffffffffffffff81111561292a576129296128ed565b5b602083019150836001820283011115612946576129456128f2565b5b9250929050565b6000806000806000608086880312156129695761296861263d565b5b600061297788828901612893565b955050602061298888828901612893565b9450506040612999888289016127de565b935050606086013567ffffffffffffffff8111156129ba576129b9612642565b5b6129c6888289016128f7565b92509250509295509295909350565b6129de81612647565b82525050565b60006020820190506129f960008301846129d5565b92915050565b612a08816127bd565b82525050565b6000602082019050612a2360008301846129ff565b92915050565b600080600060608486031215612a4257612a4161263d565b5b6000612a5086828701612893565b9350506020612a6186828701612893565b9250506040612a72868287016127de565b9150509250925092565b600060208284031215612a9257612a9161263d565b5b6000612aa084828501612893565b91505092915050565b6000819050919050565b612abc81612aa9565b82525050565b60006fffffffffffffffffffffffffffffffff82169050919050565b612ae781612ac2565b82525050565b600060a0820190508181036000830152612b078188612762565b9050612b166020830187612ab3565b612b236040830186612ab3565b612b306060830185612ade565b612b3d6080830184612ade565b9695505050505050565b60008083601f840112612b5d57612b5c6128e8565b5b8235905067ffffffffffffffff811115612b7a57612b796128ed565b5b602083019150836001820283011115612b9657612b956128f2565b5b9250929050565b60008060208385031215612bb457612bb361263d565b5b600083013567ffffffffffffffff811115612bd257612bd1612642565b5b612bde85828601612b47565b92509250509250929050565b612bf3816126cc565b8114612bfe57600080fd5b50565b600081359050612c1081612bea565b92915050565b60008060408385031215612c2d57612c2c61263d565b5b6000612c3b85828601612893565b9250506020612c4c85828601612c01565b9150509250929050565b600080fd5b7f4e487b7100000000000000000000000000000000000000000000000000000000600052604160045260246000fd5b612c9382612751565b810181811067ffffffffffffffff82111715612cb257612cb1612c5b565b5b80604052505050565b6000612cc5612633565b9050612cd18282612c8a565b919050565b600067ffffffffffffffff821115612cf157612cf0612c5b565b5b612cfa82612751565b9050602081019050919050565b82818337600083830152505050565b6000612d29612d2484612cd6565b612cbb565b905082815260208101848484011115612d4557612d44612c56565b5b612d50848285612d07565b509392505050565b600082601f830112612d6d57612d6c6128e8565b5b8135612d7d848260208601612d16565b91505092915050565b60008060008060808587031215612da057612d9f61263d565b5b6000612dae87828801612893565b9450506020612dbf87828801612893565b9350506040612dd0878288016127de565b925050606085013567ffffffffffffffff811115612df157612df0612642565b5b612dfd87828801612d58565b91505092959194509250565b60008060408385031215612e2057612e1f61263d565b5b6000612e2e85828601612893565b9250506020612e3f85828601612893565b9150509250929050565b7f4e487b7100000000000000000000000000000000000000000000000000000000600052602260045260246000fd5b60006002820490506001821680612e9057607f821691505b60208210811415612ea457612ea3612e49565b5b50919050565b600081519050612eb9816127c7565b92915050565b600060208284031215612ed557612ed461263d565b5b6000612ee384828501612eaa565b91505092915050565b600081519050612efb8161287c565b92915050565b600060208284031215612f1757612f1661263d565b5b6000612f2584828501612eec565b91505092915050565b600067ffffffffffffffff821115612f4957612f48612c5b565b5b612f5282612751565b9050602081019050919050565b6000612f72612f6d84612f2e565b612cbb565b905082815260208101848484011115612f8e57612f8d612c56565b5b612f9984828561271e565b509392505050565b600082601f830112612fb657612fb56128e8565b5b8151612fc6848260208601612f5f565b91505092915050565b612fd881612aa9565b8114612fe357600080fd5b50565b600081519050612ff581612fcf565b92915050565b61300481612ac2565b811461300f57600080fd5b50565b60008151905061302181612ffb565b92915050565b600080600080600060a086880312156130435761304261263d565b5b600086015167ffffffffffffffff81111561306157613060612642565b5b61306d88828901612fa1565b955050602061307e88828901612fe6565b945050604061308f88828901612fe6565b93505060606130a088828901613012565b92505060806130b188828901613012565b9150509295509295909350565b600081905092915050565b60006130d482612702565b6130de81856130be565b93506130ee81856020860161271e565b80840191505092915050565b600061310682856130c9565b915061311282846130c9565b91508190509392505050565b7f4e487b7100000000000000000000000000000000000000000000000000000000600052603260045260246000fd5b7f4e487b7100000000000000000000000000000000000000000000000000000000600052601160045260246000fd5b6000613187826127bd565b91507fffffffffffffffffffffffffffffffffffffffffffffffffffffffffffffffff8214156131ba576131b961314d565b5b600182019050919050565b60006060820190506131da6000830186612852565b6131e76020830185612852565b6131f460408301846129ff565b949350505050565b600060608201905061321160008301866129ff565b61321e60208301856129ff565b61322b6040830184612852565b949350505050565b6000819050919050565b6000819050919050565b600061326261325d61325884613233565b61323d565b6127bd565b9050919050565b61327281613247565b82525050565b600060408201905061328d60008301856129ff565b61329a6020830184613269565b9392505050565b7f4f776e61626c653a206e6577206f776e657220697320746865207a65726f206160008201527f6464726573730000000000000000000000000000000000000000000000000000602082015250565b60006132fd60268361270d565b9150613308826132a1565b604082019050919050565b6000602082019050818103600083015261332c816132f0565b9050919050565b7f4f776e61626c653a2063616c6c6572206973206e6f7420746865206f776e6572600082015250565b600061336960208361270d565b915061337482613333565b602082019050919050565b600060208201905081810360008301526133988161335c565b9050919050565b600081519050919050565b600082825260208201905092915050565b60006133c68261339f565b6133d081856133aa565b93506133e081856020860161271e565b6133e981612751565b840191505092915050565b60006080820190506134096000830187612852565b6134166020830186612852565b61342360408301856129ff565b818103606083015261343581846133bb565b905095945050505050565b60008151905061344f81612673565b92915050565b60006020828403121561346b5761346a61263d565b5b600061347984828501613440565b9150509291505056fea2646970667358221220e665e5c9c5ed07c0548cc05353aca137d260aa71a4efa3ae35787bae32e1fdec64736f6c63430008090033",
  "linkReferences": {},
  "deployedLinkReferences": {}
}