{
  "_format": "hh-sol-artifact-1",
  "contractName": "IPCV0Wrapper",
  "sourceName": "contracts/IPCContract.sol",
  "abi": [
    {
      "inputs": [],
      "stateMutability": "nonpayable",
      "type": "constructor"
    },
    {
      "inputs": [],
      "name": "ApprovalCallerNotOwnerNorApproved",
      "type": "error"
    },
    {
      "inputs": [],
      "name": "ApprovalQueryForNonexistentToken",
      "type": "error"
    },
    {
      "inputs": [],
      "name": "ApproveToCaller",
      "type": "error"
    },
    {
      "inputs": [],
      "name": "BalanceQueryForZeroAddress",
      "type": "error"
    },
    {
      "inputs": [],
      "name": "MintERC2309QuantityExceedsLimit",
      "type": "error"
    },
    {
      "inputs": [],
      "name": "MintToZeroAddress",
      "type": "error"
    },
    {
      "inputs": [],
      "name": "MintZeroQuantity",
      "type": "error"
    },
    {
      "inputs": [],
      "name": "OwnerQueryForNonexistentToken",
      "type": "error"
    },
    {
      "inputs": [],
      "name": "OwnershipNotInitializedForExtraData",
      "type": "error"
    },
    {
      "inputs": [],
      "name": "TokenLimitReached",
      "type": "error"
    },
    {
      "inputs": [],
      "name": "TokenNotExist",
      "type": "error"
    },
    {
      "inputs": [],
      "name": "TokenNotOwner",
      "type": "error"
    },
    {
      "inputs": [],
      "name": "TransferCallerNotOwnerNorApproved",
      "type": "error"
    },
    {
      "inputs": [],
      "name": "TransferFromIncorrectOwner",
      "type": "error"
    },
    {
      "inputs": [],
      "name": "TransferToNonERC721ReceiverImplementer",
      "type": "error"
    },
    {
      "inputs": [],
      "name": "TransferToZeroAddress",
      "type": "error"
    },
    {
      "inputs": [],
      "name": "URIQueryForNonexistentToken",
      "type": "error"
    },
    {
      "anonymous": false,
      "inputs": [
        {
          "indexed": true,
          "internalType": "address",
          "name": "owner",
          "type": "address"
        },
        {
          "indexed": true,
          "internalType": "address",
          "name": "approved",
          "type": "address"
        },
        {
          "indexed": true,
          "internalType": "uint256",
          "name": "tokenId",
          "type": "uint256"
        }
      ],
      "name": "Approval",
      "type": "event"
    },
    {
      "anonymous": false,
      "inputs": [
        {
          "indexed": true,
          "internalType": "address",
          "name": "owner",
          "type": "address"
        },
        {
          "indexed": true,
          "internalType": "address",
          "name": "operator",
          "type": "address"
        },
        {
          "indexed": false,
          "internalType": "bool",
          "name": "approved",
          "type": "bool"
        }
      ],
      "name": "ApprovalForAll",
      "type": "event"
    },
    {
      "anonymous": false,
      "inputs": [
        {
          "indexed": true,
          "internalType": "uint256",
          "name": "fromTokenId",
          "type": "uint256"
        },
        {
          "indexed": false,
          "internalType": "uint256",
          "name": "toTokenId",
          "type": "uint256"
        },
        {
          "indexed": true,
          "internalType": "address",
          "name": "from",
          "type": "address"
        },
        {
          "indexed": true,
          "internalType": "address",
          "name": "to",
          "type": "address"
        }
      ],
      "name": "ConsecutiveTransfer",
      "type": "event"
    },
    {
      "anonymous": false,
      "inputs": [
        {
          "indexed": true,
          "internalType": "address",
          "name": "previousOwner",
          "type": "address"
        },
        {
          "indexed": true,
          "internalType": "address",
          "name": "newOwner",
          "type": "address"
        }
      ],
      "name": "OwnershipTransferred",
      "type": "event"
    },
    {
      "anonymous": false,
      "inputs": [
        {
          "indexed": true,
          "internalType": "address",
          "name": "from",
          "type": "address"
        },
        {
          "indexed": true,
          "internalType": "address",
          "name": "to",
          "type": "address"
        },
        {
          "indexed": true,
          "internalType": "uint256",
          "name": "tokenId",
          "type": "uint256"
        }
      ],
      "name": "Transfer",
      "type": "event"
    },
    {
      "anonymous": false,
      "inputs": [
        {
          "indexed": false,
          "internalType": "uint256",
          "name": "",
          "type": "uint256"
        },
        {
          "indexed": false,
          "internalType": "uint256",
          "name": "",
          "type": "uint256"
        },
        {
          "indexed": false,
          "internalType": "address",
          "name": "",
          "type": "address"
        }
      ],
      "name": "Unwrapped",
      "type": "event"
    },
    {
      "anonymous": false,
      "inputs": [
        {
          "indexed": false,
          "internalType": "uint256",
          "name": "",
          "type": "uint256"
        },
        {
          "indexed": false,
          "internalType": "uint256",
          "name": "",
          "type": "uint256"
        },
        {
          "indexed": false,
          "internalType": "address",
          "name": "",
          "type": "address"
        }
      ],
      "name": "Wrapped",
      "type": "event"
    },
    {
      "inputs": [
        {
          "internalType": "address",
          "name": "to",
          "type": "address"
        },
        {
          "internalType": "uint256",
          "name": "tokenId",
          "type": "uint256"
        }
      ],
      "name": "approve",
      "outputs": [],
      "stateMutability": "nonpayable",
      "type": "function"
    },
    {
      "inputs": [
        {
          "internalType": "address",
          "name": "owner",
          "type": "address"
        }
      ],
      "name": "balanceOf",
      "outputs": [
        {
          "internalType": "uint256",
          "name": "",
          "type": "uint256"
        }
      ],
      "stateMutability": "view",
      "type": "function"
    },
    {
      "inputs": [],
      "name": "contractAddress",
      "outputs": [
        {
          "internalType": "address",
          "name": "",
          "type": "address"
        }
      ],
      "stateMutability": "view",
      "type": "function"
    },
    {
      "inputs": [
        {
          "internalType": "uint256",
          "name": "tokenId",
          "type": "uint256"
        }
      ],
      "name": "getApproved",
      "outputs": [
        {
          "internalType": "address",
          "name": "",
          "type": "address"
        }
      ],
      "stateMutability": "view",
      "type": "function"
    },
    {
      "inputs": [
        {
          "internalType": "address",
          "name": "owner",
          "type": "address"
        },
        {
          "internalType": "address",
          "name": "operator",
          "type": "address"
        }
      ],
      "name": "isApprovedForAll",
      "outputs": [
        {
          "internalType": "bool",
          "name": "",
          "type": "bool"
        }
      ],
      "stateMutability": "view",
      "type": "function"
    },
    {
      "inputs": [],
      "name": "name",
      "outputs": [
        {
          "internalType": "string",
          "name": "",
          "type": "string"
        }
      ],
      "stateMutability": "view",
      "type": "function"
    },
    {
      "inputs": [
        {
          "internalType": "address",
          "name": "",
          "type": "address"
        },
        {
          "internalType": "address",
          "name": "",
          "type": "address"
        },
        {
          "internalType": "uint256",
          "name": "",
          "type": "uint256"
        },
        {
          "internalType": "bytes",
          "name": "",
          "type": "bytes"
        }
      ],
      "name": "onERC721Received",
      "outputs": [
        {
          "internalType": "bytes4",
          "name": "",
          "type": "bytes4"
        }
      ],
      "stateMutability": "pure",
      "type": "function"
    },
    {
      "inputs": [],
      "name": "owner",
      "outputs": [
        {
          "internalType": "address",
          "name": "",
          "type": "address"
        }
      ],
      "stateMutability": "view",
      "type": "function"
    },
    {
      "inputs": [
        {
          "internalType": "uint256",
          "name": "tokenId",
          "type": "uint256"
        }
      ],
      "name": "ownerOf",
      "outputs": [
        {
          "internalType": "address",
          "name": "",
          "type": "address"
        }
      ],
      "stateMutability": "view",
      "type": "function"
    },
    {
      "inputs": [],
      "name": "renounceOwnership",
      "outputs": [],
      "stateMutability": "nonpayable",
      "type": "function"
    },
    {
      "inputs": [
        {
          "internalType": "address",
          "name": "from",
          "type": "address"
        },
        {
          "internalType": "address",
          "name": "to",
          "type": "address"
        },
        {
          "internalType": "uint256",
          "name": "tokenId",
          "type": "uint256"
        }
      ],
      "name": "safeTransferFrom",
      "outputs": [],
      "stateMutability": "nonpayable",
      "type": "function"
    },
    {
      "inputs": [
        {
          "internalType": "address",
          "name": "from",
          "type": "address"
        },
        {
          "internalType": "address",
          "name": "to",
          "type": "address"
        },
        {
          "internalType": "uint256",
          "name": "tokenId",
          "type": "uint256"
        },
        {
          "internalType": "bytes",
          "name": "_data",
          "type": "bytes"
        }
      ],
      "name": "safeTransferFrom",
      "outputs": [],
      "stateMutability": "nonpayable",
      "type": "function"
    },
    {
      "inputs": [
        {
          "internalType": "address",
          "name": "operator",
          "type": "address"
        },
        {
          "internalType": "bool",
          "name": "approved",
          "type": "bool"
        }
      ],
      "name": "setApprovalForAll",
      "outputs": [],
      "stateMutability": "nonpayable",
      "type": "function"
    },
    {
      "inputs": [
        {
          "internalType": "bytes4",
          "name": "interfaceId",
          "type": "bytes4"
        }
      ],
      "name": "supportsInterface",
      "outputs": [
        {
          "internalType": "bool",
          "name": "",
          "type": "bool"
        }
      ],
      "stateMutability": "view",
      "type": "function"
    },
    {
      "inputs": [],
      "name": "symbol",
      "outputs": [
        {
          "internalType": "string",
          "name": "",
          "type": "string"
        }
      ],
      "stateMutability": "view",
      "type": "function"
    },
    {
      "inputs": [
        {
          "internalType": "uint256",
          "name": "tokenId",
          "type": "uint256"
        }
      ],
      "name": "tokenURI",
      "outputs": [
        {
          "internalType": "string",
          "name": "",
          "type": "string"
        }
      ],
      "stateMutability": "view",
      "type": "function"
    },
    {
      "inputs": [],
      "name": "totalSupply",
      "outputs": [
        {
          "internalType": "uint256",
          "name": "",
          "type": "uint256"
        }
      ],
      "stateMutability": "view",
      "type": "function"
    },
    {
      "inputs": [
        {
          "internalType": "address",
          "name": "from",
          "type": "address"
        },
        {
          "internalType": "address",
          "name": "to",
          "type": "address"
        },
        {
          "internalType": "uint256",
          "name": "tokenId",
          "type": "uint256"
        }
      ],
      "name": "transferFrom",
      "outputs": [],
      "stateMutability": "nonpayable",
      "type": "function"
    },
    {
      "inputs": [
        {
          "internalType": "address",
          "name": "newOwner",
          "type": "address"
        }
      ],
      "name": "transferOwnership",
      "outputs": [],
      "stateMutability": "nonpayable",
      "type": "function"
    },
    {
      "inputs": [
        {
          "internalType": "uint256",
          "name": "tokenId",
          "type": "uint256"
        }
      ],
      "name": "unwrap",
      "outputs": [],
      "stateMutability": "nonpayable",
      "type": "function"
    },
    {
      "inputs": [
        {
          "internalType": "uint256",
          "name": "tokenId",
          "type": "uint256"
        }
      ],
      "name": "wrap",
      "outputs": [],
      "stateMutability": "payable",
      "type": "function"
    }
  ],
  "bytecode": "0x60a06040523480156200001157600080fd5b506040518060400160405280601d81526020017f496d6d6f7274616c20506c6179657220436861726163746572732076300000008152506040518060400160405280600581526020017f49504356300000000000000000000000000000000000000000000000000000008152506200009e620000926200012c60201b60201c565b6200013460201b60201c565b8160039080519060200190620000b692919062000201565b508060049080519060200190620000cf92919062000201565b50620000e0620001f860201b60201c565b6001819055505050600073ffffffffffffffffffffffffffffffffffffffff1660808173ffffffffffffffffffffffffffffffffffffffff16815250506103e860098190555062000316565b600033905090565b60008060009054906101000a900473ffffffffffffffffffffffffffffffffffffffff169050816000806101000a81548173ffffffffffffffffffffffffffffffffffffffff021916908373ffffffffffffffffffffffffffffffffffffffff1602179055508173ffffffffffffffffffffffffffffffffffffffff168173ffffffffffffffffffffffffffffffffffffffff167f8be0079c531659141344cd1fd0a4f28419497f9722a3daafe3b4186f6b6457e060405160405180910390a35050565b60006001905090565b8280546200020f90620002e0565b90600052602060002090601f0160209004810192826200023357600085556200027f565b82601f106200024e57805160ff19168380011785556200027f565b828001600101855582156200027f579182015b828111156200027e57825182559160200191906001019062000261565b5b5090506200028e919062000292565b5090565b5b80821115620002ad57600081600090555060010162000293565b5090565b7f4e487b7100000000000000000000000000000000000000000000000000000000600052602260045260246000fd5b60006002820490506001821680620002f957607f821691505b6020821081141562000310576200030f620002b1565b5b50919050565b608051612c1762000347600039600081816111fd0152818161139c0152818161142b01526116ad0152612c176000f3fe60806040526004361061012a5760003560e01c8063715018a6116100ab578063c87b56dd1161006f578063c87b56dd146103f0578063de0e9a3e1461042d578063e985e9c514610456578063ea598cb014610493578063f2fde38b146104af578063f6b4dfb4146104d85761012a565b8063715018a6146103315780638da5cb5b1461034857806395d89b4114610373578063a22cb4651461039e578063b88d4fde146103c75761012a565b806318160ddd116100f257806318160ddd1461023a57806323b872dd1461026557806342842e0e1461028e5780636352211e146102b757806370a08231146102f45761012a565b806301ffc9a71461012f57806306fdde031461016c578063081812fc14610197578063095ea7b3146101d4578063150b7a02146101fd575b600080fd5b34801561013b57600080fd5b5061015660048036038101906101519190612153565b610503565b604051610163919061219b565b60405180910390f35b34801561017857600080fd5b50610181610595565b60405161018e919061224f565b60405180910390f35b3480156101a357600080fd5b506101be60048036038101906101b991906122a7565b610627565b6040516101cb9190612315565b60405180910390f35b3480156101e057600080fd5b506101fb60048036038101906101f6919061235c565b6106a6565b005b34801561020957600080fd5b50610224600480360381019061021f9190612401565b6107ea565b6040516102319190612498565b60405180910390f35b34801561024657600080fd5b5061024f6107ff565b60405161025c91906124c2565b60405180910390f35b34801561027157600080fd5b5061028c600480360381019061028791906124dd565b610816565b005b34801561029a57600080fd5b506102b560048036038101906102b091906124dd565b610b3b565b005b3480156102c357600080fd5b506102de60048036038101906102d991906122a7565b610b5b565b6040516102eb9190612315565b60405180910390f35b34801561030057600080fd5b5061031b60048036038101906103169190612530565b610b6d565b60405161032891906124c2565b60405180910390f35b34801561033d57600080fd5b50610346610c26565b005b34801561035457600080fd5b5061035d610c3a565b60405161036a9190612315565b60405180910390f35b34801561037f57600080fd5b50610388610c63565b604051610395919061224f565b60405180910390f35b3480156103aa57600080fd5b506103c560048036038101906103c09190612589565b610cf5565b005b3480156103d357600080fd5b506103ee60048036038101906103e991906126f9565b610e6d565b005b3480156103fc57600080fd5b50610417600480360381019061041291906122a7565b610ee0565b604051610424919061224f565b60405180910390f35b34801561043957600080fd5b50610454600480360381019061044f91906122a7565b610f7f565b005b34801561046257600080fd5b5061047d6004803603810190610478919061277c565b6112ca565b60405161048a919061219b565b60405180910390f35b6104ad60048036038101906104a891906122a7565b61135e565b005b3480156104bb57600080fd5b506104d660048036038101906104d19190612530565b611627565b005b3480156104e457600080fd5b506104ed6116ab565b6040516104fa9190612315565b60405180910390f35b60006301ffc9a760e01b827bffffffffffffffffffffffffffffffffffffffffffffffffffffffff1916148061055e57506380ac58cd60e01b827bffffffffffffffffffffffffffffffffffffffffffffffffffffffff1916145b8061058e5750635b5e139f60e01b827bffffffffffffffffffffffffffffffffffffffffffffffffffffffff1916145b9050919050565b6060600380546105a4906127eb565b80601f01602080910402602001604051908101604052809291908181526020018280546105d0906127eb565b801561061d5780601f106105f25761010080835404028352916020019161061d565b820191906000526020600020905b81548152906001019060200180831161060057829003601f168201915b5050505050905090565b6000610632826116cf565b610668576040517fcf4700e400000000000000000000000000000000000000000000000000000000815260040160405180910390fd5b6007600083815260200190815260200160002060000160009054906101000a900473ffffffffffffffffffffffffffffffffffffffff169050919050565b60006106b182610b5b565b90508073ffffffffffffffffffffffffffffffffffffffff166106d261172e565b73ffffffffffffffffffffffffffffffffffffffff1614610735576106fe816106f961172e565b6112ca565b610734576040517fcfb3b94200000000000000000000000000000000000000000000000000000000815260040160405180910390fd5b5b826007600084815260200190815260200160002060000160006101000a81548173ffffffffffffffffffffffffffffffffffffffff021916908373ffffffffffffffffffffffffffffffffffffffff160217905550818373ffffffffffffffffffffffffffffffffffffffff168273ffffffffffffffffffffffffffffffffffffffff167f8c5be1e5ebec7d5bd14f71427d1e84f3dd0314c0f7b2291e5b200ac8c7c3b92560405160405180910390a4505050565b600063150b7a0260e01b905095945050505050565b6000610809611736565b6002546001540303905090565b60006108218261173f565b90508373ffffffffffffffffffffffffffffffffffffffff168173ffffffffffffffffffffffffffffffffffffffff1614610888576040517fa114810000000000000000000000000000000000000000000000000000000000815260040160405180910390fd5b6000806108948461180d565b915091506108aa81876108a561172e565b611834565b6108f6576108bf866108ba61172e565b6112ca565b6108f5576040517f59c896be00000000000000000000000000000000000000000000000000000000815260040160405180910390fd5b5b600073ffffffffffffffffffffffffffffffffffffffff168573ffffffffffffffffffffffffffffffffffffffff16141561095d576040517fea553b3400000000000000000000000000000000000000000000000000000000815260040160405180910390fd5b61096a8686866001611878565b801561097557600082555b600660008773ffffffffffffffffffffffffffffffffffffffff1673ffffffffffffffffffffffffffffffffffffffff168152602001908152602001600020600081546001900391905081905550600660008673ffffffffffffffffffffffffffffffffffffffff1673ffffffffffffffffffffffffffffffffffffffff1681526020019081526020016000206000815460010191905081905550610a4385610a1f88888761187e565b7c0200000000000000000000000000000000000000000000000000000000176118a6565b600560008681526020019081526020016000208190555060007c020000000000000000000000000000000000000000000000000000000084161415610acb576000600185019050600060056000838152602001908152602001600020541415610ac9576001548114610ac8578360056000838152602001908152602001600020819055505b5b505b838573ffffffffffffffffffffffffffffffffffffffff168773ffffffffffffffffffffffffffffffffffffffff167fddf252ad1be2c89b69c2b068fc378daa952ba7f163c4a11628f55a4df523b3ef60405160405180910390a4610b3386868660016118d1565b505050505050565b610b5683838360405180602001604052806000815250610e6d565b505050565b6000610b668261173f565b9050919050565b60008073ffffffffffffffffffffffffffffffffffffffff168273ffffffffffffffffffffffffffffffffffffffff161415610bd5576040517f8f4eb60400000000000000000000000000000000000000000000000000000000815260040160405180910390fd5b67ffffffffffffffff600660008473ffffffffffffffffffffffffffffffffffffffff1673ffffffffffffffffffffffffffffffffffffffff16815260200190815260200160002054169050919050565b610c2e6118d7565b610c386000611955565b565b60008060009054906101000a900473ffffffffffffffffffffffffffffffffffffffff16905090565b606060048054610c72906127eb565b80601f0160208091040260200160405190810160405280929190818152602001828054610c9e906127eb565b8015610ceb5780601f10610cc057610100808354040283529160200191610ceb565b820191906000526020600020905b815481529060010190602001808311610cce57829003601f168201915b5050505050905090565b610cfd61172e565b73ffffffffffffffffffffffffffffffffffffffff168273ffffffffffffffffffffffffffffffffffffffff161415610d62576040517fb06307db00000000000000000000000000000000000000000000000000000000815260040160405180910390fd5b8060086000610d6f61172e565b73ffffffffffffffffffffffffffffffffffffffff1673ffffffffffffffffffffffffffffffffffffffff16815260200190815260200160002060008473ffffffffffffffffffffffffffffffffffffffff1673ffffffffffffffffffffffffffffffffffffffff16815260200190815260200160002060006101000a81548160ff0219169083151502179055508173ffffffffffffffffffffffffffffffffffffffff16610e1c61172e565b73ffffffffffffffffffffffffffffffffffffffff167f17307eab39ab6107e8899845ad3d59bd9653f200f220920489ca2b5937696c3183604051610e61919061219b565b60405180910390a35050565b610e78848484610816565b60008373ffffffffffffffffffffffffffffffffffffffff163b14610eda57610ea384848484611a19565b610ed9576040517fd1a57ed600000000000000000000000000000000000000000000000000000000815260040160405180910390fd5b5b50505050565b6060610eeb826116cf565b610f21576040517fa14c4b5000000000000000000000000000000000000000000000000000000000815260040160405180910390fd5b6000610f2b611b79565b9050600081511415610f4c5760405180602001604052806000815250610f77565b80610f5684611b90565b604051602001610f67929190612859565b6040516020818303038152906040525b915050919050565b6000600b60008381526020019081526020016000205490506000811415610fd2576040517f4494362200000000000000000000000000000000000000000000000000000000815260040160405180910390fd5b60003390508073ffffffffffffffffffffffffffffffffffffffff16600a600084815260200190815260200160002060010160009054906101000a900473ffffffffffffffffffffffffffffffffffffffff1673ffffffffffffffffffffffffffffffffffffffff1614611072576040517ff637a3e300000000000000000000000000000000000000000000000000000000815260040160405180910390fd5b600b600084815260200190815260200160002060009055600a60008381526020019081526020016000206000808201600090556001820160006101000a81549073ffffffffffffffffffffffffffffffffffffffff0219169055505060005b600c60008373ffffffffffffffffffffffffffffffffffffffff1673ffffffffffffffffffffffffffffffffffffffff168152602001908152602001600020805490508110156111f15783600c60008473ffffffffffffffffffffffffffffffffffffffff1673ffffffffffffffffffffffffffffffffffffffff168152602001908152602001600020828154811061116d5761116c61287d565b5b906000526020600020015414156111de57600c60008373ffffffffffffffffffffffffffffffffffffffff1673ffffffffffffffffffffffffffffffffffffffff16815260200190815260200160002081815481106111cf576111ce61287d565b5b90600052602060002001600090555b80806111e9906128db565b9150506110d1565b506111fb82611be0565b7f000000000000000000000000000000000000000000000000000000000000000073ffffffffffffffffffffffffffffffffffffffff166342842e0e3083866040518463ffffffff1660e01b815260040161125893929190612924565b600060405180830381600087803b15801561127257600080fd5b505af1158015611286573d6000803e3d6000fd5b505050507f175e3dad2e6c10f120d3216de54ebe7abeee5b7f33c8941af43e73a0315e4a808284836040516112bd9392919061295b565b60405180910390a1505050565b6000600860008473ffffffffffffffffffffffffffffffffffffffff1673ffffffffffffffffffffffffffffffffffffffff16815260200190815260200160002060008373ffffffffffffffffffffffffffffffffffffffff1673ffffffffffffffffffffffffffffffffffffffff16815260200190815260200160002060009054906101000a900460ff16905092915050565b60095481111561139a576040517f53bb24f900000000000000000000000000000000000000000000000000000000815260040160405180910390fd5b7f000000000000000000000000000000000000000000000000000000000000000073ffffffffffffffffffffffffffffffffffffffff166342842e0e3330846040518463ffffffff1660e01b81526004016113f793929190612924565b600060405180830381600087803b15801561141157600080fd5b505af1158015611425573d6000803e3d6000fd5b505050507f000000000000000000000000000000000000000000000000000000000000000073ffffffffffffffffffffffffffffffffffffffff16633d4cfe213483633b9ac9ff6040518463ffffffff1660e01b81526004016114899291906129d7565b6000604051808303818588803b1580156114a257600080fd5b505af11580156114b6573d6000803e3d6000fd5b5050505050600033905060006114ca611bee565b905060405180604001604052808481526020018373ffffffffffffffffffffffffffffffffffffffff16815250600a60008381526020019081526020016000206000820151816000015560208201518160010160006101000a81548173ffffffffffffffffffffffffffffffffffffffff021916908373ffffffffffffffffffffffffffffffffffffffff16021790555090505080600b600085815260200190815260200160002081905550600c60008373ffffffffffffffffffffffffffffffffffffffff1673ffffffffffffffffffffffffffffffffffffffff1681526020019081526020016000208190806001815401808255809150506001900390600052602060002001600090919091909150556115e7826001611bf8565b7ff90572efd1ab4fb9c6b9dabfd24d103ce15482a9ec0c50e0e32618708783b15b81848460405161161a9392919061295b565b60405180910390a1505050565b61162f6118d7565b600073ffffffffffffffffffffffffffffffffffffffff168173ffffffffffffffffffffffffffffffffffffffff16141561169f576040517f08c379a000000000000000000000000000000000000000000000000000000000815260040161169690612a72565b60405180910390fd5b6116a881611955565b50565b7f000000000000000000000000000000000000000000000000000000000000000081565b6000816116da611736565b111580156116e9575060015482105b8015611727575060007c0100000000000000000000000000000000000000000000000000000000600560008581526020019081526020016000205416145b9050919050565b600033905090565b60006001905090565b6000808290508061174e611736565b116117d6576001548110156117d55760006005600083815260200190815260200160002054905060007c0100000000000000000000000000000000000000000000000000000000821614156117d3575b60008114156117c957600560008360019003935083815260200190815260200160002054905061179e565b8092505050611808565b505b5b6040517fdf2d9b4200000000000000000000000000000000000000000000000000000000815260040160405180910390fd5b919050565b60008060006007600085815260200190815260200160002090508092508254915050915091565b600073ffffffffffffffffffffffffffffffffffffffff8316925073ffffffffffffffffffffffffffffffffffffffff821691508382148383141790509392505050565b50505050565b60008060e883901c905060e8611895868684611c16565b62ffffff16901b9150509392505050565b600073ffffffffffffffffffffffffffffffffffffffff83169250814260a01b178317905092915050565b50505050565b6118df611c1f565b73ffffffffffffffffffffffffffffffffffffffff166118fd610c3a565b73ffffffffffffffffffffffffffffffffffffffff1614611953576040517f08c379a000000000000000000000000000000000000000000000000000000000815260040161194a90612ade565b60405180910390fd5b565b60008060009054906101000a900473ffffffffffffffffffffffffffffffffffffffff169050816000806101000a81548173ffffffffffffffffffffffffffffffffffffffff021916908373ffffffffffffffffffffffffffffffffffffffff1602179055508173ffffffffffffffffffffffffffffffffffffffff168173ffffffffffffffffffffffffffffffffffffffff167f8be0079c531659141344cd1fd0a4f28419497f9722a3daafe3b4186f6b6457e060405160405180910390a35050565b60008373ffffffffffffffffffffffffffffffffffffffff1663150b7a02611a3f61172e565b8786866040518563ffffffff1660e01b8152600401611a619493929190612b53565b602060405180830381600087803b158015611a7b57600080fd5b505af1925050508015611aac57506040513d601f19601f82011682018060405250810190611aa99190612bb4565b60015b611b26573d8060008114611adc576040519150601f19603f3d011682016040523d82523d6000602084013e611ae1565b606091505b50600081511415611b1e576040517fd1a57ed600000000000000000000000000000000000000000000000000000000815260040160405180910390fd5b805181602001fd5b63150b7a0260e01b7bffffffffffffffffffffffffffffffffffffffffffffffffffffffff1916817bffffffffffffffffffffffffffffffffffffffffffffffffffffffff191614915050949350505050565b606060405180602001604052806000815250905090565b606060806040510190508060405280825b600115611bcc57600183039250600a81066030018353600a8104905080611bc757611bcc565b611ba1565b508181036020830392508083525050919050565b611beb816000611c27565b50565b6000600154905090565b611c12828260405180602001604052806000815250611e7b565b5050565b60009392505050565b600033905090565b6000611c328361173f565b90506000819050600080611c458661180d565b915091508415611cae57611c618184611c5c61172e565b611834565b611cad57611c7683611c7161172e565b6112ca565b611cac576040517f59c896be00000000000000000000000000000000000000000000000000000000815260040160405180910390fd5b5b5b611cbc836000886001611878565b8015611cc757600082555b600160806001901b03600660008573ffffffffffffffffffffffffffffffffffffffff1673ffffffffffffffffffffffffffffffffffffffff16815260200190815260200160002060008282540192505081905550611d6f83611d2c8560008861187e565b7c02000000000000000000000000000000000000000000000000000000007c010000000000000000000000000000000000000000000000000000000017176118a6565b600560008881526020019081526020016000208190555060007c020000000000000000000000000000000000000000000000000000000085161415611df7576000600187019050600060056000838152602001908152602001600020541415611df5576001548114611df4578460056000838152602001908152602001600020819055505b5b505b85600073ffffffffffffffffffffffffffffffffffffffff168473ffffffffffffffffffffffffffffffffffffffff167fddf252ad1be2c89b69c2b068fc378daa952ba7f163c4a11628f55a4df523b3ef60405160405180910390a4611e618360008860016118d1565b600260008154809291906001019190505550505050505050565b611e858383611f19565b60008373ffffffffffffffffffffffffffffffffffffffff163b14611f145760006001549050600083820390505b611ec66000868380600101945086611a19565b611efc576040517fd1a57ed600000000000000000000000000000000000000000000000000000000815260040160405180910390fd5b818110611eb3578160015414611f1157600080fd5b50505b505050565b600060015490506000821415611f5b576040517fb562e8dd00000000000000000000000000000000000000000000000000000000815260040160405180910390fd5b611f686000848385611878565b600160406001901b178202600660008573ffffffffffffffffffffffffffffffffffffffff1673ffffffffffffffffffffffffffffffffffffffff16815260200190815260200160002060008282540192505081905550611fdf83611fd0600086600061187e565b611fd9856120d7565b176118a6565b6005600083815260200190815260200160002081905550600080838301905073ffffffffffffffffffffffffffffffffffffffff85169150828260007fddf252ad1be2c89b69c2b068fc378daa952ba7f163c4a11628f55a4df523b3ef600080a4600183015b81811461208057808360007fddf252ad1be2c89b69c2b068fc378daa952ba7f163c4a11628f55a4df523b3ef600080a4600181019050612045565b5060008214156120bc576040517f2e07630000000000000000000000000000000000000000000000000000000000815260040160405180910390fd5b8060018190555050506120d260008483856118d1565b505050565b60006001821460e11b9050919050565b6000604051905090565b600080fd5b600080fd5b60007fffffffff0000000000000000000000000000000000000000000000000000000082169050919050565b612130816120fb565b811461213b57600080fd5b50565b60008135905061214d81612127565b92915050565b600060208284031215612169576121686120f1565b5b60006121778482850161213e565b91505092915050565b60008115159050919050565b61219581612180565b82525050565b60006020820190506121b0600083018461218c565b92915050565b600081519050919050565b600082825260208201905092915050565b60005b838110156121f05780820151818401526020810190506121d5565b838111156121ff576000848401525b50505050565b6000601f19601f8301169050919050565b6000612221826121b6565b61222b81856121c1565b935061223b8185602086016121d2565b61224481612205565b840191505092915050565b600060208201905081810360008301526122698184612216565b905092915050565b6000819050919050565b61228481612271565b811461228f57600080fd5b50565b6000813590506122a18161227b565b92915050565b6000602082840312156122bd576122bc6120f1565b5b60006122cb84828501612292565b91505092915050565b600073ffffffffffffffffffffffffffffffffffffffff82169050919050565b60006122ff826122d4565b9050919050565b61230f816122f4565b82525050565b600060208201905061232a6000830184612306565b92915050565b612339816122f4565b811461234457600080fd5b50565b60008135905061235681612330565b92915050565b60008060408385031215612373576123726120f1565b5b600061238185828601612347565b925050602061239285828601612292565b9150509250929050565b600080fd5b600080fd5b600080fd5b60008083601f8401126123c1576123c061239c565b5b8235905067ffffffffffffffff8111156123de576123dd6123a1565b5b6020830191508360018202830111156123fa576123f96123a6565b5b9250929050565b60008060008060006080868803121561241d5761241c6120f1565b5b600061242b88828901612347565b955050602061243c88828901612347565b945050604061244d88828901612292565b935050606086013567ffffffffffffffff81111561246e5761246d6120f6565b5b61247a888289016123ab565b92509250509295509295909350565b612492816120fb565b82525050565b60006020820190506124ad6000830184612489565b92915050565b6124bc81612271565b82525050565b60006020820190506124d760008301846124b3565b92915050565b6000806000606084860312156124f6576124f56120f1565b5b600061250486828701612347565b935050602061251586828701612347565b925050604061252686828701612292565b9150509250925092565b600060208284031215612546576125456120f1565b5b600061255484828501612347565b91505092915050565b61256681612180565b811461257157600080fd5b50565b6000813590506125838161255d565b92915050565b600080604083850312156125a05761259f6120f1565b5b60006125ae85828601612347565b92505060206125bf85828601612574565b9150509250929050565b600080fd5b7f4e487b7100000000000000000000000000000000000000000000000000000000600052604160045260246000fd5b61260682612205565b810181811067ffffffffffffffff82111715612625576126246125ce565b5b80604052505050565b60006126386120e7565b905061264482826125fd565b919050565b600067ffffffffffffffff821115612664576126636125ce565b5b61266d82612205565b9050602081019050919050565b82818337600083830152505050565b600061269c61269784612649565b61262e565b9050828152602081018484840111156126b8576126b76125c9565b5b6126c384828561267a565b509392505050565b600082601f8301126126e0576126df61239c565b5b81356126f0848260208601612689565b91505092915050565b60008060008060808587031215612713576127126120f1565b5b600061272187828801612347565b945050602061273287828801612347565b935050604061274387828801612292565b925050606085013567ffffffffffffffff811115612764576127636120f6565b5b612770878288016126cb565b91505092959194509250565b60008060408385031215612793576127926120f1565b5b60006127a185828601612347565b92505060206127b285828601612347565b9150509250929050565b7f4e487b7100000000000000000000000000000000000000000000000000000000600052602260045260246000fd5b6000600282049050600182168061280357607f821691505b60208210811415612817576128166127bc565b5b50919050565b600081905092915050565b6000612833826121b6565b61283d818561281d565b935061284d8185602086016121d2565b80840191505092915050565b60006128658285612828565b91506128718284612828565b91508190509392505050565b7f4e487b7100000000000000000000000000000000000000000000000000000000600052603260045260246000fd5b7f4e487b7100000000000000000000000000000000000000000000000000000000600052601160045260246000fd5b60006128e682612271565b91507fffffffffffffffffffffffffffffffffffffffffffffffffffffffffffffffff821415612919576129186128ac565b5b600182019050919050565b60006060820190506129396000830186612306565b6129466020830185612306565b61295360408301846124b3565b949350505050565b600060608201905061297060008301866124b3565b61297d60208301856124b3565b61298a6040830184612306565b949350505050565b6000819050919050565b6000819050919050565b60006129c16129bc6129b784612992565b61299c565b612271565b9050919050565b6129d1816129a6565b82525050565b60006040820190506129ec60008301856124b3565b6129f960208301846129c8565b9392505050565b7f4f776e61626c653a206e6577206f776e657220697320746865207a65726f206160008201527f6464726573730000000000000000000000000000000000000000000000000000602082015250565b6000612a5c6026836121c1565b9150612a6782612a00565b604082019050919050565b60006020820190508181036000830152612a8b81612a4f565b9050919050565b7f4f776e61626c653a2063616c6c6572206973206e6f7420746865206f776e6572600082015250565b6000612ac86020836121c1565b9150612ad382612a92565b602082019050919050565b60006020820190508181036000830152612af781612abb565b9050919050565b600081519050919050565b600082825260208201905092915050565b6000612b2582612afe565b612b2f8185612b09565b9350612b3f8185602086016121d2565b612b4881612205565b840191505092915050565b6000608082019050612b686000830187612306565b612b756020830186612306565b612b8260408301856124b3565b8181036060830152612b948184612b1a565b905095945050505050565b600081519050612bae81612127565b92915050565b600060208284031215612bca57612bc96120f1565b5b6000612bd884828501612b9f565b9150509291505056fea2646970667358221220d21f7307a027f79cf9725edd456a0567ba33d40e75d5f077ffea02d4e481694364736f6c63430008090033",
  "linkReferences": {},
  "deployedLinkReferences": {}
}