{
  "_format": "hh-sol-artifact-1",
  "contractName": "IPCV0Wrapper",
  "sourceName": "contracts/IPCContract.sol",
  "abi": [
    {
      "inputs": [],
      "stateMutability": "nonpayable",
      "type": "constructor"
    },
    {
      "inputs": [],
      "name": "ApprovalCallerNotOwnerNorApproved",
      "type": "error"
    },
    {
      "inputs": [],
      "name": "ApprovalQueryForNonexistentToken",
      "type": "error"
    },
    {
      "inputs": [],
      "name": "ApproveToCaller",
      "type": "error"
    },
    {
      "inputs": [],
      "name": "BalanceQueryForZeroAddress",
      "type": "error"
    },
    {
      "inputs": [],
      "name": "MintERC2309QuantityExceedsLimit",
      "type": "error"
    },
    {
      "inputs": [],
      "name": "MintToZeroAddress",
      "type": "error"
    },
    {
      "inputs": [],
      "name": "MintZeroQuantity",
      "type": "error"
    },
    {
      "inputs": [],
      "name": "OwnerQueryForNonexistentToken",
      "type": "error"
    },
    {
      "inputs": [],
      "name": "OwnershipNotInitializedForExtraData",
      "type": "error"
    },
    {
      "inputs": [],
      "name": "TokenDoesntExist",
      "type": "error"
    },
    {
      "inputs": [],
      "name": "TokenLimitReached",
      "type": "error"
    },
    {
      "inputs": [],
      "name": "TokenNotOwner",
      "type": "error"
    },
    {
      "inputs": [],
      "name": "TransferCallerNotOwnerNorApproved",
      "type": "error"
    },
    {
      "inputs": [],
      "name": "TransferFromIncorrectOwner",
      "type": "error"
    },
    {
      "inputs": [],
      "name": "TransferToNonERC721ReceiverImplementer",
      "type": "error"
    },
    {
      "inputs": [],
      "name": "TransferToZeroAddress",
      "type": "error"
    },
    {
      "inputs": [],
      "name": "URIQueryForNonexistentToken",
      "type": "error"
    },
    {
      "anonymous": false,
      "inputs": [
        {
          "indexed": true,
          "internalType": "address",
          "name": "owner",
          "type": "address"
        },
        {
          "indexed": true,
          "internalType": "address",
          "name": "approved",
          "type": "address"
        },
        {
          "indexed": true,
          "internalType": "uint256",
          "name": "tokenId",
          "type": "uint256"
        }
      ],
      "name": "Approval",
      "type": "event"
    },
    {
      "anonymous": false,
      "inputs": [
        {
          "indexed": true,
          "internalType": "address",
          "name": "owner",
          "type": "address"
        },
        {
          "indexed": true,
          "internalType": "address",
          "name": "operator",
          "type": "address"
        },
        {
          "indexed": false,
          "internalType": "bool",
          "name": "approved",
          "type": "bool"
        }
      ],
      "name": "ApprovalForAll",
      "type": "event"
    },
    {
      "anonymous": false,
      "inputs": [
        {
          "indexed": true,
          "internalType": "uint256",
          "name": "fromTokenId",
          "type": "uint256"
        },
        {
          "indexed": false,
          "internalType": "uint256",
          "name": "toTokenId",
          "type": "uint256"
        },
        {
          "indexed": true,
          "internalType": "address",
          "name": "from",
          "type": "address"
        },
        {
          "indexed": true,
          "internalType": "address",
          "name": "to",
          "type": "address"
        }
      ],
      "name": "ConsecutiveTransfer",
      "type": "event"
    },
    {
      "anonymous": false,
      "inputs": [
        {
          "indexed": true,
          "internalType": "address",
          "name": "previousOwner",
          "type": "address"
        },
        {
          "indexed": true,
          "internalType": "address",
          "name": "newOwner",
          "type": "address"
        }
      ],
      "name": "OwnershipTransferred",
      "type": "event"
    },
    {
      "anonymous": false,
      "inputs": [
        {
          "indexed": true,
          "internalType": "address",
          "name": "from",
          "type": "address"
        },
        {
          "indexed": true,
          "internalType": "address",
          "name": "to",
          "type": "address"
        },
        {
          "indexed": true,
          "internalType": "uint256",
          "name": "tokenId",
          "type": "uint256"
        }
      ],
      "name": "Transfer",
      "type": "event"
    },
    {
      "anonymous": false,
      "inputs": [
        {
          "indexed": false,
          "internalType": "uint256",
          "name": "",
          "type": "uint256"
        },
        {
          "indexed": false,
          "internalType": "uint256",
          "name": "",
          "type": "uint256"
        },
        {
          "indexed": false,
          "internalType": "address",
          "name": "",
          "type": "address"
        }
      ],
      "name": "Unwrapped",
      "type": "event"
    },
    {
      "anonymous": false,
      "inputs": [
        {
          "indexed": false,
          "internalType": "uint256",
          "name": "",
          "type": "uint256"
        },
        {
          "indexed": false,
          "internalType": "uint256",
          "name": "",
          "type": "uint256"
        },
        {
          "indexed": false,
          "internalType": "address",
          "name": "",
          "type": "address"
        }
      ],
      "name": "Wrapped",
      "type": "event"
    },
    {
      "inputs": [
        {
          "internalType": "address",
          "name": "to",
          "type": "address"
        },
        {
          "internalType": "uint256",
          "name": "tokenId",
          "type": "uint256"
        }
      ],
      "name": "approve",
      "outputs": [],
      "stateMutability": "nonpayable",
      "type": "function"
    },
    {
      "inputs": [
        {
          "internalType": "address",
          "name": "owner",
          "type": "address"
        }
      ],
      "name": "balanceOf",
      "outputs": [
        {
          "internalType": "uint256",
          "name": "",
          "type": "uint256"
        }
      ],
      "stateMutability": "view",
      "type": "function"
    },
    {
      "inputs": [
        {
          "internalType": "uint256",
          "name": "tokenId",
          "type": "uint256"
        },
        {
          "internalType": "string",
          "name": "newName",
          "type": "string"
        }
      ],
      "name": "changeIpcName",
      "outputs": [],
      "stateMutability": "payable",
      "type": "function"
    },
    {
      "inputs": [],
      "name": "contractURI",
      "outputs": [
        {
          "internalType": "string",
          "name": "",
          "type": "string"
        }
      ],
      "stateMutability": "view",
      "type": "function"
    },
    {
      "inputs": [
        {
          "internalType": "uint256",
          "name": "startIndex",
          "type": "uint256"
        },
        {
          "internalType": "uint256",
          "name": "total",
          "type": "uint256"
        }
      ],
      "name": "getAllTokens",
      "outputs": [
        {
          "components": [
            {
              "internalType": "uint256",
              "name": "tokenId",
              "type": "uint256"
            },
            {
              "internalType": "string",
              "name": "name",
              "type": "string"
            },
            {
              "internalType": "bytes32",
              "name": "attributeSeed",
              "type": "bytes32"
            },
            {
              "internalType": "bytes32",
              "name": "dna",
              "type": "bytes32"
            },
            {
              "internalType": "uint128",
              "name": "experience",
              "type": "uint128"
            },
            {
              "internalType": "uint128",
              "name": "timeOfBirth",
              "type": "uint128"
            },
            {
              "internalType": "address",
              "name": "owner",
              "type": "address"
            }
          ],
          "internalType": "struct IPCV0Wrapper.t_raw_ipc[]",
          "name": "",
          "type": "tuple[]"
        }
      ],
      "stateMutability": "view",
      "type": "function"
    },
    {
      "inputs": [
        {
          "internalType": "uint256",
          "name": "tokenId",
          "type": "uint256"
        }
      ],
      "name": "getApproved",
      "outputs": [
        {
          "internalType": "address",
          "name": "",
          "type": "address"
        }
      ],
      "stateMutability": "view",
      "type": "function"
    },
    {
      "inputs": [
        {
          "internalType": "uint256",
          "name": "tokenId",
          "type": "uint256"
        }
      ],
      "name": "getIpc",
      "outputs": [
        {
          "components": [
            {
              "internalType": "uint256",
              "name": "tokenId",
              "type": "uint256"
            },
            {
              "internalType": "string",
              "name": "name",
              "type": "string"
            },
            {
              "internalType": "bytes32",
              "name": "attributeSeed",
              "type": "bytes32"
            },
            {
              "internalType": "bytes32",
              "name": "dna",
              "type": "bytes32"
            },
            {
              "internalType": "uint128",
              "name": "experience",
              "type": "uint128"
            },
            {
              "internalType": "uint128",
              "name": "timeOfBirth",
              "type": "uint128"
            },
            {
              "internalType": "address",
              "name": "owner",
              "type": "address"
            }
          ],
          "internalType": "struct IPCV0Wrapper.t_raw_ipc",
          "name": "",
          "type": "tuple"
        }
      ],
      "stateMutability": "view",
      "type": "function"
    },
    {
      "inputs": [],
      "name": "getProperties",
      "outputs": [
        {
          "components": [
            {
              "internalType": "address",
              "name": "contractAdress",
              "type": "address"
            },
            {
              "internalType": "string",
              "name": "tokenURI",
              "type": "string"
            },
            {
              "internalType": "string",
              "name": "contractURI",
              "type": "string"
            },
            {
              "internalType": "uint256",
              "name": "maxPrice",
              "type": "uint256"
            },
            {
              "internalType": "uint256",
              "name": "tokenLimit",
              "type": "uint256"
            }
          ],
          "internalType": "struct IPCV0Wrapper.t_properties",
          "name": "",
          "type": "tuple"
        }
      ],
      "stateMutability": "view",
      "type": "function"
    },
    {
      "inputs": [
        {
          "internalType": "uint256",
          "name": "tokenId",
          "type": "uint256"
        }
      ],
      "name": "getTokenIndex",
      "outputs": [
        {
          "internalType": "uint256",
          "name": "",
          "type": "uint256"
        }
      ],
      "stateMutability": "view",
      "type": "function"
    },
    {
      "inputs": [
        {
          "internalType": "uint256",
          "name": "tokenId",
          "type": "uint256"
        }
      ],
      "name": "getTokenOwnership",
      "outputs": [
        {
          "internalType": "address",
          "name": "",
          "type": "address"
        }
      ],
      "stateMutability": "view",
      "type": "function"
    },
    {
      "inputs": [
        {
          "internalType": "address",
          "name": "owner",
          "type": "address"
        },
        {
          "internalType": "uint256",
          "name": "startIndex",
          "type": "uint256"
        },
        {
          "internalType": "uint256",
          "name": "total",
          "type": "uint256"
        }
      ],
      "name": "getTokensOfOwner",
      "outputs": [
        {
          "components": [
            {
              "internalType": "uint256",
              "name": "tokenId",
              "type": "uint256"
            },
            {
              "internalType": "string",
              "name": "name",
              "type": "string"
            },
            {
              "internalType": "bytes32",
              "name": "attributeSeed",
              "type": "bytes32"
            },
            {
              "internalType": "bytes32",
              "name": "dna",
              "type": "bytes32"
            },
            {
              "internalType": "uint128",
              "name": "experience",
              "type": "uint128"
            },
            {
              "internalType": "uint128",
              "name": "timeOfBirth",
              "type": "uint128"
            },
            {
              "internalType": "address",
              "name": "owner",
              "type": "address"
            }
          ],
          "internalType": "struct IPCV0Wrapper.t_raw_ipc[]",
          "name": "",
          "type": "tuple[]"
        }
      ],
      "stateMutability": "view",
      "type": "function"
    },
    {
      "inputs": [
        {
          "internalType": "address",
          "name": "owner",
          "type": "address"
        },
        {
          "internalType": "address",
          "name": "operator",
          "type": "address"
        }
      ],
      "name": "isApprovedForAll",
      "outputs": [
        {
          "internalType": "bool",
          "name": "",
          "type": "bool"
        }
      ],
      "stateMutability": "view",
      "type": "function"
    },
    {
      "inputs": [],
      "name": "name",
      "outputs": [
        {
          "internalType": "string",
          "name": "",
          "type": "string"
        }
      ],
      "stateMutability": "view",
      "type": "function"
    },
    {
      "inputs": [
        {
          "internalType": "address",
          "name": "",
          "type": "address"
        },
        {
          "internalType": "address",
          "name": "",
          "type": "address"
        },
        {
          "internalType": "uint256",
          "name": "",
          "type": "uint256"
        },
        {
          "internalType": "bytes",
          "name": "",
          "type": "bytes"
        }
      ],
      "name": "onERC721Received",
      "outputs": [
        {
          "internalType": "bytes4",
          "name": "",
          "type": "bytes4"
        }
      ],
      "stateMutability": "pure",
      "type": "function"
    },
    {
      "inputs": [
        {
          "internalType": "address",
          "name": "",
          "type": "address"
        },
        {
          "internalType": "uint256",
          "name": "",
          "type": "uint256"
        },
        {
          "internalType": "bytes",
          "name": "",
          "type": "bytes"
        }
      ],
      "name": "onERC721Received",
      "outputs": [
        {
          "internalType": "bytes4",
          "name": "",
          "type": "bytes4"
        }
      ],
      "stateMutability": "pure",
      "type": "function"
    },
    {
      "inputs": [],
      "name": "owner",
      "outputs": [
        {
          "internalType": "address",
          "name": "",
          "type": "address"
        }
      ],
      "stateMutability": "view",
      "type": "function"
    },
    {
      "inputs": [
        {
          "internalType": "uint256",
          "name": "tokenId",
          "type": "uint256"
        }
      ],
      "name": "ownerOf",
      "outputs": [
        {
          "internalType": "address",
          "name": "",
          "type": "address"
        }
      ],
      "stateMutability": "view",
      "type": "function"
    },
    {
      "inputs": [],
      "name": "renounceOwnership",
      "outputs": [],
      "stateMutability": "nonpayable",
      "type": "function"
    },
    {
      "inputs": [
        {
          "internalType": "address",
          "name": "from",
          "type": "address"
        },
        {
          "internalType": "address",
          "name": "to",
          "type": "address"
        },
        {
          "internalType": "uint256",
          "name": "tokenId",
          "type": "uint256"
        }
      ],
      "name": "safeTransferFrom",
      "outputs": [],
      "stateMutability": "nonpayable",
      "type": "function"
    },
    {
      "inputs": [
        {
          "internalType": "address",
          "name": "from",
          "type": "address"
        },
        {
          "internalType": "address",
          "name": "to",
          "type": "address"
        },
        {
          "internalType": "uint256",
          "name": "tokenId",
          "type": "uint256"
        },
        {
          "internalType": "bytes",
          "name": "_data",
          "type": "bytes"
        }
      ],
      "name": "safeTransferFrom",
      "outputs": [],
      "stateMutability": "nonpayable",
      "type": "function"
    },
    {
      "inputs": [
        {
          "internalType": "address",
          "name": "operator",
          "type": "address"
        },
        {
          "internalType": "bool",
          "name": "approved",
          "type": "bool"
        }
      ],
      "name": "setApprovalForAll",
      "outputs": [],
      "stateMutability": "nonpayable",
      "type": "function"
    },
    {
      "inputs": [
        {
          "internalType": "address",
          "name": "_contractAddress",
          "type": "address"
        }
      ],
      "name": "setContractAddress",
      "outputs": [],
      "stateMutability": "nonpayable",
      "type": "function"
    },
    {
      "inputs": [
        {
          "internalType": "uint256",
          "name": "_maxPrice",
          "type": "uint256"
        },
        {
          "internalType": "uint256",
          "name": "_tokenLimit",
          "type": "uint256"
        },
        {
          "internalType": "string",
          "name": "__tokenURI",
          "type": "string"
        },
        {
          "internalType": "string",
          "name": "__contractURI",
          "type": "string"
        }
      ],
      "name": "setProperties",
      "outputs": [],
      "stateMutability": "nonpayable",
      "type": "function"
    },
    {
      "inputs": [
        {
          "internalType": "bytes4",
          "name": "interfaceId",
          "type": "bytes4"
        }
      ],
      "name": "supportsInterface",
      "outputs": [
        {
          "internalType": "bool",
          "name": "",
          "type": "bool"
        }
      ],
      "stateMutability": "view",
      "type": "function"
    },
    {
      "inputs": [],
      "name": "symbol",
      "outputs": [
        {
          "internalType": "string",
          "name": "",
          "type": "string"
        }
      ],
      "stateMutability": "view",
      "type": "function"
    },
    {
      "inputs": [
        {
          "internalType": "uint256",
          "name": "tokenId",
          "type": "uint256"
        }
      ],
      "name": "tokenURI",
      "outputs": [
        {
          "internalType": "string",
          "name": "",
          "type": "string"
        }
      ],
      "stateMutability": "view",
      "type": "function"
    },
    {
      "inputs": [],
      "name": "totalSupply",
      "outputs": [
        {
          "internalType": "uint256",
          "name": "",
          "type": "uint256"
        }
      ],
      "stateMutability": "view",
      "type": "function"
    },
    {
      "inputs": [
        {
          "internalType": "address",
          "name": "from",
          "type": "address"
        },
        {
          "internalType": "address",
          "name": "to",
          "type": "address"
        },
        {
          "internalType": "uint256",
          "name": "tokenId",
          "type": "uint256"
        }
      ],
      "name": "transferFrom",
      "outputs": [],
      "stateMutability": "nonpayable",
      "type": "function"
    },
    {
      "inputs": [
        {
          "internalType": "address",
          "name": "newOwner",
          "type": "address"
        }
      ],
      "name": "transferOwnership",
      "outputs": [],
      "stateMutability": "nonpayable",
      "type": "function"
    },
    {
      "inputs": [
        {
          "internalType": "uint256",
          "name": "tokenId",
          "type": "uint256"
        }
      ],
      "name": "unwrap",
      "outputs": [],
      "stateMutability": "nonpayable",
      "type": "function"
    },
    {
      "inputs": [
        {
          "internalType": "uint256",
          "name": "tokenId",
          "type": "uint256"
        }
      ],
      "name": "wrap",
      "outputs": [],
      "stateMutability": "nonpayable",
      "type": "function"
    }
  ],
  "bytecode": "0x60806040523480156200001157600080fd5b506040518060400160405280601d81526020017f496d6d6f7274616c20506c6179657220436861726163746572732076300000008152506040518060400160405280600581526020017f49504356300000000000000000000000000000000000000000000000000000008152506200009e62000092620001a760201b60201c565b620001af60201b60201c565b8160039080519060200190620000b69291906200027c565b508060049080519060200190620000cf9291906200027c565b50620000e06200027360201b60201c565b6001819055505050736a62dafa4560357b35a3c70fc81868ce7da3a062600960006101000a81548173ffffffffffffffffffffffffffffffffffffffff021916908373ffffffffffffffffffffffffffffffffffffffff16021790555060405180602001604052806000815250600a9080519060200190620001649291906200027c565b5060405180602001604052806000815250600b90805190602001906200018c9291906200027c565b506305f5e100600c819055506103e8600d8190555062000391565b600033905090565b60008060009054906101000a900473ffffffffffffffffffffffffffffffffffffffff169050816000806101000a81548173ffffffffffffffffffffffffffffffffffffffff021916908373ffffffffffffffffffffffffffffffffffffffff1602179055508173ffffffffffffffffffffffffffffffffffffffff168173ffffffffffffffffffffffffffffffffffffffff167f8be0079c531659141344cd1fd0a4f28419497f9722a3daafe3b4186f6b6457e060405160405180910390a35050565b60006001905090565b8280546200028a906200035b565b90600052602060002090601f016020900481019282620002ae5760008555620002fa565b82601f10620002c957805160ff1916838001178555620002fa565b82800160010185558215620002fa579182015b82811115620002f9578251825591602001919060010190620002dc565b5b5090506200030991906200030d565b5090565b5b80821115620003285760008160009055506001016200030e565b5090565b7f4e487b7100000000000000000000000000000000000000000000000000000000600052602260045260246000fd5b600060028204905060018216806200037457607f821691505b602082108114156200038b576200038a6200032c565b5b50919050565b6145c880620003a16000396000f3fe6080604052600436106101d85760003560e01c806389edc43811610102578063de0e9a3e11610095578063ea598cb011610064578063ea598cb01461070b578063ec0cfd0b14610734578063f0b9e5ba1461075f578063f2fde38b1461079c576101d8565b8063de0e9a3e1461065e578063dfb31a7c14610687578063e8a3d485146106a3578063e985e9c5146106ce576101d8565b8063a22cb465116100d1578063a22cb46514610592578063b88d4fde146105bb578063c87b56dd146105e4578063d850030614610621576101d8565b806389edc438146104c25780638da5cb5b146104ff57806395d89b411461052a5780639a04383214610555576101d8565b806323b872dd1161017a5780636352211e116101495780636352211e146103f457806370a0823114610431578063715018a61461046e5780637fff1e2f14610485576101d8565b806323b872dd1461033c5780633a663c801461036557806342842e0e146103a2578063477bddaa146103cb576101d8565b8063095ea7b3116101b6578063095ea7b314610282578063150b7a02146102ab57806318160ddd146102e857806320f95f6214610313576101d8565b806301ffc9a7146101dd57806306fdde031461021a578063081812fc14610245575b600080fd5b3480156101e957600080fd5b5061020460048036038101906101ff9190613153565b6107c5565b604051610211919061319b565b60405180910390f35b34801561022657600080fd5b5061022f610857565b60405161023c919061324f565b60405180910390f35b34801561025157600080fd5b5061026c600480360381019061026791906132a7565b6108e9565b6040516102799190613315565b60405180910390f35b34801561028e57600080fd5b506102a960048036038101906102a4919061335c565b610968565b005b3480156102b757600080fd5b506102d260048036038101906102cd9190613401565b610aac565b6040516102df9190613498565b60405180910390f35b3480156102f457600080fd5b506102fd610ac1565b60405161030a91906134c2565b60405180910390f35b34801561031f57600080fd5b5061033a60048036038101906103359190613533565b610b68565b005b34801561034857600080fd5b50610363600480360381019061035e91906135da565b610baa565b005b34801561037157600080fd5b5061038c600480360381019061038791906132a7565b610ecf565b60405161039991906134c2565b60405180910390f35b3480156103ae57600080fd5b506103c960048036038101906103c491906135da565b610eec565b005b3480156103d757600080fd5b506103f260048036038101906103ed919061362d565b610f0c565b005b34801561040057600080fd5b5061041b600480360381019061041691906132a7565b610f58565b6040516104289190613315565b60405180910390f35b34801561043d57600080fd5b506104586004803603810190610453919061362d565b611073565b60405161046591906134c2565b60405180910390f35b34801561047a57600080fd5b5061048361112c565b005b34801561049157600080fd5b506104ac60048036038101906104a791906132a7565b611140565b6040516104b991906137a2565b60405180910390f35b3480156104ce57600080fd5b506104e960048036038101906104e491906137c4565b611339565b6040516104f69190613975565b60405180910390f35b34801561050b57600080fd5b50610514611541565b6040516105219190613315565b60405180910390f35b34801561053657600080fd5b5061053f61156a565b60405161054c919061324f565b60405180910390f35b34801561056157600080fd5b5061057c60048036038101906105779190613997565b6115fc565b6040516105899190613975565b60405180910390f35b34801561059e57600080fd5b506105b960048036038101906105b49190613a03565b611723565b005b3480156105c757600080fd5b506105e260048036038101906105dd9190613b73565b61189b565b005b3480156105f057600080fd5b5061060b600480360381019061060691906132a7565b61190e565b604051610618919061324f565b60405180910390f35b34801561062d57600080fd5b50610648600480360381019061064391906132a7565b6119b5565b6040516106559190613315565b60405180910390f35b34801561066a57600080fd5b50610685600480360381019061068091906132a7565b611a69565b005b6106a1600480360381019061069c9190613bf6565b611df9565b005b3480156106af57600080fd5b506106b8611e90565b6040516106c5919061324f565b60405180910390f35b3480156106da57600080fd5b506106f560048036038101906106f09190613c56565b611f22565b604051610702919061319b565b60405180910390f35b34801561071757600080fd5b50610732600480360381019061072d91906132a7565b611fb6565b005b34801561074057600080fd5b506107496122ac565b6040516107569190613d13565b60405180910390f35b34801561076b57600080fd5b5061078660048036038101906107819190613d35565b61243e565b6040516107939190613498565b60405180910390f35b3480156107a857600080fd5b506107c360048036038101906107be919061362d565b61246b565b005b60006301ffc9a760e01b827bffffffffffffffffffffffffffffffffffffffffffffffffffffffff1916148061082057506380ac58cd60e01b827bffffffffffffffffffffffffffffffffffffffffffffffffffffffff1916145b806108505750635b5e139f60e01b827bffffffffffffffffffffffffffffffffffffffffffffffffffffffff1916145b9050919050565b60606003805461086690613dd8565b80601f016020809104026020016040519081016040528092919081815260200182805461089290613dd8565b80156108df5780601f106108b4576101008083540402835291602001916108df565b820191906000526020600020905b8154815290600101906020018083116108c257829003601f168201915b5050505050905090565b60006108f4826124ef565b61092a576040517fcf4700e400000000000000000000000000000000000000000000000000000000815260040160405180910390fd5b6007600083815260200190815260200160002060000160009054906101000a900473ffffffffffffffffffffffffffffffffffffffff169050919050565b600061097382610f58565b90508073ffffffffffffffffffffffffffffffffffffffff1661099461254e565b73ffffffffffffffffffffffffffffffffffffffff16146109f7576109c0816109bb61254e565b611f22565b6109f6576040517fcfb3b94200000000000000000000000000000000000000000000000000000000815260040160405180910390fd5b5b826007600084815260200190815260200160002060000160006101000a81548173ffffffffffffffffffffffffffffffffffffffff021916908373ffffffffffffffffffffffffffffffffffffffff160217905550818373ffffffffffffffffffffffffffffffffffffffff168273ffffffffffffffffffffffffffffffffffffffff167f8c5be1e5ebec7d5bd14f71427d1e84f3dd0314c0f7b2291e5b200ac8c7c3b92560405160405180910390a4505050565b600063150b7a0260e01b905095945050505050565b6000600960009054906101000a900473ffffffffffffffffffffffffffffffffffffffff1673ffffffffffffffffffffffffffffffffffffffff166318160ddd6040518163ffffffff1660e01b815260040160206040518083038186803b158015610b2b57600080fd5b505afa158015610b3f573d6000803e3d6000fd5b505050506040513d601f19601f82011682018060405250810190610b639190613e1f565b905090565b610b70612556565b85600c8190555084600d819055508383600a9190610b8f929190612f82565b508181600b9190610ba1929190612f82565b50505050505050565b6000610bb5826125d4565b90508373ffffffffffffffffffffffffffffffffffffffff168173ffffffffffffffffffffffffffffffffffffffff1614610c1c576040517fa114810000000000000000000000000000000000000000000000000000000000815260040160405180910390fd5b600080610c28846126a2565b91509150610c3e8187610c3961254e565b6126c9565b610c8a57610c5386610c4e61254e565b611f22565b610c89576040517f59c896be00000000000000000000000000000000000000000000000000000000815260040160405180910390fd5b5b600073ffffffffffffffffffffffffffffffffffffffff168573ffffffffffffffffffffffffffffffffffffffff161415610cf1576040517fea553b3400000000000000000000000000000000000000000000000000000000815260040160405180910390fd5b610cfe868686600161270d565b8015610d0957600082555b600660008773ffffffffffffffffffffffffffffffffffffffff1673ffffffffffffffffffffffffffffffffffffffff168152602001908152602001600020600081546001900391905081905550600660008673ffffffffffffffffffffffffffffffffffffffff1673ffffffffffffffffffffffffffffffffffffffff1681526020019081526020016000206000815460010191905081905550610dd785610db3888887612713565b7c02000000000000000000000000000000000000000000000000000000001761273b565b600560008681526020019081526020016000208190555060007c020000000000000000000000000000000000000000000000000000000084161415610e5f576000600185019050600060056000838152602001908152602001600020541415610e5d576001548114610e5c578360056000838152602001908152602001600020819055505b5b505b838573ffffffffffffffffffffffffffffffffffffffff168773ffffffffffffffffffffffffffffffffffffffff167fddf252ad1be2c89b69c2b068fc378daa952ba7f163c4a11628f55a4df523b3ef60405160405180910390a4610ec78686866001612766565b505050505050565b6000600f6000838152602001908152602001600020549050919050565b610f078383836040518060200160405280600081525061189b565b505050565b610f14612556565b80600960006101000a81548173ffffffffffffffffffffffffffffffffffffffff021916908373ffffffffffffffffffffffffffffffffffffffff16021790555050565b600080600f6000848152602001908152602001600020549050600081141561102d57600960009054906101000a900473ffffffffffffffffffffffffffffffffffffffff1673ffffffffffffffffffffffffffffffffffffffff16636352211e846040518263ffffffff1660e01b8152600401610fd591906134c2565b60206040518083038186803b158015610fed57600080fd5b505afa158015611001573d6000803e3d6000fd5b505050506040513d601f19601f820116820180604052508101906110259190613e61565b91505061106e565b6000600e600083815260200190815260200160002060010160009054906101000a900473ffffffffffffffffffffffffffffffffffffffff16905080925050505b919050565b60008073ffffffffffffffffffffffffffffffffffffffff168273ffffffffffffffffffffffffffffffffffffffff1614156110db576040517f8f4eb60400000000000000000000000000000000000000000000000000000000815260040160405180910390fd5b67ffffffffffffffff600660008473ffffffffffffffffffffffffffffffffffffffff1673ffffffffffffffffffffffffffffffffffffffff16815260200190815260200160002054169050919050565b611134612556565b61113e600061276c565b565b611148613008565b6000806000806000600960009054906101000a900473ffffffffffffffffffffffffffffffffffffffff1673ffffffffffffffffffffffffffffffffffffffff16637fff1e2f886040518263ffffffff1660e01b81526004016111ab91906134c2565b60006040518083038186803b1580156111c357600080fd5b505afa1580156111d7573d6000803e3d6000fd5b505050506040513d6000823e3d601f19601f820116820180604052508101906112009190613f87565b945094509450945094506000600960009054906101000a900473ffffffffffffffffffffffffffffffffffffffff1673ffffffffffffffffffffffffffffffffffffffff16636352211e896040518263ffffffff1660e01b815260040161126791906134c2565b60206040518083038186803b15801561127f57600080fd5b505afa158015611293573d6000803e3d6000fd5b505050506040513d601f19601f820116820180604052508101906112b79190613e61565b905060006040518060e001604052808a8152602001888152602001878152602001868152602001856fffffffffffffffffffffffffffffffff168152602001846fffffffffffffffffffffffffffffffff1681526020018373ffffffffffffffffffffffffffffffffffffffff16815250905080975050505050505050919050565b60606000600960009054906101000a900473ffffffffffffffffffffffffffffffffffffffff1673ffffffffffffffffffffffffffffffffffffffff16638462151c866040518263ffffffff1660e01b81526004016113989190613315565b60006040518083038186803b1580156113b057600080fd5b505afa1580156113c4573d6000803e3d6000fd5b505050506040513d6000823e3d601f19601f820116820180604052508101906113ed91906140e1565b90506000815190508085111561140257600094505b600084148061141b575084816114189190614159565b84115b1561143b578460018261142e9190614159565b6114389190614159565b93505b600060018561144a919061418d565b67ffffffffffffffff81111561146357611462613a48565b5b60405190808252806020026020018201604052801561149c57816020015b611489613008565b8152602001906001900390816114815790505b50905060008214156114b35780935050505061153a565b6000806114be613008565b600092505b878310156115305785838a6114d8919061418d565b815181106114e9576114e86141e3565b5b602002602001015191506114fc82611140565b905080848481518110611512576115116141e3565b5b6020026020010181905250828061152890614212565b9350506114c3565b8396505050505050505b9392505050565b60008060009054906101000a900473ffffffffffffffffffffffffffffffffffffffff16905090565b60606004805461157990613dd8565b80601f01602080910402602001604051908101604052809291908181526020018280546115a590613dd8565b80156115f25780601f106115c7576101008083540402835291602001916115f2565b820191906000526020600020905b8154815290600101906020018083116115d557829003601f168201915b5050505050905090565b60606000611608610ac1565b9050600084148061161857508084115b1561162257600193505b600083148061163b575083816116389190614159565b83115b1561164f57838161164c9190614159565b92505b60008367ffffffffffffffff81111561166b5761166a613a48565b5b6040519080825280602002602001820160405280156116a457816020015b611691613008565b8152602001906001900390816116895790505b50905060008214156116ba57809250505061171d565b60005b8481101561171657600081876116d3919061418d565b905060006116e082611140565b9050808484815181106116f6576116f56141e3565b5b60200260200101819052505050808061170e90614212565b9150506116bd565b8193505050505b92915050565b61172b61254e565b73ffffffffffffffffffffffffffffffffffffffff168273ffffffffffffffffffffffffffffffffffffffff161415611790576040517fb06307db00000000000000000000000000000000000000000000000000000000815260040160405180910390fd5b806008600061179d61254e565b73ffffffffffffffffffffffffffffffffffffffff1673ffffffffffffffffffffffffffffffffffffffff16815260200190815260200160002060008473ffffffffffffffffffffffffffffffffffffffff1673ffffffffffffffffffffffffffffffffffffffff16815260200190815260200160002060006101000a81548160ff0219169083151502179055508173ffffffffffffffffffffffffffffffffffffffff1661184a61254e565b73ffffffffffffffffffffffffffffffffffffffff167f17307eab39ab6107e8899845ad3d59bd9653f200f220920489ca2b5937696c318360405161188f919061319b565b60405180910390a35050565b6118a6848484610baa565b60008373ffffffffffffffffffffffffffffffffffffffff163b14611908576118d184848484612830565b611907576040517fd1a57ed600000000000000000000000000000000000000000000000000000000815260040160405180910390fd5b5b50505050565b6060600d548211806119205750600082145b15611957576040517fa14c4b5000000000000000000000000000000000000000000000000000000000815260040160405180910390fd5b6000611961612990565b905060008151141561198257604051806020016040528060008152506119ad565b8061198c84612a22565b60405160200161199d929190614297565b6040516020818303038152906040525b915050919050565b6000600960009054906101000a900473ffffffffffffffffffffffffffffffffffffffff1673ffffffffffffffffffffffffffffffffffffffff16636352211e836040518263ffffffff1660e01b8152600401611a1291906134c2565b60206040518083038186803b158015611a2a57600080fd5b505afa158015611a3e573d6000803e3d6000fd5b505050506040513d601f19601f82011682018060405250810190611a629190613e61565b9050919050565b6000600f60008381526020019081526020016000205490506000811415611abc576040517feb7d192800000000000000000000000000000000000000000000000000000000815260040160405180910390fd5b60003390508073ffffffffffffffffffffffffffffffffffffffff16600e600084815260200190815260200160002060010160009054906101000a900473ffffffffffffffffffffffffffffffffffffffff1673ffffffffffffffffffffffffffffffffffffffff1614611b5c576040517ff637a3e300000000000000000000000000000000000000000000000000000000815260040160405180910390fd5b600f600084815260200190815260200160002060009055600e60008381526020019081526020016000206000808201600090556001820160006101000a81549073ffffffffffffffffffffffffffffffffffffffff0219169055505060005b601060008373ffffffffffffffffffffffffffffffffffffffff1673ffffffffffffffffffffffffffffffffffffffff16815260200190815260200160002080549050811015611cdb5783601060008473ffffffffffffffffffffffffffffffffffffffff1673ffffffffffffffffffffffffffffffffffffffff1681526020019081526020016000208281548110611c5757611c566141e3565b5b90600052602060002001541415611cc857601060008373ffffffffffffffffffffffffffffffffffffffff1673ffffffffffffffffffffffffffffffffffffffff1681526020019081526020016000208181548110611cb957611cb86141e3565b5b90600052602060002001600090555b8080611cd390614212565b915050611bbb565b506000611ce784610f58565b9050611cf283612a72565b3073ffffffffffffffffffffffffffffffffffffffff168173ffffffffffffffffffffffffffffffffffffffff161415611db857600960009054906101000a900473ffffffffffffffffffffffffffffffffffffffff1673ffffffffffffffffffffffffffffffffffffffff166342842e0e3084876040518463ffffffff1660e01b8152600401611d85939291906142bb565b600060405180830381600087803b158015611d9f57600080fd5b505af1158015611db3573d6000803e3d6000fd5b505050505b7f175e3dad2e6c10f120d3216de54ebe7abeee5b7f33c8941af43e73a0315e4a80838584604051611deb939291906142f2565b60405180910390a150505050565b600960009054906101000a900473ffffffffffffffffffffffffffffffffffffffff1673ffffffffffffffffffffffffffffffffffffffff1663dfb31a7c348585856040518563ffffffff1660e01b8152600401611e5993929190614356565b6000604051808303818588803b158015611e7257600080fd5b505af1158015611e86573d6000803e3d6000fd5b5050505050505050565b6060600b8054611e9f90613dd8565b80601f0160208091040260200160405190810160405280929190818152602001828054611ecb90613dd8565b8015611f185780601f10611eed57610100808354040283529160200191611f18565b820191906000526020600020905b815481529060010190602001808311611efb57829003601f168201915b5050505050905090565b6000600860008473ffffffffffffffffffffffffffffffffffffffff1673ffffffffffffffffffffffffffffffffffffffff16815260200190815260200160002060008373ffffffffffffffffffffffffffffffffffffffff1673ffffffffffffffffffffffffffffffffffffffff16815260200190815260200160002060009054906101000a900460ff16905092915050565b6000600f6000838152602001908152602001600020549050600d5482118015611fdf5750600081145b15612016576040517f53bb24f900000000000000000000000000000000000000000000000000000000815260040160405180910390fd5b6000339050600960009054906101000a900473ffffffffffffffffffffffffffffffffffffffff1673ffffffffffffffffffffffffffffffffffffffff166342842e0e8230866040518463ffffffff1660e01b815260040161207a939291906142bb565b600060405180830381600087803b15801561209457600080fd5b505af11580156120a8573d6000803e3d6000fd5b50505050600960009054906101000a900473ffffffffffffffffffffffffffffffffffffffff1673ffffffffffffffffffffffffffffffffffffffff16633d4cfe2184600c546040518363ffffffff1660e01b815260040161210b929190614388565b600060405180830381600087803b15801561212557600080fd5b505af1158015612139573d6000803e3d6000fd5b5050505060008214156121515761214e612a80565b91505b60405180604001604052808481526020018273ffffffffffffffffffffffffffffffffffffffff16815250600e60008481526020019081526020016000206000820151816000015560208201518160010160006101000a81548173ffffffffffffffffffffffffffffffffffffffff021916908373ffffffffffffffffffffffffffffffffffffffff16021790555090505081600f600085815260200190815260200160002081905550601060008273ffffffffffffffffffffffffffffffffffffffff1673ffffffffffffffffffffffffffffffffffffffff16815260200190815260200160002082908060018154018082558091505060019003906000526020600020016000909190919091505561226c816001612a8a565b7ff90572efd1ab4fb9c6b9dabfd24d103ce15482a9ec0c50e0e32618708783b15b82848360405161229f939291906142f2565b60405180910390a1505050565b6122b4613085565b6122bc612556565b60006040518060a00160405280600960009054906101000a900473ffffffffffffffffffffffffffffffffffffffff1673ffffffffffffffffffffffffffffffffffffffff168152602001600a805461231490613dd8565b80601f016020809104026020016040519081016040528092919081815260200182805461234090613dd8565b801561238d5780601f106123625761010080835404028352916020019161238d565b820191906000526020600020905b81548152906001019060200180831161237057829003601f168201915b50505050508152602001600b80546123a490613dd8565b80601f01602080910402602001604051908101604052809291908181526020018280546123d090613dd8565b801561241d5780601f106123f25761010080835404028352916020019161241d565b820191906000526020600020905b81548152906001019060200180831161240057829003601f168201915b50505050508152602001600c548152602001600d5481525090508091505090565b60007ff0b9e5baf647f945565b0ac04522b519449041bdd44f952626b9ead9ff3692419050949350505050565b612473612556565b600073ffffffffffffffffffffffffffffffffffffffff168173ffffffffffffffffffffffffffffffffffffffff1614156124e3576040517f08c379a00000000000000000000000000000000000000000000000000000000081526004016124da90614423565b60405180910390fd5b6124ec8161276c565b50565b6000816124fa612aa8565b11158015612509575060015482105b8015612547575060007c0100000000000000000000000000000000000000000000000000000000600560008581526020019081526020016000205416145b9050919050565b600033905090565b61255e612ab1565b73ffffffffffffffffffffffffffffffffffffffff1661257c611541565b73ffffffffffffffffffffffffffffffffffffffff16146125d2576040517f08c379a00000000000000000000000000000000000000000000000000000000081526004016125c99061448f565b60405180910390fd5b565b600080829050806125e3612aa8565b1161266b5760015481101561266a5760006005600083815260200190815260200160002054905060007c010000000000000000000000000000000000000000000000000000000082161415612668575b600081141561265e576005600083600190039350838152602001908152602001600020549050612633565b809250505061269d565b505b5b6040517fdf2d9b4200000000000000000000000000000000000000000000000000000000815260040160405180910390fd5b919050565b60008060006007600085815260200190815260200160002090508092508254915050915091565b600073ffffffffffffffffffffffffffffffffffffffff8316925073ffffffffffffffffffffffffffffffffffffffff821691508382148383141790509392505050565b50505050565b60008060e883901c905060e861272a868684612ab9565b62ffffff16901b9150509392505050565b600073ffffffffffffffffffffffffffffffffffffffff83169250814260a01b178317905092915050565b50505050565b60008060009054906101000a900473ffffffffffffffffffffffffffffffffffffffff169050816000806101000a81548173ffffffffffffffffffffffffffffffffffffffff021916908373ffffffffffffffffffffffffffffffffffffffff1602179055508173ffffffffffffffffffffffffffffffffffffffff168173ffffffffffffffffffffffffffffffffffffffff167f8be0079c531659141344cd1fd0a4f28419497f9722a3daafe3b4186f6b6457e060405160405180910390a35050565b60008373ffffffffffffffffffffffffffffffffffffffff1663150b7a0261285661254e565b8786866040518563ffffffff1660e01b81526004016128789493929190614504565b602060405180830381600087803b15801561289257600080fd5b505af19250505080156128c357506040513d601f19601f820116820180604052508101906128c09190614565565b60015b61293d573d80600081146128f3576040519150601f19603f3d011682016040523d82523d6000602084013e6128f8565b606091505b50600081511415612935576040517fd1a57ed600000000000000000000000000000000000000000000000000000000815260040160405180910390fd5b805181602001fd5b63150b7a0260e01b7bffffffffffffffffffffffffffffffffffffffffffffffffffffffff1916817bffffffffffffffffffffffffffffffffffffffffffffffffffffffff191614915050949350505050565b6060600a805461299f90613dd8565b80601f01602080910402602001604051908101604052809291908181526020018280546129cb90613dd8565b8015612a185780601f106129ed57610100808354040283529160200191612a18565b820191906000526020600020905b8154815290600101906020018083116129fb57829003601f168201915b5050505050905090565b606060806040510190508060405280825b600115612a5e57600183039250600a81066030018353600a8104905080612a5957612a5e565b612a33565b508181036020830392508083525050919050565b612a7d816000612ac2565b50565b6000600154905090565b612aa4828260405180602001604052806000815250612d16565b5050565b60006001905090565b600033905090565b60009392505050565b6000612acd836125d4565b90506000819050600080612ae0866126a2565b915091508415612b4957612afc8184612af761254e565b6126c9565b612b4857612b1183612b0c61254e565b611f22565b612b47576040517f59c896be00000000000000000000000000000000000000000000000000000000815260040160405180910390fd5b5b5b612b5783600088600161270d565b8015612b6257600082555b600160806001901b03600660008573ffffffffffffffffffffffffffffffffffffffff1673ffffffffffffffffffffffffffffffffffffffff16815260200190815260200160002060008282540192505081905550612c0a83612bc785600088612713565b7c02000000000000000000000000000000000000000000000000000000007c0100000000000000000000000000000000000000000000000000000000171761273b565b600560008881526020019081526020016000208190555060007c020000000000000000000000000000000000000000000000000000000085161415612c92576000600187019050600060056000838152602001908152602001600020541415612c90576001548114612c8f578460056000838152602001908152602001600020819055505b5b505b85600073ffffffffffffffffffffffffffffffffffffffff168473ffffffffffffffffffffffffffffffffffffffff167fddf252ad1be2c89b69c2b068fc378daa952ba7f163c4a11628f55a4df523b3ef60405160405180910390a4612cfc836000886001612766565b600260008154809291906001019190505550505050505050565b612d208383612db4565b60008373ffffffffffffffffffffffffffffffffffffffff163b14612daf5760006001549050600083820390505b612d616000868380600101945086612830565b612d97576040517fd1a57ed600000000000000000000000000000000000000000000000000000000815260040160405180910390fd5b818110612d4e578160015414612dac57600080fd5b50505b505050565b600060015490506000821415612df6576040517fb562e8dd00000000000000000000000000000000000000000000000000000000815260040160405180910390fd5b612e03600084838561270d565b600160406001901b178202600660008573ffffffffffffffffffffffffffffffffffffffff1673ffffffffffffffffffffffffffffffffffffffff16815260200190815260200160002060008282540192505081905550612e7a83612e6b6000866000612713565b612e7485612f72565b1761273b565b6005600083815260200190815260200160002081905550600080838301905073ffffffffffffffffffffffffffffffffffffffff85169150828260007fddf252ad1be2c89b69c2b068fc378daa952ba7f163c4a11628f55a4df523b3ef600080a4600183015b818114612f1b57808360007fddf252ad1be2c89b69c2b068fc378daa952ba7f163c4a11628f55a4df523b3ef600080a4600181019050612ee0565b506000821415612f57576040517f2e07630000000000000000000000000000000000000000000000000000000000815260040160405180910390fd5b806001819055505050612f6d6000848385612766565b505050565b60006001821460e11b9050919050565b828054612f8e90613dd8565b90600052602060002090601f016020900481019282612fb05760008555612ff7565b82601f10612fc957803560ff1916838001178555612ff7565b82800160010185558215612ff7579182015b82811115612ff6578235825591602001919060010190612fdb565b5b50905061300491906130ca565b5090565b6040518060e001604052806000815260200160608152602001600080191681526020016000801916815260200160006fffffffffffffffffffffffffffffffff16815260200160006fffffffffffffffffffffffffffffffff168152602001600073ffffffffffffffffffffffffffffffffffffffff1681525090565b6040518060a00160405280600073ffffffffffffffffffffffffffffffffffffffff168152602001606081526020016060815260200160008152602001600081525090565b5b808211156130e35760008160009055506001016130cb565b5090565b6000604051905090565b600080fd5b600080fd5b60007fffffffff0000000000000000000000000000000000000000000000000000000082169050919050565b613130816130fb565b811461313b57600080fd5b50565b60008135905061314d81613127565b92915050565b600060208284031215613169576131686130f1565b5b60006131778482850161313e565b91505092915050565b60008115159050919050565b61319581613180565b82525050565b60006020820190506131b0600083018461318c565b92915050565b600081519050919050565b600082825260208201905092915050565b60005b838110156131f05780820151818401526020810190506131d5565b838111156131ff576000848401525b50505050565b6000601f19601f8301169050919050565b6000613221826131b6565b61322b81856131c1565b935061323b8185602086016131d2565b61324481613205565b840191505092915050565b600060208201905081810360008301526132698184613216565b905092915050565b6000819050919050565b61328481613271565b811461328f57600080fd5b50565b6000813590506132a18161327b565b92915050565b6000602082840312156132bd576132bc6130f1565b5b60006132cb84828501613292565b91505092915050565b600073ffffffffffffffffffffffffffffffffffffffff82169050919050565b60006132ff826132d4565b9050919050565b61330f816132f4565b82525050565b600060208201905061332a6000830184613306565b92915050565b613339816132f4565b811461334457600080fd5b50565b60008135905061335681613330565b92915050565b60008060408385031215613373576133726130f1565b5b600061338185828601613347565b925050602061339285828601613292565b9150509250929050565b600080fd5b600080fd5b600080fd5b60008083601f8401126133c1576133c061339c565b5b8235905067ffffffffffffffff8111156133de576133dd6133a1565b5b6020830191508360018202830111156133fa576133f96133a6565b5b9250929050565b60008060008060006080868803121561341d5761341c6130f1565b5b600061342b88828901613347565b955050602061343c88828901613347565b945050604061344d88828901613292565b935050606086013567ffffffffffffffff81111561346e5761346d6130f6565b5b61347a888289016133ab565b92509250509295509295909350565b613492816130fb565b82525050565b60006020820190506134ad6000830184613489565b92915050565b6134bc81613271565b82525050565b60006020820190506134d760008301846134b3565b92915050565b60008083601f8401126134f3576134f261339c565b5b8235905067ffffffffffffffff8111156135105761350f6133a1565b5b60208301915083600182028301111561352c5761352b6133a6565b5b9250929050565b600080600080600080608087890312156135505761354f6130f1565b5b600061355e89828a01613292565b965050602061356f89828a01613292565b955050604087013567ffffffffffffffff8111156135905761358f6130f6565b5b61359c89828a016134dd565b9450945050606087013567ffffffffffffffff8111156135bf576135be6130f6565b5b6135cb89828a016134dd565b92509250509295509295509295565b6000806000606084860312156135f3576135f26130f1565b5b600061360186828701613347565b935050602061361286828701613347565b925050604061362386828701613292565b9150509250925092565b600060208284031215613643576136426130f1565b5b600061365184828501613347565b91505092915050565b61366381613271565b82525050565b600082825260208201905092915050565b6000613685826131b6565b61368f8185613669565b935061369f8185602086016131d2565b6136a881613205565b840191505092915050565b6000819050919050565b6136c6816136b3565b82525050565b60006fffffffffffffffffffffffffffffffff82169050919050565b6136f1816136cc565b82525050565b613700816132f4565b82525050565b600060e08301600083015161371e600086018261365a565b5060208301518482036020860152613736828261367a565b915050604083015161374b60408601826136bd565b50606083015161375e60608601826136bd565b50608083015161377160808601826136e8565b5060a083015161378460a08601826136e8565b5060c083015161379760c08601826136f7565b508091505092915050565b600060208201905081810360008301526137bc8184613706565b905092915050565b6000806000606084860312156137dd576137dc6130f1565b5b60006137eb86828701613347565b93505060206137fc86828701613292565b925050604061380d86828701613292565b9150509250925092565b600081519050919050565b600082825260208201905092915050565b6000819050602082019050919050565b600060e08301600083015161385b600086018261365a565b5060208301518482036020860152613873828261367a565b915050604083015161388860408601826136bd565b50606083015161389b60608601826136bd565b5060808301516138ae60808601826136e8565b5060a08301516138c160a08601826136e8565b5060c08301516138d460c08601826136f7565b508091505092915050565b60006138eb8383613843565b905092915050565b6000602082019050919050565b600061390b82613817565b6139158185613822565b93508360208202850161392785613833565b8060005b85811015613963578484038952815161394485826138df565b945061394f836138f3565b925060208a0199505060018101905061392b565b50829750879550505050505092915050565b6000602082019050818103600083015261398f8184613900565b905092915050565b600080604083850312156139ae576139ad6130f1565b5b60006139bc85828601613292565b92505060206139cd85828601613292565b9150509250929050565b6139e081613180565b81146139eb57600080fd5b50565b6000813590506139fd816139d7565b92915050565b60008060408385031215613a1a57613a196130f1565b5b6000613a2885828601613347565b9250506020613a39858286016139ee565b9150509250929050565b600080fd5b7f4e487b7100000000000000000000000000000000000000000000000000000000600052604160045260246000fd5b613a8082613205565b810181811067ffffffffffffffff82111715613a9f57613a9e613a48565b5b80604052505050565b6000613ab26130e7565b9050613abe8282613a77565b919050565b600067ffffffffffffffff821115613ade57613add613a48565b5b613ae782613205565b9050602081019050919050565b82818337600083830152505050565b6000613b16613b1184613ac3565b613aa8565b905082815260208101848484011115613b3257613b31613a43565b5b613b3d848285613af4565b509392505050565b600082601f830112613b5a57613b5961339c565b5b8135613b6a848260208601613b03565b91505092915050565b60008060008060808587031215613b8d57613b8c6130f1565b5b6000613b9b87828801613347565b9450506020613bac87828801613347565b9350506040613bbd87828801613292565b925050606085013567ffffffffffffffff811115613bde57613bdd6130f6565b5b613bea87828801613b45565b91505092959194509250565b600080600060408486031215613c0f57613c0e6130f1565b5b6000613c1d86828701613292565b935050602084013567ffffffffffffffff811115613c3e57613c3d6130f6565b5b613c4a868287016134dd565b92509250509250925092565b60008060408385031215613c6d57613c6c6130f1565b5b6000613c7b85828601613347565b9250506020613c8c85828601613347565b9150509250929050565b600060a083016000830151613cae60008601826136f7565b5060208301518482036020860152613cc6828261367a565b91505060408301518482036040860152613ce0828261367a565b9150506060830151613cf5606086018261365a565b506080830151613d08608086018261365a565b508091505092915050565b60006020820190508181036000830152613d2d8184613c96565b905092915050565b60008060008060608587031215613d4f57613d4e6130f1565b5b6000613d5d87828801613347565b9450506020613d6e87828801613292565b935050604085013567ffffffffffffffff811115613d8f57613d8e6130f6565b5b613d9b878288016133ab565b925092505092959194509250565b7f4e487b7100000000000000000000000000000000000000000000000000000000600052602260045260246000fd5b60006002820490506001821680613df057607f821691505b60208210811415613e0457613e03613da9565b5b50919050565b600081519050613e198161327b565b92915050565b600060208284031215613e3557613e346130f1565b5b6000613e4384828501613e0a565b91505092915050565b600081519050613e5b81613330565b92915050565b600060208284031215613e7757613e766130f1565b5b6000613e8584828501613e4c565b91505092915050565b600067ffffffffffffffff821115613ea957613ea8613a48565b5b613eb282613205565b9050602081019050919050565b6000613ed2613ecd84613e8e565b613aa8565b905082815260208101848484011115613eee57613eed613a43565b5b613ef98482856131d2565b509392505050565b600082601f830112613f1657613f1561339c565b5b8151613f26848260208601613ebf565b91505092915050565b613f38816136b3565b8114613f4357600080fd5b50565b600081519050613f5581613f2f565b92915050565b613f64816136cc565b8114613f6f57600080fd5b50565b600081519050613f8181613f5b565b92915050565b600080600080600060a08688031215613fa357613fa26130f1565b5b600086015167ffffffffffffffff811115613fc157613fc06130f6565b5b613fcd88828901613f01565b9550506020613fde88828901613f46565b9450506040613fef88828901613f46565b935050606061400088828901613f72565b925050608061401188828901613f72565b9150509295509295909350565b600067ffffffffffffffff82111561403957614038613a48565b5b602082029050602081019050919050565b600061405d6140588461401e565b613aa8565b905080838252602082019050602084028301858111156140805761407f6133a6565b5b835b818110156140a957806140958882613e0a565b845260208401935050602081019050614082565b5050509392505050565b600082601f8301126140c8576140c761339c565b5b81516140d884826020860161404a565b91505092915050565b6000602082840312156140f7576140f66130f1565b5b600082015167ffffffffffffffff811115614115576141146130f6565b5b614121848285016140b3565b91505092915050565b7f4e487b7100000000000000000000000000000000000000000000000000000000600052601160045260246000fd5b600061416482613271565b915061416f83613271565b9250828210156141825761418161412a565b5b828203905092915050565b600061419882613271565b91506141a383613271565b9250827fffffffffffffffffffffffffffffffffffffffffffffffffffffffffffffffff038211156141d8576141d761412a565b5b828201905092915050565b7f4e487b7100000000000000000000000000000000000000000000000000000000600052603260045260246000fd5b600061421d82613271565b91507fffffffffffffffffffffffffffffffffffffffffffffffffffffffffffffffff8214156142505761424f61412a565b5b600182019050919050565b600081905092915050565b6000614271826131b6565b61427b818561425b565b935061428b8185602086016131d2565b80840191505092915050565b60006142a38285614266565b91506142af8284614266565b91508190509392505050565b60006060820190506142d06000830186613306565b6142dd6020830185613306565b6142ea60408301846134b3565b949350505050565b600060608201905061430760008301866134b3565b61431460208301856134b3565b6143216040830184613306565b949350505050565b600061433583856131c1565b9350614342838584613af4565b61434b83613205565b840190509392505050565b600060408201905061436b60008301866134b3565b818103602083015261437e818486614329565b9050949350505050565b600060408201905061439d60008301856134b3565b6143aa60208301846134b3565b9392505050565b7f4f776e61626c653a206e6577206f776e657220697320746865207a65726f206160008201527f6464726573730000000000000000000000000000000000000000000000000000602082015250565b600061440d6026836131c1565b9150614418826143b1565b604082019050919050565b6000602082019050818103600083015261443c81614400565b9050919050565b7f4f776e61626c653a2063616c6c6572206973206e6f7420746865206f776e6572600082015250565b60006144796020836131c1565b915061448482614443565b602082019050919050565b600060208201905081810360008301526144a88161446c565b9050919050565b600081519050919050565b600082825260208201905092915050565b60006144d6826144af565b6144e081856144ba565b93506144f08185602086016131d2565b6144f981613205565b840191505092915050565b60006080820190506145196000830187613306565b6145266020830186613306565b61453360408301856134b3565b818103606083015261454581846144cb565b905095945050505050565b60008151905061455f81613127565b92915050565b60006020828403121561457b5761457a6130f1565b5b600061458984828501614550565b9150509291505056fea26469706673582212203766b7030ef3f419b2d22621e0afd86776106459e68a49908bc1f474b611fc2264736f6c63430008090033",
  "linkReferences": {},
  "deployedLinkReferences": {}
}