{
  "_format": "hh-sol-artifact-1",
  "contractName": "IPCV0Wrapper",
  "sourceName": "contracts/IPCContract.sol",
  "abi": [
    {
      "inputs": [],
      "stateMutability": "nonpayable",
      "type": "constructor"
    },
    {
      "inputs": [],
      "name": "ApprovalCallerNotOwnerNorApproved",
      "type": "error"
    },
    {
      "inputs": [],
      "name": "ApprovalQueryForNonexistentToken",
      "type": "error"
    },
    {
      "inputs": [],
      "name": "ApproveToCaller",
      "type": "error"
    },
    {
      "inputs": [],
      "name": "BalanceQueryForZeroAddress",
      "type": "error"
    },
    {
      "inputs": [],
      "name": "MintERC2309QuantityExceedsLimit",
      "type": "error"
    },
    {
      "inputs": [],
      "name": "MintToZeroAddress",
      "type": "error"
    },
    {
      "inputs": [],
      "name": "MintZeroQuantity",
      "type": "error"
    },
    {
      "inputs": [],
      "name": "OwnerQueryForNonexistentToken",
      "type": "error"
    },
    {
      "inputs": [],
      "name": "OwnershipNotInitializedForExtraData",
      "type": "error"
    },
    {
      "inputs": [],
      "name": "TokenLimitReached",
      "type": "error"
    },
    {
      "inputs": [],
      "name": "TokenNotExist",
      "type": "error"
    },
    {
      "inputs": [],
      "name": "TokenNotOwner",
      "type": "error"
    },
    {
      "inputs": [],
      "name": "TransferCallerNotOwnerNorApproved",
      "type": "error"
    },
    {
      "inputs": [],
      "name": "TransferFromIncorrectOwner",
      "type": "error"
    },
    {
      "inputs": [],
      "name": "TransferToNonERC721ReceiverImplementer",
      "type": "error"
    },
    {
      "inputs": [],
      "name": "TransferToZeroAddress",
      "type": "error"
    },
    {
      "inputs": [],
      "name": "URIQueryForNonexistentToken",
      "type": "error"
    },
    {
      "anonymous": false,
      "inputs": [
        {
          "indexed": true,
          "internalType": "address",
          "name": "owner",
          "type": "address"
        },
        {
          "indexed": true,
          "internalType": "address",
          "name": "approved",
          "type": "address"
        },
        {
          "indexed": true,
          "internalType": "uint256",
          "name": "tokenId",
          "type": "uint256"
        }
      ],
      "name": "Approval",
      "type": "event"
    },
    {
      "anonymous": false,
      "inputs": [
        {
          "indexed": true,
          "internalType": "address",
          "name": "owner",
          "type": "address"
        },
        {
          "indexed": true,
          "internalType": "address",
          "name": "operator",
          "type": "address"
        },
        {
          "indexed": false,
          "internalType": "bool",
          "name": "approved",
          "type": "bool"
        }
      ],
      "name": "ApprovalForAll",
      "type": "event"
    },
    {
      "anonymous": false,
      "inputs": [
        {
          "indexed": true,
          "internalType": "uint256",
          "name": "fromTokenId",
          "type": "uint256"
        },
        {
          "indexed": false,
          "internalType": "uint256",
          "name": "toTokenId",
          "type": "uint256"
        },
        {
          "indexed": true,
          "internalType": "address",
          "name": "from",
          "type": "address"
        },
        {
          "indexed": true,
          "internalType": "address",
          "name": "to",
          "type": "address"
        }
      ],
      "name": "ConsecutiveTransfer",
      "type": "event"
    },
    {
      "anonymous": false,
      "inputs": [
        {
          "indexed": true,
          "internalType": "address",
          "name": "previousOwner",
          "type": "address"
        },
        {
          "indexed": true,
          "internalType": "address",
          "name": "newOwner",
          "type": "address"
        }
      ],
      "name": "OwnershipTransferred",
      "type": "event"
    },
    {
      "anonymous": false,
      "inputs": [
        {
          "indexed": true,
          "internalType": "address",
          "name": "from",
          "type": "address"
        },
        {
          "indexed": true,
          "internalType": "address",
          "name": "to",
          "type": "address"
        },
        {
          "indexed": true,
          "internalType": "uint256",
          "name": "tokenId",
          "type": "uint256"
        }
      ],
      "name": "Transfer",
      "type": "event"
    },
    {
      "anonymous": false,
      "inputs": [
        {
          "indexed": false,
          "internalType": "uint256",
          "name": "",
          "type": "uint256"
        },
        {
          "indexed": false,
          "internalType": "uint256",
          "name": "",
          "type": "uint256"
        },
        {
          "indexed": false,
          "internalType": "address",
          "name": "",
          "type": "address"
        }
      ],
      "name": "Unwrapped",
      "type": "event"
    },
    {
      "anonymous": false,
      "inputs": [
        {
          "indexed": false,
          "internalType": "uint256",
          "name": "",
          "type": "uint256"
        },
        {
          "indexed": false,
          "internalType": "uint256",
          "name": "",
          "type": "uint256"
        },
        {
          "indexed": false,
          "internalType": "address",
          "name": "",
          "type": "address"
        }
      ],
      "name": "Wrapped",
      "type": "event"
    },
    {
      "inputs": [
        {
          "internalType": "address",
          "name": "to",
          "type": "address"
        },
        {
          "internalType": "uint256",
          "name": "tokenId",
          "type": "uint256"
        }
      ],
      "name": "approve",
      "outputs": [],
      "stateMutability": "nonpayable",
      "type": "function"
    },
    {
      "inputs": [
        {
          "internalType": "address",
          "name": "owner",
          "type": "address"
        }
      ],
      "name": "balanceOf",
      "outputs": [
        {
          "internalType": "uint256",
          "name": "",
          "type": "uint256"
        }
      ],
      "stateMutability": "view",
      "type": "function"
    },
    {
      "inputs": [
        {
          "internalType": "uint256",
          "name": "tokenId",
          "type": "uint256"
        },
        {
          "internalType": "string",
          "name": "newName",
          "type": "string"
        }
      ],
      "name": "changeIpcName",
      "outputs": [],
      "stateMutability": "payable",
      "type": "function"
    },
    {
      "inputs": [],
      "name": "contractURI",
      "outputs": [
        {
          "internalType": "string",
          "name": "",
          "type": "string"
        }
      ],
      "stateMutability": "view",
      "type": "function"
    },
    {
      "inputs": [
        {
          "internalType": "uint256",
          "name": "tokenId",
          "type": "uint256"
        }
      ],
      "name": "getApproved",
      "outputs": [
        {
          "internalType": "address",
          "name": "",
          "type": "address"
        }
      ],
      "stateMutability": "view",
      "type": "function"
    },
    {
      "inputs": [
        {
          "internalType": "uint256",
          "name": "tokenId",
          "type": "uint256"
        }
      ],
      "name": "getIpc",
      "outputs": [
        {
          "internalType": "string",
          "name": "name",
          "type": "string"
        },
        {
          "internalType": "bytes32",
          "name": "attributeSeed",
          "type": "bytes32"
        },
        {
          "internalType": "bytes32",
          "name": "dna",
          "type": "bytes32"
        },
        {
          "internalType": "uint128",
          "name": "experience",
          "type": "uint128"
        },
        {
          "internalType": "uint128",
          "name": "timeOfBirth",
          "type": "uint128"
        }
      ],
      "stateMutability": "view",
      "type": "function"
    },
    {
      "inputs": [
        {
          "internalType": "uint256",
          "name": "tokenId",
          "type": "uint256"
        }
      ],
      "name": "getTokenIndex",
      "outputs": [
        {
          "internalType": "uint256",
          "name": "",
          "type": "uint256"
        }
      ],
      "stateMutability": "view",
      "type": "function"
    },
    {
      "inputs": [
        {
          "internalType": "uint256",
          "name": "tokenId",
          "type": "uint256"
        }
      ],
      "name": "getTokenOwnership",
      "outputs": [
        {
          "internalType": "address",
          "name": "",
          "type": "address"
        }
      ],
      "stateMutability": "view",
      "type": "function"
    },
    {
      "inputs": [
        {
          "internalType": "address",
          "name": "owner",
          "type": "address"
        },
        {
          "internalType": "address",
          "name": "operator",
          "type": "address"
        }
      ],
      "name": "isApprovedForAll",
      "outputs": [
        {
          "internalType": "bool",
          "name": "",
          "type": "bool"
        }
      ],
      "stateMutability": "view",
      "type": "function"
    },
    {
      "inputs": [],
      "name": "name",
      "outputs": [
        {
          "internalType": "string",
          "name": "",
          "type": "string"
        }
      ],
      "stateMutability": "view",
      "type": "function"
    },
    {
      "inputs": [
        {
          "internalType": "address",
          "name": "",
          "type": "address"
        },
        {
          "internalType": "address",
          "name": "",
          "type": "address"
        },
        {
          "internalType": "uint256",
          "name": "",
          "type": "uint256"
        },
        {
          "internalType": "bytes",
          "name": "",
          "type": "bytes"
        }
      ],
      "name": "onERC721Received",
      "outputs": [
        {
          "internalType": "bytes4",
          "name": "",
          "type": "bytes4"
        }
      ],
      "stateMutability": "pure",
      "type": "function"
    },
    {
      "inputs": [
        {
          "internalType": "address",
          "name": "",
          "type": "address"
        },
        {
          "internalType": "uint256",
          "name": "",
          "type": "uint256"
        },
        {
          "internalType": "bytes",
          "name": "",
          "type": "bytes"
        }
      ],
      "name": "onERC721Received",
      "outputs": [
        {
          "internalType": "bytes4",
          "name": "",
          "type": "bytes4"
        }
      ],
      "stateMutability": "pure",
      "type": "function"
    },
    {
      "inputs": [],
      "name": "owner",
      "outputs": [
        {
          "internalType": "address",
          "name": "",
          "type": "address"
        }
      ],
      "stateMutability": "view",
      "type": "function"
    },
    {
      "inputs": [
        {
          "internalType": "uint256",
          "name": "tokenId",
          "type": "uint256"
        }
      ],
      "name": "ownerOf",
      "outputs": [
        {
          "internalType": "address",
          "name": "",
          "type": "address"
        }
      ],
      "stateMutability": "view",
      "type": "function"
    },
    {
      "inputs": [],
      "name": "renounceOwnership",
      "outputs": [],
      "stateMutability": "nonpayable",
      "type": "function"
    },
    {
      "inputs": [
        {
          "internalType": "address",
          "name": "from",
          "type": "address"
        },
        {
          "internalType": "address",
          "name": "to",
          "type": "address"
        },
        {
          "internalType": "uint256",
          "name": "tokenId",
          "type": "uint256"
        }
      ],
      "name": "safeTransferFrom",
      "outputs": [],
      "stateMutability": "nonpayable",
      "type": "function"
    },
    {
      "inputs": [
        {
          "internalType": "address",
          "name": "from",
          "type": "address"
        },
        {
          "internalType": "address",
          "name": "to",
          "type": "address"
        },
        {
          "internalType": "uint256",
          "name": "tokenId",
          "type": "uint256"
        },
        {
          "internalType": "bytes",
          "name": "_data",
          "type": "bytes"
        }
      ],
      "name": "safeTransferFrom",
      "outputs": [],
      "stateMutability": "nonpayable",
      "type": "function"
    },
    {
      "inputs": [
        {
          "internalType": "address",
          "name": "operator",
          "type": "address"
        },
        {
          "internalType": "bool",
          "name": "approved",
          "type": "bool"
        }
      ],
      "name": "setApprovalForAll",
      "outputs": [],
      "stateMutability": "nonpayable",
      "type": "function"
    },
    {
      "inputs": [
        {
          "internalType": "address",
          "name": "_contractAddress",
          "type": "address"
        }
      ],
      "name": "setContractAddress",
      "outputs": [],
      "stateMutability": "nonpayable",
      "type": "function"
    },
    {
      "inputs": [
        {
          "internalType": "string",
          "name": "__contractURI",
          "type": "string"
        }
      ],
      "name": "setContractURI",
      "outputs": [],
      "stateMutability": "nonpayable",
      "type": "function"
    },
    {
      "inputs": [
        {
          "internalType": "uint256",
          "name": "_maxPrice",
          "type": "uint256"
        }
      ],
      "name": "setMaxPrice",
      "outputs": [],
      "stateMutability": "nonpayable",
      "type": "function"
    },
    {
      "inputs": [
        {
          "internalType": "uint256",
          "name": "_tokenLimit",
          "type": "uint256"
        }
      ],
      "name": "setTokenLimit",
      "outputs": [],
      "stateMutability": "nonpayable",
      "type": "function"
    },
    {
      "inputs": [
        {
          "internalType": "string",
          "name": "__tokenURI",
          "type": "string"
        }
      ],
      "name": "setTokenURI",
      "outputs": [],
      "stateMutability": "nonpayable",
      "type": "function"
    },
    {
      "inputs": [
        {
          "internalType": "bytes4",
          "name": "interfaceId",
          "type": "bytes4"
        }
      ],
      "name": "supportsInterface",
      "outputs": [
        {
          "internalType": "bool",
          "name": "",
          "type": "bool"
        }
      ],
      "stateMutability": "view",
      "type": "function"
    },
    {
      "inputs": [],
      "name": "symbol",
      "outputs": [
        {
          "internalType": "string",
          "name": "",
          "type": "string"
        }
      ],
      "stateMutability": "view",
      "type": "function"
    },
    {
      "inputs": [
        {
          "internalType": "uint256",
          "name": "tokenId",
          "type": "uint256"
        }
      ],
      "name": "tokenURI",
      "outputs": [
        {
          "internalType": "string",
          "name": "",
          "type": "string"
        }
      ],
      "stateMutability": "view",
      "type": "function"
    },
    {
      "inputs": [],
      "name": "totalSupply",
      "outputs": [
        {
          "internalType": "uint256",
          "name": "",
          "type": "uint256"
        }
      ],
      "stateMutability": "view",
      "type": "function"
    },
    {
      "inputs": [
        {
          "internalType": "address",
          "name": "from",
          "type": "address"
        },
        {
          "internalType": "address",
          "name": "to",
          "type": "address"
        },
        {
          "internalType": "uint256",
          "name": "tokenId",
          "type": "uint256"
        }
      ],
      "name": "transferFrom",
      "outputs": [],
      "stateMutability": "nonpayable",
      "type": "function"
    },
    {
      "inputs": [
        {
          "internalType": "address",
          "name": "newOwner",
          "type": "address"
        }
      ],
      "name": "transferOwnership",
      "outputs": [],
      "stateMutability": "nonpayable",
      "type": "function"
    },
    {
      "inputs": [
        {
          "internalType": "uint256",
          "name": "tokenId",
          "type": "uint256"
        }
      ],
      "name": "unwrap",
      "outputs": [],
      "stateMutability": "nonpayable",
      "type": "function"
    },
    {
      "inputs": [
        {
          "internalType": "uint256",
          "name": "tokenId",
          "type": "uint256"
        }
      ],
      "name": "wrap",
      "outputs": [],
      "stateMutability": "nonpayable",
      "type": "function"
    }
  ],
  "bytecode": "0x60806040523480156200001157600080fd5b506040518060400160405280601d81526020017f496d6d6f7274616c20506c6179657220436861726163746572732076300000008152506040518060400160405280600581526020017f49504356300000000000000000000000000000000000000000000000000000008152506200009e62000092620001a760201b60201c565b620001af60201b60201c565b8160039080519060200190620000b69291906200027c565b508060049080519060200190620000cf9291906200027c565b50620000e06200027360201b60201c565b600181905550505073e902e1ae262dcf161d6a2f1be71fc16cc9afddd6600960006101000a81548173ffffffffffffffffffffffffffffffffffffffff021916908373ffffffffffffffffffffffffffffffffffffffff16021790555060405180602001604052806000815250600a9080519060200190620001649291906200027c565b5060405180602001604052806000815250600b90805190602001906200018c9291906200027c565b506305f5e100600c819055506103e8600d8190555062000391565b600033905090565b60008060009054906101000a900473ffffffffffffffffffffffffffffffffffffffff169050816000806101000a81548173ffffffffffffffffffffffffffffffffffffffff021916908373ffffffffffffffffffffffffffffffffffffffff1602179055508173ffffffffffffffffffffffffffffffffffffffff168173ffffffffffffffffffffffffffffffffffffffff167f8be0079c531659141344cd1fd0a4f28419497f9722a3daafe3b4186f6b6457e060405160405180910390a35050565b60006001905090565b8280546200028a906200035b565b90600052602060002090601f016020900481019282620002ae5760008555620002fa565b82601f10620002c957805160ff1916838001178555620002fa565b82800160010185558215620002fa579182015b82811115620002f9578251825591602001919060010190620002dc565b5b5090506200030991906200030d565b5090565b5b80821115620003285760008160009055506001016200030e565b5090565b7f4e487b7100000000000000000000000000000000000000000000000000000000600052602260045260246000fd5b600060028204905060018216806200037457607f821691505b602082108114156200038b576200038a6200032c565b5b50919050565b61393280620003a16000396000f3fe6080604052600436106101d85760003560e01c8063938e3d7b11610102578063dfb31a7c11610095578063ea598cb011610064578063ea598cb0146106e7578063f0b9e5ba14610710578063f2fde38b1461074d578063f43952e314610776576101d8565b8063dfb31a7c1461063a578063e0df5b6f14610656578063e8a3d4851461067f578063e985e9c5146106aa576101d8565b8063c0e68fec116100d1578063c0e68fec1461056e578063c87b56dd14610597578063d8500306146105d4578063de0e9a3e14610611576101d8565b8063938e3d7b146104c857806395d89b41146104f1578063a22cb4651461051c578063b88d4fde14610545576101d8565b80633a663c801161017a57806370a082311161014957806370a0823114610408578063715018a6146104455780637fff1e2f1461045c5780638da5cb5b1461049d576101d8565b80633a663c801461033c57806342842e0e14610379578063477bddaa146103a25780636352211e146103cb576101d8565b8063095ea7b3116101b6578063095ea7b314610282578063150b7a02146102ab57806318160ddd146102e857806323b872dd14610313576101d8565b806301ffc9a7146101dd57806306fdde031461021a578063081812fc14610245575b600080fd5b3480156101e957600080fd5b5061020460048036038101906101ff9190612a2b565b61079f565b6040516102119190612a73565b60405180910390f35b34801561022657600080fd5b5061022f610831565b60405161023c9190612b27565b60405180910390f35b34801561025157600080fd5b5061026c60048036038101906102679190612b7f565b6108c3565b6040516102799190612bed565b60405180910390f35b34801561028e57600080fd5b506102a960048036038101906102a49190612c34565b610942565b005b3480156102b757600080fd5b506102d260048036038101906102cd9190612cd9565b610a86565b6040516102df9190612d70565b60405180910390f35b3480156102f457600080fd5b506102fd610a9b565b60405161030a9190612d9a565b60405180910390f35b34801561031f57600080fd5b5061033a60048036038101906103359190612db5565b610b42565b005b34801561034857600080fd5b50610363600480360381019061035e9190612b7f565b610e67565b6040516103709190612d9a565b60405180910390f35b34801561038557600080fd5b506103a0600480360381019061039b9190612db5565b610e84565b005b3480156103ae57600080fd5b506103c960048036038101906103c49190612e08565b610ea4565b005b3480156103d757600080fd5b506103f260048036038101906103ed9190612b7f565b610ef0565b6040516103ff9190612bed565b60405180910390f35b34801561041457600080fd5b5061042f600480360381019061042a9190612e08565b61100b565b60405161043c9190612d9a565b60405180910390f35b34801561045157600080fd5b5061045a6110c4565b005b34801561046857600080fd5b50610483600480360381019061047e9190612b7f565b6110d8565b604051610494959493929190612e79565b60405180910390f35b3480156104a957600080fd5b506104b26111a3565b6040516104bf9190612bed565b60405180910390f35b3480156104d457600080fd5b506104ef60048036038101906104ea9190612f29565b6111cc565b005b3480156104fd57600080fd5b506105066111ea565b6040516105139190612b27565b60405180910390f35b34801561052857600080fd5b50610543600480360381019061053e9190612fa2565b61127c565b005b34801561055157600080fd5b5061056c60048036038101906105679190613112565b6113f4565b005b34801561057a57600080fd5b5061059560048036038101906105909190612b7f565b611467565b005b3480156105a357600080fd5b506105be60048036038101906105b99190612b7f565b611479565b6040516105cb9190612b27565b60405180910390f35b3480156105e057600080fd5b506105fb60048036038101906105f69190612b7f565b611520565b6040516106089190612bed565b60405180910390f35b34801561061d57600080fd5b5061063860048036038101906106339190612b7f565b6115d4565b005b610654600480360381019061064f9190613195565b611921565b005b34801561066257600080fd5b5061067d60048036038101906106789190612f29565b6119b8565b005b34801561068b57600080fd5b506106946119d6565b6040516106a19190612b27565b60405180910390f35b3480156106b657600080fd5b506106d160048036038101906106cc91906131f5565b611a68565b6040516106de9190612a73565b60405180910390f35b3480156106f357600080fd5b5061070e60048036038101906107099190612b7f565b611afc565b005b34801561071c57600080fd5b5061073760048036038101906107329190613235565b611dc6565b6040516107449190612d70565b60405180910390f35b34801561075957600080fd5b50610774600480360381019061076f9190612e08565b611df3565b005b34801561078257600080fd5b5061079d60048036038101906107989190612b7f565b611e77565b005b60006301ffc9a760e01b827bffffffffffffffffffffffffffffffffffffffffffffffffffffffff191614806107fa57506380ac58cd60e01b827bffffffffffffffffffffffffffffffffffffffffffffffffffffffff1916145b8061082a5750635b5e139f60e01b827bffffffffffffffffffffffffffffffffffffffffffffffffffffffff1916145b9050919050565b606060038054610840906132d8565b80601f016020809104026020016040519081016040528092919081815260200182805461086c906132d8565b80156108b95780601f1061088e576101008083540402835291602001916108b9565b820191906000526020600020905b81548152906001019060200180831161089c57829003601f168201915b5050505050905090565b60006108ce82611e89565b610904576040517fcf4700e400000000000000000000000000000000000000000000000000000000815260040160405180910390fd5b6007600083815260200190815260200160002060000160009054906101000a900473ffffffffffffffffffffffffffffffffffffffff169050919050565b600061094d82610ef0565b90508073ffffffffffffffffffffffffffffffffffffffff1661096e611ee8565b73ffffffffffffffffffffffffffffffffffffffff16146109d15761099a81610995611ee8565b611a68565b6109d0576040517fcfb3b94200000000000000000000000000000000000000000000000000000000815260040160405180910390fd5b5b826007600084815260200190815260200160002060000160006101000a81548173ffffffffffffffffffffffffffffffffffffffff021916908373ffffffffffffffffffffffffffffffffffffffff160217905550818373ffffffffffffffffffffffffffffffffffffffff168273ffffffffffffffffffffffffffffffffffffffff167f8c5be1e5ebec7d5bd14f71427d1e84f3dd0314c0f7b2291e5b200ac8c7c3b92560405160405180910390a4505050565b600063150b7a0260e01b905095945050505050565b6000600960009054906101000a900473ffffffffffffffffffffffffffffffffffffffff1673ffffffffffffffffffffffffffffffffffffffff166318160ddd6040518163ffffffff1660e01b815260040160206040518083038186803b158015610b0557600080fd5b505afa158015610b19573d6000803e3d6000fd5b505050506040513d601f19601f82011682018060405250810190610b3d919061331f565b905090565b6000610b4d82611ef0565b90508373ffffffffffffffffffffffffffffffffffffffff168173ffffffffffffffffffffffffffffffffffffffff1614610bb4576040517fa114810000000000000000000000000000000000000000000000000000000000815260040160405180910390fd5b600080610bc084611fbe565b91509150610bd68187610bd1611ee8565b611fe5565b610c2257610beb86610be6611ee8565b611a68565b610c21576040517f59c896be00000000000000000000000000000000000000000000000000000000815260040160405180910390fd5b5b600073ffffffffffffffffffffffffffffffffffffffff168573ffffffffffffffffffffffffffffffffffffffff161415610c89576040517fea553b3400000000000000000000000000000000000000000000000000000000815260040160405180910390fd5b610c968686866001612029565b8015610ca157600082555b600660008773ffffffffffffffffffffffffffffffffffffffff1673ffffffffffffffffffffffffffffffffffffffff168152602001908152602001600020600081546001900391905081905550600660008673ffffffffffffffffffffffffffffffffffffffff1673ffffffffffffffffffffffffffffffffffffffff1681526020019081526020016000206000815460010191905081905550610d6f85610d4b88888761202f565b7c020000000000000000000000000000000000000000000000000000000017612057565b600560008681526020019081526020016000208190555060007c020000000000000000000000000000000000000000000000000000000084161415610df7576000600185019050600060056000838152602001908152602001600020541415610df5576001548114610df4578360056000838152602001908152602001600020819055505b5b505b838573ffffffffffffffffffffffffffffffffffffffff168773ffffffffffffffffffffffffffffffffffffffff167fddf252ad1be2c89b69c2b068fc378daa952ba7f163c4a11628f55a4df523b3ef60405160405180910390a4610e5f8686866001612082565b505050505050565b6000600f6000838152602001908152602001600020549050919050565b610e9f838383604051806020016040528060008152506113f4565b505050565b610eac612088565b80600960006101000a81548173ffffffffffffffffffffffffffffffffffffffff021916908373ffffffffffffffffffffffffffffffffffffffff16021790555050565b600080600f60008481526020019081526020016000205490506000811415610fc557600960009054906101000a900473ffffffffffffffffffffffffffffffffffffffff1673ffffffffffffffffffffffffffffffffffffffff16636352211e846040518263ffffffff1660e01b8152600401610f6d9190612d9a565b60206040518083038186803b158015610f8557600080fd5b505afa158015610f99573d6000803e3d6000fd5b505050506040513d601f19601f82011682018060405250810190610fbd9190613361565b915050611006565b6000600e600083815260200190815260200160002060010160009054906101000a900473ffffffffffffffffffffffffffffffffffffffff16905080925050505b919050565b60008073ffffffffffffffffffffffffffffffffffffffff168273ffffffffffffffffffffffffffffffffffffffff161415611073576040517f8f4eb60400000000000000000000000000000000000000000000000000000000815260040160405180910390fd5b67ffffffffffffffff600660008473ffffffffffffffffffffffffffffffffffffffff1673ffffffffffffffffffffffffffffffffffffffff16815260200190815260200160002054169050919050565b6110cc612088565b6110d66000612106565b565b6060600080600080600960009054906101000a900473ffffffffffffffffffffffffffffffffffffffff1673ffffffffffffffffffffffffffffffffffffffff16637fff1e2f876040518263ffffffff1660e01b815260040161113b9190612d9a565b60006040518083038186803b15801561115357600080fd5b505afa158015611167573d6000803e3d6000fd5b505050506040513d6000823e3d601f19601f820116820180604052508101906111909190613487565b9450945094509450945091939590929450565b60008060009054906101000a900473ffffffffffffffffffffffffffffffffffffffff16905090565b6111d4612088565b8181600b91906111e592919061291c565b505050565b6060600480546111f9906132d8565b80601f0160208091040260200160405190810160405280929190818152602001828054611225906132d8565b80156112725780601f1061124757610100808354040283529160200191611272565b820191906000526020600020905b81548152906001019060200180831161125557829003601f168201915b5050505050905090565b611284611ee8565b73ffffffffffffffffffffffffffffffffffffffff168273ffffffffffffffffffffffffffffffffffffffff1614156112e9576040517fb06307db00000000000000000000000000000000000000000000000000000000815260040160405180910390fd5b80600860006112f6611ee8565b73ffffffffffffffffffffffffffffffffffffffff1673ffffffffffffffffffffffffffffffffffffffff16815260200190815260200160002060008473ffffffffffffffffffffffffffffffffffffffff1673ffffffffffffffffffffffffffffffffffffffff16815260200190815260200160002060006101000a81548160ff0219169083151502179055508173ffffffffffffffffffffffffffffffffffffffff166113a3611ee8565b73ffffffffffffffffffffffffffffffffffffffff167f17307eab39ab6107e8899845ad3d59bd9653f200f220920489ca2b5937696c31836040516113e89190612a73565b60405180910390a35050565b6113ff848484610b42565b60008373ffffffffffffffffffffffffffffffffffffffff163b146114615761142a848484846121ca565b611460576040517fd1a57ed600000000000000000000000000000000000000000000000000000000815260040160405180910390fd5b5b50505050565b61146f612088565b80600d8190555050565b6060600d5482118061148b5750600082145b156114c2576040517fa14c4b5000000000000000000000000000000000000000000000000000000000815260040160405180910390fd5b60006114cc61232a565b90506000815114156114ed5760405180602001604052806000815250611518565b806114f7846123bc565b60405160200161150892919061355a565b6040516020818303038152906040525b915050919050565b6000600960009054906101000a900473ffffffffffffffffffffffffffffffffffffffff1673ffffffffffffffffffffffffffffffffffffffff16636352211e836040518263ffffffff1660e01b815260040161157d9190612d9a565b60206040518083038186803b15801561159557600080fd5b505afa1580156115a9573d6000803e3d6000fd5b505050506040513d601f19601f820116820180604052508101906115cd9190613361565b9050919050565b6000600f60008381526020019081526020016000205490506000811415611627576040517f4494362200000000000000000000000000000000000000000000000000000000815260040160405180910390fd5b60003390508073ffffffffffffffffffffffffffffffffffffffff16600e600084815260200190815260200160002060010160009054906101000a900473ffffffffffffffffffffffffffffffffffffffff1673ffffffffffffffffffffffffffffffffffffffff16146116c7576040517ff637a3e300000000000000000000000000000000000000000000000000000000815260040160405180910390fd5b600f600084815260200190815260200160002060009055600e60008381526020019081526020016000206000808201600090556001820160006101000a81549073ffffffffffffffffffffffffffffffffffffffff0219169055505060005b601060008373ffffffffffffffffffffffffffffffffffffffff1673ffffffffffffffffffffffffffffffffffffffff168152602001908152602001600020805490508110156118465783601060008473ffffffffffffffffffffffffffffffffffffffff1673ffffffffffffffffffffffffffffffffffffffff16815260200190815260200160002082815481106117c2576117c161357e565b5b9060005260206000200154141561183357601060008373ffffffffffffffffffffffffffffffffffffffff1673ffffffffffffffffffffffffffffffffffffffff16815260200190815260200160002081815481106118245761182361357e565b5b90600052602060002001600090555b808061183e906135dc565b915050611726565b506118508261240c565b600960009054906101000a900473ffffffffffffffffffffffffffffffffffffffff1673ffffffffffffffffffffffffffffffffffffffff166342842e0e3083866040518463ffffffff1660e01b81526004016118af93929190613625565b600060405180830381600087803b1580156118c957600080fd5b505af11580156118dd573d6000803e3d6000fd5b505050507f175e3dad2e6c10f120d3216de54ebe7abeee5b7f33c8941af43e73a0315e4a808284836040516119149392919061365c565b60405180910390a1505050565b600960009054906101000a900473ffffffffffffffffffffffffffffffffffffffff1673ffffffffffffffffffffffffffffffffffffffff1663dfb31a7c348585856040518563ffffffff1660e01b8152600401611981939291906136c0565b6000604051808303818588803b15801561199a57600080fd5b505af11580156119ae573d6000803e3d6000fd5b5050505050505050565b6119c0612088565b8181600a91906119d192919061291c565b505050565b6060600b80546119e5906132d8565b80601f0160208091040260200160405190810160405280929190818152602001828054611a11906132d8565b8015611a5e5780601f10611a3357610100808354040283529160200191611a5e565b820191906000526020600020905b815481529060010190602001808311611a4157829003601f168201915b5050505050905090565b6000600860008473ffffffffffffffffffffffffffffffffffffffff1673ffffffffffffffffffffffffffffffffffffffff16815260200190815260200160002060008373ffffffffffffffffffffffffffffffffffffffff1673ffffffffffffffffffffffffffffffffffffffff16815260200190815260200160002060009054906101000a900460ff16905092915050565b600d54811115611b38576040517f53bb24f900000000000000000000000000000000000000000000000000000000815260040160405180910390fd5b6000339050600960009054906101000a900473ffffffffffffffffffffffffffffffffffffffff1673ffffffffffffffffffffffffffffffffffffffff166342842e0e8230856040518463ffffffff1660e01b8152600401611b9c93929190613625565b600060405180830381600087803b158015611bb657600080fd5b505af1158015611bca573d6000803e3d6000fd5b50505050600960009054906101000a900473ffffffffffffffffffffffffffffffffffffffff1673ffffffffffffffffffffffffffffffffffffffff16633d4cfe2183600c546040518363ffffffff1660e01b8152600401611c2d9291906136f2565b600060405180830381600087803b158015611c4757600080fd5b505af1158015611c5b573d6000803e3d6000fd5b505050506000611c6961241a565b905060405180604001604052808481526020018373ffffffffffffffffffffffffffffffffffffffff16815250600e60008381526020019081526020016000206000820151816000015560208201518160010160006101000a81548173ffffffffffffffffffffffffffffffffffffffff021916908373ffffffffffffffffffffffffffffffffffffffff16021790555090505080600f600085815260200190815260200160002081905550601060008373ffffffffffffffffffffffffffffffffffffffff1673ffffffffffffffffffffffffffffffffffffffff168152602001908152602001600020819080600181540180825580915050600190039060005260206000200160009091909190915055611d86826001612424565b7ff90572efd1ab4fb9c6b9dabfd24d103ce15482a9ec0c50e0e32618708783b15b818484604051611db99392919061365c565b60405180910390a1505050565b60007ff0b9e5baf647f945565b0ac04522b519449041bdd44f952626b9ead9ff3692419050949350505050565b611dfb612088565b600073ffffffffffffffffffffffffffffffffffffffff168173ffffffffffffffffffffffffffffffffffffffff161415611e6b576040517f08c379a0000000000000000000000000000000000000000000000000000000008152600401611e629061378d565b60405180910390fd5b611e7481612106565b50565b611e7f612088565b80600c8190555050565b600081611e94612442565b11158015611ea3575060015482105b8015611ee1575060007c0100000000000000000000000000000000000000000000000000000000600560008581526020019081526020016000205416145b9050919050565b600033905090565b60008082905080611eff612442565b11611f8757600154811015611f865760006005600083815260200190815260200160002054905060007c010000000000000000000000000000000000000000000000000000000082161415611f84575b6000811415611f7a576005600083600190039350838152602001908152602001600020549050611f4f565b8092505050611fb9565b505b5b6040517fdf2d9b4200000000000000000000000000000000000000000000000000000000815260040160405180910390fd5b919050565b60008060006007600085815260200190815260200160002090508092508254915050915091565b600073ffffffffffffffffffffffffffffffffffffffff8316925073ffffffffffffffffffffffffffffffffffffffff821691508382148383141790509392505050565b50505050565b60008060e883901c905060e861204686868461244b565b62ffffff16901b9150509392505050565b600073ffffffffffffffffffffffffffffffffffffffff83169250814260a01b178317905092915050565b50505050565b612090612454565b73ffffffffffffffffffffffffffffffffffffffff166120ae6111a3565b73ffffffffffffffffffffffffffffffffffffffff1614612104576040517f08c379a00000000000000000000000000000000000000000000000000000000081526004016120fb906137f9565b60405180910390fd5b565b60008060009054906101000a900473ffffffffffffffffffffffffffffffffffffffff169050816000806101000a81548173ffffffffffffffffffffffffffffffffffffffff021916908373ffffffffffffffffffffffffffffffffffffffff1602179055508173ffffffffffffffffffffffffffffffffffffffff168173ffffffffffffffffffffffffffffffffffffffff167f8be0079c531659141344cd1fd0a4f28419497f9722a3daafe3b4186f6b6457e060405160405180910390a35050565b60008373ffffffffffffffffffffffffffffffffffffffff1663150b7a026121f0611ee8565b8786866040518563ffffffff1660e01b8152600401612212949392919061386e565b602060405180830381600087803b15801561222c57600080fd5b505af192505050801561225d57506040513d601f19601f8201168201806040525081019061225a91906138cf565b60015b6122d7573d806000811461228d576040519150601f19603f3d011682016040523d82523d6000602084013e612292565b606091505b506000815114156122cf576040517fd1a57ed600000000000000000000000000000000000000000000000000000000815260040160405180910390fd5b805181602001fd5b63150b7a0260e01b7bffffffffffffffffffffffffffffffffffffffffffffffffffffffff1916817bffffffffffffffffffffffffffffffffffffffffffffffffffffffff191614915050949350505050565b6060600a8054612339906132d8565b80601f0160208091040260200160405190810160405280929190818152602001828054612365906132d8565b80156123b25780601f10612387576101008083540402835291602001916123b2565b820191906000526020600020905b81548152906001019060200180831161239557829003601f168201915b5050505050905090565b606060806040510190508060405280825b6001156123f857600183039250600a81066030018353600a81049050806123f3576123f8565b6123cd565b508181036020830392508083525050919050565b61241781600061245c565b50565b6000600154905090565b61243e8282604051806020016040528060008152506126b0565b5050565b60006001905090565b60009392505050565b600033905090565b600061246783611ef0565b9050600081905060008061247a86611fbe565b9150915084156124e3576124968184612491611ee8565b611fe5565b6124e2576124ab836124a6611ee8565b611a68565b6124e1576040517f59c896be00000000000000000000000000000000000000000000000000000000815260040160405180910390fd5b5b5b6124f1836000886001612029565b80156124fc57600082555b600160806001901b03600660008573ffffffffffffffffffffffffffffffffffffffff1673ffffffffffffffffffffffffffffffffffffffff168152602001908152602001600020600082825401925050819055506125a4836125618560008861202f565b7c02000000000000000000000000000000000000000000000000000000007c01000000000000000000000000000000000000000000000000000000001717612057565b600560008881526020019081526020016000208190555060007c02000000000000000000000000000000000000000000000000000000008516141561262c57600060018701905060006005600083815260200190815260200160002054141561262a576001548114612629578460056000838152602001908152602001600020819055505b5b505b85600073ffffffffffffffffffffffffffffffffffffffff168473ffffffffffffffffffffffffffffffffffffffff167fddf252ad1be2c89b69c2b068fc378daa952ba7f163c4a11628f55a4df523b3ef60405160405180910390a4612696836000886001612082565b600260008154809291906001019190505550505050505050565b6126ba838361274e565b60008373ffffffffffffffffffffffffffffffffffffffff163b146127495760006001549050600083820390505b6126fb60008683806001019450866121ca565b612731576040517fd1a57ed600000000000000000000000000000000000000000000000000000000815260040160405180910390fd5b8181106126e857816001541461274657600080fd5b50505b505050565b600060015490506000821415612790576040517fb562e8dd00000000000000000000000000000000000000000000000000000000815260040160405180910390fd5b61279d6000848385612029565b600160406001901b178202600660008573ffffffffffffffffffffffffffffffffffffffff1673ffffffffffffffffffffffffffffffffffffffff1681526020019081526020016000206000828254019250508190555061281483612805600086600061202f565b61280e8561290c565b17612057565b6005600083815260200190815260200160002081905550600080838301905073ffffffffffffffffffffffffffffffffffffffff85169150828260007fddf252ad1be2c89b69c2b068fc378daa952ba7f163c4a11628f55a4df523b3ef600080a4600183015b8181146128b557808360007fddf252ad1be2c89b69c2b068fc378daa952ba7f163c4a11628f55a4df523b3ef600080a460018101905061287a565b5060008214156128f1576040517f2e07630000000000000000000000000000000000000000000000000000000000815260040160405180910390fd5b8060018190555050506129076000848385612082565b505050565b60006001821460e11b9050919050565b828054612928906132d8565b90600052602060002090601f01602090048101928261294a5760008555612991565b82601f1061296357803560ff1916838001178555612991565b82800160010185558215612991579182015b82811115612990578235825591602001919060010190612975565b5b50905061299e91906129a2565b5090565b5b808211156129bb5760008160009055506001016129a3565b5090565b6000604051905090565b600080fd5b600080fd5b60007fffffffff0000000000000000000000000000000000000000000000000000000082169050919050565b612a08816129d3565b8114612a1357600080fd5b50565b600081359050612a25816129ff565b92915050565b600060208284031215612a4157612a406129c9565b5b6000612a4f84828501612a16565b91505092915050565b60008115159050919050565b612a6d81612a58565b82525050565b6000602082019050612a886000830184612a64565b92915050565b600081519050919050565b600082825260208201905092915050565b60005b83811015612ac8578082015181840152602081019050612aad565b83811115612ad7576000848401525b50505050565b6000601f19601f8301169050919050565b6000612af982612a8e565b612b038185612a99565b9350612b13818560208601612aaa565b612b1c81612add565b840191505092915050565b60006020820190508181036000830152612b418184612aee565b905092915050565b6000819050919050565b612b5c81612b49565b8114612b6757600080fd5b50565b600081359050612b7981612b53565b92915050565b600060208284031215612b9557612b946129c9565b5b6000612ba384828501612b6a565b91505092915050565b600073ffffffffffffffffffffffffffffffffffffffff82169050919050565b6000612bd782612bac565b9050919050565b612be781612bcc565b82525050565b6000602082019050612c026000830184612bde565b92915050565b612c1181612bcc565b8114612c1c57600080fd5b50565b600081359050612c2e81612c08565b92915050565b60008060408385031215612c4b57612c4a6129c9565b5b6000612c5985828601612c1f565b9250506020612c6a85828601612b6a565b9150509250929050565b600080fd5b600080fd5b600080fd5b60008083601f840112612c9957612c98612c74565b5b8235905067ffffffffffffffff811115612cb657612cb5612c79565b5b602083019150836001820283011115612cd257612cd1612c7e565b5b9250929050565b600080600080600060808688031215612cf557612cf46129c9565b5b6000612d0388828901612c1f565b9550506020612d1488828901612c1f565b9450506040612d2588828901612b6a565b935050606086013567ffffffffffffffff811115612d4657612d456129ce565b5b612d5288828901612c83565b92509250509295509295909350565b612d6a816129d3565b82525050565b6000602082019050612d856000830184612d61565b92915050565b612d9481612b49565b82525050565b6000602082019050612daf6000830184612d8b565b92915050565b600080600060608486031215612dce57612dcd6129c9565b5b6000612ddc86828701612c1f565b9350506020612ded86828701612c1f565b9250506040612dfe86828701612b6a565b9150509250925092565b600060208284031215612e1e57612e1d6129c9565b5b6000612e2c84828501612c1f565b91505092915050565b6000819050919050565b612e4881612e35565b82525050565b60006fffffffffffffffffffffffffffffffff82169050919050565b612e7381612e4e565b82525050565b600060a0820190508181036000830152612e938188612aee565b9050612ea26020830187612e3f565b612eaf6040830186612e3f565b612ebc6060830185612e6a565b612ec96080830184612e6a565b9695505050505050565b60008083601f840112612ee957612ee8612c74565b5b8235905067ffffffffffffffff811115612f0657612f05612c79565b5b602083019150836001820283011115612f2257612f21612c7e565b5b9250929050565b60008060208385031215612f4057612f3f6129c9565b5b600083013567ffffffffffffffff811115612f5e57612f5d6129ce565b5b612f6a85828601612ed3565b92509250509250929050565b612f7f81612a58565b8114612f8a57600080fd5b50565b600081359050612f9c81612f76565b92915050565b60008060408385031215612fb957612fb86129c9565b5b6000612fc785828601612c1f565b9250506020612fd885828601612f8d565b9150509250929050565b600080fd5b7f4e487b7100000000000000000000000000000000000000000000000000000000600052604160045260246000fd5b61301f82612add565b810181811067ffffffffffffffff8211171561303e5761303d612fe7565b5b80604052505050565b60006130516129bf565b905061305d8282613016565b919050565b600067ffffffffffffffff82111561307d5761307c612fe7565b5b61308682612add565b9050602081019050919050565b82818337600083830152505050565b60006130b56130b084613062565b613047565b9050828152602081018484840111156130d1576130d0612fe2565b5b6130dc848285613093565b509392505050565b600082601f8301126130f9576130f8612c74565b5b81356131098482602086016130a2565b91505092915050565b6000806000806080858703121561312c5761312b6129c9565b5b600061313a87828801612c1f565b945050602061314b87828801612c1f565b935050604061315c87828801612b6a565b925050606085013567ffffffffffffffff81111561317d5761317c6129ce565b5b613189878288016130e4565b91505092959194509250565b6000806000604084860312156131ae576131ad6129c9565b5b60006131bc86828701612b6a565b935050602084013567ffffffffffffffff8111156131dd576131dc6129ce565b5b6131e986828701612ed3565b92509250509250925092565b6000806040838503121561320c5761320b6129c9565b5b600061321a85828601612c1f565b925050602061322b85828601612c1f565b9150509250929050565b6000806000806060858703121561324f5761324e6129c9565b5b600061325d87828801612c1f565b945050602061326e87828801612b6a565b935050604085013567ffffffffffffffff81111561328f5761328e6129ce565b5b61329b87828801612c83565b925092505092959194509250565b7f4e487b7100000000000000000000000000000000000000000000000000000000600052602260045260246000fd5b600060028204905060018216806132f057607f821691505b60208210811415613304576133036132a9565b5b50919050565b60008151905061331981612b53565b92915050565b600060208284031215613335576133346129c9565b5b60006133438482850161330a565b91505092915050565b60008151905061335b81612c08565b92915050565b600060208284031215613377576133766129c9565b5b60006133858482850161334c565b91505092915050565b600067ffffffffffffffff8211156133a9576133a8612fe7565b5b6133b282612add565b9050602081019050919050565b60006133d26133cd8461338e565b613047565b9050828152602081018484840111156133ee576133ed612fe2565b5b6133f9848285612aaa565b509392505050565b600082601f83011261341657613415612c74565b5b81516134268482602086016133bf565b91505092915050565b61343881612e35565b811461344357600080fd5b50565b6000815190506134558161342f565b92915050565b61346481612e4e565b811461346f57600080fd5b50565b6000815190506134818161345b565b92915050565b600080600080600060a086880312156134a3576134a26129c9565b5b600086015167ffffffffffffffff8111156134c1576134c06129ce565b5b6134cd88828901613401565b95505060206134de88828901613446565b94505060406134ef88828901613446565b935050606061350088828901613472565b925050608061351188828901613472565b9150509295509295909350565b600081905092915050565b600061353482612a8e565b61353e818561351e565b935061354e818560208601612aaa565b80840191505092915050565b60006135668285613529565b91506135728284613529565b91508190509392505050565b7f4e487b7100000000000000000000000000000000000000000000000000000000600052603260045260246000fd5b7f4e487b7100000000000000000000000000000000000000000000000000000000600052601160045260246000fd5b60006135e782612b49565b91507fffffffffffffffffffffffffffffffffffffffffffffffffffffffffffffffff82141561361a576136196135ad565b5b600182019050919050565b600060608201905061363a6000830186612bde565b6136476020830185612bde565b6136546040830184612d8b565b949350505050565b60006060820190506136716000830186612d8b565b61367e6020830185612d8b565b61368b6040830184612bde565b949350505050565b600061369f8385612a99565b93506136ac838584613093565b6136b583612add565b840190509392505050565b60006040820190506136d56000830186612d8b565b81810360208301526136e8818486613693565b9050949350505050565b60006040820190506137076000830185612d8b565b6137146020830184612d8b565b9392505050565b7f4f776e61626c653a206e6577206f776e657220697320746865207a65726f206160008201527f6464726573730000000000000000000000000000000000000000000000000000602082015250565b6000613777602683612a99565b91506137828261371b565b604082019050919050565b600060208201905081810360008301526137a68161376a565b9050919050565b7f4f776e61626c653a2063616c6c6572206973206e6f7420746865206f776e6572600082015250565b60006137e3602083612a99565b91506137ee826137ad565b602082019050919050565b60006020820190508181036000830152613812816137d6565b9050919050565b600081519050919050565b600082825260208201905092915050565b600061384082613819565b61384a8185613824565b935061385a818560208601612aaa565b61386381612add565b840191505092915050565b60006080820190506138836000830187612bde565b6138906020830186612bde565b61389d6040830185612d8b565b81810360608301526138af8184613835565b905095945050505050565b6000815190506138c9816129ff565b92915050565b6000602082840312156138e5576138e46129c9565b5b60006138f3848285016138ba565b9150509291505056fea2646970667358221220f0e89653f20a82ce49ad4c2a0441f8e330cd193c46e77f4b51c2e3665c55cc4464736f6c63430008090033",
  "linkReferences": {},
  "deployedLinkReferences": {}
}